{
	"data": {
		"bytecode": {
			"linkReferences": {},
			"object": "6080604052348015600e575f80fd5b506105d08061001c5f395ff3fe608060405234801561000f575f80fd5b5060043610610029575f3560e01c8063ce62a3bf1461002d575b5f80fd5b610047600480360381019061004291906103de565b61005d565b6040516100549190610434565b60405180910390f35b5f80825190505f5b600182610072919061047a565b81101561018a575f5b60018284610089919061047a565b610093919061047a565b81101561017c57846001826100a891906104ad565b815181106100b9576100b86104e0565b5b60200260200101518582815181106100d4576100d36104e0565b5b6020026020010151111561016f57846001826100f091906104ad565b81518110610101576101006104e0565b5b602002602001015185828151811061011c5761011b6104e0565b5b6020026020010151868381518110610137576101366104e0565b5b602002602001018760018561014c91906104ad565b8151811061015d5761015c6104e0565b5b60200260200101828152508281525050505b808060010191505061007b565b508080600101915050610065565b505f8060028361019a919061053a565b03610216576002846002846101af919061056a565b815181106101c0576101bf6104e0565b5b60200260200101518560016002866101d8919061056a565b6101e2919061047a565b815181106101f3576101f26104e0565b5b602002602001015161020591906104ad565b61020f919061056a565b9050610240565b83600283610224919061056a565b81518110610235576102346104e0565b5b602002602001015190505b8092505050919050565b5f604051905090565b5f80fd5b5f80fd5b5f80fd5b5f601f19601f8301169050919050565b7f4e487b71000000000000000000000000000000000000000000000000000000005f52604160045260245ffd5b6102a58261025f565b810181811067ffffffffffffffff821117156102c4576102c361026f565b5b80604052505050565b5f6102d661024a565b90506102e2828261029c565b919050565b5f67ffffffffffffffff8211156103015761030061026f565b5b602082029050602081019050919050565b5f80fd5b5f819050919050565b61032881610316565b8114610332575f80fd5b50565b5f813590506103438161031f565b92915050565b5f61035b610356846102e7565b6102cd565b9050808382526020820190506020840283018581111561037e5761037d610312565b5b835b818110156103a757806103938882610335565b845260208401935050602081019050610380565b5050509392505050565b5f82601f8301126103c5576103c461025b565b5b81356103d5848260208601610349565b91505092915050565b5f602082840312156103f3576103f2610253565b5b5f82013567ffffffffffffffff8111156104105761040f610257565b5b61041c848285016103b1565b91505092915050565b61042e81610316565b82525050565b5f6020820190506104475f830184610425565b92915050565b7f4e487b71000000000000000000000000000000000000000000000000000000005f52601160045260245ffd5b5f61048482610316565b915061048f83610316565b92508282039050818111156104a7576104a661044d565b5b92915050565b5f6104b782610316565b91506104c283610316565b92508282019050808211156104da576104d961044d565b5b92915050565b7f4e487b71000000000000000000000000000000000000000000000000000000005f52603260045260245ffd5b7f4e487b71000000000000000000000000000000000000000000000000000000005f52601260045260245ffd5b5f61054482610316565b915061054f83610316565b92508261055f5761055e61050d565b5b828206905092915050565b5f61057482610316565b915061057f83610316565b92508261058f5761058e61050d565b5b82820490509291505056fea2646970667358221220dcb02148bf9b78ebee79f10c210a21f60c3915ef4f0adc41f4963901ab08bbd964736f6c634300081a0033",
			"opcodes": "PUSH1 0x80 PUSH1 0x40 MSTORE CALLVALUE DUP1 ISZERO PUSH1 0xE JUMPI PUSH0 DUP1 REVERT JUMPDEST POP PUSH2 0x5D0 DUP1 PUSH2 0x1C PUSH0 CODECOPY PUSH0 RETURN INVALID PUSH1 0x80 PUSH1 0x40 MSTORE CALLVALUE DUP1 ISZERO PUSH2 0xF JUMPI PUSH0 DUP1 REVERT JUMPDEST POP PUSH1 0x4 CALLDATASIZE LT PUSH2 0x29 JUMPI PUSH0 CALLDATALOAD PUSH1 0xE0 SHR DUP1 PUSH4 0xCE62A3BF EQ PUSH2 0x2D JUMPI JUMPDEST PUSH0 DUP1 REVERT JUMPDEST PUSH2 0x47 PUSH1 0x4 DUP1 CALLDATASIZE SUB DUP2 ADD SWAP1 PUSH2 0x42 SWAP2 SWAP1 PUSH2 0x3DE JUMP JUMPDEST PUSH2 0x5D JUMP JUMPDEST PUSH1 0x40 MLOAD PUSH2 0x54 SWAP2 SWAP1 PUSH2 0x434 JUMP JUMPDEST PUSH1 0x40 MLOAD DUP1 SWAP2 SUB SWAP1 RETURN JUMPDEST PUSH0 DUP1 DUP3 MLOAD SWAP1 POP PUSH0 JUMPDEST PUSH1 0x1 DUP3 PUSH2 0x72 SWAP2 SWAP1 PUSH2 0x47A JUMP JUMPDEST DUP2 LT ISZERO PUSH2 0x18A JUMPI PUSH0 JUMPDEST PUSH1 0x1 DUP3 DUP5 PUSH2 0x89 SWAP2 SWAP1 PUSH2 0x47A JUMP JUMPDEST PUSH2 0x93 SWAP2 SWAP1 PUSH2 0x47A JUMP JUMPDEST DUP2 LT ISZERO PUSH2 0x17C JUMPI DUP5 PUSH1 0x1 DUP3 PUSH2 0xA8 SWAP2 SWAP1 PUSH2 0x4AD JUMP JUMPDEST DUP2 MLOAD DUP2 LT PUSH2 0xB9 JUMPI PUSH2 0xB8 PUSH2 0x4E0 JUMP JUMPDEST JUMPDEST PUSH1 0x20 MUL PUSH1 0x20 ADD ADD MLOAD DUP6 DUP3 DUP2 MLOAD DUP2 LT PUSH2 0xD4 JUMPI PUSH2 0xD3 PUSH2 0x4E0 JUMP JUMPDEST JUMPDEST PUSH1 0x20 MUL PUSH1 0x20 ADD ADD MLOAD GT ISZERO PUSH2 0x16F JUMPI DUP5 PUSH1 0x1 DUP3 PUSH2 0xF0 SWAP2 SWAP1 PUSH2 0x4AD JUMP JUMPDEST DUP2 MLOAD DUP2 LT PUSH2 0x101 JUMPI PUSH2 0x100 PUSH2 0x4E0 JUMP JUMPDEST JUMPDEST PUSH1 0x20 MUL PUSH1 0x20 ADD ADD MLOAD DUP6 DUP3 DUP2 MLOAD DUP2 LT PUSH2 0x11C JUMPI PUSH2 0x11B PUSH2 0x4E0 JUMP JUMPDEST JUMPDEST PUSH1 0x20 MUL PUSH1 0x20 ADD ADD MLOAD DUP7 DUP4 DUP2 MLOAD DUP2 LT PUSH2 0x137 JUMPI PUSH2 0x136 PUSH2 0x4E0 JUMP JUMPDEST JUMPDEST PUSH1 0x20 MUL PUSH1 0x20 ADD ADD DUP8 PUSH1 0x1 DUP6 PUSH2 0x14C SWAP2 SWAP1 PUSH2 0x4AD JUMP JUMPDEST DUP2 MLOAD DUP2 LT PUSH2 0x15D JUMPI PUSH2 0x15C PUSH2 0x4E0 JUMP JUMPDEST JUMPDEST PUSH1 0x20 MUL PUSH1 0x20 ADD ADD DUP3 DUP2 MSTORE POP DUP3 DUP2 MSTORE POP POP POP JUMPDEST DUP1 DUP1 PUSH1 0x1 ADD SWAP2 POP POP PUSH2 0x7B JUMP JUMPDEST POP DUP1 DUP1 PUSH1 0x1 ADD SWAP2 POP POP PUSH2 0x65 JUMP JUMPDEST POP PUSH0 DUP1 PUSH1 0x2 DUP4 PUSH2 0x19A SWAP2 SWAP1 PUSH2 0x53A JUMP JUMPDEST SUB PUSH2 0x216 JUMPI PUSH1 0x2 DUP5 PUSH1 0x2 DUP5 PUSH2 0x1AF SWAP2 SWAP1 PUSH2 0x56A JUMP JUMPDEST DUP2 MLOAD DUP2 LT PUSH2 0x1C0 JUMPI PUSH2 0x1BF PUSH2 0x4E0 JUMP JUMPDEST JUMPDEST PUSH1 0x20 MUL PUSH1 0x20 ADD ADD MLOAD DUP6 PUSH1 0x1 PUSH1 0x2 DUP7 PUSH2 0x1D8 SWAP2 SWAP1 PUSH2 0x56A JUMP JUMPDEST PUSH2 0x1E2 SWAP2 SWAP1 PUSH2 0x47A JUMP JUMPDEST DUP2 MLOAD DUP2 LT PUSH2 0x1F3 JUMPI PUSH2 0x1F2 PUSH2 0x4E0 JUMP JUMPDEST JUMPDEST PUSH1 0x20 MUL PUSH1 0x20 ADD ADD MLOAD PUSH2 0x205 SWAP2 SWAP1 PUSH2 0x4AD JUMP JUMPDEST PUSH2 0x20F SWAP2 SWAP1 PUSH2 0x56A JUMP JUMPDEST SWAP1 POP PUSH2 0x240 JUMP JUMPDEST DUP4 PUSH1 0x2 DUP4 PUSH2 0x224 SWAP2 SWAP1 PUSH2 0x56A JUMP JUMPDEST DUP2 MLOAD DUP2 LT PUSH2 0x235 JUMPI PUSH2 0x234 PUSH2 0x4E0 JUMP JUMPDEST JUMPDEST PUSH1 0x20 MUL PUSH1 0x20 ADD ADD MLOAD SWAP1 POP JUMPDEST DUP1 SWAP3 POP POP POP SWAP2 SWAP1 POP JUMP JUMPDEST PUSH0 PUSH1 0x40 MLOAD SWAP1 POP SWAP1 JUMP JUMPDEST PUSH0 DUP1 REVERT JUMPDEST PUSH0 DUP1 REVERT JUMPDEST PUSH0 DUP1 REVERT JUMPDEST PUSH0 PUSH1 0x1F NOT PUSH1 0x1F DUP4 ADD AND SWAP1 POP SWAP2 SWAP1 POP JUMP JUMPDEST PUSH32 0x4E487B7100000000000000000000000000000000000000000000000000000000 PUSH0 MSTORE PUSH1 0x41 PUSH1 0x4 MSTORE PUSH1 0x24 PUSH0 REVERT JUMPDEST PUSH2 0x2A5 DUP3 PUSH2 0x25F JUMP JUMPDEST DUP2 ADD DUP2 DUP2 LT PUSH8 0xFFFFFFFFFFFFFFFF DUP3 GT OR ISZERO PUSH2 0x2C4 JUMPI PUSH2 0x2C3 PUSH2 0x26F JUMP JUMPDEST JUMPDEST DUP1 PUSH1 0x40 MSTORE POP POP POP JUMP JUMPDEST PUSH0 PUSH2 0x2D6 PUSH2 0x24A JUMP JUMPDEST SWAP1 POP PUSH2 0x2E2 DUP3 DUP3 PUSH2 0x29C JUMP JUMPDEST SWAP2 SWAP1 POP JUMP JUMPDEST PUSH0 PUSH8 0xFFFFFFFFFFFFFFFF DUP3 GT ISZERO PUSH2 0x301 JUMPI PUSH2 0x300 PUSH2 0x26F JUMP JUMPDEST JUMPDEST PUSH1 0x20 DUP3 MUL SWAP1 POP PUSH1 0x20 DUP2 ADD SWAP1 POP SWAP2 SWAP1 POP JUMP JUMPDEST PUSH0 DUP1 REVERT JUMPDEST PUSH0 DUP2 SWAP1 POP SWAP2 SWAP1 POP JUMP JUMPDEST PUSH2 0x328 DUP2 PUSH2 0x316 JUMP JUMPDEST DUP2 EQ PUSH2 0x332 JUMPI PUSH0 DUP1 REVERT JUMPDEST POP JUMP JUMPDEST PUSH0 DUP2 CALLDATALOAD SWAP1 POP PUSH2 0x343 DUP2 PUSH2 0x31F JUMP JUMPDEST SWAP3 SWAP2 POP POP JUMP JUMPDEST PUSH0 PUSH2 0x35B PUSH2 0x356 DUP5 PUSH2 0x2E7 JUMP JUMPDEST PUSH2 0x2CD JUMP JUMPDEST SWAP1 POP DUP1 DUP4 DUP3 MSTORE PUSH1 0x20 DUP3 ADD SWAP1 POP PUSH1 0x20 DUP5 MUL DUP4 ADD DUP6 DUP2 GT ISZERO PUSH2 0x37E JUMPI PUSH2 0x37D PUSH2 0x312 JUMP JUMPDEST JUMPDEST DUP4 JUMPDEST DUP2 DUP2 LT ISZERO PUSH2 0x3A7 JUMPI DUP1 PUSH2 0x393 DUP9 DUP3 PUSH2 0x335 JUMP JUMPDEST DUP5 MSTORE PUSH1 0x20 DUP5 ADD SWAP4 POP POP PUSH1 0x20 DUP2 ADD SWAP1 POP PUSH2 0x380 JUMP JUMPDEST POP POP POP SWAP4 SWAP3 POP POP POP JUMP JUMPDEST PUSH0 DUP3 PUSH1 0x1F DUP4 ADD SLT PUSH2 0x3C5 JUMPI PUSH2 0x3C4 PUSH2 0x25B JUMP JUMPDEST JUMPDEST DUP2 CALLDATALOAD PUSH2 0x3D5 DUP5 DUP3 PUSH1 0x20 DUP7 ADD PUSH2 0x349 JUMP JUMPDEST SWAP2 POP POP SWAP3 SWAP2 POP POP JUMP JUMPDEST PUSH0 PUSH1 0x20 DUP3 DUP5 SUB SLT ISZERO PUSH2 0x3F3 JUMPI PUSH2 0x3F2 PUSH2 0x253 JUMP JUMPDEST JUMPDEST PUSH0 DUP3 ADD CALLDATALOAD PUSH8 0xFFFFFFFFFFFFFFFF DUP2 GT ISZERO PUSH2 0x410 JUMPI PUSH2 0x40F PUSH2 0x257 JUMP JUMPDEST JUMPDEST PUSH2 0x41C DUP5 DUP3 DUP6 ADD PUSH2 0x3B1 JUMP JUMPDEST SWAP2 POP POP SWAP3 SWAP2 POP POP JUMP JUMPDEST PUSH2 0x42E DUP2 PUSH2 0x316 JUMP JUMPDEST DUP3 MSTORE POP POP JUMP JUMPDEST PUSH0 PUSH1 0x20 DUP3 ADD SWAP1 POP PUSH2 0x447 PUSH0 DUP4 ADD DUP5 PUSH2 0x425 JUMP JUMPDEST SWAP3 SWAP2 POP POP JUMP JUMPDEST PUSH32 0x4E487B7100000000000000000000000000000000000000000000000000000000 PUSH0 MSTORE PUSH1 0x11 PUSH1 0x4 MSTORE PUSH1 0x24 PUSH0 REVERT JUMPDEST PUSH0 PUSH2 0x484 DUP3 PUSH2 0x316 JUMP JUMPDEST SWAP2 POP PUSH2 0x48F DUP4 PUSH2 0x316 JUMP JUMPDEST SWAP3 POP DUP3 DUP3 SUB SWAP1 POP DUP2 DUP2 GT ISZERO PUSH2 0x4A7 JUMPI PUSH2 0x4A6 PUSH2 0x44D JUMP JUMPDEST JUMPDEST SWAP3 SWAP2 POP POP JUMP JUMPDEST PUSH0 PUSH2 0x4B7 DUP3 PUSH2 0x316 JUMP JUMPDEST SWAP2 POP PUSH2 0x4C2 DUP4 PUSH2 0x316 JUMP JUMPDEST SWAP3 POP DUP3 DUP3 ADD SWAP1 POP DUP1 DUP3 GT ISZERO PUSH2 0x4DA JUMPI PUSH2 0x4D9 PUSH2 0x44D JUMP JUMPDEST JUMPDEST SWAP3 SWAP2 POP POP JUMP JUMPDEST PUSH32 0x4E487B7100000000000000000000000000000000000000000000000000000000 PUSH0 MSTORE PUSH1 0x32 PUSH1 0x4 MSTORE PUSH1 0x24 PUSH0 REVERT JUMPDEST PUSH32 0x4E487B7100000000000000000000000000000000000000000000000000000000 PUSH0 MSTORE PUSH1 0x12 PUSH1 0x4 MSTORE PUSH1 0x24 PUSH0 REVERT JUMPDEST PUSH0 PUSH2 0x544 DUP3 PUSH2 0x316 JUMP JUMPDEST SWAP2 POP PUSH2 0x54F DUP4 PUSH2 0x316 JUMP JUMPDEST SWAP3 POP DUP3 PUSH2 0x55F JUMPI PUSH2 0x55E PUSH2 0x50D JUMP JUMPDEST JUMPDEST DUP3 DUP3 MOD SWAP1 POP SWAP3 SWAP2 POP POP JUMP JUMPDEST PUSH0 PUSH2 0x574 DUP3 PUSH2 0x316 JUMP JUMPDEST SWAP2 POP PUSH2 0x57F DUP4 PUSH2 0x316 JUMP JUMPDEST SWAP3 POP DUP3 PUSH2 0x58F JUMPI PUSH2 0x58E PUSH2 0x50D JUMP JUMPDEST JUMPDEST DUP3 DUP3 DIV SWAP1 POP SWAP3 SWAP2 POP POP JUMP INVALID LOG2 PUSH5 0x6970667358 0x22 SLT KECCAK256 0xDC 0xB0 0x21 BASEFEE 0xBF SWAP12 PUSH25 0xEBEE79F10C210A21F60C3915EF4F0ADC41F4963901AB08BBD9 PUSH5 0x736F6C6343 STOP ADDMOD BYTE STOP CALLER "
		},
		"gasEstimates": {
			"creation": {
				"codeDepositCost": "297600",
				"executionCost": "335",
				"totalCost": "297935"
			},
			"external": {
				"median(uint256[])": "infinite"
			}
		},
		"methodIdentifiers": {
			"median(uint256[])": "ce62a3bf"
		}
	},
	"abi": [
		{
			"inputs": [
				{
					"internalType": "uint256[]",
					"name": "arr",
					"type": "uint256[]"
				}
			],
			"name": "median",
			"outputs": [
				{
					"internalType": "uint256",
					"name": "",
					"type": "uint256"
				}
			],
			"stateMutability": "pure",
			"type": "function"
		}
	]
}