{
	"data": {
		"bytecode": {
			"linkReferences": {},
			"object": "6080604052348015600e575f80fd5b506105608061001c5f395ff3fe608060405234801561000f575f80fd5b5060043610610029575f3560e01c8063dc1648401461002d575b5f80fd5b610047600480360381019061004291906101eb565b610049565b005b825f9081610057919061045b565b508160018190555080600281905550505050565b5f604051905090565b5f80fd5b5f80fd5b5f80fd5b5f80fd5b5f601f19601f8301169050919050565b7f4e487b71000000000000000000000000000000000000000000000000000000005f52604160045260245ffd5b6100ca82610084565b810181811067ffffffffffffffff821117156100e9576100e8610094565b5b80604052505050565b5f6100fb61006b565b905061010782826100c1565b919050565b5f67ffffffffffffffff82111561012657610125610094565b5b61012f82610084565b9050602081019050919050565b828183375f83830152505050565b5f61015c6101578461010c565b6100f2565b90508281526020810184848401111561017857610177610080565b5b61018384828561013c565b509392505050565b5f82601f83011261019f5761019e61007c565b5b81356101af84826020860161014a565b91505092915050565b5f819050919050565b6101ca816101b8565b81146101d4575f80fd5b50565b5f813590506101e5816101c1565b92915050565b5f805f6060848603121561020257610201610074565b5b5f84013567ffffffffffffffff81111561021f5761021e610078565b5b61022b8682870161018b565b935050602061023c868287016101d7565b925050604061024d868287016101d7565b9150509250925092565b5f81519050919050565b7f4e487b71000000000000000000000000000000000000000000000000000000005f52602260045260245ffd5b5f60028204905060018216806102a557607f821691505b6020821081036102b8576102b7610261565b5b50919050565b5f819050815f5260205f209050919050565b5f6020601f8301049050919050565b5f82821b905092915050565b5f6008830261031a7fffffffffffffffffffffffffffffffffffffffffffffffffffffffffffffffff826102df565b61032486836102df565b95508019841693508086168417925050509392505050565b5f819050919050565b5f61035f61035a610355846101b8565b61033c565b6101b8565b9050919050565b5f819050919050565b61037883610345565b61038c61038482610366565b8484546102eb565b825550505050565b5f90565b6103a0610394565b6103ab81848461036f565b505050565b5b818110156103ce576103c35f82610398565b6001810190506103b1565b5050565b601f821115610413576103e4816102be565b6103ed846102d0565b810160208510156103fc578190505b610410610408856102d0565b8301826103b0565b50505b505050565b5f82821c905092915050565b5f6104335f1984600802610418565b1980831691505092915050565b5f61044b8383610424565b9150826002028217905092915050565b61046482610257565b67ffffffffffffffff81111561047d5761047c610094565b5b610487825461028e565b6104928282856103d2565b5f60209050601f8311600181146104c3575f84156104b1578287015190505b6104bb8582610440565b865550610522565b601f1984166104d1866102be565b5f5b828110156104f8578489015182556001820191506020850194506020810190506104d3565b868310156105155784890151610511601f891682610424565b8355505b6001600288020188555050505b50505050505056fea2646970667358221220493042934fb320231e228e3c8453323dba76b730bcdf76adb1c95717085430d764736f6c634300081a0033",
			"opcodes": "PUSH1 0x80 PUSH1 0x40 MSTORE CALLVALUE DUP1 ISZERO PUSH1 0xE JUMPI PUSH0 DUP1 REVERT JUMPDEST POP PUSH2 0x560 DUP1 PUSH2 0x1C PUSH0 CODECOPY PUSH0 RETURN INVALID PUSH1 0x80 PUSH1 0x40 MSTORE CALLVALUE DUP1 ISZERO PUSH2 0xF JUMPI PUSH0 DUP1 REVERT JUMPDEST POP PUSH1 0x4 CALLDATASIZE LT PUSH2 0x29 JUMPI PUSH0 CALLDATALOAD PUSH1 0xE0 SHR DUP1 PUSH4 0xDC164840 EQ PUSH2 0x2D JUMPI JUMPDEST PUSH0 DUP1 REVERT JUMPDEST PUSH2 0x47 PUSH1 0x4 DUP1 CALLDATASIZE SUB DUP2 ADD SWAP1 PUSH2 0x42 SWAP2 SWAP1 PUSH2 0x1EB JUMP JUMPDEST PUSH2 0x49 JUMP JUMPDEST STOP JUMPDEST DUP3 PUSH0 SWAP1 DUP2 PUSH2 0x57 SWAP2 SWAP1 PUSH2 0x45B JUMP JUMPDEST POP DUP2 PUSH1 0x1 DUP2 SWAP1 SSTORE POP DUP1 PUSH1 0x2 DUP2 SWAP1 SSTORE POP POP POP POP JUMP JUMPDEST PUSH0 PUSH1 0x40 MLOAD SWAP1 POP SWAP1 JUMP JUMPDEST PUSH0 DUP1 REVERT JUMPDEST PUSH0 DUP1 REVERT JUMPDEST PUSH0 DUP1 REVERT JUMPDEST PUSH0 DUP1 REVERT JUMPDEST PUSH0 PUSH1 0x1F NOT PUSH1 0x1F DUP4 ADD AND SWAP1 POP SWAP2 SWAP1 POP JUMP JUMPDEST PUSH32 0x4E487B7100000000000000000000000000000000000000000000000000000000 PUSH0 MSTORE PUSH1 0x41 PUSH1 0x4 MSTORE PUSH1 0x24 PUSH0 REVERT JUMPDEST PUSH2 0xCA DUP3 PUSH2 0x84 JUMP JUMPDEST DUP2 ADD DUP2 DUP2 LT PUSH8 0xFFFFFFFFFFFFFFFF DUP3 GT OR ISZERO PUSH2 0xE9 JUMPI PUSH2 0xE8 PUSH2 0x94 JUMP JUMPDEST JUMPDEST DUP1 PUSH1 0x40 MSTORE POP POP POP JUMP JUMPDEST PUSH0 PUSH2 0xFB PUSH2 0x6B JUMP JUMPDEST SWAP1 POP PUSH2 0x107 DUP3 DUP3 PUSH2 0xC1 JUMP JUMPDEST SWAP2 SWAP1 POP JUMP JUMPDEST PUSH0 PUSH8 0xFFFFFFFFFFFFFFFF DUP3 GT ISZERO PUSH2 0x126 JUMPI PUSH2 0x125 PUSH2 0x94 JUMP JUMPDEST JUMPDEST PUSH2 0x12F DUP3 PUSH2 0x84 JUMP JUMPDEST SWAP1 POP PUSH1 0x20 DUP2 ADD SWAP1 POP SWAP2 SWAP1 POP JUMP JUMPDEST DUP3 DUP2 DUP4 CALLDATACOPY PUSH0 DUP4 DUP4 ADD MSTORE POP POP POP JUMP JUMPDEST PUSH0 PUSH2 0x15C PUSH2 0x157 DUP5 PUSH2 0x10C JUMP JUMPDEST PUSH2 0xF2 JUMP JUMPDEST SWAP1 POP DUP3 DUP2 MSTORE PUSH1 0x20 DUP2 ADD DUP5 DUP5 DUP5 ADD GT ISZERO PUSH2 0x178 JUMPI PUSH2 0x177 PUSH2 0x80 JUMP JUMPDEST JUMPDEST PUSH2 0x183 DUP5 DUP3 DUP6 PUSH2 0x13C JUMP JUMPDEST POP SWAP4 SWAP3 POP POP POP JUMP JUMPDEST PUSH0 DUP3 PUSH1 0x1F DUP4 ADD SLT PUSH2 0x19F JUMPI PUSH2 0x19E PUSH2 0x7C JUMP JUMPDEST JUMPDEST DUP2 CALLDATALOAD PUSH2 0x1AF DUP5 DUP3 PUSH1 0x20 DUP7 ADD PUSH2 0x14A JUMP JUMPDEST SWAP2 POP POP SWAP3 SWAP2 POP POP JUMP JUMPDEST PUSH0 DUP2 SWAP1 POP SWAP2 SWAP1 POP JUMP JUMPDEST PUSH2 0x1CA DUP2 PUSH2 0x1B8 JUMP JUMPDEST DUP2 EQ PUSH2 0x1D4 JUMPI PUSH0 DUP1 REVERT JUMPDEST POP JUMP JUMPDEST PUSH0 DUP2 CALLDATALOAD SWAP1 POP PUSH2 0x1E5 DUP2 PUSH2 0x1C1 JUMP JUMPDEST SWAP3 SWAP2 POP POP JUMP JUMPDEST PUSH0 DUP1 PUSH0 PUSH1 0x60 DUP5 DUP7 SUB SLT ISZERO PUSH2 0x202 JUMPI PUSH2 0x201 PUSH2 0x74 JUMP JUMPDEST JUMPDEST PUSH0 DUP5 ADD CALLDATALOAD PUSH8 0xFFFFFFFFFFFFFFFF DUP2 GT ISZERO PUSH2 0x21F JUMPI PUSH2 0x21E PUSH2 0x78 JUMP JUMPDEST JUMPDEST PUSH2 0x22B DUP7 DUP3 DUP8 ADD PUSH2 0x18B JUMP JUMPDEST SWAP4 POP POP PUSH1 0x20 PUSH2 0x23C DUP7 DUP3 DUP8 ADD PUSH2 0x1D7 JUMP JUMPDEST SWAP3 POP POP PUSH1 0x40 PUSH2 0x24D DUP7 DUP3 DUP8 ADD PUSH2 0x1D7 JUMP JUMPDEST SWAP2 POP POP SWAP3 POP SWAP3 POP SWAP3 JUMP JUMPDEST PUSH0 DUP2 MLOAD SWAP1 POP SWAP2 SWAP1 POP JUMP JUMPDEST PUSH32 0x4E487B7100000000000000000000000000000000000000000000000000000000 PUSH0 MSTORE PUSH1 0x22 PUSH1 0x4 MSTORE PUSH1 0x24 PUSH0 REVERT JUMPDEST PUSH0 PUSH1 0x2 DUP3 DIV SWAP1 POP PUSH1 0x1 DUP3 AND DUP1 PUSH2 0x2A5 JUMPI PUSH1 0x7F DUP3 AND SWAP2 POP JUMPDEST PUSH1 0x20 DUP3 LT DUP2 SUB PUSH2 0x2B8 JUMPI PUSH2 0x2B7 PUSH2 0x261 JUMP JUMPDEST JUMPDEST POP SWAP2 SWAP1 POP JUMP JUMPDEST PUSH0 DUP2 SWAP1 POP DUP2 PUSH0 MSTORE PUSH1 0x20 PUSH0 KECCAK256 SWAP1 POP SWAP2 SWAP1 POP JUMP JUMPDEST PUSH0 PUSH1 0x20 PUSH1 0x1F DUP4 ADD DIV SWAP1 POP SWAP2 SWAP1 POP JUMP JUMPDEST PUSH0 DUP3 DUP3 SHL SWAP1 POP SWAP3 SWAP2 POP POP JUMP JUMPDEST PUSH0 PUSH1 0x8 DUP4 MUL PUSH2 0x31A PUSH32 0xFFFFFFFFFFFFFFFFFFFFFFFFFFFFFFFFFFFFFFFFFFFFFFFFFFFFFFFFFFFFFFFF DUP3 PUSH2 0x2DF JUMP JUMPDEST PUSH2 0x324 DUP7 DUP4 PUSH2 0x2DF JUMP JUMPDEST SWAP6 POP DUP1 NOT DUP5 AND SWAP4 POP DUP1 DUP7 AND DUP5 OR SWAP3 POP POP POP SWAP4 SWAP3 POP POP POP JUMP JUMPDEST PUSH0 DUP2 SWAP1 POP SWAP2 SWAP1 POP JUMP JUMPDEST PUSH0 PUSH2 0x35F PUSH2 0x35A PUSH2 0x355 DUP5 PUSH2 0x1B8 JUMP JUMPDEST PUSH2 0x33C JUMP JUMPDEST PUSH2 0x1B8 JUMP JUMPDEST SWAP1 POP SWAP2 SWAP1 POP JUMP JUMPDEST PUSH0 DUP2 SWAP1 POP SWAP2 SWAP1 POP JUMP JUMPDEST PUSH2 0x378 DUP4 PUSH2 0x345 JUMP JUMPDEST PUSH2 0x38C PUSH2 0x384 DUP3 PUSH2 0x366 JUMP JUMPDEST DUP5 DUP5 SLOAD PUSH2 0x2EB JUMP JUMPDEST DUP3 SSTORE POP POP POP POP JUMP JUMPDEST PUSH0 SWAP1 JUMP JUMPDEST PUSH2 0x3A0 PUSH2 0x394 JUMP JUMPDEST PUSH2 0x3AB DUP2 DUP5 DUP5 PUSH2 0x36F JUMP JUMPDEST POP POP POP JUMP JUMPDEST JUMPDEST DUP2 DUP2 LT ISZERO PUSH2 0x3CE JUMPI PUSH2 0x3C3 PUSH0 DUP3 PUSH2 0x398 JUMP JUMPDEST PUSH1 0x1 DUP2 ADD SWAP1 POP PUSH2 0x3B1 JUMP JUMPDEST POP POP JUMP JUMPDEST PUSH1 0x1F DUP3 GT ISZERO PUSH2 0x413 JUMPI PUSH2 0x3E4 DUP2 PUSH2 0x2BE JUMP JUMPDEST PUSH2 0x3ED DUP5 PUSH2 0x2D0 JUMP JUMPDEST DUP2 ADD PUSH1 0x20 DUP6 LT ISZERO PUSH2 0x3FC JUMPI DUP2 SWAP1 POP JUMPDEST PUSH2 0x410 PUSH2 0x408 DUP6 PUSH2 0x2D0 JUMP JUMPDEST DUP4 ADD DUP3 PUSH2 0x3B0 JUMP JUMPDEST POP POP JUMPDEST POP POP POP JUMP JUMPDEST PUSH0 DUP3 DUP3 SHR SWAP1 POP SWAP3 SWAP2 POP POP JUMP JUMPDEST PUSH0 PUSH2 0x433 PUSH0 NOT DUP5 PUSH1 0x8 MUL PUSH2 0x418 JUMP JUMPDEST NOT DUP1 DUP4 AND SWAP2 POP POP SWAP3 SWAP2 POP POP JUMP JUMPDEST PUSH0 PUSH2 0x44B DUP4 DUP4 PUSH2 0x424 JUMP JUMPDEST SWAP2 POP DUP3 PUSH1 0x2 MUL DUP3 OR SWAP1 POP SWAP3 SWAP2 POP POP JUMP JUMPDEST PUSH2 0x464 DUP3 PUSH2 0x257 JUMP JUMPDEST PUSH8 0xFFFFFFFFFFFFFFFF DUP2 GT ISZERO PUSH2 0x47D JUMPI PUSH2 0x47C PUSH2 0x94 JUMP JUMPDEST JUMPDEST PUSH2 0x487 DUP3 SLOAD PUSH2 0x28E JUMP JUMPDEST PUSH2 0x492 DUP3 DUP3 DUP6 PUSH2 0x3D2 JUMP JUMPDEST PUSH0 PUSH1 0x20 SWAP1 POP PUSH1 0x1F DUP4 GT PUSH1 0x1 DUP2 EQ PUSH2 0x4C3 JUMPI PUSH0 DUP5 ISZERO PUSH2 0x4B1 JUMPI DUP3 DUP8 ADD MLOAD SWAP1 POP JUMPDEST PUSH2 0x4BB DUP6 DUP3 PUSH2 0x440 JUMP JUMPDEST DUP7 SSTORE POP PUSH2 0x522 JUMP JUMPDEST PUSH1 0x1F NOT DUP5 AND PUSH2 0x4D1 DUP7 PUSH2 0x2BE JUMP JUMPDEST PUSH0 JUMPDEST DUP3 DUP2 LT ISZERO PUSH2 0x4F8 JUMPI DUP5 DUP10 ADD MLOAD DUP3 SSTORE PUSH1 0x1 DUP3 ADD SWAP2 POP PUSH1 0x20 DUP6 ADD SWAP5 POP PUSH1 0x20 DUP2 ADD SWAP1 POP PUSH2 0x4D3 JUMP JUMPDEST DUP7 DUP4 LT ISZERO PUSH2 0x515 JUMPI DUP5 DUP10 ADD MLOAD PUSH2 0x511 PUSH1 0x1F DUP10 AND DUP3 PUSH2 0x424 JUMP JUMPDEST DUP4 SSTORE POP JUMPDEST PUSH1 0x1 PUSH1 0x2 DUP9 MUL ADD DUP9 SSTORE POP POP POP JUMPDEST POP POP POP POP POP POP JUMP INVALID LOG2 PUSH5 0x6970667358 0x22 SLT KECCAK256 BLOBHASH ADDRESS TIMESTAMP SWAP4 0x4F 0xB3 KECCAK256 0x23 0x1E 0x22 DUP15 EXTCODECOPY DUP5 MSTORE8 ORIGIN RETURNDATASIZE 0xBA PUSH23 0xB730BCDF76ADB1C95717085430D764736F6C634300081A STOP CALLER "
		},
		"gasEstimates": {
			"creation": {
				"codeDepositCost": "275200",
				"executionCost": "310",
				"totalCost": "275510"
			},
			"external": {
				"setE(string,uint256,uint256)": "infinite"
			}
		},
		"methodIdentifiers": {
			"setE(string,uint256,uint256)": "dc164840"
		}
	},
	"abi": [
		{
			"inputs": [
				{
					"internalType": "string",
					"name": "a",
					"type": "string"
				},
				{
					"internalType": "uint256",
					"name": "b",
					"type": "uint256"
				},
				{
					"internalType": "uint256",
					"name": "c",
					"type": "uint256"
				}
			],
			"name": "setE",
			"outputs": [],
			"stateMutability": "nonpayable",
			"type": "function"
		}
	]
}