{
	"data": {
		"bytecode": {
			"linkReferences": {},
			"object": "6080604052348015600e575f80fd5b50610c558061001c5f395ff3fe608060405234801561000f575f80fd5b5060043610610055575f3560e01c80630b2accb214610059578063880150d4146100775780639b4d52dd14610093578063e85bce38146100af578063fbbf93a0146100cb575b5f80fd5b6100616100ed565b60405161006e9190610433565b60405180910390f35b610091600480360381019061008c9190610599565b6100f1565b005b6100ad60048036038101906100a89190610639565b610114565b005b6100c960048036038101906100c4919061077b565b61012f565b005b6100d3610144565b6040516100e4959493929190610806565b60405180910390f35b5f90565b815f90816100ff9190610a66565b50806001908161010f9190610a66565b505050565b81600290816101239190610a66565b50806003819055505050565b806004906005610140929190610369565b5050565b60608060605f805f805b600581101561019e576004816005811061016b5761016a610b35565b5b602091828204019190069054906101000a900460ff1660ff168261018f9190610b8f565b9150808060010191505061014e565b505f6005826101ad9190610bef565b90505f60016002600354848480546101c490610899565b80601f01602080910402602001604051908101604052809291908181526020018280546101f090610899565b801561023b5780601f106102125761010080835404028352916020019161023b565b820191905f5260205f20905b81548152906001019060200180831161021e57829003601f168201915b5050505050945083805461024e90610899565b80601f016020809104026020016040519081016040528092919081815260200182805461027a90610899565b80156102c55780601f1061029c576101008083540402835291602001916102c5565b820191905f5260205f20905b8154815290600101906020018083116102a857829003601f168201915b505050505093508280546102d890610899565b80601f016020809104026020016040519081016040528092919081815260200182805461030490610899565b801561034f5780601f106103265761010080835404028352916020019161034f565b820191905f5260205f20905b81548152906001019060200180831161033257829003601f168201915b505050505092509650965096509650965050509091929394565b826005601f016020900481019282156103ef579160200282015f5b838211156103c157835183826101000a81548160ff021916908360ff16021790555092602001926001016020815f01049283019260010302610384565b80156103ed5782816101000a81549060ff02191690556001016020815f010492830192600103026103c1565b505b5090506103fc9190610400565b5090565b5b80821115610417575f815f905550600101610401565b5090565b5f819050919050565b61042d8161041b565b82525050565b5f6020820190506104465f830184610424565b92915050565b5f604051905090565b5f80fd5b5f80fd5b5f80fd5b5f80fd5b5f601f19601f8301169050919050565b7f4e487b71000000000000000000000000000000000000000000000000000000005f52604160045260245ffd5b6104ab82610465565b810181811067ffffffffffffffff821117156104ca576104c9610475565b5b80604052505050565b5f6104dc61044c565b90506104e882826104a2565b919050565b5f67ffffffffffffffff82111561050757610506610475565b5b61051082610465565b9050602081019050919050565b828183375f83830152505050565b5f61053d610538846104ed565b6104d3565b90508281526020810184848401111561055957610558610461565b5b61056484828561051d565b509392505050565b5f82601f8301126105805761057f61045d565b5b813561059084826020860161052b565b91505092915050565b5f80604083850312156105af576105ae610455565b5b5f83013567ffffffffffffffff8111156105cc576105cb610459565b5b6105d88582860161056c565b925050602083013567ffffffffffffffff8111156105f9576105f8610459565b5b6106058582860161056c565b9150509250929050565b6106188161041b565b8114610622575f80fd5b50565b5f813590506106338161060f565b92915050565b5f806040838503121561064f5761064e610455565b5b5f83013567ffffffffffffffff81111561066c5761066b610459565b5b6106788582860161056c565b925050602061068985828601610625565b9150509250929050565b5f67ffffffffffffffff8211156106ad576106ac610475565b5b602082029050919050565b5f80fd5b5f60ff82169050919050565b6106d1816106bc565b81146106db575f80fd5b50565b5f813590506106ec816106c8565b92915050565b5f6107046106ff84610693565b6104d3565b9050806020840283018581111561071e5761071d6106b8565b5b835b81811015610747578061073388826106de565b845260208401935050602081019050610720565b5050509392505050565b5f82601f8301126107655761076461045d565b5b60056107728482856106f2565b91505092915050565b5f60a082840312156107905761078f610455565b5b5f61079d84828501610751565b91505092915050565b5f81519050919050565b5f82825260208201905092915050565b8281835e5f83830152505050565b5f6107d8826107a6565b6107e281856107b0565b93506107f28185602086016107c0565b6107fb81610465565b840191505092915050565b5f60a0820190508181035f83015261081e81886107ce565b9050818103602083015261083281876107ce565b9050818103604083015261084681866107ce565b90506108556060830185610424565b6108626080830184610424565b9695505050505050565b7f4e487b71000000000000000000000000000000000000000000000000000000005f52602260045260245ffd5b5f60028204905060018216806108b057607f821691505b6020821081036108c3576108c261086c565b5b50919050565b5f819050815f5260205f209050919050565b5f6020601f8301049050919050565b5f82821b905092915050565b5f600883026109257fffffffffffffffffffffffffffffffffffffffffffffffffffffffffffffffff826108ea565b61092f86836108ea565b95508019841693508086168417925050509392505050565b5f819050919050565b5f61096a6109656109608461041b565b610947565b61041b565b9050919050565b5f819050919050565b61098383610950565b61099761098f82610971565b8484546108f6565b825550505050565b5f90565b6109ab61099f565b6109b681848461097a565b505050565b5b818110156109d9576109ce5f826109a3565b6001810190506109bc565b5050565b601f821115610a1e576109ef816108c9565b6109f8846108db565b81016020851015610a07578190505b610a1b610a13856108db565b8301826109bb565b50505b505050565b5f82821c905092915050565b5f610a3e5f1984600802610a23565b1980831691505092915050565b5f610a568383610a2f565b9150826002028217905092915050565b610a6f826107a6565b67ffffffffffffffff811115610a8857610a87610475565b5b610a928254610899565b610a9d8282856109dd565b5f60209050601f831160018114610ace575f8415610abc578287015190505b610ac68582610a4b565b865550610b2d565b601f198416610adc866108c9565b5f5b82811015610b0357848901518255600182019150602085019450602081019050610ade565b86831015610b205784890151610b1c601f891682610a2f565b8355505b6001600288020188555050505b505050505050565b7f4e487b71000000000000000000000000000000000000000000000000000000005f52603260045260245ffd5b7f4e487b71000000000000000000000000000000000000000000000000000000005f52601160045260245ffd5b5f610b998261041b565b9150610ba48361041b565b9250828201905080821115610bbc57610bbb610b62565b5b92915050565b7f4e487b71000000000000000000000000000000000000000000000000000000005f52601260045260245ffd5b5f610bf98261041b565b9150610c048361041b565b925082610c1457610c13610bc2565b5b82820490509291505056fea2646970667358221220965e5ff07dcaf992671bc0f0505f923a6cea7b75cdfb5946aec37074203d338264736f6c634300081a0033",
			"opcodes": "PUSH1 0x80 PUSH1 0x40 MSTORE CALLVALUE DUP1 ISZERO PUSH1 0xE JUMPI PUSH0 DUP1 REVERT JUMPDEST POP PUSH2 0xC55 DUP1 PUSH2 0x1C PUSH0 CODECOPY PUSH0 RETURN INVALID PUSH1 0x80 PUSH1 0x40 MSTORE CALLVALUE DUP1 ISZERO PUSH2 0xF JUMPI PUSH0 DUP1 REVERT JUMPDEST POP PUSH1 0x4 CALLDATASIZE LT PUSH2 0x55 JUMPI PUSH0 CALLDATALOAD PUSH1 0xE0 SHR DUP1 PUSH4 0xB2ACCB2 EQ PUSH2 0x59 JUMPI DUP1 PUSH4 0x880150D4 EQ PUSH2 0x77 JUMPI DUP1 PUSH4 0x9B4D52DD EQ PUSH2 0x93 JUMPI DUP1 PUSH4 0xE85BCE38 EQ PUSH2 0xAF JUMPI DUP1 PUSH4 0xFBBF93A0 EQ PUSH2 0xCB JUMPI JUMPDEST PUSH0 DUP1 REVERT JUMPDEST PUSH2 0x61 PUSH2 0xED JUMP JUMPDEST PUSH1 0x40 MLOAD PUSH2 0x6E SWAP2 SWAP1 PUSH2 0x433 JUMP JUMPDEST PUSH1 0x40 MLOAD DUP1 SWAP2 SUB SWAP1 RETURN JUMPDEST PUSH2 0x91 PUSH1 0x4 DUP1 CALLDATASIZE SUB DUP2 ADD SWAP1 PUSH2 0x8C SWAP2 SWAP1 PUSH2 0x599 JUMP JUMPDEST PUSH2 0xF1 JUMP JUMPDEST STOP JUMPDEST PUSH2 0xAD PUSH1 0x4 DUP1 CALLDATASIZE SUB DUP2 ADD SWAP1 PUSH2 0xA8 SWAP2 SWAP1 PUSH2 0x639 JUMP JUMPDEST PUSH2 0x114 JUMP JUMPDEST STOP JUMPDEST PUSH2 0xC9 PUSH1 0x4 DUP1 CALLDATASIZE SUB DUP2 ADD SWAP1 PUSH2 0xC4 SWAP2 SWAP1 PUSH2 0x77B JUMP JUMPDEST PUSH2 0x12F JUMP JUMPDEST STOP JUMPDEST PUSH2 0xD3 PUSH2 0x144 JUMP JUMPDEST PUSH1 0x40 MLOAD PUSH2 0xE4 SWAP6 SWAP5 SWAP4 SWAP3 SWAP2 SWAP1 PUSH2 0x806 JUMP JUMPDEST PUSH1 0x40 MLOAD DUP1 SWAP2 SUB SWAP1 RETURN JUMPDEST PUSH0 SWAP1 JUMP JUMPDEST DUP2 PUSH0 SWAP1 DUP2 PUSH2 0xFF SWAP2 SWAP1 PUSH2 0xA66 JUMP JUMPDEST POP DUP1 PUSH1 0x1 SWAP1 DUP2 PUSH2 0x10F SWAP2 SWAP1 PUSH2 0xA66 JUMP JUMPDEST POP POP POP JUMP JUMPDEST DUP2 PUSH1 0x2 SWAP1 DUP2 PUSH2 0x123 SWAP2 SWAP1 PUSH2 0xA66 JUMP JUMPDEST POP DUP1 PUSH1 0x3 DUP2 SWAP1 SSTORE POP POP POP JUMP JUMPDEST DUP1 PUSH1 0x4 SWAP1 PUSH1 0x5 PUSH2 0x140 SWAP3 SWAP2 SWAP1 PUSH2 0x369 JUMP JUMPDEST POP POP JUMP JUMPDEST PUSH1 0x60 DUP1 PUSH1 0x60 PUSH0 DUP1 PUSH0 DUP1 JUMPDEST PUSH1 0x5 DUP2 LT ISZERO PUSH2 0x19E JUMPI PUSH1 0x4 DUP2 PUSH1 0x5 DUP2 LT PUSH2 0x16B JUMPI PUSH2 0x16A PUSH2 0xB35 JUMP JUMPDEST JUMPDEST PUSH1 0x20 SWAP2 DUP3 DUP3 DIV ADD SWAP2 SWAP1 MOD SWAP1 SLOAD SWAP1 PUSH2 0x100 EXP SWAP1 DIV PUSH1 0xFF AND PUSH1 0xFF AND DUP3 PUSH2 0x18F SWAP2 SWAP1 PUSH2 0xB8F JUMP JUMPDEST SWAP2 POP DUP1 DUP1 PUSH1 0x1 ADD SWAP2 POP POP PUSH2 0x14E JUMP JUMPDEST POP PUSH0 PUSH1 0x5 DUP3 PUSH2 0x1AD SWAP2 SWAP1 PUSH2 0xBEF JUMP JUMPDEST SWAP1 POP PUSH0 PUSH1 0x1 PUSH1 0x2 PUSH1 0x3 SLOAD DUP5 DUP5 DUP1 SLOAD PUSH2 0x1C4 SWAP1 PUSH2 0x899 JUMP JUMPDEST DUP1 PUSH1 0x1F ADD PUSH1 0x20 DUP1 SWAP2 DIV MUL PUSH1 0x20 ADD PUSH1 0x40 MLOAD SWAP1 DUP2 ADD PUSH1 0x40 MSTORE DUP1 SWAP3 SWAP2 SWAP1 DUP2 DUP2 MSTORE PUSH1 0x20 ADD DUP3 DUP1 SLOAD PUSH2 0x1F0 SWAP1 PUSH2 0x899 JUMP JUMPDEST DUP1 ISZERO PUSH2 0x23B JUMPI DUP1 PUSH1 0x1F LT PUSH2 0x212 JUMPI PUSH2 0x100 DUP1 DUP4 SLOAD DIV MUL DUP4 MSTORE SWAP2 PUSH1 0x20 ADD SWAP2 PUSH2 0x23B JUMP JUMPDEST DUP3 ADD SWAP2 SWAP1 PUSH0 MSTORE PUSH1 0x20 PUSH0 KECCAK256 SWAP1 JUMPDEST DUP2 SLOAD DUP2 MSTORE SWAP1 PUSH1 0x1 ADD SWAP1 PUSH1 0x20 ADD DUP1 DUP4 GT PUSH2 0x21E JUMPI DUP3 SWAP1 SUB PUSH1 0x1F AND DUP3 ADD SWAP2 JUMPDEST POP POP POP POP POP SWAP5 POP DUP4 DUP1 SLOAD PUSH2 0x24E SWAP1 PUSH2 0x899 JUMP JUMPDEST DUP1 PUSH1 0x1F ADD PUSH1 0x20 DUP1 SWAP2 DIV MUL PUSH1 0x20 ADD PUSH1 0x40 MLOAD SWAP1 DUP2 ADD PUSH1 0x40 MSTORE DUP1 SWAP3 SWAP2 SWAP1 DUP2 DUP2 MSTORE PUSH1 0x20 ADD DUP3 DUP1 SLOAD PUSH2 0x27A SWAP1 PUSH2 0x899 JUMP JUMPDEST DUP1 ISZERO PUSH2 0x2C5 JUMPI DUP1 PUSH1 0x1F LT PUSH2 0x29C JUMPI PUSH2 0x100 DUP1 DUP4 SLOAD DIV MUL DUP4 MSTORE SWAP2 PUSH1 0x20 ADD SWAP2 PUSH2 0x2C5 JUMP JUMPDEST DUP3 ADD SWAP2 SWAP1 PUSH0 MSTORE PUSH1 0x20 PUSH0 KECCAK256 SWAP1 JUMPDEST DUP2 SLOAD DUP2 MSTORE SWAP1 PUSH1 0x1 ADD SWAP1 PUSH1 0x20 ADD DUP1 DUP4 GT PUSH2 0x2A8 JUMPI DUP3 SWAP1 SUB PUSH1 0x1F AND DUP3 ADD SWAP2 JUMPDEST POP POP POP POP POP SWAP4 POP DUP3 DUP1 SLOAD PUSH2 0x2D8 SWAP1 PUSH2 0x899 JUMP JUMPDEST DUP1 PUSH1 0x1F ADD PUSH1 0x20 DUP1 SWAP2 DIV MUL PUSH1 0x20 ADD PUSH1 0x40 MLOAD SWAP1 DUP2 ADD PUSH1 0x40 MSTORE DUP1 SWAP3 SWAP2 SWAP1 DUP2 DUP2 MSTORE PUSH1 0x20 ADD DUP3 DUP1 SLOAD PUSH2 0x304 SWAP1 PUSH2 0x899 JUMP JUMPDEST DUP1 ISZERO PUSH2 0x34F JUMPI DUP1 PUSH1 0x1F LT PUSH2 0x326 JUMPI PUSH2 0x100 DUP1 DUP4 SLOAD DIV MUL DUP4 MSTORE SWAP2 PUSH1 0x20 ADD SWAP2 PUSH2 0x34F JUMP JUMPDEST DUP3 ADD SWAP2 SWAP1 PUSH0 MSTORE PUSH1 0x20 PUSH0 KECCAK256 SWAP1 JUMPDEST DUP2 SLOAD DUP2 MSTORE SWAP1 PUSH1 0x1 ADD SWAP1 PUSH1 0x20 ADD DUP1 DUP4 GT PUSH2 0x332 JUMPI DUP3 SWAP1 SUB PUSH1 0x1F AND DUP3 ADD SWAP2 JUMPDEST POP POP POP POP POP SWAP3 POP SWAP7 POP SWAP7 POP SWAP7 POP SWAP7 POP SWAP7 POP POP POP SWAP1 SWAP2 SWAP3 SWAP4 SWAP5 JUMP JUMPDEST DUP3 PUSH1 0x5 PUSH1 0x1F ADD PUSH1 0x20 SWAP1 DIV DUP2 ADD SWAP3 DUP3 ISZERO PUSH2 0x3EF JUMPI SWAP2 PUSH1 0x20 MUL DUP3 ADD PUSH0 JUMPDEST DUP4 DUP3 GT ISZERO PUSH2 0x3C1 JUMPI DUP4 MLOAD DUP4 DUP3 PUSH2 0x100 EXP DUP2 SLOAD DUP2 PUSH1 0xFF MUL NOT AND SWAP1 DUP4 PUSH1 0xFF AND MUL OR SWAP1 SSTORE POP SWAP3 PUSH1 0x20 ADD SWAP3 PUSH1 0x1 ADD PUSH1 0x20 DUP2 PUSH0 ADD DIV SWAP3 DUP4 ADD SWAP3 PUSH1 0x1 SUB MUL PUSH2 0x384 JUMP JUMPDEST DUP1 ISZERO PUSH2 0x3ED JUMPI DUP3 DUP2 PUSH2 0x100 EXP DUP2 SLOAD SWAP1 PUSH1 0xFF MUL NOT AND SWAP1 SSTORE PUSH1 0x1 ADD PUSH1 0x20 DUP2 PUSH0 ADD DIV SWAP3 DUP4 ADD SWAP3 PUSH1 0x1 SUB MUL PUSH2 0x3C1 JUMP JUMPDEST POP JUMPDEST POP SWAP1 POP PUSH2 0x3FC SWAP2 SWAP1 PUSH2 0x400 JUMP JUMPDEST POP SWAP1 JUMP JUMPDEST JUMPDEST DUP1 DUP3 GT ISZERO PUSH2 0x417 JUMPI PUSH0 DUP2 PUSH0 SWAP1 SSTORE POP PUSH1 0x1 ADD PUSH2 0x401 JUMP JUMPDEST POP SWAP1 JUMP JUMPDEST PUSH0 DUP2 SWAP1 POP SWAP2 SWAP1 POP JUMP JUMPDEST PUSH2 0x42D DUP2 PUSH2 0x41B JUMP JUMPDEST DUP3 MSTORE POP POP JUMP JUMPDEST PUSH0 PUSH1 0x20 DUP3 ADD SWAP1 POP PUSH2 0x446 PUSH0 DUP4 ADD DUP5 PUSH2 0x424 JUMP JUMPDEST SWAP3 SWAP2 POP POP JUMP JUMPDEST PUSH0 PUSH1 0x40 MLOAD SWAP1 POP SWAP1 JUMP JUMPDEST PUSH0 DUP1 REVERT JUMPDEST PUSH0 DUP1 REVERT JUMPDEST PUSH0 DUP1 REVERT JUMPDEST PUSH0 DUP1 REVERT JUMPDEST PUSH0 PUSH1 0x1F NOT PUSH1 0x1F DUP4 ADD AND SWAP1 POP SWAP2 SWAP1 POP JUMP JUMPDEST PUSH32 0x4E487B7100000000000000000000000000000000000000000000000000000000 PUSH0 MSTORE PUSH1 0x41 PUSH1 0x4 MSTORE PUSH1 0x24 PUSH0 REVERT JUMPDEST PUSH2 0x4AB DUP3 PUSH2 0x465 JUMP JUMPDEST DUP2 ADD DUP2 DUP2 LT PUSH8 0xFFFFFFFFFFFFFFFF DUP3 GT OR ISZERO PUSH2 0x4CA JUMPI PUSH2 0x4C9 PUSH2 0x475 JUMP JUMPDEST JUMPDEST DUP1 PUSH1 0x40 MSTORE POP POP POP JUMP JUMPDEST PUSH0 PUSH2 0x4DC PUSH2 0x44C JUMP JUMPDEST SWAP1 POP PUSH2 0x4E8 DUP3 DUP3 PUSH2 0x4A2 JUMP JUMPDEST SWAP2 SWAP1 POP JUMP JUMPDEST PUSH0 PUSH8 0xFFFFFFFFFFFFFFFF DUP3 GT ISZERO PUSH2 0x507 JUMPI PUSH2 0x506 PUSH2 0x475 JUMP JUMPDEST JUMPDEST PUSH2 0x510 DUP3 PUSH2 0x465 JUMP JUMPDEST SWAP1 POP PUSH1 0x20 DUP2 ADD SWAP1 POP SWAP2 SWAP1 POP JUMP JUMPDEST DUP3 DUP2 DUP4 CALLDATACOPY PUSH0 DUP4 DUP4 ADD MSTORE POP POP POP JUMP JUMPDEST PUSH0 PUSH2 0x53D PUSH2 0x538 DUP5 PUSH2 0x4ED JUMP JUMPDEST PUSH2 0x4D3 JUMP JUMPDEST SWAP1 POP DUP3 DUP2 MSTORE PUSH1 0x20 DUP2 ADD DUP5 DUP5 DUP5 ADD GT ISZERO PUSH2 0x559 JUMPI PUSH2 0x558 PUSH2 0x461 JUMP JUMPDEST JUMPDEST PUSH2 0x564 DUP5 DUP3 DUP6 PUSH2 0x51D JUMP JUMPDEST POP SWAP4 SWAP3 POP POP POP JUMP JUMPDEST PUSH0 DUP3 PUSH1 0x1F DUP4 ADD SLT PUSH2 0x580 JUMPI PUSH2 0x57F PUSH2 0x45D JUMP JUMPDEST JUMPDEST DUP2 CALLDATALOAD PUSH2 0x590 DUP5 DUP3 PUSH1 0x20 DUP7 ADD PUSH2 0x52B JUMP JUMPDEST SWAP2 POP POP SWAP3 SWAP2 POP POP JUMP JUMPDEST PUSH0 DUP1 PUSH1 0x40 DUP4 DUP6 SUB SLT ISZERO PUSH2 0x5AF JUMPI PUSH2 0x5AE PUSH2 0x455 JUMP JUMPDEST JUMPDEST PUSH0 DUP4 ADD CALLDATALOAD PUSH8 0xFFFFFFFFFFFFFFFF DUP2 GT ISZERO PUSH2 0x5CC JUMPI PUSH2 0x5CB PUSH2 0x459 JUMP JUMPDEST JUMPDEST PUSH2 0x5D8 DUP6 DUP3 DUP7 ADD PUSH2 0x56C JUMP JUMPDEST SWAP3 POP POP PUSH1 0x20 DUP4 ADD CALLDATALOAD PUSH8 0xFFFFFFFFFFFFFFFF DUP2 GT ISZERO PUSH2 0x5F9 JUMPI PUSH2 0x5F8 PUSH2 0x459 JUMP JUMPDEST JUMPDEST PUSH2 0x605 DUP6 DUP3 DUP7 ADD PUSH2 0x56C JUMP JUMPDEST SWAP2 POP POP SWAP3 POP SWAP3 SWAP1 POP JUMP JUMPDEST PUSH2 0x618 DUP2 PUSH2 0x41B JUMP JUMPDEST DUP2 EQ PUSH2 0x622 JUMPI PUSH0 DUP1 REVERT JUMPDEST POP JUMP JUMPDEST PUSH0 DUP2 CALLDATALOAD SWAP1 POP PUSH2 0x633 DUP2 PUSH2 0x60F JUMP JUMPDEST SWAP3 SWAP2 POP POP JUMP JUMPDEST PUSH0 DUP1 PUSH1 0x40 DUP4 DUP6 SUB SLT ISZERO PUSH2 0x64F JUMPI PUSH2 0x64E PUSH2 0x455 JUMP JUMPDEST JUMPDEST PUSH0 DUP4 ADD CALLDATALOAD PUSH8 0xFFFFFFFFFFFFFFFF DUP2 GT ISZERO PUSH2 0x66C JUMPI PUSH2 0x66B PUSH2 0x459 JUMP JUMPDEST JUMPDEST PUSH2 0x678 DUP6 DUP3 DUP7 ADD PUSH2 0x56C JUMP JUMPDEST SWAP3 POP POP PUSH1 0x20 PUSH2 0x689 DUP6 DUP3 DUP7 ADD PUSH2 0x625 JUMP JUMPDEST SWAP2 POP POP SWAP3 POP SWAP3 SWAP1 POP JUMP JUMPDEST PUSH0 PUSH8 0xFFFFFFFFFFFFFFFF DUP3 GT ISZERO PUSH2 0x6AD JUMPI PUSH2 0x6AC PUSH2 0x475 JUMP JUMPDEST JUMPDEST PUSH1 0x20 DUP3 MUL SWAP1 POP SWAP2 SWAP1 POP JUMP JUMPDEST PUSH0 DUP1 REVERT JUMPDEST PUSH0 PUSH1 0xFF DUP3 AND SWAP1 POP SWAP2 SWAP1 POP JUMP JUMPDEST PUSH2 0x6D1 DUP2 PUSH2 0x6BC JUMP JUMPDEST DUP2 EQ PUSH2 0x6DB JUMPI PUSH0 DUP1 REVERT JUMPDEST POP JUMP JUMPDEST PUSH0 DUP2 CALLDATALOAD SWAP1 POP PUSH2 0x6EC DUP2 PUSH2 0x6C8 JUMP JUMPDEST SWAP3 SWAP2 POP POP JUMP JUMPDEST PUSH0 PUSH2 0x704 PUSH2 0x6FF DUP5 PUSH2 0x693 JUMP JUMPDEST PUSH2 0x4D3 JUMP JUMPDEST SWAP1 POP DUP1 PUSH1 0x20 DUP5 MUL DUP4 ADD DUP6 DUP2 GT ISZERO PUSH2 0x71E JUMPI PUSH2 0x71D PUSH2 0x6B8 JUMP JUMPDEST JUMPDEST DUP4 JUMPDEST DUP2 DUP2 LT ISZERO PUSH2 0x747 JUMPI DUP1 PUSH2 0x733 DUP9 DUP3 PUSH2 0x6DE JUMP JUMPDEST DUP5 MSTORE PUSH1 0x20 DUP5 ADD SWAP4 POP POP PUSH1 0x20 DUP2 ADD SWAP1 POP PUSH2 0x720 JUMP JUMPDEST POP POP POP SWAP4 SWAP3 POP POP POP JUMP JUMPDEST PUSH0 DUP3 PUSH1 0x1F DUP4 ADD SLT PUSH2 0x765 JUMPI PUSH2 0x764 PUSH2 0x45D JUMP JUMPDEST JUMPDEST PUSH1 0x5 PUSH2 0x772 DUP5 DUP3 DUP6 PUSH2 0x6F2 JUMP JUMPDEST SWAP2 POP POP SWAP3 SWAP2 POP POP JUMP JUMPDEST PUSH0 PUSH1 0xA0 DUP3 DUP5 SUB SLT ISZERO PUSH2 0x790 JUMPI PUSH2 0x78F PUSH2 0x455 JUMP JUMPDEST JUMPDEST PUSH0 PUSH2 0x79D DUP5 DUP3 DUP6 ADD PUSH2 0x751 JUMP JUMPDEST SWAP2 POP POP SWAP3 SWAP2 POP POP JUMP JUMPDEST PUSH0 DUP2 MLOAD SWAP1 POP SWAP2 SWAP1 POP JUMP JUMPDEST PUSH0 DUP3 DUP3 MSTORE PUSH1 0x20 DUP3 ADD SWAP1 POP SWAP3 SWAP2 POP POP JUMP JUMPDEST DUP3 DUP2 DUP4 MCOPY PUSH0 DUP4 DUP4 ADD MSTORE POP POP POP JUMP JUMPDEST PUSH0 PUSH2 0x7D8 DUP3 PUSH2 0x7A6 JUMP JUMPDEST PUSH2 0x7E2 DUP2 DUP6 PUSH2 0x7B0 JUMP JUMPDEST SWAP4 POP PUSH2 0x7F2 DUP2 DUP6 PUSH1 0x20 DUP7 ADD PUSH2 0x7C0 JUMP JUMPDEST PUSH2 0x7FB DUP2 PUSH2 0x465 JUMP JUMPDEST DUP5 ADD SWAP2 POP POP SWAP3 SWAP2 POP POP JUMP JUMPDEST PUSH0 PUSH1 0xA0 DUP3 ADD SWAP1 POP DUP2 DUP2 SUB PUSH0 DUP4 ADD MSTORE PUSH2 0x81E DUP2 DUP9 PUSH2 0x7CE JUMP JUMPDEST SWAP1 POP DUP2 DUP2 SUB PUSH1 0x20 DUP4 ADD MSTORE PUSH2 0x832 DUP2 DUP8 PUSH2 0x7CE JUMP JUMPDEST SWAP1 POP DUP2 DUP2 SUB PUSH1 0x40 DUP4 ADD MSTORE PUSH2 0x846 DUP2 DUP7 PUSH2 0x7CE JUMP JUMPDEST SWAP1 POP PUSH2 0x855 PUSH1 0x60 DUP4 ADD DUP6 PUSH2 0x424 JUMP JUMPDEST PUSH2 0x862 PUSH1 0x80 DUP4 ADD DUP5 PUSH2 0x424 JUMP JUMPDEST SWAP7 SWAP6 POP POP POP POP POP POP JUMP JUMPDEST PUSH32 0x4E487B7100000000000000000000000000000000000000000000000000000000 PUSH0 MSTORE PUSH1 0x22 PUSH1 0x4 MSTORE PUSH1 0x24 PUSH0 REVERT JUMPDEST PUSH0 PUSH1 0x2 DUP3 DIV SWAP1 POP PUSH1 0x1 DUP3 AND DUP1 PUSH2 0x8B0 JUMPI PUSH1 0x7F DUP3 AND SWAP2 POP JUMPDEST PUSH1 0x20 DUP3 LT DUP2 SUB PUSH2 0x8C3 JUMPI PUSH2 0x8C2 PUSH2 0x86C JUMP JUMPDEST JUMPDEST POP SWAP2 SWAP1 POP JUMP JUMPDEST PUSH0 DUP2 SWAP1 POP DUP2 PUSH0 MSTORE PUSH1 0x20 PUSH0 KECCAK256 SWAP1 POP SWAP2 SWAP1 POP JUMP JUMPDEST PUSH0 PUSH1 0x20 PUSH1 0x1F DUP4 ADD DIV SWAP1 POP SWAP2 SWAP1 POP JUMP JUMPDEST PUSH0 DUP3 DUP3 SHL SWAP1 POP SWAP3 SWAP2 POP POP JUMP JUMPDEST PUSH0 PUSH1 0x8 DUP4 MUL PUSH2 0x925 PUSH32 0xFFFFFFFFFFFFFFFFFFFFFFFFFFFFFFFFFFFFFFFFFFFFFFFFFFFFFFFFFFFFFFFF DUP3 PUSH2 0x8EA JUMP JUMPDEST PUSH2 0x92F DUP7 DUP4 PUSH2 0x8EA JUMP JUMPDEST SWAP6 POP DUP1 NOT DUP5 AND SWAP4 POP DUP1 DUP7 AND DUP5 OR SWAP3 POP POP POP SWAP4 SWAP3 POP POP POP JUMP JUMPDEST PUSH0 DUP2 SWAP1 POP SWAP2 SWAP1 POP JUMP JUMPDEST PUSH0 PUSH2 0x96A PUSH2 0x965 PUSH2 0x960 DUP5 PUSH2 0x41B JUMP JUMPDEST PUSH2 0x947 JUMP JUMPDEST PUSH2 0x41B JUMP JUMPDEST SWAP1 POP SWAP2 SWAP1 POP JUMP JUMPDEST PUSH0 DUP2 SWAP1 POP SWAP2 SWAP1 POP JUMP JUMPDEST PUSH2 0x983 DUP4 PUSH2 0x950 JUMP JUMPDEST PUSH2 0x997 PUSH2 0x98F DUP3 PUSH2 0x971 JUMP JUMPDEST DUP5 DUP5 SLOAD PUSH2 0x8F6 JUMP JUMPDEST DUP3 SSTORE POP POP POP POP JUMP JUMPDEST PUSH0 SWAP1 JUMP JUMPDEST PUSH2 0x9AB PUSH2 0x99F JUMP JUMPDEST PUSH2 0x9B6 DUP2 DUP5 DUP5 PUSH2 0x97A JUMP JUMPDEST POP POP POP JUMP JUMPDEST JUMPDEST DUP2 DUP2 LT ISZERO PUSH2 0x9D9 JUMPI PUSH2 0x9CE PUSH0 DUP3 PUSH2 0x9A3 JUMP JUMPDEST PUSH1 0x1 DUP2 ADD SWAP1 POP PUSH2 0x9BC JUMP JUMPDEST POP POP JUMP JUMPDEST PUSH1 0x1F DUP3 GT ISZERO PUSH2 0xA1E JUMPI PUSH2 0x9EF DUP2 PUSH2 0x8C9 JUMP JUMPDEST PUSH2 0x9F8 DUP5 PUSH2 0x8DB JUMP JUMPDEST DUP2 ADD PUSH1 0x20 DUP6 LT ISZERO PUSH2 0xA07 JUMPI DUP2 SWAP1 POP JUMPDEST PUSH2 0xA1B PUSH2 0xA13 DUP6 PUSH2 0x8DB JUMP JUMPDEST DUP4 ADD DUP3 PUSH2 0x9BB JUMP JUMPDEST POP POP JUMPDEST POP POP POP JUMP JUMPDEST PUSH0 DUP3 DUP3 SHR SWAP1 POP SWAP3 SWAP2 POP POP JUMP JUMPDEST PUSH0 PUSH2 0xA3E PUSH0 NOT DUP5 PUSH1 0x8 MUL PUSH2 0xA23 JUMP JUMPDEST NOT DUP1 DUP4 AND SWAP2 POP POP SWAP3 SWAP2 POP POP JUMP JUMPDEST PUSH0 PUSH2 0xA56 DUP4 DUP4 PUSH2 0xA2F JUMP JUMPDEST SWAP2 POP DUP3 PUSH1 0x2 MUL DUP3 OR SWAP1 POP SWAP3 SWAP2 POP POP JUMP JUMPDEST PUSH2 0xA6F DUP3 PUSH2 0x7A6 JUMP JUMPDEST PUSH8 0xFFFFFFFFFFFFFFFF DUP2 GT ISZERO PUSH2 0xA88 JUMPI PUSH2 0xA87 PUSH2 0x475 JUMP JUMPDEST JUMPDEST PUSH2 0xA92 DUP3 SLOAD PUSH2 0x899 JUMP JUMPDEST PUSH2 0xA9D DUP3 DUP3 DUP6 PUSH2 0x9DD JUMP JUMPDEST PUSH0 PUSH1 0x20 SWAP1 POP PUSH1 0x1F DUP4 GT PUSH1 0x1 DUP2 EQ PUSH2 0xACE JUMPI PUSH0 DUP5 ISZERO PUSH2 0xABC JUMPI DUP3 DUP8 ADD MLOAD SWAP1 POP JUMPDEST PUSH2 0xAC6 DUP6 DUP3 PUSH2 0xA4B JUMP JUMPDEST DUP7 SSTORE POP PUSH2 0xB2D JUMP JUMPDEST PUSH1 0x1F NOT DUP5 AND PUSH2 0xADC DUP7 PUSH2 0x8C9 JUMP JUMPDEST PUSH0 JUMPDEST DUP3 DUP2 LT ISZERO PUSH2 0xB03 JUMPI DUP5 DUP10 ADD MLOAD DUP3 SSTORE PUSH1 0x1 DUP3 ADD SWAP2 POP PUSH1 0x20 DUP6 ADD SWAP5 POP PUSH1 0x20 DUP2 ADD SWAP1 POP PUSH2 0xADE JUMP JUMPDEST DUP7 DUP4 LT ISZERO PUSH2 0xB20 JUMPI DUP5 DUP10 ADD MLOAD PUSH2 0xB1C PUSH1 0x1F DUP10 AND DUP3 PUSH2 0xA2F JUMP JUMPDEST DUP4 SSTORE POP JUMPDEST PUSH1 0x1 PUSH1 0x2 DUP9 MUL ADD DUP9 SSTORE POP POP POP JUMPDEST POP POP POP POP POP POP JUMP JUMPDEST PUSH32 0x4E487B7100000000000000000000000000000000000000000000000000000000 PUSH0 MSTORE PUSH1 0x32 PUSH1 0x4 MSTORE PUSH1 0x24 PUSH0 REVERT JUMPDEST PUSH32 0x4E487B7100000000000000000000000000000000000000000000000000000000 PUSH0 MSTORE PUSH1 0x11 PUSH1 0x4 MSTORE PUSH1 0x24 PUSH0 REVERT JUMPDEST PUSH0 PUSH2 0xB99 DUP3 PUSH2 0x41B JUMP JUMPDEST SWAP2 POP PUSH2 0xBA4 DUP4 PUSH2 0x41B JUMP JUMPDEST SWAP3 POP DUP3 DUP3 ADD SWAP1 POP DUP1 DUP3 GT ISZERO PUSH2 0xBBC JUMPI PUSH2 0xBBB PUSH2 0xB62 JUMP JUMPDEST JUMPDEST SWAP3 SWAP2 POP POP JUMP JUMPDEST PUSH32 0x4E487B7100000000000000000000000000000000000000000000000000000000 PUSH0 MSTORE PUSH1 0x12 PUSH1 0x4 MSTORE PUSH1 0x24 PUSH0 REVERT JUMPDEST PUSH0 PUSH2 0xBF9 DUP3 PUSH2 0x41B JUMP JUMPDEST SWAP2 POP PUSH2 0xC04 DUP4 PUSH2 0x41B JUMP JUMPDEST SWAP3 POP DUP3 PUSH2 0xC14 JUMPI PUSH2 0xC13 PUSH2 0xBC2 JUMP JUMPDEST JUMPDEST DUP3 DUP3 DIV SWAP1 POP SWAP3 SWAP2 POP POP JUMP INVALID LOG2 PUSH5 0x6970667358 0x22 SLT KECCAK256 SWAP7 MCOPY PUSH0 CREATE PUSH30 0xCAF992671BC0F0505F923A6CEA7B75CDFB5946AEC37074203D338264736F PUSH13 0x634300081A0033000000000000 "
		},
		"gasEstimates": {
			"creation": {
				"codeDepositCost": "631400",
				"executionCost": "662",
				"totalCost": "632062"
			},
			"external": {
				"getDetails()": "infinite",
				"getPercentage()": "302",
				"setCollege(string,string)": "infinite",
				"setMarks(uint8[5])": "infinite",
				"setStudent(string,uint256)": "infinite"
			}
		},
		"methodIdentifiers": {
			"getDetails()": "fbbf93a0",
			"getPercentage()": "0b2accb2",
			"setCollege(string,string)": "880150d4",
			"setMarks(uint8[5])": "e85bce38",
			"setStudent(string,uint256)": "9b4d52dd"
		}
	},
	"abi": [
		{
			"inputs": [],
			"name": "getDetails",
			"outputs": [
				{
					"internalType": "string",
					"name": "",
					"type": "string"
				},
				{
					"internalType": "string",
					"name": "",
					"type": "string"
				},
				{
					"internalType": "string",
					"name": "",
					"type": "string"
				},
				{
					"internalType": "uint256",
					"name": "",
					"type": "uint256"
				},
				{
					"internalType": "uint256",
					"name": "",
					"type": "uint256"
				}
			],
			"stateMutability": "view",
			"type": "function"
		},
		{
			"inputs": [],
			"name": "getPercentage",
			"outputs": [
				{
					"internalType": "uint256",
					"name": "",
					"type": "uint256"
				}
			],
			"stateMutability": "view",
			"type": "function"
		},
		{
			"inputs": [
				{
					"internalType": "string",
					"name": "cn",
					"type": "string"
				},
				{
					"internalType": "string",
					"name": "pn",
					"type": "string"
				}
			],
			"name": "setCollege",
			"outputs": [],
			"stateMutability": "nonpayable",
			"type": "function"
		},
		{
			"inputs": [
				{
					"internalType": "uint8[5]",
					"name": "m",
					"type": "uint8[5]"
				}
			],
			"name": "setMarks",
			"outputs": [],
			"stateMutability": "nonpayable",
			"type": "function"
		},
		{
			"inputs": [
				{
					"internalType": "string",
					"name": "sn",
					"type": "string"
				},
				{
					"internalType": "uint256",
					"name": "rn",
					"type": "uint256"
				}
			],
			"name": "setStudent",
			"outputs": [],
			"stateMutability": "nonpayable",
			"type": "function"
		}
	]
}