{
	"data": {
		"bytecode": {
			"linkReferences": {},
			"object": "6080604052348015600e575f80fd5b506108928061001c5f395ff3fe608060405234801561000f575f80fd5b506004361061004a575f3560e01c8063844ceb4c1461004e578063a04f1bb71461006c578063dc16484014610088578063e1cb0e52146100a4575b5f80fd5b6100566100c6565b6040516100639190610291565b60405180910390f35b610086600480360381019061008191906103f7565b61010c565b005b6100a2600480360381019061009d9190610468565b61011f565b005b6100ac610141565b6040516100bd959493929190610534565b60405180910390f35b5f613a98600254106100e057611388600481905550610104565b6161a8600254106100f957612710600481905550610103565b6107d06004819055505b5b600454905090565b806003908161011b919061078d565b5050565b825f908161012d919061078d565b508160018190555080600281905550505050565b60605f8060605f806001546002546003600454848054610160906105c0565b80601f016020809104026020016040519081016040528092919081815260200182805461018c906105c0565b80156101d75780601f106101ae576101008083540402835291602001916101d7565b820191905f5260205f20905b8154815290600101906020018083116101ba57829003601f168201915b505050505094508180546101ea906105c0565b80601f0160208091040260200160405190810160405280929190818152602001828054610216906105c0565b80156102615780601f1061023857610100808354040283529160200191610261565b820191905f5260205f20905b81548152906001019060200180831161024457829003601f168201915b50505050509150945094509450945094509091929394565b5f819050919050565b61028b81610279565b82525050565b5f6020820190506102a45f830184610282565b92915050565b5f604051905090565b5f80fd5b5f80fd5b5f80fd5b5f80fd5b5f601f19601f8301169050919050565b7f4e487b71000000000000000000000000000000000000000000000000000000005f52604160045260245ffd5b610309826102c3565b810181811067ffffffffffffffff82111715610328576103276102d3565b5b80604052505050565b5f61033a6102aa565b90506103468282610300565b919050565b5f67ffffffffffffffff821115610365576103646102d3565b5b61036e826102c3565b9050602081019050919050565b828183375f83830152505050565b5f61039b6103968461034b565b610331565b9050828152602081018484840111156103b7576103b66102bf565b5b6103c284828561037b565b509392505050565b5f82601f8301126103de576103dd6102bb565b5b81356103ee848260208601610389565b91505092915050565b5f6020828403121561040c5761040b6102b3565b5b5f82013567ffffffffffffffff811115610429576104286102b7565b5b610435848285016103ca565b91505092915050565b61044781610279565b8114610451575f80fd5b50565b5f813590506104628161043e565b92915050565b5f805f6060848603121561047f5761047e6102b3565b5b5f84013567ffffffffffffffff81111561049c5761049b6102b7565b5b6104a8868287016103ca565b93505060206104b986828701610454565b92505060406104ca86828701610454565b9150509250925092565b5f81519050919050565b5f82825260208201905092915050565b8281835e5f83830152505050565b5f610506826104d4565b61051081856104de565b93506105208185602086016104ee565b610529816102c3565b840191505092915050565b5f60a0820190508181035f83015261054c81886104fc565b905061055b6020830187610282565b6105686040830186610282565b818103606083015261057a81856104fc565b90506105896080830184610282565b9695505050505050565b7f4e487b71000000000000000000000000000000000000000000000000000000005f52602260045260245ffd5b5f60028204905060018216806105d757607f821691505b6020821081036105ea576105e9610593565b5b50919050565b5f819050815f5260205f209050919050565b5f6020601f8301049050919050565b5f82821b905092915050565b5f6008830261064c7fffffffffffffffffffffffffffffffffffffffffffffffffffffffffffffffff82610611565b6106568683610611565b95508019841693508086168417925050509392505050565b5f819050919050565b5f61069161068c61068784610279565b61066e565b610279565b9050919050565b5f819050919050565b6106aa83610677565b6106be6106b682610698565b84845461061d565b825550505050565b5f90565b6106d26106c6565b6106dd8184846106a1565b505050565b5b81811015610700576106f55f826106ca565b6001810190506106e3565b5050565b601f82111561074557610716816105f0565b61071f84610602565b8101602085101561072e578190505b61074261073a85610602565b8301826106e2565b50505b505050565b5f82821c905092915050565b5f6107655f198460080261074a565b1980831691505092915050565b5f61077d8383610756565b9150826002028217905092915050565b610796826104d4565b67ffffffffffffffff8111156107af576107ae6102d3565b5b6107b982546105c0565b6107c4828285610704565b5f60209050601f8311600181146107f5575f84156107e3578287015190505b6107ed8582610772565b865550610854565b601f198416610803866105f0565b5f5b8281101561082a57848901518255600182019150602085019450602081019050610805565b868310156108475784890151610843601f891682610756565b8355505b6001600288020188555050505b50505050505056fea2646970667358221220b2e921a352ea43c3a82d310ea1a50446c00c5dbbc14353728ba69b632e2230ad64736f6c634300081a0033",
			"opcodes": "PUSH1 0x80 PUSH1 0x40 MSTORE CALLVALUE DUP1 ISZERO PUSH1 0xE JUMPI PUSH0 DUP1 REVERT JUMPDEST POP PUSH2 0x892 DUP1 PUSH2 0x1C PUSH0 CODECOPY PUSH0 RETURN INVALID PUSH1 0x80 PUSH1 0x40 MSTORE CALLVALUE DUP1 ISZERO PUSH2 0xF JUMPI PUSH0 DUP1 REVERT JUMPDEST POP PUSH1 0x4 CALLDATASIZE LT PUSH2 0x4A JUMPI PUSH0 CALLDATALOAD PUSH1 0xE0 SHR DUP1 PUSH4 0x844CEB4C EQ PUSH2 0x4E JUMPI DUP1 PUSH4 0xA04F1BB7 EQ PUSH2 0x6C JUMPI DUP1 PUSH4 0xDC164840 EQ PUSH2 0x88 JUMPI DUP1 PUSH4 0xE1CB0E52 EQ PUSH2 0xA4 JUMPI JUMPDEST PUSH0 DUP1 REVERT JUMPDEST PUSH2 0x56 PUSH2 0xC6 JUMP JUMPDEST PUSH1 0x40 MLOAD PUSH2 0x63 SWAP2 SWAP1 PUSH2 0x291 JUMP JUMPDEST PUSH1 0x40 MLOAD DUP1 SWAP2 SUB SWAP1 RETURN JUMPDEST PUSH2 0x86 PUSH1 0x4 DUP1 CALLDATASIZE SUB DUP2 ADD SWAP1 PUSH2 0x81 SWAP2 SWAP1 PUSH2 0x3F7 JUMP JUMPDEST PUSH2 0x10C JUMP JUMPDEST STOP JUMPDEST PUSH2 0xA2 PUSH1 0x4 DUP1 CALLDATASIZE SUB DUP2 ADD SWAP1 PUSH2 0x9D SWAP2 SWAP1 PUSH2 0x468 JUMP JUMPDEST PUSH2 0x11F JUMP JUMPDEST STOP JUMPDEST PUSH2 0xAC PUSH2 0x141 JUMP JUMPDEST PUSH1 0x40 MLOAD PUSH2 0xBD SWAP6 SWAP5 SWAP4 SWAP3 SWAP2 SWAP1 PUSH2 0x534 JUMP JUMPDEST PUSH1 0x40 MLOAD DUP1 SWAP2 SUB SWAP1 RETURN JUMPDEST PUSH0 PUSH2 0x3A98 PUSH1 0x2 SLOAD LT PUSH2 0xE0 JUMPI PUSH2 0x1388 PUSH1 0x4 DUP2 SWAP1 SSTORE POP PUSH2 0x104 JUMP JUMPDEST PUSH2 0x61A8 PUSH1 0x2 SLOAD LT PUSH2 0xF9 JUMPI PUSH2 0x2710 PUSH1 0x4 DUP2 SWAP1 SSTORE POP PUSH2 0x103 JUMP JUMPDEST PUSH2 0x7D0 PUSH1 0x4 DUP2 SWAP1 SSTORE POP JUMPDEST JUMPDEST PUSH1 0x4 SLOAD SWAP1 POP SWAP1 JUMP JUMPDEST DUP1 PUSH1 0x3 SWAP1 DUP2 PUSH2 0x11B SWAP2 SWAP1 PUSH2 0x78D JUMP JUMPDEST POP POP JUMP JUMPDEST DUP3 PUSH0 SWAP1 DUP2 PUSH2 0x12D SWAP2 SWAP1 PUSH2 0x78D JUMP JUMPDEST POP DUP2 PUSH1 0x1 DUP2 SWAP1 SSTORE POP DUP1 PUSH1 0x2 DUP2 SWAP1 SSTORE POP POP POP POP JUMP JUMPDEST PUSH1 0x60 PUSH0 DUP1 PUSH1 0x60 PUSH0 DUP1 PUSH1 0x1 SLOAD PUSH1 0x2 SLOAD PUSH1 0x3 PUSH1 0x4 SLOAD DUP5 DUP1 SLOAD PUSH2 0x160 SWAP1 PUSH2 0x5C0 JUMP JUMPDEST DUP1 PUSH1 0x1F ADD PUSH1 0x20 DUP1 SWAP2 DIV MUL PUSH1 0x20 ADD PUSH1 0x40 MLOAD SWAP1 DUP2 ADD PUSH1 0x40 MSTORE DUP1 SWAP3 SWAP2 SWAP1 DUP2 DUP2 MSTORE PUSH1 0x20 ADD DUP3 DUP1 SLOAD PUSH2 0x18C SWAP1 PUSH2 0x5C0 JUMP JUMPDEST DUP1 ISZERO PUSH2 0x1D7 JUMPI DUP1 PUSH1 0x1F LT PUSH2 0x1AE JUMPI PUSH2 0x100 DUP1 DUP4 SLOAD DIV MUL DUP4 MSTORE SWAP2 PUSH1 0x20 ADD SWAP2 PUSH2 0x1D7 JUMP JUMPDEST DUP3 ADD SWAP2 SWAP1 PUSH0 MSTORE PUSH1 0x20 PUSH0 KECCAK256 SWAP1 JUMPDEST DUP2 SLOAD DUP2 MSTORE SWAP1 PUSH1 0x1 ADD SWAP1 PUSH1 0x20 ADD DUP1 DUP4 GT PUSH2 0x1BA JUMPI DUP3 SWAP1 SUB PUSH1 0x1F AND DUP3 ADD SWAP2 JUMPDEST POP POP POP POP POP SWAP5 POP DUP2 DUP1 SLOAD PUSH2 0x1EA SWAP1 PUSH2 0x5C0 JUMP JUMPDEST DUP1 PUSH1 0x1F ADD PUSH1 0x20 DUP1 SWAP2 DIV MUL PUSH1 0x20 ADD PUSH1 0x40 MLOAD SWAP1 DUP2 ADD PUSH1 0x40 MSTORE DUP1 SWAP3 SWAP2 SWAP1 DUP2 DUP2 MSTORE PUSH1 0x20 ADD DUP3 DUP1 SLOAD PUSH2 0x216 SWAP1 PUSH2 0x5C0 JUMP JUMPDEST DUP1 ISZERO PUSH2 0x261 JUMPI DUP1 PUSH1 0x1F LT PUSH2 0x238 JUMPI PUSH2 0x100 DUP1 DUP4 SLOAD DIV MUL DUP4 MSTORE SWAP2 PUSH1 0x20 ADD SWAP2 PUSH2 0x261 JUMP JUMPDEST DUP3 ADD SWAP2 SWAP1 PUSH0 MSTORE PUSH1 0x20 PUSH0 KECCAK256 SWAP1 JUMPDEST DUP2 SLOAD DUP2 MSTORE SWAP1 PUSH1 0x1 ADD SWAP1 PUSH1 0x20 ADD DUP1 DUP4 GT PUSH2 0x244 JUMPI DUP3 SWAP1 SUB PUSH1 0x1F AND DUP3 ADD SWAP2 JUMPDEST POP POP POP POP POP SWAP2 POP SWAP5 POP SWAP5 POP SWAP5 POP SWAP5 POP SWAP5 POP SWAP1 SWAP2 SWAP3 SWAP4 SWAP5 JUMP JUMPDEST PUSH0 DUP2 SWAP1 POP SWAP2 SWAP1 POP JUMP JUMPDEST PUSH2 0x28B DUP2 PUSH2 0x279 JUMP JUMPDEST DUP3 MSTORE POP POP JUMP JUMPDEST PUSH0 PUSH1 0x20 DUP3 ADD SWAP1 POP PUSH2 0x2A4 PUSH0 DUP4 ADD DUP5 PUSH2 0x282 JUMP JUMPDEST SWAP3 SWAP2 POP POP JUMP JUMPDEST PUSH0 PUSH1 0x40 MLOAD SWAP1 POP SWAP1 JUMP JUMPDEST PUSH0 DUP1 REVERT JUMPDEST PUSH0 DUP1 REVERT JUMPDEST PUSH0 DUP1 REVERT JUMPDEST PUSH0 DUP1 REVERT JUMPDEST PUSH0 PUSH1 0x1F NOT PUSH1 0x1F DUP4 ADD AND SWAP1 POP SWAP2 SWAP1 POP JUMP JUMPDEST PUSH32 0x4E487B7100000000000000000000000000000000000000000000000000000000 PUSH0 MSTORE PUSH1 0x41 PUSH1 0x4 MSTORE PUSH1 0x24 PUSH0 REVERT JUMPDEST PUSH2 0x309 DUP3 PUSH2 0x2C3 JUMP JUMPDEST DUP2 ADD DUP2 DUP2 LT PUSH8 0xFFFFFFFFFFFFFFFF DUP3 GT OR ISZERO PUSH2 0x328 JUMPI PUSH2 0x327 PUSH2 0x2D3 JUMP JUMPDEST JUMPDEST DUP1 PUSH1 0x40 MSTORE POP POP POP JUMP JUMPDEST PUSH0 PUSH2 0x33A PUSH2 0x2AA JUMP JUMPDEST SWAP1 POP PUSH2 0x346 DUP3 DUP3 PUSH2 0x300 JUMP JUMPDEST SWAP2 SWAP1 POP JUMP JUMPDEST PUSH0 PUSH8 0xFFFFFFFFFFFFFFFF DUP3 GT ISZERO PUSH2 0x365 JUMPI PUSH2 0x364 PUSH2 0x2D3 JUMP JUMPDEST JUMPDEST PUSH2 0x36E DUP3 PUSH2 0x2C3 JUMP JUMPDEST SWAP1 POP PUSH1 0x20 DUP2 ADD SWAP1 POP SWAP2 SWAP1 POP JUMP JUMPDEST DUP3 DUP2 DUP4 CALLDATACOPY PUSH0 DUP4 DUP4 ADD MSTORE POP POP POP JUMP JUMPDEST PUSH0 PUSH2 0x39B PUSH2 0x396 DUP5 PUSH2 0x34B JUMP JUMPDEST PUSH2 0x331 JUMP JUMPDEST SWAP1 POP DUP3 DUP2 MSTORE PUSH1 0x20 DUP2 ADD DUP5 DUP5 DUP5 ADD GT ISZERO PUSH2 0x3B7 JUMPI PUSH2 0x3B6 PUSH2 0x2BF JUMP JUMPDEST JUMPDEST PUSH2 0x3C2 DUP5 DUP3 DUP6 PUSH2 0x37B JUMP JUMPDEST POP SWAP4 SWAP3 POP POP POP JUMP JUMPDEST PUSH0 DUP3 PUSH1 0x1F DUP4 ADD SLT PUSH2 0x3DE JUMPI PUSH2 0x3DD PUSH2 0x2BB JUMP JUMPDEST JUMPDEST DUP2 CALLDATALOAD PUSH2 0x3EE DUP5 DUP3 PUSH1 0x20 DUP7 ADD PUSH2 0x389 JUMP JUMPDEST SWAP2 POP POP SWAP3 SWAP2 POP POP JUMP JUMPDEST PUSH0 PUSH1 0x20 DUP3 DUP5 SUB SLT ISZERO PUSH2 0x40C JUMPI PUSH2 0x40B PUSH2 0x2B3 JUMP JUMPDEST JUMPDEST PUSH0 DUP3 ADD CALLDATALOAD PUSH8 0xFFFFFFFFFFFFFFFF DUP2 GT ISZERO PUSH2 0x429 JUMPI PUSH2 0x428 PUSH2 0x2B7 JUMP JUMPDEST JUMPDEST PUSH2 0x435 DUP5 DUP3 DUP6 ADD PUSH2 0x3CA JUMP JUMPDEST SWAP2 POP POP SWAP3 SWAP2 POP POP JUMP JUMPDEST PUSH2 0x447 DUP2 PUSH2 0x279 JUMP JUMPDEST DUP2 EQ PUSH2 0x451 JUMPI PUSH0 DUP1 REVERT JUMPDEST POP JUMP JUMPDEST PUSH0 DUP2 CALLDATALOAD SWAP1 POP PUSH2 0x462 DUP2 PUSH2 0x43E JUMP JUMPDEST SWAP3 SWAP2 POP POP JUMP JUMPDEST PUSH0 DUP1 PUSH0 PUSH1 0x60 DUP5 DUP7 SUB SLT ISZERO PUSH2 0x47F JUMPI PUSH2 0x47E PUSH2 0x2B3 JUMP JUMPDEST JUMPDEST PUSH0 DUP5 ADD CALLDATALOAD PUSH8 0xFFFFFFFFFFFFFFFF DUP2 GT ISZERO PUSH2 0x49C JUMPI PUSH2 0x49B PUSH2 0x2B7 JUMP JUMPDEST JUMPDEST PUSH2 0x4A8 DUP7 DUP3 DUP8 ADD PUSH2 0x3CA JUMP JUMPDEST SWAP4 POP POP PUSH1 0x20 PUSH2 0x4B9 DUP7 DUP3 DUP8 ADD PUSH2 0x454 JUMP JUMPDEST SWAP3 POP POP PUSH1 0x40 PUSH2 0x4CA DUP7 DUP3 DUP8 ADD PUSH2 0x454 JUMP JUMPDEST SWAP2 POP POP SWAP3 POP SWAP3 POP SWAP3 JUMP JUMPDEST PUSH0 DUP2 MLOAD SWAP1 POP SWAP2 SWAP1 POP JUMP JUMPDEST PUSH0 DUP3 DUP3 MSTORE PUSH1 0x20 DUP3 ADD SWAP1 POP SWAP3 SWAP2 POP POP JUMP JUMPDEST DUP3 DUP2 DUP4 MCOPY PUSH0 DUP4 DUP4 ADD MSTORE POP POP POP JUMP JUMPDEST PUSH0 PUSH2 0x506 DUP3 PUSH2 0x4D4 JUMP JUMPDEST PUSH2 0x510 DUP2 DUP6 PUSH2 0x4DE JUMP JUMPDEST SWAP4 POP PUSH2 0x520 DUP2 DUP6 PUSH1 0x20 DUP7 ADD PUSH2 0x4EE JUMP JUMPDEST PUSH2 0x529 DUP2 PUSH2 0x2C3 JUMP JUMPDEST DUP5 ADD SWAP2 POP POP SWAP3 SWAP2 POP POP JUMP JUMPDEST PUSH0 PUSH1 0xA0 DUP3 ADD SWAP1 POP DUP2 DUP2 SUB PUSH0 DUP4 ADD MSTORE PUSH2 0x54C DUP2 DUP9 PUSH2 0x4FC JUMP JUMPDEST SWAP1 POP PUSH2 0x55B PUSH1 0x20 DUP4 ADD DUP8 PUSH2 0x282 JUMP JUMPDEST PUSH2 0x568 PUSH1 0x40 DUP4 ADD DUP7 PUSH2 0x282 JUMP JUMPDEST DUP2 DUP2 SUB PUSH1 0x60 DUP4 ADD MSTORE PUSH2 0x57A DUP2 DUP6 PUSH2 0x4FC JUMP JUMPDEST SWAP1 POP PUSH2 0x589 PUSH1 0x80 DUP4 ADD DUP5 PUSH2 0x282 JUMP JUMPDEST SWAP7 SWAP6 POP POP POP POP POP POP JUMP JUMPDEST PUSH32 0x4E487B7100000000000000000000000000000000000000000000000000000000 PUSH0 MSTORE PUSH1 0x22 PUSH1 0x4 MSTORE PUSH1 0x24 PUSH0 REVERT JUMPDEST PUSH0 PUSH1 0x2 DUP3 DIV SWAP1 POP PUSH1 0x1 DUP3 AND DUP1 PUSH2 0x5D7 JUMPI PUSH1 0x7F DUP3 AND SWAP2 POP JUMPDEST PUSH1 0x20 DUP3 LT DUP2 SUB PUSH2 0x5EA JUMPI PUSH2 0x5E9 PUSH2 0x593 JUMP JUMPDEST JUMPDEST POP SWAP2 SWAP1 POP JUMP JUMPDEST PUSH0 DUP2 SWAP1 POP DUP2 PUSH0 MSTORE PUSH1 0x20 PUSH0 KECCAK256 SWAP1 POP SWAP2 SWAP1 POP JUMP JUMPDEST PUSH0 PUSH1 0x20 PUSH1 0x1F DUP4 ADD DIV SWAP1 POP SWAP2 SWAP1 POP JUMP JUMPDEST PUSH0 DUP3 DUP3 SHL SWAP1 POP SWAP3 SWAP2 POP POP JUMP JUMPDEST PUSH0 PUSH1 0x8 DUP4 MUL PUSH2 0x64C PUSH32 0xFFFFFFFFFFFFFFFFFFFFFFFFFFFFFFFFFFFFFFFFFFFFFFFFFFFFFFFFFFFFFFFF DUP3 PUSH2 0x611 JUMP JUMPDEST PUSH2 0x656 DUP7 DUP4 PUSH2 0x611 JUMP JUMPDEST SWAP6 POP DUP1 NOT DUP5 AND SWAP4 POP DUP1 DUP7 AND DUP5 OR SWAP3 POP POP POP SWAP4 SWAP3 POP POP POP JUMP JUMPDEST PUSH0 DUP2 SWAP1 POP SWAP2 SWAP1 POP JUMP JUMPDEST PUSH0 PUSH2 0x691 PUSH2 0x68C PUSH2 0x687 DUP5 PUSH2 0x279 JUMP JUMPDEST PUSH2 0x66E JUMP JUMPDEST PUSH2 0x279 JUMP JUMPDEST SWAP1 POP SWAP2 SWAP1 POP JUMP JUMPDEST PUSH0 DUP2 SWAP1 POP SWAP2 SWAP1 POP JUMP JUMPDEST PUSH2 0x6AA DUP4 PUSH2 0x677 JUMP JUMPDEST PUSH2 0x6BE PUSH2 0x6B6 DUP3 PUSH2 0x698 JUMP JUMPDEST DUP5 DUP5 SLOAD PUSH2 0x61D JUMP JUMPDEST DUP3 SSTORE POP POP POP POP JUMP JUMPDEST PUSH0 SWAP1 JUMP JUMPDEST PUSH2 0x6D2 PUSH2 0x6C6 JUMP JUMPDEST PUSH2 0x6DD DUP2 DUP5 DUP5 PUSH2 0x6A1 JUMP JUMPDEST POP POP POP JUMP JUMPDEST JUMPDEST DUP2 DUP2 LT ISZERO PUSH2 0x700 JUMPI PUSH2 0x6F5 PUSH0 DUP3 PUSH2 0x6CA JUMP JUMPDEST PUSH1 0x1 DUP2 ADD SWAP1 POP PUSH2 0x6E3 JUMP JUMPDEST POP POP JUMP JUMPDEST PUSH1 0x1F DUP3 GT ISZERO PUSH2 0x745 JUMPI PUSH2 0x716 DUP2 PUSH2 0x5F0 JUMP JUMPDEST PUSH2 0x71F DUP5 PUSH2 0x602 JUMP JUMPDEST DUP2 ADD PUSH1 0x20 DUP6 LT ISZERO PUSH2 0x72E JUMPI DUP2 SWAP1 POP JUMPDEST PUSH2 0x742 PUSH2 0x73A DUP6 PUSH2 0x602 JUMP JUMPDEST DUP4 ADD DUP3 PUSH2 0x6E2 JUMP JUMPDEST POP POP JUMPDEST POP POP POP JUMP JUMPDEST PUSH0 DUP3 DUP3 SHR SWAP1 POP SWAP3 SWAP2 POP POP JUMP JUMPDEST PUSH0 PUSH2 0x765 PUSH0 NOT DUP5 PUSH1 0x8 MUL PUSH2 0x74A JUMP JUMPDEST NOT DUP1 DUP4 AND SWAP2 POP POP SWAP3 SWAP2 POP POP JUMP JUMPDEST PUSH0 PUSH2 0x77D DUP4 DUP4 PUSH2 0x756 JUMP JUMPDEST SWAP2 POP DUP3 PUSH1 0x2 MUL DUP3 OR SWAP1 POP SWAP3 SWAP2 POP POP JUMP JUMPDEST PUSH2 0x796 DUP3 PUSH2 0x4D4 JUMP JUMPDEST PUSH8 0xFFFFFFFFFFFFFFFF DUP2 GT ISZERO PUSH2 0x7AF JUMPI PUSH2 0x7AE PUSH2 0x2D3 JUMP JUMPDEST JUMPDEST PUSH2 0x7B9 DUP3 SLOAD PUSH2 0x5C0 JUMP JUMPDEST PUSH2 0x7C4 DUP3 DUP3 DUP6 PUSH2 0x704 JUMP JUMPDEST PUSH0 PUSH1 0x20 SWAP1 POP PUSH1 0x1F DUP4 GT PUSH1 0x1 DUP2 EQ PUSH2 0x7F5 JUMPI PUSH0 DUP5 ISZERO PUSH2 0x7E3 JUMPI DUP3 DUP8 ADD MLOAD SWAP1 POP JUMPDEST PUSH2 0x7ED DUP6 DUP3 PUSH2 0x772 JUMP JUMPDEST DUP7 SSTORE POP PUSH2 0x854 JUMP JUMPDEST PUSH1 0x1F NOT DUP5 AND PUSH2 0x803 DUP7 PUSH2 0x5F0 JUMP JUMPDEST PUSH0 JUMPDEST DUP3 DUP2 LT ISZERO PUSH2 0x82A JUMPI DUP5 DUP10 ADD MLOAD DUP3 SSTORE PUSH1 0x1 DUP3 ADD SWAP2 POP PUSH1 0x20 DUP6 ADD SWAP5 POP PUSH1 0x20 DUP2 ADD SWAP1 POP PUSH2 0x805 JUMP JUMPDEST DUP7 DUP4 LT ISZERO PUSH2 0x847 JUMPI DUP5 DUP10 ADD MLOAD PUSH2 0x843 PUSH1 0x1F DUP10 AND DUP3 PUSH2 0x756 JUMP JUMPDEST DUP4 SSTORE POP JUMPDEST PUSH1 0x1 PUSH1 0x2 DUP9 MUL ADD DUP9 SSTORE POP POP POP JUMPDEST POP POP POP POP POP POP JUMP INVALID LOG2 PUSH5 0x6970667358 0x22 SLT KECCAK256 0xB2 0xE9 0x21 LOG3 MSTORE 0xEA NUMBER 0xC3 0xA8 0x2D BALANCE 0xE LOG1 0xA5 DIV CHAINID 0xC0 0xC TSTORE 0xBB 0xC1 NUMBER MSTORE8 PUSH19 0x8BA69B632E2230AD64736F6C634300081A0033 "
		},
		"gasEstimates": {
			"creation": {
				"codeDepositCost": "438800",
				"executionCost": "472",
				"totalCost": "439272"
			},
			"external": {
				"calHRA()": "28782",
				"getVal()": "infinite",
				"setD(string)": "infinite",
				"setE(string,uint256,uint256)": "infinite"
			}
		},
		"methodIdentifiers": {
			"calHRA()": "844ceb4c",
			"getVal()": "e1cb0e52",
			"setD(string)": "a04f1bb7",
			"setE(string,uint256,uint256)": "dc164840"
		}
	},
	"abi": [
		{
			"inputs": [],
			"name": "calHRA",
			"outputs": [
				{
					"internalType": "uint256",
					"name": "",
					"type": "uint256"
				}
			],
			"stateMutability": "nonpayable",
			"type": "function"
		},
		{
			"inputs": [],
			"name": "getVal",
			"outputs": [
				{
					"internalType": "string",
					"name": "",
					"type": "string"
				},
				{
					"internalType": "uint256",
					"name": "",
					"type": "uint256"
				},
				{
					"internalType": "uint256",
					"name": "",
					"type": "uint256"
				},
				{
					"internalType": "string",
					"name": "",
					"type": "string"
				},
				{
					"internalType": "uint256",
					"name": "",
					"type": "uint256"
				}
			],
			"stateMutability": "view",
			"type": "function"
		},
		{
			"inputs": [
				{
					"internalType": "string",
					"name": "a",
					"type": "string"
				}
			],
			"name": "setD",
			"outputs": [],
			"stateMutability": "nonpayable",
			"type": "function"
		},
		{
			"inputs": [
				{
					"internalType": "string",
					"name": "a",
					"type": "string"
				},
				{
					"internalType": "uint256",
					"name": "b",
					"type": "uint256"
				},
				{
					"internalType": "uint256",
					"name": "c",
					"type": "uint256"
				}
			],
			"name": "setE",
			"outputs": [],
			"stateMutability": "nonpayable",
			"type": "function"
		}
	]
}