{
	"data": {
		"bytecode": {
			"linkReferences": {},
			"object": "6080604052348015600e575f80fd5b506106078061001c5f395ff3fe608060405234801561000f575f80fd5b5060043610610034575f3560e01c8063880150d4146100385780639b4d52dd14610054575b5f80fd5b610052600480360381019061004d91906101fb565b610070565b005b61006e600480360381019061006991906102a4565b610093565b005b815f908161007e9190610502565b50806001908161008e9190610502565b505050565b81600290816100a29190610502565b50806003819055505050565b5f604051905090565b5f80fd5b5f80fd5b5f80fd5b5f80fd5b5f601f19601f8301169050919050565b7f4e487b71000000000000000000000000000000000000000000000000000000005f52604160045260245ffd5b61010d826100c7565b810181811067ffffffffffffffff8211171561012c5761012b6100d7565b5b80604052505050565b5f61013e6100ae565b905061014a8282610104565b919050565b5f67ffffffffffffffff821115610169576101686100d7565b5b610172826100c7565b9050602081019050919050565b828183375f83830152505050565b5f61019f61019a8461014f565b610135565b9050828152602081018484840111156101bb576101ba6100c3565b5b6101c684828561017f565b509392505050565b5f82601f8301126101e2576101e16100bf565b5b81356101f284826020860161018d565b91505092915050565b5f8060408385031215610211576102106100b7565b5b5f83013567ffffffffffffffff81111561022e5761022d6100bb565b5b61023a858286016101ce565b925050602083013567ffffffffffffffff81111561025b5761025a6100bb565b5b610267858286016101ce565b9150509250929050565b5f819050919050565b61028381610271565b811461028d575f80fd5b50565b5f8135905061029e8161027a565b92915050565b5f80604083850312156102ba576102b96100b7565b5b5f83013567ffffffffffffffff8111156102d7576102d66100bb565b5b6102e3858286016101ce565b92505060206102f485828601610290565b9150509250929050565b5f81519050919050565b7f4e487b71000000000000000000000000000000000000000000000000000000005f52602260045260245ffd5b5f600282049050600182168061034c57607f821691505b60208210810361035f5761035e610308565b5b50919050565b5f819050815f5260205f209050919050565b5f6020601f8301049050919050565b5f82821b905092915050565b5f600883026103c17fffffffffffffffffffffffffffffffffffffffffffffffffffffffffffffffff82610386565b6103cb8683610386565b95508019841693508086168417925050509392505050565b5f819050919050565b5f6104066104016103fc84610271565b6103e3565b610271565b9050919050565b5f819050919050565b61041f836103ec565b61043361042b8261040d565b848454610392565b825550505050565b5f90565b61044761043b565b610452818484610416565b505050565b5b818110156104755761046a5f8261043f565b600181019050610458565b5050565b601f8211156104ba5761048b81610365565b61049484610377565b810160208510156104a3578190505b6104b76104af85610377565b830182610457565b50505b505050565b5f82821c905092915050565b5f6104da5f19846008026104bf565b1980831691505092915050565b5f6104f283836104cb565b9150826002028217905092915050565b61050b826102fe565b67ffffffffffffffff811115610524576105236100d7565b5b61052e8254610335565b610539828285610479565b5f60209050601f83116001811461056a575f8415610558578287015190505b61056285826104e7565b8655506105c9565b601f19841661057886610365565b5f5b8281101561059f5784890151825560018201915060208501945060208101905061057a565b868310156105bc57848901516105b8601f8916826104cb565b8355505b6001600288020188555050505b50505050505056fea26469706673582212209ee87ba005452b691ef252778c455b768316ed946e99eadc3887a6f783cad12a64736f6c634300081a0033",
			"opcodes": "PUSH1 0x80 PUSH1 0x40 MSTORE CALLVALUE DUP1 ISZERO PUSH1 0xE JUMPI PUSH0 DUP1 REVERT JUMPDEST POP PUSH2 0x607 DUP1 PUSH2 0x1C PUSH0 CODECOPY PUSH0 RETURN INVALID PUSH1 0x80 PUSH1 0x40 MSTORE CALLVALUE DUP1 ISZERO PUSH2 0xF JUMPI PUSH0 DUP1 REVERT JUMPDEST POP PUSH1 0x4 CALLDATASIZE LT PUSH2 0x34 JUMPI PUSH0 CALLDATALOAD PUSH1 0xE0 SHR DUP1 PUSH4 0x880150D4 EQ PUSH2 0x38 JUMPI DUP1 PUSH4 0x9B4D52DD EQ PUSH2 0x54 JUMPI JUMPDEST PUSH0 DUP1 REVERT JUMPDEST PUSH2 0x52 PUSH1 0x4 DUP1 CALLDATASIZE SUB DUP2 ADD SWAP1 PUSH2 0x4D SWAP2 SWAP1 PUSH2 0x1FB JUMP JUMPDEST PUSH2 0x70 JUMP JUMPDEST STOP JUMPDEST PUSH2 0x6E PUSH1 0x4 DUP1 CALLDATASIZE SUB DUP2 ADD SWAP1 PUSH2 0x69 SWAP2 SWAP1 PUSH2 0x2A4 JUMP JUMPDEST PUSH2 0x93 JUMP JUMPDEST STOP JUMPDEST DUP2 PUSH0 SWAP1 DUP2 PUSH2 0x7E SWAP2 SWAP1 PUSH2 0x502 JUMP JUMPDEST POP DUP1 PUSH1 0x1 SWAP1 DUP2 PUSH2 0x8E SWAP2 SWAP1 PUSH2 0x502 JUMP JUMPDEST POP POP POP JUMP JUMPDEST DUP2 PUSH1 0x2 SWAP1 DUP2 PUSH2 0xA2 SWAP2 SWAP1 PUSH2 0x502 JUMP JUMPDEST POP DUP1 PUSH1 0x3 DUP2 SWAP1 SSTORE POP POP POP JUMP JUMPDEST PUSH0 PUSH1 0x40 MLOAD SWAP1 POP SWAP1 JUMP JUMPDEST PUSH0 DUP1 REVERT JUMPDEST PUSH0 DUP1 REVERT JUMPDEST PUSH0 DUP1 REVERT JUMPDEST PUSH0 DUP1 REVERT JUMPDEST PUSH0 PUSH1 0x1F NOT PUSH1 0x1F DUP4 ADD AND SWAP1 POP SWAP2 SWAP1 POP JUMP JUMPDEST PUSH32 0x4E487B7100000000000000000000000000000000000000000000000000000000 PUSH0 MSTORE PUSH1 0x41 PUSH1 0x4 MSTORE PUSH1 0x24 PUSH0 REVERT JUMPDEST PUSH2 0x10D DUP3 PUSH2 0xC7 JUMP JUMPDEST DUP2 ADD DUP2 DUP2 LT PUSH8 0xFFFFFFFFFFFFFFFF DUP3 GT OR ISZERO PUSH2 0x12C JUMPI PUSH2 0x12B PUSH2 0xD7 JUMP JUMPDEST JUMPDEST DUP1 PUSH1 0x40 MSTORE POP POP POP JUMP JUMPDEST PUSH0 PUSH2 0x13E PUSH2 0xAE JUMP JUMPDEST SWAP1 POP PUSH2 0x14A DUP3 DUP3 PUSH2 0x104 JUMP JUMPDEST SWAP2 SWAP1 POP JUMP JUMPDEST PUSH0 PUSH8 0xFFFFFFFFFFFFFFFF DUP3 GT ISZERO PUSH2 0x169 JUMPI PUSH2 0x168 PUSH2 0xD7 JUMP JUMPDEST JUMPDEST PUSH2 0x172 DUP3 PUSH2 0xC7 JUMP JUMPDEST SWAP1 POP PUSH1 0x20 DUP2 ADD SWAP1 POP SWAP2 SWAP1 POP JUMP JUMPDEST DUP3 DUP2 DUP4 CALLDATACOPY PUSH0 DUP4 DUP4 ADD MSTORE POP POP POP JUMP JUMPDEST PUSH0 PUSH2 0x19F PUSH2 0x19A DUP5 PUSH2 0x14F JUMP JUMPDEST PUSH2 0x135 JUMP JUMPDEST SWAP1 POP DUP3 DUP2 MSTORE PUSH1 0x20 DUP2 ADD DUP5 DUP5 DUP5 ADD GT ISZERO PUSH2 0x1BB JUMPI PUSH2 0x1BA PUSH2 0xC3 JUMP JUMPDEST JUMPDEST PUSH2 0x1C6 DUP5 DUP3 DUP6 PUSH2 0x17F JUMP JUMPDEST POP SWAP4 SWAP3 POP POP POP JUMP JUMPDEST PUSH0 DUP3 PUSH1 0x1F DUP4 ADD SLT PUSH2 0x1E2 JUMPI PUSH2 0x1E1 PUSH2 0xBF JUMP JUMPDEST JUMPDEST DUP2 CALLDATALOAD PUSH2 0x1F2 DUP5 DUP3 PUSH1 0x20 DUP7 ADD PUSH2 0x18D JUMP JUMPDEST SWAP2 POP POP SWAP3 SWAP2 POP POP JUMP JUMPDEST PUSH0 DUP1 PUSH1 0x40 DUP4 DUP6 SUB SLT ISZERO PUSH2 0x211 JUMPI PUSH2 0x210 PUSH2 0xB7 JUMP JUMPDEST JUMPDEST PUSH0 DUP4 ADD CALLDATALOAD PUSH8 0xFFFFFFFFFFFFFFFF DUP2 GT ISZERO PUSH2 0x22E JUMPI PUSH2 0x22D PUSH2 0xBB JUMP JUMPDEST JUMPDEST PUSH2 0x23A DUP6 DUP3 DUP7 ADD PUSH2 0x1CE JUMP JUMPDEST SWAP3 POP POP PUSH1 0x20 DUP4 ADD CALLDATALOAD PUSH8 0xFFFFFFFFFFFFFFFF DUP2 GT ISZERO PUSH2 0x25B JUMPI PUSH2 0x25A PUSH2 0xBB JUMP JUMPDEST JUMPDEST PUSH2 0x267 DUP6 DUP3 DUP7 ADD PUSH2 0x1CE JUMP JUMPDEST SWAP2 POP POP SWAP3 POP SWAP3 SWAP1 POP JUMP JUMPDEST PUSH0 DUP2 SWAP1 POP SWAP2 SWAP1 POP JUMP JUMPDEST PUSH2 0x283 DUP2 PUSH2 0x271 JUMP JUMPDEST DUP2 EQ PUSH2 0x28D JUMPI PUSH0 DUP1 REVERT JUMPDEST POP JUMP JUMPDEST PUSH0 DUP2 CALLDATALOAD SWAP1 POP PUSH2 0x29E DUP2 PUSH2 0x27A JUMP JUMPDEST SWAP3 SWAP2 POP POP JUMP JUMPDEST PUSH0 DUP1 PUSH1 0x40 DUP4 DUP6 SUB SLT ISZERO PUSH2 0x2BA JUMPI PUSH2 0x2B9 PUSH2 0xB7 JUMP JUMPDEST JUMPDEST PUSH0 DUP4 ADD CALLDATALOAD PUSH8 0xFFFFFFFFFFFFFFFF DUP2 GT ISZERO PUSH2 0x2D7 JUMPI PUSH2 0x2D6 PUSH2 0xBB JUMP JUMPDEST JUMPDEST PUSH2 0x2E3 DUP6 DUP3 DUP7 ADD PUSH2 0x1CE JUMP JUMPDEST SWAP3 POP POP PUSH1 0x20 PUSH2 0x2F4 DUP6 DUP3 DUP7 ADD PUSH2 0x290 JUMP JUMPDEST SWAP2 POP POP SWAP3 POP SWAP3 SWAP1 POP JUMP JUMPDEST PUSH0 DUP2 MLOAD SWAP1 POP SWAP2 SWAP1 POP JUMP JUMPDEST PUSH32 0x4E487B7100000000000000000000000000000000000000000000000000000000 PUSH0 MSTORE PUSH1 0x22 PUSH1 0x4 MSTORE PUSH1 0x24 PUSH0 REVERT JUMPDEST PUSH0 PUSH1 0x2 DUP3 DIV SWAP1 POP PUSH1 0x1 DUP3 AND DUP1 PUSH2 0x34C JUMPI PUSH1 0x7F DUP3 AND SWAP2 POP JUMPDEST PUSH1 0x20 DUP3 LT DUP2 SUB PUSH2 0x35F JUMPI PUSH2 0x35E PUSH2 0x308 JUMP JUMPDEST JUMPDEST POP SWAP2 SWAP1 POP JUMP JUMPDEST PUSH0 DUP2 SWAP1 POP DUP2 PUSH0 MSTORE PUSH1 0x20 PUSH0 KECCAK256 SWAP1 POP SWAP2 SWAP1 POP JUMP JUMPDEST PUSH0 PUSH1 0x20 PUSH1 0x1F DUP4 ADD DIV SWAP1 POP SWAP2 SWAP1 POP JUMP JUMPDEST PUSH0 DUP3 DUP3 SHL SWAP1 POP SWAP3 SWAP2 POP POP JUMP JUMPDEST PUSH0 PUSH1 0x8 DUP4 MUL PUSH2 0x3C1 PUSH32 0xFFFFFFFFFFFFFFFFFFFFFFFFFFFFFFFFFFFFFFFFFFFFFFFFFFFFFFFFFFFFFFFF DUP3 PUSH2 0x386 JUMP JUMPDEST PUSH2 0x3CB DUP7 DUP4 PUSH2 0x386 JUMP JUMPDEST SWAP6 POP DUP1 NOT DUP5 AND SWAP4 POP DUP1 DUP7 AND DUP5 OR SWAP3 POP POP POP SWAP4 SWAP3 POP POP POP JUMP JUMPDEST PUSH0 DUP2 SWAP1 POP SWAP2 SWAP1 POP JUMP JUMPDEST PUSH0 PUSH2 0x406 PUSH2 0x401 PUSH2 0x3FC DUP5 PUSH2 0x271 JUMP JUMPDEST PUSH2 0x3E3 JUMP JUMPDEST PUSH2 0x271 JUMP JUMPDEST SWAP1 POP SWAP2 SWAP1 POP JUMP JUMPDEST PUSH0 DUP2 SWAP1 POP SWAP2 SWAP1 POP JUMP JUMPDEST PUSH2 0x41F DUP4 PUSH2 0x3EC JUMP JUMPDEST PUSH2 0x433 PUSH2 0x42B DUP3 PUSH2 0x40D JUMP JUMPDEST DUP5 DUP5 SLOAD PUSH2 0x392 JUMP JUMPDEST DUP3 SSTORE POP POP POP POP JUMP JUMPDEST PUSH0 SWAP1 JUMP JUMPDEST PUSH2 0x447 PUSH2 0x43B JUMP JUMPDEST PUSH2 0x452 DUP2 DUP5 DUP5 PUSH2 0x416 JUMP JUMPDEST POP POP POP JUMP JUMPDEST JUMPDEST DUP2 DUP2 LT ISZERO PUSH2 0x475 JUMPI PUSH2 0x46A PUSH0 DUP3 PUSH2 0x43F JUMP JUMPDEST PUSH1 0x1 DUP2 ADD SWAP1 POP PUSH2 0x458 JUMP JUMPDEST POP POP JUMP JUMPDEST PUSH1 0x1F DUP3 GT ISZERO PUSH2 0x4BA JUMPI PUSH2 0x48B DUP2 PUSH2 0x365 JUMP JUMPDEST PUSH2 0x494 DUP5 PUSH2 0x377 JUMP JUMPDEST DUP2 ADD PUSH1 0x20 DUP6 LT ISZERO PUSH2 0x4A3 JUMPI DUP2 SWAP1 POP JUMPDEST PUSH2 0x4B7 PUSH2 0x4AF DUP6 PUSH2 0x377 JUMP JUMPDEST DUP4 ADD DUP3 PUSH2 0x457 JUMP JUMPDEST POP POP JUMPDEST POP POP POP JUMP JUMPDEST PUSH0 DUP3 DUP3 SHR SWAP1 POP SWAP3 SWAP2 POP POP JUMP JUMPDEST PUSH0 PUSH2 0x4DA PUSH0 NOT DUP5 PUSH1 0x8 MUL PUSH2 0x4BF JUMP JUMPDEST NOT DUP1 DUP4 AND SWAP2 POP POP SWAP3 SWAP2 POP POP JUMP JUMPDEST PUSH0 PUSH2 0x4F2 DUP4 DUP4 PUSH2 0x4CB JUMP JUMPDEST SWAP2 POP DUP3 PUSH1 0x2 MUL DUP3 OR SWAP1 POP SWAP3 SWAP2 POP POP JUMP JUMPDEST PUSH2 0x50B DUP3 PUSH2 0x2FE JUMP JUMPDEST PUSH8 0xFFFFFFFFFFFFFFFF DUP2 GT ISZERO PUSH2 0x524 JUMPI PUSH2 0x523 PUSH2 0xD7 JUMP JUMPDEST JUMPDEST PUSH2 0x52E DUP3 SLOAD PUSH2 0x335 JUMP JUMPDEST PUSH2 0x539 DUP3 DUP3 DUP6 PUSH2 0x479 JUMP JUMPDEST PUSH0 PUSH1 0x20 SWAP1 POP PUSH1 0x1F DUP4 GT PUSH1 0x1 DUP2 EQ PUSH2 0x56A JUMPI PUSH0 DUP5 ISZERO PUSH2 0x558 JUMPI DUP3 DUP8 ADD MLOAD SWAP1 POP JUMPDEST PUSH2 0x562 DUP6 DUP3 PUSH2 0x4E7 JUMP JUMPDEST DUP7 SSTORE POP PUSH2 0x5C9 JUMP JUMPDEST PUSH1 0x1F NOT DUP5 AND PUSH2 0x578 DUP7 PUSH2 0x365 JUMP JUMPDEST PUSH0 JUMPDEST DUP3 DUP2 LT ISZERO PUSH2 0x59F JUMPI DUP5 DUP10 ADD MLOAD DUP3 SSTORE PUSH1 0x1 DUP3 ADD SWAP2 POP PUSH1 0x20 DUP6 ADD SWAP5 POP PUSH1 0x20 DUP2 ADD SWAP1 POP PUSH2 0x57A JUMP JUMPDEST DUP7 DUP4 LT ISZERO PUSH2 0x5BC JUMPI DUP5 DUP10 ADD MLOAD PUSH2 0x5B8 PUSH1 0x1F DUP10 AND DUP3 PUSH2 0x4CB JUMP JUMPDEST DUP4 SSTORE POP JUMPDEST PUSH1 0x1 PUSH1 0x2 DUP9 MUL ADD DUP9 SSTORE POP POP POP JUMPDEST POP POP POP POP POP POP JUMP INVALID LOG2 PUSH5 0x6970667358 0x22 SLT KECCAK256 SWAP15 0xE8 PUSH28 0xA005452B691EF252778C455B768316ED946E99EADC3887A6F783CAD1 0x2A PUSH5 0x736F6C6343 STOP ADDMOD BYTE STOP CALLER "
		},
		"gasEstimates": {
			"creation": {
				"codeDepositCost": "308600",
				"executionCost": "347",
				"totalCost": "308947"
			},
			"external": {
				"setCollege(string,string)": "infinite",
				"setStudent(string,uint256)": "infinite"
			}
		},
		"methodIdentifiers": {
			"setCollege(string,string)": "880150d4",
			"setStudent(string,uint256)": "9b4d52dd"
		}
	},
	"abi": [
		{
			"inputs": [
				{
					"internalType": "string",
					"name": "cn",
					"type": "string"
				},
				{
					"internalType": "string",
					"name": "pn",
					"type": "string"
				}
			],
			"name": "setCollege",
			"outputs": [],
			"stateMutability": "nonpayable",
			"type": "function"
		},
		{
			"inputs": [
				{
					"internalType": "string",
					"name": "sn",
					"type": "string"
				},
				{
					"internalType": "uint256",
					"name": "rn",
					"type": "uint256"
				}
			],
			"name": "setStudent",
			"outputs": [],
			"stateMutability": "nonpayable",
			"type": "function"
		}
	]
}