{
	"data": {
		"bytecode": {
			"linkReferences": {},
			"object": "6080604052604051610010906100de565b604051809103905ff080158015610029573d5f803e3d5ffd5b505f806101000a81548173ffffffffffffffffffffffffffffffffffffffff021916908373ffffffffffffffffffffffffffffffffffffffff160217905550604051610074906100eb565b604051809103905ff08015801561008d573d5f803e3d5ffd5b5060015f6101000a81548173ffffffffffffffffffffffffffffffffffffffff021916908373ffffffffffffffffffffffffffffffffffffffff1602179055503480156100d8575f80fd5b506100f8565b6108c680610abc83390190565b6108c68061138283390190565b6109b7806101055f395ff3fe608060405234801561000f575f80fd5b5060043610610034575f3560e01c80634c02e88c1461003857806390599c0214610059575b5f80fd5b61004061007a565b6040516100509493929190610460565b60405180910390f35b61006161022c565b6040516100719493929190610460565b60405180910390f35b5f606080606060015f9054906101000a900473ffffffffffffffffffffffffffffffffffffffff1673ffffffffffffffffffffffffffffffffffffffff1663f714fc1f60046040518263ffffffff1660e01b81526004016100db9190610544565b5f604051808303815f87803b1580156100f2575f80fd5b505af1158015610104573d5f803e3d5ffd5b5050505060015f9054906101000a900473ffffffffffffffffffffffffffffffffffffffff1673ffffffffffffffffffffffffffffffffffffffff1663f1c3ba0e6040518163ffffffff1660e01b815260040161016090610604565b5f604051808303815f87803b158015610177575f80fd5b505af1158015610189573d5f803e3d5ffd5b5050505060015f9054906101000a900473ffffffffffffffffffffffffffffffffffffffff1673ffffffffffffffffffffffffffffffffffffffff1663e1cb0e526040518163ffffffff1660e01b81526004015f60405180830381865afa1580156101f6573d5f803e3d5ffd5b505050506040513d5f823e3d601f19601f8201168201806040525081019061021e919061078e565b935093509350935090919293565b5f60608060605f8054906101000a900473ffffffffffffffffffffffffffffffffffffffff1673ffffffffffffffffffffffffffffffffffffffff1663f714fc1f60046040518263ffffffff1660e01b815260040161028b9190610890565b5f604051808303815f87803b1580156102a2575f80fd5b505af11580156102b4573d5f803e3d5ffd5b505050505f8054906101000a900473ffffffffffffffffffffffffffffffffffffffff1673ffffffffffffffffffffffffffffffffffffffff1663f1c3ba0e6040518163ffffffff1660e01b815260040161030e90610950565b5f604051808303815f87803b158015610325575f80fd5b505af1158015610337573d5f803e3d5ffd5b505050505f8054906101000a900473ffffffffffffffffffffffffffffffffffffffff1673ffffffffffffffffffffffffffffffffffffffff1663e1cb0e526040518163ffffffff1660e01b81526004015f60405180830381865afa1580156103a2573d5f803e3d5ffd5b505050506040513d5f823e3d601f19601f820116820180604052508101906103ca919061078e565b935093509350935090919293565b5f819050919050565b6103ea816103d8565b82525050565b5f81519050919050565b5f82825260208201905092915050565b8281835e5f83830152505050565b5f601f19601f8301169050919050565b5f610432826103f0565b61043c81856103fa565b935061044c81856020860161040a565b61045581610418565b840191505092915050565b5f6080820190506104735f8301876103e1565b81810360208301526104858186610428565b905081810360408301526104998185610428565b905081810360608301526104ad8184610428565b905095945050505050565b5f819050919050565b5f819050919050565b5f6104e46104df6104da846104b8565b6104c1565b6103d8565b9050919050565b6104f4816104ca565b82525050565b7f57686974650000000000000000000000000000000000000000000000000000005f82015250565b5f61052e6005836103fa565b9150610539826104fa565b602082019050919050565b5f6040820190506105575f8301846104eb565b818103602083015261056881610522565b905092915050565b7f4a656e6e696500000000000000000000000000000000000000000000000000005f82015250565b5f6105a46006836103fa565b91506105af82610570565b602082019050919050565b7f496e6469650000000000000000000000000000000000000000000000000000005f82015250565b5f6105ee6005836103fa565b91506105f9826105ba565b602082019050919050565b5f6040820190508181035f83015261061b81610598565b9050818103602083015261062e816105e2565b9050919050565b5f604051905090565b5f80fd5b5f80fd5b61064f816103d8565b8114610659575f80fd5b50565b5f8151905061066a81610646565b92915050565b5f80fd5b5f80fd5b7f4e487b71000000000000000000000000000000000000000000000000000000005f52604160045260245ffd5b6106ae82610418565b810181811067ffffffffffffffff821117156106cd576106cc610678565b5b80604052505050565b5f6106df610635565b90506106eb82826106a5565b919050565b5f67ffffffffffffffff82111561070a57610709610678565b5b61071382610418565b9050602081019050919050565b5f61073261072d846106f0565b6106d6565b90508281526020810184848401111561074e5761074d610674565b5b61075984828561040a565b509392505050565b5f82601f83011261077557610774610670565b5b8151610785848260208601610720565b91505092915050565b5f805f80608085870312156107a6576107a561063e565b5b5f6107b38782880161065c565b945050602085015167ffffffffffffffff8111156107d4576107d3610642565b5b6107e087828801610761565b935050604085015167ffffffffffffffff81111561080157610800610642565b5b61080d87828801610761565b925050606085015167ffffffffffffffff81111561082e5761082d610642565b5b61083a87828801610761565b91505092959194509250565b7f426c61636b0000000000000000000000000000000000000000000000000000005f82015250565b5f61087a6005836103fa565b915061088582610846565b602082019050919050565b5f6040820190506108a35f8301846104eb565b81810360208301526108b48161086e565b905092915050565b7f53696d62610000000000000000000000000000000000000000000000000000005f82015250565b5f6108f06005836103fa565b91506108fb826108bc565b602082019050919050565b7f4c61627261646f720000000000000000000000000000000000000000000000005f82015250565b5f61093a6008836103fa565b915061094582610906565b602082019050919050565b5f6040820190508181035f830152610967816108e4565b9050818103602083015261097a8161092e565b905091905056fea26469706673582212209058c053a07bf94e7d32953ee480b64475f010888a18bf3eab36184ad49a64a064736f6c634300081a00336080604052348015600e575f80fd5b506108aa8061001c5f395ff3fe608060405234801561000f575f80fd5b506004361061003f575f3560e01c8063e1cb0e5214610043578063f1c3ba0e14610064578063f714fc1f14610080575b5f80fd5b61004b61009c565b60405161005b949392919061031c565b60405180910390f35b61007e600480360381019061007991906104b1565b610256565b005b61009a60048036038101906100959190610551565b61027a565b005b5f60608060605f546001600260038280546100b6906105d8565b80601f01602080910402602001604051908101604052809291908181526020018280546100e2906105d8565b801561012d5780601f106101045761010080835404028352916020019161012d565b820191905f5260205f20905b81548152906001019060200180831161011057829003601f168201915b50505050509250818054610140906105d8565b80601f016020809104026020016040519081016040528092919081815260200182805461016c906105d8565b80156101b75780601f1061018e576101008083540402835291602001916101b7565b820191905f5260205f20905b81548152906001019060200180831161019a57829003601f168201915b505050505091508080546101ca906105d8565b80601f01602080910402602001604051908101604052809291908181526020018280546101f6906105d8565b80156102415780601f1061021857610100808354040283529160200191610241565b820191905f5260205f20905b81548152906001019060200180831161022457829003601f168201915b50505050509050935093509350935090919293565b816002908161026591906107a5565b50806003908161027591906107a5565b505050565b815f81905550806001908161028f91906107a5565b505050565b5f819050919050565b6102a681610294565b82525050565b5f81519050919050565b5f82825260208201905092915050565b8281835e5f83830152505050565b5f601f19601f8301169050919050565b5f6102ee826102ac565b6102f881856102b6565b93506103088185602086016102c6565b610311816102d4565b840191505092915050565b5f60808201905061032f5f83018761029d565b818103602083015261034181866102e4565b9050818103604083015261035581856102e4565b9050818103606083015261036981846102e4565b905095945050505050565b5f604051905090565b5f80fd5b5f80fd5b5f80fd5b5f80fd5b7f4e487b71000000000000000000000000000000000000000000000000000000005f52604160045260245ffd5b6103c3826102d4565b810181811067ffffffffffffffff821117156103e2576103e161038d565b5b80604052505050565b5f6103f4610374565b905061040082826103ba565b919050565b5f67ffffffffffffffff82111561041f5761041e61038d565b5b610428826102d4565b9050602081019050919050565b828183375f83830152505050565b5f61045561045084610405565b6103eb565b90508281526020810184848401111561047157610470610389565b5b61047c848285610435565b509392505050565b5f82601f83011261049857610497610385565b5b81356104a8848260208601610443565b91505092915050565b5f80604083850312156104c7576104c661037d565b5b5f83013567ffffffffffffffff8111156104e4576104e3610381565b5b6104f085828601610484565b925050602083013567ffffffffffffffff81111561051157610510610381565b5b61051d85828601610484565b9150509250929050565b61053081610294565b811461053a575f80fd5b50565b5f8135905061054b81610527565b92915050565b5f80604083850312156105675761056661037d565b5b5f6105748582860161053d565b925050602083013567ffffffffffffffff81111561059557610594610381565b5b6105a185828601610484565b9150509250929050565b7f4e487b71000000000000000000000000000000000000000000000000000000005f52602260045260245ffd5b5f60028204905060018216806105ef57607f821691505b602082108103610602576106016105ab565b5b50919050565b5f819050815f5260205f209050919050565b5f6020601f8301049050919050565b5f82821b905092915050565b5f600883026106647fffffffffffffffffffffffffffffffffffffffffffffffffffffffffffffffff82610629565b61066e8683610629565b95508019841693508086168417925050509392505050565b5f819050919050565b5f6106a96106a461069f84610294565b610686565b610294565b9050919050565b5f819050919050565b6106c28361068f565b6106d66106ce826106b0565b848454610635565b825550505050565b5f90565b6106ea6106de565b6106f58184846106b9565b505050565b5b818110156107185761070d5f826106e2565b6001810190506106fb565b5050565b601f82111561075d5761072e81610608565b6107378461061a565b81016020851015610746578190505b61075a6107528561061a565b8301826106fa565b50505b505050565b5f82821c905092915050565b5f61077d5f1984600802610762565b1980831691505092915050565b5f610795838361076e565b9150826002028217905092915050565b6107ae826102ac565b67ffffffffffffffff8111156107c7576107c661038d565b5b6107d182546105d8565b6107dc82828561071c565b5f60209050601f83116001811461080d575f84156107fb578287015190505b610805858261078a565b86555061086c565b601f19841661081b86610608565b5f5b828110156108425784890151825560018201915060208501945060208101905061081d565b8683101561085f578489015161085b601f89168261076e565b8355505b6001600288020188555050505b50505050505056fea264697066735822122038c6891b65beb4a13091307b35ad9be8d8047d3eed14e7e68fc0507daea1cd6564736f6c634300081a00336080604052348015600e575f80fd5b506108aa8061001c5f395ff3fe608060405234801561000f575f80fd5b506004361061003f575f3560e01c8063e1cb0e5214610043578063f1c3ba0e14610064578063f714fc1f14610080575b5f80fd5b61004b61009c565b60405161005b949392919061031c565b60405180910390f35b61007e600480360381019061007991906104b1565b610256565b005b61009a60048036038101906100959190610551565b61027a565b005b5f60608060605f546001600260038280546100b6906105d8565b80601f01602080910402602001604051908101604052809291908181526020018280546100e2906105d8565b801561012d5780601f106101045761010080835404028352916020019161012d565b820191905f5260205f20905b81548152906001019060200180831161011057829003601f168201915b50505050509250818054610140906105d8565b80601f016020809104026020016040519081016040528092919081815260200182805461016c906105d8565b80156101b75780601f1061018e576101008083540402835291602001916101b7565b820191905f5260205f20905b81548152906001019060200180831161019a57829003601f168201915b505050505091508080546101ca906105d8565b80601f01602080910402602001604051908101604052809291908181526020018280546101f6906105d8565b80156102415780601f1061021857610100808354040283529160200191610241565b820191905f5260205f20905b81548152906001019060200180831161022457829003601f168201915b50505050509050935093509350935090919293565b816002908161026591906107a5565b50806003908161027591906107a5565b505050565b815f81905550806001908161028f91906107a5565b505050565b5f819050919050565b6102a681610294565b82525050565b5f81519050919050565b5f82825260208201905092915050565b8281835e5f83830152505050565b5f601f19601f8301169050919050565b5f6102ee826102ac565b6102f881856102b6565b93506103088185602086016102c6565b610311816102d4565b840191505092915050565b5f60808201905061032f5f83018761029d565b818103602083015261034181866102e4565b9050818103604083015261035581856102e4565b9050818103606083015261036981846102e4565b905095945050505050565b5f604051905090565b5f80fd5b5f80fd5b5f80fd5b5f80fd5b7f4e487b71000000000000000000000000000000000000000000000000000000005f52604160045260245ffd5b6103c3826102d4565b810181811067ffffffffffffffff821117156103e2576103e161038d565b5b80604052505050565b5f6103f4610374565b905061040082826103ba565b919050565b5f67ffffffffffffffff82111561041f5761041e61038d565b5b610428826102d4565b9050602081019050919050565b828183375f83830152505050565b5f61045561045084610405565b6103eb565b90508281526020810184848401111561047157610470610389565b5b61047c848285610435565b509392505050565b5f82601f83011261049857610497610385565b5b81356104a8848260208601610443565b91505092915050565b5f80604083850312156104c7576104c661037d565b5b5f83013567ffffffffffffffff8111156104e4576104e3610381565b5b6104f085828601610484565b925050602083013567ffffffffffffffff81111561051157610510610381565b5b61051d85828601610484565b9150509250929050565b61053081610294565b811461053a575f80fd5b50565b5f8135905061054b81610527565b92915050565b5f80604083850312156105675761056661037d565b5b5f6105748582860161053d565b925050602083013567ffffffffffffffff81111561059557610594610381565b5b6105a185828601610484565b9150509250929050565b7f4e487b71000000000000000000000000000000000000000000000000000000005f52602260045260245ffd5b5f60028204905060018216806105ef57607f821691505b602082108103610602576106016105ab565b5b50919050565b5f819050815f5260205f209050919050565b5f6020601f8301049050919050565b5f82821b905092915050565b5f600883026106647fffffffffffffffffffffffffffffffffffffffffffffffffffffffffffffffff82610629565b61066e8683610629565b95508019841693508086168417925050509392505050565b5f819050919050565b5f6106a96106a461069f84610294565b610686565b610294565b9050919050565b5f819050919050565b6106c28361068f565b6106d66106ce826106b0565b848454610635565b825550505050565b5f90565b6106ea6106de565b6106f58184846106b9565b505050565b5b818110156107185761070d5f826106e2565b6001810190506106fb565b5050565b601f82111561075d5761072e81610608565b6107378461061a565b81016020851015610746578190505b61075a6107528561061a565b8301826106fa565b50505b505050565b5f82821c905092915050565b5f61077d5f1984600802610762565b1980831691505092915050565b5f610795838361076e565b9150826002028217905092915050565b6107ae826102ac565b67ffffffffffffffff8111156107c7576107c661038d565b5b6107d182546105d8565b6107dc82828561071c565b5f60209050601f83116001811461080d575f84156107fb578287015190505b610805858261078a565b86555061086c565b601f19841661081b86610608565b5f5b828110156108425784890151825560018201915060208501945060208101905061081d565b8683101561085f578489015161085b601f89168261076e565b8355505b6001600288020188555050505b50505050505056fea26469706673582212206670d9fd86aa3a19e0127df17bfb0689d9accb6f404529a5bcb3130ae0643f4364736f6c634300081a0033",
			"opcodes": "PUSH1 0x80 PUSH1 0x40 MSTORE PUSH1 0x40 MLOAD PUSH2 0x10 SWAP1 PUSH2 0xDE JUMP JUMPDEST PUSH1 0x40 MLOAD DUP1 SWAP2 SUB SWAP1 PUSH0 CREATE DUP1 ISZERO DUP1 ISZERO PUSH2 0x29 JUMPI RETURNDATASIZE PUSH0 DUP1 RETURNDATACOPY RETURNDATASIZE PUSH0 REVERT JUMPDEST POP PUSH0 DUP1 PUSH2 0x100 EXP DUP2 SLOAD DUP2 PUSH20 0xFFFFFFFFFFFFFFFFFFFFFFFFFFFFFFFFFFFFFFFF MUL NOT AND SWAP1 DUP4 PUSH20 0xFFFFFFFFFFFFFFFFFFFFFFFFFFFFFFFFFFFFFFFF AND MUL OR SWAP1 SSTORE POP PUSH1 0x40 MLOAD PUSH2 0x74 SWAP1 PUSH2 0xEB JUMP JUMPDEST PUSH1 0x40 MLOAD DUP1 SWAP2 SUB SWAP1 PUSH0 CREATE DUP1 ISZERO DUP1 ISZERO PUSH2 0x8D JUMPI RETURNDATASIZE PUSH0 DUP1 RETURNDATACOPY RETURNDATASIZE PUSH0 REVERT JUMPDEST POP PUSH1 0x1 PUSH0 PUSH2 0x100 EXP DUP2 SLOAD DUP2 PUSH20 0xFFFFFFFFFFFFFFFFFFFFFFFFFFFFFFFFFFFFFFFF MUL NOT AND SWAP1 DUP4 PUSH20 0xFFFFFFFFFFFFFFFFFFFFFFFFFFFFFFFFFFFFFFFF AND MUL OR SWAP1 SSTORE POP CALLVALUE DUP1 ISZERO PUSH2 0xD8 JUMPI PUSH0 DUP1 REVERT JUMPDEST POP PUSH2 0xF8 JUMP JUMPDEST PUSH2 0x8C6 DUP1 PUSH2 0xABC DUP4 CODECOPY ADD SWAP1 JUMP JUMPDEST PUSH2 0x8C6 DUP1 PUSH2 0x1382 DUP4 CODECOPY ADD SWAP1 JUMP JUMPDEST PUSH2 0x9B7 DUP1 PUSH2 0x105 PUSH0 CODECOPY PUSH0 RETURN INVALID PUSH1 0x80 PUSH1 0x40 MSTORE CALLVALUE DUP1 ISZERO PUSH2 0xF JUMPI PUSH0 DUP1 REVERT JUMPDEST POP PUSH1 0x4 CALLDATASIZE LT PUSH2 0x34 JUMPI PUSH0 CALLDATALOAD PUSH1 0xE0 SHR DUP1 PUSH4 0x4C02E88C EQ PUSH2 0x38 JUMPI DUP1 PUSH4 0x90599C02 EQ PUSH2 0x59 JUMPI JUMPDEST PUSH0 DUP1 REVERT JUMPDEST PUSH2 0x40 PUSH2 0x7A JUMP JUMPDEST PUSH1 0x40 MLOAD PUSH2 0x50 SWAP5 SWAP4 SWAP3 SWAP2 SWAP1 PUSH2 0x460 JUMP JUMPDEST PUSH1 0x40 MLOAD DUP1 SWAP2 SUB SWAP1 RETURN JUMPDEST PUSH2 0x61 PUSH2 0x22C JUMP JUMPDEST PUSH1 0x40 MLOAD PUSH2 0x71 SWAP5 SWAP4 SWAP3 SWAP2 SWAP1 PUSH2 0x460 JUMP JUMPDEST PUSH1 0x40 MLOAD DUP1 SWAP2 SUB SWAP1 RETURN JUMPDEST PUSH0 PUSH1 0x60 DUP1 PUSH1 0x60 PUSH1 0x1 PUSH0 SWAP1 SLOAD SWAP1 PUSH2 0x100 EXP SWAP1 DIV PUSH20 0xFFFFFFFFFFFFFFFFFFFFFFFFFFFFFFFFFFFFFFFF AND PUSH20 0xFFFFFFFFFFFFFFFFFFFFFFFFFFFFFFFFFFFFFFFF AND PUSH4 0xF714FC1F PUSH1 0x4 PUSH1 0x40 MLOAD DUP3 PUSH4 0xFFFFFFFF AND PUSH1 0xE0 SHL DUP2 MSTORE PUSH1 0x4 ADD PUSH2 0xDB SWAP2 SWAP1 PUSH2 0x544 JUMP JUMPDEST PUSH0 PUSH1 0x40 MLOAD DUP1 DUP4 SUB DUP2 PUSH0 DUP8 DUP1 EXTCODESIZE ISZERO DUP1 ISZERO PUSH2 0xF2 JUMPI PUSH0 DUP1 REVERT JUMPDEST POP GAS CALL ISZERO DUP1 ISZERO PUSH2 0x104 JUMPI RETURNDATASIZE PUSH0 DUP1 RETURNDATACOPY RETURNDATASIZE PUSH0 REVERT JUMPDEST POP POP POP POP PUSH1 0x1 PUSH0 SWAP1 SLOAD SWAP1 PUSH2 0x100 EXP SWAP1 DIV PUSH20 0xFFFFFFFFFFFFFFFFFFFFFFFFFFFFFFFFFFFFFFFF AND PUSH20 0xFFFFFFFFFFFFFFFFFFFFFFFFFFFFFFFFFFFFFFFF AND PUSH4 0xF1C3BA0E PUSH1 0x40 MLOAD DUP2 PUSH4 0xFFFFFFFF AND PUSH1 0xE0 SHL DUP2 MSTORE PUSH1 0x4 ADD PUSH2 0x160 SWAP1 PUSH2 0x604 JUMP JUMPDEST PUSH0 PUSH1 0x40 MLOAD DUP1 DUP4 SUB DUP2 PUSH0 DUP8 DUP1 EXTCODESIZE ISZERO DUP1 ISZERO PUSH2 0x177 JUMPI PUSH0 DUP1 REVERT JUMPDEST POP GAS CALL ISZERO DUP1 ISZERO PUSH2 0x189 JUMPI RETURNDATASIZE PUSH0 DUP1 RETURNDATACOPY RETURNDATASIZE PUSH0 REVERT JUMPDEST POP POP POP POP PUSH1 0x1 PUSH0 SWAP1 SLOAD SWAP1 PUSH2 0x100 EXP SWAP1 DIV PUSH20 0xFFFFFFFFFFFFFFFFFFFFFFFFFFFFFFFFFFFFFFFF AND PUSH20 0xFFFFFFFFFFFFFFFFFFFFFFFFFFFFFFFFFFFFFFFF AND PUSH4 0xE1CB0E52 PUSH1 0x40 MLOAD DUP2 PUSH4 0xFFFFFFFF AND PUSH1 0xE0 SHL DUP2 MSTORE PUSH1 0x4 ADD PUSH0 PUSH1 0x40 MLOAD DUP1 DUP4 SUB DUP2 DUP7 GAS STATICCALL ISZERO DUP1 ISZERO PUSH2 0x1F6 JUMPI RETURNDATASIZE PUSH0 DUP1 RETURNDATACOPY RETURNDATASIZE PUSH0 REVERT JUMPDEST POP POP POP POP PUSH1 0x40 MLOAD RETURNDATASIZE PUSH0 DUP3 RETURNDATACOPY RETURNDATASIZE PUSH1 0x1F NOT PUSH1 0x1F DUP3 ADD AND DUP3 ADD DUP1 PUSH1 0x40 MSTORE POP DUP2 ADD SWAP1 PUSH2 0x21E SWAP2 SWAP1 PUSH2 0x78E JUMP JUMPDEST SWAP4 POP SWAP4 POP SWAP4 POP SWAP4 POP SWAP1 SWAP2 SWAP3 SWAP4 JUMP JUMPDEST PUSH0 PUSH1 0x60 DUP1 PUSH1 0x60 PUSH0 DUP1 SLOAD SWAP1 PUSH2 0x100 EXP SWAP1 DIV PUSH20 0xFFFFFFFFFFFFFFFFFFFFFFFFFFFFFFFFFFFFFFFF AND PUSH20 0xFFFFFFFFFFFFFFFFFFFFFFFFFFFFFFFFFFFFFFFF AND PUSH4 0xF714FC1F PUSH1 0x4 PUSH1 0x40 MLOAD DUP3 PUSH4 0xFFFFFFFF AND PUSH1 0xE0 SHL DUP2 MSTORE PUSH1 0x4 ADD PUSH2 0x28B SWAP2 SWAP1 PUSH2 0x890 JUMP JUMPDEST PUSH0 PUSH1 0x40 MLOAD DUP1 DUP4 SUB DUP2 PUSH0 DUP8 DUP1 EXTCODESIZE ISZERO DUP1 ISZERO PUSH2 0x2A2 JUMPI PUSH0 DUP1 REVERT JUMPDEST POP GAS CALL ISZERO DUP1 ISZERO PUSH2 0x2B4 JUMPI RETURNDATASIZE PUSH0 DUP1 RETURNDATACOPY RETURNDATASIZE PUSH0 REVERT JUMPDEST POP POP POP POP PUSH0 DUP1 SLOAD SWAP1 PUSH2 0x100 EXP SWAP1 DIV PUSH20 0xFFFFFFFFFFFFFFFFFFFFFFFFFFFFFFFFFFFFFFFF AND PUSH20 0xFFFFFFFFFFFFFFFFFFFFFFFFFFFFFFFFFFFFFFFF AND PUSH4 0xF1C3BA0E PUSH1 0x40 MLOAD DUP2 PUSH4 0xFFFFFFFF AND PUSH1 0xE0 SHL DUP2 MSTORE PUSH1 0x4 ADD PUSH2 0x30E SWAP1 PUSH2 0x950 JUMP JUMPDEST PUSH0 PUSH1 0x40 MLOAD DUP1 DUP4 SUB DUP2 PUSH0 DUP8 DUP1 EXTCODESIZE ISZERO DUP1 ISZERO PUSH2 0x325 JUMPI PUSH0 DUP1 REVERT JUMPDEST POP GAS CALL ISZERO DUP1 ISZERO PUSH2 0x337 JUMPI RETURNDATASIZE PUSH0 DUP1 RETURNDATACOPY RETURNDATASIZE PUSH0 REVERT JUMPDEST POP POP POP POP PUSH0 DUP1 SLOAD SWAP1 PUSH2 0x100 EXP SWAP1 DIV PUSH20 0xFFFFFFFFFFFFFFFFFFFFFFFFFFFFFFFFFFFFFFFF AND PUSH20 0xFFFFFFFFFFFFFFFFFFFFFFFFFFFFFFFFFFFFFFFF AND PUSH4 0xE1CB0E52 PUSH1 0x40 MLOAD DUP2 PUSH4 0xFFFFFFFF AND PUSH1 0xE0 SHL DUP2 MSTORE PUSH1 0x4 ADD PUSH0 PUSH1 0x40 MLOAD DUP1 DUP4 SUB DUP2 DUP7 GAS STATICCALL ISZERO DUP1 ISZERO PUSH2 0x3A2 JUMPI RETURNDATASIZE PUSH0 DUP1 RETURNDATACOPY RETURNDATASIZE PUSH0 REVERT JUMPDEST POP POP POP POP PUSH1 0x40 MLOAD RETURNDATASIZE PUSH0 DUP3 RETURNDATACOPY RETURNDATASIZE PUSH1 0x1F NOT PUSH1 0x1F DUP3 ADD AND DUP3 ADD DUP1 PUSH1 0x40 MSTORE POP DUP2 ADD SWAP1 PUSH2 0x3CA SWAP2 SWAP1 PUSH2 0x78E JUMP JUMPDEST SWAP4 POP SWAP4 POP SWAP4 POP SWAP4 POP SWAP1 SWAP2 SWAP3 SWAP4 JUMP JUMPDEST PUSH0 DUP2 SWAP1 POP SWAP2 SWAP1 POP JUMP JUMPDEST PUSH2 0x3EA DUP2 PUSH2 0x3D8 JUMP JUMPDEST DUP3 MSTORE POP POP JUMP JUMPDEST PUSH0 DUP2 MLOAD SWAP1 POP SWAP2 SWAP1 POP JUMP JUMPDEST PUSH0 DUP3 DUP3 MSTORE PUSH1 0x20 DUP3 ADD SWAP1 POP SWAP3 SWAP2 POP POP JUMP JUMPDEST DUP3 DUP2 DUP4 MCOPY PUSH0 DUP4 DUP4 ADD MSTORE POP POP POP JUMP JUMPDEST PUSH0 PUSH1 0x1F NOT PUSH1 0x1F DUP4 ADD AND SWAP1 POP SWAP2 SWAP1 POP JUMP JUMPDEST PUSH0 PUSH2 0x432 DUP3 PUSH2 0x3F0 JUMP JUMPDEST PUSH2 0x43C DUP2 DUP6 PUSH2 0x3FA JUMP JUMPDEST SWAP4 POP PUSH2 0x44C DUP2 DUP6 PUSH1 0x20 DUP7 ADD PUSH2 0x40A JUMP JUMPDEST PUSH2 0x455 DUP2 PUSH2 0x418 JUMP JUMPDEST DUP5 ADD SWAP2 POP POP SWAP3 SWAP2 POP POP JUMP JUMPDEST PUSH0 PUSH1 0x80 DUP3 ADD SWAP1 POP PUSH2 0x473 PUSH0 DUP4 ADD DUP8 PUSH2 0x3E1 JUMP JUMPDEST DUP2 DUP2 SUB PUSH1 0x20 DUP4 ADD MSTORE PUSH2 0x485 DUP2 DUP7 PUSH2 0x428 JUMP JUMPDEST SWAP1 POP DUP2 DUP2 SUB PUSH1 0x40 DUP4 ADD MSTORE PUSH2 0x499 DUP2 DUP6 PUSH2 0x428 JUMP JUMPDEST SWAP1 POP DUP2 DUP2 SUB PUSH1 0x60 DUP4 ADD MSTORE PUSH2 0x4AD DUP2 DUP5 PUSH2 0x428 JUMP JUMPDEST SWAP1 POP SWAP6 SWAP5 POP POP POP POP POP JUMP JUMPDEST PUSH0 DUP2 SWAP1 POP SWAP2 SWAP1 POP JUMP JUMPDEST PUSH0 DUP2 SWAP1 POP SWAP2 SWAP1 POP JUMP JUMPDEST PUSH0 PUSH2 0x4E4 PUSH2 0x4DF PUSH2 0x4DA DUP5 PUSH2 0x4B8 JUMP JUMPDEST PUSH2 0x4C1 JUMP JUMPDEST PUSH2 0x3D8 JUMP JUMPDEST SWAP1 POP SWAP2 SWAP1 POP JUMP JUMPDEST PUSH2 0x4F4 DUP2 PUSH2 0x4CA JUMP JUMPDEST DUP3 MSTORE POP POP JUMP JUMPDEST PUSH32 0x5768697465000000000000000000000000000000000000000000000000000000 PUSH0 DUP3 ADD MSTORE POP JUMP JUMPDEST PUSH0 PUSH2 0x52E PUSH1 0x5 DUP4 PUSH2 0x3FA JUMP JUMPDEST SWAP2 POP PUSH2 0x539 DUP3 PUSH2 0x4FA JUMP JUMPDEST PUSH1 0x20 DUP3 ADD SWAP1 POP SWAP2 SWAP1 POP JUMP JUMPDEST PUSH0 PUSH1 0x40 DUP3 ADD SWAP1 POP PUSH2 0x557 PUSH0 DUP4 ADD DUP5 PUSH2 0x4EB JUMP JUMPDEST DUP2 DUP2 SUB PUSH1 0x20 DUP4 ADD MSTORE PUSH2 0x568 DUP2 PUSH2 0x522 JUMP JUMPDEST SWAP1 POP SWAP3 SWAP2 POP POP JUMP JUMPDEST PUSH32 0x4A656E6E69650000000000000000000000000000000000000000000000000000 PUSH0 DUP3 ADD MSTORE POP JUMP JUMPDEST PUSH0 PUSH2 0x5A4 PUSH1 0x6 DUP4 PUSH2 0x3FA JUMP JUMPDEST SWAP2 POP PUSH2 0x5AF DUP3 PUSH2 0x570 JUMP JUMPDEST PUSH1 0x20 DUP3 ADD SWAP1 POP SWAP2 SWAP1 POP JUMP JUMPDEST PUSH32 0x496E646965000000000000000000000000000000000000000000000000000000 PUSH0 DUP3 ADD MSTORE POP JUMP JUMPDEST PUSH0 PUSH2 0x5EE PUSH1 0x5 DUP4 PUSH2 0x3FA JUMP JUMPDEST SWAP2 POP PUSH2 0x5F9 DUP3 PUSH2 0x5BA JUMP JUMPDEST PUSH1 0x20 DUP3 ADD SWAP1 POP SWAP2 SWAP1 POP JUMP JUMPDEST PUSH0 PUSH1 0x40 DUP3 ADD SWAP1 POP DUP2 DUP2 SUB PUSH0 DUP4 ADD MSTORE PUSH2 0x61B DUP2 PUSH2 0x598 JUMP JUMPDEST SWAP1 POP DUP2 DUP2 SUB PUSH1 0x20 DUP4 ADD MSTORE PUSH2 0x62E DUP2 PUSH2 0x5E2 JUMP JUMPDEST SWAP1 POP SWAP2 SWAP1 POP JUMP JUMPDEST PUSH0 PUSH1 0x40 MLOAD SWAP1 POP SWAP1 JUMP JUMPDEST PUSH0 DUP1 REVERT JUMPDEST PUSH0 DUP1 REVERT JUMPDEST PUSH2 0x64F DUP2 PUSH2 0x3D8 JUMP JUMPDEST DUP2 EQ PUSH2 0x659 JUMPI PUSH0 DUP1 REVERT JUMPDEST POP JUMP JUMPDEST PUSH0 DUP2 MLOAD SWAP1 POP PUSH2 0x66A DUP2 PUSH2 0x646 JUMP JUMPDEST SWAP3 SWAP2 POP POP JUMP JUMPDEST PUSH0 DUP1 REVERT JUMPDEST PUSH0 DUP1 REVERT JUMPDEST PUSH32 0x4E487B7100000000000000000000000000000000000000000000000000000000 PUSH0 MSTORE PUSH1 0x41 PUSH1 0x4 MSTORE PUSH1 0x24 PUSH0 REVERT JUMPDEST PUSH2 0x6AE DUP3 PUSH2 0x418 JUMP JUMPDEST DUP2 ADD DUP2 DUP2 LT PUSH8 0xFFFFFFFFFFFFFFFF DUP3 GT OR ISZERO PUSH2 0x6CD JUMPI PUSH2 0x6CC PUSH2 0x678 JUMP JUMPDEST JUMPDEST DUP1 PUSH1 0x40 MSTORE POP POP POP JUMP JUMPDEST PUSH0 PUSH2 0x6DF PUSH2 0x635 JUMP JUMPDEST SWAP1 POP PUSH2 0x6EB DUP3 DUP3 PUSH2 0x6A5 JUMP JUMPDEST SWAP2 SWAP1 POP JUMP JUMPDEST PUSH0 PUSH8 0xFFFFFFFFFFFFFFFF DUP3 GT ISZERO PUSH2 0x70A JUMPI PUSH2 0x709 PUSH2 0x678 JUMP JUMPDEST JUMPDEST PUSH2 0x713 DUP3 PUSH2 0x418 JUMP JUMPDEST SWAP1 POP PUSH1 0x20 DUP2 ADD SWAP1 POP SWAP2 SWAP1 POP JUMP JUMPDEST PUSH0 PUSH2 0x732 PUSH2 0x72D DUP5 PUSH2 0x6F0 JUMP JUMPDEST PUSH2 0x6D6 JUMP JUMPDEST SWAP1 POP DUP3 DUP2 MSTORE PUSH1 0x20 DUP2 ADD DUP5 DUP5 DUP5 ADD GT ISZERO PUSH2 0x74E JUMPI PUSH2 0x74D PUSH2 0x674 JUMP JUMPDEST JUMPDEST PUSH2 0x759 DUP5 DUP3 DUP6 PUSH2 0x40A JUMP JUMPDEST POP SWAP4 SWAP3 POP POP POP JUMP JUMPDEST PUSH0 DUP3 PUSH1 0x1F DUP4 ADD SLT PUSH2 0x775 JUMPI PUSH2 0x774 PUSH2 0x670 JUMP JUMPDEST JUMPDEST DUP2 MLOAD PUSH2 0x785 DUP5 DUP3 PUSH1 0x20 DUP7 ADD PUSH2 0x720 JUMP JUMPDEST SWAP2 POP POP SWAP3 SWAP2 POP POP JUMP JUMPDEST PUSH0 DUP1 PUSH0 DUP1 PUSH1 0x80 DUP6 DUP8 SUB SLT ISZERO PUSH2 0x7A6 JUMPI PUSH2 0x7A5 PUSH2 0x63E JUMP JUMPDEST JUMPDEST PUSH0 PUSH2 0x7B3 DUP8 DUP3 DUP9 ADD PUSH2 0x65C JUMP JUMPDEST SWAP5 POP POP PUSH1 0x20 DUP6 ADD MLOAD PUSH8 0xFFFFFFFFFFFFFFFF DUP2 GT ISZERO PUSH2 0x7D4 JUMPI PUSH2 0x7D3 PUSH2 0x642 JUMP JUMPDEST JUMPDEST PUSH2 0x7E0 DUP8 DUP3 DUP9 ADD PUSH2 0x761 JUMP JUMPDEST SWAP4 POP POP PUSH1 0x40 DUP6 ADD MLOAD PUSH8 0xFFFFFFFFFFFFFFFF DUP2 GT ISZERO PUSH2 0x801 JUMPI PUSH2 0x800 PUSH2 0x642 JUMP JUMPDEST JUMPDEST PUSH2 0x80D DUP8 DUP3 DUP9 ADD PUSH2 0x761 JUMP JUMPDEST SWAP3 POP POP PUSH1 0x60 DUP6 ADD MLOAD PUSH8 0xFFFFFFFFFFFFFFFF DUP2 GT ISZERO PUSH2 0x82E JUMPI PUSH2 0x82D PUSH2 0x642 JUMP JUMPDEST JUMPDEST PUSH2 0x83A DUP8 DUP3 DUP9 ADD PUSH2 0x761 JUMP JUMPDEST SWAP2 POP POP SWAP3 SWAP6 SWAP2 SWAP5 POP SWAP3 POP JUMP JUMPDEST PUSH32 0x426C61636B000000000000000000000000000000000000000000000000000000 PUSH0 DUP3 ADD MSTORE POP JUMP JUMPDEST PUSH0 PUSH2 0x87A PUSH1 0x5 DUP4 PUSH2 0x3FA JUMP JUMPDEST SWAP2 POP PUSH2 0x885 DUP3 PUSH2 0x846 JUMP JUMPDEST PUSH1 0x20 DUP3 ADD SWAP1 POP SWAP2 SWAP1 POP JUMP JUMPDEST PUSH0 PUSH1 0x40 DUP3 ADD SWAP1 POP PUSH2 0x8A3 PUSH0 DUP4 ADD DUP5 PUSH2 0x4EB JUMP JUMPDEST DUP2 DUP2 SUB PUSH1 0x20 DUP4 ADD MSTORE PUSH2 0x8B4 DUP2 PUSH2 0x86E JUMP JUMPDEST SWAP1 POP SWAP3 SWAP2 POP POP JUMP JUMPDEST PUSH32 0x53696D6261000000000000000000000000000000000000000000000000000000 PUSH0 DUP3 ADD MSTORE POP JUMP JUMPDEST PUSH0 PUSH2 0x8F0 PUSH1 0x5 DUP4 PUSH2 0x3FA JUMP JUMPDEST SWAP2 POP PUSH2 0x8FB DUP3 PUSH2 0x8BC JUMP JUMPDEST PUSH1 0x20 DUP3 ADD SWAP1 POP SWAP2 SWAP1 POP JUMP JUMPDEST PUSH32 0x4C61627261646F72000000000000000000000000000000000000000000000000 PUSH0 DUP3 ADD MSTORE POP JUMP JUMPDEST PUSH0 PUSH2 0x93A PUSH1 0x8 DUP4 PUSH2 0x3FA JUMP JUMPDEST SWAP2 POP PUSH2 0x945 DUP3 PUSH2 0x906 JUMP JUMPDEST PUSH1 0x20 DUP3 ADD SWAP1 POP SWAP2 SWAP1 POP JUMP JUMPDEST PUSH0 PUSH1 0x40 DUP3 ADD SWAP1 POP DUP2 DUP2 SUB PUSH0 DUP4 ADD MSTORE PUSH2 0x967 DUP2 PUSH2 0x8E4 JUMP JUMPDEST SWAP1 POP DUP2 DUP2 SUB PUSH1 0x20 DUP4 ADD MSTORE PUSH2 0x97A DUP2 PUSH2 0x92E JUMP JUMPDEST SWAP1 POP SWAP2 SWAP1 POP JUMP INVALID LOG2 PUSH5 0x6970667358 0x22 SLT KECCAK256 SWAP1 PC 0xC0 MSTORE8 LOG0 PUSH28 0xF94E7D32953EE480B64475F010888A18BF3EAB36184AD49A64A06473 PUSH16 0x6C634300081A00336080604052348015 PUSH1 0xE JUMPI PUSH0 DUP1 REVERT JUMPDEST POP PUSH2 0x8AA DUP1 PUSH2 0x1C PUSH0 CODECOPY PUSH0 RETURN INVALID PUSH1 0x80 PUSH1 0x40 MSTORE CALLVALUE DUP1 ISZERO PUSH2 0xF JUMPI PUSH0 DUP1 REVERT JUMPDEST POP PUSH1 0x4 CALLDATASIZE LT PUSH2 0x3F JUMPI PUSH0 CALLDATALOAD PUSH1 0xE0 SHR DUP1 PUSH4 0xE1CB0E52 EQ PUSH2 0x43 JUMPI DUP1 PUSH4 0xF1C3BA0E EQ PUSH2 0x64 JUMPI DUP1 PUSH4 0xF714FC1F EQ PUSH2 0x80 JUMPI JUMPDEST PUSH0 DUP1 REVERT JUMPDEST PUSH2 0x4B PUSH2 0x9C JUMP JUMPDEST PUSH1 0x40 MLOAD PUSH2 0x5B SWAP5 SWAP4 SWAP3 SWAP2 SWAP1 PUSH2 0x31C JUMP JUMPDEST PUSH1 0x40 MLOAD DUP1 SWAP2 SUB SWAP1 RETURN JUMPDEST PUSH2 0x7E PUSH1 0x4 DUP1 CALLDATASIZE SUB DUP2 ADD SWAP1 PUSH2 0x79 SWAP2 SWAP1 PUSH2 0x4B1 JUMP JUMPDEST PUSH2 0x256 JUMP JUMPDEST STOP JUMPDEST PUSH2 0x9A PUSH1 0x4 DUP1 CALLDATASIZE SUB DUP2 ADD SWAP1 PUSH2 0x95 SWAP2 SWAP1 PUSH2 0x551 JUMP JUMPDEST PUSH2 0x27A JUMP JUMPDEST STOP JUMPDEST PUSH0 PUSH1 0x60 DUP1 PUSH1 0x60 PUSH0 SLOAD PUSH1 0x1 PUSH1 0x2 PUSH1 0x3 DUP3 DUP1 SLOAD PUSH2 0xB6 SWAP1 PUSH2 0x5D8 JUMP JUMPDEST DUP1 PUSH1 0x1F ADD PUSH1 0x20 DUP1 SWAP2 DIV MUL PUSH1 0x20 ADD PUSH1 0x40 MLOAD SWAP1 DUP2 ADD PUSH1 0x40 MSTORE DUP1 SWAP3 SWAP2 SWAP1 DUP2 DUP2 MSTORE PUSH1 0x20 ADD DUP3 DUP1 SLOAD PUSH2 0xE2 SWAP1 PUSH2 0x5D8 JUMP JUMPDEST DUP1 ISZERO PUSH2 0x12D JUMPI DUP1 PUSH1 0x1F LT PUSH2 0x104 JUMPI PUSH2 0x100 DUP1 DUP4 SLOAD DIV MUL DUP4 MSTORE SWAP2 PUSH1 0x20 ADD SWAP2 PUSH2 0x12D JUMP JUMPDEST DUP3 ADD SWAP2 SWAP1 PUSH0 MSTORE PUSH1 0x20 PUSH0 KECCAK256 SWAP1 JUMPDEST DUP2 SLOAD DUP2 MSTORE SWAP1 PUSH1 0x1 ADD SWAP1 PUSH1 0x20 ADD DUP1 DUP4 GT PUSH2 0x110 JUMPI DUP3 SWAP1 SUB PUSH1 0x1F AND DUP3 ADD SWAP2 JUMPDEST POP POP POP POP POP SWAP3 POP DUP2 DUP1 SLOAD PUSH2 0x140 SWAP1 PUSH2 0x5D8 JUMP JUMPDEST DUP1 PUSH1 0x1F ADD PUSH1 0x20 DUP1 SWAP2 DIV MUL PUSH1 0x20 ADD PUSH1 0x40 MLOAD SWAP1 DUP2 ADD PUSH1 0x40 MSTORE DUP1 SWAP3 SWAP2 SWAP1 DUP2 DUP2 MSTORE PUSH1 0x20 ADD DUP3 DUP1 SLOAD PUSH2 0x16C SWAP1 PUSH2 0x5D8 JUMP JUMPDEST DUP1 ISZERO PUSH2 0x1B7 JUMPI DUP1 PUSH1 0x1F LT PUSH2 0x18E JUMPI PUSH2 0x100 DUP1 DUP4 SLOAD DIV MUL DUP4 MSTORE SWAP2 PUSH1 0x20 ADD SWAP2 PUSH2 0x1B7 JUMP JUMPDEST DUP3 ADD SWAP2 SWAP1 PUSH0 MSTORE PUSH1 0x20 PUSH0 KECCAK256 SWAP1 JUMPDEST DUP2 SLOAD DUP2 MSTORE SWAP1 PUSH1 0x1 ADD SWAP1 PUSH1 0x20 ADD DUP1 DUP4 GT PUSH2 0x19A JUMPI DUP3 SWAP1 SUB PUSH1 0x1F AND DUP3 ADD SWAP2 JUMPDEST POP POP POP POP POP SWAP2 POP DUP1 DUP1 SLOAD PUSH2 0x1CA SWAP1 PUSH2 0x5D8 JUMP JUMPDEST DUP1 PUSH1 0x1F ADD PUSH1 0x20 DUP1 SWAP2 DIV MUL PUSH1 0x20 ADD PUSH1 0x40 MLOAD SWAP1 DUP2 ADD PUSH1 0x40 MSTORE DUP1 SWAP3 SWAP2 SWAP1 DUP2 DUP2 MSTORE PUSH1 0x20 ADD DUP3 DUP1 SLOAD PUSH2 0x1F6 SWAP1 PUSH2 0x5D8 JUMP JUMPDEST DUP1 ISZERO PUSH2 0x241 JUMPI DUP1 PUSH1 0x1F LT PUSH2 0x218 JUMPI PUSH2 0x100 DUP1 DUP4 SLOAD DIV MUL DUP4 MSTORE SWAP2 PUSH1 0x20 ADD SWAP2 PUSH2 0x241 JUMP JUMPDEST DUP3 ADD SWAP2 SWAP1 PUSH0 MSTORE PUSH1 0x20 PUSH0 KECCAK256 SWAP1 JUMPDEST DUP2 SLOAD DUP2 MSTORE SWAP1 PUSH1 0x1 ADD SWAP1 PUSH1 0x20 ADD DUP1 DUP4 GT PUSH2 0x224 JUMPI DUP3 SWAP1 SUB PUSH1 0x1F AND DUP3 ADD SWAP2 JUMPDEST POP POP POP POP POP SWAP1 POP SWAP4 POP SWAP4 POP SWAP4 POP SWAP4 POP SWAP1 SWAP2 SWAP3 SWAP4 JUMP JUMPDEST DUP2 PUSH1 0x2 SWAP1 DUP2 PUSH2 0x265 SWAP2 SWAP1 PUSH2 0x7A5 JUMP JUMPDEST POP DUP1 PUSH1 0x3 SWAP1 DUP2 PUSH2 0x275 SWAP2 SWAP1 PUSH2 0x7A5 JUMP JUMPDEST POP POP POP JUMP JUMPDEST DUP2 PUSH0 DUP2 SWAP1 SSTORE POP DUP1 PUSH1 0x1 SWAP1 DUP2 PUSH2 0x28F SWAP2 SWAP1 PUSH2 0x7A5 JUMP JUMPDEST POP POP POP JUMP JUMPDEST PUSH0 DUP2 SWAP1 POP SWAP2 SWAP1 POP JUMP JUMPDEST PUSH2 0x2A6 DUP2 PUSH2 0x294 JUMP JUMPDEST DUP3 MSTORE POP POP JUMP JUMPDEST PUSH0 DUP2 MLOAD SWAP1 POP SWAP2 SWAP1 POP JUMP JUMPDEST PUSH0 DUP3 DUP3 MSTORE PUSH1 0x20 DUP3 ADD SWAP1 POP SWAP3 SWAP2 POP POP JUMP JUMPDEST DUP3 DUP2 DUP4 MCOPY PUSH0 DUP4 DUP4 ADD MSTORE POP POP POP JUMP JUMPDEST PUSH0 PUSH1 0x1F NOT PUSH1 0x1F DUP4 ADD AND SWAP1 POP SWAP2 SWAP1 POP JUMP JUMPDEST PUSH0 PUSH2 0x2EE DUP3 PUSH2 0x2AC JUMP JUMPDEST PUSH2 0x2F8 DUP2 DUP6 PUSH2 0x2B6 JUMP JUMPDEST SWAP4 POP PUSH2 0x308 DUP2 DUP6 PUSH1 0x20 DUP7 ADD PUSH2 0x2C6 JUMP JUMPDEST PUSH2 0x311 DUP2 PUSH2 0x2D4 JUMP JUMPDEST DUP5 ADD SWAP2 POP POP SWAP3 SWAP2 POP POP JUMP JUMPDEST PUSH0 PUSH1 0x80 DUP3 ADD SWAP1 POP PUSH2 0x32F PUSH0 DUP4 ADD DUP8 PUSH2 0x29D JUMP JUMPDEST DUP2 DUP2 SUB PUSH1 0x20 DUP4 ADD MSTORE PUSH2 0x341 DUP2 DUP7 PUSH2 0x2E4 JUMP JUMPDEST SWAP1 POP DUP2 DUP2 SUB PUSH1 0x40 DUP4 ADD MSTORE PUSH2 0x355 DUP2 DUP6 PUSH2 0x2E4 JUMP JUMPDEST SWAP1 POP DUP2 DUP2 SUB PUSH1 0x60 DUP4 ADD MSTORE PUSH2 0x369 DUP2 DUP5 PUSH2 0x2E4 JUMP JUMPDEST SWAP1 POP SWAP6 SWAP5 POP POP POP POP POP JUMP JUMPDEST PUSH0 PUSH1 0x40 MLOAD SWAP1 POP SWAP1 JUMP JUMPDEST PUSH0 DUP1 REVERT JUMPDEST PUSH0 DUP1 REVERT JUMPDEST PUSH0 DUP1 REVERT JUMPDEST PUSH0 DUP1 REVERT JUMPDEST PUSH32 0x4E487B7100000000000000000000000000000000000000000000000000000000 PUSH0 MSTORE PUSH1 0x41 PUSH1 0x4 MSTORE PUSH1 0x24 PUSH0 REVERT JUMPDEST PUSH2 0x3C3 DUP3 PUSH2 0x2D4 JUMP JUMPDEST DUP2 ADD DUP2 DUP2 LT PUSH8 0xFFFFFFFFFFFFFFFF DUP3 GT OR ISZERO PUSH2 0x3E2 JUMPI PUSH2 0x3E1 PUSH2 0x38D JUMP JUMPDEST JUMPDEST DUP1 PUSH1 0x40 MSTORE POP POP POP JUMP JUMPDEST PUSH0 PUSH2 0x3F4 PUSH2 0x374 JUMP JUMPDEST SWAP1 POP PUSH2 0x400 DUP3 DUP3 PUSH2 0x3BA JUMP JUMPDEST SWAP2 SWAP1 POP JUMP JUMPDEST PUSH0 PUSH8 0xFFFFFFFFFFFFFFFF DUP3 GT ISZERO PUSH2 0x41F JUMPI PUSH2 0x41E PUSH2 0x38D JUMP JUMPDEST JUMPDEST PUSH2 0x428 DUP3 PUSH2 0x2D4 JUMP JUMPDEST SWAP1 POP PUSH1 0x20 DUP2 ADD SWAP1 POP SWAP2 SWAP1 POP JUMP JUMPDEST DUP3 DUP2 DUP4 CALLDATACOPY PUSH0 DUP4 DUP4 ADD MSTORE POP POP POP JUMP JUMPDEST PUSH0 PUSH2 0x455 PUSH2 0x450 DUP5 PUSH2 0x405 JUMP JUMPDEST PUSH2 0x3EB JUMP JUMPDEST SWAP1 POP DUP3 DUP2 MSTORE PUSH1 0x20 DUP2 ADD DUP5 DUP5 DUP5 ADD GT ISZERO PUSH2 0x471 JUMPI PUSH2 0x470 PUSH2 0x389 JUMP JUMPDEST JUMPDEST PUSH2 0x47C DUP5 DUP3 DUP6 PUSH2 0x435 JUMP JUMPDEST POP SWAP4 SWAP3 POP POP POP JUMP JUMPDEST PUSH0 DUP3 PUSH1 0x1F DUP4 ADD SLT PUSH2 0x498 JUMPI PUSH2 0x497 PUSH2 0x385 JUMP JUMPDEST JUMPDEST DUP2 CALLDATALOAD PUSH2 0x4A8 DUP5 DUP3 PUSH1 0x20 DUP7 ADD PUSH2 0x443 JUMP JUMPDEST SWAP2 POP POP SWAP3 SWAP2 POP POP JUMP JUMPDEST PUSH0 DUP1 PUSH1 0x40 DUP4 DUP6 SUB SLT ISZERO PUSH2 0x4C7 JUMPI PUSH2 0x4C6 PUSH2 0x37D JUMP JUMPDEST JUMPDEST PUSH0 DUP4 ADD CALLDATALOAD PUSH8 0xFFFFFFFFFFFFFFFF DUP2 GT ISZERO PUSH2 0x4E4 JUMPI PUSH2 0x4E3 PUSH2 0x381 JUMP JUMPDEST JUMPDEST PUSH2 0x4F0 DUP6 DUP3 DUP7 ADD PUSH2 0x484 JUMP JUMPDEST SWAP3 POP POP PUSH1 0x20 DUP4 ADD CALLDATALOAD PUSH8 0xFFFFFFFFFFFFFFFF DUP2 GT ISZERO PUSH2 0x511 JUMPI PUSH2 0x510 PUSH2 0x381 JUMP JUMPDEST JUMPDEST PUSH2 0x51D DUP6 DUP3 DUP7 ADD PUSH2 0x484 JUMP JUMPDEST SWAP2 POP POP SWAP3 POP SWAP3 SWAP1 POP JUMP JUMPDEST PUSH2 0x530 DUP2 PUSH2 0x294 JUMP JUMPDEST DUP2 EQ PUSH2 0x53A JUMPI PUSH0 DUP1 REVERT JUMPDEST POP JUMP JUMPDEST PUSH0 DUP2 CALLDATALOAD SWAP1 POP PUSH2 0x54B DUP2 PUSH2 0x527 JUMP JUMPDEST SWAP3 SWAP2 POP POP JUMP JUMPDEST PUSH0 DUP1 PUSH1 0x40 DUP4 DUP6 SUB SLT ISZERO PUSH2 0x567 JUMPI PUSH2 0x566 PUSH2 0x37D JUMP JUMPDEST JUMPDEST PUSH0 PUSH2 0x574 DUP6 DUP3 DUP7 ADD PUSH2 0x53D JUMP JUMPDEST SWAP3 POP POP PUSH1 0x20 DUP4 ADD CALLDATALOAD PUSH8 0xFFFFFFFFFFFFFFFF DUP2 GT ISZERO PUSH2 0x595 JUMPI PUSH2 0x594 PUSH2 0x381 JUMP JUMPDEST JUMPDEST PUSH2 0x5A1 DUP6 DUP3 DUP7 ADD PUSH2 0x484 JUMP JUMPDEST SWAP2 POP POP SWAP3 POP SWAP3 SWAP1 POP JUMP JUMPDEST PUSH32 0x4E487B7100000000000000000000000000000000000000000000000000000000 PUSH0 MSTORE PUSH1 0x22 PUSH1 0x4 MSTORE PUSH1 0x24 PUSH0 REVERT JUMPDEST PUSH0 PUSH1 0x2 DUP3 DIV SWAP1 POP PUSH1 0x1 DUP3 AND DUP1 PUSH2 0x5EF JUMPI PUSH1 0x7F DUP3 AND SWAP2 POP JUMPDEST PUSH1 0x20 DUP3 LT DUP2 SUB PUSH2 0x602 JUMPI PUSH2 0x601 PUSH2 0x5AB JUMP JUMPDEST JUMPDEST POP SWAP2 SWAP1 POP JUMP JUMPDEST PUSH0 DUP2 SWAP1 POP DUP2 PUSH0 MSTORE PUSH1 0x20 PUSH0 KECCAK256 SWAP1 POP SWAP2 SWAP1 POP JUMP JUMPDEST PUSH0 PUSH1 0x20 PUSH1 0x1F DUP4 ADD DIV SWAP1 POP SWAP2 SWAP1 POP JUMP JUMPDEST PUSH0 DUP3 DUP3 SHL SWAP1 POP SWAP3 SWAP2 POP POP JUMP JUMPDEST PUSH0 PUSH1 0x8 DUP4 MUL PUSH2 0x664 PUSH32 0xFFFFFFFFFFFFFFFFFFFFFFFFFFFFFFFFFFFFFFFFFFFFFFFFFFFFFFFFFFFFFFFF DUP3 PUSH2 0x629 JUMP JUMPDEST PUSH2 0x66E DUP7 DUP4 PUSH2 0x629 JUMP JUMPDEST SWAP6 POP DUP1 NOT DUP5 AND SWAP4 POP DUP1 DUP7 AND DUP5 OR SWAP3 POP POP POP SWAP4 SWAP3 POP POP POP JUMP JUMPDEST PUSH0 DUP2 SWAP1 POP SWAP2 SWAP1 POP JUMP JUMPDEST PUSH0 PUSH2 0x6A9 PUSH2 0x6A4 PUSH2 0x69F DUP5 PUSH2 0x294 JUMP JUMPDEST PUSH2 0x686 JUMP JUMPDEST PUSH2 0x294 JUMP JUMPDEST SWAP1 POP SWAP2 SWAP1 POP JUMP JUMPDEST PUSH0 DUP2 SWAP1 POP SWAP2 SWAP1 POP JUMP JUMPDEST PUSH2 0x6C2 DUP4 PUSH2 0x68F JUMP JUMPDEST PUSH2 0x6D6 PUSH2 0x6CE DUP3 PUSH2 0x6B0 JUMP JUMPDEST DUP5 DUP5 SLOAD PUSH2 0x635 JUMP JUMPDEST DUP3 SSTORE POP POP POP POP JUMP JUMPDEST PUSH0 SWAP1 JUMP JUMPDEST PUSH2 0x6EA PUSH2 0x6DE JUMP JUMPDEST PUSH2 0x6F5 DUP2 DUP5 DUP5 PUSH2 0x6B9 JUMP JUMPDEST POP POP POP JUMP JUMPDEST JUMPDEST DUP2 DUP2 LT ISZERO PUSH2 0x718 JUMPI PUSH2 0x70D PUSH0 DUP3 PUSH2 0x6E2 JUMP JUMPDEST PUSH1 0x1 DUP2 ADD SWAP1 POP PUSH2 0x6FB JUMP JUMPDEST POP POP JUMP JUMPDEST PUSH1 0x1F DUP3 GT ISZERO PUSH2 0x75D JUMPI PUSH2 0x72E DUP2 PUSH2 0x608 JUMP JUMPDEST PUSH2 0x737 DUP5 PUSH2 0x61A JUMP JUMPDEST DUP2 ADD PUSH1 0x20 DUP6 LT ISZERO PUSH2 0x746 JUMPI DUP2 SWAP1 POP JUMPDEST PUSH2 0x75A PUSH2 0x752 DUP6 PUSH2 0x61A JUMP JUMPDEST DUP4 ADD DUP3 PUSH2 0x6FA JUMP JUMPDEST POP POP JUMPDEST POP POP POP JUMP JUMPDEST PUSH0 DUP3 DUP3 SHR SWAP1 POP SWAP3 SWAP2 POP POP JUMP JUMPDEST PUSH0 PUSH2 0x77D PUSH0 NOT DUP5 PUSH1 0x8 MUL PUSH2 0x762 JUMP JUMPDEST NOT DUP1 DUP4 AND SWAP2 POP POP SWAP3 SWAP2 POP POP JUMP JUMPDEST PUSH0 PUSH2 0x795 DUP4 DUP4 PUSH2 0x76E JUMP JUMPDEST SWAP2 POP DUP3 PUSH1 0x2 MUL DUP3 OR SWAP1 POP SWAP3 SWAP2 POP POP JUMP JUMPDEST PUSH2 0x7AE DUP3 PUSH2 0x2AC JUMP JUMPDEST PUSH8 0xFFFFFFFFFFFFFFFF DUP2 GT ISZERO PUSH2 0x7C7 JUMPI PUSH2 0x7C6 PUSH2 0x38D JUMP JUMPDEST JUMPDEST PUSH2 0x7D1 DUP3 SLOAD PUSH2 0x5D8 JUMP JUMPDEST PUSH2 0x7DC DUP3 DUP3 DUP6 PUSH2 0x71C JUMP JUMPDEST PUSH0 PUSH1 0x20 SWAP1 POP PUSH1 0x1F DUP4 GT PUSH1 0x1 DUP2 EQ PUSH2 0x80D JUMPI PUSH0 DUP5 ISZERO PUSH2 0x7FB JUMPI DUP3 DUP8 ADD MLOAD SWAP1 POP JUMPDEST PUSH2 0x805 DUP6 DUP3 PUSH2 0x78A JUMP JUMPDEST DUP7 SSTORE POP PUSH2 0x86C JUMP JUMPDEST PUSH1 0x1F NOT DUP5 AND PUSH2 0x81B DUP7 PUSH2 0x608 JUMP JUMPDEST PUSH0 JUMPDEST DUP3 DUP2 LT ISZERO PUSH2 0x842 JUMPI DUP5 DUP10 ADD MLOAD DUP3 SSTORE PUSH1 0x1 DUP3 ADD SWAP2 POP PUSH1 0x20 DUP6 ADD SWAP5 POP PUSH1 0x20 DUP2 ADD SWAP1 POP PUSH2 0x81D JUMP JUMPDEST DUP7 DUP4 LT ISZERO PUSH2 0x85F JUMPI DUP5 DUP10 ADD MLOAD PUSH2 0x85B PUSH1 0x1F DUP10 AND DUP3 PUSH2 0x76E JUMP JUMPDEST DUP4 SSTORE POP JUMPDEST PUSH1 0x1 PUSH1 0x2 DUP9 MUL ADD DUP9 SSTORE POP POP POP JUMPDEST POP POP POP POP POP POP JUMP INVALID LOG2 PUSH5 0x6970667358 0x22 SLT KECCAK256 CODESIZE 0xC6 DUP10 SHL PUSH6 0xBEB4A1309130 PUSH28 0x35AD9BE8D8047D3EED14E7E68FC0507DAEA1CD6564736F6C63430008 BYTE STOP CALLER PUSH1 0x80 PUSH1 0x40 MSTORE CALLVALUE DUP1 ISZERO PUSH1 0xE JUMPI PUSH0 DUP1 REVERT JUMPDEST POP PUSH2 0x8AA DUP1 PUSH2 0x1C PUSH0 CODECOPY PUSH0 RETURN INVALID PUSH1 0x80 PUSH1 0x40 MSTORE CALLVALUE DUP1 ISZERO PUSH2 0xF JUMPI PUSH0 DUP1 REVERT JUMPDEST POP PUSH1 0x4 CALLDATASIZE LT PUSH2 0x3F JUMPI PUSH0 CALLDATALOAD PUSH1 0xE0 SHR DUP1 PUSH4 0xE1CB0E52 EQ PUSH2 0x43 JUMPI DUP1 PUSH4 0xF1C3BA0E EQ PUSH2 0x64 JUMPI DUP1 PUSH4 0xF714FC1F EQ PUSH2 0x80 JUMPI JUMPDEST PUSH0 DUP1 REVERT JUMPDEST PUSH2 0x4B PUSH2 0x9C JUMP JUMPDEST PUSH1 0x40 MLOAD PUSH2 0x5B SWAP5 SWAP4 SWAP3 SWAP2 SWAP1 PUSH2 0x31C JUMP JUMPDEST PUSH1 0x40 MLOAD DUP1 SWAP2 SUB SWAP1 RETURN JUMPDEST PUSH2 0x7E PUSH1 0x4 DUP1 CALLDATASIZE SUB DUP2 ADD SWAP1 PUSH2 0x79 SWAP2 SWAP1 PUSH2 0x4B1 JUMP JUMPDEST PUSH2 0x256 JUMP JUMPDEST STOP JUMPDEST PUSH2 0x9A PUSH1 0x4 DUP1 CALLDATASIZE SUB DUP2 ADD SWAP1 PUSH2 0x95 SWAP2 SWAP1 PUSH2 0x551 JUMP JUMPDEST PUSH2 0x27A JUMP JUMPDEST STOP JUMPDEST PUSH0 PUSH1 0x60 DUP1 PUSH1 0x60 PUSH0 SLOAD PUSH1 0x1 PUSH1 0x2 PUSH1 0x3 DUP3 DUP1 SLOAD PUSH2 0xB6 SWAP1 PUSH2 0x5D8 JUMP JUMPDEST DUP1 PUSH1 0x1F ADD PUSH1 0x20 DUP1 SWAP2 DIV MUL PUSH1 0x20 ADD PUSH1 0x40 MLOAD SWAP1 DUP2 ADD PUSH1 0x40 MSTORE DUP1 SWAP3 SWAP2 SWAP1 DUP2 DUP2 MSTORE PUSH1 0x20 ADD DUP3 DUP1 SLOAD PUSH2 0xE2 SWAP1 PUSH2 0x5D8 JUMP JUMPDEST DUP1 ISZERO PUSH2 0x12D JUMPI DUP1 PUSH1 0x1F LT PUSH2 0x104 JUMPI PUSH2 0x100 DUP1 DUP4 SLOAD DIV MUL DUP4 MSTORE SWAP2 PUSH1 0x20 ADD SWAP2 PUSH2 0x12D JUMP JUMPDEST DUP3 ADD SWAP2 SWAP1 PUSH0 MSTORE PUSH1 0x20 PUSH0 KECCAK256 SWAP1 JUMPDEST DUP2 SLOAD DUP2 MSTORE SWAP1 PUSH1 0x1 ADD SWAP1 PUSH1 0x20 ADD DUP1 DUP4 GT PUSH2 0x110 JUMPI DUP3 SWAP1 SUB PUSH1 0x1F AND DUP3 ADD SWAP2 JUMPDEST POP POP POP POP POP SWAP3 POP DUP2 DUP1 SLOAD PUSH2 0x140 SWAP1 PUSH2 0x5D8 JUMP JUMPDEST DUP1 PUSH1 0x1F ADD PUSH1 0x20 DUP1 SWAP2 DIV MUL PUSH1 0x20 ADD PUSH1 0x40 MLOAD SWAP1 DUP2 ADD PUSH1 0x40 MSTORE DUP1 SWAP3 SWAP2 SWAP1 DUP2 DUP2 MSTORE PUSH1 0x20 ADD DUP3 DUP1 SLOAD PUSH2 0x16C SWAP1 PUSH2 0x5D8 JUMP JUMPDEST DUP1 ISZERO PUSH2 0x1B7 JUMPI DUP1 PUSH1 0x1F LT PUSH2 0x18E JUMPI PUSH2 0x100 DUP1 DUP4 SLOAD DIV MUL DUP4 MSTORE SWAP2 PUSH1 0x20 ADD SWAP2 PUSH2 0x1B7 JUMP JUMPDEST DUP3 ADD SWAP2 SWAP1 PUSH0 MSTORE PUSH1 0x20 PUSH0 KECCAK256 SWAP1 JUMPDEST DUP2 SLOAD DUP2 MSTORE SWAP1 PUSH1 0x1 ADD SWAP1 PUSH1 0x20 ADD DUP1 DUP4 GT PUSH2 0x19A JUMPI DUP3 SWAP1 SUB PUSH1 0x1F AND DUP3 ADD SWAP2 JUMPDEST POP POP POP POP POP SWAP2 POP DUP1 DUP1 SLOAD PUSH2 0x1CA SWAP1 PUSH2 0x5D8 JUMP JUMPDEST DUP1 PUSH1 0x1F ADD PUSH1 0x20 DUP1 SWAP2 DIV MUL PUSH1 0x20 ADD PUSH1 0x40 MLOAD SWAP1 DUP2 ADD PUSH1 0x40 MSTORE DUP1 SWAP3 SWAP2 SWAP1 DUP2 DUP2 MSTORE PUSH1 0x20 ADD DUP3 DUP1 SLOAD PUSH2 0x1F6 SWAP1 PUSH2 0x5D8 JUMP JUMPDEST DUP1 ISZERO PUSH2 0x241 JUMPI DUP1 PUSH1 0x1F LT PUSH2 0x218 JUMPI PUSH2 0x100 DUP1 DUP4 SLOAD DIV MUL DUP4 MSTORE SWAP2 PUSH1 0x20 ADD SWAP2 PUSH2 0x241 JUMP JUMPDEST DUP3 ADD SWAP2 SWAP1 PUSH0 MSTORE PUSH1 0x20 PUSH0 KECCAK256 SWAP1 JUMPDEST DUP2 SLOAD DUP2 MSTORE SWAP1 PUSH1 0x1 ADD SWAP1 PUSH1 0x20 ADD DUP1 DUP4 GT PUSH2 0x224 JUMPI DUP3 SWAP1 SUB PUSH1 0x1F AND DUP3 ADD SWAP2 JUMPDEST POP POP POP POP POP SWAP1 POP SWAP4 POP SWAP4 POP SWAP4 POP SWAP4 POP SWAP1 SWAP2 SWAP3 SWAP4 JUMP JUMPDEST DUP2 PUSH1 0x2 SWAP1 DUP2 PUSH2 0x265 SWAP2 SWAP1 PUSH2 0x7A5 JUMP JUMPDEST POP DUP1 PUSH1 0x3 SWAP1 DUP2 PUSH2 0x275 SWAP2 SWAP1 PUSH2 0x7A5 JUMP JUMPDEST POP POP POP JUMP JUMPDEST DUP2 PUSH0 DUP2 SWAP1 SSTORE POP DUP1 PUSH1 0x1 SWAP1 DUP2 PUSH2 0x28F SWAP2 SWAP1 PUSH2 0x7A5 JUMP JUMPDEST POP POP POP JUMP JUMPDEST PUSH0 DUP2 SWAP1 POP SWAP2 SWAP1 POP JUMP JUMPDEST PUSH2 0x2A6 DUP2 PUSH2 0x294 JUMP JUMPDEST DUP3 MSTORE POP POP JUMP JUMPDEST PUSH0 DUP2 MLOAD SWAP1 POP SWAP2 SWAP1 POP JUMP JUMPDEST PUSH0 DUP3 DUP3 MSTORE PUSH1 0x20 DUP3 ADD SWAP1 POP SWAP3 SWAP2 POP POP JUMP JUMPDEST DUP3 DUP2 DUP4 MCOPY PUSH0 DUP4 DUP4 ADD MSTORE POP POP POP JUMP JUMPDEST PUSH0 PUSH1 0x1F NOT PUSH1 0x1F DUP4 ADD AND SWAP1 POP SWAP2 SWAP1 POP JUMP JUMPDEST PUSH0 PUSH2 0x2EE DUP3 PUSH2 0x2AC JUMP JUMPDEST PUSH2 0x2F8 DUP2 DUP6 PUSH2 0x2B6 JUMP JUMPDEST SWAP4 POP PUSH2 0x308 DUP2 DUP6 PUSH1 0x20 DUP7 ADD PUSH2 0x2C6 JUMP JUMPDEST PUSH2 0x311 DUP2 PUSH2 0x2D4 JUMP JUMPDEST DUP5 ADD SWAP2 POP POP SWAP3 SWAP2 POP POP JUMP JUMPDEST PUSH0 PUSH1 0x80 DUP3 ADD SWAP1 POP PUSH2 0x32F PUSH0 DUP4 ADD DUP8 PUSH2 0x29D JUMP JUMPDEST DUP2 DUP2 SUB PUSH1 0x20 DUP4 ADD MSTORE PUSH2 0x341 DUP2 DUP7 PUSH2 0x2E4 JUMP JUMPDEST SWAP1 POP DUP2 DUP2 SUB PUSH1 0x40 DUP4 ADD MSTORE PUSH2 0x355 DUP2 DUP6 PUSH2 0x2E4 JUMP JUMPDEST SWAP1 POP DUP2 DUP2 SUB PUSH1 0x60 DUP4 ADD MSTORE PUSH2 0x369 DUP2 DUP5 PUSH2 0x2E4 JUMP JUMPDEST SWAP1 POP SWAP6 SWAP5 POP POP POP POP POP JUMP JUMPDEST PUSH0 PUSH1 0x40 MLOAD SWAP1 POP SWAP1 JUMP JUMPDEST PUSH0 DUP1 REVERT JUMPDEST PUSH0 DUP1 REVERT JUMPDEST PUSH0 DUP1 REVERT JUMPDEST PUSH0 DUP1 REVERT JUMPDEST PUSH32 0x4E487B7100000000000000000000000000000000000000000000000000000000 PUSH0 MSTORE PUSH1 0x41 PUSH1 0x4 MSTORE PUSH1 0x24 PUSH0 REVERT JUMPDEST PUSH2 0x3C3 DUP3 PUSH2 0x2D4 JUMP JUMPDEST DUP2 ADD DUP2 DUP2 LT PUSH8 0xFFFFFFFFFFFFFFFF DUP3 GT OR ISZERO PUSH2 0x3E2 JUMPI PUSH2 0x3E1 PUSH2 0x38D JUMP JUMPDEST JUMPDEST DUP1 PUSH1 0x40 MSTORE POP POP POP JUMP JUMPDEST PUSH0 PUSH2 0x3F4 PUSH2 0x374 JUMP JUMPDEST SWAP1 POP PUSH2 0x400 DUP3 DUP3 PUSH2 0x3BA JUMP JUMPDEST SWAP2 SWAP1 POP JUMP JUMPDEST PUSH0 PUSH8 0xFFFFFFFFFFFFFFFF DUP3 GT ISZERO PUSH2 0x41F JUMPI PUSH2 0x41E PUSH2 0x38D JUMP JUMPDEST JUMPDEST PUSH2 0x428 DUP3 PUSH2 0x2D4 JUMP JUMPDEST SWAP1 POP PUSH1 0x20 DUP2 ADD SWAP1 POP SWAP2 SWAP1 POP JUMP JUMPDEST DUP3 DUP2 DUP4 CALLDATACOPY PUSH0 DUP4 DUP4 ADD MSTORE POP POP POP JUMP JUMPDEST PUSH0 PUSH2 0x455 PUSH2 0x450 DUP5 PUSH2 0x405 JUMP JUMPDEST PUSH2 0x3EB JUMP JUMPDEST SWAP1 POP DUP3 DUP2 MSTORE PUSH1 0x20 DUP2 ADD DUP5 DUP5 DUP5 ADD GT ISZERO PUSH2 0x471 JUMPI PUSH2 0x470 PUSH2 0x389 JUMP JUMPDEST JUMPDEST PUSH2 0x47C DUP5 DUP3 DUP6 PUSH2 0x435 JUMP JUMPDEST POP SWAP4 SWAP3 POP POP POP JUMP JUMPDEST PUSH0 DUP3 PUSH1 0x1F DUP4 ADD SLT PUSH2 0x498 JUMPI PUSH2 0x497 PUSH2 0x385 JUMP JUMPDEST JUMPDEST DUP2 CALLDATALOAD PUSH2 0x4A8 DUP5 DUP3 PUSH1 0x20 DUP7 ADD PUSH2 0x443 JUMP JUMPDEST SWAP2 POP POP SWAP3 SWAP2 POP POP JUMP JUMPDEST PUSH0 DUP1 PUSH1 0x40 DUP4 DUP6 SUB SLT ISZERO PUSH2 0x4C7 JUMPI PUSH2 0x4C6 PUSH2 0x37D JUMP JUMPDEST JUMPDEST PUSH0 DUP4 ADD CALLDATALOAD PUSH8 0xFFFFFFFFFFFFFFFF DUP2 GT ISZERO PUSH2 0x4E4 JUMPI PUSH2 0x4E3 PUSH2 0x381 JUMP JUMPDEST JUMPDEST PUSH2 0x4F0 DUP6 DUP3 DUP7 ADD PUSH2 0x484 JUMP JUMPDEST SWAP3 POP POP PUSH1 0x20 DUP4 ADD CALLDATALOAD PUSH8 0xFFFFFFFFFFFFFFFF DUP2 GT ISZERO PUSH2 0x511 JUMPI PUSH2 0x510 PUSH2 0x381 JUMP JUMPDEST JUMPDEST PUSH2 0x51D DUP6 DUP3 DUP7 ADD PUSH2 0x484 JUMP JUMPDEST SWAP2 POP POP SWAP3 POP SWAP3 SWAP1 POP JUMP JUMPDEST PUSH2 0x530 DUP2 PUSH2 0x294 JUMP JUMPDEST DUP2 EQ PUSH2 0x53A JUMPI PUSH0 DUP1 REVERT JUMPDEST POP JUMP JUMPDEST PUSH0 DUP2 CALLDATALOAD SWAP1 POP PUSH2 0x54B DUP2 PUSH2 0x527 JUMP JUMPDEST SWAP3 SWAP2 POP POP JUMP JUMPDEST PUSH0 DUP1 PUSH1 0x40 DUP4 DUP6 SUB SLT ISZERO PUSH2 0x567 JUMPI PUSH2 0x566 PUSH2 0x37D JUMP JUMPDEST JUMPDEST PUSH0 PUSH2 0x574 DUP6 DUP3 DUP7 ADD PUSH2 0x53D JUMP JUMPDEST SWAP3 POP POP PUSH1 0x20 DUP4 ADD CALLDATALOAD PUSH8 0xFFFFFFFFFFFFFFFF DUP2 GT ISZERO PUSH2 0x595 JUMPI PUSH2 0x594 PUSH2 0x381 JUMP JUMPDEST JUMPDEST PUSH2 0x5A1 DUP6 DUP3 DUP7 ADD PUSH2 0x484 JUMP JUMPDEST SWAP2 POP POP SWAP3 POP SWAP3 SWAP1 POP JUMP JUMPDEST PUSH32 0x4E487B7100000000000000000000000000000000000000000000000000000000 PUSH0 MSTORE PUSH1 0x22 PUSH1 0x4 MSTORE PUSH1 0x24 PUSH0 REVERT JUMPDEST PUSH0 PUSH1 0x2 DUP3 DIV SWAP1 POP PUSH1 0x1 DUP3 AND DUP1 PUSH2 0x5EF JUMPI PUSH1 0x7F DUP3 AND SWAP2 POP JUMPDEST PUSH1 0x20 DUP3 LT DUP2 SUB PUSH2 0x602 JUMPI PUSH2 0x601 PUSH2 0x5AB JUMP JUMPDEST JUMPDEST POP SWAP2 SWAP1 POP JUMP JUMPDEST PUSH0 DUP2 SWAP1 POP DUP2 PUSH0 MSTORE PUSH1 0x20 PUSH0 KECCAK256 SWAP1 POP SWAP2 SWAP1 POP JUMP JUMPDEST PUSH0 PUSH1 0x20 PUSH1 0x1F DUP4 ADD DIV SWAP1 POP SWAP2 SWAP1 POP JUMP JUMPDEST PUSH0 DUP3 DUP3 SHL SWAP1 POP SWAP3 SWAP2 POP POP JUMP JUMPDEST PUSH0 PUSH1 0x8 DUP4 MUL PUSH2 0x664 PUSH32 0xFFFFFFFFFFFFFFFFFFFFFFFFFFFFFFFFFFFFFFFFFFFFFFFFFFFFFFFFFFFFFFFF DUP3 PUSH2 0x629 JUMP JUMPDEST PUSH2 0x66E DUP7 DUP4 PUSH2 0x629 JUMP JUMPDEST SWAP6 POP DUP1 NOT DUP5 AND SWAP4 POP DUP1 DUP7 AND DUP5 OR SWAP3 POP POP POP SWAP4 SWAP3 POP POP POP JUMP JUMPDEST PUSH0 DUP2 SWAP1 POP SWAP2 SWAP1 POP JUMP JUMPDEST PUSH0 PUSH2 0x6A9 PUSH2 0x6A4 PUSH2 0x69F DUP5 PUSH2 0x294 JUMP JUMPDEST PUSH2 0x686 JUMP JUMPDEST PUSH2 0x294 JUMP JUMPDEST SWAP1 POP SWAP2 SWAP1 POP JUMP JUMPDEST PUSH0 DUP2 SWAP1 POP SWAP2 SWAP1 POP JUMP JUMPDEST PUSH2 0x6C2 DUP4 PUSH2 0x68F JUMP JUMPDEST PUSH2 0x6D6 PUSH2 0x6CE DUP3 PUSH2 0x6B0 JUMP JUMPDEST DUP5 DUP5 SLOAD PUSH2 0x635 JUMP JUMPDEST DUP3 SSTORE POP POP POP POP JUMP JUMPDEST PUSH0 SWAP1 JUMP JUMPDEST PUSH2 0x6EA PUSH2 0x6DE JUMP JUMPDEST PUSH2 0x6F5 DUP2 DUP5 DUP5 PUSH2 0x6B9 JUMP JUMPDEST POP POP POP JUMP JUMPDEST JUMPDEST DUP2 DUP2 LT ISZERO PUSH2 0x718 JUMPI PUSH2 0x70D PUSH0 DUP3 PUSH2 0x6E2 JUMP JUMPDEST PUSH1 0x1 DUP2 ADD SWAP1 POP PUSH2 0x6FB JUMP JUMPDEST POP POP JUMP JUMPDEST PUSH1 0x1F DUP3 GT ISZERO PUSH2 0x75D JUMPI PUSH2 0x72E DUP2 PUSH2 0x608 JUMP JUMPDEST PUSH2 0x737 DUP5 PUSH2 0x61A JUMP JUMPDEST DUP2 ADD PUSH1 0x20 DUP6 LT ISZERO PUSH2 0x746 JUMPI DUP2 SWAP1 POP JUMPDEST PUSH2 0x75A PUSH2 0x752 DUP6 PUSH2 0x61A JUMP JUMPDEST DUP4 ADD DUP3 PUSH2 0x6FA JUMP JUMPDEST POP POP JUMPDEST POP POP POP JUMP JUMPDEST PUSH0 DUP3 DUP3 SHR SWAP1 POP SWAP3 SWAP2 POP POP JUMP JUMPDEST PUSH0 PUSH2 0x77D PUSH0 NOT DUP5 PUSH1 0x8 MUL PUSH2 0x762 JUMP JUMPDEST NOT DUP1 DUP4 AND SWAP2 POP POP SWAP3 SWAP2 POP POP JUMP JUMPDEST PUSH0 PUSH2 0x795 DUP4 DUP4 PUSH2 0x76E JUMP JUMPDEST SWAP2 POP DUP3 PUSH1 0x2 MUL DUP3 OR SWAP1 POP SWAP3 SWAP2 POP POP JUMP JUMPDEST PUSH2 0x7AE DUP3 PUSH2 0x2AC JUMP JUMPDEST PUSH8 0xFFFFFFFFFFFFFFFF DUP2 GT ISZERO PUSH2 0x7C7 JUMPI PUSH2 0x7C6 PUSH2 0x38D JUMP JUMPDEST JUMPDEST PUSH2 0x7D1 DUP3 SLOAD PUSH2 0x5D8 JUMP JUMPDEST PUSH2 0x7DC DUP3 DUP3 DUP6 PUSH2 0x71C JUMP JUMPDEST PUSH0 PUSH1 0x20 SWAP1 POP PUSH1 0x1F DUP4 GT PUSH1 0x1 DUP2 EQ PUSH2 0x80D JUMPI PUSH0 DUP5 ISZERO PUSH2 0x7FB JUMPI DUP3 DUP8 ADD MLOAD SWAP1 POP JUMPDEST PUSH2 0x805 DUP6 DUP3 PUSH2 0x78A JUMP JUMPDEST DUP7 SSTORE POP PUSH2 0x86C JUMP JUMPDEST PUSH1 0x1F NOT DUP5 AND PUSH2 0x81B DUP7 PUSH2 0x608 JUMP JUMPDEST PUSH0 JUMPDEST DUP3 DUP2 LT ISZERO PUSH2 0x842 JUMPI DUP5 DUP10 ADD MLOAD DUP3 SSTORE PUSH1 0x1 DUP3 ADD SWAP2 POP PUSH1 0x20 DUP6 ADD SWAP5 POP PUSH1 0x20 DUP2 ADD SWAP1 POP PUSH2 0x81D JUMP JUMPDEST DUP7 DUP4 LT ISZERO PUSH2 0x85F JUMPI DUP5 DUP10 ADD MLOAD PUSH2 0x85B PUSH1 0x1F DUP10 AND DUP3 PUSH2 0x76E JUMP JUMPDEST DUP4 SSTORE POP JUMPDEST PUSH1 0x1 PUSH1 0x2 DUP9 MUL ADD DUP9 SSTORE POP POP POP JUMPDEST POP POP POP POP POP POP JUMP INVALID LOG2 PUSH5 0x6970667358 0x22 SLT KECCAK256 PUSH7 0x70D9FD86AA3A19 0xE0 SLT PUSH30 0xF17BFB0689D9ACCB6F404529A5BCB3130AE0643F4364736F6C634300081A STOP CALLER "
		},
		"gasEstimates": {
			"creation": {
				"codeDepositCost": "497400",
				"executionCost": "infinite",
				"totalCost": "infinite"
			},
			"external": {
				"cInherit()": "infinite",
				"dInherit()": "infinite"
			}
		},
		"methodIdentifiers": {
			"cInherit()": "4c02e88c",
			"dInherit()": "90599c02"
		}
	},
	"abi": [
		{
			"inputs": [],
			"name": "cInherit",
			"outputs": [
				{
					"internalType": "uint256",
					"name": "",
					"type": "uint256"
				},
				{
					"internalType": "string",
					"name": "",
					"type": "string"
				},
				{
					"internalType": "string",
					"name": "",
					"type": "string"
				},
				{
					"internalType": "string",
					"name": "",
					"type": "string"
				}
			],
			"stateMutability": "nonpayable",
			"type": "function"
		},
		{
			"inputs": [],
			"name": "dInherit",
			"outputs": [
				{
					"internalType": "uint256",
					"name": "",
					"type": "uint256"
				},
				{
					"internalType": "string",
					"name": "",
					"type": "string"
				},
				{
					"internalType": "string",
					"name": "",
					"type": "string"
				},
				{
					"internalType": "string",
					"name": "",
					"type": "string"
				}
			],
			"stateMutability": "nonpayable",
			"type": "function"
		}
	]
}