{
	"contracts/auction.sol": {
		"AuctionC": {
			"abi": [
				{
					"inputs": [],
					"stateMutability": "nonpayable",
					"type": "constructor"
				},
				{
					"inputs": [
						{
							"internalType": "uint256",
							"name": "a",
							"type": "uint256"
						}
					],
					"name": "bid",
					"outputs": [],
					"stateMutability": "payable",
					"type": "function"
				},
				{
					"inputs": [],
					"name": "endA",
					"outputs": [],
					"stateMutability": "nonpayable",
					"type": "function"
				},
				{
					"inputs": [],
					"name": "hb",
					"outputs": [
						{
							"internalType": "uint256",
							"name": "",
							"type": "uint256"
						}
					],
					"stateMutability": "view",
					"type": "function"
				},
				{
					"inputs": [],
					"name": "hba",
					"outputs": [
						{
							"internalType": "address",
							"name": "",
							"type": "address"
						}
					],
					"stateMutability": "view",
					"type": "function"
				},
				{
					"inputs": [],
					"name": "o",
					"outputs": [
						{
							"internalType": "address",
							"name": "",
							"type": "address"
						}
					],
					"stateMutability": "view",
					"type": "function"
				},
				{
					"inputs": [],
					"name": "oe",
					"outputs": [
						{
							"internalType": "bool",
							"name": "",
							"type": "bool"
						}
					],
					"stateMutability": "view",
					"type": "function"
				},
				{
					"inputs": [],
					"name": "withdraw",
					"outputs": [
						{
							"internalType": "uint256",
							"name": "",
							"type": "uint256"
						}
					],
					"stateMutability": "view",
					"type": "function"
				}
			],
			"devdoc": {
				"kind": "dev",
				"methods": {},
				"version": 1
			},
			"evm": {
				"assembly": "    /* \"contracts/auction.sol\":57:748  contract AuctionC {... */\n  mstore(0x40, 0x80)\n    /* \"contracts/auction.sol\":171:252  constructor() {... */\n  callvalue\n  dup1\n  iszero\n  tag_1\n  jumpi\n  0x00\n  dup1\n  revert\ntag_1:\n  pop\n    /* \"contracts/auction.sol\":199:209  msg.sender */\n  caller\n    /* \"contracts/auction.sol\":195:196  o */\n  0x00\n  dup1\n    /* \"contracts/auction.sol\":195:209  o = msg.sender */\n  0x0100\n  exp\n  dup2\n  sload\n  dup2\n  0xffffffffffffffffffffffffffffffffffffffff\n  mul\n  not\n  and\n  swap1\n  dup4\n  0xffffffffffffffffffffffffffffffffffffffff\n  and\n  mul\n  or\n  swap1\n  sstore\n  pop\n    /* \"contracts/auction.sol\":224:225  0 */\n  0x00\n    /* \"contracts/auction.sol\":219:221  hb */\n  0x01\n    /* \"contracts/auction.sol\":219:225  hb = 0 */\n  dup2\n  swap1\n  sstore\n  pop\n    /* \"contracts/auction.sol\":240:245  false */\n  0x00\n    /* \"contracts/auction.sol\":235:237  oe */\n  0x02\n  0x14\n    /* \"contracts/auction.sol\":235:245  oe = false */\n  0x0100\n  exp\n  dup2\n  sload\n  dup2\n  0xff\n  mul\n  not\n  and\n  swap1\n  dup4\n  iszero\n  iszero\n  mul\n  or\n  swap1\n  sstore\n  pop\n    /* \"contracts/auction.sol\":57:748  contract AuctionC {... */\n  dataSize(sub_0)\n  dup1\n  dataOffset(sub_0)\n  0x00\n  codecopy\n  0x00\n  return\nstop\n\nsub_0: assembly {\n        /* \"contracts/auction.sol\":57:748  contract AuctionC {... */\n      mstore(0x40, 0x80)\n      jumpi(tag_1, lt(calldatasize, 0x04))\n      shr(0xe0, calldataload(0x00))\n      dup1\n      0x50cd4df2\n      gt\n      tag_9\n      jumpi\n      dup1\n      0x50cd4df2\n      eq\n      tag_5\n      jumpi\n      dup1\n      0x5d1a6514\n      eq\n      tag_6\n      jumpi\n      dup1\n      0x6fe3b0b0\n      eq\n      tag_7\n      jumpi\n      dup1\n      0xa23abb4d\n      eq\n      tag_8\n      jumpi\n      jump(tag_1)\n    tag_9:\n      dup1\n      0x08bdda19\n      eq\n      tag_2\n      jumpi\n      dup1\n      0x3ccfd60b\n      eq\n      tag_3\n      jumpi\n      dup1\n      0x454a2ab3\n      eq\n      tag_4\n      jumpi\n    tag_1:\n      0x00\n      dup1\n      revert\n        /* \"contracts/auction.sol\":150:164  bool public oe */\n    tag_2:\n      callvalue\n      dup1\n      iszero\n      tag_10\n      jumpi\n      0x00\n      dup1\n      revert\n    tag_10:\n      pop\n      tag_11\n      tag_12\n      jump\t// in\n    tag_11:\n      mload(0x40)\n      tag_13\n      swap2\n      swap1\n      tag_14\n      jump\t// in\n    tag_13:\n      mload(0x40)\n      dup1\n      swap2\n      sub\n      swap1\n      return\n        /* \"contracts/auction.sol\":598:746  function withdraw() public view returns (uint256) {... */\n    tag_3:\n      callvalue\n      dup1\n      iszero\n      tag_15\n      jumpi\n      0x00\n      dup1\n      revert\n    tag_15:\n      pop\n      tag_16\n      tag_17\n      jump\t// in\n    tag_16:\n      mload(0x40)\n      tag_18\n      swap2\n      swap1\n      tag_19\n      jump\t// in\n    tag_18:\n      mload(0x40)\n      dup1\n      swap2\n      sub\n      swap1\n      return\n        /* \"contracts/auction.sol\":258:481  function bid(uint256 a) public payable {... */\n    tag_4:\n      tag_20\n      0x04\n      dup1\n      calldatasize\n      sub\n      dup2\n      add\n      swap1\n      tag_21\n      swap2\n      swap1\n      tag_22\n      jump\t// in\n    tag_21:\n      tag_23\n      jump\t// in\n    tag_20:\n      stop\n        /* \"contracts/auction.sol\":81:97  address public o */\n    tag_5:\n      callvalue\n      dup1\n      iszero\n      tag_24\n      jumpi\n      0x00\n      dup1\n      revert\n    tag_24:\n      pop\n      tag_25\n      tag_26\n      jump\t// in\n    tag_25:\n      mload(0x40)\n      tag_27\n      swap2\n      swap1\n      tag_28\n      jump\t// in\n    tag_27:\n      mload(0x40)\n      dup1\n      swap2\n      sub\n      swap1\n      return\n        /* \"contracts/auction.sol\":103:120  uint256 public hb */\n    tag_6:\n      callvalue\n      dup1\n      iszero\n      tag_29\n      jumpi\n      0x00\n      dup1\n      revert\n    tag_29:\n      pop\n      tag_30\n      tag_31\n      jump\t// in\n    tag_30:\n      mload(0x40)\n      tag_32\n      swap2\n      swap1\n      tag_19\n      jump\t// in\n    tag_32:\n      mload(0x40)\n      dup1\n      swap2\n      sub\n      swap1\n      return\n        /* \"contracts/auction.sol\":487:592  function endA() public {... */\n    tag_7:\n      callvalue\n      dup1\n      iszero\n      tag_33\n      jumpi\n      0x00\n      dup1\n      revert\n    tag_33:\n      pop\n      tag_34\n      tag_35\n      jump\t// in\n    tag_34:\n      stop\n        /* \"contracts/auction.sol\":126:144  address public hba */\n    tag_8:\n      callvalue\n      dup1\n      iszero\n      tag_36\n      jumpi\n      0x00\n      dup1\n      revert\n    tag_36:\n      pop\n      tag_37\n      tag_38\n      jump\t// in\n    tag_37:\n      mload(0x40)\n      tag_39\n      swap2\n      swap1\n      tag_28\n      jump\t// in\n    tag_39:\n      mload(0x40)\n      dup1\n      swap2\n      sub\n      swap1\n      return\n        /* \"contracts/auction.sol\":150:164  bool public oe */\n    tag_12:\n      0x02\n      0x14\n      swap1\n      sload\n      swap1\n      0x0100\n      exp\n      swap1\n      div\n      0xff\n      and\n      dup2\n      jump\t// out\n        /* \"contracts/auction.sol\":598:746  function withdraw() public view returns (uint256) {... */\n    tag_17:\n        /* \"contracts/auction.sol\":639:646  uint256 */\n      0x00\n        /* \"contracts/auction.sol\":680:683  hba */\n      0x02\n      0x00\n      swap1\n      sload\n      swap1\n      0x0100\n      exp\n      swap1\n      div\n      0xffffffffffffffffffffffffffffffffffffffff\n      and\n        /* \"contracts/auction.sol\":666:683  msg.sender == hba */\n      0xffffffffffffffffffffffffffffffffffffffff\n      and\n        /* \"contracts/auction.sol\":666:676  msg.sender */\n      caller\n        /* \"contracts/auction.sol\":666:683  msg.sender == hba */\n      0xffffffffffffffffffffffffffffffffffffffff\n      and\n      eq\n        /* \"contracts/auction.sol\":658:720  require(msg.sender == hba, \"only highest bidder can withdraw\") */\n      tag_41\n      jumpi\n      mload(0x40)\n      0x08c379a000000000000000000000000000000000000000000000000000000000\n      dup2\n      mstore\n      0x04\n      add\n      tag_42\n      swap1\n      tag_43\n      jump\t// in\n    tag_42:\n      mload(0x40)\n      dup1\n      swap2\n      sub\n      swap1\n      revert\n    tag_41:\n        /* \"contracts/auction.sol\":737:739  hb */\n      sload(0x01)\n        /* \"contracts/auction.sol\":730:739  return hb */\n      swap1\n      pop\n        /* \"contracts/auction.sol\":598:746  function withdraw() public view returns (uint256) {... */\n      swap1\n      jump\t// out\n        /* \"contracts/auction.sol\":258:481  function bid(uint256 a) public payable {... */\n    tag_23:\n        /* \"contracts/auction.sol\":316:318  oe */\n      0x02\n      0x14\n      swap1\n      sload\n      swap1\n      0x0100\n      exp\n      swap1\n      div\n      0xff\n      and\n        /* \"contracts/auction.sol\":315:318  !oe */\n      iszero\n        /* \"contracts/auction.sol\":307:348  require(!oe, \"Auction has already ended\") */\n      tag_45\n      jumpi\n      mload(0x40)\n      0x08c379a000000000000000000000000000000000000000000000000000000000\n      dup2\n      mstore\n      0x04\n      add\n      tag_46\n      swap1\n      tag_47\n      jump\t// in\n    tag_46:\n      mload(0x40)\n      dup1\n      swap2\n      sub\n      swap1\n      revert\n    tag_45:\n        /* \"contracts/auction.sol\":363:364  a */\n      dup1\n        /* \"contracts/auction.sol\":358:360  hb */\n      0x01\n        /* \"contracts/auction.sol\":358:364  hb = a */\n      dup2\n      swap1\n      sstore\n      pop\n        /* \"contracts/auction.sol\":394:396  hb */\n      sload(0x01)\n        /* \"contracts/auction.sol\":382:391  msg.value */\n      callvalue\n        /* \"contracts/auction.sol\":382:396  msg.value > hb */\n      gt\n        /* \"contracts/auction.sol\":374:439  require(msg.value > hb, \"Bid must be greater then current value\") */\n      tag_48\n      jumpi\n      mload(0x40)\n      0x08c379a000000000000000000000000000000000000000000000000000000000\n      dup2\n      mstore\n      0x04\n      add\n      tag_49\n      swap1\n      tag_50\n      jump\t// in\n    tag_49:\n      mload(0x40)\n      dup1\n      swap2\n      sub\n      swap1\n      revert\n    tag_48:\n        /* \"contracts/auction.sol\":464:474  msg.sender */\n      caller\n        /* \"contracts/auction.sol\":458:461  hba */\n      0x02\n      0x00\n        /* \"contracts/auction.sol\":458:474  hba = msg.sender */\n      0x0100\n      exp\n      dup2\n      sload\n      dup2\n      0xffffffffffffffffffffffffffffffffffffffff\n      mul\n      not\n      and\n      swap1\n      dup4\n      0xffffffffffffffffffffffffffffffffffffffff\n      and\n      mul\n      or\n      swap1\n      sstore\n      pop\n        /* \"contracts/auction.sol\":258:481  function bid(uint256 a) public payable {... */\n      pop\n      jump\t// out\n        /* \"contracts/auction.sol\":81:97  address public o */\n    tag_26:\n      0x00\n      dup1\n      sload\n      swap1\n      0x0100\n      exp\n      swap1\n      div\n      0xffffffffffffffffffffffffffffffffffffffff\n      and\n      dup2\n      jump\t// out\n        /* \"contracts/auction.sol\":103:120  uint256 public hb */\n    tag_31:\n      sload(0x01)\n      dup2\n      jump\t// out\n        /* \"contracts/auction.sol\":487:592  function endA() public {... */\n    tag_35:\n        /* \"contracts/auction.sol\":542:543  o */\n      0x00\n      dup1\n      sload\n      swap1\n      0x0100\n      exp\n      swap1\n      div\n      0xffffffffffffffffffffffffffffffffffffffff\n      and\n        /* \"contracts/auction.sol\":528:543  msg.sender == o */\n      0xffffffffffffffffffffffffffffffffffffffff\n      and\n        /* \"contracts/auction.sol\":528:538  msg.sender */\n      caller\n        /* \"contracts/auction.sol\":528:543  msg.sender == o */\n      0xffffffffffffffffffffffffffffffffffffffff\n      and\n      eq\n        /* \"contracts/auction.sol\":520:566  require(msg.sender == o, \"only owner can end\") */\n      tag_52\n      jumpi\n      mload(0x40)\n      0x08c379a000000000000000000000000000000000000000000000000000000000\n      dup2\n      mstore\n      0x04\n      add\n      tag_53\n      swap1\n      tag_54\n      jump\t// in\n    tag_53:\n      mload(0x40)\n      dup1\n      swap2\n      sub\n      swap1\n      revert\n    tag_52:\n        /* \"contracts/auction.sol\":581:585  true */\n      0x01\n        /* \"contracts/auction.sol\":576:578  oe */\n      0x02\n      0x14\n        /* \"contracts/auction.sol\":576:585  oe = true */\n      0x0100\n      exp\n      dup2\n      sload\n      dup2\n      0xff\n      mul\n      not\n      and\n      swap1\n      dup4\n      iszero\n      iszero\n      mul\n      or\n      swap1\n      sstore\n      pop\n        /* \"contracts/auction.sol\":487:592  function endA() public {... */\n      jump\t// out\n        /* \"contracts/auction.sol\":126:144  address public hba */\n    tag_38:\n      0x02\n      0x00\n      swap1\n      sload\n      swap1\n      0x0100\n      exp\n      swap1\n      div\n      0xffffffffffffffffffffffffffffffffffffffff\n      and\n      dup2\n      jump\t// out\n        /* \"#utility.yul\":7:97   */\n    tag_55:\n        /* \"#utility.yul\":41:48   */\n      0x00\n        /* \"#utility.yul\":84:89   */\n      dup2\n        /* \"#utility.yul\":77:90   */\n      iszero\n        /* \"#utility.yul\":70:91   */\n      iszero\n        /* \"#utility.yul\":59:91   */\n      swap1\n      pop\n        /* \"#utility.yul\":7:97   */\n      swap2\n      swap1\n      pop\n      jump\t// out\n        /* \"#utility.yul\":103:212   */\n    tag_56:\n        /* \"#utility.yul\":184:205   */\n      tag_79\n        /* \"#utility.yul\":199:204   */\n      dup2\n        /* \"#utility.yul\":184:205   */\n      tag_55\n      jump\t// in\n    tag_79:\n        /* \"#utility.yul\":179:182   */\n      dup3\n        /* \"#utility.yul\":172:206   */\n      mstore\n        /* \"#utility.yul\":103:212   */\n      pop\n      pop\n      jump\t// out\n        /* \"#utility.yul\":218:428   */\n    tag_14:\n        /* \"#utility.yul\":305:309   */\n      0x00\n        /* \"#utility.yul\":343:345   */\n      0x20\n        /* \"#utility.yul\":332:341   */\n      dup3\n        /* \"#utility.yul\":328:346   */\n      add\n        /* \"#utility.yul\":320:346   */\n      swap1\n      pop\n        /* \"#utility.yul\":356:421   */\n      tag_81\n        /* \"#utility.yul\":418:419   */\n      0x00\n        /* \"#utility.yul\":407:416   */\n      dup4\n        /* \"#utility.yul\":403:420   */\n      add\n        /* \"#utility.yul\":394:400   */\n      dup5\n        /* \"#utility.yul\":356:421   */\n      tag_56\n      jump\t// in\n    tag_81:\n        /* \"#utility.yul\":218:428   */\n      swap3\n      swap2\n      pop\n      pop\n      jump\t// out\n        /* \"#utility.yul\":434:511   */\n    tag_57:\n        /* \"#utility.yul\":471:478   */\n      0x00\n        /* \"#utility.yul\":500:505   */\n      dup2\n        /* \"#utility.yul\":489:505   */\n      swap1\n      pop\n        /* \"#utility.yul\":434:511   */\n      swap2\n      swap1\n      pop\n      jump\t// out\n        /* \"#utility.yul\":517:635   */\n    tag_58:\n        /* \"#utility.yul\":604:628   */\n      tag_84\n        /* \"#utility.yul\":622:627   */\n      dup2\n        /* \"#utility.yul\":604:628   */\n      tag_57\n      jump\t// in\n    tag_84:\n        /* \"#utility.yul\":599:602   */\n      dup3\n        /* \"#utility.yul\":592:629   */\n      mstore\n        /* \"#utility.yul\":517:635   */\n      pop\n      pop\n      jump\t// out\n        /* \"#utility.yul\":641:863   */\n    tag_19:\n        /* \"#utility.yul\":734:738   */\n      0x00\n        /* \"#utility.yul\":772:774   */\n      0x20\n        /* \"#utility.yul\":761:770   */\n      dup3\n        /* \"#utility.yul\":757:775   */\n      add\n        /* \"#utility.yul\":749:775   */\n      swap1\n      pop\n        /* \"#utility.yul\":785:856   */\n      tag_86\n        /* \"#utility.yul\":853:854   */\n      0x00\n        /* \"#utility.yul\":842:851   */\n      dup4\n        /* \"#utility.yul\":838:855   */\n      add\n        /* \"#utility.yul\":829:835   */\n      dup5\n        /* \"#utility.yul\":785:856   */\n      tag_58\n      jump\t// in\n    tag_86:\n        /* \"#utility.yul\":641:863   */\n      swap3\n      swap2\n      pop\n      pop\n      jump\t// out\n        /* \"#utility.yul\":950:1067   */\n    tag_60:\n        /* \"#utility.yul\":1059:1060   */\n      0x00\n        /* \"#utility.yul\":1056:1057   */\n      dup1\n        /* \"#utility.yul\":1049:1061   */\n      revert\n        /* \"#utility.yul\":1196:1318   */\n    tag_62:\n        /* \"#utility.yul\":1269:1293   */\n      tag_91\n        /* \"#utility.yul\":1287:1292   */\n      dup2\n        /* \"#utility.yul\":1269:1293   */\n      tag_57\n      jump\t// in\n    tag_91:\n        /* \"#utility.yul\":1262:1267   */\n      dup2\n        /* \"#utility.yul\":1259:1294   */\n      eq\n        /* \"#utility.yul\":1249:1312   */\n      tag_92\n      jumpi\n        /* \"#utility.yul\":1308:1309   */\n      0x00\n        /* \"#utility.yul\":1305:1306   */\n      dup1\n        /* \"#utility.yul\":1298:1310   */\n      revert\n        /* \"#utility.yul\":1249:1312   */\n    tag_92:\n        /* \"#utility.yul\":1196:1318   */\n      pop\n      jump\t// out\n        /* \"#utility.yul\":1324:1463   */\n    tag_63:\n        /* \"#utility.yul\":1370:1375   */\n      0x00\n        /* \"#utility.yul\":1408:1414   */\n      dup2\n        /* \"#utility.yul\":1395:1415   */\n      calldataload\n        /* \"#utility.yul\":1386:1415   */\n      swap1\n      pop\n        /* \"#utility.yul\":1424:1457   */\n      tag_94\n        /* \"#utility.yul\":1451:1456   */\n      dup2\n        /* \"#utility.yul\":1424:1457   */\n      tag_62\n      jump\t// in\n    tag_94:\n        /* \"#utility.yul\":1324:1463   */\n      swap3\n      swap2\n      pop\n      pop\n      jump\t// out\n        /* \"#utility.yul\":1469:1798   */\n    tag_22:\n        /* \"#utility.yul\":1528:1534   */\n      0x00\n        /* \"#utility.yul\":1577:1579   */\n      0x20\n        /* \"#utility.yul\":1565:1574   */\n      dup3\n        /* \"#utility.yul\":1556:1563   */\n      dup5\n        /* \"#utility.yul\":1552:1575   */\n      sub\n        /* \"#utility.yul\":1548:1580   */\n      slt\n        /* \"#utility.yul\":1545:1664   */\n      iszero\n      tag_96\n      jumpi\n        /* \"#utility.yul\":1583:1662   */\n      tag_97\n      tag_60\n      jump\t// in\n    tag_97:\n        /* \"#utility.yul\":1545:1664   */\n    tag_96:\n        /* \"#utility.yul\":1703:1704   */\n      0x00\n        /* \"#utility.yul\":1728:1781   */\n      tag_98\n        /* \"#utility.yul\":1773:1780   */\n      dup5\n        /* \"#utility.yul\":1764:1770   */\n      dup3\n        /* \"#utility.yul\":1753:1762   */\n      dup6\n        /* \"#utility.yul\":1749:1771   */\n      add\n        /* \"#utility.yul\":1728:1781   */\n      tag_63\n      jump\t// in\n    tag_98:\n        /* \"#utility.yul\":1718:1781   */\n      swap2\n      pop\n        /* \"#utility.yul\":1674:1791   */\n      pop\n        /* \"#utility.yul\":1469:1798   */\n      swap3\n      swap2\n      pop\n      pop\n      jump\t// out\n        /* \"#utility.yul\":1804:1930   */\n    tag_64:\n        /* \"#utility.yul\":1841:1848   */\n      0x00\n        /* \"#utility.yul\":1881:1923   */\n      0xffffffffffffffffffffffffffffffffffffffff\n        /* \"#utility.yul\":1874:1879   */\n      dup3\n        /* \"#utility.yul\":1870:1924   */\n      and\n        /* \"#utility.yul\":1859:1924   */\n      swap1\n      pop\n        /* \"#utility.yul\":1804:1930   */\n      swap2\n      swap1\n      pop\n      jump\t// out\n        /* \"#utility.yul\":1936:2032   */\n    tag_65:\n        /* \"#utility.yul\":1973:1980   */\n      0x00\n        /* \"#utility.yul\":2002:2026   */\n      tag_101\n        /* \"#utility.yul\":2020:2025   */\n      dup3\n        /* \"#utility.yul\":2002:2026   */\n      tag_64\n      jump\t// in\n    tag_101:\n        /* \"#utility.yul\":1991:2026   */\n      swap1\n      pop\n        /* \"#utility.yul\":1936:2032   */\n      swap2\n      swap1\n      pop\n      jump\t// out\n        /* \"#utility.yul\":2038:2156   */\n    tag_66:\n        /* \"#utility.yul\":2125:2149   */\n      tag_103\n        /* \"#utility.yul\":2143:2148   */\n      dup2\n        /* \"#utility.yul\":2125:2149   */\n      tag_65\n      jump\t// in\n    tag_103:\n        /* \"#utility.yul\":2120:2123   */\n      dup3\n        /* \"#utility.yul\":2113:2150   */\n      mstore\n        /* \"#utility.yul\":2038:2156   */\n      pop\n      pop\n      jump\t// out\n        /* \"#utility.yul\":2162:2384   */\n    tag_28:\n        /* \"#utility.yul\":2255:2259   */\n      0x00\n        /* \"#utility.yul\":2293:2295   */\n      0x20\n        /* \"#utility.yul\":2282:2291   */\n      dup3\n        /* \"#utility.yul\":2278:2296   */\n      add\n        /* \"#utility.yul\":2270:2296   */\n      swap1\n      pop\n        /* \"#utility.yul\":2306:2377   */\n      tag_105\n        /* \"#utility.yul\":2374:2375   */\n      0x00\n        /* \"#utility.yul\":2363:2372   */\n      dup4\n        /* \"#utility.yul\":2359:2376   */\n      add\n        /* \"#utility.yul\":2350:2356   */\n      dup5\n        /* \"#utility.yul\":2306:2377   */\n      tag_66\n      jump\t// in\n    tag_105:\n        /* \"#utility.yul\":2162:2384   */\n      swap3\n      swap2\n      pop\n      pop\n      jump\t// out\n        /* \"#utility.yul\":2390:2559   */\n    tag_67:\n        /* \"#utility.yul\":2474:2485   */\n      0x00\n        /* \"#utility.yul\":2508:2514   */\n      dup3\n        /* \"#utility.yul\":2503:2506   */\n      dup3\n        /* \"#utility.yul\":2496:2515   */\n      mstore\n        /* \"#utility.yul\":2548:2552   */\n      0x20\n        /* \"#utility.yul\":2543:2546   */\n      dup3\n        /* \"#utility.yul\":2539:2553   */\n      add\n        /* \"#utility.yul\":2524:2553   */\n      swap1\n      pop\n        /* \"#utility.yul\":2390:2559   */\n      swap3\n      swap2\n      pop\n      pop\n      jump\t// out\n        /* \"#utility.yul\":2565:2747   */\n    tag_68:\n        /* \"#utility.yul\":2705:2739   */\n      0x6f6e6c792068696768657374206269646465722063616e207769746864726177\n        /* \"#utility.yul\":2701:2702   */\n      0x00\n        /* \"#utility.yul\":2693:2699   */\n      dup3\n        /* \"#utility.yul\":2689:2703   */\n      add\n        /* \"#utility.yul\":2682:2740   */\n      mstore\n        /* \"#utility.yul\":2565:2747   */\n      pop\n      jump\t// out\n        /* \"#utility.yul\":2753:3119   */\n    tag_69:\n        /* \"#utility.yul\":2895:2898   */\n      0x00\n        /* \"#utility.yul\":2916:2983   */\n      tag_109\n        /* \"#utility.yul\":2980:2982   */\n      0x20\n        /* \"#utility.yul\":2975:2978   */\n      dup4\n        /* \"#utility.yul\":2916:2983   */\n      tag_67\n      jump\t// in\n    tag_109:\n        /* \"#utility.yul\":2909:2983   */\n      swap2\n      pop\n        /* \"#utility.yul\":2992:3085   */\n      tag_110\n        /* \"#utility.yul\":3081:3084   */\n      dup3\n        /* \"#utility.yul\":2992:3085   */\n      tag_68\n      jump\t// in\n    tag_110:\n        /* \"#utility.yul\":3110:3112   */\n      0x20\n        /* \"#utility.yul\":3105:3108   */\n      dup3\n        /* \"#utility.yul\":3101:3113   */\n      add\n        /* \"#utility.yul\":3094:3113   */\n      swap1\n      pop\n        /* \"#utility.yul\":2753:3119   */\n      swap2\n      swap1\n      pop\n      jump\t// out\n        /* \"#utility.yul\":3125:3544   */\n    tag_43:\n        /* \"#utility.yul\":3291:3295   */\n      0x00\n        /* \"#utility.yul\":3329:3331   */\n      0x20\n        /* \"#utility.yul\":3318:3327   */\n      dup3\n        /* \"#utility.yul\":3314:3332   */\n      add\n        /* \"#utility.yul\":3306:3332   */\n      swap1\n      pop\n        /* \"#utility.yul\":3378:3387   */\n      dup2\n        /* \"#utility.yul\":3372:3376   */\n      dup2\n        /* \"#utility.yul\":3368:3388   */\n      sub\n        /* \"#utility.yul\":3364:3365   */\n      0x00\n        /* \"#utility.yul\":3353:3362   */\n      dup4\n        /* \"#utility.yul\":3349:3366   */\n      add\n        /* \"#utility.yul\":3342:3389   */\n      mstore\n        /* \"#utility.yul\":3406:3537   */\n      tag_112\n        /* \"#utility.yul\":3532:3536   */\n      dup2\n        /* \"#utility.yul\":3406:3537   */\n      tag_69\n      jump\t// in\n    tag_112:\n        /* \"#utility.yul\":3398:3537   */\n      swap1\n      pop\n        /* \"#utility.yul\":3125:3544   */\n      swap2\n      swap1\n      pop\n      jump\t// out\n        /* \"#utility.yul\":3550:3725   */\n    tag_70:\n        /* \"#utility.yul\":3690:3717   */\n      0x41756374696f6e2068617320616c726561647920656e64656400000000000000\n        /* \"#utility.yul\":3686:3687   */\n      0x00\n        /* \"#utility.yul\":3678:3684   */\n      dup3\n        /* \"#utility.yul\":3674:3688   */\n      add\n        /* \"#utility.yul\":3667:3718   */\n      mstore\n        /* \"#utility.yul\":3550:3725   */\n      pop\n      jump\t// out\n        /* \"#utility.yul\":3731:4097   */\n    tag_71:\n        /* \"#utility.yul\":3873:3876   */\n      0x00\n        /* \"#utility.yul\":3894:3961   */\n      tag_115\n        /* \"#utility.yul\":3958:3960   */\n      0x19\n        /* \"#utility.yul\":3953:3956   */\n      dup4\n        /* \"#utility.yul\":3894:3961   */\n      tag_67\n      jump\t// in\n    tag_115:\n        /* \"#utility.yul\":3887:3961   */\n      swap2\n      pop\n        /* \"#utility.yul\":3970:4063   */\n      tag_116\n        /* \"#utility.yul\":4059:4062   */\n      dup3\n        /* \"#utility.yul\":3970:4063   */\n      tag_70\n      jump\t// in\n    tag_116:\n        /* \"#utility.yul\":4088:4090   */\n      0x20\n        /* \"#utility.yul\":4083:4086   */\n      dup3\n        /* \"#utility.yul\":4079:4091   */\n      add\n        /* \"#utility.yul\":4072:4091   */\n      swap1\n      pop\n        /* \"#utility.yul\":3731:4097   */\n      swap2\n      swap1\n      pop\n      jump\t// out\n        /* \"#utility.yul\":4103:4522   */\n    tag_47:\n        /* \"#utility.yul\":4269:4273   */\n      0x00\n        /* \"#utility.yul\":4307:4309   */\n      0x20\n        /* \"#utility.yul\":4296:4305   */\n      dup3\n        /* \"#utility.yul\":4292:4310   */\n      add\n        /* \"#utility.yul\":4284:4310   */\n      swap1\n      pop\n        /* \"#utility.yul\":4356:4365   */\n      dup2\n        /* \"#utility.yul\":4350:4354   */\n      dup2\n        /* \"#utility.yul\":4346:4366   */\n      sub\n        /* \"#utility.yul\":4342:4343   */\n      0x00\n        /* \"#utility.yul\":4331:4340   */\n      dup4\n        /* \"#utility.yul\":4327:4344   */\n      add\n        /* \"#utility.yul\":4320:4367   */\n      mstore\n        /* \"#utility.yul\":4384:4515   */\n      tag_118\n        /* \"#utility.yul\":4510:4514   */\n      dup2\n        /* \"#utility.yul\":4384:4515   */\n      tag_71\n      jump\t// in\n    tag_118:\n        /* \"#utility.yul\":4376:4515   */\n      swap1\n      pop\n        /* \"#utility.yul\":4103:4522   */\n      swap2\n      swap1\n      pop\n      jump\t// out\n        /* \"#utility.yul\":4528:4753   */\n    tag_72:\n        /* \"#utility.yul\":4668:4702   */\n      0x426964206d7573742062652067726561746572207468656e2063757272656e74\n        /* \"#utility.yul\":4664:4665   */\n      0x00\n        /* \"#utility.yul\":4656:4662   */\n      dup3\n        /* \"#utility.yul\":4652:4666   */\n      add\n        /* \"#utility.yul\":4645:4703   */\n      mstore\n        /* \"#utility.yul\":4737:4745   */\n      0x2076616c75650000000000000000000000000000000000000000000000000000\n        /* \"#utility.yul\":4732:4734   */\n      0x20\n        /* \"#utility.yul\":4724:4730   */\n      dup3\n        /* \"#utility.yul\":4720:4735   */\n      add\n        /* \"#utility.yul\":4713:4746   */\n      mstore\n        /* \"#utility.yul\":4528:4753   */\n      pop\n      jump\t// out\n        /* \"#utility.yul\":4759:5125   */\n    tag_73:\n        /* \"#utility.yul\":4901:4904   */\n      0x00\n        /* \"#utility.yul\":4922:4989   */\n      tag_121\n        /* \"#utility.yul\":4986:4988   */\n      0x26\n        /* \"#utility.yul\":4981:4984   */\n      dup4\n        /* \"#utility.yul\":4922:4989   */\n      tag_67\n      jump\t// in\n    tag_121:\n        /* \"#utility.yul\":4915:4989   */\n      swap2\n      pop\n        /* \"#utility.yul\":4998:5091   */\n      tag_122\n        /* \"#utility.yul\":5087:5090   */\n      dup3\n        /* \"#utility.yul\":4998:5091   */\n      tag_72\n      jump\t// in\n    tag_122:\n        /* \"#utility.yul\":5116:5118   */\n      0x40\n        /* \"#utility.yul\":5111:5114   */\n      dup3\n        /* \"#utility.yul\":5107:5119   */\n      add\n        /* \"#utility.yul\":5100:5119   */\n      swap1\n      pop\n        /* \"#utility.yul\":4759:5125   */\n      swap2\n      swap1\n      pop\n      jump\t// out\n        /* \"#utility.yul\":5131:5550   */\n    tag_50:\n        /* \"#utility.yul\":5297:5301   */\n      0x00\n        /* \"#utility.yul\":5335:5337   */\n      0x20\n        /* \"#utility.yul\":5324:5333   */\n      dup3\n        /* \"#utility.yul\":5320:5338   */\n      add\n        /* \"#utility.yul\":5312:5338   */\n      swap1\n      pop\n        /* \"#utility.yul\":5384:5393   */\n      dup2\n        /* \"#utility.yul\":5378:5382   */\n      dup2\n        /* \"#utility.yul\":5374:5394   */\n      sub\n        /* \"#utility.yul\":5370:5371   */\n      0x00\n        /* \"#utility.yul\":5359:5368   */\n      dup4\n        /* \"#utility.yul\":5355:5372   */\n      add\n        /* \"#utility.yul\":5348:5395   */\n      mstore\n        /* \"#utility.yul\":5412:5543   */\n      tag_124\n        /* \"#utility.yul\":5538:5542   */\n      dup2\n        /* \"#utility.yul\":5412:5543   */\n      tag_73\n      jump\t// in\n    tag_124:\n        /* \"#utility.yul\":5404:5543   */\n      swap1\n      pop\n        /* \"#utility.yul\":5131:5550   */\n      swap2\n      swap1\n      pop\n      jump\t// out\n        /* \"#utility.yul\":5556:5724   */\n    tag_74:\n        /* \"#utility.yul\":5696:5716   */\n      0x6f6e6c79206f776e65722063616e20656e640000000000000000000000000000\n        /* \"#utility.yul\":5692:5693   */\n      0x00\n        /* \"#utility.yul\":5684:5690   */\n      dup3\n        /* \"#utility.yul\":5680:5694   */\n      add\n        /* \"#utility.yul\":5673:5717   */\n      mstore\n        /* \"#utility.yul\":5556:5724   */\n      pop\n      jump\t// out\n        /* \"#utility.yul\":5730:6096   */\n    tag_75:\n        /* \"#utility.yul\":5872:5875   */\n      0x00\n        /* \"#utility.yul\":5893:5960   */\n      tag_127\n        /* \"#utility.yul\":5957:5959   */\n      0x12\n        /* \"#utility.yul\":5952:5955   */\n      dup4\n        /* \"#utility.yul\":5893:5960   */\n      tag_67\n      jump\t// in\n    tag_127:\n        /* \"#utility.yul\":5886:5960   */\n      swap2\n      pop\n        /* \"#utility.yul\":5969:6062   */\n      tag_128\n        /* \"#utility.yul\":6058:6061   */\n      dup3\n        /* \"#utility.yul\":5969:6062   */\n      tag_74\n      jump\t// in\n    tag_128:\n        /* \"#utility.yul\":6087:6089   */\n      0x20\n        /* \"#utility.yul\":6082:6085   */\n      dup3\n        /* \"#utility.yul\":6078:6090   */\n      add\n        /* \"#utility.yul\":6071:6090   */\n      swap1\n      pop\n        /* \"#utility.yul\":5730:6096   */\n      swap2\n      swap1\n      pop\n      jump\t// out\n        /* \"#utility.yul\":6102:6521   */\n    tag_54:\n        /* \"#utility.yul\":6268:6272   */\n      0x00\n        /* \"#utility.yul\":6306:6308   */\n      0x20\n        /* \"#utility.yul\":6295:6304   */\n      dup3\n        /* \"#utility.yul\":6291:6309   */\n      add\n        /* \"#utility.yul\":6283:6309   */\n      swap1\n      pop\n        /* \"#utility.yul\":6355:6364   */\n      dup2\n        /* \"#utility.yul\":6349:6353   */\n      dup2\n        /* \"#utility.yul\":6345:6365   */\n      sub\n        /* \"#utility.yul\":6341:6342   */\n      0x00\n        /* \"#utility.yul\":6330:6339   */\n      dup4\n        /* \"#utility.yul\":6326:6343   */\n      add\n        /* \"#utility.yul\":6319:6366   */\n      mstore\n        /* \"#utility.yul\":6383:6514   */\n      tag_130\n        /* \"#utility.yul\":6509:6513   */\n      dup2\n        /* \"#utility.yul\":6383:6514   */\n      tag_75\n      jump\t// in\n    tag_130:\n        /* \"#utility.yul\":6375:6514   */\n      swap1\n      pop\n        /* \"#utility.yul\":6102:6521   */\n      swap2\n      swap1\n      pop\n      jump\t// out\n\n    auxdata: 0xa2646970667358221220710ebce6da828631b8b4ee6a08d7f5a54d09c0a61023207291e7d3646034972e64736f6c634300081a0033\n}\n",
				"bytecode": {
					"linkReferences": {},
					"object": "6080604052348015600e575f80fd5b50335f806101000a81548173ffffffffffffffffffffffffffffffffffffffff021916908373ffffffffffffffffffffffffffffffffffffffff1602179055505f6001819055505f600260146101000a81548160ff0219169083151502179055506107198061007c5f395ff3fe60806040526004361061006f575f3560e01c806350cd4df21161004d57806350cd4df2146100e35780635d1a65141461010d5780636fe3b0b014610137578063a23abb4d1461014d5761006f565b806308bdda19146100735780633ccfd60b1461009d578063454a2ab3146100c7575b5f80fd5b34801561007e575f80fd5b50610087610177565b6040516100949190610412565b60405180910390f35b3480156100a8575f80fd5b506100b161018a565b6040516100be9190610443565b60405180910390f35b6100e160048036038101906100dc919061048a565b610222565b005b3480156100ee575f80fd5b506100f7610300565b60405161010491906104f4565b60405180910390f35b348015610118575f80fd5b50610121610323565b60405161012e9190610443565b60405180910390f35b348015610142575f80fd5b5061014b610329565b005b348015610158575f80fd5b506101616103d3565b60405161016e91906104f4565b60405180910390f35b600260149054906101000a900460ff1681565b5f60025f9054906101000a900473ffffffffffffffffffffffffffffffffffffffff1673ffffffffffffffffffffffffffffffffffffffff163373ffffffffffffffffffffffffffffffffffffffff161461021a576040517f08c379a000000000000000000000000000000000000000000000000000000000815260040161021190610567565b60405180910390fd5b600154905090565b600260149054906101000a900460ff1615610272576040517f08c379a0000000000000000000000000000000000000000000000000000000008152600401610269906105cf565b60405180910390fd5b8060018190555060015434116102bd576040517f08c379a00000000000000000000000000000000000000000000000000000000081526004016102b49061065d565b60405180910390fd5b3360025f6101000a81548173ffffffffffffffffffffffffffffffffffffffff021916908373ffffffffffffffffffffffffffffffffffffffff16021790555050565b5f8054906101000a900473ffffffffffffffffffffffffffffffffffffffff1681565b60015481565b5f8054906101000a900473ffffffffffffffffffffffffffffffffffffffff1673ffffffffffffffffffffffffffffffffffffffff163373ffffffffffffffffffffffffffffffffffffffff16146103b6576040517f08c379a00000000000000000000000000000000000000000000000000000000081526004016103ad906106c5565b60405180910390fd5b6001600260146101000a81548160ff021916908315150217905550565b60025f9054906101000a900473ffffffffffffffffffffffffffffffffffffffff1681565b5f8115159050919050565b61040c816103f8565b82525050565b5f6020820190506104255f830184610403565b92915050565b5f819050919050565b61043d8161042b565b82525050565b5f6020820190506104565f830184610434565b92915050565b5f80fd5b6104698161042b565b8114610473575f80fd5b50565b5f8135905061048481610460565b92915050565b5f6020828403121561049f5761049e61045c565b5b5f6104ac84828501610476565b91505092915050565b5f73ffffffffffffffffffffffffffffffffffffffff82169050919050565b5f6104de826104b5565b9050919050565b6104ee816104d4565b82525050565b5f6020820190506105075f8301846104e5565b92915050565b5f82825260208201905092915050565b7f6f6e6c792068696768657374206269646465722063616e2077697468647261775f82015250565b5f61055160208361050d565b915061055c8261051d565b602082019050919050565b5f6020820190508181035f83015261057e81610545565b9050919050565b7f41756374696f6e2068617320616c726561647920656e646564000000000000005f82015250565b5f6105b960198361050d565b91506105c482610585565b602082019050919050565b5f6020820190508181035f8301526105e6816105ad565b9050919050565b7f426964206d7573742062652067726561746572207468656e2063757272656e745f8201527f2076616c75650000000000000000000000000000000000000000000000000000602082015250565b5f61064760268361050d565b9150610652826105ed565b604082019050919050565b5f6020820190508181035f8301526106748161063b565b9050919050565b7f6f6e6c79206f776e65722063616e20656e6400000000000000000000000000005f82015250565b5f6106af60128361050d565b91506106ba8261067b565b602082019050919050565b5f6020820190508181035f8301526106dc816106a3565b905091905056fea2646970667358221220710ebce6da828631b8b4ee6a08d7f5a54d09c0a61023207291e7d3646034972e64736f6c634300081a0033",
					"opcodes": "PUSH1 0x80 PUSH1 0x40 MSTORE CALLVALUE DUP1 ISZERO PUSH1 0xE JUMPI PUSH0 DUP1 REVERT JUMPDEST POP CALLER PUSH0 DUP1 PUSH2 0x100 EXP DUP2 SLOAD DUP2 PUSH20 0xFFFFFFFFFFFFFFFFFFFFFFFFFFFFFFFFFFFFFFFF MUL NOT AND SWAP1 DUP4 PUSH20 0xFFFFFFFFFFFFFFFFFFFFFFFFFFFFFFFFFFFFFFFF AND MUL OR SWAP1 SSTORE POP PUSH0 PUSH1 0x1 DUP2 SWAP1 SSTORE POP PUSH0 PUSH1 0x2 PUSH1 0x14 PUSH2 0x100 EXP DUP2 SLOAD DUP2 PUSH1 0xFF MUL NOT AND SWAP1 DUP4 ISZERO ISZERO MUL OR SWAP1 SSTORE POP PUSH2 0x719 DUP1 PUSH2 0x7C PUSH0 CODECOPY PUSH0 RETURN INVALID PUSH1 0x80 PUSH1 0x40 MSTORE PUSH1 0x4 CALLDATASIZE LT PUSH2 0x6F JUMPI PUSH0 CALLDATALOAD PUSH1 0xE0 SHR DUP1 PUSH4 0x50CD4DF2 GT PUSH2 0x4D JUMPI DUP1 PUSH4 0x50CD4DF2 EQ PUSH2 0xE3 JUMPI DUP1 PUSH4 0x5D1A6514 EQ PUSH2 0x10D JUMPI DUP1 PUSH4 0x6FE3B0B0 EQ PUSH2 0x137 JUMPI DUP1 PUSH4 0xA23ABB4D EQ PUSH2 0x14D JUMPI PUSH2 0x6F JUMP JUMPDEST DUP1 PUSH4 0x8BDDA19 EQ PUSH2 0x73 JUMPI DUP1 PUSH4 0x3CCFD60B EQ PUSH2 0x9D JUMPI DUP1 PUSH4 0x454A2AB3 EQ PUSH2 0xC7 JUMPI JUMPDEST PUSH0 DUP1 REVERT JUMPDEST CALLVALUE DUP1 ISZERO PUSH2 0x7E JUMPI PUSH0 DUP1 REVERT JUMPDEST POP PUSH2 0x87 PUSH2 0x177 JUMP JUMPDEST PUSH1 0x40 MLOAD PUSH2 0x94 SWAP2 SWAP1 PUSH2 0x412 JUMP JUMPDEST PUSH1 0x40 MLOAD DUP1 SWAP2 SUB SWAP1 RETURN JUMPDEST CALLVALUE DUP1 ISZERO PUSH2 0xA8 JUMPI PUSH0 DUP1 REVERT JUMPDEST POP PUSH2 0xB1 PUSH2 0x18A JUMP JUMPDEST PUSH1 0x40 MLOAD PUSH2 0xBE SWAP2 SWAP1 PUSH2 0x443 JUMP JUMPDEST PUSH1 0x40 MLOAD DUP1 SWAP2 SUB SWAP1 RETURN JUMPDEST PUSH2 0xE1 PUSH1 0x4 DUP1 CALLDATASIZE SUB DUP2 ADD SWAP1 PUSH2 0xDC SWAP2 SWAP1 PUSH2 0x48A JUMP JUMPDEST PUSH2 0x222 JUMP JUMPDEST STOP JUMPDEST CALLVALUE DUP1 ISZERO PUSH2 0xEE JUMPI PUSH0 DUP1 REVERT JUMPDEST POP PUSH2 0xF7 PUSH2 0x300 JUMP JUMPDEST PUSH1 0x40 MLOAD PUSH2 0x104 SWAP2 SWAP1 PUSH2 0x4F4 JUMP JUMPDEST PUSH1 0x40 MLOAD DUP1 SWAP2 SUB SWAP1 RETURN JUMPDEST CALLVALUE DUP1 ISZERO PUSH2 0x118 JUMPI PUSH0 DUP1 REVERT JUMPDEST POP PUSH2 0x121 PUSH2 0x323 JUMP JUMPDEST PUSH1 0x40 MLOAD PUSH2 0x12E SWAP2 SWAP1 PUSH2 0x443 JUMP JUMPDEST PUSH1 0x40 MLOAD DUP1 SWAP2 SUB SWAP1 RETURN JUMPDEST CALLVALUE DUP1 ISZERO PUSH2 0x142 JUMPI PUSH0 DUP1 REVERT JUMPDEST POP PUSH2 0x14B PUSH2 0x329 JUMP JUMPDEST STOP JUMPDEST CALLVALUE DUP1 ISZERO PUSH2 0x158 JUMPI PUSH0 DUP1 REVERT JUMPDEST POP PUSH2 0x161 PUSH2 0x3D3 JUMP JUMPDEST PUSH1 0x40 MLOAD PUSH2 0x16E SWAP2 SWAP1 PUSH2 0x4F4 JUMP JUMPDEST PUSH1 0x40 MLOAD DUP1 SWAP2 SUB SWAP1 RETURN JUMPDEST PUSH1 0x2 PUSH1 0x14 SWAP1 SLOAD SWAP1 PUSH2 0x100 EXP SWAP1 DIV PUSH1 0xFF AND DUP2 JUMP JUMPDEST PUSH0 PUSH1 0x2 PUSH0 SWAP1 SLOAD SWAP1 PUSH2 0x100 EXP SWAP1 DIV PUSH20 0xFFFFFFFFFFFFFFFFFFFFFFFFFFFFFFFFFFFFFFFF AND PUSH20 0xFFFFFFFFFFFFFFFFFFFFFFFFFFFFFFFFFFFFFFFF AND CALLER PUSH20 0xFFFFFFFFFFFFFFFFFFFFFFFFFFFFFFFFFFFFFFFF AND EQ PUSH2 0x21A JUMPI PUSH1 0x40 MLOAD PUSH32 0x8C379A000000000000000000000000000000000000000000000000000000000 DUP2 MSTORE PUSH1 0x4 ADD PUSH2 0x211 SWAP1 PUSH2 0x567 JUMP JUMPDEST PUSH1 0x40 MLOAD DUP1 SWAP2 SUB SWAP1 REVERT JUMPDEST PUSH1 0x1 SLOAD SWAP1 POP SWAP1 JUMP JUMPDEST PUSH1 0x2 PUSH1 0x14 SWAP1 SLOAD SWAP1 PUSH2 0x100 EXP SWAP1 DIV PUSH1 0xFF AND ISZERO PUSH2 0x272 JUMPI PUSH1 0x40 MLOAD PUSH32 0x8C379A000000000000000000000000000000000000000000000000000000000 DUP2 MSTORE PUSH1 0x4 ADD PUSH2 0x269 SWAP1 PUSH2 0x5CF JUMP JUMPDEST PUSH1 0x40 MLOAD DUP1 SWAP2 SUB SWAP1 REVERT JUMPDEST DUP1 PUSH1 0x1 DUP2 SWAP1 SSTORE POP PUSH1 0x1 SLOAD CALLVALUE GT PUSH2 0x2BD JUMPI PUSH1 0x40 MLOAD PUSH32 0x8C379A000000000000000000000000000000000000000000000000000000000 DUP2 MSTORE PUSH1 0x4 ADD PUSH2 0x2B4 SWAP1 PUSH2 0x65D JUMP JUMPDEST PUSH1 0x40 MLOAD DUP1 SWAP2 SUB SWAP1 REVERT JUMPDEST CALLER PUSH1 0x2 PUSH0 PUSH2 0x100 EXP DUP2 SLOAD DUP2 PUSH20 0xFFFFFFFFFFFFFFFFFFFFFFFFFFFFFFFFFFFFFFFF MUL NOT AND SWAP1 DUP4 PUSH20 0xFFFFFFFFFFFFFFFFFFFFFFFFFFFFFFFFFFFFFFFF AND MUL OR SWAP1 SSTORE POP POP JUMP JUMPDEST PUSH0 DUP1 SLOAD SWAP1 PUSH2 0x100 EXP SWAP1 DIV PUSH20 0xFFFFFFFFFFFFFFFFFFFFFFFFFFFFFFFFFFFFFFFF AND DUP2 JUMP JUMPDEST PUSH1 0x1 SLOAD DUP2 JUMP JUMPDEST PUSH0 DUP1 SLOAD SWAP1 PUSH2 0x100 EXP SWAP1 DIV PUSH20 0xFFFFFFFFFFFFFFFFFFFFFFFFFFFFFFFFFFFFFFFF AND PUSH20 0xFFFFFFFFFFFFFFFFFFFFFFFFFFFFFFFFFFFFFFFF AND CALLER PUSH20 0xFFFFFFFFFFFFFFFFFFFFFFFFFFFFFFFFFFFFFFFF AND EQ PUSH2 0x3B6 JUMPI PUSH1 0x40 MLOAD PUSH32 0x8C379A000000000000000000000000000000000000000000000000000000000 DUP2 MSTORE PUSH1 0x4 ADD PUSH2 0x3AD SWAP1 PUSH2 0x6C5 JUMP JUMPDEST PUSH1 0x40 MLOAD DUP1 SWAP2 SUB SWAP1 REVERT JUMPDEST PUSH1 0x1 PUSH1 0x2 PUSH1 0x14 PUSH2 0x100 EXP DUP2 SLOAD DUP2 PUSH1 0xFF MUL NOT AND SWAP1 DUP4 ISZERO ISZERO MUL OR SWAP1 SSTORE POP JUMP JUMPDEST PUSH1 0x2 PUSH0 SWAP1 SLOAD SWAP1 PUSH2 0x100 EXP SWAP1 DIV PUSH20 0xFFFFFFFFFFFFFFFFFFFFFFFFFFFFFFFFFFFFFFFF AND DUP2 JUMP JUMPDEST PUSH0 DUP2 ISZERO ISZERO SWAP1 POP SWAP2 SWAP1 POP JUMP JUMPDEST PUSH2 0x40C DUP2 PUSH2 0x3F8 JUMP JUMPDEST DUP3 MSTORE POP POP JUMP JUMPDEST PUSH0 PUSH1 0x20 DUP3 ADD SWAP1 POP PUSH2 0x425 PUSH0 DUP4 ADD DUP5 PUSH2 0x403 JUMP JUMPDEST SWAP3 SWAP2 POP POP JUMP JUMPDEST PUSH0 DUP2 SWAP1 POP SWAP2 SWAP1 POP JUMP JUMPDEST PUSH2 0x43D DUP2 PUSH2 0x42B JUMP JUMPDEST DUP3 MSTORE POP POP JUMP JUMPDEST PUSH0 PUSH1 0x20 DUP3 ADD SWAP1 POP PUSH2 0x456 PUSH0 DUP4 ADD DUP5 PUSH2 0x434 JUMP JUMPDEST SWAP3 SWAP2 POP POP JUMP JUMPDEST PUSH0 DUP1 REVERT JUMPDEST PUSH2 0x469 DUP2 PUSH2 0x42B JUMP JUMPDEST DUP2 EQ PUSH2 0x473 JUMPI PUSH0 DUP1 REVERT JUMPDEST POP JUMP JUMPDEST PUSH0 DUP2 CALLDATALOAD SWAP1 POP PUSH2 0x484 DUP2 PUSH2 0x460 JUMP JUMPDEST SWAP3 SWAP2 POP POP JUMP JUMPDEST PUSH0 PUSH1 0x20 DUP3 DUP5 SUB SLT ISZERO PUSH2 0x49F JUMPI PUSH2 0x49E PUSH2 0x45C JUMP JUMPDEST JUMPDEST PUSH0 PUSH2 0x4AC DUP5 DUP3 DUP6 ADD PUSH2 0x476 JUMP JUMPDEST SWAP2 POP POP SWAP3 SWAP2 POP POP JUMP JUMPDEST PUSH0 PUSH20 0xFFFFFFFFFFFFFFFFFFFFFFFFFFFFFFFFFFFFFFFF DUP3 AND SWAP1 POP SWAP2 SWAP1 POP JUMP JUMPDEST PUSH0 PUSH2 0x4DE DUP3 PUSH2 0x4B5 JUMP JUMPDEST SWAP1 POP SWAP2 SWAP1 POP JUMP JUMPDEST PUSH2 0x4EE DUP2 PUSH2 0x4D4 JUMP JUMPDEST DUP3 MSTORE POP POP JUMP JUMPDEST PUSH0 PUSH1 0x20 DUP3 ADD SWAP1 POP PUSH2 0x507 PUSH0 DUP4 ADD DUP5 PUSH2 0x4E5 JUMP JUMPDEST SWAP3 SWAP2 POP POP JUMP JUMPDEST PUSH0 DUP3 DUP3 MSTORE PUSH1 0x20 DUP3 ADD SWAP1 POP SWAP3 SWAP2 POP POP JUMP JUMPDEST PUSH32 0x6F6E6C792068696768657374206269646465722063616E207769746864726177 PUSH0 DUP3 ADD MSTORE POP JUMP JUMPDEST PUSH0 PUSH2 0x551 PUSH1 0x20 DUP4 PUSH2 0x50D JUMP JUMPDEST SWAP2 POP PUSH2 0x55C DUP3 PUSH2 0x51D JUMP JUMPDEST PUSH1 0x20 DUP3 ADD SWAP1 POP SWAP2 SWAP1 POP JUMP JUMPDEST PUSH0 PUSH1 0x20 DUP3 ADD SWAP1 POP DUP2 DUP2 SUB PUSH0 DUP4 ADD MSTORE PUSH2 0x57E DUP2 PUSH2 0x545 JUMP JUMPDEST SWAP1 POP SWAP2 SWAP1 POP JUMP JUMPDEST PUSH32 0x41756374696F6E2068617320616C726561647920656E64656400000000000000 PUSH0 DUP3 ADD MSTORE POP JUMP JUMPDEST PUSH0 PUSH2 0x5B9 PUSH1 0x19 DUP4 PUSH2 0x50D JUMP JUMPDEST SWAP2 POP PUSH2 0x5C4 DUP3 PUSH2 0x585 JUMP JUMPDEST PUSH1 0x20 DUP3 ADD SWAP1 POP SWAP2 SWAP1 POP JUMP JUMPDEST PUSH0 PUSH1 0x20 DUP3 ADD SWAP1 POP DUP2 DUP2 SUB PUSH0 DUP4 ADD MSTORE PUSH2 0x5E6 DUP2 PUSH2 0x5AD JUMP JUMPDEST SWAP1 POP SWAP2 SWAP1 POP JUMP JUMPDEST PUSH32 0x426964206D7573742062652067726561746572207468656E2063757272656E74 PUSH0 DUP3 ADD MSTORE PUSH32 0x2076616C75650000000000000000000000000000000000000000000000000000 PUSH1 0x20 DUP3 ADD MSTORE POP JUMP JUMPDEST PUSH0 PUSH2 0x647 PUSH1 0x26 DUP4 PUSH2 0x50D JUMP JUMPDEST SWAP2 POP PUSH2 0x652 DUP3 PUSH2 0x5ED JUMP JUMPDEST PUSH1 0x40 DUP3 ADD SWAP1 POP SWAP2 SWAP1 POP JUMP JUMPDEST PUSH0 PUSH1 0x20 DUP3 ADD SWAP1 POP DUP2 DUP2 SUB PUSH0 DUP4 ADD MSTORE PUSH2 0x674 DUP2 PUSH2 0x63B JUMP JUMPDEST SWAP1 POP SWAP2 SWAP1 POP JUMP JUMPDEST PUSH32 0x6F6E6C79206F776E65722063616E20656E640000000000000000000000000000 PUSH0 DUP3 ADD MSTORE POP JUMP JUMPDEST PUSH0 PUSH2 0x6AF PUSH1 0x12 DUP4 PUSH2 0x50D JUMP JUMPDEST SWAP2 POP PUSH2 0x6BA DUP3 PUSH2 0x67B JUMP JUMPDEST PUSH1 0x20 DUP3 ADD SWAP1 POP SWAP2 SWAP1 POP JUMP JUMPDEST PUSH0 PUSH1 0x20 DUP3 ADD SWAP1 POP DUP2 DUP2 SUB PUSH0 DUP4 ADD MSTORE PUSH2 0x6DC DUP2 PUSH2 0x6A3 JUMP JUMPDEST SWAP1 POP SWAP2 SWAP1 POP JUMP INVALID LOG2 PUSH5 0x6970667358 0x22 SLT KECCAK256 PUSH18 0xEBCE6DA828631B8B4EE6A08D7F5A54D09C0 0xA6 LT 0x23 KECCAK256 PUSH19 0x91E7D3646034972E64736F6C634300081A0033 "
				},
				"gasEstimates": {
					"creation": {
						"codeDepositCost": "363400",
						"executionCost": "53991",
						"totalCost": "417391"
					},
					"external": {
						"bid(uint256)": "51129",
						"endA()": "26670",
						"hb()": "2447",
						"hba()": "2574",
						"o()": "2505",
						"oe()": "2518",
						"withdraw()": "4624"
					}
				},
				"methodIdentifiers": {
					"bid(uint256)": "454a2ab3",
					"endA()": "6fe3b0b0",
					"hb()": "5d1a6514",
					"hba()": "a23abb4d",
					"o()": "50cd4df2",
					"oe()": "08bdda19",
					"withdraw()": "3ccfd60b"
				}
			},
			"storageLayout": {
				"storage": [
					{
						"astId": 3,
						"contract": "contracts/auction.sol:AuctionC",
						"label": "o",
						"offset": 0,
						"slot": "0",
						"type": "t_address"
					},
					{
						"astId": 5,
						"contract": "contracts/auction.sol:AuctionC",
						"label": "hb",
						"offset": 0,
						"slot": "1",
						"type": "t_uint256"
					},
					{
						"astId": 7,
						"contract": "contracts/auction.sol:AuctionC",
						"label": "hba",
						"offset": 0,
						"slot": "2",
						"type": "t_address"
					},
					{
						"astId": 9,
						"contract": "contracts/auction.sol:AuctionC",
						"label": "oe",
						"offset": 20,
						"slot": "2",
						"type": "t_bool"
					}
				],
				"types": {
					"t_address": {
						"encoding": "inplace",
						"label": "address",
						"numberOfBytes": "20"
					},
					"t_bool": {
						"encoding": "inplace",
						"label": "bool",
						"numberOfBytes": "1"
					},
					"t_uint256": {
						"encoding": "inplace",
						"label": "uint256",
						"numberOfBytes": "32"
					}
				}
			},
			"userdoc": {
				"kind": "user",
				"methods": {},
				"version": 1
			}
		}
	}
}