{
	"contracts/Practical 8/CalMean.sol": {
		"meanNo": {
			"abi": [
				{
					"inputs": [
						{
							"internalType": "uint256[]",
							"name": "arr",
							"type": "uint256[]"
						}
					],
					"name": "mean",
					"outputs": [
						{
							"internalType": "uint256",
							"name": "",
							"type": "uint256"
						}
					],
					"stateMutability": "pure",
					"type": "function"
				}
			],
			"devdoc": {
				"kind": "dev",
				"methods": {},
				"version": 1
			},
			"evm": {
				"assembly": "    /* \"contracts/Practical 8/CalMean.sol\":115:369  contract meanNo {... */\n  mstore(0x40, 0x80)\n  callvalue\n  dup1\n  iszero\n  tag_1\n  jumpi\n  0x00\n  dup1\n  revert\ntag_1:\n  pop\n  dataSize(sub_0)\n  dup1\n  dataOffset(sub_0)\n  0x00\n  codecopy\n  0x00\n  return\nstop\n\nsub_0: assembly {\n        /* \"contracts/Practical 8/CalMean.sol\":115:369  contract meanNo {... */\n      mstore(0x40, 0x80)\n      callvalue\n      dup1\n      iszero\n      tag_1\n      jumpi\n      0x00\n      dup1\n      revert\n    tag_1:\n      pop\n      jumpi(tag_2, lt(calldatasize, 0x04))\n      shr(0xe0, calldataload(0x00))\n      dup1\n      0x21a90021\n      eq\n      tag_3\n      jumpi\n    tag_2:\n      0x00\n      dup1\n      revert\n        /* \"contracts/Practical 8/CalMean.sol\":137:367  function mean(uint256[] memory arr) public pure returns (uint256) {... */\n    tag_3:\n      tag_4\n      0x04\n      dup1\n      calldatasize\n      sub\n      dup2\n      add\n      swap1\n      tag_5\n      swap2\n      swap1\n      tag_6\n      jump\t// in\n    tag_5:\n      tag_7\n      jump\t// in\n    tag_4:\n      mload(0x40)\n      tag_8\n      swap2\n      swap1\n      tag_9\n      jump\t// in\n    tag_8:\n      mload(0x40)\n      dup1\n      swap2\n      sub\n      swap1\n      return\n    tag_7:\n        /* \"contracts/Practical 8/CalMean.sol\":194:201  uint256 */\n      0x00\n        /* \"contracts/Practical 8/CalMean.sol\":213:224  uint256 res */\n      dup1\n        /* \"contracts/Practical 8/CalMean.sol\":227:228  0 */\n      0x00\n        /* \"contracts/Practical 8/CalMean.sol\":213:228  uint256 res = 0 */\n      swap1\n      pop\n        /* \"contracts/Practical 8/CalMean.sol\":243:252  uint256 i */\n      0x00\n        /* \"contracts/Practical 8/CalMean.sol\":238:322  for (uint256 i = 0; i < arr.length; i++) {... */\n    tag_11:\n        /* \"contracts/Practical 8/CalMean.sol\":262:265  arr */\n      dup4\n        /* \"contracts/Practical 8/CalMean.sol\":262:272  arr.length */\n      mload\n        /* \"contracts/Practical 8/CalMean.sol\":258:259  i */\n      dup2\n        /* \"contracts/Practical 8/CalMean.sol\":258:272  i < arr.length */\n      lt\n        /* \"contracts/Practical 8/CalMean.sol\":238:322  for (uint256 i = 0; i < arr.length; i++) {... */\n      iszero\n      tag_12\n      jumpi\n        /* \"contracts/Practical 8/CalMean.sol\":305:308  arr */\n      dup4\n        /* \"contracts/Practical 8/CalMean.sol\":309:310  i */\n      dup2\n        /* \"contracts/Practical 8/CalMean.sol\":305:311  arr[i] */\n      dup2\n      mload\n      dup2\n      lt\n      tag_14\n      jumpi\n      tag_15\n      tag_16\n      jump\t// in\n    tag_15:\n    tag_14:\n      0x20\n      mul\n      0x20\n      add\n      add\n      mload\n        /* \"contracts/Practical 8/CalMean.sol\":299:302  res */\n      dup3\n        /* \"contracts/Practical 8/CalMean.sol\":299:311  res + arr[i] */\n      tag_17\n      swap2\n      swap1\n      tag_18\n      jump\t// in\n    tag_17:\n        /* \"contracts/Practical 8/CalMean.sol\":293:311  res = res + arr[i] */\n      swap2\n      pop\n        /* \"contracts/Practical 8/CalMean.sol\":274:277  i++ */\n      dup1\n      dup1\n      0x01\n      add\n      swap2\n      pop\n      pop\n        /* \"contracts/Practical 8/CalMean.sol\":238:322  for (uint256 i = 0; i < arr.length; i++) {... */\n      jump(tag_11)\n    tag_12:\n      pop\n        /* \"contracts/Practical 8/CalMean.sol\":350:353  arr */\n      dup3\n        /* \"contracts/Practical 8/CalMean.sol\":350:360  arr.length */\n      mload\n        /* \"contracts/Practical 8/CalMean.sol\":344:347  res */\n      dup2\n        /* \"contracts/Practical 8/CalMean.sol\":344:360  res / arr.length */\n      tag_19\n      swap2\n      swap1\n      tag_20\n      jump\t// in\n    tag_19:\n        /* \"contracts/Practical 8/CalMean.sol\":338:360  res = res / arr.length */\n      swap1\n      pop\n      dup1\n        /* \"contracts/Practical 8/CalMean.sol\":331:360  return res = res / arr.length */\n      swap2\n      pop\n      pop\n        /* \"contracts/Practical 8/CalMean.sol\":137:367  function mean(uint256[] memory arr) public pure returns (uint256) {... */\n      swap2\n      swap1\n      pop\n      jump\t// out\n        /* \"#utility.yul\":7:82   */\n    tag_21:\n        /* \"#utility.yul\":40:46   */\n      0x00\n        /* \"#utility.yul\":73:75   */\n      0x40\n        /* \"#utility.yul\":67:76   */\n      mload\n        /* \"#utility.yul\":57:76   */\n      swap1\n      pop\n        /* \"#utility.yul\":7:82   */\n      swap1\n      jump\t// out\n        /* \"#utility.yul\":88:205   */\n    tag_22:\n        /* \"#utility.yul\":197:198   */\n      0x00\n        /* \"#utility.yul\":194:195   */\n      dup1\n        /* \"#utility.yul\":187:199   */\n      revert\n        /* \"#utility.yul\":211:328   */\n    tag_23:\n        /* \"#utility.yul\":320:321   */\n      0x00\n        /* \"#utility.yul\":317:318   */\n      dup1\n        /* \"#utility.yul\":310:322   */\n      revert\n        /* \"#utility.yul\":334:451   */\n    tag_24:\n        /* \"#utility.yul\":443:444   */\n      0x00\n        /* \"#utility.yul\":440:441   */\n      dup1\n        /* \"#utility.yul\":433:445   */\n      revert\n        /* \"#utility.yul\":457:559   */\n    tag_25:\n        /* \"#utility.yul\":498:504   */\n      0x00\n        /* \"#utility.yul\":549:551   */\n      0x1f\n        /* \"#utility.yul\":545:552   */\n      not\n        /* \"#utility.yul\":540:542   */\n      0x1f\n        /* \"#utility.yul\":533:538   */\n      dup4\n        /* \"#utility.yul\":529:543   */\n      add\n        /* \"#utility.yul\":525:553   */\n      and\n        /* \"#utility.yul\":515:553   */\n      swap1\n      pop\n        /* \"#utility.yul\":457:559   */\n      swap2\n      swap1\n      pop\n      jump\t// out\n        /* \"#utility.yul\":565:745   */\n    tag_26:\n        /* \"#utility.yul\":613:690   */\n      0x4e487b7100000000000000000000000000000000000000000000000000000000\n        /* \"#utility.yul\":610:611   */\n      0x00\n        /* \"#utility.yul\":603:691   */\n      mstore\n        /* \"#utility.yul\":710:714   */\n      0x41\n        /* \"#utility.yul\":707:708   */\n      0x04\n        /* \"#utility.yul\":700:715   */\n      mstore\n        /* \"#utility.yul\":734:738   */\n      0x24\n        /* \"#utility.yul\":731:732   */\n      0x00\n        /* \"#utility.yul\":724:739   */\n      revert\n        /* \"#utility.yul\":751:1032   */\n    tag_27:\n        /* \"#utility.yul\":834:861   */\n      tag_47\n        /* \"#utility.yul\":856:860   */\n      dup3\n        /* \"#utility.yul\":834:861   */\n      tag_25\n      jump\t// in\n    tag_47:\n        /* \"#utility.yul\":826:832   */\n      dup2\n        /* \"#utility.yul\":822:862   */\n      add\n        /* \"#utility.yul\":964:970   */\n      dup2\n        /* \"#utility.yul\":952:962   */\n      dup2\n        /* \"#utility.yul\":949:971   */\n      lt\n        /* \"#utility.yul\":928:946   */\n      0xffffffffffffffff\n        /* \"#utility.yul\":916:926   */\n      dup3\n        /* \"#utility.yul\":913:947   */\n      gt\n        /* \"#utility.yul\":910:972   */\n      or\n        /* \"#utility.yul\":907:995   */\n      iszero\n      tag_48\n      jumpi\n        /* \"#utility.yul\":975:993   */\n      tag_49\n      tag_26\n      jump\t// in\n    tag_49:\n        /* \"#utility.yul\":907:995   */\n    tag_48:\n        /* \"#utility.yul\":1015:1025   */\n      dup1\n        /* \"#utility.yul\":1011:1013   */\n      0x40\n        /* \"#utility.yul\":1004:1026   */\n      mstore\n        /* \"#utility.yul\":794:1032   */\n      pop\n        /* \"#utility.yul\":751:1032   */\n      pop\n      pop\n      jump\t// out\n        /* \"#utility.yul\":1038:1167   */\n    tag_28:\n        /* \"#utility.yul\":1072:1078   */\n      0x00\n        /* \"#utility.yul\":1099:1119   */\n      tag_51\n      tag_21\n      jump\t// in\n    tag_51:\n        /* \"#utility.yul\":1089:1119   */\n      swap1\n      pop\n        /* \"#utility.yul\":1128:1161   */\n      tag_52\n        /* \"#utility.yul\":1156:1160   */\n      dup3\n        /* \"#utility.yul\":1148:1154   */\n      dup3\n        /* \"#utility.yul\":1128:1161   */\n      tag_27\n      jump\t// in\n    tag_52:\n        /* \"#utility.yul\":1038:1167   */\n      swap2\n      swap1\n      pop\n      jump\t// out\n        /* \"#utility.yul\":1173:1484   */\n    tag_29:\n        /* \"#utility.yul\":1250:1254   */\n      0x00\n        /* \"#utility.yul\":1340:1358   */\n      0xffffffffffffffff\n        /* \"#utility.yul\":1332:1338   */\n      dup3\n        /* \"#utility.yul\":1329:1359   */\n      gt\n        /* \"#utility.yul\":1326:1382   */\n      iszero\n      tag_54\n      jumpi\n        /* \"#utility.yul\":1362:1380   */\n      tag_55\n      tag_26\n      jump\t// in\n    tag_55:\n        /* \"#utility.yul\":1326:1382   */\n    tag_54:\n        /* \"#utility.yul\":1412:1416   */\n      0x20\n        /* \"#utility.yul\":1404:1410   */\n      dup3\n        /* \"#utility.yul\":1400:1417   */\n      mul\n        /* \"#utility.yul\":1392:1417   */\n      swap1\n      pop\n        /* \"#utility.yul\":1472:1476   */\n      0x20\n        /* \"#utility.yul\":1466:1470   */\n      dup2\n        /* \"#utility.yul\":1462:1477   */\n      add\n        /* \"#utility.yul\":1454:1477   */\n      swap1\n      pop\n        /* \"#utility.yul\":1173:1484   */\n      swap2\n      swap1\n      pop\n      jump\t// out\n        /* \"#utility.yul\":1490:1607   */\n    tag_30:\n        /* \"#utility.yul\":1599:1600   */\n      0x00\n        /* \"#utility.yul\":1596:1597   */\n      dup1\n        /* \"#utility.yul\":1589:1601   */\n      revert\n        /* \"#utility.yul\":1613:1690   */\n    tag_31:\n        /* \"#utility.yul\":1650:1657   */\n      0x00\n        /* \"#utility.yul\":1679:1684   */\n      dup2\n        /* \"#utility.yul\":1668:1684   */\n      swap1\n      pop\n        /* \"#utility.yul\":1613:1690   */\n      swap2\n      swap1\n      pop\n      jump\t// out\n        /* \"#utility.yul\":1696:1818   */\n    tag_32:\n        /* \"#utility.yul\":1769:1793   */\n      tag_59\n        /* \"#utility.yul\":1787:1792   */\n      dup2\n        /* \"#utility.yul\":1769:1793   */\n      tag_31\n      jump\t// in\n    tag_59:\n        /* \"#utility.yul\":1762:1767   */\n      dup2\n        /* \"#utility.yul\":1759:1794   */\n      eq\n        /* \"#utility.yul\":1749:1812   */\n      tag_60\n      jumpi\n        /* \"#utility.yul\":1808:1809   */\n      0x00\n        /* \"#utility.yul\":1805:1806   */\n      dup1\n        /* \"#utility.yul\":1798:1810   */\n      revert\n        /* \"#utility.yul\":1749:1812   */\n    tag_60:\n        /* \"#utility.yul\":1696:1818   */\n      pop\n      jump\t// out\n        /* \"#utility.yul\":1824:1963   */\n    tag_33:\n        /* \"#utility.yul\":1870:1875   */\n      0x00\n        /* \"#utility.yul\":1908:1914   */\n      dup2\n        /* \"#utility.yul\":1895:1915   */\n      calldataload\n        /* \"#utility.yul\":1886:1915   */\n      swap1\n      pop\n        /* \"#utility.yul\":1924:1957   */\n      tag_62\n        /* \"#utility.yul\":1951:1956   */\n      dup2\n        /* \"#utility.yul\":1924:1957   */\n      tag_32\n      jump\t// in\n    tag_62:\n        /* \"#utility.yul\":1824:1963   */\n      swap3\n      swap2\n      pop\n      pop\n      jump\t// out\n        /* \"#utility.yul\":1986:2696   */\n    tag_34:\n        /* \"#utility.yul\":2082:2087   */\n      0x00\n        /* \"#utility.yul\":2107:2188   */\n      tag_64\n        /* \"#utility.yul\":2123:2187   */\n      tag_65\n        /* \"#utility.yul\":2180:2186   */\n      dup5\n        /* \"#utility.yul\":2123:2187   */\n      tag_29\n      jump\t// in\n    tag_65:\n        /* \"#utility.yul\":2107:2188   */\n      tag_28\n      jump\t// in\n    tag_64:\n        /* \"#utility.yul\":2098:2188   */\n      swap1\n      pop\n        /* \"#utility.yul\":2208:2213   */\n      dup1\n        /* \"#utility.yul\":2237:2243   */\n      dup4\n        /* \"#utility.yul\":2230:2235   */\n      dup3\n        /* \"#utility.yul\":2223:2244   */\n      mstore\n        /* \"#utility.yul\":2271:2275   */\n      0x20\n        /* \"#utility.yul\":2264:2269   */\n      dup3\n        /* \"#utility.yul\":2260:2276   */\n      add\n        /* \"#utility.yul\":2253:2276   */\n      swap1\n      pop\n        /* \"#utility.yul\":2324:2328   */\n      0x20\n        /* \"#utility.yul\":2316:2322   */\n      dup5\n        /* \"#utility.yul\":2312:2329   */\n      mul\n        /* \"#utility.yul\":2304:2310   */\n      dup4\n        /* \"#utility.yul\":2300:2330   */\n      add\n        /* \"#utility.yul\":2353:2356   */\n      dup6\n        /* \"#utility.yul\":2345:2351   */\n      dup2\n        /* \"#utility.yul\":2342:2357   */\n      gt\n        /* \"#utility.yul\":2339:2461   */\n      iszero\n      tag_66\n      jumpi\n        /* \"#utility.yul\":2372:2451   */\n      tag_67\n      tag_30\n      jump\t// in\n    tag_67:\n        /* \"#utility.yul\":2339:2461   */\n    tag_66:\n        /* \"#utility.yul\":2487:2493   */\n      dup4\n        /* \"#utility.yul\":2470:2690   */\n    tag_68:\n        /* \"#utility.yul\":2504:2510   */\n      dup2\n        /* \"#utility.yul\":2499:2502   */\n      dup2\n        /* \"#utility.yul\":2496:2511   */\n      lt\n        /* \"#utility.yul\":2470:2690   */\n      iszero\n      tag_70\n      jumpi\n        /* \"#utility.yul\":2579:2582   */\n      dup1\n        /* \"#utility.yul\":2608:2645   */\n      tag_71\n        /* \"#utility.yul\":2641:2644   */\n      dup9\n        /* \"#utility.yul\":2629:2639   */\n      dup3\n        /* \"#utility.yul\":2608:2645   */\n      tag_33\n      jump\t// in\n    tag_71:\n        /* \"#utility.yul\":2603:2606   */\n      dup5\n        /* \"#utility.yul\":2596:2646   */\n      mstore\n        /* \"#utility.yul\":2675:2679   */\n      0x20\n        /* \"#utility.yul\":2670:2673   */\n      dup5\n        /* \"#utility.yul\":2666:2680   */\n      add\n        /* \"#utility.yul\":2659:2680   */\n      swap4\n      pop\n        /* \"#utility.yul\":2546:2690   */\n      pop\n        /* \"#utility.yul\":2530:2534   */\n      0x20\n        /* \"#utility.yul\":2525:2528   */\n      dup2\n        /* \"#utility.yul\":2521:2535   */\n      add\n        /* \"#utility.yul\":2514:2535   */\n      swap1\n      pop\n        /* \"#utility.yul\":2470:2690   */\n      jump(tag_68)\n    tag_70:\n        /* \"#utility.yul\":2474:2495   */\n      pop\n        /* \"#utility.yul\":2088:2696   */\n      pop\n      pop\n        /* \"#utility.yul\":1986:2696   */\n      swap4\n      swap3\n      pop\n      pop\n      pop\n      jump\t// out\n        /* \"#utility.yul\":2719:3089   */\n    tag_35:\n        /* \"#utility.yul\":2790:2795   */\n      0x00\n        /* \"#utility.yul\":2839:2842   */\n      dup3\n        /* \"#utility.yul\":2832:2836   */\n      0x1f\n        /* \"#utility.yul\":2824:2830   */\n      dup4\n        /* \"#utility.yul\":2820:2837   */\n      add\n        /* \"#utility.yul\":2816:2843   */\n      slt\n        /* \"#utility.yul\":2806:2928   */\n      tag_73\n      jumpi\n        /* \"#utility.yul\":2847:2926   */\n      tag_74\n      tag_24\n      jump\t// in\n    tag_74:\n        /* \"#utility.yul\":2806:2928   */\n    tag_73:\n        /* \"#utility.yul\":2964:2970   */\n      dup2\n        /* \"#utility.yul\":2951:2971   */\n      calldataload\n        /* \"#utility.yul\":2989:3083   */\n      tag_75\n        /* \"#utility.yul\":3079:3082   */\n      dup5\n        /* \"#utility.yul\":3071:3077   */\n      dup3\n        /* \"#utility.yul\":3064:3068   */\n      0x20\n        /* \"#utility.yul\":3056:3062   */\n      dup7\n        /* \"#utility.yul\":3052:3069   */\n      add\n        /* \"#utility.yul\":2989:3083   */\n      tag_34\n      jump\t// in\n    tag_75:\n        /* \"#utility.yul\":2980:3083   */\n      swap2\n      pop\n        /* \"#utility.yul\":2796:3089   */\n      pop\n        /* \"#utility.yul\":2719:3089   */\n      swap3\n      swap2\n      pop\n      pop\n      jump\t// out\n        /* \"#utility.yul\":3095:3634   */\n    tag_6:\n        /* \"#utility.yul\":3179:3185   */\n      0x00\n        /* \"#utility.yul\":3228:3230   */\n      0x20\n        /* \"#utility.yul\":3216:3225   */\n      dup3\n        /* \"#utility.yul\":3207:3214   */\n      dup5\n        /* \"#utility.yul\":3203:3226   */\n      sub\n        /* \"#utility.yul\":3199:3231   */\n      slt\n        /* \"#utility.yul\":3196:3315   */\n      iszero\n      tag_77\n      jumpi\n        /* \"#utility.yul\":3234:3313   */\n      tag_78\n      tag_22\n      jump\t// in\n    tag_78:\n        /* \"#utility.yul\":3196:3315   */\n    tag_77:\n        /* \"#utility.yul\":3382:3383   */\n      0x00\n        /* \"#utility.yul\":3371:3380   */\n      dup3\n        /* \"#utility.yul\":3367:3384   */\n      add\n        /* \"#utility.yul\":3354:3385   */\n      calldataload\n        /* \"#utility.yul\":3412:3430   */\n      0xffffffffffffffff\n        /* \"#utility.yul\":3404:3410   */\n      dup2\n        /* \"#utility.yul\":3401:3431   */\n      gt\n        /* \"#utility.yul\":3398:3515   */\n      iszero\n      tag_79\n      jumpi\n        /* \"#utility.yul\":3434:3513   */\n      tag_80\n      tag_23\n      jump\t// in\n    tag_80:\n        /* \"#utility.yul\":3398:3515   */\n    tag_79:\n        /* \"#utility.yul\":3539:3617   */\n      tag_81\n        /* \"#utility.yul\":3609:3616   */\n      dup5\n        /* \"#utility.yul\":3600:3606   */\n      dup3\n        /* \"#utility.yul\":3589:3598   */\n      dup6\n        /* \"#utility.yul\":3585:3607   */\n      add\n        /* \"#utility.yul\":3539:3617   */\n      tag_35\n      jump\t// in\n    tag_81:\n        /* \"#utility.yul\":3529:3617   */\n      swap2\n      pop\n        /* \"#utility.yul\":3325:3627   */\n      pop\n        /* \"#utility.yul\":3095:3634   */\n      swap3\n      swap2\n      pop\n      pop\n      jump\t// out\n        /* \"#utility.yul\":3640:3758   */\n    tag_36:\n        /* \"#utility.yul\":3727:3751   */\n      tag_83\n        /* \"#utility.yul\":3745:3750   */\n      dup2\n        /* \"#utility.yul\":3727:3751   */\n      tag_31\n      jump\t// in\n    tag_83:\n        /* \"#utility.yul\":3722:3725   */\n      dup3\n        /* \"#utility.yul\":3715:3752   */\n      mstore\n        /* \"#utility.yul\":3640:3758   */\n      pop\n      pop\n      jump\t// out\n        /* \"#utility.yul\":3764:3986   */\n    tag_9:\n        /* \"#utility.yul\":3857:3861   */\n      0x00\n        /* \"#utility.yul\":3895:3897   */\n      0x20\n        /* \"#utility.yul\":3884:3893   */\n      dup3\n        /* \"#utility.yul\":3880:3898   */\n      add\n        /* \"#utility.yul\":3872:3898   */\n      swap1\n      pop\n        /* \"#utility.yul\":3908:3979   */\n      tag_85\n        /* \"#utility.yul\":3976:3977   */\n      0x00\n        /* \"#utility.yul\":3965:3974   */\n      dup4\n        /* \"#utility.yul\":3961:3978   */\n      add\n        /* \"#utility.yul\":3952:3958   */\n      dup5\n        /* \"#utility.yul\":3908:3979   */\n      tag_36\n      jump\t// in\n    tag_85:\n        /* \"#utility.yul\":3764:3986   */\n      swap3\n      swap2\n      pop\n      pop\n      jump\t// out\n        /* \"#utility.yul\":3992:4172   */\n    tag_16:\n        /* \"#utility.yul\":4040:4117   */\n      0x4e487b7100000000000000000000000000000000000000000000000000000000\n        /* \"#utility.yul\":4037:4038   */\n      0x00\n        /* \"#utility.yul\":4030:4118   */\n      mstore\n        /* \"#utility.yul\":4137:4141   */\n      0x32\n        /* \"#utility.yul\":4134:4135   */\n      0x04\n        /* \"#utility.yul\":4127:4142   */\n      mstore\n        /* \"#utility.yul\":4161:4165   */\n      0x24\n        /* \"#utility.yul\":4158:4159   */\n      0x00\n        /* \"#utility.yul\":4151:4166   */\n      revert\n        /* \"#utility.yul\":4178:4358   */\n    tag_37:\n        /* \"#utility.yul\":4226:4303   */\n      0x4e487b7100000000000000000000000000000000000000000000000000000000\n        /* \"#utility.yul\":4223:4224   */\n      0x00\n        /* \"#utility.yul\":4216:4304   */\n      mstore\n        /* \"#utility.yul\":4323:4327   */\n      0x11\n        /* \"#utility.yul\":4320:4321   */\n      0x04\n        /* \"#utility.yul\":4313:4328   */\n      mstore\n        /* \"#utility.yul\":4347:4351   */\n      0x24\n        /* \"#utility.yul\":4344:4345   */\n      0x00\n        /* \"#utility.yul\":4337:4352   */\n      revert\n        /* \"#utility.yul\":4364:4555   */\n    tag_18:\n        /* \"#utility.yul\":4404:4407   */\n      0x00\n        /* \"#utility.yul\":4423:4443   */\n      tag_89\n        /* \"#utility.yul\":4441:4442   */\n      dup3\n        /* \"#utility.yul\":4423:4443   */\n      tag_31\n      jump\t// in\n    tag_89:\n        /* \"#utility.yul\":4418:4443   */\n      swap2\n      pop\n        /* \"#utility.yul\":4457:4477   */\n      tag_90\n        /* \"#utility.yul\":4475:4476   */\n      dup4\n        /* \"#utility.yul\":4457:4477   */\n      tag_31\n      jump\t// in\n    tag_90:\n        /* \"#utility.yul\":4452:4477   */\n      swap3\n      pop\n        /* \"#utility.yul\":4500:4501   */\n      dup3\n        /* \"#utility.yul\":4497:4498   */\n      dup3\n        /* \"#utility.yul\":4493:4502   */\n      add\n        /* \"#utility.yul\":4486:4502   */\n      swap1\n      pop\n        /* \"#utility.yul\":4521:4524   */\n      dup1\n        /* \"#utility.yul\":4518:4519   */\n      dup3\n        /* \"#utility.yul\":4515:4525   */\n      gt\n        /* \"#utility.yul\":4512:4548   */\n      iszero\n      tag_91\n      jumpi\n        /* \"#utility.yul\":4528:4546   */\n      tag_92\n      tag_37\n      jump\t// in\n    tag_92:\n        /* \"#utility.yul\":4512:4548   */\n    tag_91:\n        /* \"#utility.yul\":4364:4555   */\n      swap3\n      swap2\n      pop\n      pop\n      jump\t// out\n        /* \"#utility.yul\":4561:4741   */\n    tag_38:\n        /* \"#utility.yul\":4609:4686   */\n      0x4e487b7100000000000000000000000000000000000000000000000000000000\n        /* \"#utility.yul\":4606:4607   */\n      0x00\n        /* \"#utility.yul\":4599:4687   */\n      mstore\n        /* \"#utility.yul\":4706:4710   */\n      0x12\n        /* \"#utility.yul\":4703:4704   */\n      0x04\n        /* \"#utility.yul\":4696:4711   */\n      mstore\n        /* \"#utility.yul\":4730:4734   */\n      0x24\n        /* \"#utility.yul\":4727:4728   */\n      0x00\n        /* \"#utility.yul\":4720:4735   */\n      revert\n        /* \"#utility.yul\":4747:4932   */\n    tag_20:\n        /* \"#utility.yul\":4787:4788   */\n      0x00\n        /* \"#utility.yul\":4804:4824   */\n      tag_95\n        /* \"#utility.yul\":4822:4823   */\n      dup3\n        /* \"#utility.yul\":4804:4824   */\n      tag_31\n      jump\t// in\n    tag_95:\n        /* \"#utility.yul\":4799:4824   */\n      swap2\n      pop\n        /* \"#utility.yul\":4838:4858   */\n      tag_96\n        /* \"#utility.yul\":4856:4857   */\n      dup4\n        /* \"#utility.yul\":4838:4858   */\n      tag_31\n      jump\t// in\n    tag_96:\n        /* \"#utility.yul\":4833:4858   */\n      swap3\n      pop\n        /* \"#utility.yul\":4877:4878   */\n      dup3\n        /* \"#utility.yul\":4867:4902   */\n      tag_97\n      jumpi\n        /* \"#utility.yul\":4882:4900   */\n      tag_98\n      tag_38\n      jump\t// in\n    tag_98:\n        /* \"#utility.yul\":4867:4902   */\n    tag_97:\n        /* \"#utility.yul\":4924:4925   */\n      dup3\n        /* \"#utility.yul\":4921:4922   */\n      dup3\n        /* \"#utility.yul\":4917:4926   */\n      div\n        /* \"#utility.yul\":4912:4926   */\n      swap1\n      pop\n        /* \"#utility.yul\":4747:4932   */\n      swap3\n      swap2\n      pop\n      pop\n      jump\t// out\n\n    auxdata: 0xa2646970667358221220dd9b87ddd095b3290522d931d8a6badcee5ec3dc20784e928ae40bceb58e98ee64736f6c634300081a0033\n}\n",
				"bytecode": {
					"linkReferences": {},
					"object": "6080604052348015600e575f80fd5b506103de8061001c5f395ff3fe608060405234801561000f575f80fd5b5060043610610029575f3560e01c806321a900211461002d575b5f80fd5b6100476004803603810190610042919061024f565b61005d565b60405161005491906102a5565b60405180910390f35b5f805f90505f5b83518110156100a2578381815181106100805761007f6102be565b5b6020026020010151826100939190610318565b91508080600101915050610064565b508251816100b09190610378565b905080915050919050565b5f604051905090565b5f80fd5b5f80fd5b5f80fd5b5f601f19601f8301169050919050565b7f4e487b71000000000000000000000000000000000000000000000000000000005f52604160045260245ffd5b610116826100d0565b810181811067ffffffffffffffff82111715610135576101346100e0565b5b80604052505050565b5f6101476100bb565b9050610153828261010d565b919050565b5f67ffffffffffffffff821115610172576101716100e0565b5b602082029050602081019050919050565b5f80fd5b5f819050919050565b61019981610187565b81146101a3575f80fd5b50565b5f813590506101b481610190565b92915050565b5f6101cc6101c784610158565b61013e565b905080838252602082019050602084028301858111156101ef576101ee610183565b5b835b81811015610218578061020488826101a6565b8452602084019350506020810190506101f1565b5050509392505050565b5f82601f830112610236576102356100cc565b5b81356102468482602086016101ba565b91505092915050565b5f60208284031215610264576102636100c4565b5b5f82013567ffffffffffffffff811115610281576102806100c8565b5b61028d84828501610222565b91505092915050565b61029f81610187565b82525050565b5f6020820190506102b85f830184610296565b92915050565b7f4e487b71000000000000000000000000000000000000000000000000000000005f52603260045260245ffd5b7f4e487b71000000000000000000000000000000000000000000000000000000005f52601160045260245ffd5b5f61032282610187565b915061032d83610187565b9250828201905080821115610345576103446102eb565b5b92915050565b7f4e487b71000000000000000000000000000000000000000000000000000000005f52601260045260245ffd5b5f61038282610187565b915061038d83610187565b92508261039d5761039c61034b565b5b82820490509291505056fea2646970667358221220dd9b87ddd095b3290522d931d8a6badcee5ec3dc20784e928ae40bceb58e98ee64736f6c634300081a0033",
					"opcodes": "PUSH1 0x80 PUSH1 0x40 MSTORE CALLVALUE DUP1 ISZERO PUSH1 0xE JUMPI PUSH0 DUP1 REVERT JUMPDEST POP PUSH2 0x3DE DUP1 PUSH2 0x1C PUSH0 CODECOPY PUSH0 RETURN INVALID PUSH1 0x80 PUSH1 0x40 MSTORE CALLVALUE DUP1 ISZERO PUSH2 0xF JUMPI PUSH0 DUP1 REVERT JUMPDEST POP PUSH1 0x4 CALLDATASIZE LT PUSH2 0x29 JUMPI PUSH0 CALLDATALOAD PUSH1 0xE0 SHR DUP1 PUSH4 0x21A90021 EQ PUSH2 0x2D JUMPI JUMPDEST PUSH0 DUP1 REVERT JUMPDEST PUSH2 0x47 PUSH1 0x4 DUP1 CALLDATASIZE SUB DUP2 ADD SWAP1 PUSH2 0x42 SWAP2 SWAP1 PUSH2 0x24F JUMP JUMPDEST PUSH2 0x5D JUMP JUMPDEST PUSH1 0x40 MLOAD PUSH2 0x54 SWAP2 SWAP1 PUSH2 0x2A5 JUMP JUMPDEST PUSH1 0x40 MLOAD DUP1 SWAP2 SUB SWAP1 RETURN JUMPDEST PUSH0 DUP1 PUSH0 SWAP1 POP PUSH0 JUMPDEST DUP4 MLOAD DUP2 LT ISZERO PUSH2 0xA2 JUMPI DUP4 DUP2 DUP2 MLOAD DUP2 LT PUSH2 0x80 JUMPI PUSH2 0x7F PUSH2 0x2BE JUMP JUMPDEST JUMPDEST PUSH1 0x20 MUL PUSH1 0x20 ADD ADD MLOAD DUP3 PUSH2 0x93 SWAP2 SWAP1 PUSH2 0x318 JUMP JUMPDEST SWAP2 POP DUP1 DUP1 PUSH1 0x1 ADD SWAP2 POP POP PUSH2 0x64 JUMP JUMPDEST POP DUP3 MLOAD DUP2 PUSH2 0xB0 SWAP2 SWAP1 PUSH2 0x378 JUMP JUMPDEST SWAP1 POP DUP1 SWAP2 POP POP SWAP2 SWAP1 POP JUMP JUMPDEST PUSH0 PUSH1 0x40 MLOAD SWAP1 POP SWAP1 JUMP JUMPDEST PUSH0 DUP1 REVERT JUMPDEST PUSH0 DUP1 REVERT JUMPDEST PUSH0 DUP1 REVERT JUMPDEST PUSH0 PUSH1 0x1F NOT PUSH1 0x1F DUP4 ADD AND SWAP1 POP SWAP2 SWAP1 POP JUMP JUMPDEST PUSH32 0x4E487B7100000000000000000000000000000000000000000000000000000000 PUSH0 MSTORE PUSH1 0x41 PUSH1 0x4 MSTORE PUSH1 0x24 PUSH0 REVERT JUMPDEST PUSH2 0x116 DUP3 PUSH2 0xD0 JUMP JUMPDEST DUP2 ADD DUP2 DUP2 LT PUSH8 0xFFFFFFFFFFFFFFFF DUP3 GT OR ISZERO PUSH2 0x135 JUMPI PUSH2 0x134 PUSH2 0xE0 JUMP JUMPDEST JUMPDEST DUP1 PUSH1 0x40 MSTORE POP POP POP JUMP JUMPDEST PUSH0 PUSH2 0x147 PUSH2 0xBB JUMP JUMPDEST SWAP1 POP PUSH2 0x153 DUP3 DUP3 PUSH2 0x10D JUMP JUMPDEST SWAP2 SWAP1 POP JUMP JUMPDEST PUSH0 PUSH8 0xFFFFFFFFFFFFFFFF DUP3 GT ISZERO PUSH2 0x172 JUMPI PUSH2 0x171 PUSH2 0xE0 JUMP JUMPDEST JUMPDEST PUSH1 0x20 DUP3 MUL SWAP1 POP PUSH1 0x20 DUP2 ADD SWAP1 POP SWAP2 SWAP1 POP JUMP JUMPDEST PUSH0 DUP1 REVERT JUMPDEST PUSH0 DUP2 SWAP1 POP SWAP2 SWAP1 POP JUMP JUMPDEST PUSH2 0x199 DUP2 PUSH2 0x187 JUMP JUMPDEST DUP2 EQ PUSH2 0x1A3 JUMPI PUSH0 DUP1 REVERT JUMPDEST POP JUMP JUMPDEST PUSH0 DUP2 CALLDATALOAD SWAP1 POP PUSH2 0x1B4 DUP2 PUSH2 0x190 JUMP JUMPDEST SWAP3 SWAP2 POP POP JUMP JUMPDEST PUSH0 PUSH2 0x1CC PUSH2 0x1C7 DUP5 PUSH2 0x158 JUMP JUMPDEST PUSH2 0x13E JUMP JUMPDEST SWAP1 POP DUP1 DUP4 DUP3 MSTORE PUSH1 0x20 DUP3 ADD SWAP1 POP PUSH1 0x20 DUP5 MUL DUP4 ADD DUP6 DUP2 GT ISZERO PUSH2 0x1EF JUMPI PUSH2 0x1EE PUSH2 0x183 JUMP JUMPDEST JUMPDEST DUP4 JUMPDEST DUP2 DUP2 LT ISZERO PUSH2 0x218 JUMPI DUP1 PUSH2 0x204 DUP9 DUP3 PUSH2 0x1A6 JUMP JUMPDEST DUP5 MSTORE PUSH1 0x20 DUP5 ADD SWAP4 POP POP PUSH1 0x20 DUP2 ADD SWAP1 POP PUSH2 0x1F1 JUMP JUMPDEST POP POP POP SWAP4 SWAP3 POP POP POP JUMP JUMPDEST PUSH0 DUP3 PUSH1 0x1F DUP4 ADD SLT PUSH2 0x236 JUMPI PUSH2 0x235 PUSH2 0xCC JUMP JUMPDEST JUMPDEST DUP2 CALLDATALOAD PUSH2 0x246 DUP5 DUP3 PUSH1 0x20 DUP7 ADD PUSH2 0x1BA JUMP JUMPDEST SWAP2 POP POP SWAP3 SWAP2 POP POP JUMP JUMPDEST PUSH0 PUSH1 0x20 DUP3 DUP5 SUB SLT ISZERO PUSH2 0x264 JUMPI PUSH2 0x263 PUSH2 0xC4 JUMP JUMPDEST JUMPDEST PUSH0 DUP3 ADD CALLDATALOAD PUSH8 0xFFFFFFFFFFFFFFFF DUP2 GT ISZERO PUSH2 0x281 JUMPI PUSH2 0x280 PUSH2 0xC8 JUMP JUMPDEST JUMPDEST PUSH2 0x28D DUP5 DUP3 DUP6 ADD PUSH2 0x222 JUMP JUMPDEST SWAP2 POP POP SWAP3 SWAP2 POP POP JUMP JUMPDEST PUSH2 0x29F DUP2 PUSH2 0x187 JUMP JUMPDEST DUP3 MSTORE POP POP JUMP JUMPDEST PUSH0 PUSH1 0x20 DUP3 ADD SWAP1 POP PUSH2 0x2B8 PUSH0 DUP4 ADD DUP5 PUSH2 0x296 JUMP JUMPDEST SWAP3 SWAP2 POP POP JUMP JUMPDEST PUSH32 0x4E487B7100000000000000000000000000000000000000000000000000000000 PUSH0 MSTORE PUSH1 0x32 PUSH1 0x4 MSTORE PUSH1 0x24 PUSH0 REVERT JUMPDEST PUSH32 0x4E487B7100000000000000000000000000000000000000000000000000000000 PUSH0 MSTORE PUSH1 0x11 PUSH1 0x4 MSTORE PUSH1 0x24 PUSH0 REVERT JUMPDEST PUSH0 PUSH2 0x322 DUP3 PUSH2 0x187 JUMP JUMPDEST SWAP2 POP PUSH2 0x32D DUP4 PUSH2 0x187 JUMP JUMPDEST SWAP3 POP DUP3 DUP3 ADD SWAP1 POP DUP1 DUP3 GT ISZERO PUSH2 0x345 JUMPI PUSH2 0x344 PUSH2 0x2EB JUMP JUMPDEST JUMPDEST SWAP3 SWAP2 POP POP JUMP JUMPDEST PUSH32 0x4E487B7100000000000000000000000000000000000000000000000000000000 PUSH0 MSTORE PUSH1 0x12 PUSH1 0x4 MSTORE PUSH1 0x24 PUSH0 REVERT JUMPDEST PUSH0 PUSH2 0x382 DUP3 PUSH2 0x187 JUMP JUMPDEST SWAP2 POP PUSH2 0x38D DUP4 PUSH2 0x187 JUMP JUMPDEST SWAP3 POP DUP3 PUSH2 0x39D JUMPI PUSH2 0x39C PUSH2 0x34B JUMP JUMPDEST JUMPDEST DUP3 DUP3 DIV SWAP1 POP SWAP3 SWAP2 POP POP JUMP INVALID LOG2 PUSH5 0x6970667358 0x22 SLT KECCAK256 0xDD SWAP12 DUP8 0xDD 0xD0 SWAP6 0xB3 0x29 SDIV 0x22 0xD9 BALANCE 0xD8 0xA6 0xBA 0xDC 0xEE MCOPY 0xC3 0xDC KECCAK256 PUSH25 0x4E928AE40BCEB58E98EE64736F6C634300081A003300000000 "
				},
				"gasEstimates": {
					"creation": {
						"codeDepositCost": "198000",
						"executionCost": "236",
						"totalCost": "198236"
					},
					"external": {
						"mean(uint256[])": "infinite"
					}
				},
				"methodIdentifiers": {
					"mean(uint256[])": "21a90021"
				}
			},
			"storageLayout": {
				"storage": [],
				"types": null
			},
			"userdoc": {
				"kind": "user",
				"methods": {},
				"version": 1
			}
		}
	}
}