{
	"contracts/Practical 8/RegisterStudent.sol": {
		"studentC": {
			"abi": [
				{
					"inputs": [
						{
							"internalType": "uint256",
							"name": "i",
							"type": "uint256"
						},
						{
							"internalType": "string",
							"name": "n",
							"type": "string"
						},
						{
							"internalType": "uint256",
							"name": "b",
							"type": "uint256"
						},
						{
							"internalType": "uint256",
							"name": "m",
							"type": "uint256"
						},
						{
							"internalType": "uint256",
							"name": "a",
							"type": "uint256"
						}
					],
					"name": "register",
					"outputs": [],
					"stateMutability": "nonpayable",
					"type": "function"
				},
				{
					"inputs": [
						{
							"internalType": "uint256",
							"name": "",
							"type": "uint256"
						}
					],
					"name": "student",
					"outputs": [
						{
							"internalType": "uint256",
							"name": "sid",
							"type": "uint256"
						},
						{
							"internalType": "string",
							"name": "name",
							"type": "string"
						},
						{
							"internalType": "address",
							"name": "addr",
							"type": "address"
						},
						{
							"internalType": "uint256",
							"name": "BCT",
							"type": "uint256"
						},
						{
							"internalType": "uint256",
							"name": "ML",
							"type": "uint256"
						},
						{
							"internalType": "uint256",
							"name": "BDA",
							"type": "uint256"
						},
						{
							"internalType": "uint256",
							"name": "percent",
							"type": "uint256"
						},
						{
							"internalType": "string",
							"name": "grade",
							"type": "string"
						}
					],
					"stateMutability": "view",
					"type": "function"
				}
			],
			"devdoc": {
				"kind": "dev",
				"methods": {},
				"version": 1
			},
			"evm": {
				"assembly": "    /* \"contracts/Practical 8/RegisterStudent.sol\":217:1144  contract studentC {... */\n  mstore(0x40, 0x80)\n  callvalue\n  dup1\n  iszero\n  tag_1\n  jumpi\n  0x00\n  dup1\n  revert\ntag_1:\n  pop\n  dataSize(sub_0)\n  dup1\n  dataOffset(sub_0)\n  0x00\n  codecopy\n  0x00\n  return\nstop\n\nsub_0: assembly {\n        /* \"contracts/Practical 8/RegisterStudent.sol\":217:1144  contract studentC {... */\n      mstore(0x40, 0x80)\n      callvalue\n      dup1\n      iszero\n      tag_1\n      jumpi\n      0x00\n      dup1\n      revert\n    tag_1:\n      pop\n      jumpi(tag_2, lt(calldatasize, 0x04))\n      shr(0xe0, calldataload(0x00))\n      dup1\n      0x35f34232\n      eq\n      tag_3\n      jumpi\n      dup1\n      0xe546c001\n      eq\n      tag_4\n      jumpi\n    tag_2:\n      0x00\n      dup1\n      revert\n        /* \"contracts/Practical 8/RegisterStudent.sol\":437:475  mapping(uint256 => std) public student */\n    tag_3:\n      tag_5\n      0x04\n      dup1\n      calldatasize\n      sub\n      dup2\n      add\n      swap1\n      tag_6\n      swap2\n      swap1\n      tag_7\n      jump\t// in\n    tag_6:\n      tag_8\n      jump\t// in\n    tag_5:\n      mload(0x40)\n      tag_9\n      swap9\n      swap8\n      swap7\n      swap6\n      swap5\n      swap4\n      swap3\n      swap2\n      swap1\n      tag_10\n      jump\t// in\n    tag_9:\n      mload(0x40)\n      dup1\n      swap2\n      sub\n      swap1\n      return\n        /* \"contracts/Practical 8/RegisterStudent.sol\":482:1142  function register(... */\n    tag_4:\n      tag_11\n      0x04\n      dup1\n      calldatasize\n      sub\n      dup2\n      add\n      swap1\n      tag_12\n      swap2\n      swap1\n      tag_13\n      jump\t// in\n    tag_12:\n      tag_14\n      jump\t// in\n    tag_11:\n      stop\n        /* \"contracts/Practical 8/RegisterStudent.sol\":437:475  mapping(uint256 => std) public student */\n    tag_8:\n      mstore(0x20, 0x00)\n      dup1\n      0x00\n      mstore\n      keccak256(0x00, 0x40)\n      0x00\n      swap2\n      pop\n      swap1\n      pop\n      dup1\n      0x00\n      add\n      sload\n      swap1\n      dup1\n      0x01\n      add\n      dup1\n      sload\n      tag_15\n      swap1\n      tag_16\n      jump\t// in\n    tag_15:\n      dup1\n      0x1f\n      add\n      0x20\n      dup1\n      swap2\n      div\n      mul\n      0x20\n      add\n      mload(0x40)\n      swap1\n      dup2\n      add\n      0x40\n      mstore\n      dup1\n      swap3\n      swap2\n      swap1\n      dup2\n      dup2\n      mstore\n      0x20\n      add\n      dup3\n      dup1\n      sload\n      tag_17\n      swap1\n      tag_16\n      jump\t// in\n    tag_17:\n      dup1\n      iszero\n      tag_18\n      jumpi\n      dup1\n      0x1f\n      lt\n      tag_19\n      jumpi\n      0x0100\n      dup1\n      dup4\n      sload\n      div\n      mul\n      dup4\n      mstore\n      swap2\n      0x20\n      add\n      swap2\n      jump(tag_18)\n    tag_19:\n      dup3\n      add\n      swap2\n      swap1\n      0x00\n      mstore\n      keccak256(0x00, 0x20)\n      swap1\n    tag_20:\n      dup2\n      sload\n      dup2\n      mstore\n      swap1\n      0x01\n      add\n      swap1\n      0x20\n      add\n      dup1\n      dup4\n      gt\n      tag_20\n      jumpi\n      dup3\n      swap1\n      sub\n      0x1f\n      and\n      dup3\n      add\n      swap2\n    tag_18:\n      pop\n      pop\n      pop\n      pop\n      pop\n      swap1\n      dup1\n      0x02\n      add\n      0x00\n      swap1\n      sload\n      swap1\n      0x0100\n      exp\n      swap1\n      div\n      0xffffffffffffffffffffffffffffffffffffffff\n      and\n      swap1\n      dup1\n      0x03\n      add\n      sload\n      swap1\n      dup1\n      0x04\n      add\n      sload\n      swap1\n      dup1\n      0x05\n      add\n      sload\n      swap1\n      dup1\n      0x06\n      add\n      sload\n      swap1\n      dup1\n      0x07\n      add\n      dup1\n      sload\n      tag_21\n      swap1\n      tag_16\n      jump\t// in\n    tag_21:\n      dup1\n      0x1f\n      add\n      0x20\n      dup1\n      swap2\n      div\n      mul\n      0x20\n      add\n      mload(0x40)\n      swap1\n      dup2\n      add\n      0x40\n      mstore\n      dup1\n      swap3\n      swap2\n      swap1\n      dup2\n      dup2\n      mstore\n      0x20\n      add\n      dup3\n      dup1\n      sload\n      tag_22\n      swap1\n      tag_16\n      jump\t// in\n    tag_22:\n      dup1\n      iszero\n      tag_23\n      jumpi\n      dup1\n      0x1f\n      lt\n      tag_24\n      jumpi\n      0x0100\n      dup1\n      dup4\n      sload\n      div\n      mul\n      dup4\n      mstore\n      swap2\n      0x20\n      add\n      swap2\n      jump(tag_23)\n    tag_24:\n      dup3\n      add\n      swap2\n      swap1\n      0x00\n      mstore\n      keccak256(0x00, 0x20)\n      swap1\n    tag_25:\n      dup2\n      sload\n      dup2\n      mstore\n      swap1\n      0x01\n      add\n      swap1\n      0x20\n      add\n      dup1\n      dup4\n      gt\n      tag_25\n      jumpi\n      dup3\n      swap1\n      sub\n      0x1f\n      and\n      dup3\n      add\n      swap2\n    tag_23:\n      pop\n      pop\n      pop\n      pop\n      pop\n      swap1\n      pop\n      dup9\n      jump\t// out\n        /* \"contracts/Practical 8/RegisterStudent.sol\":482:1142  function register(... */\n    tag_14:\n        /* \"contracts/Practical 8/RegisterStudent.sol\":642:643  n */\n      dup4\n        /* \"contracts/Practical 8/RegisterStudent.sol\":624:631  student */\n      0x00\n        /* \"contracts/Practical 8/RegisterStudent.sol\":624:634  student[i] */\n      dup1\n        /* \"contracts/Practical 8/RegisterStudent.sol\":632:633  i */\n      dup8\n        /* \"contracts/Practical 8/RegisterStudent.sol\":624:634  student[i] */\n      dup2\n      mstore\n      0x20\n      add\n      swap1\n      dup2\n      mstore\n      0x20\n      add\n      0x00\n      keccak256\n        /* \"contracts/Practical 8/RegisterStudent.sol\":624:639  student[i].name */\n      0x01\n      add\n        /* \"contracts/Practical 8/RegisterStudent.sol\":624:643  student[i].name = n */\n      swap1\n      dup2\n      tag_27\n      swap2\n      swap1\n      tag_28\n      jump\t// in\n    tag_27:\n      pop\n        /* \"contracts/Practical 8/RegisterStudent.sol\":671:681  msg.sender */\n      caller\n        /* \"contracts/Practical 8/RegisterStudent.sol\":653:660  student */\n      0x00\n        /* \"contracts/Practical 8/RegisterStudent.sol\":653:663  student[i] */\n      dup1\n        /* \"contracts/Practical 8/RegisterStudent.sol\":661:662  i */\n      dup8\n        /* \"contracts/Practical 8/RegisterStudent.sol\":653:663  student[i] */\n      dup2\n      mstore\n      0x20\n      add\n      swap1\n      dup2\n      mstore\n      0x20\n      add\n      0x00\n      keccak256\n        /* \"contracts/Practical 8/RegisterStudent.sol\":653:668  student[i].addr */\n      0x02\n      add\n      0x00\n        /* \"contracts/Practical 8/RegisterStudent.sol\":653:681  student[i].addr = msg.sender */\n      0x0100\n      exp\n      dup2\n      sload\n      dup2\n      0xffffffffffffffffffffffffffffffffffffffff\n      mul\n      not\n      and\n      swap1\n      dup4\n      0xffffffffffffffffffffffffffffffffffffffff\n      and\n      mul\n      or\n      swap1\n      sstore\n      pop\n        /* \"contracts/Practical 8/RegisterStudent.sol\":708:709  i */\n      dup5\n        /* \"contracts/Practical 8/RegisterStudent.sol\":691:698  student */\n      0x00\n        /* \"contracts/Practical 8/RegisterStudent.sol\":691:701  student[i] */\n      dup1\n        /* \"contracts/Practical 8/RegisterStudent.sol\":699:700  i */\n      dup8\n        /* \"contracts/Practical 8/RegisterStudent.sol\":691:701  student[i] */\n      dup2\n      mstore\n      0x20\n      add\n      swap1\n      dup2\n      mstore\n      0x20\n      add\n      0x00\n      keccak256\n        /* \"contracts/Practical 8/RegisterStudent.sol\":691:705  student[i].sid */\n      0x00\n      add\n        /* \"contracts/Practical 8/RegisterStudent.sol\":691:709  student[i].sid = i */\n      dup2\n      swap1\n      sstore\n      pop\n        /* \"contracts/Practical 8/RegisterStudent.sol\":736:737  b */\n      dup3\n        /* \"contracts/Practical 8/RegisterStudent.sol\":719:726  student */\n      0x00\n        /* \"contracts/Practical 8/RegisterStudent.sol\":719:729  student[i] */\n      dup1\n        /* \"contracts/Practical 8/RegisterStudent.sol\":727:728  i */\n      dup8\n        /* \"contracts/Practical 8/RegisterStudent.sol\":719:729  student[i] */\n      dup2\n      mstore\n      0x20\n      add\n      swap1\n      dup2\n      mstore\n      0x20\n      add\n      0x00\n      keccak256\n        /* \"contracts/Practical 8/RegisterStudent.sol\":719:733  student[i].BCT */\n      0x03\n      add\n        /* \"contracts/Practical 8/RegisterStudent.sol\":719:737  student[i].BCT = b */\n      dup2\n      swap1\n      sstore\n      pop\n        /* \"contracts/Practical 8/RegisterStudent.sol\":763:764  m */\n      dup2\n        /* \"contracts/Practical 8/RegisterStudent.sol\":747:754  student */\n      0x00\n        /* \"contracts/Practical 8/RegisterStudent.sol\":747:757  student[i] */\n      dup1\n        /* \"contracts/Practical 8/RegisterStudent.sol\":755:756  i */\n      dup8\n        /* \"contracts/Practical 8/RegisterStudent.sol\":747:757  student[i] */\n      dup2\n      mstore\n      0x20\n      add\n      swap1\n      dup2\n      mstore\n      0x20\n      add\n      0x00\n      keccak256\n        /* \"contracts/Practical 8/RegisterStudent.sol\":747:760  student[i].ML */\n      0x04\n      add\n        /* \"contracts/Practical 8/RegisterStudent.sol\":747:764  student[i].ML = m */\n      dup2\n      swap1\n      sstore\n      pop\n        /* \"contracts/Practical 8/RegisterStudent.sol\":791:792  a */\n      dup1\n        /* \"contracts/Practical 8/RegisterStudent.sol\":774:781  student */\n      0x00\n        /* \"contracts/Practical 8/RegisterStudent.sol\":774:784  student[i] */\n      dup1\n        /* \"contracts/Practical 8/RegisterStudent.sol\":782:783  i */\n      dup8\n        /* \"contracts/Practical 8/RegisterStudent.sol\":774:784  student[i] */\n      dup2\n      mstore\n      0x20\n      add\n      swap1\n      dup2\n      mstore\n      0x20\n      add\n      0x00\n      keccak256\n        /* \"contracts/Practical 8/RegisterStudent.sol\":774:788  student[i].BDA */\n      0x05\n      add\n        /* \"contracts/Practical 8/RegisterStudent.sol\":774:792  student[i].BDA = a */\n      dup2\n      swap1\n      sstore\n      pop\n        /* \"contracts/Practical 8/RegisterStudent.sol\":802:811  uint256 p */\n      0x00\n        /* \"contracts/Practical 8/RegisterStudent.sol\":828:829  3 */\n      0x03\n        /* \"contracts/Practical 8/RegisterStudent.sol\":823:824  a */\n      dup3\n        /* \"contracts/Practical 8/RegisterStudent.sol\":819:820  m */\n      dup5\n        /* \"contracts/Practical 8/RegisterStudent.sol\":815:816  b */\n      dup7\n        /* \"contracts/Practical 8/RegisterStudent.sol\":815:820  b + m */\n      tag_29\n      swap2\n      swap1\n      tag_30\n      jump\t// in\n    tag_29:\n        /* \"contracts/Practical 8/RegisterStudent.sol\":815:824  b + m + a */\n      tag_31\n      swap2\n      swap1\n      tag_30\n      jump\t// in\n    tag_31:\n        /* \"contracts/Practical 8/RegisterStudent.sol\":814:829  (b + m + a) / 3 */\n      tag_32\n      swap2\n      swap1\n      tag_33\n      jump\t// in\n    tag_32:\n        /* \"contracts/Practical 8/RegisterStudent.sol\":802:829  uint256 p = (b + m + a) / 3 */\n      swap1\n      pop\n        /* \"contracts/Practical 8/RegisterStudent.sol\":860:861  p */\n      dup1\n        /* \"contracts/Practical 8/RegisterStudent.sol\":839:846  student */\n      0x00\n        /* \"contracts/Practical 8/RegisterStudent.sol\":839:849  student[i] */\n      dup1\n        /* \"contracts/Practical 8/RegisterStudent.sol\":847:848  i */\n      dup9\n        /* \"contracts/Practical 8/RegisterStudent.sol\":839:849  student[i] */\n      dup2\n      mstore\n      0x20\n      add\n      swap1\n      dup2\n      mstore\n      0x20\n      add\n      0x00\n      keccak256\n        /* \"contracts/Practical 8/RegisterStudent.sol\":839:857  student[i].percent */\n      0x06\n      add\n        /* \"contracts/Practical 8/RegisterStudent.sol\":839:861  student[i].percent = p */\n      dup2\n      swap1\n      sstore\n      pop\n        /* \"contracts/Practical 8/RegisterStudent.sol\":880:882  80 */\n      0x50\n        /* \"contracts/Practical 8/RegisterStudent.sol\":875:876  p */\n      dup2\n        /* \"contracts/Practical 8/RegisterStudent.sol\":875:882  p >= 80 */\n      lt\n        /* \"contracts/Practical 8/RegisterStudent.sol\":871:1136  if (p >= 80) {... */\n      tag_34\n      jumpi\n        /* \"contracts/Practical 8/RegisterStudent.sol\":898:920  student[i].grade = \"O\" */\n      mload(0x40)\n      dup1\n      0x40\n      add\n      0x40\n      mstore\n      dup1\n      0x01\n      dup2\n      mstore\n      0x20\n      add\n      0x4f00000000000000000000000000000000000000000000000000000000000000\n      dup2\n      mstore\n      pop\n        /* \"contracts/Practical 8/RegisterStudent.sol\":898:905  student */\n      0x00\n        /* \"contracts/Practical 8/RegisterStudent.sol\":898:908  student[i] */\n      dup1\n        /* \"contracts/Practical 8/RegisterStudent.sol\":906:907  i */\n      dup9\n        /* \"contracts/Practical 8/RegisterStudent.sol\":898:908  student[i] */\n      dup2\n      mstore\n      0x20\n      add\n      swap1\n      dup2\n      mstore\n      0x20\n      add\n      0x00\n      keccak256\n        /* \"contracts/Practical 8/RegisterStudent.sol\":898:914  student[i].grade */\n      0x07\n      add\n        /* \"contracts/Practical 8/RegisterStudent.sol\":898:920  student[i].grade = \"O\" */\n      swap1\n      dup2\n      tag_35\n      swap2\n      swap1\n      tag_28\n      jump\t// in\n    tag_35:\n      pop\n        /* \"contracts/Practical 8/RegisterStudent.sol\":871:1136  if (p >= 80) {... */\n      jump(tag_36)\n    tag_34:\n        /* \"contracts/Practical 8/RegisterStudent.sol\":946:948  60 */\n      0x3c\n        /* \"contracts/Practical 8/RegisterStudent.sol\":941:942  p */\n      dup2\n        /* \"contracts/Practical 8/RegisterStudent.sol\":941:948  p >= 60 */\n      lt\n      iszero\n        /* \"contracts/Practical 8/RegisterStudent.sol\":941:958  p >= 60 && p < 80 */\n      dup1\n      iszero\n      tag_37\n      jumpi\n      pop\n        /* \"contracts/Practical 8/RegisterStudent.sol\":956:958  80 */\n      0x50\n        /* \"contracts/Practical 8/RegisterStudent.sol\":952:953  p */\n      dup2\n        /* \"contracts/Practical 8/RegisterStudent.sol\":952:958  p < 80 */\n      lt\n        /* \"contracts/Practical 8/RegisterStudent.sol\":941:958  p >= 60 && p < 80 */\n    tag_37:\n        /* \"contracts/Practical 8/RegisterStudent.sol\":937:1136  if (p >= 60 && p < 80) {... */\n      iszero\n      tag_38\n      jumpi\n        /* \"contracts/Practical 8/RegisterStudent.sol\":974:996  student[i].grade = \"A\" */\n      mload(0x40)\n      dup1\n      0x40\n      add\n      0x40\n      mstore\n      dup1\n      0x01\n      dup2\n      mstore\n      0x20\n      add\n      0x4100000000000000000000000000000000000000000000000000000000000000\n      dup2\n      mstore\n      pop\n        /* \"contracts/Practical 8/RegisterStudent.sol\":974:981  student */\n      0x00\n        /* \"contracts/Practical 8/RegisterStudent.sol\":974:984  student[i] */\n      dup1\n        /* \"contracts/Practical 8/RegisterStudent.sol\":982:983  i */\n      dup9\n        /* \"contracts/Practical 8/RegisterStudent.sol\":974:984  student[i] */\n      dup2\n      mstore\n      0x20\n      add\n      swap1\n      dup2\n      mstore\n      0x20\n      add\n      0x00\n      keccak256\n        /* \"contracts/Practical 8/RegisterStudent.sol\":974:990  student[i].grade */\n      0x07\n      add\n        /* \"contracts/Practical 8/RegisterStudent.sol\":974:996  student[i].grade = \"A\" */\n      swap1\n      dup2\n      tag_39\n      swap2\n      swap1\n      tag_28\n      jump\t// in\n    tag_39:\n      pop\n        /* \"contracts/Practical 8/RegisterStudent.sol\":937:1136  if (p >= 60 && p < 80) {... */\n      jump(tag_40)\n    tag_38:\n        /* \"contracts/Practical 8/RegisterStudent.sol\":1022:1024  40 */\n      0x28\n        /* \"contracts/Practical 8/RegisterStudent.sol\":1017:1018  p */\n      dup2\n        /* \"contracts/Practical 8/RegisterStudent.sol\":1017:1024  p >= 40 */\n      lt\n      iszero\n        /* \"contracts/Practical 8/RegisterStudent.sol\":1017:1034  p >= 40 && p < 60 */\n      dup1\n      iszero\n      tag_41\n      jumpi\n      pop\n        /* \"contracts/Practical 8/RegisterStudent.sol\":1032:1034  60 */\n      0x3c\n        /* \"contracts/Practical 8/RegisterStudent.sol\":1028:1029  p */\n      dup2\n        /* \"contracts/Practical 8/RegisterStudent.sol\":1028:1034  p < 60 */\n      lt\n        /* \"contracts/Practical 8/RegisterStudent.sol\":1017:1034  p >= 40 && p < 60 */\n    tag_41:\n        /* \"contracts/Practical 8/RegisterStudent.sol\":1013:1136  if (p >= 40 && p < 60) {... */\n      iszero\n      tag_42\n      jumpi\n        /* \"contracts/Practical 8/RegisterStudent.sol\":1050:1072  student[i].grade = \"B\" */\n      mload(0x40)\n      dup1\n      0x40\n      add\n      0x40\n      mstore\n      dup1\n      0x01\n      dup2\n      mstore\n      0x20\n      add\n      0x4200000000000000000000000000000000000000000000000000000000000000\n      dup2\n      mstore\n      pop\n        /* \"contracts/Practical 8/RegisterStudent.sol\":1050:1057  student */\n      0x00\n        /* \"contracts/Practical 8/RegisterStudent.sol\":1050:1060  student[i] */\n      dup1\n        /* \"contracts/Practical 8/RegisterStudent.sol\":1058:1059  i */\n      dup9\n        /* \"contracts/Practical 8/RegisterStudent.sol\":1050:1060  student[i] */\n      dup2\n      mstore\n      0x20\n      add\n      swap1\n      dup2\n      mstore\n      0x20\n      add\n      0x00\n      keccak256\n        /* \"contracts/Practical 8/RegisterStudent.sol\":1050:1066  student[i].grade */\n      0x07\n      add\n        /* \"contracts/Practical 8/RegisterStudent.sol\":1050:1072  student[i].grade = \"B\" */\n      swap1\n      dup2\n      tag_43\n      swap2\n      swap1\n      tag_28\n      jump\t// in\n    tag_43:\n      pop\n        /* \"contracts/Practical 8/RegisterStudent.sol\":1013:1136  if (p >= 40 && p < 60) {... */\n      jump(tag_44)\n    tag_42:\n        /* \"contracts/Practical 8/RegisterStudent.sol\":1103:1125  student[i].grade = \"F\" */\n      mload(0x40)\n      dup1\n      0x40\n      add\n      0x40\n      mstore\n      dup1\n      0x01\n      dup2\n      mstore\n      0x20\n      add\n      0x4600000000000000000000000000000000000000000000000000000000000000\n      dup2\n      mstore\n      pop\n        /* \"contracts/Practical 8/RegisterStudent.sol\":1103:1110  student */\n      0x00\n        /* \"contracts/Practical 8/RegisterStudent.sol\":1103:1113  student[i] */\n      dup1\n        /* \"contracts/Practical 8/RegisterStudent.sol\":1111:1112  i */\n      dup9\n        /* \"contracts/Practical 8/RegisterStudent.sol\":1103:1113  student[i] */\n      dup2\n      mstore\n      0x20\n      add\n      swap1\n      dup2\n      mstore\n      0x20\n      add\n      0x00\n      keccak256\n        /* \"contracts/Practical 8/RegisterStudent.sol\":1103:1119  student[i].grade */\n      0x07\n      add\n        /* \"contracts/Practical 8/RegisterStudent.sol\":1103:1125  student[i].grade = \"F\" */\n      swap1\n      dup2\n      tag_45\n      swap2\n      swap1\n      tag_28\n      jump\t// in\n    tag_45:\n      pop\n        /* \"contracts/Practical 8/RegisterStudent.sol\":1013:1136  if (p >= 40 && p < 60) {... */\n    tag_44:\n        /* \"contracts/Practical 8/RegisterStudent.sol\":937:1136  if (p >= 60 && p < 80) {... */\n    tag_40:\n        /* \"contracts/Practical 8/RegisterStudent.sol\":871:1136  if (p >= 80) {... */\n    tag_36:\n        /* \"contracts/Practical 8/RegisterStudent.sol\":614:1142  {... */\n      pop\n        /* \"contracts/Practical 8/RegisterStudent.sol\":482:1142  function register(... */\n      pop\n      pop\n      pop\n      pop\n      pop\n      jump\t// out\n        /* \"#utility.yul\":7:82   */\n    tag_46:\n        /* \"#utility.yul\":40:46   */\n      0x00\n        /* \"#utility.yul\":73:75   */\n      0x40\n        /* \"#utility.yul\":67:76   */\n      mload\n        /* \"#utility.yul\":57:76   */\n      swap1\n      pop\n        /* \"#utility.yul\":7:82   */\n      swap1\n      jump\t// out\n        /* \"#utility.yul\":88:205   */\n    tag_47:\n        /* \"#utility.yul\":197:198   */\n      0x00\n        /* \"#utility.yul\":194:195   */\n      dup1\n        /* \"#utility.yul\":187:199   */\n      revert\n        /* \"#utility.yul\":211:328   */\n    tag_48:\n        /* \"#utility.yul\":320:321   */\n      0x00\n        /* \"#utility.yul\":317:318   */\n      dup1\n        /* \"#utility.yul\":310:322   */\n      revert\n        /* \"#utility.yul\":334:411   */\n    tag_49:\n        /* \"#utility.yul\":371:378   */\n      0x00\n        /* \"#utility.yul\":400:405   */\n      dup2\n        /* \"#utility.yul\":389:405   */\n      swap1\n      pop\n        /* \"#utility.yul\":334:411   */\n      swap2\n      swap1\n      pop\n      jump\t// out\n        /* \"#utility.yul\":417:539   */\n    tag_50:\n        /* \"#utility.yul\":490:514   */\n      tag_94\n        /* \"#utility.yul\":508:513   */\n      dup2\n        /* \"#utility.yul\":490:514   */\n      tag_49\n      jump\t// in\n    tag_94:\n        /* \"#utility.yul\":483:488   */\n      dup2\n        /* \"#utility.yul\":480:515   */\n      eq\n        /* \"#utility.yul\":470:533   */\n      tag_95\n      jumpi\n        /* \"#utility.yul\":529:530   */\n      0x00\n        /* \"#utility.yul\":526:527   */\n      dup1\n        /* \"#utility.yul\":519:531   */\n      revert\n        /* \"#utility.yul\":470:533   */\n    tag_95:\n        /* \"#utility.yul\":417:539   */\n      pop\n      jump\t// out\n        /* \"#utility.yul\":545:684   */\n    tag_51:\n        /* \"#utility.yul\":591:596   */\n      0x00\n        /* \"#utility.yul\":629:635   */\n      dup2\n        /* \"#utility.yul\":616:636   */\n      calldataload\n        /* \"#utility.yul\":607:636   */\n      swap1\n      pop\n        /* \"#utility.yul\":645:678   */\n      tag_97\n        /* \"#utility.yul\":672:677   */\n      dup2\n        /* \"#utility.yul\":645:678   */\n      tag_50\n      jump\t// in\n    tag_97:\n        /* \"#utility.yul\":545:684   */\n      swap3\n      swap2\n      pop\n      pop\n      jump\t// out\n        /* \"#utility.yul\":690:1019   */\n    tag_7:\n        /* \"#utility.yul\":749:755   */\n      0x00\n        /* \"#utility.yul\":798:800   */\n      0x20\n        /* \"#utility.yul\":786:795   */\n      dup3\n        /* \"#utility.yul\":777:784   */\n      dup5\n        /* \"#utility.yul\":773:796   */\n      sub\n        /* \"#utility.yul\":769:801   */\n      slt\n        /* \"#utility.yul\":766:885   */\n      iszero\n      tag_99\n      jumpi\n        /* \"#utility.yul\":804:883   */\n      tag_100\n      tag_47\n      jump\t// in\n    tag_100:\n        /* \"#utility.yul\":766:885   */\n    tag_99:\n        /* \"#utility.yul\":924:925   */\n      0x00\n        /* \"#utility.yul\":949:1002   */\n      tag_101\n        /* \"#utility.yul\":994:1001   */\n      dup5\n        /* \"#utility.yul\":985:991   */\n      dup3\n        /* \"#utility.yul\":974:983   */\n      dup6\n        /* \"#utility.yul\":970:992   */\n      add\n        /* \"#utility.yul\":949:1002   */\n      tag_51\n      jump\t// in\n    tag_101:\n        /* \"#utility.yul\":939:1002   */\n      swap2\n      pop\n        /* \"#utility.yul\":895:1012   */\n      pop\n        /* \"#utility.yul\":690:1019   */\n      swap3\n      swap2\n      pop\n      pop\n      jump\t// out\n        /* \"#utility.yul\":1025:1143   */\n    tag_52:\n        /* \"#utility.yul\":1112:1136   */\n      tag_103\n        /* \"#utility.yul\":1130:1135   */\n      dup2\n        /* \"#utility.yul\":1112:1136   */\n      tag_49\n      jump\t// in\n    tag_103:\n        /* \"#utility.yul\":1107:1110   */\n      dup3\n        /* \"#utility.yul\":1100:1137   */\n      mstore\n        /* \"#utility.yul\":1025:1143   */\n      pop\n      pop\n      jump\t// out\n        /* \"#utility.yul\":1149:1248   */\n    tag_53:\n        /* \"#utility.yul\":1201:1207   */\n      0x00\n        /* \"#utility.yul\":1235:1240   */\n      dup2\n        /* \"#utility.yul\":1229:1241   */\n      mload\n        /* \"#utility.yul\":1219:1241   */\n      swap1\n      pop\n        /* \"#utility.yul\":1149:1248   */\n      swap2\n      swap1\n      pop\n      jump\t// out\n        /* \"#utility.yul\":1254:1423   */\n    tag_54:\n        /* \"#utility.yul\":1338:1349   */\n      0x00\n        /* \"#utility.yul\":1372:1378   */\n      dup3\n        /* \"#utility.yul\":1367:1370   */\n      dup3\n        /* \"#utility.yul\":1360:1379   */\n      mstore\n        /* \"#utility.yul\":1412:1416   */\n      0x20\n        /* \"#utility.yul\":1407:1410   */\n      dup3\n        /* \"#utility.yul\":1403:1417   */\n      add\n        /* \"#utility.yul\":1388:1417   */\n      swap1\n      pop\n        /* \"#utility.yul\":1254:1423   */\n      swap3\n      swap2\n      pop\n      pop\n      jump\t// out\n        /* \"#utility.yul\":1429:1568   */\n    tag_55:\n        /* \"#utility.yul\":1518:1524   */\n      dup3\n        /* \"#utility.yul\":1513:1516   */\n      dup2\n        /* \"#utility.yul\":1508:1511   */\n      dup4\n        /* \"#utility.yul\":1502:1525   */\n      mcopy\n        /* \"#utility.yul\":1559:1560   */\n      0x00\n        /* \"#utility.yul\":1550:1556   */\n      dup4\n        /* \"#utility.yul\":1545:1548   */\n      dup4\n        /* \"#utility.yul\":1541:1557   */\n      add\n        /* \"#utility.yul\":1534:1561   */\n      mstore\n        /* \"#utility.yul\":1429:1568   */\n      pop\n      pop\n      pop\n      jump\t// out\n        /* \"#utility.yul\":1574:1676   */\n    tag_56:\n        /* \"#utility.yul\":1615:1621   */\n      0x00\n        /* \"#utility.yul\":1666:1668   */\n      0x1f\n        /* \"#utility.yul\":1662:1669   */\n      not\n        /* \"#utility.yul\":1657:1659   */\n      0x1f\n        /* \"#utility.yul\":1650:1655   */\n      dup4\n        /* \"#utility.yul\":1646:1660   */\n      add\n        /* \"#utility.yul\":1642:1670   */\n      and\n        /* \"#utility.yul\":1632:1670   */\n      swap1\n      pop\n        /* \"#utility.yul\":1574:1676   */\n      swap2\n      swap1\n      pop\n      jump\t// out\n        /* \"#utility.yul\":1682:2059   */\n    tag_57:\n        /* \"#utility.yul\":1770:1773   */\n      0x00\n        /* \"#utility.yul\":1798:1837   */\n      tag_109\n        /* \"#utility.yul\":1831:1836   */\n      dup3\n        /* \"#utility.yul\":1798:1837   */\n      tag_53\n      jump\t// in\n    tag_109:\n        /* \"#utility.yul\":1853:1924   */\n      tag_110\n        /* \"#utility.yul\":1917:1923   */\n      dup2\n        /* \"#utility.yul\":1912:1915   */\n      dup6\n        /* \"#utility.yul\":1853:1924   */\n      tag_54\n      jump\t// in\n    tag_110:\n        /* \"#utility.yul\":1846:1924   */\n      swap4\n      pop\n        /* \"#utility.yul\":1933:1998   */\n      tag_111\n        /* \"#utility.yul\":1991:1997   */\n      dup2\n        /* \"#utility.yul\":1986:1989   */\n      dup6\n        /* \"#utility.yul\":1979:1983   */\n      0x20\n        /* \"#utility.yul\":1972:1977   */\n      dup7\n        /* \"#utility.yul\":1968:1984   */\n      add\n        /* \"#utility.yul\":1933:1998   */\n      tag_55\n      jump\t// in\n    tag_111:\n        /* \"#utility.yul\":2023:2052   */\n      tag_112\n        /* \"#utility.yul\":2045:2051   */\n      dup2\n        /* \"#utility.yul\":2023:2052   */\n      tag_56\n      jump\t// in\n    tag_112:\n        /* \"#utility.yul\":2018:2021   */\n      dup5\n        /* \"#utility.yul\":2014:2053   */\n      add\n        /* \"#utility.yul\":2007:2053   */\n      swap2\n      pop\n        /* \"#utility.yul\":1774:2059   */\n      pop\n        /* \"#utility.yul\":1682:2059   */\n      swap3\n      swap2\n      pop\n      pop\n      jump\t// out\n        /* \"#utility.yul\":2065:2191   */\n    tag_58:\n        /* \"#utility.yul\":2102:2109   */\n      0x00\n        /* \"#utility.yul\":2142:2184   */\n      0xffffffffffffffffffffffffffffffffffffffff\n        /* \"#utility.yul\":2135:2140   */\n      dup3\n        /* \"#utility.yul\":2131:2185   */\n      and\n        /* \"#utility.yul\":2120:2185   */\n      swap1\n      pop\n        /* \"#utility.yul\":2065:2191   */\n      swap2\n      swap1\n      pop\n      jump\t// out\n        /* \"#utility.yul\":2197:2293   */\n    tag_59:\n        /* \"#utility.yul\":2234:2241   */\n      0x00\n        /* \"#utility.yul\":2263:2287   */\n      tag_115\n        /* \"#utility.yul\":2281:2286   */\n      dup3\n        /* \"#utility.yul\":2263:2287   */\n      tag_58\n      jump\t// in\n    tag_115:\n        /* \"#utility.yul\":2252:2287   */\n      swap1\n      pop\n        /* \"#utility.yul\":2197:2293   */\n      swap2\n      swap1\n      pop\n      jump\t// out\n        /* \"#utility.yul\":2299:2417   */\n    tag_60:\n        /* \"#utility.yul\":2386:2410   */\n      tag_117\n        /* \"#utility.yul\":2404:2409   */\n      dup2\n        /* \"#utility.yul\":2386:2410   */\n      tag_59\n      jump\t// in\n    tag_117:\n        /* \"#utility.yul\":2381:2384   */\n      dup3\n        /* \"#utility.yul\":2374:2411   */\n      mstore\n        /* \"#utility.yul\":2299:2417   */\n      pop\n      pop\n      jump\t// out\n        /* \"#utility.yul\":2423:3602   */\n    tag_10:\n        /* \"#utility.yul\":2752:2756   */\n      0x00\n        /* \"#utility.yul\":2790:2793   */\n      0x0100\n        /* \"#utility.yul\":2779:2788   */\n      dup3\n        /* \"#utility.yul\":2775:2794   */\n      add\n        /* \"#utility.yul\":2767:2794   */\n      swap1\n      pop\n        /* \"#utility.yul\":2804:2875   */\n      tag_119\n        /* \"#utility.yul\":2872:2873   */\n      0x00\n        /* \"#utility.yul\":2861:2870   */\n      dup4\n        /* \"#utility.yul\":2857:2874   */\n      add\n        /* \"#utility.yul\":2848:2854   */\n      dup12\n        /* \"#utility.yul\":2804:2875   */\n      tag_52\n      jump\t// in\n    tag_119:\n        /* \"#utility.yul\":2922:2931   */\n      dup2\n        /* \"#utility.yul\":2916:2920   */\n      dup2\n        /* \"#utility.yul\":2912:2932   */\n      sub\n        /* \"#utility.yul\":2907:2909   */\n      0x20\n        /* \"#utility.yul\":2896:2905   */\n      dup4\n        /* \"#utility.yul\":2892:2910   */\n      add\n        /* \"#utility.yul\":2885:2933   */\n      mstore\n        /* \"#utility.yul\":2950:3028   */\n      tag_120\n        /* \"#utility.yul\":3023:3027   */\n      dup2\n        /* \"#utility.yul\":3014:3020   */\n      dup11\n        /* \"#utility.yul\":2950:3028   */\n      tag_57\n      jump\t// in\n    tag_120:\n        /* \"#utility.yul\":2942:3028   */\n      swap1\n      pop\n        /* \"#utility.yul\":3038:3110   */\n      tag_121\n        /* \"#utility.yul\":3106:3108   */\n      0x40\n        /* \"#utility.yul\":3095:3104   */\n      dup4\n        /* \"#utility.yul\":3091:3109   */\n      add\n        /* \"#utility.yul\":3082:3088   */\n      dup10\n        /* \"#utility.yul\":3038:3110   */\n      tag_60\n      jump\t// in\n    tag_121:\n        /* \"#utility.yul\":3120:3192   */\n      tag_122\n        /* \"#utility.yul\":3188:3190   */\n      0x60\n        /* \"#utility.yul\":3177:3186   */\n      dup4\n        /* \"#utility.yul\":3173:3191   */\n      add\n        /* \"#utility.yul\":3164:3170   */\n      dup9\n        /* \"#utility.yul\":3120:3192   */\n      tag_52\n      jump\t// in\n    tag_122:\n        /* \"#utility.yul\":3202:3275   */\n      tag_123\n        /* \"#utility.yul\":3270:3273   */\n      0x80\n        /* \"#utility.yul\":3259:3268   */\n      dup4\n        /* \"#utility.yul\":3255:3274   */\n      add\n        /* \"#utility.yul\":3246:3252   */\n      dup8\n        /* \"#utility.yul\":3202:3275   */\n      tag_52\n      jump\t// in\n    tag_123:\n        /* \"#utility.yul\":3285:3358   */\n      tag_124\n        /* \"#utility.yul\":3353:3356   */\n      0xa0\n        /* \"#utility.yul\":3342:3351   */\n      dup4\n        /* \"#utility.yul\":3338:3357   */\n      add\n        /* \"#utility.yul\":3329:3335   */\n      dup7\n        /* \"#utility.yul\":3285:3358   */\n      tag_52\n      jump\t// in\n    tag_124:\n        /* \"#utility.yul\":3368:3441   */\n      tag_125\n        /* \"#utility.yul\":3436:3439   */\n      0xc0\n        /* \"#utility.yul\":3425:3434   */\n      dup4\n        /* \"#utility.yul\":3421:3440   */\n      add\n        /* \"#utility.yul\":3412:3418   */\n      dup6\n        /* \"#utility.yul\":3368:3441   */\n      tag_52\n      jump\t// in\n    tag_125:\n        /* \"#utility.yul\":3489:3498   */\n      dup2\n        /* \"#utility.yul\":3483:3487   */\n      dup2\n        /* \"#utility.yul\":3479:3499   */\n      sub\n        /* \"#utility.yul\":3473:3476   */\n      0xe0\n        /* \"#utility.yul\":3462:3471   */\n      dup4\n        /* \"#utility.yul\":3458:3477   */\n      add\n        /* \"#utility.yul\":3451:3500   */\n      mstore\n        /* \"#utility.yul\":3517:3595   */\n      tag_126\n        /* \"#utility.yul\":3590:3594   */\n      dup2\n        /* \"#utility.yul\":3581:3587   */\n      dup5\n        /* \"#utility.yul\":3517:3595   */\n      tag_57\n      jump\t// in\n    tag_126:\n        /* \"#utility.yul\":3509:3595   */\n      swap1\n      pop\n        /* \"#utility.yul\":2423:3602   */\n      swap10\n      swap9\n      pop\n      pop\n      pop\n      pop\n      pop\n      pop\n      pop\n      pop\n      pop\n      jump\t// out\n        /* \"#utility.yul\":3608:3725   */\n    tag_61:\n        /* \"#utility.yul\":3717:3718   */\n      0x00\n        /* \"#utility.yul\":3714:3715   */\n      dup1\n        /* \"#utility.yul\":3707:3719   */\n      revert\n        /* \"#utility.yul\":3731:3848   */\n    tag_62:\n        /* \"#utility.yul\":3840:3841   */\n      0x00\n        /* \"#utility.yul\":3837:3838   */\n      dup1\n        /* \"#utility.yul\":3830:3842   */\n      revert\n        /* \"#utility.yul\":3854:4034   */\n    tag_63:\n        /* \"#utility.yul\":3902:3979   */\n      0x4e487b7100000000000000000000000000000000000000000000000000000000\n        /* \"#utility.yul\":3899:3900   */\n      0x00\n        /* \"#utility.yul\":3892:3980   */\n      mstore\n        /* \"#utility.yul\":3999:4003   */\n      0x41\n        /* \"#utility.yul\":3996:3997   */\n      0x04\n        /* \"#utility.yul\":3989:4004   */\n      mstore\n        /* \"#utility.yul\":4023:4027   */\n      0x24\n        /* \"#utility.yul\":4020:4021   */\n      0x00\n        /* \"#utility.yul\":4013:4028   */\n      revert\n        /* \"#utility.yul\":4040:4321   */\n    tag_64:\n        /* \"#utility.yul\":4123:4150   */\n      tag_131\n        /* \"#utility.yul\":4145:4149   */\n      dup3\n        /* \"#utility.yul\":4123:4150   */\n      tag_56\n      jump\t// in\n    tag_131:\n        /* \"#utility.yul\":4115:4121   */\n      dup2\n        /* \"#utility.yul\":4111:4151   */\n      add\n        /* \"#utility.yul\":4253:4259   */\n      dup2\n        /* \"#utility.yul\":4241:4251   */\n      dup2\n        /* \"#utility.yul\":4238:4260   */\n      lt\n        /* \"#utility.yul\":4217:4235   */\n      0xffffffffffffffff\n        /* \"#utility.yul\":4205:4215   */\n      dup3\n        /* \"#utility.yul\":4202:4236   */\n      gt\n        /* \"#utility.yul\":4199:4261   */\n      or\n        /* \"#utility.yul\":4196:4284   */\n      iszero\n      tag_132\n      jumpi\n        /* \"#utility.yul\":4264:4282   */\n      tag_133\n      tag_63\n      jump\t// in\n    tag_133:\n        /* \"#utility.yul\":4196:4284   */\n    tag_132:\n        /* \"#utility.yul\":4304:4314   */\n      dup1\n        /* \"#utility.yul\":4300:4302   */\n      0x40\n        /* \"#utility.yul\":4293:4315   */\n      mstore\n        /* \"#utility.yul\":4083:4321   */\n      pop\n        /* \"#utility.yul\":4040:4321   */\n      pop\n      pop\n      jump\t// out\n        /* \"#utility.yul\":4327:4456   */\n    tag_65:\n        /* \"#utility.yul\":4361:4367   */\n      0x00\n        /* \"#utility.yul\":4388:4408   */\n      tag_135\n      tag_46\n      jump\t// in\n    tag_135:\n        /* \"#utility.yul\":4378:4408   */\n      swap1\n      pop\n        /* \"#utility.yul\":4417:4450   */\n      tag_136\n        /* \"#utility.yul\":4445:4449   */\n      dup3\n        /* \"#utility.yul\":4437:4443   */\n      dup3\n        /* \"#utility.yul\":4417:4450   */\n      tag_64\n      jump\t// in\n    tag_136:\n        /* \"#utility.yul\":4327:4456   */\n      swap2\n      swap1\n      pop\n      jump\t// out\n        /* \"#utility.yul\":4462:4770   */\n    tag_66:\n        /* \"#utility.yul\":4524:4528   */\n      0x00\n        /* \"#utility.yul\":4614:4632   */\n      0xffffffffffffffff\n        /* \"#utility.yul\":4606:4612   */\n      dup3\n        /* \"#utility.yul\":4603:4633   */\n      gt\n        /* \"#utility.yul\":4600:4656   */\n      iszero\n      tag_138\n      jumpi\n        /* \"#utility.yul\":4636:4654   */\n      tag_139\n      tag_63\n      jump\t// in\n    tag_139:\n        /* \"#utility.yul\":4600:4656   */\n    tag_138:\n        /* \"#utility.yul\":4674:4703   */\n      tag_140\n        /* \"#utility.yul\":4696:4702   */\n      dup3\n        /* \"#utility.yul\":4674:4703   */\n      tag_56\n      jump\t// in\n    tag_140:\n        /* \"#utility.yul\":4666:4703   */\n      swap1\n      pop\n        /* \"#utility.yul\":4758:4762   */\n      0x20\n        /* \"#utility.yul\":4752:4756   */\n      dup2\n        /* \"#utility.yul\":4748:4763   */\n      add\n        /* \"#utility.yul\":4740:4763   */\n      swap1\n      pop\n        /* \"#utility.yul\":4462:4770   */\n      swap2\n      swap1\n      pop\n      jump\t// out\n        /* \"#utility.yul\":4776:4924   */\n    tag_67:\n        /* \"#utility.yul\":4874:4880   */\n      dup3\n        /* \"#utility.yul\":4869:4872   */\n      dup2\n        /* \"#utility.yul\":4864:4867   */\n      dup4\n        /* \"#utility.yul\":4851:4881   */\n      calldatacopy\n        /* \"#utility.yul\":4915:4916   */\n      0x00\n        /* \"#utility.yul\":4906:4912   */\n      dup4\n        /* \"#utility.yul\":4901:4904   */\n      dup4\n        /* \"#utility.yul\":4897:4913   */\n      add\n        /* \"#utility.yul\":4890:4917   */\n      mstore\n        /* \"#utility.yul\":4776:4924   */\n      pop\n      pop\n      pop\n      jump\t// out\n        /* \"#utility.yul\":4930:5355   */\n    tag_68:\n        /* \"#utility.yul\":5008:5013   */\n      0x00\n        /* \"#utility.yul\":5033:5099   */\n      tag_143\n        /* \"#utility.yul\":5049:5098   */\n      tag_144\n        /* \"#utility.yul\":5091:5097   */\n      dup5\n        /* \"#utility.yul\":5049:5098   */\n      tag_66\n      jump\t// in\n    tag_144:\n        /* \"#utility.yul\":5033:5099   */\n      tag_65\n      jump\t// in\n    tag_143:\n        /* \"#utility.yul\":5024:5099   */\n      swap1\n      pop\n        /* \"#utility.yul\":5122:5128   */\n      dup3\n        /* \"#utility.yul\":5115:5120   */\n      dup2\n        /* \"#utility.yul\":5108:5129   */\n      mstore\n        /* \"#utility.yul\":5160:5164   */\n      0x20\n        /* \"#utility.yul\":5153:5158   */\n      dup2\n        /* \"#utility.yul\":5149:5165   */\n      add\n        /* \"#utility.yul\":5198:5201   */\n      dup5\n        /* \"#utility.yul\":5189:5195   */\n      dup5\n        /* \"#utility.yul\":5184:5187   */\n      dup5\n        /* \"#utility.yul\":5180:5196   */\n      add\n        /* \"#utility.yul\":5177:5202   */\n      gt\n        /* \"#utility.yul\":5174:5286   */\n      iszero\n      tag_145\n      jumpi\n        /* \"#utility.yul\":5205:5284   */\n      tag_146\n      tag_62\n      jump\t// in\n    tag_146:\n        /* \"#utility.yul\":5174:5286   */\n    tag_145:\n        /* \"#utility.yul\":5295:5349   */\n      tag_147\n        /* \"#utility.yul\":5342:5348   */\n      dup5\n        /* \"#utility.yul\":5337:5340   */\n      dup3\n        /* \"#utility.yul\":5332:5335   */\n      dup6\n        /* \"#utility.yul\":5295:5349   */\n      tag_67\n      jump\t// in\n    tag_147:\n        /* \"#utility.yul\":5014:5355   */\n      pop\n        /* \"#utility.yul\":4930:5355   */\n      swap4\n      swap3\n      pop\n      pop\n      pop\n      jump\t// out\n        /* \"#utility.yul\":5375:5715   */\n    tag_69:\n        /* \"#utility.yul\":5431:5436   */\n      0x00\n        /* \"#utility.yul\":5480:5483   */\n      dup3\n        /* \"#utility.yul\":5473:5477   */\n      0x1f\n        /* \"#utility.yul\":5465:5471   */\n      dup4\n        /* \"#utility.yul\":5461:5478   */\n      add\n        /* \"#utility.yul\":5457:5484   */\n      slt\n        /* \"#utility.yul\":5447:5569   */\n      tag_149\n      jumpi\n        /* \"#utility.yul\":5488:5567   */\n      tag_150\n      tag_61\n      jump\t// in\n    tag_150:\n        /* \"#utility.yul\":5447:5569   */\n    tag_149:\n        /* \"#utility.yul\":5605:5611   */\n      dup2\n        /* \"#utility.yul\":5592:5612   */\n      calldataload\n        /* \"#utility.yul\":5630:5709   */\n      tag_151\n        /* \"#utility.yul\":5705:5708   */\n      dup5\n        /* \"#utility.yul\":5697:5703   */\n      dup3\n        /* \"#utility.yul\":5690:5694   */\n      0x20\n        /* \"#utility.yul\":5682:5688   */\n      dup7\n        /* \"#utility.yul\":5678:5695   */\n      add\n        /* \"#utility.yul\":5630:5709   */\n      tag_68\n      jump\t// in\n    tag_151:\n        /* \"#utility.yul\":5621:5709   */\n      swap2\n      pop\n        /* \"#utility.yul\":5437:5715   */\n      pop\n        /* \"#utility.yul\":5375:5715   */\n      swap3\n      swap2\n      pop\n      pop\n      jump\t// out\n        /* \"#utility.yul\":5721:6812   */\n    tag_13:\n        /* \"#utility.yul\":5826:5832   */\n      0x00\n        /* \"#utility.yul\":5834:5840   */\n      dup1\n        /* \"#utility.yul\":5842:5848   */\n      0x00\n        /* \"#utility.yul\":5850:5856   */\n      dup1\n        /* \"#utility.yul\":5858:5864   */\n      0x00\n        /* \"#utility.yul\":5907:5910   */\n      0xa0\n        /* \"#utility.yul\":5895:5904   */\n      dup7\n        /* \"#utility.yul\":5886:5893   */\n      dup9\n        /* \"#utility.yul\":5882:5905   */\n      sub\n        /* \"#utility.yul\":5878:5911   */\n      slt\n        /* \"#utility.yul\":5875:5995   */\n      iszero\n      tag_153\n      jumpi\n        /* \"#utility.yul\":5914:5993   */\n      tag_154\n      tag_47\n      jump\t// in\n    tag_154:\n        /* \"#utility.yul\":5875:5995   */\n    tag_153:\n        /* \"#utility.yul\":6034:6035   */\n      0x00\n        /* \"#utility.yul\":6059:6112   */\n      tag_155\n        /* \"#utility.yul\":6104:6111   */\n      dup9\n        /* \"#utility.yul\":6095:6101   */\n      dup3\n        /* \"#utility.yul\":6084:6093   */\n      dup10\n        /* \"#utility.yul\":6080:6102   */\n      add\n        /* \"#utility.yul\":6059:6112   */\n      tag_51\n      jump\t// in\n    tag_155:\n        /* \"#utility.yul\":6049:6112   */\n      swap6\n      pop\n        /* \"#utility.yul\":6005:6122   */\n      pop\n        /* \"#utility.yul\":6189:6191   */\n      0x20\n        /* \"#utility.yul\":6178:6187   */\n      dup7\n        /* \"#utility.yul\":6174:6192   */\n      add\n        /* \"#utility.yul\":6161:6193   */\n      calldataload\n        /* \"#utility.yul\":6220:6238   */\n      0xffffffffffffffff\n        /* \"#utility.yul\":6212:6218   */\n      dup2\n        /* \"#utility.yul\":6209:6239   */\n      gt\n        /* \"#utility.yul\":6206:6323   */\n      iszero\n      tag_156\n      jumpi\n        /* \"#utility.yul\":6242:6321   */\n      tag_157\n      tag_48\n      jump\t// in\n    tag_157:\n        /* \"#utility.yul\":6206:6323   */\n    tag_156:\n        /* \"#utility.yul\":6347:6410   */\n      tag_158\n        /* \"#utility.yul\":6402:6409   */\n      dup9\n        /* \"#utility.yul\":6393:6399   */\n      dup3\n        /* \"#utility.yul\":6382:6391   */\n      dup10\n        /* \"#utility.yul\":6378:6400   */\n      add\n        /* \"#utility.yul\":6347:6410   */\n      tag_69\n      jump\t// in\n    tag_158:\n        /* \"#utility.yul\":6337:6410   */\n      swap5\n      pop\n        /* \"#utility.yul\":6132:6420   */\n      pop\n        /* \"#utility.yul\":6459:6461   */\n      0x40\n        /* \"#utility.yul\":6485:6538   */\n      tag_159\n        /* \"#utility.yul\":6530:6537   */\n      dup9\n        /* \"#utility.yul\":6521:6527   */\n      dup3\n        /* \"#utility.yul\":6510:6519   */\n      dup10\n        /* \"#utility.yul\":6506:6528   */\n      add\n        /* \"#utility.yul\":6485:6538   */\n      tag_51\n      jump\t// in\n    tag_159:\n        /* \"#utility.yul\":6475:6538   */\n      swap4\n      pop\n        /* \"#utility.yul\":6430:6548   */\n      pop\n        /* \"#utility.yul\":6587:6589   */\n      0x60\n        /* \"#utility.yul\":6613:6666   */\n      tag_160\n        /* \"#utility.yul\":6658:6665   */\n      dup9\n        /* \"#utility.yul\":6649:6655   */\n      dup3\n        /* \"#utility.yul\":6638:6647   */\n      dup10\n        /* \"#utility.yul\":6634:6656   */\n      add\n        /* \"#utility.yul\":6613:6666   */\n      tag_51\n      jump\t// in\n    tag_160:\n        /* \"#utility.yul\":6603:6666   */\n      swap3\n      pop\n        /* \"#utility.yul\":6558:6676   */\n      pop\n        /* \"#utility.yul\":6715:6718   */\n      0x80\n        /* \"#utility.yul\":6742:6795   */\n      tag_161\n        /* \"#utility.yul\":6787:6794   */\n      dup9\n        /* \"#utility.yul\":6778:6784   */\n      dup3\n        /* \"#utility.yul\":6767:6776   */\n      dup10\n        /* \"#utility.yul\":6763:6785   */\n      add\n        /* \"#utility.yul\":6742:6795   */\n      tag_51\n      jump\t// in\n    tag_161:\n        /* \"#utility.yul\":6732:6795   */\n      swap2\n      pop\n        /* \"#utility.yul\":6686:6805   */\n      pop\n        /* \"#utility.yul\":5721:6812   */\n      swap3\n      swap6\n      pop\n      swap3\n      swap6\n      swap1\n      swap4\n      pop\n      jump\t// out\n        /* \"#utility.yul\":6818:6998   */\n    tag_70:\n        /* \"#utility.yul\":6866:6943   */\n      0x4e487b7100000000000000000000000000000000000000000000000000000000\n        /* \"#utility.yul\":6863:6864   */\n      0x00\n        /* \"#utility.yul\":6856:6944   */\n      mstore\n        /* \"#utility.yul\":6963:6967   */\n      0x22\n        /* \"#utility.yul\":6960:6961   */\n      0x04\n        /* \"#utility.yul\":6953:6968   */\n      mstore\n        /* \"#utility.yul\":6987:6991   */\n      0x24\n        /* \"#utility.yul\":6984:6985   */\n      0x00\n        /* \"#utility.yul\":6977:6992   */\n      revert\n        /* \"#utility.yul\":7004:7324   */\n    tag_16:\n        /* \"#utility.yul\":7048:7054   */\n      0x00\n        /* \"#utility.yul\":7085:7086   */\n      0x02\n        /* \"#utility.yul\":7079:7083   */\n      dup3\n        /* \"#utility.yul\":7075:7087   */\n      div\n        /* \"#utility.yul\":7065:7087   */\n      swap1\n      pop\n        /* \"#utility.yul\":7132:7133   */\n      0x01\n        /* \"#utility.yul\":7126:7130   */\n      dup3\n        /* \"#utility.yul\":7122:7134   */\n      and\n        /* \"#utility.yul\":7153:7171   */\n      dup1\n        /* \"#utility.yul\":7143:7224   */\n      tag_164\n      jumpi\n        /* \"#utility.yul\":7209:7213   */\n      0x7f\n        /* \"#utility.yul\":7201:7207   */\n      dup3\n        /* \"#utility.yul\":7197:7214   */\n      and\n        /* \"#utility.yul\":7187:7214   */\n      swap2\n      pop\n        /* \"#utility.yul\":7143:7224   */\n    tag_164:\n        /* \"#utility.yul\":7271:7273   */\n      0x20\n        /* \"#utility.yul\":7263:7269   */\n      dup3\n        /* \"#utility.yul\":7260:7274   */\n      lt\n        /* \"#utility.yul\":7240:7258   */\n      dup2\n        /* \"#utility.yul\":7237:7275   */\n      sub\n        /* \"#utility.yul\":7234:7318   */\n      tag_165\n      jumpi\n        /* \"#utility.yul\":7290:7308   */\n      tag_166\n      tag_70\n      jump\t// in\n    tag_166:\n        /* \"#utility.yul\":7234:7318   */\n    tag_165:\n        /* \"#utility.yul\":7055:7324   */\n      pop\n        /* \"#utility.yul\":7004:7324   */\n      swap2\n      swap1\n      pop\n      jump\t// out\n        /* \"#utility.yul\":7330:7471   */\n    tag_71:\n        /* \"#utility.yul\":7379:7383   */\n      0x00\n        /* \"#utility.yul\":7402:7405   */\n      dup2\n        /* \"#utility.yul\":7394:7405   */\n      swap1\n      pop\n        /* \"#utility.yul\":7425:7428   */\n      dup2\n        /* \"#utility.yul\":7422:7423   */\n      0x00\n        /* \"#utility.yul\":7415:7429   */\n      mstore\n        /* \"#utility.yul\":7459:7463   */\n      0x20\n        /* \"#utility.yul\":7456:7457   */\n      0x00\n        /* \"#utility.yul\":7446:7464   */\n      keccak256\n        /* \"#utility.yul\":7438:7464   */\n      swap1\n      pop\n        /* \"#utility.yul\":7330:7471   */\n      swap2\n      swap1\n      pop\n      jump\t// out\n        /* \"#utility.yul\":7477:7570   */\n    tag_72:\n        /* \"#utility.yul\":7514:7520   */\n      0x00\n        /* \"#utility.yul\":7561:7563   */\n      0x20\n        /* \"#utility.yul\":7556:7558   */\n      0x1f\n        /* \"#utility.yul\":7549:7554   */\n      dup4\n        /* \"#utility.yul\":7545:7559   */\n      add\n        /* \"#utility.yul\":7541:7564   */\n      div\n        /* \"#utility.yul\":7531:7564   */\n      swap1\n      pop\n        /* \"#utility.yul\":7477:7570   */\n      swap2\n      swap1\n      pop\n      jump\t// out\n        /* \"#utility.yul\":7576:7683   */\n    tag_73:\n        /* \"#utility.yul\":7620:7628   */\n      0x00\n        /* \"#utility.yul\":7670:7675   */\n      dup3\n        /* \"#utility.yul\":7664:7668   */\n      dup3\n        /* \"#utility.yul\":7660:7676   */\n      shl\n        /* \"#utility.yul\":7639:7676   */\n      swap1\n      pop\n        /* \"#utility.yul\":7576:7683   */\n      swap3\n      swap2\n      pop\n      pop\n      jump\t// out\n        /* \"#utility.yul\":7689:8082   */\n    tag_74:\n        /* \"#utility.yul\":7758:7764   */\n      0x00\n        /* \"#utility.yul\":7808:7809   */\n      0x08\n        /* \"#utility.yul\":7796:7806   */\n      dup4\n        /* \"#utility.yul\":7792:7810   */\n      mul\n        /* \"#utility.yul\":7831:7928   */\n      tag_171\n        /* \"#utility.yul\":7861:7927   */\n      0xffffffffffffffffffffffffffffffffffffffffffffffffffffffffffffffff\n        /* \"#utility.yul\":7850:7859   */\n      dup3\n        /* \"#utility.yul\":7831:7928   */\n      tag_73\n      jump\t// in\n    tag_171:\n        /* \"#utility.yul\":7949:7988   */\n      tag_172\n        /* \"#utility.yul\":7979:7987   */\n      dup7\n        /* \"#utility.yul\":7968:7977   */\n      dup4\n        /* \"#utility.yul\":7949:7988   */\n      tag_73\n      jump\t// in\n    tag_172:\n        /* \"#utility.yul\":7937:7988   */\n      swap6\n      pop\n        /* \"#utility.yul\":8021:8025   */\n      dup1\n        /* \"#utility.yul\":8017:8026   */\n      not\n        /* \"#utility.yul\":8010:8015   */\n      dup5\n        /* \"#utility.yul\":8006:8027   */\n      and\n        /* \"#utility.yul\":7997:8027   */\n      swap4\n      pop\n        /* \"#utility.yul\":8070:8074   */\n      dup1\n        /* \"#utility.yul\":8060:8068   */\n      dup7\n        /* \"#utility.yul\":8056:8075   */\n      and\n        /* \"#utility.yul\":8049:8054   */\n      dup5\n        /* \"#utility.yul\":8046:8076   */\n      or\n        /* \"#utility.yul\":8036:8076   */\n      swap3\n      pop\n        /* \"#utility.yul\":7765:8082   */\n      pop\n      pop\n        /* \"#utility.yul\":7689:8082   */\n      swap4\n      swap3\n      pop\n      pop\n      pop\n      jump\t// out\n        /* \"#utility.yul\":8088:8148   */\n    tag_75:\n        /* \"#utility.yul\":8116:8119   */\n      0x00\n        /* \"#utility.yul\":8137:8142   */\n      dup2\n        /* \"#utility.yul\":8130:8142   */\n      swap1\n      pop\n        /* \"#utility.yul\":8088:8148   */\n      swap2\n      swap1\n      pop\n      jump\t// out\n        /* \"#utility.yul\":8154:8296   */\n    tag_76:\n        /* \"#utility.yul\":8204:8213   */\n      0x00\n        /* \"#utility.yul\":8237:8290   */\n      tag_175\n        /* \"#utility.yul\":8255:8289   */\n      tag_176\n        /* \"#utility.yul\":8264:8288   */\n      tag_177\n        /* \"#utility.yul\":8282:8287   */\n      dup5\n        /* \"#utility.yul\":8264:8288   */\n      tag_49\n      jump\t// in\n    tag_177:\n        /* \"#utility.yul\":8255:8289   */\n      tag_75\n      jump\t// in\n    tag_176:\n        /* \"#utility.yul\":8237:8290   */\n      tag_49\n      jump\t// in\n    tag_175:\n        /* \"#utility.yul\":8224:8290   */\n      swap1\n      pop\n        /* \"#utility.yul\":8154:8296   */\n      swap2\n      swap1\n      pop\n      jump\t// out\n        /* \"#utility.yul\":8302:8377   */\n    tag_77:\n        /* \"#utility.yul\":8345:8348   */\n      0x00\n        /* \"#utility.yul\":8366:8371   */\n      dup2\n        /* \"#utility.yul\":8359:8371   */\n      swap1\n      pop\n        /* \"#utility.yul\":8302:8377   */\n      swap2\n      swap1\n      pop\n      jump\t// out\n        /* \"#utility.yul\":8383:8652   */\n    tag_78:\n        /* \"#utility.yul\":8493:8532   */\n      tag_180\n        /* \"#utility.yul\":8524:8531   */\n      dup4\n        /* \"#utility.yul\":8493:8532   */\n      tag_76\n      jump\t// in\n    tag_180:\n        /* \"#utility.yul\":8554:8645   */\n      tag_181\n        /* \"#utility.yul\":8603:8644   */\n      tag_182\n        /* \"#utility.yul\":8627:8643   */\n      dup3\n        /* \"#utility.yul\":8603:8644   */\n      tag_77\n      jump\t// in\n    tag_182:\n        /* \"#utility.yul\":8595:8601   */\n      dup5\n        /* \"#utility.yul\":8588:8592   */\n      dup5\n        /* \"#utility.yul\":8582:8593   */\n      sload\n        /* \"#utility.yul\":8554:8645   */\n      tag_74\n      jump\t// in\n    tag_181:\n        /* \"#utility.yul\":8548:8552   */\n      dup3\n        /* \"#utility.yul\":8541:8646   */\n      sstore\n        /* \"#utility.yul\":8459:8652   */\n      pop\n        /* \"#utility.yul\":8383:8652   */\n      pop\n      pop\n      pop\n      jump\t// out\n        /* \"#utility.yul\":8658:8731   */\n    tag_79:\n        /* \"#utility.yul\":8703:8706   */\n      0x00\n        /* \"#utility.yul\":8658:8731   */\n      swap1\n      jump\t// out\n        /* \"#utility.yul\":8737:8926   */\n    tag_80:\n        /* \"#utility.yul\":8814:8846   */\n      tag_185\n      tag_79\n      jump\t// in\n    tag_185:\n        /* \"#utility.yul\":8855:8920   */\n      tag_186\n        /* \"#utility.yul\":8913:8919   */\n      dup2\n        /* \"#utility.yul\":8905:8911   */\n      dup5\n        /* \"#utility.yul\":8899:8903   */\n      dup5\n        /* \"#utility.yul\":8855:8920   */\n      tag_78\n      jump\t// in\n    tag_186:\n        /* \"#utility.yul\":8790:8926   */\n      pop\n        /* \"#utility.yul\":8737:8926   */\n      pop\n      pop\n      jump\t// out\n        /* \"#utility.yul\":8932:9118   */\n    tag_81:\n        /* \"#utility.yul\":8992:9112   */\n    tag_188:\n        /* \"#utility.yul\":9009:9012   */\n      dup2\n        /* \"#utility.yul\":9002:9007   */\n      dup2\n        /* \"#utility.yul\":8999:9013   */\n      lt\n        /* \"#utility.yul\":8992:9112   */\n      iszero\n      tag_190\n      jumpi\n        /* \"#utility.yul\":9063:9102   */\n      tag_191\n        /* \"#utility.yul\":9100:9101   */\n      0x00\n        /* \"#utility.yul\":9093:9098   */\n      dup3\n        /* \"#utility.yul\":9063:9102   */\n      tag_80\n      jump\t// in\n    tag_191:\n        /* \"#utility.yul\":9036:9037   */\n      0x01\n        /* \"#utility.yul\":9029:9034   */\n      dup2\n        /* \"#utility.yul\":9025:9038   */\n      add\n        /* \"#utility.yul\":9016:9038   */\n      swap1\n      pop\n        /* \"#utility.yul\":8992:9112   */\n      jump(tag_188)\n    tag_190:\n        /* \"#utility.yul\":8932:9118   */\n      pop\n      pop\n      jump\t// out\n        /* \"#utility.yul\":9124:9667   */\n    tag_82:\n        /* \"#utility.yul\":9225:9227   */\n      0x1f\n        /* \"#utility.yul\":9220:9223   */\n      dup3\n        /* \"#utility.yul\":9217:9228   */\n      gt\n        /* \"#utility.yul\":9214:9660   */\n      iszero\n      tag_193\n      jumpi\n        /* \"#utility.yul\":9259:9297   */\n      tag_194\n        /* \"#utility.yul\":9291:9296   */\n      dup2\n        /* \"#utility.yul\":9259:9297   */\n      tag_71\n      jump\t// in\n    tag_194:\n        /* \"#utility.yul\":9343:9372   */\n      tag_195\n        /* \"#utility.yul\":9361:9371   */\n      dup5\n        /* \"#utility.yul\":9343:9372   */\n      tag_72\n      jump\t// in\n    tag_195:\n        /* \"#utility.yul\":9333:9341   */\n      dup2\n        /* \"#utility.yul\":9329:9373   */\n      add\n        /* \"#utility.yul\":9526:9528   */\n      0x20\n        /* \"#utility.yul\":9514:9524   */\n      dup6\n        /* \"#utility.yul\":9511:9529   */\n      lt\n        /* \"#utility.yul\":9508:9557   */\n      iszero\n      tag_196\n      jumpi\n        /* \"#utility.yul\":9547:9555   */\n      dup2\n        /* \"#utility.yul\":9532:9555   */\n      swap1\n      pop\n        /* \"#utility.yul\":9508:9557   */\n    tag_196:\n        /* \"#utility.yul\":9570:9650   */\n      tag_197\n        /* \"#utility.yul\":9626:9648   */\n      tag_198\n        /* \"#utility.yul\":9644:9647   */\n      dup6\n        /* \"#utility.yul\":9626:9648   */\n      tag_72\n      jump\t// in\n    tag_198:\n        /* \"#utility.yul\":9616:9624   */\n      dup4\n        /* \"#utility.yul\":9612:9649   */\n      add\n        /* \"#utility.yul\":9599:9610   */\n      dup3\n        /* \"#utility.yul\":9570:9650   */\n      tag_81\n      jump\t// in\n    tag_197:\n        /* \"#utility.yul\":9229:9660   */\n      pop\n      pop\n        /* \"#utility.yul\":9214:9660   */\n    tag_193:\n        /* \"#utility.yul\":9124:9667   */\n      pop\n      pop\n      pop\n      jump\t// out\n        /* \"#utility.yul\":9673:9790   */\n    tag_83:\n        /* \"#utility.yul\":9727:9735   */\n      0x00\n        /* \"#utility.yul\":9777:9782   */\n      dup3\n        /* \"#utility.yul\":9771:9775   */\n      dup3\n        /* \"#utility.yul\":9767:9783   */\n      shr\n        /* \"#utility.yul\":9746:9783   */\n      swap1\n      pop\n        /* \"#utility.yul\":9673:9790   */\n      swap3\n      swap2\n      pop\n      pop\n      jump\t// out\n        /* \"#utility.yul\":9796:9965   */\n    tag_84:\n        /* \"#utility.yul\":9840:9846   */\n      0x00\n        /* \"#utility.yul\":9873:9924   */\n      tag_201\n        /* \"#utility.yul\":9921:9922   */\n      0x00\n        /* \"#utility.yul\":9917:9923   */\n      not\n        /* \"#utility.yul\":9909:9914   */\n      dup5\n        /* \"#utility.yul\":9906:9907   */\n      0x08\n        /* \"#utility.yul\":9902:9915   */\n      mul\n        /* \"#utility.yul\":9873:9924   */\n      tag_83\n      jump\t// in\n    tag_201:\n        /* \"#utility.yul\":9869:9925   */\n      not\n        /* \"#utility.yul\":9954:9958   */\n      dup1\n        /* \"#utility.yul\":9948:9952   */\n      dup4\n        /* \"#utility.yul\":9944:9959   */\n      and\n        /* \"#utility.yul\":9934:9959   */\n      swap2\n      pop\n        /* \"#utility.yul\":9847:9965   */\n      pop\n        /* \"#utility.yul\":9796:9965   */\n      swap3\n      swap2\n      pop\n      pop\n      jump\t// out\n        /* \"#utility.yul\":9970:10265   */\n    tag_85:\n        /* \"#utility.yul\":10046:10050   */\n      0x00\n        /* \"#utility.yul\":10192:10221   */\n      tag_203\n        /* \"#utility.yul\":10217:10220   */\n      dup4\n        /* \"#utility.yul\":10211:10215   */\n      dup4\n        /* \"#utility.yul\":10192:10221   */\n      tag_84\n      jump\t// in\n    tag_203:\n        /* \"#utility.yul\":10184:10221   */\n      swap2\n      pop\n        /* \"#utility.yul\":10254:10257   */\n      dup3\n        /* \"#utility.yul\":10251:10252   */\n      0x02\n        /* \"#utility.yul\":10247:10258   */\n      mul\n        /* \"#utility.yul\":10241:10245   */\n      dup3\n        /* \"#utility.yul\":10238:10259   */\n      or\n        /* \"#utility.yul\":10230:10259   */\n      swap1\n      pop\n        /* \"#utility.yul\":9970:10265   */\n      swap3\n      swap2\n      pop\n      pop\n      jump\t// out\n        /* \"#utility.yul\":10270:11665   */\n    tag_28:\n        /* \"#utility.yul\":10387:10424   */\n      tag_205\n        /* \"#utility.yul\":10420:10423   */\n      dup3\n        /* \"#utility.yul\":10387:10424   */\n      tag_53\n      jump\t// in\n    tag_205:\n        /* \"#utility.yul\":10489:10507   */\n      0xffffffffffffffff\n        /* \"#utility.yul\":10481:10487   */\n      dup2\n        /* \"#utility.yul\":10478:10508   */\n      gt\n        /* \"#utility.yul\":10475:10531   */\n      iszero\n      tag_206\n      jumpi\n        /* \"#utility.yul\":10511:10529   */\n      tag_207\n      tag_63\n      jump\t// in\n    tag_207:\n        /* \"#utility.yul\":10475:10531   */\n    tag_206:\n        /* \"#utility.yul\":10555:10593   */\n      tag_208\n        /* \"#utility.yul\":10587:10591   */\n      dup3\n        /* \"#utility.yul\":10581:10592   */\n      sload\n        /* \"#utility.yul\":10555:10593   */\n      tag_16\n      jump\t// in\n    tag_208:\n        /* \"#utility.yul\":10640:10707   */\n      tag_209\n        /* \"#utility.yul\":10700:10706   */\n      dup3\n        /* \"#utility.yul\":10692:10698   */\n      dup3\n        /* \"#utility.yul\":10686:10690   */\n      dup6\n        /* \"#utility.yul\":10640:10707   */\n      tag_82\n      jump\t// in\n    tag_209:\n        /* \"#utility.yul\":10734:10735   */\n      0x00\n        /* \"#utility.yul\":10758:10762   */\n      0x20\n        /* \"#utility.yul\":10745:10762   */\n      swap1\n      pop\n        /* \"#utility.yul\":10790:10792   */\n      0x1f\n        /* \"#utility.yul\":10782:10788   */\n      dup4\n        /* \"#utility.yul\":10779:10793   */\n      gt\n        /* \"#utility.yul\":10807:10808   */\n      0x01\n        /* \"#utility.yul\":10802:11420   */\n      dup2\n      eq\n      tag_211\n      jumpi\n        /* \"#utility.yul\":11464:11465   */\n      0x00\n        /* \"#utility.yul\":11481:11487   */\n      dup5\n        /* \"#utility.yul\":11478:11555   */\n      iszero\n      tag_212\n      jumpi\n        /* \"#utility.yul\":11530:11539   */\n      dup3\n        /* \"#utility.yul\":11525:11528   */\n      dup8\n        /* \"#utility.yul\":11521:11540   */\n      add\n        /* \"#utility.yul\":11515:11541   */\n      mload\n        /* \"#utility.yul\":11506:11541   */\n      swap1\n      pop\n        /* \"#utility.yul\":11478:11555   */\n    tag_212:\n        /* \"#utility.yul\":11581:11648   */\n      tag_213\n        /* \"#utility.yul\":11641:11647   */\n      dup6\n        /* \"#utility.yul\":11634:11639   */\n      dup3\n        /* \"#utility.yul\":11581:11648   */\n      tag_85\n      jump\t// in\n    tag_213:\n        /* \"#utility.yul\":11575:11579   */\n      dup7\n        /* \"#utility.yul\":11568:11649   */\n      sstore\n        /* \"#utility.yul\":11437:11659   */\n      pop\n        /* \"#utility.yul\":10772:11659   */\n      jump(tag_210)\n        /* \"#utility.yul\":10802:11420   */\n    tag_211:\n        /* \"#utility.yul\":10854:10858   */\n      0x1f\n        /* \"#utility.yul\":10850:10859   */\n      not\n        /* \"#utility.yul\":10842:10848   */\n      dup5\n        /* \"#utility.yul\":10838:10860   */\n      and\n        /* \"#utility.yul\":10888:10925   */\n      tag_214\n        /* \"#utility.yul\":10920:10924   */\n      dup7\n        /* \"#utility.yul\":10888:10925   */\n      tag_71\n      jump\t// in\n    tag_214:\n        /* \"#utility.yul\":10947:10948   */\n      0x00\n        /* \"#utility.yul\":10961:11169   */\n    tag_215:\n        /* \"#utility.yul\":10975:10982   */\n      dup3\n        /* \"#utility.yul\":10972:10973   */\n      dup2\n        /* \"#utility.yul\":10969:10983   */\n      lt\n        /* \"#utility.yul\":10961:11169   */\n      iszero\n      tag_217\n      jumpi\n        /* \"#utility.yul\":11054:11063   */\n      dup5\n        /* \"#utility.yul\":11049:11052   */\n      dup10\n        /* \"#utility.yul\":11045:11064   */\n      add\n        /* \"#utility.yul\":11039:11065   */\n      mload\n        /* \"#utility.yul\":11031:11037   */\n      dup3\n        /* \"#utility.yul\":11024:11066   */\n      sstore\n        /* \"#utility.yul\":11105:11106   */\n      0x01\n        /* \"#utility.yul\":11097:11103   */\n      dup3\n        /* \"#utility.yul\":11093:11107   */\n      add\n        /* \"#utility.yul\":11083:11107   */\n      swap2\n      pop\n        /* \"#utility.yul\":11152:11154   */\n      0x20\n        /* \"#utility.yul\":11141:11150   */\n      dup6\n        /* \"#utility.yul\":11137:11155   */\n      add\n        /* \"#utility.yul\":11124:11155   */\n      swap5\n      pop\n        /* \"#utility.yul\":10998:11002   */\n      0x20\n        /* \"#utility.yul\":10995:10996   */\n      dup2\n        /* \"#utility.yul\":10991:11003   */\n      add\n        /* \"#utility.yul\":10986:11003   */\n      swap1\n      pop\n        /* \"#utility.yul\":10961:11169   */\n      jump(tag_215)\n    tag_217:\n        /* \"#utility.yul\":11197:11203   */\n      dup7\n        /* \"#utility.yul\":11188:11195   */\n      dup4\n        /* \"#utility.yul\":11185:11204   */\n      lt\n        /* \"#utility.yul\":11182:11361   */\n      iszero\n      tag_218\n      jumpi\n        /* \"#utility.yul\":11255:11264   */\n      dup5\n        /* \"#utility.yul\":11250:11253   */\n      dup10\n        /* \"#utility.yul\":11246:11265   */\n      add\n        /* \"#utility.yul\":11240:11266   */\n      mload\n        /* \"#utility.yul\":11298:11346   */\n      tag_219\n        /* \"#utility.yul\":11340:11344   */\n      0x1f\n        /* \"#utility.yul\":11332:11338   */\n      dup10\n        /* \"#utility.yul\":11328:11345   */\n      and\n        /* \"#utility.yul\":11317:11326   */\n      dup3\n        /* \"#utility.yul\":11298:11346   */\n      tag_84\n      jump\t// in\n    tag_219:\n        /* \"#utility.yul\":11290:11296   */\n      dup4\n        /* \"#utility.yul\":11283:11347   */\n      sstore\n        /* \"#utility.yul\":11205:11361   */\n      pop\n        /* \"#utility.yul\":11182:11361   */\n    tag_218:\n        /* \"#utility.yul\":11407:11408   */\n      0x01\n        /* \"#utility.yul\":11403:11404   */\n      0x02\n        /* \"#utility.yul\":11395:11401   */\n      dup9\n        /* \"#utility.yul\":11391:11405   */\n      mul\n        /* \"#utility.yul\":11387:11409   */\n      add\n        /* \"#utility.yul\":11381:11385   */\n      dup9\n        /* \"#utility.yul\":11374:11410   */\n      sstore\n        /* \"#utility.yul\":10809:11420   */\n      pop\n      pop\n      pop\n        /* \"#utility.yul\":10772:11659   */\n    tag_210:\n      pop\n        /* \"#utility.yul\":10362:11665   */\n      pop\n      pop\n      pop\n        /* \"#utility.yul\":10270:11665   */\n      pop\n      pop\n      jump\t// out\n        /* \"#utility.yul\":11671:11851   */\n    tag_86:\n        /* \"#utility.yul\":11719:11796   */\n      0x4e487b7100000000000000000000000000000000000000000000000000000000\n        /* \"#utility.yul\":11716:11717   */\n      0x00\n        /* \"#utility.yul\":11709:11797   */\n      mstore\n        /* \"#utility.yul\":11816:11820   */\n      0x11\n        /* \"#utility.yul\":11813:11814   */\n      0x04\n        /* \"#utility.yul\":11806:11821   */\n      mstore\n        /* \"#utility.yul\":11840:11844   */\n      0x24\n        /* \"#utility.yul\":11837:11838   */\n      0x00\n        /* \"#utility.yul\":11830:11845   */\n      revert\n        /* \"#utility.yul\":11857:12048   */\n    tag_30:\n        /* \"#utility.yul\":11897:11900   */\n      0x00\n        /* \"#utility.yul\":11916:11936   */\n      tag_222\n        /* \"#utility.yul\":11934:11935   */\n      dup3\n        /* \"#utility.yul\":11916:11936   */\n      tag_49\n      jump\t// in\n    tag_222:\n        /* \"#utility.yul\":11911:11936   */\n      swap2\n      pop\n        /* \"#utility.yul\":11950:11970   */\n      tag_223\n        /* \"#utility.yul\":11968:11969   */\n      dup4\n        /* \"#utility.yul\":11950:11970   */\n      tag_49\n      jump\t// in\n    tag_223:\n        /* \"#utility.yul\":11945:11970   */\n      swap3\n      pop\n        /* \"#utility.yul\":11993:11994   */\n      dup3\n        /* \"#utility.yul\":11990:11991   */\n      dup3\n        /* \"#utility.yul\":11986:11995   */\n      add\n        /* \"#utility.yul\":11979:11995   */\n      swap1\n      pop\n        /* \"#utility.yul\":12014:12017   */\n      dup1\n        /* \"#utility.yul\":12011:12012   */\n      dup3\n        /* \"#utility.yul\":12008:12018   */\n      gt\n        /* \"#utility.yul\":12005:12041   */\n      iszero\n      tag_224\n      jumpi\n        /* \"#utility.yul\":12021:12039   */\n      tag_225\n      tag_86\n      jump\t// in\n    tag_225:\n        /* \"#utility.yul\":12005:12041   */\n    tag_224:\n        /* \"#utility.yul\":11857:12048   */\n      swap3\n      swap2\n      pop\n      pop\n      jump\t// out\n        /* \"#utility.yul\":12054:12234   */\n    tag_87:\n        /* \"#utility.yul\":12102:12179   */\n      0x4e487b7100000000000000000000000000000000000000000000000000000000\n        /* \"#utility.yul\":12099:12100   */\n      0x00\n        /* \"#utility.yul\":12092:12180   */\n      mstore\n        /* \"#utility.yul\":12199:12203   */\n      0x12\n        /* \"#utility.yul\":12196:12197   */\n      0x04\n        /* \"#utility.yul\":12189:12204   */\n      mstore\n        /* \"#utility.yul\":12223:12227   */\n      0x24\n        /* \"#utility.yul\":12220:12221   */\n      0x00\n        /* \"#utility.yul\":12213:12228   */\n      revert\n        /* \"#utility.yul\":12240:12425   */\n    tag_33:\n        /* \"#utility.yul\":12280:12281   */\n      0x00\n        /* \"#utility.yul\":12297:12317   */\n      tag_228\n        /* \"#utility.yul\":12315:12316   */\n      dup3\n        /* \"#utility.yul\":12297:12317   */\n      tag_49\n      jump\t// in\n    tag_228:\n        /* \"#utility.yul\":12292:12317   */\n      swap2\n      pop\n        /* \"#utility.yul\":12331:12351   */\n      tag_229\n        /* \"#utility.yul\":12349:12350   */\n      dup4\n        /* \"#utility.yul\":12331:12351   */\n      tag_49\n      jump\t// in\n    tag_229:\n        /* \"#utility.yul\":12326:12351   */\n      swap3\n      pop\n        /* \"#utility.yul\":12370:12371   */\n      dup3\n        /* \"#utility.yul\":12360:12395   */\n      tag_230\n      jumpi\n        /* \"#utility.yul\":12375:12393   */\n      tag_231\n      tag_87\n      jump\t// in\n    tag_231:\n        /* \"#utility.yul\":12360:12395   */\n    tag_230:\n        /* \"#utility.yul\":12417:12418   */\n      dup3\n        /* \"#utility.yul\":12414:12415   */\n      dup3\n        /* \"#utility.yul\":12410:12419   */\n      div\n        /* \"#utility.yul\":12405:12419   */\n      swap1\n      pop\n        /* \"#utility.yul\":12240:12425   */\n      swap3\n      swap2\n      pop\n      pop\n      jump\t// out\n\n    auxdata: 0xa26469706673582212202ee30320bc800d676d5982c224602b715da5e1a8457a2793e48f148bf9f5fb7d64736f6c634300081a0033\n}\n",
				"bytecode": {
					"linkReferences": {},
					"object": "6080604052348015600e575f80fd5b50610be08061001c5f395ff3fe608060405234801561000f575f80fd5b5060043610610034575f3560e01c806335f3423214610038578063e546c0011461006f575b5f80fd5b610052600480360381019061004d91906104f2565b61008b565b6040516100669897969594939291906105db565b60405180910390f35b61008960048036038101906100849190610791565b6101f9565b005b5f602052805f5260405f205f91509050805f0154908060010180546100af90610851565b80601f01602080910402602001604051908101604052809291908181526020018280546100db90610851565b80156101265780601f106100fd57610100808354040283529160200191610126565b820191905f5260205f20905b81548152906001019060200180831161010957829003601f168201915b505050505090806002015f9054906101000a900473ffffffffffffffffffffffffffffffffffffffff169080600301549080600401549080600501549080600601549080600701805461017890610851565b80601f01602080910402602001604051908101604052809291908181526020018280546101a490610851565b80156101ef5780601f106101c6576101008083540402835291602001916101ef565b820191905f5260205f20905b8154815290600101906020018083116101d257829003601f168201915b5050505050905088565b835f808781526020019081526020015f2060010190816102199190610a1e565b50335f808781526020019081526020015f206002015f6101000a81548173ffffffffffffffffffffffffffffffffffffffff021916908373ffffffffffffffffffffffffffffffffffffffff160217905550845f808781526020019081526020015f205f0181905550825f808781526020019081526020015f2060030181905550815f808781526020019081526020015f2060040181905550805f808781526020019081526020015f20600501819055505f60038284866102da9190610b1a565b6102e49190610b1a565b6102ee9190610b7a565b9050805f808881526020019081526020015f20600601819055506050811061036b576040518060400160405280600181526020017f4f000000000000000000000000000000000000000000000000000000000000008152505f808881526020019081526020015f2060070190816103659190610a1e565b506104a6565b603c811015801561037c5750605081105b156103dc576040518060400160405280600181526020017f41000000000000000000000000000000000000000000000000000000000000008152505f808881526020019081526020015f2060070190816103d69190610a1e565b506104a5565b602881101580156103ed5750603c81105b1561044d576040518060400160405280600181526020017f42000000000000000000000000000000000000000000000000000000000000008152505f808881526020019081526020015f2060070190816104479190610a1e565b506104a4565b6040518060400160405280600181526020017f46000000000000000000000000000000000000000000000000000000000000008152505f808881526020019081526020015f2060070190816104a29190610a1e565b505b5b5b505050505050565b5f604051905090565b5f80fd5b5f80fd5b5f819050919050565b6104d1816104bf565b81146104db575f80fd5b50565b5f813590506104ec816104c8565b92915050565b5f60208284031215610507576105066104b7565b5b5f610514848285016104de565b91505092915050565b610526816104bf565b82525050565b5f81519050919050565b5f82825260208201905092915050565b8281835e5f83830152505050565b5f601f19601f8301169050919050565b5f61056e8261052c565b6105788185610536565b9350610588818560208601610546565b61059181610554565b840191505092915050565b5f73ffffffffffffffffffffffffffffffffffffffff82169050919050565b5f6105c58261059c565b9050919050565b6105d5816105bb565b82525050565b5f610100820190506105ef5f83018b61051d565b8181036020830152610601818a610564565b905061061060408301896105cc565b61061d606083018861051d565b61062a608083018761051d565b61063760a083018661051d565b61064460c083018561051d565b81810360e08301526106568184610564565b90509998505050505050505050565b5f80fd5b5f80fd5b7f4e487b71000000000000000000000000000000000000000000000000000000005f52604160045260245ffd5b6106a382610554565b810181811067ffffffffffffffff821117156106c2576106c161066d565b5b80604052505050565b5f6106d46104ae565b90506106e0828261069a565b919050565b5f67ffffffffffffffff8211156106ff576106fe61066d565b5b61070882610554565b9050602081019050919050565b828183375f83830152505050565b5f610735610730846106e5565b6106cb565b90508281526020810184848401111561075157610750610669565b5b61075c848285610715565b509392505050565b5f82601f83011261077857610777610665565b5b8135610788848260208601610723565b91505092915050565b5f805f805f60a086880312156107aa576107a96104b7565b5b5f6107b7888289016104de565b955050602086013567ffffffffffffffff8111156107d8576107d76104bb565b5b6107e488828901610764565b94505060406107f5888289016104de565b9350506060610806888289016104de565b9250506080610817888289016104de565b9150509295509295909350565b7f4e487b71000000000000000000000000000000000000000000000000000000005f52602260045260245ffd5b5f600282049050600182168061086857607f821691505b60208210810361087b5761087a610824565b5b50919050565b5f819050815f5260205f209050919050565b5f6020601f8301049050919050565b5f82821b905092915050565b5f600883026108dd7fffffffffffffffffffffffffffffffffffffffffffffffffffffffffffffffff826108a2565b6108e786836108a2565b95508019841693508086168417925050509392505050565b5f819050919050565b5f61092261091d610918846104bf565b6108ff565b6104bf565b9050919050565b5f819050919050565b61093b83610908565b61094f61094782610929565b8484546108ae565b825550505050565b5f90565b610963610957565b61096e818484610932565b505050565b5b81811015610991576109865f8261095b565b600181019050610974565b5050565b601f8211156109d6576109a781610881565b6109b084610893565b810160208510156109bf578190505b6109d36109cb85610893565b830182610973565b50505b505050565b5f82821c905092915050565b5f6109f65f19846008026109db565b1980831691505092915050565b5f610a0e83836109e7565b9150826002028217905092915050565b610a278261052c565b67ffffffffffffffff811115610a4057610a3f61066d565b5b610a4a8254610851565b610a55828285610995565b5f60209050601f831160018114610a86575f8415610a74578287015190505b610a7e8582610a03565b865550610ae5565b601f198416610a9486610881565b5f5b82811015610abb57848901518255600182019150602085019450602081019050610a96565b86831015610ad85784890151610ad4601f8916826109e7565b8355505b6001600288020188555050505b505050505050565b7f4e487b71000000000000000000000000000000000000000000000000000000005f52601160045260245ffd5b5f610b24826104bf565b9150610b2f836104bf565b9250828201905080821115610b4757610b46610aed565b5b92915050565b7f4e487b71000000000000000000000000000000000000000000000000000000005f52601260045260245ffd5b5f610b84826104bf565b9150610b8f836104bf565b925082610b9f57610b9e610b4d565b5b82820490509291505056fea26469706673582212202ee30320bc800d676d5982c224602b715da5e1a8457a2793e48f148bf9f5fb7d64736f6c634300081a0033",
					"opcodes": "PUSH1 0x80 PUSH1 0x40 MSTORE CALLVALUE DUP1 ISZERO PUSH1 0xE JUMPI PUSH0 DUP1 REVERT JUMPDEST POP PUSH2 0xBE0 DUP1 PUSH2 0x1C PUSH0 CODECOPY PUSH0 RETURN INVALID PUSH1 0x80 PUSH1 0x40 MSTORE CALLVALUE DUP1 ISZERO PUSH2 0xF JUMPI PUSH0 DUP1 REVERT JUMPDEST POP PUSH1 0x4 CALLDATASIZE LT PUSH2 0x34 JUMPI PUSH0 CALLDATALOAD PUSH1 0xE0 SHR DUP1 PUSH4 0x35F34232 EQ PUSH2 0x38 JUMPI DUP1 PUSH4 0xE546C001 EQ PUSH2 0x6F JUMPI JUMPDEST PUSH0 DUP1 REVERT JUMPDEST PUSH2 0x52 PUSH1 0x4 DUP1 CALLDATASIZE SUB DUP2 ADD SWAP1 PUSH2 0x4D SWAP2 SWAP1 PUSH2 0x4F2 JUMP JUMPDEST PUSH2 0x8B JUMP JUMPDEST PUSH1 0x40 MLOAD PUSH2 0x66 SWAP9 SWAP8 SWAP7 SWAP6 SWAP5 SWAP4 SWAP3 SWAP2 SWAP1 PUSH2 0x5DB JUMP JUMPDEST PUSH1 0x40 MLOAD DUP1 SWAP2 SUB SWAP1 RETURN JUMPDEST PUSH2 0x89 PUSH1 0x4 DUP1 CALLDATASIZE SUB DUP2 ADD SWAP1 PUSH2 0x84 SWAP2 SWAP1 PUSH2 0x791 JUMP JUMPDEST PUSH2 0x1F9 JUMP JUMPDEST STOP JUMPDEST PUSH0 PUSH1 0x20 MSTORE DUP1 PUSH0 MSTORE PUSH1 0x40 PUSH0 KECCAK256 PUSH0 SWAP2 POP SWAP1 POP DUP1 PUSH0 ADD SLOAD SWAP1 DUP1 PUSH1 0x1 ADD DUP1 SLOAD PUSH2 0xAF SWAP1 PUSH2 0x851 JUMP JUMPDEST DUP1 PUSH1 0x1F ADD PUSH1 0x20 DUP1 SWAP2 DIV MUL PUSH1 0x20 ADD PUSH1 0x40 MLOAD SWAP1 DUP2 ADD PUSH1 0x40 MSTORE DUP1 SWAP3 SWAP2 SWAP1 DUP2 DUP2 MSTORE PUSH1 0x20 ADD DUP3 DUP1 SLOAD PUSH2 0xDB SWAP1 PUSH2 0x851 JUMP JUMPDEST DUP1 ISZERO PUSH2 0x126 JUMPI DUP1 PUSH1 0x1F LT PUSH2 0xFD JUMPI PUSH2 0x100 DUP1 DUP4 SLOAD DIV MUL DUP4 MSTORE SWAP2 PUSH1 0x20 ADD SWAP2 PUSH2 0x126 JUMP JUMPDEST DUP3 ADD SWAP2 SWAP1 PUSH0 MSTORE PUSH1 0x20 PUSH0 KECCAK256 SWAP1 JUMPDEST DUP2 SLOAD DUP2 MSTORE SWAP1 PUSH1 0x1 ADD SWAP1 PUSH1 0x20 ADD DUP1 DUP4 GT PUSH2 0x109 JUMPI DUP3 SWAP1 SUB PUSH1 0x1F AND DUP3 ADD SWAP2 JUMPDEST POP POP POP POP POP SWAP1 DUP1 PUSH1 0x2 ADD PUSH0 SWAP1 SLOAD SWAP1 PUSH2 0x100 EXP SWAP1 DIV PUSH20 0xFFFFFFFFFFFFFFFFFFFFFFFFFFFFFFFFFFFFFFFF AND SWAP1 DUP1 PUSH1 0x3 ADD SLOAD SWAP1 DUP1 PUSH1 0x4 ADD SLOAD SWAP1 DUP1 PUSH1 0x5 ADD SLOAD SWAP1 DUP1 PUSH1 0x6 ADD SLOAD SWAP1 DUP1 PUSH1 0x7 ADD DUP1 SLOAD PUSH2 0x178 SWAP1 PUSH2 0x851 JUMP JUMPDEST DUP1 PUSH1 0x1F ADD PUSH1 0x20 DUP1 SWAP2 DIV MUL PUSH1 0x20 ADD PUSH1 0x40 MLOAD SWAP1 DUP2 ADD PUSH1 0x40 MSTORE DUP1 SWAP3 SWAP2 SWAP1 DUP2 DUP2 MSTORE PUSH1 0x20 ADD DUP3 DUP1 SLOAD PUSH2 0x1A4 SWAP1 PUSH2 0x851 JUMP JUMPDEST DUP1 ISZERO PUSH2 0x1EF JUMPI DUP1 PUSH1 0x1F LT PUSH2 0x1C6 JUMPI PUSH2 0x100 DUP1 DUP4 SLOAD DIV MUL DUP4 MSTORE SWAP2 PUSH1 0x20 ADD SWAP2 PUSH2 0x1EF JUMP JUMPDEST DUP3 ADD SWAP2 SWAP1 PUSH0 MSTORE PUSH1 0x20 PUSH0 KECCAK256 SWAP1 JUMPDEST DUP2 SLOAD DUP2 MSTORE SWAP1 PUSH1 0x1 ADD SWAP1 PUSH1 0x20 ADD DUP1 DUP4 GT PUSH2 0x1D2 JUMPI DUP3 SWAP1 SUB PUSH1 0x1F AND DUP3 ADD SWAP2 JUMPDEST POP POP POP POP POP SWAP1 POP DUP9 JUMP JUMPDEST DUP4 PUSH0 DUP1 DUP8 DUP2 MSTORE PUSH1 0x20 ADD SWAP1 DUP2 MSTORE PUSH1 0x20 ADD PUSH0 KECCAK256 PUSH1 0x1 ADD SWAP1 DUP2 PUSH2 0x219 SWAP2 SWAP1 PUSH2 0xA1E JUMP JUMPDEST POP CALLER PUSH0 DUP1 DUP8 DUP2 MSTORE PUSH1 0x20 ADD SWAP1 DUP2 MSTORE PUSH1 0x20 ADD PUSH0 KECCAK256 PUSH1 0x2 ADD PUSH0 PUSH2 0x100 EXP DUP2 SLOAD DUP2 PUSH20 0xFFFFFFFFFFFFFFFFFFFFFFFFFFFFFFFFFFFFFFFF MUL NOT AND SWAP1 DUP4 PUSH20 0xFFFFFFFFFFFFFFFFFFFFFFFFFFFFFFFFFFFFFFFF AND MUL OR SWAP1 SSTORE POP DUP5 PUSH0 DUP1 DUP8 DUP2 MSTORE PUSH1 0x20 ADD SWAP1 DUP2 MSTORE PUSH1 0x20 ADD PUSH0 KECCAK256 PUSH0 ADD DUP2 SWAP1 SSTORE POP DUP3 PUSH0 DUP1 DUP8 DUP2 MSTORE PUSH1 0x20 ADD SWAP1 DUP2 MSTORE PUSH1 0x20 ADD PUSH0 KECCAK256 PUSH1 0x3 ADD DUP2 SWAP1 SSTORE POP DUP2 PUSH0 DUP1 DUP8 DUP2 MSTORE PUSH1 0x20 ADD SWAP1 DUP2 MSTORE PUSH1 0x20 ADD PUSH0 KECCAK256 PUSH1 0x4 ADD DUP2 SWAP1 SSTORE POP DUP1 PUSH0 DUP1 DUP8 DUP2 MSTORE PUSH1 0x20 ADD SWAP1 DUP2 MSTORE PUSH1 0x20 ADD PUSH0 KECCAK256 PUSH1 0x5 ADD DUP2 SWAP1 SSTORE POP PUSH0 PUSH1 0x3 DUP3 DUP5 DUP7 PUSH2 0x2DA SWAP2 SWAP1 PUSH2 0xB1A JUMP JUMPDEST PUSH2 0x2E4 SWAP2 SWAP1 PUSH2 0xB1A JUMP JUMPDEST PUSH2 0x2EE SWAP2 SWAP1 PUSH2 0xB7A JUMP JUMPDEST SWAP1 POP DUP1 PUSH0 DUP1 DUP9 DUP2 MSTORE PUSH1 0x20 ADD SWAP1 DUP2 MSTORE PUSH1 0x20 ADD PUSH0 KECCAK256 PUSH1 0x6 ADD DUP2 SWAP1 SSTORE POP PUSH1 0x50 DUP2 LT PUSH2 0x36B JUMPI PUSH1 0x40 MLOAD DUP1 PUSH1 0x40 ADD PUSH1 0x40 MSTORE DUP1 PUSH1 0x1 DUP2 MSTORE PUSH1 0x20 ADD PUSH32 0x4F00000000000000000000000000000000000000000000000000000000000000 DUP2 MSTORE POP PUSH0 DUP1 DUP9 DUP2 MSTORE PUSH1 0x20 ADD SWAP1 DUP2 MSTORE PUSH1 0x20 ADD PUSH0 KECCAK256 PUSH1 0x7 ADD SWAP1 DUP2 PUSH2 0x365 SWAP2 SWAP1 PUSH2 0xA1E JUMP JUMPDEST POP PUSH2 0x4A6 JUMP JUMPDEST PUSH1 0x3C DUP2 LT ISZERO DUP1 ISZERO PUSH2 0x37C JUMPI POP PUSH1 0x50 DUP2 LT JUMPDEST ISZERO PUSH2 0x3DC JUMPI PUSH1 0x40 MLOAD DUP1 PUSH1 0x40 ADD PUSH1 0x40 MSTORE DUP1 PUSH1 0x1 DUP2 MSTORE PUSH1 0x20 ADD PUSH32 0x4100000000000000000000000000000000000000000000000000000000000000 DUP2 MSTORE POP PUSH0 DUP1 DUP9 DUP2 MSTORE PUSH1 0x20 ADD SWAP1 DUP2 MSTORE PUSH1 0x20 ADD PUSH0 KECCAK256 PUSH1 0x7 ADD SWAP1 DUP2 PUSH2 0x3D6 SWAP2 SWAP1 PUSH2 0xA1E JUMP JUMPDEST POP PUSH2 0x4A5 JUMP JUMPDEST PUSH1 0x28 DUP2 LT ISZERO DUP1 ISZERO PUSH2 0x3ED JUMPI POP PUSH1 0x3C DUP2 LT JUMPDEST ISZERO PUSH2 0x44D JUMPI PUSH1 0x40 MLOAD DUP1 PUSH1 0x40 ADD PUSH1 0x40 MSTORE DUP1 PUSH1 0x1 DUP2 MSTORE PUSH1 0x20 ADD PUSH32 0x4200000000000000000000000000000000000000000000000000000000000000 DUP2 MSTORE POP PUSH0 DUP1 DUP9 DUP2 MSTORE PUSH1 0x20 ADD SWAP1 DUP2 MSTORE PUSH1 0x20 ADD PUSH0 KECCAK256 PUSH1 0x7 ADD SWAP1 DUP2 PUSH2 0x447 SWAP2 SWAP1 PUSH2 0xA1E JUMP JUMPDEST POP PUSH2 0x4A4 JUMP JUMPDEST PUSH1 0x40 MLOAD DUP1 PUSH1 0x40 ADD PUSH1 0x40 MSTORE DUP1 PUSH1 0x1 DUP2 MSTORE PUSH1 0x20 ADD PUSH32 0x4600000000000000000000000000000000000000000000000000000000000000 DUP2 MSTORE POP PUSH0 DUP1 DUP9 DUP2 MSTORE PUSH1 0x20 ADD SWAP1 DUP2 MSTORE PUSH1 0x20 ADD PUSH0 KECCAK256 PUSH1 0x7 ADD SWAP1 DUP2 PUSH2 0x4A2 SWAP2 SWAP1 PUSH2 0xA1E JUMP JUMPDEST POP JUMPDEST JUMPDEST JUMPDEST POP POP POP POP POP POP JUMP JUMPDEST PUSH0 PUSH1 0x40 MLOAD SWAP1 POP SWAP1 JUMP JUMPDEST PUSH0 DUP1 REVERT JUMPDEST PUSH0 DUP1 REVERT JUMPDEST PUSH0 DUP2 SWAP1 POP SWAP2 SWAP1 POP JUMP JUMPDEST PUSH2 0x4D1 DUP2 PUSH2 0x4BF JUMP JUMPDEST DUP2 EQ PUSH2 0x4DB JUMPI PUSH0 DUP1 REVERT JUMPDEST POP JUMP JUMPDEST PUSH0 DUP2 CALLDATALOAD SWAP1 POP PUSH2 0x4EC DUP2 PUSH2 0x4C8 JUMP JUMPDEST SWAP3 SWAP2 POP POP JUMP JUMPDEST PUSH0 PUSH1 0x20 DUP3 DUP5 SUB SLT ISZERO PUSH2 0x507 JUMPI PUSH2 0x506 PUSH2 0x4B7 JUMP JUMPDEST JUMPDEST PUSH0 PUSH2 0x514 DUP5 DUP3 DUP6 ADD PUSH2 0x4DE JUMP JUMPDEST SWAP2 POP POP SWAP3 SWAP2 POP POP JUMP JUMPDEST PUSH2 0x526 DUP2 PUSH2 0x4BF JUMP JUMPDEST DUP3 MSTORE POP POP JUMP JUMPDEST PUSH0 DUP2 MLOAD SWAP1 POP SWAP2 SWAP1 POP JUMP JUMPDEST PUSH0 DUP3 DUP3 MSTORE PUSH1 0x20 DUP3 ADD SWAP1 POP SWAP3 SWAP2 POP POP JUMP JUMPDEST DUP3 DUP2 DUP4 MCOPY PUSH0 DUP4 DUP4 ADD MSTORE POP POP POP JUMP JUMPDEST PUSH0 PUSH1 0x1F NOT PUSH1 0x1F DUP4 ADD AND SWAP1 POP SWAP2 SWAP1 POP JUMP JUMPDEST PUSH0 PUSH2 0x56E DUP3 PUSH2 0x52C JUMP JUMPDEST PUSH2 0x578 DUP2 DUP6 PUSH2 0x536 JUMP JUMPDEST SWAP4 POP PUSH2 0x588 DUP2 DUP6 PUSH1 0x20 DUP7 ADD PUSH2 0x546 JUMP JUMPDEST PUSH2 0x591 DUP2 PUSH2 0x554 JUMP JUMPDEST DUP5 ADD SWAP2 POP POP SWAP3 SWAP2 POP POP JUMP JUMPDEST PUSH0 PUSH20 0xFFFFFFFFFFFFFFFFFFFFFFFFFFFFFFFFFFFFFFFF DUP3 AND SWAP1 POP SWAP2 SWAP1 POP JUMP JUMPDEST PUSH0 PUSH2 0x5C5 DUP3 PUSH2 0x59C JUMP JUMPDEST SWAP1 POP SWAP2 SWAP1 POP JUMP JUMPDEST PUSH2 0x5D5 DUP2 PUSH2 0x5BB JUMP JUMPDEST DUP3 MSTORE POP POP JUMP JUMPDEST PUSH0 PUSH2 0x100 DUP3 ADD SWAP1 POP PUSH2 0x5EF PUSH0 DUP4 ADD DUP12 PUSH2 0x51D JUMP JUMPDEST DUP2 DUP2 SUB PUSH1 0x20 DUP4 ADD MSTORE PUSH2 0x601 DUP2 DUP11 PUSH2 0x564 JUMP JUMPDEST SWAP1 POP PUSH2 0x610 PUSH1 0x40 DUP4 ADD DUP10 PUSH2 0x5CC JUMP JUMPDEST PUSH2 0x61D PUSH1 0x60 DUP4 ADD DUP9 PUSH2 0x51D JUMP JUMPDEST PUSH2 0x62A PUSH1 0x80 DUP4 ADD DUP8 PUSH2 0x51D JUMP JUMPDEST PUSH2 0x637 PUSH1 0xA0 DUP4 ADD DUP7 PUSH2 0x51D JUMP JUMPDEST PUSH2 0x644 PUSH1 0xC0 DUP4 ADD DUP6 PUSH2 0x51D JUMP JUMPDEST DUP2 DUP2 SUB PUSH1 0xE0 DUP4 ADD MSTORE PUSH2 0x656 DUP2 DUP5 PUSH2 0x564 JUMP JUMPDEST SWAP1 POP SWAP10 SWAP9 POP POP POP POP POP POP POP POP POP JUMP JUMPDEST PUSH0 DUP1 REVERT JUMPDEST PUSH0 DUP1 REVERT JUMPDEST PUSH32 0x4E487B7100000000000000000000000000000000000000000000000000000000 PUSH0 MSTORE PUSH1 0x41 PUSH1 0x4 MSTORE PUSH1 0x24 PUSH0 REVERT JUMPDEST PUSH2 0x6A3 DUP3 PUSH2 0x554 JUMP JUMPDEST DUP2 ADD DUP2 DUP2 LT PUSH8 0xFFFFFFFFFFFFFFFF DUP3 GT OR ISZERO PUSH2 0x6C2 JUMPI PUSH2 0x6C1 PUSH2 0x66D JUMP JUMPDEST JUMPDEST DUP1 PUSH1 0x40 MSTORE POP POP POP JUMP JUMPDEST PUSH0 PUSH2 0x6D4 PUSH2 0x4AE JUMP JUMPDEST SWAP1 POP PUSH2 0x6E0 DUP3 DUP3 PUSH2 0x69A JUMP JUMPDEST SWAP2 SWAP1 POP JUMP JUMPDEST PUSH0 PUSH8 0xFFFFFFFFFFFFFFFF DUP3 GT ISZERO PUSH2 0x6FF JUMPI PUSH2 0x6FE PUSH2 0x66D JUMP JUMPDEST JUMPDEST PUSH2 0x708 DUP3 PUSH2 0x554 JUMP JUMPDEST SWAP1 POP PUSH1 0x20 DUP2 ADD SWAP1 POP SWAP2 SWAP1 POP JUMP JUMPDEST DUP3 DUP2 DUP4 CALLDATACOPY PUSH0 DUP4 DUP4 ADD MSTORE POP POP POP JUMP JUMPDEST PUSH0 PUSH2 0x735 PUSH2 0x730 DUP5 PUSH2 0x6E5 JUMP JUMPDEST PUSH2 0x6CB JUMP JUMPDEST SWAP1 POP DUP3 DUP2 MSTORE PUSH1 0x20 DUP2 ADD DUP5 DUP5 DUP5 ADD GT ISZERO PUSH2 0x751 JUMPI PUSH2 0x750 PUSH2 0x669 JUMP JUMPDEST JUMPDEST PUSH2 0x75C DUP5 DUP3 DUP6 PUSH2 0x715 JUMP JUMPDEST POP SWAP4 SWAP3 POP POP POP JUMP JUMPDEST PUSH0 DUP3 PUSH1 0x1F DUP4 ADD SLT PUSH2 0x778 JUMPI PUSH2 0x777 PUSH2 0x665 JUMP JUMPDEST JUMPDEST DUP2 CALLDATALOAD PUSH2 0x788 DUP5 DUP3 PUSH1 0x20 DUP7 ADD PUSH2 0x723 JUMP JUMPDEST SWAP2 POP POP SWAP3 SWAP2 POP POP JUMP JUMPDEST PUSH0 DUP1 PUSH0 DUP1 PUSH0 PUSH1 0xA0 DUP7 DUP9 SUB SLT ISZERO PUSH2 0x7AA JUMPI PUSH2 0x7A9 PUSH2 0x4B7 JUMP JUMPDEST JUMPDEST PUSH0 PUSH2 0x7B7 DUP9 DUP3 DUP10 ADD PUSH2 0x4DE JUMP JUMPDEST SWAP6 POP POP PUSH1 0x20 DUP7 ADD CALLDATALOAD PUSH8 0xFFFFFFFFFFFFFFFF DUP2 GT ISZERO PUSH2 0x7D8 JUMPI PUSH2 0x7D7 PUSH2 0x4BB JUMP JUMPDEST JUMPDEST PUSH2 0x7E4 DUP9 DUP3 DUP10 ADD PUSH2 0x764 JUMP JUMPDEST SWAP5 POP POP PUSH1 0x40 PUSH2 0x7F5 DUP9 DUP3 DUP10 ADD PUSH2 0x4DE JUMP JUMPDEST SWAP4 POP POP PUSH1 0x60 PUSH2 0x806 DUP9 DUP3 DUP10 ADD PUSH2 0x4DE JUMP JUMPDEST SWAP3 POP POP PUSH1 0x80 PUSH2 0x817 DUP9 DUP3 DUP10 ADD PUSH2 0x4DE JUMP JUMPDEST SWAP2 POP POP SWAP3 SWAP6 POP SWAP3 SWAP6 SWAP1 SWAP4 POP JUMP JUMPDEST PUSH32 0x4E487B7100000000000000000000000000000000000000000000000000000000 PUSH0 MSTORE PUSH1 0x22 PUSH1 0x4 MSTORE PUSH1 0x24 PUSH0 REVERT JUMPDEST PUSH0 PUSH1 0x2 DUP3 DIV SWAP1 POP PUSH1 0x1 DUP3 AND DUP1 PUSH2 0x868 JUMPI PUSH1 0x7F DUP3 AND SWAP2 POP JUMPDEST PUSH1 0x20 DUP3 LT DUP2 SUB PUSH2 0x87B JUMPI PUSH2 0x87A PUSH2 0x824 JUMP JUMPDEST JUMPDEST POP SWAP2 SWAP1 POP JUMP JUMPDEST PUSH0 DUP2 SWAP1 POP DUP2 PUSH0 MSTORE PUSH1 0x20 PUSH0 KECCAK256 SWAP1 POP SWAP2 SWAP1 POP JUMP JUMPDEST PUSH0 PUSH1 0x20 PUSH1 0x1F DUP4 ADD DIV SWAP1 POP SWAP2 SWAP1 POP JUMP JUMPDEST PUSH0 DUP3 DUP3 SHL SWAP1 POP SWAP3 SWAP2 POP POP JUMP JUMPDEST PUSH0 PUSH1 0x8 DUP4 MUL PUSH2 0x8DD PUSH32 0xFFFFFFFFFFFFFFFFFFFFFFFFFFFFFFFFFFFFFFFFFFFFFFFFFFFFFFFFFFFFFFFF DUP3 PUSH2 0x8A2 JUMP JUMPDEST PUSH2 0x8E7 DUP7 DUP4 PUSH2 0x8A2 JUMP JUMPDEST SWAP6 POP DUP1 NOT DUP5 AND SWAP4 POP DUP1 DUP7 AND DUP5 OR SWAP3 POP POP POP SWAP4 SWAP3 POP POP POP JUMP JUMPDEST PUSH0 DUP2 SWAP1 POP SWAP2 SWAP1 POP JUMP JUMPDEST PUSH0 PUSH2 0x922 PUSH2 0x91D PUSH2 0x918 DUP5 PUSH2 0x4BF JUMP JUMPDEST PUSH2 0x8FF JUMP JUMPDEST PUSH2 0x4BF JUMP JUMPDEST SWAP1 POP SWAP2 SWAP1 POP JUMP JUMPDEST PUSH0 DUP2 SWAP1 POP SWAP2 SWAP1 POP JUMP JUMPDEST PUSH2 0x93B DUP4 PUSH2 0x908 JUMP JUMPDEST PUSH2 0x94F PUSH2 0x947 DUP3 PUSH2 0x929 JUMP JUMPDEST DUP5 DUP5 SLOAD PUSH2 0x8AE JUMP JUMPDEST DUP3 SSTORE POP POP POP POP JUMP JUMPDEST PUSH0 SWAP1 JUMP JUMPDEST PUSH2 0x963 PUSH2 0x957 JUMP JUMPDEST PUSH2 0x96E DUP2 DUP5 DUP5 PUSH2 0x932 JUMP JUMPDEST POP POP POP JUMP JUMPDEST JUMPDEST DUP2 DUP2 LT ISZERO PUSH2 0x991 JUMPI PUSH2 0x986 PUSH0 DUP3 PUSH2 0x95B JUMP JUMPDEST PUSH1 0x1 DUP2 ADD SWAP1 POP PUSH2 0x974 JUMP JUMPDEST POP POP JUMP JUMPDEST PUSH1 0x1F DUP3 GT ISZERO PUSH2 0x9D6 JUMPI PUSH2 0x9A7 DUP2 PUSH2 0x881 JUMP JUMPDEST PUSH2 0x9B0 DUP5 PUSH2 0x893 JUMP JUMPDEST DUP2 ADD PUSH1 0x20 DUP6 LT ISZERO PUSH2 0x9BF JUMPI DUP2 SWAP1 POP JUMPDEST PUSH2 0x9D3 PUSH2 0x9CB DUP6 PUSH2 0x893 JUMP JUMPDEST DUP4 ADD DUP3 PUSH2 0x973 JUMP JUMPDEST POP POP JUMPDEST POP POP POP JUMP JUMPDEST PUSH0 DUP3 DUP3 SHR SWAP1 POP SWAP3 SWAP2 POP POP JUMP JUMPDEST PUSH0 PUSH2 0x9F6 PUSH0 NOT DUP5 PUSH1 0x8 MUL PUSH2 0x9DB JUMP JUMPDEST NOT DUP1 DUP4 AND SWAP2 POP POP SWAP3 SWAP2 POP POP JUMP JUMPDEST PUSH0 PUSH2 0xA0E DUP4 DUP4 PUSH2 0x9E7 JUMP JUMPDEST SWAP2 POP DUP3 PUSH1 0x2 MUL DUP3 OR SWAP1 POP SWAP3 SWAP2 POP POP JUMP JUMPDEST PUSH2 0xA27 DUP3 PUSH2 0x52C JUMP JUMPDEST PUSH8 0xFFFFFFFFFFFFFFFF DUP2 GT ISZERO PUSH2 0xA40 JUMPI PUSH2 0xA3F PUSH2 0x66D JUMP JUMPDEST JUMPDEST PUSH2 0xA4A DUP3 SLOAD PUSH2 0x851 JUMP JUMPDEST PUSH2 0xA55 DUP3 DUP3 DUP6 PUSH2 0x995 JUMP JUMPDEST PUSH0 PUSH1 0x20 SWAP1 POP PUSH1 0x1F DUP4 GT PUSH1 0x1 DUP2 EQ PUSH2 0xA86 JUMPI PUSH0 DUP5 ISZERO PUSH2 0xA74 JUMPI DUP3 DUP8 ADD MLOAD SWAP1 POP JUMPDEST PUSH2 0xA7E DUP6 DUP3 PUSH2 0xA03 JUMP JUMPDEST DUP7 SSTORE POP PUSH2 0xAE5 JUMP JUMPDEST PUSH1 0x1F NOT DUP5 AND PUSH2 0xA94 DUP7 PUSH2 0x881 JUMP JUMPDEST PUSH0 JUMPDEST DUP3 DUP2 LT ISZERO PUSH2 0xABB JUMPI DUP5 DUP10 ADD MLOAD DUP3 SSTORE PUSH1 0x1 DUP3 ADD SWAP2 POP PUSH1 0x20 DUP6 ADD SWAP5 POP PUSH1 0x20 DUP2 ADD SWAP1 POP PUSH2 0xA96 JUMP JUMPDEST DUP7 DUP4 LT ISZERO PUSH2 0xAD8 JUMPI DUP5 DUP10 ADD MLOAD PUSH2 0xAD4 PUSH1 0x1F DUP10 AND DUP3 PUSH2 0x9E7 JUMP JUMPDEST DUP4 SSTORE POP JUMPDEST PUSH1 0x1 PUSH1 0x2 DUP9 MUL ADD DUP9 SSTORE POP POP POP JUMPDEST POP POP POP POP POP POP JUMP JUMPDEST PUSH32 0x4E487B7100000000000000000000000000000000000000000000000000000000 PUSH0 MSTORE PUSH1 0x11 PUSH1 0x4 MSTORE PUSH1 0x24 PUSH0 REVERT JUMPDEST PUSH0 PUSH2 0xB24 DUP3 PUSH2 0x4BF JUMP JUMPDEST SWAP2 POP PUSH2 0xB2F DUP4 PUSH2 0x4BF JUMP JUMPDEST SWAP3 POP DUP3 DUP3 ADD SWAP1 POP DUP1 DUP3 GT ISZERO PUSH2 0xB47 JUMPI PUSH2 0xB46 PUSH2 0xAED JUMP JUMPDEST JUMPDEST SWAP3 SWAP2 POP POP JUMP JUMPDEST PUSH32 0x4E487B7100000000000000000000000000000000000000000000000000000000 PUSH0 MSTORE PUSH1 0x12 PUSH1 0x4 MSTORE PUSH1 0x24 PUSH0 REVERT JUMPDEST PUSH0 PUSH2 0xB84 DUP3 PUSH2 0x4BF JUMP JUMPDEST SWAP2 POP PUSH2 0xB8F DUP4 PUSH2 0x4BF JUMP JUMPDEST SWAP3 POP DUP3 PUSH2 0xB9F JUMPI PUSH2 0xB9E PUSH2 0xB4D JUMP JUMPDEST JUMPDEST DUP3 DUP3 DIV SWAP1 POP SWAP3 SWAP2 POP POP JUMP INVALID LOG2 PUSH5 0x6970667358 0x22 SLT KECCAK256 0x2E 0xE3 SUB KECCAK256 0xBC DUP1 0xD PUSH8 0x6D5982C224602B71 TSTORE 0xA5 0xE1 0xA8 GASLIMIT PUSH27 0x2793E48F148BF9F5FB7D64736F6C634300081A0033000000000000 "
				},
				"gasEstimates": {
					"creation": {
						"codeDepositCost": "608000",
						"executionCost": "636",
						"totalCost": "608636"
					},
					"external": {
						"register(uint256,string,uint256,uint256,uint256)": "infinite",
						"student(uint256)": "infinite"
					}
				},
				"methodIdentifiers": {
					"register(uint256,string,uint256,uint256,uint256)": "e546c001",
					"student(uint256)": "35f34232"
				}
			},
			"storageLayout": {
				"storage": [
					{
						"astId": 23,
						"contract": "contracts/Practical 8/RegisterStudent.sol:studentC",
						"label": "student",
						"offset": 0,
						"slot": "0",
						"type": "t_mapping(t_uint256,t_struct(std)18_storage)"
					}
				],
				"types": {
					"t_address": {
						"encoding": "inplace",
						"label": "address",
						"numberOfBytes": "20"
					},
					"t_mapping(t_uint256,t_struct(std)18_storage)": {
						"encoding": "mapping",
						"key": "t_uint256",
						"label": "mapping(uint256 => struct studentC.std)",
						"numberOfBytes": "32",
						"value": "t_struct(std)18_storage"
					},
					"t_string_storage": {
						"encoding": "bytes",
						"label": "string",
						"numberOfBytes": "32"
					},
					"t_struct(std)18_storage": {
						"encoding": "inplace",
						"label": "struct studentC.std",
						"members": [
							{
								"astId": 3,
								"contract": "contracts/Practical 8/RegisterStudent.sol:studentC",
								"label": "sid",
								"offset": 0,
								"slot": "0",
								"type": "t_uint256"
							},
							{
								"astId": 5,
								"contract": "contracts/Practical 8/RegisterStudent.sol:studentC",
								"label": "name",
								"offset": 0,
								"slot": "1",
								"type": "t_string_storage"
							},
							{
								"astId": 7,
								"contract": "contracts/Practical 8/RegisterStudent.sol:studentC",
								"label": "addr",
								"offset": 0,
								"slot": "2",
								"type": "t_address"
							},
							{
								"astId": 9,
								"contract": "contracts/Practical 8/RegisterStudent.sol:studentC",
								"label": "BCT",
								"offset": 0,
								"slot": "3",
								"type": "t_uint256"
							},
							{
								"astId": 11,
								"contract": "contracts/Practical 8/RegisterStudent.sol:studentC",
								"label": "ML",
								"offset": 0,
								"slot": "4",
								"type": "t_uint256"
							},
							{
								"astId": 13,
								"contract": "contracts/Practical 8/RegisterStudent.sol:studentC",
								"label": "BDA",
								"offset": 0,
								"slot": "5",
								"type": "t_uint256"
							},
							{
								"astId": 15,
								"contract": "contracts/Practical 8/RegisterStudent.sol:studentC",
								"label": "percent",
								"offset": 0,
								"slot": "6",
								"type": "t_uint256"
							},
							{
								"astId": 17,
								"contract": "contracts/Practical 8/RegisterStudent.sol:studentC",
								"label": "grade",
								"offset": 0,
								"slot": "7",
								"type": "t_string_storage"
							}
						],
						"numberOfBytes": "256"
					},
					"t_uint256": {
						"encoding": "inplace",
						"label": "uint256",
						"numberOfBytes": "32"
					}
				}
			},
			"userdoc": {
				"kind": "user",
				"methods": {},
				"version": 1
			}
		}
	}
}