{
	"contracts/Practical 10/SingleInheritance.sol": {
		"song": {
			"abi": [
				{
					"inputs": [],
					"name": "getVal",
					"outputs": [
						{
							"internalType": "string",
							"name": "",
							"type": "string"
						},
						{
							"internalType": "string[2]",
							"name": "",
							"type": "string[2]"
						}
					],
					"stateMutability": "view",
					"type": "function"
				},
				{
					"inputs": [
						{
							"internalType": "string",
							"name": "a",
							"type": "string"
						},
						{
							"internalType": "string[2]",
							"name": "arr",
							"type": "string[2]"
						}
					],
					"name": "setN",
					"outputs": [],
					"stateMutability": "nonpayable",
					"type": "function"
				}
			],
			"devdoc": {
				"kind": "dev",
				"methods": {},
				"version": 1
			},
			"evm": {
				"assembly": "    /* \"contracts/Practical 10/SingleInheritance.sol\":264:399  contract song is singer {... */\n  mstore(0x40, 0x80)\n  callvalue\n  dup1\n  iszero\n  tag_1\n  jumpi\n  0x00\n  dup1\n  revert\ntag_1:\n  pop\n  dataSize(sub_0)\n  dup1\n  dataOffset(sub_0)\n  0x00\n  codecopy\n  0x00\n  return\nstop\n\nsub_0: assembly {\n        /* \"contracts/Practical 10/SingleInheritance.sol\":264:399  contract song is singer {... */\n      mstore(0x40, 0x80)\n      callvalue\n      dup1\n      iszero\n      tag_1\n      jumpi\n      0x00\n      dup1\n      revert\n    tag_1:\n      pop\n      jumpi(tag_2, lt(calldatasize, 0x04))\n      shr(0xe0, calldataload(0x00))\n      dup1\n      0x995663cb\n      eq\n      tag_3\n      jumpi\n      dup1\n      0xe1cb0e52\n      eq\n      tag_4\n      jumpi\n    tag_2:\n      0x00\n      dup1\n      revert\n        /* \"contracts/Practical 10/SingleInheritance.sol\":160:260  function setN(string memory a, string[2] memory arr) public {... */\n    tag_3:\n      tag_5\n      0x04\n      dup1\n      calldatasize\n      sub\n      dup2\n      add\n      swap1\n      tag_6\n      swap2\n      swap1\n      tag_7\n      jump\t// in\n    tag_6:\n      tag_8\n      jump\t// in\n    tag_5:\n      stop\n        /* \"contracts/Practical 10/SingleInheritance.sol\":294:397  function getVal() public view returns (string memory, string[2] memory) {... */\n    tag_4:\n      tag_9\n      tag_10\n      jump\t// in\n    tag_9:\n      mload(0x40)\n      tag_11\n      swap3\n      swap2\n      swap1\n      tag_12\n      jump\t// in\n    tag_11:\n      mload(0x40)\n      dup1\n      swap2\n      sub\n      swap1\n      return\n        /* \"contracts/Practical 10/SingleInheritance.sol\":160:260  function setN(string memory a, string[2] memory arr) public {... */\n    tag_8:\n        /* \"contracts/Practical 10/SingleInheritance.sol\":234:235  a */\n      dup2\n        /* \"contracts/Practical 10/SingleInheritance.sol\":230:231  n */\n      0x00\n        /* \"contracts/Practical 10/SingleInheritance.sol\":230:235  n = a */\n      swap1\n      dup2\n      tag_14\n      swap2\n      swap1\n      tag_15\n      jump\t// in\n    tag_14:\n      pop\n        /* \"contracts/Practical 10/SingleInheritance.sol\":250:253  arr */\n      dup1\n        /* \"contracts/Practical 10/SingleInheritance.sol\":245:247  so */\n      0x01\n        /* \"contracts/Practical 10/SingleInheritance.sol\":245:253  so = arr */\n      swap1\n      0x02\n      tag_16\n      swap3\n      swap2\n      swap1\n      tag_17\n      jump\t// in\n    tag_16:\n      pop\n        /* \"contracts/Practical 10/SingleInheritance.sol\":160:260  function setN(string memory a, string[2] memory arr) public {... */\n      pop\n      pop\n      jump\t// out\n        /* \"contracts/Practical 10/SingleInheritance.sol\":294:397  function getVal() public view returns (string memory, string[2] memory) {... */\n    tag_10:\n        /* \"contracts/Practical 10/SingleInheritance.sol\":333:346  string memory */\n      0x60\n        /* \"contracts/Practical 10/SingleInheritance.sol\":348:364  string[2] memory */\n      tag_18\n      tag_19\n      jump\t// in\n    tag_18:\n        /* \"contracts/Practical 10/SingleInheritance.sol\":384:385  n */\n      0x00\n        /* \"contracts/Practical 10/SingleInheritance.sol\":387:389  so */\n      0x01\n        /* \"contracts/Practical 10/SingleInheritance.sol\":376:390  return (n, so) */\n      dup2\n      dup1\n      sload\n      tag_21\n      swap1\n      tag_22\n      jump\t// in\n    tag_21:\n      dup1\n      0x1f\n      add\n      0x20\n      dup1\n      swap2\n      div\n      mul\n      0x20\n      add\n      mload(0x40)\n      swap1\n      dup2\n      add\n      0x40\n      mstore\n      dup1\n      swap3\n      swap2\n      swap1\n      dup2\n      dup2\n      mstore\n      0x20\n      add\n      dup3\n      dup1\n      sload\n      tag_23\n      swap1\n      tag_22\n      jump\t// in\n    tag_23:\n      dup1\n      iszero\n      tag_24\n      jumpi\n      dup1\n      0x1f\n      lt\n      tag_25\n      jumpi\n      0x0100\n      dup1\n      dup4\n      sload\n      div\n      mul\n      dup4\n      mstore\n      swap2\n      0x20\n      add\n      swap2\n      jump(tag_24)\n    tag_25:\n      dup3\n      add\n      swap2\n      swap1\n      0x00\n      mstore\n      keccak256(0x00, 0x20)\n      swap1\n    tag_26:\n      dup2\n      sload\n      dup2\n      mstore\n      swap1\n      0x01\n      add\n      swap1\n      0x20\n      add\n      dup1\n      dup4\n      gt\n      tag_26\n      jumpi\n      dup3\n      swap1\n      sub\n      0x1f\n      and\n      dup3\n      add\n      swap2\n    tag_24:\n      pop\n      pop\n      pop\n      pop\n      pop\n      swap2\n      pop\n      dup1\n      0x02\n      dup1\n      0x20\n      mul\n      mload(0x40)\n      swap1\n      dup2\n      add\n      0x40\n      mstore\n      dup1\n      swap3\n      swap2\n      swap1\n      0x00\n      swap1\n    tag_27:\n      dup3\n      dup3\n      lt\n      iszero\n      tag_28\n      jumpi\n      dup4\n      dup3\n      add\n      dup1\n      sload\n      tag_30\n      swap1\n      tag_22\n      jump\t// in\n    tag_30:\n      dup1\n      0x1f\n      add\n      0x20\n      dup1\n      swap2\n      div\n      mul\n      0x20\n      add\n      mload(0x40)\n      swap1\n      dup2\n      add\n      0x40\n      mstore\n      dup1\n      swap3\n      swap2\n      swap1\n      dup2\n      dup2\n      mstore\n      0x20\n      add\n      dup3\n      dup1\n      sload\n      tag_31\n      swap1\n      tag_22\n      jump\t// in\n    tag_31:\n      dup1\n      iszero\n      tag_32\n      jumpi\n      dup1\n      0x1f\n      lt\n      tag_33\n      jumpi\n      0x0100\n      dup1\n      dup4\n      sload\n      div\n      mul\n      dup4\n      mstore\n      swap2\n      0x20\n      add\n      swap2\n      jump(tag_32)\n    tag_33:\n      dup3\n      add\n      swap2\n      swap1\n      0x00\n      mstore\n      keccak256(0x00, 0x20)\n      swap1\n    tag_34:\n      dup2\n      sload\n      dup2\n      mstore\n      swap1\n      0x01\n      add\n      swap1\n      0x20\n      add\n      dup1\n      dup4\n      gt\n      tag_34\n      jumpi\n      dup3\n      swap1\n      sub\n      0x1f\n      and\n      dup3\n      add\n      swap2\n    tag_32:\n      pop\n      pop\n      pop\n      pop\n      pop\n      dup2\n      mstore\n      0x20\n      add\n      swap1\n      0x01\n      add\n      swap1\n      jump(tag_27)\n    tag_28:\n      pop\n      pop\n      pop\n      pop\n      swap1\n      pop\n      swap2\n      pop\n      swap2\n      pop\n        /* \"contracts/Practical 10/SingleInheritance.sol\":294:397  function getVal() public view returns (string memory, string[2] memory) {... */\n      swap1\n      swap2\n      jump\t// out\n    tag_17:\n      dup3\n      0x02\n      dup2\n      add\n      swap3\n      dup3\n      iszero\n      tag_35\n      jumpi\n      swap2\n      0x20\n      mul\n      dup3\n      add\n    tag_36:\n      dup3\n      dup2\n      gt\n      iszero\n      tag_37\n      jumpi\n      dup3\n      mload\n      dup3\n      swap1\n      dup2\n      tag_38\n      swap2\n      swap1\n      tag_15\n      jump\t// in\n    tag_38:\n      pop\n      swap2\n      0x20\n      add\n      swap2\n      swap1\n      0x01\n      add\n      swap1\n      jump(tag_36)\n    tag_37:\n    tag_35:\n      pop\n      swap1\n      pop\n      tag_39\n      swap2\n      swap1\n      tag_40\n      jump\t// in\n    tag_39:\n      pop\n      swap1\n      jump\t// out\n    tag_19:\n      mload(0x40)\n      dup1\n      0x40\n      add\n      0x40\n      mstore\n      dup1\n      0x02\n      swap1\n    tag_41:\n      0x60\n      dup2\n      mstore\n      0x20\n      add\n      swap1\n      0x01\n      swap1\n      sub\n      swap1\n      dup2\n      tag_41\n      jumpi\n      swap1\n      pop\n      pop\n      swap1\n      jump\t// out\n    tag_40:\n    tag_42:\n      dup1\n      dup3\n      gt\n      iszero\n      tag_43\n      jumpi\n      0x00\n      dup2\n      dup2\n      tag_44\n      swap2\n      swap1\n      tag_45\n      jump\t// in\n    tag_44:\n      pop\n      0x01\n      add\n      jump(tag_42)\n    tag_43:\n      pop\n      swap1\n      jump\t// out\n    tag_45:\n      pop\n      dup1\n      sload\n      tag_46\n      swap1\n      tag_22\n      jump\t// in\n    tag_46:\n      0x00\n      dup3\n      sstore\n      dup1\n      0x1f\n      lt\n      tag_48\n      jumpi\n      pop\n      jump(tag_47)\n    tag_48:\n      0x1f\n      add\n      0x20\n      swap1\n      div\n      swap1\n      0x00\n      mstore\n      keccak256(0x00, 0x20)\n      swap1\n      dup2\n      add\n      swap1\n      tag_49\n      swap2\n      swap1\n      tag_50\n      jump\t// in\n    tag_49:\n    tag_47:\n      pop\n      jump\t// out\n    tag_50:\n    tag_51:\n      dup1\n      dup3\n      gt\n      iszero\n      tag_52\n      jumpi\n      0x00\n      dup2\n      0x00\n      swap1\n      sstore\n      pop\n      0x01\n      add\n      jump(tag_51)\n    tag_52:\n      pop\n      swap1\n      jump\t// out\n        /* \"#utility.yul\":7:82   */\n    tag_53:\n        /* \"#utility.yul\":40:46   */\n      0x00\n        /* \"#utility.yul\":73:75   */\n      0x40\n        /* \"#utility.yul\":67:76   */\n      mload\n        /* \"#utility.yul\":57:76   */\n      swap1\n      pop\n        /* \"#utility.yul\":7:82   */\n      swap1\n      jump\t// out\n        /* \"#utility.yul\":88:205   */\n    tag_54:\n        /* \"#utility.yul\":197:198   */\n      0x00\n        /* \"#utility.yul\":194:195   */\n      dup1\n        /* \"#utility.yul\":187:199   */\n      revert\n        /* \"#utility.yul\":211:328   */\n    tag_55:\n        /* \"#utility.yul\":320:321   */\n      0x00\n        /* \"#utility.yul\":317:318   */\n      dup1\n        /* \"#utility.yul\":310:322   */\n      revert\n        /* \"#utility.yul\":334:451   */\n    tag_56:\n        /* \"#utility.yul\":443:444   */\n      0x00\n        /* \"#utility.yul\":440:441   */\n      dup1\n        /* \"#utility.yul\":433:445   */\n      revert\n        /* \"#utility.yul\":457:574   */\n    tag_57:\n        /* \"#utility.yul\":566:567   */\n      0x00\n        /* \"#utility.yul\":563:564   */\n      dup1\n        /* \"#utility.yul\":556:568   */\n      revert\n        /* \"#utility.yul\":580:682   */\n    tag_58:\n        /* \"#utility.yul\":621:627   */\n      0x00\n        /* \"#utility.yul\":672:674   */\n      0x1f\n        /* \"#utility.yul\":668:675   */\n      not\n        /* \"#utility.yul\":663:665   */\n      0x1f\n        /* \"#utility.yul\":656:661   */\n      dup4\n        /* \"#utility.yul\":652:666   */\n      add\n        /* \"#utility.yul\":648:676   */\n      and\n        /* \"#utility.yul\":638:676   */\n      swap1\n      pop\n        /* \"#utility.yul\":580:682   */\n      swap2\n      swap1\n      pop\n      jump\t// out\n        /* \"#utility.yul\":688:868   */\n    tag_59:\n        /* \"#utility.yul\":736:813   */\n      0x4e487b7100000000000000000000000000000000000000000000000000000000\n        /* \"#utility.yul\":733:734   */\n      0x00\n        /* \"#utility.yul\":726:814   */\n      mstore\n        /* \"#utility.yul\":833:837   */\n      0x41\n        /* \"#utility.yul\":830:831   */\n      0x04\n        /* \"#utility.yul\":823:838   */\n      mstore\n        /* \"#utility.yul\":857:861   */\n      0x24\n        /* \"#utility.yul\":854:855   */\n      0x00\n        /* \"#utility.yul\":847:862   */\n      revert\n        /* \"#utility.yul\":874:1155   */\n    tag_60:\n        /* \"#utility.yul\":957:984   */\n      tag_108\n        /* \"#utility.yul\":979:983   */\n      dup3\n        /* \"#utility.yul\":957:984   */\n      tag_58\n      jump\t// in\n    tag_108:\n        /* \"#utility.yul\":949:955   */\n      dup2\n        /* \"#utility.yul\":945:985   */\n      add\n        /* \"#utility.yul\":1087:1093   */\n      dup2\n        /* \"#utility.yul\":1075:1085   */\n      dup2\n        /* \"#utility.yul\":1072:1094   */\n      lt\n        /* \"#utility.yul\":1051:1069   */\n      0xffffffffffffffff\n        /* \"#utility.yul\":1039:1049   */\n      dup3\n        /* \"#utility.yul\":1036:1070   */\n      gt\n        /* \"#utility.yul\":1033:1095   */\n      or\n        /* \"#utility.yul\":1030:1118   */\n      iszero\n      tag_109\n      jumpi\n        /* \"#utility.yul\":1098:1116   */\n      tag_110\n      tag_59\n      jump\t// in\n    tag_110:\n        /* \"#utility.yul\":1030:1118   */\n    tag_109:\n        /* \"#utility.yul\":1138:1148   */\n      dup1\n        /* \"#utility.yul\":1134:1136   */\n      0x40\n        /* \"#utility.yul\":1127:1149   */\n      mstore\n        /* \"#utility.yul\":917:1155   */\n      pop\n        /* \"#utility.yul\":874:1155   */\n      pop\n      pop\n      jump\t// out\n        /* \"#utility.yul\":1161:1290   */\n    tag_61:\n        /* \"#utility.yul\":1195:1201   */\n      0x00\n        /* \"#utility.yul\":1222:1242   */\n      tag_112\n      tag_53\n      jump\t// in\n    tag_112:\n        /* \"#utility.yul\":1212:1242   */\n      swap1\n      pop\n        /* \"#utility.yul\":1251:1284   */\n      tag_113\n        /* \"#utility.yul\":1279:1283   */\n      dup3\n        /* \"#utility.yul\":1271:1277   */\n      dup3\n        /* \"#utility.yul\":1251:1284   */\n      tag_60\n      jump\t// in\n    tag_113:\n        /* \"#utility.yul\":1161:1290   */\n      swap2\n      swap1\n      pop\n      jump\t// out\n        /* \"#utility.yul\":1296:1604   */\n    tag_62:\n        /* \"#utility.yul\":1358:1362   */\n      0x00\n        /* \"#utility.yul\":1448:1466   */\n      0xffffffffffffffff\n        /* \"#utility.yul\":1440:1446   */\n      dup3\n        /* \"#utility.yul\":1437:1467   */\n      gt\n        /* \"#utility.yul\":1434:1490   */\n      iszero\n      tag_115\n      jumpi\n        /* \"#utility.yul\":1470:1488   */\n      tag_116\n      tag_59\n      jump\t// in\n    tag_116:\n        /* \"#utility.yul\":1434:1490   */\n    tag_115:\n        /* \"#utility.yul\":1508:1537   */\n      tag_117\n        /* \"#utility.yul\":1530:1536   */\n      dup3\n        /* \"#utility.yul\":1508:1537   */\n      tag_58\n      jump\t// in\n    tag_117:\n        /* \"#utility.yul\":1500:1537   */\n      swap1\n      pop\n        /* \"#utility.yul\":1592:1596   */\n      0x20\n        /* \"#utility.yul\":1586:1590   */\n      dup2\n        /* \"#utility.yul\":1582:1597   */\n      add\n        /* \"#utility.yul\":1574:1597   */\n      swap1\n      pop\n        /* \"#utility.yul\":1296:1604   */\n      swap2\n      swap1\n      pop\n      jump\t// out\n        /* \"#utility.yul\":1610:1758   */\n    tag_63:\n        /* \"#utility.yul\":1708:1714   */\n      dup3\n        /* \"#utility.yul\":1703:1706   */\n      dup2\n        /* \"#utility.yul\":1698:1701   */\n      dup4\n        /* \"#utility.yul\":1685:1715   */\n      calldatacopy\n        /* \"#utility.yul\":1749:1750   */\n      0x00\n        /* \"#utility.yul\":1740:1746   */\n      dup4\n        /* \"#utility.yul\":1735:1738   */\n      dup4\n        /* \"#utility.yul\":1731:1747   */\n      add\n        /* \"#utility.yul\":1724:1751   */\n      mstore\n        /* \"#utility.yul\":1610:1758   */\n      pop\n      pop\n      pop\n      jump\t// out\n        /* \"#utility.yul\":1764:2189   */\n    tag_64:\n        /* \"#utility.yul\":1842:1847   */\n      0x00\n        /* \"#utility.yul\":1867:1933   */\n      tag_120\n        /* \"#utility.yul\":1883:1932   */\n      tag_121\n        /* \"#utility.yul\":1925:1931   */\n      dup5\n        /* \"#utility.yul\":1883:1932   */\n      tag_62\n      jump\t// in\n    tag_121:\n        /* \"#utility.yul\":1867:1933   */\n      tag_61\n      jump\t// in\n    tag_120:\n        /* \"#utility.yul\":1858:1933   */\n      swap1\n      pop\n        /* \"#utility.yul\":1956:1962   */\n      dup3\n        /* \"#utility.yul\":1949:1954   */\n      dup2\n        /* \"#utility.yul\":1942:1963   */\n      mstore\n        /* \"#utility.yul\":1994:1998   */\n      0x20\n        /* \"#utility.yul\":1987:1992   */\n      dup2\n        /* \"#utility.yul\":1983:1999   */\n      add\n        /* \"#utility.yul\":2032:2035   */\n      dup5\n        /* \"#utility.yul\":2023:2029   */\n      dup5\n        /* \"#utility.yul\":2018:2021   */\n      dup5\n        /* \"#utility.yul\":2014:2030   */\n      add\n        /* \"#utility.yul\":2011:2036   */\n      gt\n        /* \"#utility.yul\":2008:2120   */\n      iszero\n      tag_122\n      jumpi\n        /* \"#utility.yul\":2039:2118   */\n      tag_123\n      tag_57\n      jump\t// in\n    tag_123:\n        /* \"#utility.yul\":2008:2120   */\n    tag_122:\n        /* \"#utility.yul\":2129:2183   */\n      tag_124\n        /* \"#utility.yul\":2176:2182   */\n      dup5\n        /* \"#utility.yul\":2171:2174   */\n      dup3\n        /* \"#utility.yul\":2166:2169   */\n      dup6\n        /* \"#utility.yul\":2129:2183   */\n      tag_63\n      jump\t// in\n    tag_124:\n        /* \"#utility.yul\":1848:2189   */\n      pop\n        /* \"#utility.yul\":1764:2189   */\n      swap4\n      swap3\n      pop\n      pop\n      pop\n      jump\t// out\n        /* \"#utility.yul\":2209:2549   */\n    tag_65:\n        /* \"#utility.yul\":2265:2270   */\n      0x00\n        /* \"#utility.yul\":2314:2317   */\n      dup3\n        /* \"#utility.yul\":2307:2311   */\n      0x1f\n        /* \"#utility.yul\":2299:2305   */\n      dup4\n        /* \"#utility.yul\":2295:2312   */\n      add\n        /* \"#utility.yul\":2291:2318   */\n      slt\n        /* \"#utility.yul\":2281:2403   */\n      tag_126\n      jumpi\n        /* \"#utility.yul\":2322:2401   */\n      tag_127\n      tag_56\n      jump\t// in\n    tag_127:\n        /* \"#utility.yul\":2281:2403   */\n    tag_126:\n        /* \"#utility.yul\":2439:2445   */\n      dup2\n        /* \"#utility.yul\":2426:2446   */\n      calldataload\n        /* \"#utility.yul\":2464:2543   */\n      tag_128\n        /* \"#utility.yul\":2539:2542   */\n      dup5\n        /* \"#utility.yul\":2531:2537   */\n      dup3\n        /* \"#utility.yul\":2524:2528   */\n      0x20\n        /* \"#utility.yul\":2516:2522   */\n      dup7\n        /* \"#utility.yul\":2512:2529   */\n      add\n        /* \"#utility.yul\":2464:2543   */\n      tag_64\n      jump\t// in\n    tag_128:\n        /* \"#utility.yul\":2455:2543   */\n      swap2\n      pop\n        /* \"#utility.yul\":2271:2549   */\n      pop\n        /* \"#utility.yul\":2209:2549   */\n      swap3\n      swap2\n      pop\n      pop\n      jump\t// out\n        /* \"#utility.yul\":2555:2814   */\n    tag_66:\n        /* \"#utility.yul\":2640:2644   */\n      0x00\n        /* \"#utility.yul\":2730:2748   */\n      0xffffffffffffffff\n        /* \"#utility.yul\":2722:2728   */\n      dup3\n        /* \"#utility.yul\":2719:2749   */\n      gt\n        /* \"#utility.yul\":2716:2772   */\n      iszero\n      tag_130\n      jumpi\n        /* \"#utility.yul\":2752:2770   */\n      tag_131\n      tag_59\n      jump\t// in\n    tag_131:\n        /* \"#utility.yul\":2716:2772   */\n    tag_130:\n        /* \"#utility.yul\":2802:2806   */\n      0x20\n        /* \"#utility.yul\":2794:2800   */\n      dup3\n        /* \"#utility.yul\":2790:2807   */\n      mul\n        /* \"#utility.yul\":2782:2807   */\n      swap1\n      pop\n        /* \"#utility.yul\":2555:2814   */\n      swap2\n      swap1\n      pop\n      jump\t// out\n        /* \"#utility.yul\":2820:2937   */\n    tag_67:\n        /* \"#utility.yul\":2929:2930   */\n      0x00\n        /* \"#utility.yul\":2926:2927   */\n      dup1\n        /* \"#utility.yul\":2919:2931   */\n      revert\n        /* \"#utility.yul\":2960:3838   */\n    tag_68:\n        /* \"#utility.yul\":3064:3069   */\n      0x00\n        /* \"#utility.yul\":3089:3178   */\n      tag_134\n        /* \"#utility.yul\":3105:3177   */\n      tag_135\n        /* \"#utility.yul\":3170:3176   */\n      dup5\n        /* \"#utility.yul\":3105:3177   */\n      tag_66\n      jump\t// in\n    tag_135:\n        /* \"#utility.yul\":3089:3178   */\n      tag_61\n      jump\t// in\n    tag_134:\n        /* \"#utility.yul\":3080:3178   */\n      swap1\n      pop\n        /* \"#utility.yul\":3198:3203   */\n      dup1\n        /* \"#utility.yul\":3251:3255   */\n      0x20\n        /* \"#utility.yul\":3243:3249   */\n      dup5\n        /* \"#utility.yul\":3239:3256   */\n      mul\n        /* \"#utility.yul\":3231:3237   */\n      dup4\n        /* \"#utility.yul\":3227:3257   */\n      add\n        /* \"#utility.yul\":3280:3283   */\n      dup6\n        /* \"#utility.yul\":3272:3278   */\n      dup2\n        /* \"#utility.yul\":3269:3284   */\n      gt\n        /* \"#utility.yul\":3266:3388   */\n      iszero\n      tag_136\n      jumpi\n        /* \"#utility.yul\":3299:3378   */\n      tag_137\n      tag_67\n      jump\t// in\n    tag_137:\n        /* \"#utility.yul\":3266:3388   */\n    tag_136:\n        /* \"#utility.yul\":3414:3420   */\n      dup4\n        /* \"#utility.yul\":3397:3832   */\n    tag_138:\n        /* \"#utility.yul\":3431:3437   */\n      dup2\n        /* \"#utility.yul\":3426:3429   */\n      dup2\n        /* \"#utility.yul\":3423:3438   */\n      lt\n        /* \"#utility.yul\":3397:3832   */\n      iszero\n      tag_140\n      jumpi\n        /* \"#utility.yul\":3520:3523   */\n      dup1\n        /* \"#utility.yul\":3507:3524   */\n      calldataload\n        /* \"#utility.yul\":3556:3574   */\n      0xffffffffffffffff\n        /* \"#utility.yul\":3543:3554   */\n      dup2\n        /* \"#utility.yul\":3540:3575   */\n      gt\n        /* \"#utility.yul\":3537:3659   */\n      iszero\n      tag_141\n      jumpi\n        /* \"#utility.yul\":3578:3657   */\n      tag_142\n      tag_56\n      jump\t// in\n    tag_142:\n        /* \"#utility.yul\":3537:3659   */\n    tag_141:\n        /* \"#utility.yul\":3702:3713   */\n      dup1\n        /* \"#utility.yul\":3694:3700   */\n      dup7\n        /* \"#utility.yul\":3690:3714   */\n      add\n        /* \"#utility.yul\":3740:3787   */\n      tag_143\n        /* \"#utility.yul\":3783:3786   */\n      dup10\n        /* \"#utility.yul\":3771:3781   */\n      dup3\n        /* \"#utility.yul\":3740:3787   */\n      tag_65\n      jump\t// in\n    tag_143:\n        /* \"#utility.yul\":3735:3738   */\n      dup6\n        /* \"#utility.yul\":3728:3788   */\n      mstore\n        /* \"#utility.yul\":3817:3821   */\n      0x20\n        /* \"#utility.yul\":3812:3815   */\n      dup6\n        /* \"#utility.yul\":3808:3822   */\n      add\n        /* \"#utility.yul\":3801:3822   */\n      swap5\n      pop\n        /* \"#utility.yul\":3473:3832   */\n      pop\n      pop\n        /* \"#utility.yul\":3457:3461   */\n      0x20\n        /* \"#utility.yul\":3452:3455   */\n      dup2\n        /* \"#utility.yul\":3448:3462   */\n      add\n        /* \"#utility.yul\":3441:3462   */\n      swap1\n      pop\n        /* \"#utility.yul\":3397:3832   */\n      jump(tag_138)\n    tag_140:\n        /* \"#utility.yul\":3401:3422   */\n      pop\n        /* \"#utility.yul\":3070:3838   */\n      pop\n      pop\n        /* \"#utility.yul\":2960:3838   */\n      swap4\n      swap3\n      pop\n      pop\n      pop\n      jump\t// out\n        /* \"#utility.yul\":3861:4220   */\n    tag_69:\n        /* \"#utility.yul\":3940:3945   */\n      0x00\n        /* \"#utility.yul\":3989:3992   */\n      dup3\n        /* \"#utility.yul\":3982:3986   */\n      0x1f\n        /* \"#utility.yul\":3974:3980   */\n      dup4\n        /* \"#utility.yul\":3970:3987   */\n      add\n        /* \"#utility.yul\":3966:3993   */\n      slt\n        /* \"#utility.yul\":3956:4078   */\n      tag_145\n      jumpi\n        /* \"#utility.yul\":3997:4076   */\n      tag_146\n      tag_56\n      jump\t// in\n    tag_146:\n        /* \"#utility.yul\":3956:4078   */\n    tag_145:\n        /* \"#utility.yul\":4101:4105   */\n      0x02\n        /* \"#utility.yul\":4123:4214   */\n      tag_147\n        /* \"#utility.yul\":4210:4213   */\n      dup5\n        /* \"#utility.yul\":4202:4208   */\n      dup3\n        /* \"#utility.yul\":4194:4200   */\n      dup6\n        /* \"#utility.yul\":4123:4214   */\n      tag_68\n      jump\t// in\n    tag_147:\n        /* \"#utility.yul\":4114:4214   */\n      swap2\n      pop\n        /* \"#utility.yul\":3946:4220   */\n      pop\n        /* \"#utility.yul\":3861:4220   */\n      swap3\n      swap2\n      pop\n      pop\n      jump\t// out\n        /* \"#utility.yul\":4226:5106   */\n    tag_7:\n        /* \"#utility.yul\":4337:4343   */\n      0x00\n        /* \"#utility.yul\":4345:4351   */\n      dup1\n        /* \"#utility.yul\":4394:4396   */\n      0x40\n        /* \"#utility.yul\":4382:4391   */\n      dup4\n        /* \"#utility.yul\":4373:4380   */\n      dup6\n        /* \"#utility.yul\":4369:4392   */\n      sub\n        /* \"#utility.yul\":4365:4397   */\n      slt\n        /* \"#utility.yul\":4362:4481   */\n      iszero\n      tag_149\n      jumpi\n        /* \"#utility.yul\":4400:4479   */\n      tag_150\n      tag_54\n      jump\t// in\n    tag_150:\n        /* \"#utility.yul\":4362:4481   */\n    tag_149:\n        /* \"#utility.yul\":4548:4549   */\n      0x00\n        /* \"#utility.yul\":4537:4546   */\n      dup4\n        /* \"#utility.yul\":4533:4550   */\n      add\n        /* \"#utility.yul\":4520:4551   */\n      calldataload\n        /* \"#utility.yul\":4578:4596   */\n      0xffffffffffffffff\n        /* \"#utility.yul\":4570:4576   */\n      dup2\n        /* \"#utility.yul\":4567:4597   */\n      gt\n        /* \"#utility.yul\":4564:4681   */\n      iszero\n      tag_151\n      jumpi\n        /* \"#utility.yul\":4600:4679   */\n      tag_152\n      tag_55\n      jump\t// in\n    tag_152:\n        /* \"#utility.yul\":4564:4681   */\n    tag_151:\n        /* \"#utility.yul\":4705:4768   */\n      tag_153\n        /* \"#utility.yul\":4760:4767   */\n      dup6\n        /* \"#utility.yul\":4751:4757   */\n      dup3\n        /* \"#utility.yul\":4740:4749   */\n      dup7\n        /* \"#utility.yul\":4736:4758   */\n      add\n        /* \"#utility.yul\":4705:4768   */\n      tag_65\n      jump\t// in\n    tag_153:\n        /* \"#utility.yul\":4695:4768   */\n      swap3\n      pop\n        /* \"#utility.yul\":4491:4778   */\n      pop\n        /* \"#utility.yul\":4845:4847   */\n      0x20\n        /* \"#utility.yul\":4834:4843   */\n      dup4\n        /* \"#utility.yul\":4830:4848   */\n      add\n        /* \"#utility.yul\":4817:4849   */\n      calldataload\n        /* \"#utility.yul\":4876:4894   */\n      0xffffffffffffffff\n        /* \"#utility.yul\":4868:4874   */\n      dup2\n        /* \"#utility.yul\":4865:4895   */\n      gt\n        /* \"#utility.yul\":4862:4979   */\n      iszero\n      tag_154\n      jumpi\n        /* \"#utility.yul\":4898:4977   */\n      tag_155\n      tag_55\n      jump\t// in\n    tag_155:\n        /* \"#utility.yul\":4862:4979   */\n    tag_154:\n        /* \"#utility.yul\":5003:5089   */\n      tag_156\n        /* \"#utility.yul\":5081:5088   */\n      dup6\n        /* \"#utility.yul\":5072:5078   */\n      dup3\n        /* \"#utility.yul\":5061:5070   */\n      dup7\n        /* \"#utility.yul\":5057:5079   */\n      add\n        /* \"#utility.yul\":5003:5089   */\n      tag_69\n      jump\t// in\n    tag_156:\n        /* \"#utility.yul\":4993:5089   */\n      swap2\n      pop\n        /* \"#utility.yul\":4788:5099   */\n      pop\n        /* \"#utility.yul\":4226:5106   */\n      swap3\n      pop\n      swap3\n      swap1\n      pop\n      jump\t// out\n        /* \"#utility.yul\":5112:5211   */\n    tag_70:\n        /* \"#utility.yul\":5164:5170   */\n      0x00\n        /* \"#utility.yul\":5198:5203   */\n      dup2\n        /* \"#utility.yul\":5192:5204   */\n      mload\n        /* \"#utility.yul\":5182:5204   */\n      swap1\n      pop\n        /* \"#utility.yul\":5112:5211   */\n      swap2\n      swap1\n      pop\n      jump\t// out\n        /* \"#utility.yul\":5217:5386   */\n    tag_71:\n        /* \"#utility.yul\":5301:5312   */\n      0x00\n        /* \"#utility.yul\":5335:5341   */\n      dup3\n        /* \"#utility.yul\":5330:5333   */\n      dup3\n        /* \"#utility.yul\":5323:5342   */\n      mstore\n        /* \"#utility.yul\":5375:5379   */\n      0x20\n        /* \"#utility.yul\":5370:5373   */\n      dup3\n        /* \"#utility.yul\":5366:5380   */\n      add\n        /* \"#utility.yul\":5351:5380   */\n      swap1\n      pop\n        /* \"#utility.yul\":5217:5386   */\n      swap3\n      swap2\n      pop\n      pop\n      jump\t// out\n        /* \"#utility.yul\":5392:5531   */\n    tag_72:\n        /* \"#utility.yul\":5481:5487   */\n      dup3\n        /* \"#utility.yul\":5476:5479   */\n      dup2\n        /* \"#utility.yul\":5471:5474   */\n      dup4\n        /* \"#utility.yul\":5465:5488   */\n      mcopy\n        /* \"#utility.yul\":5522:5523   */\n      0x00\n        /* \"#utility.yul\":5513:5519   */\n      dup4\n        /* \"#utility.yul\":5508:5511   */\n      dup4\n        /* \"#utility.yul\":5504:5520   */\n      add\n        /* \"#utility.yul\":5497:5524   */\n      mstore\n        /* \"#utility.yul\":5392:5531   */\n      pop\n      pop\n      pop\n      jump\t// out\n        /* \"#utility.yul\":5537:5914   */\n    tag_73:\n        /* \"#utility.yul\":5625:5628   */\n      0x00\n        /* \"#utility.yul\":5653:5692   */\n      tag_161\n        /* \"#utility.yul\":5686:5691   */\n      dup3\n        /* \"#utility.yul\":5653:5692   */\n      tag_70\n      jump\t// in\n    tag_161:\n        /* \"#utility.yul\":5708:5779   */\n      tag_162\n        /* \"#utility.yul\":5772:5778   */\n      dup2\n        /* \"#utility.yul\":5767:5770   */\n      dup6\n        /* \"#utility.yul\":5708:5779   */\n      tag_71\n      jump\t// in\n    tag_162:\n        /* \"#utility.yul\":5701:5779   */\n      swap4\n      pop\n        /* \"#utility.yul\":5788:5853   */\n      tag_163\n        /* \"#utility.yul\":5846:5852   */\n      dup2\n        /* \"#utility.yul\":5841:5844   */\n      dup6\n        /* \"#utility.yul\":5834:5838   */\n      0x20\n        /* \"#utility.yul\":5827:5832   */\n      dup7\n        /* \"#utility.yul\":5823:5839   */\n      add\n        /* \"#utility.yul\":5788:5853   */\n      tag_72\n      jump\t// in\n    tag_163:\n        /* \"#utility.yul\":5878:5907   */\n      tag_164\n        /* \"#utility.yul\":5900:5906   */\n      dup2\n        /* \"#utility.yul\":5878:5907   */\n      tag_58\n      jump\t// in\n    tag_164:\n        /* \"#utility.yul\":5873:5876   */\n      dup5\n        /* \"#utility.yul\":5869:5908   */\n      add\n        /* \"#utility.yul\":5862:5908   */\n      swap2\n      pop\n        /* \"#utility.yul\":5629:5914   */\n      pop\n        /* \"#utility.yul\":5537:5914   */\n      swap3\n      swap2\n      pop\n      pop\n      jump\t// out\n        /* \"#utility.yul\":5920:6034   */\n    tag_74:\n        /* \"#utility.yul\":5995:6001   */\n      0x00\n        /* \"#utility.yul\":6023:6027   */\n      0x02\n        /* \"#utility.yul\":6013:6027   */\n      swap1\n      pop\n        /* \"#utility.yul\":5920:6034   */\n      swap2\n      swap1\n      pop\n      jump\t// out\n        /* \"#utility.yul\":6040:6193   */\n    tag_75:\n        /* \"#utility.yul\":6147:6158   */\n      0x00\n        /* \"#utility.yul\":6184:6187   */\n      dup2\n        /* \"#utility.yul\":6169:6187   */\n      swap1\n      pop\n        /* \"#utility.yul\":6040:6193   */\n      swap3\n      swap2\n      pop\n      pop\n      jump\t// out\n        /* \"#utility.yul\":6199:6307   */\n    tag_76:\n        /* \"#utility.yul\":6274:6278   */\n      0x00\n        /* \"#utility.yul\":6297:6300   */\n      dup2\n        /* \"#utility.yul\":6289:6300   */\n      swap1\n      pop\n        /* \"#utility.yul\":6199:6307   */\n      swap2\n      swap1\n      pop\n      jump\t// out\n        /* \"#utility.yul\":6313:6472   */\n    tag_77:\n        /* \"#utility.yul\":6387:6398   */\n      0x00\n        /* \"#utility.yul\":6421:6427   */\n      dup3\n        /* \"#utility.yul\":6416:6419   */\n      dup3\n        /* \"#utility.yul\":6409:6428   */\n      mstore\n        /* \"#utility.yul\":6461:6465   */\n      0x20\n        /* \"#utility.yul\":6456:6459   */\n      dup3\n        /* \"#utility.yul\":6452:6466   */\n      add\n        /* \"#utility.yul\":6437:6466   */\n      swap1\n      pop\n        /* \"#utility.yul\":6313:6472   */\n      swap3\n      swap2\n      pop\n      pop\n      jump\t// out\n        /* \"#utility.yul\":6478:6835   */\n    tag_78:\n        /* \"#utility.yul\":6556:6559   */\n      0x00\n        /* \"#utility.yul\":6584:6623   */\n      tag_170\n        /* \"#utility.yul\":6617:6622   */\n      dup3\n        /* \"#utility.yul\":6584:6623   */\n      tag_70\n      jump\t// in\n    tag_170:\n        /* \"#utility.yul\":6639:6700   */\n      tag_171\n        /* \"#utility.yul\":6693:6699   */\n      dup2\n        /* \"#utility.yul\":6688:6691   */\n      dup6\n        /* \"#utility.yul\":6639:6700   */\n      tag_77\n      jump\t// in\n    tag_171:\n        /* \"#utility.yul\":6632:6700   */\n      swap4\n      pop\n        /* \"#utility.yul\":6709:6774   */\n      tag_172\n        /* \"#utility.yul\":6767:6773   */\n      dup2\n        /* \"#utility.yul\":6762:6765   */\n      dup6\n        /* \"#utility.yul\":6755:6759   */\n      0x20\n        /* \"#utility.yul\":6748:6753   */\n      dup7\n        /* \"#utility.yul\":6744:6760   */\n      add\n        /* \"#utility.yul\":6709:6774   */\n      tag_72\n      jump\t// in\n    tag_172:\n        /* \"#utility.yul\":6799:6828   */\n      tag_173\n        /* \"#utility.yul\":6821:6827   */\n      dup2\n        /* \"#utility.yul\":6799:6828   */\n      tag_58\n      jump\t// in\n    tag_173:\n        /* \"#utility.yul\":6794:6797   */\n      dup5\n        /* \"#utility.yul\":6790:6829   */\n      add\n        /* \"#utility.yul\":6783:6829   */\n      swap2\n      pop\n        /* \"#utility.yul\":6560:6835   */\n      pop\n        /* \"#utility.yul\":6478:6835   */\n      swap3\n      swap2\n      pop\n      pop\n      jump\t// out\n        /* \"#utility.yul\":6841:7037   */\n    tag_79:\n        /* \"#utility.yul\":6930:6940   */\n      0x00\n        /* \"#utility.yul\":6965:7031   */\n      tag_175\n        /* \"#utility.yul\":7027:7030   */\n      dup4\n        /* \"#utility.yul\":7019:7025   */\n      dup4\n        /* \"#utility.yul\":6965:7031   */\n      tag_78\n      jump\t// in\n    tag_175:\n        /* \"#utility.yul\":6951:7031   */\n      swap1\n      pop\n        /* \"#utility.yul\":6841:7037   */\n      swap3\n      swap2\n      pop\n      pop\n      jump\t// out\n        /* \"#utility.yul\":7043:7164   */\n    tag_80:\n        /* \"#utility.yul\":7121:7125   */\n      0x00\n        /* \"#utility.yul\":7153:7157   */\n      0x20\n        /* \"#utility.yul\":7148:7151   */\n      dup3\n        /* \"#utility.yul\":7144:7158   */\n      add\n        /* \"#utility.yul\":7136:7158   */\n      swap1\n      pop\n        /* \"#utility.yul\":7043:7164   */\n      swap2\n      swap1\n      pop\n      jump\t// out\n        /* \"#utility.yul\":7200:8179   */\n    tag_81:\n        /* \"#utility.yul\":7335:7338   */\n      0x00\n        /* \"#utility.yul\":7364:7426   */\n      tag_178\n        /* \"#utility.yul\":7420:7425   */\n      dup3\n        /* \"#utility.yul\":7364:7426   */\n      tag_74\n      jump\t// in\n    tag_178:\n        /* \"#utility.yul\":7442:7536   */\n      tag_179\n        /* \"#utility.yul\":7529:7535   */\n      dup2\n        /* \"#utility.yul\":7524:7527   */\n      dup6\n        /* \"#utility.yul\":7442:7536   */\n      tag_75\n      jump\t// in\n    tag_179:\n        /* \"#utility.yul\":7435:7536   */\n      swap4\n      pop\n        /* \"#utility.yul\":7562:7565   */\n      dup4\n        /* \"#utility.yul\":7607:7611   */\n      0x20\n        /* \"#utility.yul\":7599:7605   */\n      dup3\n        /* \"#utility.yul\":7595:7612   */\n      mul\n        /* \"#utility.yul\":7590:7593   */\n      dup6\n        /* \"#utility.yul\":7586:7613   */\n      add\n        /* \"#utility.yul\":7637:7701   */\n      tag_180\n        /* \"#utility.yul\":7695:7700   */\n      dup6\n        /* \"#utility.yul\":7637:7701   */\n      tag_76\n      jump\t// in\n    tag_180:\n        /* \"#utility.yul\":7724:7731   */\n      dup1\n        /* \"#utility.yul\":7755:7756   */\n      0x00\n        /* \"#utility.yul\":7740:8134   */\n    tag_181:\n        /* \"#utility.yul\":7765:7771   */\n      dup6\n        /* \"#utility.yul\":7762:7763   */\n      dup2\n        /* \"#utility.yul\":7759:7772   */\n      lt\n        /* \"#utility.yul\":7740:8134   */\n      iszero\n      tag_183\n      jumpi\n        /* \"#utility.yul\":7836:7845   */\n      dup5\n        /* \"#utility.yul\":7830:7834   */\n      dup5\n        /* \"#utility.yul\":7826:7846   */\n      sub\n        /* \"#utility.yul\":7821:7824   */\n      dup10\n        /* \"#utility.yul\":7814:7847   */\n      mstore\n        /* \"#utility.yul\":7887:7893   */\n      dup2\n        /* \"#utility.yul\":7881:7894   */\n      mload\n        /* \"#utility.yul\":7915:7999   */\n      tag_184\n        /* \"#utility.yul\":7994:7998   */\n      dup6\n        /* \"#utility.yul\":7979:7992   */\n      dup3\n        /* \"#utility.yul\":7915:7999   */\n      tag_79\n      jump\t// in\n    tag_184:\n        /* \"#utility.yul\":7907:7999   */\n      swap5\n      pop\n        /* \"#utility.yul\":8022:8090   */\n      tag_185\n        /* \"#utility.yul\":8083:8089   */\n      dup4\n        /* \"#utility.yul\":8022:8090   */\n      tag_80\n      jump\t// in\n    tag_185:\n        /* \"#utility.yul\":8012:8090   */\n      swap3\n      pop\n        /* \"#utility.yul\":8119:8123   */\n      0x20\n        /* \"#utility.yul\":8114:8117   */\n      dup11\n        /* \"#utility.yul\":8110:8124   */\n      add\n        /* \"#utility.yul\":8103:8124   */\n      swap10\n      pop\n        /* \"#utility.yul\":7800:8134   */\n      pop\n        /* \"#utility.yul\":7787:7788   */\n      0x01\n        /* \"#utility.yul\":7784:7785   */\n      dup2\n        /* \"#utility.yul\":7780:7789   */\n      add\n        /* \"#utility.yul\":7775:7789   */\n      swap1\n      pop\n        /* \"#utility.yul\":7740:8134   */\n      jump(tag_181)\n    tag_183:\n        /* \"#utility.yul\":7744:7758   */\n      pop\n        /* \"#utility.yul\":8150:8154   */\n      dup3\n        /* \"#utility.yul\":8143:8154   */\n      swap8\n      pop\n        /* \"#utility.yul\":8170:8173   */\n      dup8\n        /* \"#utility.yul\":8163:8173   */\n      swap6\n      pop\n        /* \"#utility.yul\":7340:8179   */\n      pop\n      pop\n      pop\n      pop\n      pop\n        /* \"#utility.yul\":7200:8179   */\n      swap3\n      swap2\n      pop\n      pop\n      jump\t// out\n        /* \"#utility.yul\":8185:8791   */\n    tag_12:\n        /* \"#utility.yul\":8392:8396   */\n      0x00\n        /* \"#utility.yul\":8430:8432   */\n      0x40\n        /* \"#utility.yul\":8419:8428   */\n      dup3\n        /* \"#utility.yul\":8415:8433   */\n      add\n        /* \"#utility.yul\":8407:8433   */\n      swap1\n      pop\n        /* \"#utility.yul\":8479:8488   */\n      dup2\n        /* \"#utility.yul\":8473:8477   */\n      dup2\n        /* \"#utility.yul\":8469:8489   */\n      sub\n        /* \"#utility.yul\":8465:8466   */\n      0x00\n        /* \"#utility.yul\":8454:8463   */\n      dup4\n        /* \"#utility.yul\":8450:8467   */\n      add\n        /* \"#utility.yul\":8443:8490   */\n      mstore\n        /* \"#utility.yul\":8507:8585   */\n      tag_187\n        /* \"#utility.yul\":8580:8584   */\n      dup2\n        /* \"#utility.yul\":8571:8577   */\n      dup6\n        /* \"#utility.yul\":8507:8585   */\n      tag_73\n      jump\t// in\n    tag_187:\n        /* \"#utility.yul\":8499:8585   */\n      swap1\n      pop\n        /* \"#utility.yul\":8632:8641   */\n      dup2\n        /* \"#utility.yul\":8626:8630   */\n      dup2\n        /* \"#utility.yul\":8622:8642   */\n      sub\n        /* \"#utility.yul\":8617:8619   */\n      0x20\n        /* \"#utility.yul\":8606:8615   */\n      dup4\n        /* \"#utility.yul\":8602:8620   */\n      add\n        /* \"#utility.yul\":8595:8643   */\n      mstore\n        /* \"#utility.yul\":8660:8784   */\n      tag_188\n        /* \"#utility.yul\":8779:8783   */\n      dup2\n        /* \"#utility.yul\":8770:8776   */\n      dup5\n        /* \"#utility.yul\":8660:8784   */\n      tag_81\n      jump\t// in\n    tag_188:\n        /* \"#utility.yul\":8652:8784   */\n      swap1\n      pop\n        /* \"#utility.yul\":8185:8791   */\n      swap4\n      swap3\n      pop\n      pop\n      pop\n      jump\t// out\n        /* \"#utility.yul\":8797:8977   */\n    tag_82:\n        /* \"#utility.yul\":8845:8922   */\n      0x4e487b7100000000000000000000000000000000000000000000000000000000\n        /* \"#utility.yul\":8842:8843   */\n      0x00\n        /* \"#utility.yul\":8835:8923   */\n      mstore\n        /* \"#utility.yul\":8942:8946   */\n      0x22\n        /* \"#utility.yul\":8939:8940   */\n      0x04\n        /* \"#utility.yul\":8932:8947   */\n      mstore\n        /* \"#utility.yul\":8966:8970   */\n      0x24\n        /* \"#utility.yul\":8963:8964   */\n      0x00\n        /* \"#utility.yul\":8956:8971   */\n      revert\n        /* \"#utility.yul\":8983:9303   */\n    tag_22:\n        /* \"#utility.yul\":9027:9033   */\n      0x00\n        /* \"#utility.yul\":9064:9065   */\n      0x02\n        /* \"#utility.yul\":9058:9062   */\n      dup3\n        /* \"#utility.yul\":9054:9066   */\n      div\n        /* \"#utility.yul\":9044:9066   */\n      swap1\n      pop\n        /* \"#utility.yul\":9111:9112   */\n      0x01\n        /* \"#utility.yul\":9105:9109   */\n      dup3\n        /* \"#utility.yul\":9101:9113   */\n      and\n        /* \"#utility.yul\":9132:9150   */\n      dup1\n        /* \"#utility.yul\":9122:9203   */\n      tag_191\n      jumpi\n        /* \"#utility.yul\":9188:9192   */\n      0x7f\n        /* \"#utility.yul\":9180:9186   */\n      dup3\n        /* \"#utility.yul\":9176:9193   */\n      and\n        /* \"#utility.yul\":9166:9193   */\n      swap2\n      pop\n        /* \"#utility.yul\":9122:9203   */\n    tag_191:\n        /* \"#utility.yul\":9250:9252   */\n      0x20\n        /* \"#utility.yul\":9242:9248   */\n      dup3\n        /* \"#utility.yul\":9239:9253   */\n      lt\n        /* \"#utility.yul\":9219:9237   */\n      dup2\n        /* \"#utility.yul\":9216:9254   */\n      sub\n        /* \"#utility.yul\":9213:9297   */\n      tag_192\n      jumpi\n        /* \"#utility.yul\":9269:9287   */\n      tag_193\n      tag_82\n      jump\t// in\n    tag_193:\n        /* \"#utility.yul\":9213:9297   */\n    tag_192:\n        /* \"#utility.yul\":9034:9303   */\n      pop\n        /* \"#utility.yul\":8983:9303   */\n      swap2\n      swap1\n      pop\n      jump\t// out\n        /* \"#utility.yul\":9309:9450   */\n    tag_83:\n        /* \"#utility.yul\":9358:9362   */\n      0x00\n        /* \"#utility.yul\":9381:9384   */\n      dup2\n        /* \"#utility.yul\":9373:9384   */\n      swap1\n      pop\n        /* \"#utility.yul\":9404:9407   */\n      dup2\n        /* \"#utility.yul\":9401:9402   */\n      0x00\n        /* \"#utility.yul\":9394:9408   */\n      mstore\n        /* \"#utility.yul\":9438:9442   */\n      0x20\n        /* \"#utility.yul\":9435:9436   */\n      0x00\n        /* \"#utility.yul\":9425:9443   */\n      keccak256\n        /* \"#utility.yul\":9417:9443   */\n      swap1\n      pop\n        /* \"#utility.yul\":9309:9450   */\n      swap2\n      swap1\n      pop\n      jump\t// out\n        /* \"#utility.yul\":9456:9549   */\n    tag_84:\n        /* \"#utility.yul\":9493:9499   */\n      0x00\n        /* \"#utility.yul\":9540:9542   */\n      0x20\n        /* \"#utility.yul\":9535:9537   */\n      0x1f\n        /* \"#utility.yul\":9528:9533   */\n      dup4\n        /* \"#utility.yul\":9524:9538   */\n      add\n        /* \"#utility.yul\":9520:9543   */\n      div\n        /* \"#utility.yul\":9510:9543   */\n      swap1\n      pop\n        /* \"#utility.yul\":9456:9549   */\n      swap2\n      swap1\n      pop\n      jump\t// out\n        /* \"#utility.yul\":9555:9662   */\n    tag_85:\n        /* \"#utility.yul\":9599:9607   */\n      0x00\n        /* \"#utility.yul\":9649:9654   */\n      dup3\n        /* \"#utility.yul\":9643:9647   */\n      dup3\n        /* \"#utility.yul\":9639:9655   */\n      shl\n        /* \"#utility.yul\":9618:9655   */\n      swap1\n      pop\n        /* \"#utility.yul\":9555:9662   */\n      swap3\n      swap2\n      pop\n      pop\n      jump\t// out\n        /* \"#utility.yul\":9668:10061   */\n    tag_86:\n        /* \"#utility.yul\":9737:9743   */\n      0x00\n        /* \"#utility.yul\":9787:9788   */\n      0x08\n        /* \"#utility.yul\":9775:9785   */\n      dup4\n        /* \"#utility.yul\":9771:9789   */\n      mul\n        /* \"#utility.yul\":9810:9907   */\n      tag_198\n        /* \"#utility.yul\":9840:9906   */\n      0xffffffffffffffffffffffffffffffffffffffffffffffffffffffffffffffff\n        /* \"#utility.yul\":9829:9838   */\n      dup3\n        /* \"#utility.yul\":9810:9907   */\n      tag_85\n      jump\t// in\n    tag_198:\n        /* \"#utility.yul\":9928:9967   */\n      tag_199\n        /* \"#utility.yul\":9958:9966   */\n      dup7\n        /* \"#utility.yul\":9947:9956   */\n      dup4\n        /* \"#utility.yul\":9928:9967   */\n      tag_85\n      jump\t// in\n    tag_199:\n        /* \"#utility.yul\":9916:9967   */\n      swap6\n      pop\n        /* \"#utility.yul\":10000:10004   */\n      dup1\n        /* \"#utility.yul\":9996:10005   */\n      not\n        /* \"#utility.yul\":9989:9994   */\n      dup5\n        /* \"#utility.yul\":9985:10006   */\n      and\n        /* \"#utility.yul\":9976:10006   */\n      swap4\n      pop\n        /* \"#utility.yul\":10049:10053   */\n      dup1\n        /* \"#utility.yul\":10039:10047   */\n      dup7\n        /* \"#utility.yul\":10035:10054   */\n      and\n        /* \"#utility.yul\":10028:10033   */\n      dup5\n        /* \"#utility.yul\":10025:10055   */\n      or\n        /* \"#utility.yul\":10015:10055   */\n      swap3\n      pop\n        /* \"#utility.yul\":9744:10061   */\n      pop\n      pop\n        /* \"#utility.yul\":9668:10061   */\n      swap4\n      swap3\n      pop\n      pop\n      pop\n      jump\t// out\n        /* \"#utility.yul\":10067:10144   */\n    tag_87:\n        /* \"#utility.yul\":10104:10111   */\n      0x00\n        /* \"#utility.yul\":10133:10138   */\n      dup2\n        /* \"#utility.yul\":10122:10138   */\n      swap1\n      pop\n        /* \"#utility.yul\":10067:10144   */\n      swap2\n      swap1\n      pop\n      jump\t// out\n        /* \"#utility.yul\":10150:10210   */\n    tag_88:\n        /* \"#utility.yul\":10178:10181   */\n      0x00\n        /* \"#utility.yul\":10199:10204   */\n      dup2\n        /* \"#utility.yul\":10192:10204   */\n      swap1\n      pop\n        /* \"#utility.yul\":10150:10210   */\n      swap2\n      swap1\n      pop\n      jump\t// out\n        /* \"#utility.yul\":10216:10358   */\n    tag_89:\n        /* \"#utility.yul\":10266:10275   */\n      0x00\n        /* \"#utility.yul\":10299:10352   */\n      tag_203\n        /* \"#utility.yul\":10317:10351   */\n      tag_204\n        /* \"#utility.yul\":10326:10350   */\n      tag_205\n        /* \"#utility.yul\":10344:10349   */\n      dup5\n        /* \"#utility.yul\":10326:10350   */\n      tag_87\n      jump\t// in\n    tag_205:\n        /* \"#utility.yul\":10317:10351   */\n      tag_88\n      jump\t// in\n    tag_204:\n        /* \"#utility.yul\":10299:10352   */\n      tag_87\n      jump\t// in\n    tag_203:\n        /* \"#utility.yul\":10286:10352   */\n      swap1\n      pop\n        /* \"#utility.yul\":10216:10358   */\n      swap2\n      swap1\n      pop\n      jump\t// out\n        /* \"#utility.yul\":10364:10439   */\n    tag_90:\n        /* \"#utility.yul\":10407:10410   */\n      0x00\n        /* \"#utility.yul\":10428:10433   */\n      dup2\n        /* \"#utility.yul\":10421:10433   */\n      swap1\n      pop\n        /* \"#utility.yul\":10364:10439   */\n      swap2\n      swap1\n      pop\n      jump\t// out\n        /* \"#utility.yul\":10445:10714   */\n    tag_91:\n        /* \"#utility.yul\":10555:10594   */\n      tag_208\n        /* \"#utility.yul\":10586:10593   */\n      dup4\n        /* \"#utility.yul\":10555:10594   */\n      tag_89\n      jump\t// in\n    tag_208:\n        /* \"#utility.yul\":10616:10707   */\n      tag_209\n        /* \"#utility.yul\":10665:10706   */\n      tag_210\n        /* \"#utility.yul\":10689:10705   */\n      dup3\n        /* \"#utility.yul\":10665:10706   */\n      tag_90\n      jump\t// in\n    tag_210:\n        /* \"#utility.yul\":10657:10663   */\n      dup5\n        /* \"#utility.yul\":10650:10654   */\n      dup5\n        /* \"#utility.yul\":10644:10655   */\n      sload\n        /* \"#utility.yul\":10616:10707   */\n      tag_86\n      jump\t// in\n    tag_209:\n        /* \"#utility.yul\":10610:10614   */\n      dup3\n        /* \"#utility.yul\":10603:10708   */\n      sstore\n        /* \"#utility.yul\":10521:10714   */\n      pop\n        /* \"#utility.yul\":10445:10714   */\n      pop\n      pop\n      pop\n      jump\t// out\n        /* \"#utility.yul\":10720:10793   */\n    tag_92:\n        /* \"#utility.yul\":10765:10768   */\n      0x00\n        /* \"#utility.yul\":10720:10793   */\n      swap1\n      jump\t// out\n        /* \"#utility.yul\":10799:10988   */\n    tag_93:\n        /* \"#utility.yul\":10876:10908   */\n      tag_213\n      tag_92\n      jump\t// in\n    tag_213:\n        /* \"#utility.yul\":10917:10982   */\n      tag_214\n        /* \"#utility.yul\":10975:10981   */\n      dup2\n        /* \"#utility.yul\":10967:10973   */\n      dup5\n        /* \"#utility.yul\":10961:10965   */\n      dup5\n        /* \"#utility.yul\":10917:10982   */\n      tag_91\n      jump\t// in\n    tag_214:\n        /* \"#utility.yul\":10852:10988   */\n      pop\n        /* \"#utility.yul\":10799:10988   */\n      pop\n      pop\n      jump\t// out\n        /* \"#utility.yul\":10994:11180   */\n    tag_94:\n        /* \"#utility.yul\":11054:11174   */\n    tag_216:\n        /* \"#utility.yul\":11071:11074   */\n      dup2\n        /* \"#utility.yul\":11064:11069   */\n      dup2\n        /* \"#utility.yul\":11061:11075   */\n      lt\n        /* \"#utility.yul\":11054:11174   */\n      iszero\n      tag_218\n      jumpi\n        /* \"#utility.yul\":11125:11164   */\n      tag_219\n        /* \"#utility.yul\":11162:11163   */\n      0x00\n        /* \"#utility.yul\":11155:11160   */\n      dup3\n        /* \"#utility.yul\":11125:11164   */\n      tag_93\n      jump\t// in\n    tag_219:\n        /* \"#utility.yul\":11098:11099   */\n      0x01\n        /* \"#utility.yul\":11091:11096   */\n      dup2\n        /* \"#utility.yul\":11087:11100   */\n      add\n        /* \"#utility.yul\":11078:11100   */\n      swap1\n      pop\n        /* \"#utility.yul\":11054:11174   */\n      jump(tag_216)\n    tag_218:\n        /* \"#utility.yul\":10994:11180   */\n      pop\n      pop\n      jump\t// out\n        /* \"#utility.yul\":11186:11729   */\n    tag_95:\n        /* \"#utility.yul\":11287:11289   */\n      0x1f\n        /* \"#utility.yul\":11282:11285   */\n      dup3\n        /* \"#utility.yul\":11279:11290   */\n      gt\n        /* \"#utility.yul\":11276:11722   */\n      iszero\n      tag_221\n      jumpi\n        /* \"#utility.yul\":11321:11359   */\n      tag_222\n        /* \"#utility.yul\":11353:11358   */\n      dup2\n        /* \"#utility.yul\":11321:11359   */\n      tag_83\n      jump\t// in\n    tag_222:\n        /* \"#utility.yul\":11405:11434   */\n      tag_223\n        /* \"#utility.yul\":11423:11433   */\n      dup5\n        /* \"#utility.yul\":11405:11434   */\n      tag_84\n      jump\t// in\n    tag_223:\n        /* \"#utility.yul\":11395:11403   */\n      dup2\n        /* \"#utility.yul\":11391:11435   */\n      add\n        /* \"#utility.yul\":11588:11590   */\n      0x20\n        /* \"#utility.yul\":11576:11586   */\n      dup6\n        /* \"#utility.yul\":11573:11591   */\n      lt\n        /* \"#utility.yul\":11570:11619   */\n      iszero\n      tag_224\n      jumpi\n        /* \"#utility.yul\":11609:11617   */\n      dup2\n        /* \"#utility.yul\":11594:11617   */\n      swap1\n      pop\n        /* \"#utility.yul\":11570:11619   */\n    tag_224:\n        /* \"#utility.yul\":11632:11712   */\n      tag_225\n        /* \"#utility.yul\":11688:11710   */\n      tag_226\n        /* \"#utility.yul\":11706:11709   */\n      dup6\n        /* \"#utility.yul\":11688:11710   */\n      tag_84\n      jump\t// in\n    tag_226:\n        /* \"#utility.yul\":11678:11686   */\n      dup4\n        /* \"#utility.yul\":11674:11711   */\n      add\n        /* \"#utility.yul\":11661:11672   */\n      dup3\n        /* \"#utility.yul\":11632:11712   */\n      tag_94\n      jump\t// in\n    tag_225:\n        /* \"#utility.yul\":11291:11722   */\n      pop\n      pop\n        /* \"#utility.yul\":11276:11722   */\n    tag_221:\n        /* \"#utility.yul\":11186:11729   */\n      pop\n      pop\n      pop\n      jump\t// out\n        /* \"#utility.yul\":11735:11852   */\n    tag_96:\n        /* \"#utility.yul\":11789:11797   */\n      0x00\n        /* \"#utility.yul\":11839:11844   */\n      dup3\n        /* \"#utility.yul\":11833:11837   */\n      dup3\n        /* \"#utility.yul\":11829:11845   */\n      shr\n        /* \"#utility.yul\":11808:11845   */\n      swap1\n      pop\n        /* \"#utility.yul\":11735:11852   */\n      swap3\n      swap2\n      pop\n      pop\n      jump\t// out\n        /* \"#utility.yul\":11858:12027   */\n    tag_97:\n        /* \"#utility.yul\":11902:11908   */\n      0x00\n        /* \"#utility.yul\":11935:11986   */\n      tag_229\n        /* \"#utility.yul\":11983:11984   */\n      0x00\n        /* \"#utility.yul\":11979:11985   */\n      not\n        /* \"#utility.yul\":11971:11976   */\n      dup5\n        /* \"#utility.yul\":11968:11969   */\n      0x08\n        /* \"#utility.yul\":11964:11977   */\n      mul\n        /* \"#utility.yul\":11935:11986   */\n      tag_96\n      jump\t// in\n    tag_229:\n        /* \"#utility.yul\":11931:11987   */\n      not\n        /* \"#utility.yul\":12016:12020   */\n      dup1\n        /* \"#utility.yul\":12010:12014   */\n      dup4\n        /* \"#utility.yul\":12006:12021   */\n      and\n        /* \"#utility.yul\":11996:12021   */\n      swap2\n      pop\n        /* \"#utility.yul\":11909:12027   */\n      pop\n        /* \"#utility.yul\":11858:12027   */\n      swap3\n      swap2\n      pop\n      pop\n      jump\t// out\n        /* \"#utility.yul\":12032:12327   */\n    tag_98:\n        /* \"#utility.yul\":12108:12112   */\n      0x00\n        /* \"#utility.yul\":12254:12283   */\n      tag_231\n        /* \"#utility.yul\":12279:12282   */\n      dup4\n        /* \"#utility.yul\":12273:12277   */\n      dup4\n        /* \"#utility.yul\":12254:12283   */\n      tag_97\n      jump\t// in\n    tag_231:\n        /* \"#utility.yul\":12246:12283   */\n      swap2\n      pop\n        /* \"#utility.yul\":12316:12319   */\n      dup3\n        /* \"#utility.yul\":12313:12314   */\n      0x02\n        /* \"#utility.yul\":12309:12320   */\n      mul\n        /* \"#utility.yul\":12303:12307   */\n      dup3\n        /* \"#utility.yul\":12300:12321   */\n      or\n        /* \"#utility.yul\":12292:12321   */\n      swap1\n      pop\n        /* \"#utility.yul\":12032:12327   */\n      swap3\n      swap2\n      pop\n      pop\n      jump\t// out\n        /* \"#utility.yul\":12332:13727   */\n    tag_15:\n        /* \"#utility.yul\":12449:12486   */\n      tag_233\n        /* \"#utility.yul\":12482:12485   */\n      dup3\n        /* \"#utility.yul\":12449:12486   */\n      tag_70\n      jump\t// in\n    tag_233:\n        /* \"#utility.yul\":12551:12569   */\n      0xffffffffffffffff\n        /* \"#utility.yul\":12543:12549   */\n      dup2\n        /* \"#utility.yul\":12540:12570   */\n      gt\n        /* \"#utility.yul\":12537:12593   */\n      iszero\n      tag_234\n      jumpi\n        /* \"#utility.yul\":12573:12591   */\n      tag_235\n      tag_59\n      jump\t// in\n    tag_235:\n        /* \"#utility.yul\":12537:12593   */\n    tag_234:\n        /* \"#utility.yul\":12617:12655   */\n      tag_236\n        /* \"#utility.yul\":12649:12653   */\n      dup3\n        /* \"#utility.yul\":12643:12654   */\n      sload\n        /* \"#utility.yul\":12617:12655   */\n      tag_22\n      jump\t// in\n    tag_236:\n        /* \"#utility.yul\":12702:12769   */\n      tag_237\n        /* \"#utility.yul\":12762:12768   */\n      dup3\n        /* \"#utility.yul\":12754:12760   */\n      dup3\n        /* \"#utility.yul\":12748:12752   */\n      dup6\n        /* \"#utility.yul\":12702:12769   */\n      tag_95\n      jump\t// in\n    tag_237:\n        /* \"#utility.yul\":12796:12797   */\n      0x00\n        /* \"#utility.yul\":12820:12824   */\n      0x20\n        /* \"#utility.yul\":12807:12824   */\n      swap1\n      pop\n        /* \"#utility.yul\":12852:12854   */\n      0x1f\n        /* \"#utility.yul\":12844:12850   */\n      dup4\n        /* \"#utility.yul\":12841:12855   */\n      gt\n        /* \"#utility.yul\":12869:12870   */\n      0x01\n        /* \"#utility.yul\":12864:13482   */\n      dup2\n      eq\n      tag_239\n      jumpi\n        /* \"#utility.yul\":13526:13527   */\n      0x00\n        /* \"#utility.yul\":13543:13549   */\n      dup5\n        /* \"#utility.yul\":13540:13617   */\n      iszero\n      tag_240\n      jumpi\n        /* \"#utility.yul\":13592:13601   */\n      dup3\n        /* \"#utility.yul\":13587:13590   */\n      dup8\n        /* \"#utility.yul\":13583:13602   */\n      add\n        /* \"#utility.yul\":13577:13603   */\n      mload\n        /* \"#utility.yul\":13568:13603   */\n      swap1\n      pop\n        /* \"#utility.yul\":13540:13617   */\n    tag_240:\n        /* \"#utility.yul\":13643:13710   */\n      tag_241\n        /* \"#utility.yul\":13703:13709   */\n      dup6\n        /* \"#utility.yul\":13696:13701   */\n      dup3\n        /* \"#utility.yul\":13643:13710   */\n      tag_98\n      jump\t// in\n    tag_241:\n        /* \"#utility.yul\":13637:13641   */\n      dup7\n        /* \"#utility.yul\":13630:13711   */\n      sstore\n        /* \"#utility.yul\":13499:13721   */\n      pop\n        /* \"#utility.yul\":12834:13721   */\n      jump(tag_238)\n        /* \"#utility.yul\":12864:13482   */\n    tag_239:\n        /* \"#utility.yul\":12916:12920   */\n      0x1f\n        /* \"#utility.yul\":12912:12921   */\n      not\n        /* \"#utility.yul\":12904:12910   */\n      dup5\n        /* \"#utility.yul\":12900:12922   */\n      and\n        /* \"#utility.yul\":12950:12987   */\n      tag_242\n        /* \"#utility.yul\":12982:12986   */\n      dup7\n        /* \"#utility.yul\":12950:12987   */\n      tag_83\n      jump\t// in\n    tag_242:\n        /* \"#utility.yul\":13009:13010   */\n      0x00\n        /* \"#utility.yul\":13023:13231   */\n    tag_243:\n        /* \"#utility.yul\":13037:13044   */\n      dup3\n        /* \"#utility.yul\":13034:13035   */\n      dup2\n        /* \"#utility.yul\":13031:13045   */\n      lt\n        /* \"#utility.yul\":13023:13231   */\n      iszero\n      tag_245\n      jumpi\n        /* \"#utility.yul\":13116:13125   */\n      dup5\n        /* \"#utility.yul\":13111:13114   */\n      dup10\n        /* \"#utility.yul\":13107:13126   */\n      add\n        /* \"#utility.yul\":13101:13127   */\n      mload\n        /* \"#utility.yul\":13093:13099   */\n      dup3\n        /* \"#utility.yul\":13086:13128   */\n      sstore\n        /* \"#utility.yul\":13167:13168   */\n      0x01\n        /* \"#utility.yul\":13159:13165   */\n      dup3\n        /* \"#utility.yul\":13155:13169   */\n      add\n        /* \"#utility.yul\":13145:13169   */\n      swap2\n      pop\n        /* \"#utility.yul\":13214:13216   */\n      0x20\n        /* \"#utility.yul\":13203:13212   */\n      dup6\n        /* \"#utility.yul\":13199:13217   */\n      add\n        /* \"#utility.yul\":13186:13217   */\n      swap5\n      pop\n        /* \"#utility.yul\":13060:13064   */\n      0x20\n        /* \"#utility.yul\":13057:13058   */\n      dup2\n        /* \"#utility.yul\":13053:13065   */\n      add\n        /* \"#utility.yul\":13048:13065   */\n      swap1\n      pop\n        /* \"#utility.yul\":13023:13231   */\n      jump(tag_243)\n    tag_245:\n        /* \"#utility.yul\":13259:13265   */\n      dup7\n        /* \"#utility.yul\":13250:13257   */\n      dup4\n        /* \"#utility.yul\":13247:13266   */\n      lt\n        /* \"#utility.yul\":13244:13423   */\n      iszero\n      tag_246\n      jumpi\n        /* \"#utility.yul\":13317:13326   */\n      dup5\n        /* \"#utility.yul\":13312:13315   */\n      dup10\n        /* \"#utility.yul\":13308:13327   */\n      add\n        /* \"#utility.yul\":13302:13328   */\n      mload\n        /* \"#utility.yul\":13360:13408   */\n      tag_247\n        /* \"#utility.yul\":13402:13406   */\n      0x1f\n        /* \"#utility.yul\":13394:13400   */\n      dup10\n        /* \"#utility.yul\":13390:13407   */\n      and\n        /* \"#utility.yul\":13379:13388   */\n      dup3\n        /* \"#utility.yul\":13360:13408   */\n      tag_97\n      jump\t// in\n    tag_247:\n        /* \"#utility.yul\":13352:13358   */\n      dup4\n        /* \"#utility.yul\":13345:13409   */\n      sstore\n        /* \"#utility.yul\":13267:13423   */\n      pop\n        /* \"#utility.yul\":13244:13423   */\n    tag_246:\n        /* \"#utility.yul\":13469:13470   */\n      0x01\n        /* \"#utility.yul\":13465:13466   */\n      0x02\n        /* \"#utility.yul\":13457:13463   */\n      dup9\n        /* \"#utility.yul\":13453:13467   */\n      mul\n        /* \"#utility.yul\":13449:13471   */\n      add\n        /* \"#utility.yul\":13443:13447   */\n      dup9\n        /* \"#utility.yul\":13436:13472   */\n      sstore\n        /* \"#utility.yul\":12871:13482   */\n      pop\n      pop\n      pop\n        /* \"#utility.yul\":12834:13721   */\n    tag_238:\n      pop\n        /* \"#utility.yul\":12424:13727   */\n      pop\n      pop\n      pop\n        /* \"#utility.yul\":12332:13727   */\n      pop\n      pop\n      jump\t// out\n\n    auxdata: 0xa26469706673582212202bd897adc225c8562222d8df577c50b6f0a041081dfcca0f9dc5c81a976ddc6e64736f6c634300081a0033\n}\n",
				"bytecode": {
					"linkReferences": {},
					"object": "6080604052348015600e575f80fd5b50610a0a8061001c5f395ff3fe608060405234801561000f575f80fd5b5060043610610034575f3560e01c8063995663cb14610038578063e1cb0e5214610054575b5f80fd5b610052600480360381019061004d9190610500565b610073565b005b61005c610098565b60405161006a9291906106cd565b60405180910390f35b815f90816100819190610905565b508060019060026100939291906101f5565b505050565b60606100a2610241565b5f60018180546100b19061072f565b80601f01602080910402602001604051908101604052809291908181526020018280546100dd9061072f565b80156101285780601f106100ff57610100808354040283529160200191610128565b820191905f5260205f20905b81548152906001019060200180831161010b57829003601f168201915b5050505050915080600280602002604051908101604052809291905f905b828210156101e757838201805461015c9061072f565b80601f01602080910402602001604051908101604052809291908181526020018280546101889061072f565b80156101d35780601f106101aa576101008083540402835291602001916101d3565b820191905f5260205f20905b8154815290600101906020018083116101b657829003601f168201915b505050505081526020019060010190610146565b505050509050915091509091565b8260028101928215610230579160200282015b8281111561022f57825182908161021f9190610905565b5091602001919060010190610208565b5b50905061023d9190610268565b5090565b60405180604001604052806002905b60608152602001906001900390816102505790505090565b5b80821115610287575f818161027e919061028b565b50600101610269565b5090565b5080546102979061072f565b5f825580601f106102a857506102c5565b601f0160209004905f5260205f20908101906102c491906102c8565b5b50565b5b808211156102df575f815f9055506001016102c9565b5090565b5f604051905090565b5f80fd5b5f80fd5b5f80fd5b5f80fd5b5f601f19601f8301169050919050565b7f4e487b71000000000000000000000000000000000000000000000000000000005f52604160045260245ffd5b610342826102fc565b810181811067ffffffffffffffff821117156103615761036061030c565b5b80604052505050565b5f6103736102e3565b905061037f8282610339565b919050565b5f67ffffffffffffffff82111561039e5761039d61030c565b5b6103a7826102fc565b9050602081019050919050565b828183375f83830152505050565b5f6103d46103cf84610384565b61036a565b9050828152602081018484840111156103f0576103ef6102f8565b5b6103fb8482856103b4565b509392505050565b5f82601f830112610417576104166102f4565b5b81356104278482602086016103c2565b91505092915050565b5f67ffffffffffffffff82111561044a5761044961030c565b5b602082029050919050565b5f80fd5b5f61046b61046684610430565b61036a565b9050806020840283018581111561048557610484610455565b5b835b818110156104cc57803567ffffffffffffffff8111156104aa576104a96102f4565b5b8086016104b78982610403565b85526020850194505050602081019050610487565b5050509392505050565b5f82601f8301126104ea576104e96102f4565b5b60026104f7848285610459565b91505092915050565b5f8060408385031215610516576105156102ec565b5b5f83013567ffffffffffffffff811115610533576105326102f0565b5b61053f85828601610403565b925050602083013567ffffffffffffffff8111156105605761055f6102f0565b5b61056c858286016104d6565b9150509250929050565b5f81519050919050565b5f82825260208201905092915050565b8281835e5f83830152505050565b5f6105a882610576565b6105b28185610580565b93506105c2818560208601610590565b6105cb816102fc565b840191505092915050565b5f60029050919050565b5f81905092915050565b5f819050919050565b5f82825260208201905092915050565b5f61060d82610576565b61061781856105f3565b9350610627818560208601610590565b610630816102fc565b840191505092915050565b5f6106468383610603565b905092915050565b5f602082019050919050565b5f610664826105d6565b61066e81856105e0565b935083602082028501610680856105ea565b805f5b858110156106bb578484038952815161069c858261063b565b94506106a78361064e565b925060208a01995050600181019050610683565b50829750879550505050505092915050565b5f6040820190508181035f8301526106e5818561059e565b905081810360208301526106f9818461065a565b90509392505050565b7f4e487b71000000000000000000000000000000000000000000000000000000005f52602260045260245ffd5b5f600282049050600182168061074657607f821691505b60208210810361075957610758610702565b5b50919050565b5f819050815f5260205f209050919050565b5f6020601f8301049050919050565b5f82821b905092915050565b5f600883026107bb7fffffffffffffffffffffffffffffffffffffffffffffffffffffffffffffffff82610780565b6107c58683610780565b95508019841693508086168417925050509392505050565b5f819050919050565b5f819050919050565b5f6108096108046107ff846107dd565b6107e6565b6107dd565b9050919050565b5f819050919050565b610822836107ef565b61083661082e82610810565b84845461078c565b825550505050565b5f90565b61084a61083e565b610855818484610819565b505050565b5b818110156108785761086d5f82610842565b60018101905061085b565b5050565b601f8211156108bd5761088e8161075f565b61089784610771565b810160208510156108a6578190505b6108ba6108b285610771565b83018261085a565b50505b505050565b5f82821c905092915050565b5f6108dd5f19846008026108c2565b1980831691505092915050565b5f6108f583836108ce565b9150826002028217905092915050565b61090e82610576565b67ffffffffffffffff8111156109275761092661030c565b5b610931825461072f565b61093c82828561087c565b5f60209050601f83116001811461096d575f841561095b578287015190505b61096585826108ea565b8655506109cc565b601f19841661097b8661075f565b5f5b828110156109a25784890151825560018201915060208501945060208101905061097d565b868310156109bf57848901516109bb601f8916826108ce565b8355505b6001600288020188555050505b50505050505056fea26469706673582212202bd897adc225c8562222d8df577c50b6f0a041081dfcca0f9dc5c81a976ddc6e64736f6c634300081a0033",
					"opcodes": "PUSH1 0x80 PUSH1 0x40 MSTORE CALLVALUE DUP1 ISZERO PUSH1 0xE JUMPI PUSH0 DUP1 REVERT JUMPDEST POP PUSH2 0xA0A DUP1 PUSH2 0x1C PUSH0 CODECOPY PUSH0 RETURN INVALID PUSH1 0x80 PUSH1 0x40 MSTORE CALLVALUE DUP1 ISZERO PUSH2 0xF JUMPI PUSH0 DUP1 REVERT JUMPDEST POP PUSH1 0x4 CALLDATASIZE LT PUSH2 0x34 JUMPI PUSH0 CALLDATALOAD PUSH1 0xE0 SHR DUP1 PUSH4 0x995663CB EQ PUSH2 0x38 JUMPI DUP1 PUSH4 0xE1CB0E52 EQ PUSH2 0x54 JUMPI JUMPDEST PUSH0 DUP1 REVERT JUMPDEST PUSH2 0x52 PUSH1 0x4 DUP1 CALLDATASIZE SUB DUP2 ADD SWAP1 PUSH2 0x4D SWAP2 SWAP1 PUSH2 0x500 JUMP JUMPDEST PUSH2 0x73 JUMP JUMPDEST STOP JUMPDEST PUSH2 0x5C PUSH2 0x98 JUMP JUMPDEST PUSH1 0x40 MLOAD PUSH2 0x6A SWAP3 SWAP2 SWAP1 PUSH2 0x6CD JUMP JUMPDEST PUSH1 0x40 MLOAD DUP1 SWAP2 SUB SWAP1 RETURN JUMPDEST DUP2 PUSH0 SWAP1 DUP2 PUSH2 0x81 SWAP2 SWAP1 PUSH2 0x905 JUMP JUMPDEST POP DUP1 PUSH1 0x1 SWAP1 PUSH1 0x2 PUSH2 0x93 SWAP3 SWAP2 SWAP1 PUSH2 0x1F5 JUMP JUMPDEST POP POP POP JUMP JUMPDEST PUSH1 0x60 PUSH2 0xA2 PUSH2 0x241 JUMP JUMPDEST PUSH0 PUSH1 0x1 DUP2 DUP1 SLOAD PUSH2 0xB1 SWAP1 PUSH2 0x72F JUMP JUMPDEST DUP1 PUSH1 0x1F ADD PUSH1 0x20 DUP1 SWAP2 DIV MUL PUSH1 0x20 ADD PUSH1 0x40 MLOAD SWAP1 DUP2 ADD PUSH1 0x40 MSTORE DUP1 SWAP3 SWAP2 SWAP1 DUP2 DUP2 MSTORE PUSH1 0x20 ADD DUP3 DUP1 SLOAD PUSH2 0xDD SWAP1 PUSH2 0x72F JUMP JUMPDEST DUP1 ISZERO PUSH2 0x128 JUMPI DUP1 PUSH1 0x1F LT PUSH2 0xFF JUMPI PUSH2 0x100 DUP1 DUP4 SLOAD DIV MUL DUP4 MSTORE SWAP2 PUSH1 0x20 ADD SWAP2 PUSH2 0x128 JUMP JUMPDEST DUP3 ADD SWAP2 SWAP1 PUSH0 MSTORE PUSH1 0x20 PUSH0 KECCAK256 SWAP1 JUMPDEST DUP2 SLOAD DUP2 MSTORE SWAP1 PUSH1 0x1 ADD SWAP1 PUSH1 0x20 ADD DUP1 DUP4 GT PUSH2 0x10B JUMPI DUP3 SWAP1 SUB PUSH1 0x1F AND DUP3 ADD SWAP2 JUMPDEST POP POP POP POP POP SWAP2 POP DUP1 PUSH1 0x2 DUP1 PUSH1 0x20 MUL PUSH1 0x40 MLOAD SWAP1 DUP2 ADD PUSH1 0x40 MSTORE DUP1 SWAP3 SWAP2 SWAP1 PUSH0 SWAP1 JUMPDEST DUP3 DUP3 LT ISZERO PUSH2 0x1E7 JUMPI DUP4 DUP3 ADD DUP1 SLOAD PUSH2 0x15C SWAP1 PUSH2 0x72F JUMP JUMPDEST DUP1 PUSH1 0x1F ADD PUSH1 0x20 DUP1 SWAP2 DIV MUL PUSH1 0x20 ADD PUSH1 0x40 MLOAD SWAP1 DUP2 ADD PUSH1 0x40 MSTORE DUP1 SWAP3 SWAP2 SWAP1 DUP2 DUP2 MSTORE PUSH1 0x20 ADD DUP3 DUP1 SLOAD PUSH2 0x188 SWAP1 PUSH2 0x72F JUMP JUMPDEST DUP1 ISZERO PUSH2 0x1D3 JUMPI DUP1 PUSH1 0x1F LT PUSH2 0x1AA JUMPI PUSH2 0x100 DUP1 DUP4 SLOAD DIV MUL DUP4 MSTORE SWAP2 PUSH1 0x20 ADD SWAP2 PUSH2 0x1D3 JUMP JUMPDEST DUP3 ADD SWAP2 SWAP1 PUSH0 MSTORE PUSH1 0x20 PUSH0 KECCAK256 SWAP1 JUMPDEST DUP2 SLOAD DUP2 MSTORE SWAP1 PUSH1 0x1 ADD SWAP1 PUSH1 0x20 ADD DUP1 DUP4 GT PUSH2 0x1B6 JUMPI DUP3 SWAP1 SUB PUSH1 0x1F AND DUP3 ADD SWAP2 JUMPDEST POP POP POP POP POP DUP2 MSTORE PUSH1 0x20 ADD SWAP1 PUSH1 0x1 ADD SWAP1 PUSH2 0x146 JUMP JUMPDEST POP POP POP POP SWAP1 POP SWAP2 POP SWAP2 POP SWAP1 SWAP2 JUMP JUMPDEST DUP3 PUSH1 0x2 DUP2 ADD SWAP3 DUP3 ISZERO PUSH2 0x230 JUMPI SWAP2 PUSH1 0x20 MUL DUP3 ADD JUMPDEST DUP3 DUP2 GT ISZERO PUSH2 0x22F JUMPI DUP3 MLOAD DUP3 SWAP1 DUP2 PUSH2 0x21F SWAP2 SWAP1 PUSH2 0x905 JUMP JUMPDEST POP SWAP2 PUSH1 0x20 ADD SWAP2 SWAP1 PUSH1 0x1 ADD SWAP1 PUSH2 0x208 JUMP JUMPDEST JUMPDEST POP SWAP1 POP PUSH2 0x23D SWAP2 SWAP1 PUSH2 0x268 JUMP JUMPDEST POP SWAP1 JUMP JUMPDEST PUSH1 0x40 MLOAD DUP1 PUSH1 0x40 ADD PUSH1 0x40 MSTORE DUP1 PUSH1 0x2 SWAP1 JUMPDEST PUSH1 0x60 DUP2 MSTORE PUSH1 0x20 ADD SWAP1 PUSH1 0x1 SWAP1 SUB SWAP1 DUP2 PUSH2 0x250 JUMPI SWAP1 POP POP SWAP1 JUMP JUMPDEST JUMPDEST DUP1 DUP3 GT ISZERO PUSH2 0x287 JUMPI PUSH0 DUP2 DUP2 PUSH2 0x27E SWAP2 SWAP1 PUSH2 0x28B JUMP JUMPDEST POP PUSH1 0x1 ADD PUSH2 0x269 JUMP JUMPDEST POP SWAP1 JUMP JUMPDEST POP DUP1 SLOAD PUSH2 0x297 SWAP1 PUSH2 0x72F JUMP JUMPDEST PUSH0 DUP3 SSTORE DUP1 PUSH1 0x1F LT PUSH2 0x2A8 JUMPI POP PUSH2 0x2C5 JUMP JUMPDEST PUSH1 0x1F ADD PUSH1 0x20 SWAP1 DIV SWAP1 PUSH0 MSTORE PUSH1 0x20 PUSH0 KECCAK256 SWAP1 DUP2 ADD SWAP1 PUSH2 0x2C4 SWAP2 SWAP1 PUSH2 0x2C8 JUMP JUMPDEST JUMPDEST POP JUMP JUMPDEST JUMPDEST DUP1 DUP3 GT ISZERO PUSH2 0x2DF JUMPI PUSH0 DUP2 PUSH0 SWAP1 SSTORE POP PUSH1 0x1 ADD PUSH2 0x2C9 JUMP JUMPDEST POP SWAP1 JUMP JUMPDEST PUSH0 PUSH1 0x40 MLOAD SWAP1 POP SWAP1 JUMP JUMPDEST PUSH0 DUP1 REVERT JUMPDEST PUSH0 DUP1 REVERT JUMPDEST PUSH0 DUP1 REVERT JUMPDEST PUSH0 DUP1 REVERT JUMPDEST PUSH0 PUSH1 0x1F NOT PUSH1 0x1F DUP4 ADD AND SWAP1 POP SWAP2 SWAP1 POP JUMP JUMPDEST PUSH32 0x4E487B7100000000000000000000000000000000000000000000000000000000 PUSH0 MSTORE PUSH1 0x41 PUSH1 0x4 MSTORE PUSH1 0x24 PUSH0 REVERT JUMPDEST PUSH2 0x342 DUP3 PUSH2 0x2FC JUMP JUMPDEST DUP2 ADD DUP2 DUP2 LT PUSH8 0xFFFFFFFFFFFFFFFF DUP3 GT OR ISZERO PUSH2 0x361 JUMPI PUSH2 0x360 PUSH2 0x30C JUMP JUMPDEST JUMPDEST DUP1 PUSH1 0x40 MSTORE POP POP POP JUMP JUMPDEST PUSH0 PUSH2 0x373 PUSH2 0x2E3 JUMP JUMPDEST SWAP1 POP PUSH2 0x37F DUP3 DUP3 PUSH2 0x339 JUMP JUMPDEST SWAP2 SWAP1 POP JUMP JUMPDEST PUSH0 PUSH8 0xFFFFFFFFFFFFFFFF DUP3 GT ISZERO PUSH2 0x39E JUMPI PUSH2 0x39D PUSH2 0x30C JUMP JUMPDEST JUMPDEST PUSH2 0x3A7 DUP3 PUSH2 0x2FC JUMP JUMPDEST SWAP1 POP PUSH1 0x20 DUP2 ADD SWAP1 POP SWAP2 SWAP1 POP JUMP JUMPDEST DUP3 DUP2 DUP4 CALLDATACOPY PUSH0 DUP4 DUP4 ADD MSTORE POP POP POP JUMP JUMPDEST PUSH0 PUSH2 0x3D4 PUSH2 0x3CF DUP5 PUSH2 0x384 JUMP JUMPDEST PUSH2 0x36A JUMP JUMPDEST SWAP1 POP DUP3 DUP2 MSTORE PUSH1 0x20 DUP2 ADD DUP5 DUP5 DUP5 ADD GT ISZERO PUSH2 0x3F0 JUMPI PUSH2 0x3EF PUSH2 0x2F8 JUMP JUMPDEST JUMPDEST PUSH2 0x3FB DUP5 DUP3 DUP6 PUSH2 0x3B4 JUMP JUMPDEST POP SWAP4 SWAP3 POP POP POP JUMP JUMPDEST PUSH0 DUP3 PUSH1 0x1F DUP4 ADD SLT PUSH2 0x417 JUMPI PUSH2 0x416 PUSH2 0x2F4 JUMP JUMPDEST JUMPDEST DUP2 CALLDATALOAD PUSH2 0x427 DUP5 DUP3 PUSH1 0x20 DUP7 ADD PUSH2 0x3C2 JUMP JUMPDEST SWAP2 POP POP SWAP3 SWAP2 POP POP JUMP JUMPDEST PUSH0 PUSH8 0xFFFFFFFFFFFFFFFF DUP3 GT ISZERO PUSH2 0x44A JUMPI PUSH2 0x449 PUSH2 0x30C JUMP JUMPDEST JUMPDEST PUSH1 0x20 DUP3 MUL SWAP1 POP SWAP2 SWAP1 POP JUMP JUMPDEST PUSH0 DUP1 REVERT JUMPDEST PUSH0 PUSH2 0x46B PUSH2 0x466 DUP5 PUSH2 0x430 JUMP JUMPDEST PUSH2 0x36A JUMP JUMPDEST SWAP1 POP DUP1 PUSH1 0x20 DUP5 MUL DUP4 ADD DUP6 DUP2 GT ISZERO PUSH2 0x485 JUMPI PUSH2 0x484 PUSH2 0x455 JUMP JUMPDEST JUMPDEST DUP4 JUMPDEST DUP2 DUP2 LT ISZERO PUSH2 0x4CC JUMPI DUP1 CALLDATALOAD PUSH8 0xFFFFFFFFFFFFFFFF DUP2 GT ISZERO PUSH2 0x4AA JUMPI PUSH2 0x4A9 PUSH2 0x2F4 JUMP JUMPDEST JUMPDEST DUP1 DUP7 ADD PUSH2 0x4B7 DUP10 DUP3 PUSH2 0x403 JUMP JUMPDEST DUP6 MSTORE PUSH1 0x20 DUP6 ADD SWAP5 POP POP POP PUSH1 0x20 DUP2 ADD SWAP1 POP PUSH2 0x487 JUMP JUMPDEST POP POP POP SWAP4 SWAP3 POP POP POP JUMP JUMPDEST PUSH0 DUP3 PUSH1 0x1F DUP4 ADD SLT PUSH2 0x4EA JUMPI PUSH2 0x4E9 PUSH2 0x2F4 JUMP JUMPDEST JUMPDEST PUSH1 0x2 PUSH2 0x4F7 DUP5 DUP3 DUP6 PUSH2 0x459 JUMP JUMPDEST SWAP2 POP POP SWAP3 SWAP2 POP POP JUMP JUMPDEST PUSH0 DUP1 PUSH1 0x40 DUP4 DUP6 SUB SLT ISZERO PUSH2 0x516 JUMPI PUSH2 0x515 PUSH2 0x2EC JUMP JUMPDEST JUMPDEST PUSH0 DUP4 ADD CALLDATALOAD PUSH8 0xFFFFFFFFFFFFFFFF DUP2 GT ISZERO PUSH2 0x533 JUMPI PUSH2 0x532 PUSH2 0x2F0 JUMP JUMPDEST JUMPDEST PUSH2 0x53F DUP6 DUP3 DUP7 ADD PUSH2 0x403 JUMP JUMPDEST SWAP3 POP POP PUSH1 0x20 DUP4 ADD CALLDATALOAD PUSH8 0xFFFFFFFFFFFFFFFF DUP2 GT ISZERO PUSH2 0x560 JUMPI PUSH2 0x55F PUSH2 0x2F0 JUMP JUMPDEST JUMPDEST PUSH2 0x56C DUP6 DUP3 DUP7 ADD PUSH2 0x4D6 JUMP JUMPDEST SWAP2 POP POP SWAP3 POP SWAP3 SWAP1 POP JUMP JUMPDEST PUSH0 DUP2 MLOAD SWAP1 POP SWAP2 SWAP1 POP JUMP JUMPDEST PUSH0 DUP3 DUP3 MSTORE PUSH1 0x20 DUP3 ADD SWAP1 POP SWAP3 SWAP2 POP POP JUMP JUMPDEST DUP3 DUP2 DUP4 MCOPY PUSH0 DUP4 DUP4 ADD MSTORE POP POP POP JUMP JUMPDEST PUSH0 PUSH2 0x5A8 DUP3 PUSH2 0x576 JUMP JUMPDEST PUSH2 0x5B2 DUP2 DUP6 PUSH2 0x580 JUMP JUMPDEST SWAP4 POP PUSH2 0x5C2 DUP2 DUP6 PUSH1 0x20 DUP7 ADD PUSH2 0x590 JUMP JUMPDEST PUSH2 0x5CB DUP2 PUSH2 0x2FC JUMP JUMPDEST DUP5 ADD SWAP2 POP POP SWAP3 SWAP2 POP POP JUMP JUMPDEST PUSH0 PUSH1 0x2 SWAP1 POP SWAP2 SWAP1 POP JUMP JUMPDEST PUSH0 DUP2 SWAP1 POP SWAP3 SWAP2 POP POP JUMP JUMPDEST PUSH0 DUP2 SWAP1 POP SWAP2 SWAP1 POP JUMP JUMPDEST PUSH0 DUP3 DUP3 MSTORE PUSH1 0x20 DUP3 ADD SWAP1 POP SWAP3 SWAP2 POP POP JUMP JUMPDEST PUSH0 PUSH2 0x60D DUP3 PUSH2 0x576 JUMP JUMPDEST PUSH2 0x617 DUP2 DUP6 PUSH2 0x5F3 JUMP JUMPDEST SWAP4 POP PUSH2 0x627 DUP2 DUP6 PUSH1 0x20 DUP7 ADD PUSH2 0x590 JUMP JUMPDEST PUSH2 0x630 DUP2 PUSH2 0x2FC JUMP JUMPDEST DUP5 ADD SWAP2 POP POP SWAP3 SWAP2 POP POP JUMP JUMPDEST PUSH0 PUSH2 0x646 DUP4 DUP4 PUSH2 0x603 JUMP JUMPDEST SWAP1 POP SWAP3 SWAP2 POP POP JUMP JUMPDEST PUSH0 PUSH1 0x20 DUP3 ADD SWAP1 POP SWAP2 SWAP1 POP JUMP JUMPDEST PUSH0 PUSH2 0x664 DUP3 PUSH2 0x5D6 JUMP JUMPDEST PUSH2 0x66E DUP2 DUP6 PUSH2 0x5E0 JUMP JUMPDEST SWAP4 POP DUP4 PUSH1 0x20 DUP3 MUL DUP6 ADD PUSH2 0x680 DUP6 PUSH2 0x5EA JUMP JUMPDEST DUP1 PUSH0 JUMPDEST DUP6 DUP2 LT ISZERO PUSH2 0x6BB JUMPI DUP5 DUP5 SUB DUP10 MSTORE DUP2 MLOAD PUSH2 0x69C DUP6 DUP3 PUSH2 0x63B JUMP JUMPDEST SWAP5 POP PUSH2 0x6A7 DUP4 PUSH2 0x64E JUMP JUMPDEST SWAP3 POP PUSH1 0x20 DUP11 ADD SWAP10 POP POP PUSH1 0x1 DUP2 ADD SWAP1 POP PUSH2 0x683 JUMP JUMPDEST POP DUP3 SWAP8 POP DUP8 SWAP6 POP POP POP POP POP POP SWAP3 SWAP2 POP POP JUMP JUMPDEST PUSH0 PUSH1 0x40 DUP3 ADD SWAP1 POP DUP2 DUP2 SUB PUSH0 DUP4 ADD MSTORE PUSH2 0x6E5 DUP2 DUP6 PUSH2 0x59E JUMP JUMPDEST SWAP1 POP DUP2 DUP2 SUB PUSH1 0x20 DUP4 ADD MSTORE PUSH2 0x6F9 DUP2 DUP5 PUSH2 0x65A JUMP JUMPDEST SWAP1 POP SWAP4 SWAP3 POP POP POP JUMP JUMPDEST PUSH32 0x4E487B7100000000000000000000000000000000000000000000000000000000 PUSH0 MSTORE PUSH1 0x22 PUSH1 0x4 MSTORE PUSH1 0x24 PUSH0 REVERT JUMPDEST PUSH0 PUSH1 0x2 DUP3 DIV SWAP1 POP PUSH1 0x1 DUP3 AND DUP1 PUSH2 0x746 JUMPI PUSH1 0x7F DUP3 AND SWAP2 POP JUMPDEST PUSH1 0x20 DUP3 LT DUP2 SUB PUSH2 0x759 JUMPI PUSH2 0x758 PUSH2 0x702 JUMP JUMPDEST JUMPDEST POP SWAP2 SWAP1 POP JUMP JUMPDEST PUSH0 DUP2 SWAP1 POP DUP2 PUSH0 MSTORE PUSH1 0x20 PUSH0 KECCAK256 SWAP1 POP SWAP2 SWAP1 POP JUMP JUMPDEST PUSH0 PUSH1 0x20 PUSH1 0x1F DUP4 ADD DIV SWAP1 POP SWAP2 SWAP1 POP JUMP JUMPDEST PUSH0 DUP3 DUP3 SHL SWAP1 POP SWAP3 SWAP2 POP POP JUMP JUMPDEST PUSH0 PUSH1 0x8 DUP4 MUL PUSH2 0x7BB PUSH32 0xFFFFFFFFFFFFFFFFFFFFFFFFFFFFFFFFFFFFFFFFFFFFFFFFFFFFFFFFFFFFFFFF DUP3 PUSH2 0x780 JUMP JUMPDEST PUSH2 0x7C5 DUP7 DUP4 PUSH2 0x780 JUMP JUMPDEST SWAP6 POP DUP1 NOT DUP5 AND SWAP4 POP DUP1 DUP7 AND DUP5 OR SWAP3 POP POP POP SWAP4 SWAP3 POP POP POP JUMP JUMPDEST PUSH0 DUP2 SWAP1 POP SWAP2 SWAP1 POP JUMP JUMPDEST PUSH0 DUP2 SWAP1 POP SWAP2 SWAP1 POP JUMP JUMPDEST PUSH0 PUSH2 0x809 PUSH2 0x804 PUSH2 0x7FF DUP5 PUSH2 0x7DD JUMP JUMPDEST PUSH2 0x7E6 JUMP JUMPDEST PUSH2 0x7DD JUMP JUMPDEST SWAP1 POP SWAP2 SWAP1 POP JUMP JUMPDEST PUSH0 DUP2 SWAP1 POP SWAP2 SWAP1 POP JUMP JUMPDEST PUSH2 0x822 DUP4 PUSH2 0x7EF JUMP JUMPDEST PUSH2 0x836 PUSH2 0x82E DUP3 PUSH2 0x810 JUMP JUMPDEST DUP5 DUP5 SLOAD PUSH2 0x78C JUMP JUMPDEST DUP3 SSTORE POP POP POP POP JUMP JUMPDEST PUSH0 SWAP1 JUMP JUMPDEST PUSH2 0x84A PUSH2 0x83E JUMP JUMPDEST PUSH2 0x855 DUP2 DUP5 DUP5 PUSH2 0x819 JUMP JUMPDEST POP POP POP JUMP JUMPDEST JUMPDEST DUP2 DUP2 LT ISZERO PUSH2 0x878 JUMPI PUSH2 0x86D PUSH0 DUP3 PUSH2 0x842 JUMP JUMPDEST PUSH1 0x1 DUP2 ADD SWAP1 POP PUSH2 0x85B JUMP JUMPDEST POP POP JUMP JUMPDEST PUSH1 0x1F DUP3 GT ISZERO PUSH2 0x8BD JUMPI PUSH2 0x88E DUP2 PUSH2 0x75F JUMP JUMPDEST PUSH2 0x897 DUP5 PUSH2 0x771 JUMP JUMPDEST DUP2 ADD PUSH1 0x20 DUP6 LT ISZERO PUSH2 0x8A6 JUMPI DUP2 SWAP1 POP JUMPDEST PUSH2 0x8BA PUSH2 0x8B2 DUP6 PUSH2 0x771 JUMP JUMPDEST DUP4 ADD DUP3 PUSH2 0x85A JUMP JUMPDEST POP POP JUMPDEST POP POP POP JUMP JUMPDEST PUSH0 DUP3 DUP3 SHR SWAP1 POP SWAP3 SWAP2 POP POP JUMP JUMPDEST PUSH0 PUSH2 0x8DD PUSH0 NOT DUP5 PUSH1 0x8 MUL PUSH2 0x8C2 JUMP JUMPDEST NOT DUP1 DUP4 AND SWAP2 POP POP SWAP3 SWAP2 POP POP JUMP JUMPDEST PUSH0 PUSH2 0x8F5 DUP4 DUP4 PUSH2 0x8CE JUMP JUMPDEST SWAP2 POP DUP3 PUSH1 0x2 MUL DUP3 OR SWAP1 POP SWAP3 SWAP2 POP POP JUMP JUMPDEST PUSH2 0x90E DUP3 PUSH2 0x576 JUMP JUMPDEST PUSH8 0xFFFFFFFFFFFFFFFF DUP2 GT ISZERO PUSH2 0x927 JUMPI PUSH2 0x926 PUSH2 0x30C JUMP JUMPDEST JUMPDEST PUSH2 0x931 DUP3 SLOAD PUSH2 0x72F JUMP JUMPDEST PUSH2 0x93C DUP3 DUP3 DUP6 PUSH2 0x87C JUMP JUMPDEST PUSH0 PUSH1 0x20 SWAP1 POP PUSH1 0x1F DUP4 GT PUSH1 0x1 DUP2 EQ PUSH2 0x96D JUMPI PUSH0 DUP5 ISZERO PUSH2 0x95B JUMPI DUP3 DUP8 ADD MLOAD SWAP1 POP JUMPDEST PUSH2 0x965 DUP6 DUP3 PUSH2 0x8EA JUMP JUMPDEST DUP7 SSTORE POP PUSH2 0x9CC JUMP JUMPDEST PUSH1 0x1F NOT DUP5 AND PUSH2 0x97B DUP7 PUSH2 0x75F JUMP JUMPDEST PUSH0 JUMPDEST DUP3 DUP2 LT ISZERO PUSH2 0x9A2 JUMPI DUP5 DUP10 ADD MLOAD DUP3 SSTORE PUSH1 0x1 DUP3 ADD SWAP2 POP PUSH1 0x20 DUP6 ADD SWAP5 POP PUSH1 0x20 DUP2 ADD SWAP1 POP PUSH2 0x97D JUMP JUMPDEST DUP7 DUP4 LT ISZERO PUSH2 0x9BF JUMPI DUP5 DUP10 ADD MLOAD PUSH2 0x9BB PUSH1 0x1F DUP10 AND DUP3 PUSH2 0x8CE JUMP JUMPDEST DUP4 SSTORE POP JUMPDEST PUSH1 0x1 PUSH1 0x2 DUP9 MUL ADD DUP9 SSTORE POP POP POP JUMPDEST POP POP POP POP POP POP JUMP INVALID LOG2 PUSH5 0x6970667358 0x22 SLT KECCAK256 0x2B 0xD8 SWAP8 0xAD 0xC2 0x25 0xC8 JUMP 0x22 0x22 0xD8 0xDF JUMPI PUSH29 0x50B6F0A041081DFCCA0F9DC5C81A976DDC6E64736F6C634300081A0033 "
				},
				"gasEstimates": {
					"creation": {
						"codeDepositCost": "514000",
						"executionCost": "547",
						"totalCost": "514547"
					},
					"external": {
						"getVal()": "infinite",
						"setN(string,string[2])": "infinite"
					}
				},
				"methodIdentifiers": {
					"getVal()": "e1cb0e52",
					"setN(string,string[2])": "995663cb"
				}
			},
			"storageLayout": {
				"storage": [
					{
						"astId": 3,
						"contract": "contracts/Practical 10/SingleInheritance.sol:song",
						"label": "n",
						"offset": 0,
						"slot": "0",
						"type": "t_string_storage"
					},
					{
						"astId": 7,
						"contract": "contracts/Practical 10/SingleInheritance.sol:song",
						"label": "so",
						"offset": 0,
						"slot": "1",
						"type": "t_array(t_string_storage)2_storage"
					}
				],
				"types": {
					"t_array(t_string_storage)2_storage": {
						"base": "t_string_storage",
						"encoding": "inplace",
						"label": "string[2]",
						"numberOfBytes": "64"
					},
					"t_string_storage": {
						"encoding": "bytes",
						"label": "string",
						"numberOfBytes": "32"
					}
				}
			},
			"userdoc": {
				"kind": "user",
				"methods": {},
				"version": 1
			}
		}
	}
}