{
	"contracts/Practical 10/SingleInheritance.sol": {
		"singer": {
			"abi": [
				{
					"inputs": [
						{
							"internalType": "string",
							"name": "a",
							"type": "string"
						},
						{
							"internalType": "string[2]",
							"name": "arr",
							"type": "string[2]"
						}
					],
					"name": "setN",
					"outputs": [],
					"stateMutability": "nonpayable",
					"type": "function"
				}
			],
			"devdoc": {
				"kind": "dev",
				"methods": {},
				"version": 1
			},
			"evm": {
				"assembly": "    /* \"contracts/Practical 10/SingleInheritance.sol\":105:262  contract singer {... */\n  mstore(0x40, 0x80)\n  callvalue\n  dup1\n  iszero\n  tag_1\n  jumpi\n  0x00\n  dup1\n  revert\ntag_1:\n  pop\n  dataSize(sub_0)\n  dup1\n  dataOffset(sub_0)\n  0x00\n  codecopy\n  0x00\n  return\nstop\n\nsub_0: assembly {\n        /* \"contracts/Practical 10/SingleInheritance.sol\":105:262  contract singer {... */\n      mstore(0x40, 0x80)\n      callvalue\n      dup1\n      iszero\n      tag_1\n      jumpi\n      0x00\n      dup1\n      revert\n    tag_1:\n      pop\n      jumpi(tag_2, lt(calldatasize, 0x04))\n      shr(0xe0, calldataload(0x00))\n      dup1\n      0x995663cb\n      eq\n      tag_3\n      jumpi\n    tag_2:\n      0x00\n      dup1\n      revert\n        /* \"contracts/Practical 10/SingleInheritance.sol\":160:260  function setN(string memory a, string[2] memory arr) public {... */\n    tag_3:\n      tag_4\n      0x04\n      dup1\n      calldatasize\n      sub\n      dup2\n      add\n      swap1\n      tag_5\n      swap2\n      swap1\n      tag_6\n      jump\t// in\n    tag_5:\n      tag_7\n      jump\t// in\n    tag_4:\n      stop\n    tag_7:\n        /* \"contracts/Practical 10/SingleInheritance.sol\":234:235  a */\n      dup2\n        /* \"contracts/Practical 10/SingleInheritance.sol\":230:231  n */\n      0x00\n        /* \"contracts/Practical 10/SingleInheritance.sol\":230:235  n = a */\n      swap1\n      dup2\n      tag_9\n      swap2\n      swap1\n      tag_10\n      jump\t// in\n    tag_9:\n      pop\n        /* \"contracts/Practical 10/SingleInheritance.sol\":250:253  arr */\n      dup1\n        /* \"contracts/Practical 10/SingleInheritance.sol\":245:247  so */\n      0x01\n        /* \"contracts/Practical 10/SingleInheritance.sol\":245:253  so = arr */\n      swap1\n      0x02\n      tag_11\n      swap3\n      swap2\n      swap1\n      tag_12\n      jump\t// in\n    tag_11:\n      pop\n        /* \"contracts/Practical 10/SingleInheritance.sol\":160:260  function setN(string memory a, string[2] memory arr) public {... */\n      pop\n      pop\n      jump\t// out\n    tag_12:\n      dup3\n      0x02\n      dup2\n      add\n      swap3\n      dup3\n      iszero\n      tag_13\n      jumpi\n      swap2\n      0x20\n      mul\n      dup3\n      add\n    tag_14:\n      dup3\n      dup2\n      gt\n      iszero\n      tag_15\n      jumpi\n      dup3\n      mload\n      dup3\n      swap1\n      dup2\n      tag_16\n      swap2\n      swap1\n      tag_10\n      jump\t// in\n    tag_16:\n      pop\n      swap2\n      0x20\n      add\n      swap2\n      swap1\n      0x01\n      add\n      swap1\n      jump(tag_14)\n    tag_15:\n    tag_13:\n      pop\n      swap1\n      pop\n      tag_17\n      swap2\n      swap1\n      tag_18\n      jump\t// in\n    tag_17:\n      pop\n      swap1\n      jump\t// out\n    tag_18:\n    tag_19:\n      dup1\n      dup3\n      gt\n      iszero\n      tag_20\n      jumpi\n      0x00\n      dup2\n      dup2\n      tag_21\n      swap2\n      swap1\n      tag_22\n      jump\t// in\n    tag_21:\n      pop\n      0x01\n      add\n      jump(tag_19)\n    tag_20:\n      pop\n      swap1\n      jump\t// out\n    tag_22:\n      pop\n      dup1\n      sload\n      tag_23\n      swap1\n      tag_24\n      jump\t// in\n    tag_23:\n      0x00\n      dup3\n      sstore\n      dup1\n      0x1f\n      lt\n      tag_26\n      jumpi\n      pop\n      jump(tag_25)\n    tag_26:\n      0x1f\n      add\n      0x20\n      swap1\n      div\n      swap1\n      0x00\n      mstore\n      keccak256(0x00, 0x20)\n      swap1\n      dup2\n      add\n      swap1\n      tag_27\n      swap2\n      swap1\n      tag_28\n      jump\t// in\n    tag_27:\n    tag_25:\n      pop\n      jump\t// out\n    tag_28:\n    tag_29:\n      dup1\n      dup3\n      gt\n      iszero\n      tag_30\n      jumpi\n      0x00\n      dup2\n      0x00\n      swap1\n      sstore\n      pop\n      0x01\n      add\n      jump(tag_29)\n    tag_30:\n      pop\n      swap1\n      jump\t// out\n        /* \"#utility.yul\":7:82   */\n    tag_31:\n        /* \"#utility.yul\":40:46   */\n      0x00\n        /* \"#utility.yul\":73:75   */\n      0x40\n        /* \"#utility.yul\":67:76   */\n      mload\n        /* \"#utility.yul\":57:76   */\n      swap1\n      pop\n        /* \"#utility.yul\":7:82   */\n      swap1\n      jump\t// out\n        /* \"#utility.yul\":88:205   */\n    tag_32:\n        /* \"#utility.yul\":197:198   */\n      0x00\n        /* \"#utility.yul\":194:195   */\n      dup1\n        /* \"#utility.yul\":187:199   */\n      revert\n        /* \"#utility.yul\":211:328   */\n    tag_33:\n        /* \"#utility.yul\":320:321   */\n      0x00\n        /* \"#utility.yul\":317:318   */\n      dup1\n        /* \"#utility.yul\":310:322   */\n      revert\n        /* \"#utility.yul\":334:451   */\n    tag_34:\n        /* \"#utility.yul\":443:444   */\n      0x00\n        /* \"#utility.yul\":440:441   */\n      dup1\n        /* \"#utility.yul\":433:445   */\n      revert\n        /* \"#utility.yul\":457:574   */\n    tag_35:\n        /* \"#utility.yul\":566:567   */\n      0x00\n        /* \"#utility.yul\":563:564   */\n      dup1\n        /* \"#utility.yul\":556:568   */\n      revert\n        /* \"#utility.yul\":580:682   */\n    tag_36:\n        /* \"#utility.yul\":621:627   */\n      0x00\n        /* \"#utility.yul\":672:674   */\n      0x1f\n        /* \"#utility.yul\":668:675   */\n      not\n        /* \"#utility.yul\":663:665   */\n      0x1f\n        /* \"#utility.yul\":656:661   */\n      dup4\n        /* \"#utility.yul\":652:666   */\n      add\n        /* \"#utility.yul\":648:676   */\n      and\n        /* \"#utility.yul\":638:676   */\n      swap1\n      pop\n        /* \"#utility.yul\":580:682   */\n      swap2\n      swap1\n      pop\n      jump\t// out\n        /* \"#utility.yul\":688:868   */\n    tag_37:\n        /* \"#utility.yul\":736:813   */\n      0x4e487b7100000000000000000000000000000000000000000000000000000000\n        /* \"#utility.yul\":733:734   */\n      0x00\n        /* \"#utility.yul\":726:814   */\n      mstore\n        /* \"#utility.yul\":833:837   */\n      0x41\n        /* \"#utility.yul\":830:831   */\n      0x04\n        /* \"#utility.yul\":823:838   */\n      mstore\n        /* \"#utility.yul\":857:861   */\n      0x24\n        /* \"#utility.yul\":854:855   */\n      0x00\n        /* \"#utility.yul\":847:862   */\n      revert\n        /* \"#utility.yul\":874:1155   */\n    tag_38:\n        /* \"#utility.yul\":957:984   */\n      tag_75\n        /* \"#utility.yul\":979:983   */\n      dup3\n        /* \"#utility.yul\":957:984   */\n      tag_36\n      jump\t// in\n    tag_75:\n        /* \"#utility.yul\":949:955   */\n      dup2\n        /* \"#utility.yul\":945:985   */\n      add\n        /* \"#utility.yul\":1087:1093   */\n      dup2\n        /* \"#utility.yul\":1075:1085   */\n      dup2\n        /* \"#utility.yul\":1072:1094   */\n      lt\n        /* \"#utility.yul\":1051:1069   */\n      0xffffffffffffffff\n        /* \"#utility.yul\":1039:1049   */\n      dup3\n        /* \"#utility.yul\":1036:1070   */\n      gt\n        /* \"#utility.yul\":1033:1095   */\n      or\n        /* \"#utility.yul\":1030:1118   */\n      iszero\n      tag_76\n      jumpi\n        /* \"#utility.yul\":1098:1116   */\n      tag_77\n      tag_37\n      jump\t// in\n    tag_77:\n        /* \"#utility.yul\":1030:1118   */\n    tag_76:\n        /* \"#utility.yul\":1138:1148   */\n      dup1\n        /* \"#utility.yul\":1134:1136   */\n      0x40\n        /* \"#utility.yul\":1127:1149   */\n      mstore\n        /* \"#utility.yul\":917:1155   */\n      pop\n        /* \"#utility.yul\":874:1155   */\n      pop\n      pop\n      jump\t// out\n        /* \"#utility.yul\":1161:1290   */\n    tag_39:\n        /* \"#utility.yul\":1195:1201   */\n      0x00\n        /* \"#utility.yul\":1222:1242   */\n      tag_79\n      tag_31\n      jump\t// in\n    tag_79:\n        /* \"#utility.yul\":1212:1242   */\n      swap1\n      pop\n        /* \"#utility.yul\":1251:1284   */\n      tag_80\n        /* \"#utility.yul\":1279:1283   */\n      dup3\n        /* \"#utility.yul\":1271:1277   */\n      dup3\n        /* \"#utility.yul\":1251:1284   */\n      tag_38\n      jump\t// in\n    tag_80:\n        /* \"#utility.yul\":1161:1290   */\n      swap2\n      swap1\n      pop\n      jump\t// out\n        /* \"#utility.yul\":1296:1604   */\n    tag_40:\n        /* \"#utility.yul\":1358:1362   */\n      0x00\n        /* \"#utility.yul\":1448:1466   */\n      0xffffffffffffffff\n        /* \"#utility.yul\":1440:1446   */\n      dup3\n        /* \"#utility.yul\":1437:1467   */\n      gt\n        /* \"#utility.yul\":1434:1490   */\n      iszero\n      tag_82\n      jumpi\n        /* \"#utility.yul\":1470:1488   */\n      tag_83\n      tag_37\n      jump\t// in\n    tag_83:\n        /* \"#utility.yul\":1434:1490   */\n    tag_82:\n        /* \"#utility.yul\":1508:1537   */\n      tag_84\n        /* \"#utility.yul\":1530:1536   */\n      dup3\n        /* \"#utility.yul\":1508:1537   */\n      tag_36\n      jump\t// in\n    tag_84:\n        /* \"#utility.yul\":1500:1537   */\n      swap1\n      pop\n        /* \"#utility.yul\":1592:1596   */\n      0x20\n        /* \"#utility.yul\":1586:1590   */\n      dup2\n        /* \"#utility.yul\":1582:1597   */\n      add\n        /* \"#utility.yul\":1574:1597   */\n      swap1\n      pop\n        /* \"#utility.yul\":1296:1604   */\n      swap2\n      swap1\n      pop\n      jump\t// out\n        /* \"#utility.yul\":1610:1758   */\n    tag_41:\n        /* \"#utility.yul\":1708:1714   */\n      dup3\n        /* \"#utility.yul\":1703:1706   */\n      dup2\n        /* \"#utility.yul\":1698:1701   */\n      dup4\n        /* \"#utility.yul\":1685:1715   */\n      calldatacopy\n        /* \"#utility.yul\":1749:1750   */\n      0x00\n        /* \"#utility.yul\":1740:1746   */\n      dup4\n        /* \"#utility.yul\":1735:1738   */\n      dup4\n        /* \"#utility.yul\":1731:1747   */\n      add\n        /* \"#utility.yul\":1724:1751   */\n      mstore\n        /* \"#utility.yul\":1610:1758   */\n      pop\n      pop\n      pop\n      jump\t// out\n        /* \"#utility.yul\":1764:2189   */\n    tag_42:\n        /* \"#utility.yul\":1842:1847   */\n      0x00\n        /* \"#utility.yul\":1867:1933   */\n      tag_87\n        /* \"#utility.yul\":1883:1932   */\n      tag_88\n        /* \"#utility.yul\":1925:1931   */\n      dup5\n        /* \"#utility.yul\":1883:1932   */\n      tag_40\n      jump\t// in\n    tag_88:\n        /* \"#utility.yul\":1867:1933   */\n      tag_39\n      jump\t// in\n    tag_87:\n        /* \"#utility.yul\":1858:1933   */\n      swap1\n      pop\n        /* \"#utility.yul\":1956:1962   */\n      dup3\n        /* \"#utility.yul\":1949:1954   */\n      dup2\n        /* \"#utility.yul\":1942:1963   */\n      mstore\n        /* \"#utility.yul\":1994:1998   */\n      0x20\n        /* \"#utility.yul\":1987:1992   */\n      dup2\n        /* \"#utility.yul\":1983:1999   */\n      add\n        /* \"#utility.yul\":2032:2035   */\n      dup5\n        /* \"#utility.yul\":2023:2029   */\n      dup5\n        /* \"#utility.yul\":2018:2021   */\n      dup5\n        /* \"#utility.yul\":2014:2030   */\n      add\n        /* \"#utility.yul\":2011:2036   */\n      gt\n        /* \"#utility.yul\":2008:2120   */\n      iszero\n      tag_89\n      jumpi\n        /* \"#utility.yul\":2039:2118   */\n      tag_90\n      tag_35\n      jump\t// in\n    tag_90:\n        /* \"#utility.yul\":2008:2120   */\n    tag_89:\n        /* \"#utility.yul\":2129:2183   */\n      tag_91\n        /* \"#utility.yul\":2176:2182   */\n      dup5\n        /* \"#utility.yul\":2171:2174   */\n      dup3\n        /* \"#utility.yul\":2166:2169   */\n      dup6\n        /* \"#utility.yul\":2129:2183   */\n      tag_41\n      jump\t// in\n    tag_91:\n        /* \"#utility.yul\":1848:2189   */\n      pop\n        /* \"#utility.yul\":1764:2189   */\n      swap4\n      swap3\n      pop\n      pop\n      pop\n      jump\t// out\n        /* \"#utility.yul\":2209:2549   */\n    tag_43:\n        /* \"#utility.yul\":2265:2270   */\n      0x00\n        /* \"#utility.yul\":2314:2317   */\n      dup3\n        /* \"#utility.yul\":2307:2311   */\n      0x1f\n        /* \"#utility.yul\":2299:2305   */\n      dup4\n        /* \"#utility.yul\":2295:2312   */\n      add\n        /* \"#utility.yul\":2291:2318   */\n      slt\n        /* \"#utility.yul\":2281:2403   */\n      tag_93\n      jumpi\n        /* \"#utility.yul\":2322:2401   */\n      tag_94\n      tag_34\n      jump\t// in\n    tag_94:\n        /* \"#utility.yul\":2281:2403   */\n    tag_93:\n        /* \"#utility.yul\":2439:2445   */\n      dup2\n        /* \"#utility.yul\":2426:2446   */\n      calldataload\n        /* \"#utility.yul\":2464:2543   */\n      tag_95\n        /* \"#utility.yul\":2539:2542   */\n      dup5\n        /* \"#utility.yul\":2531:2537   */\n      dup3\n        /* \"#utility.yul\":2524:2528   */\n      0x20\n        /* \"#utility.yul\":2516:2522   */\n      dup7\n        /* \"#utility.yul\":2512:2529   */\n      add\n        /* \"#utility.yul\":2464:2543   */\n      tag_42\n      jump\t// in\n    tag_95:\n        /* \"#utility.yul\":2455:2543   */\n      swap2\n      pop\n        /* \"#utility.yul\":2271:2549   */\n      pop\n        /* \"#utility.yul\":2209:2549   */\n      swap3\n      swap2\n      pop\n      pop\n      jump\t// out\n        /* \"#utility.yul\":2555:2814   */\n    tag_44:\n        /* \"#utility.yul\":2640:2644   */\n      0x00\n        /* \"#utility.yul\":2730:2748   */\n      0xffffffffffffffff\n        /* \"#utility.yul\":2722:2728   */\n      dup3\n        /* \"#utility.yul\":2719:2749   */\n      gt\n        /* \"#utility.yul\":2716:2772   */\n      iszero\n      tag_97\n      jumpi\n        /* \"#utility.yul\":2752:2770   */\n      tag_98\n      tag_37\n      jump\t// in\n    tag_98:\n        /* \"#utility.yul\":2716:2772   */\n    tag_97:\n        /* \"#utility.yul\":2802:2806   */\n      0x20\n        /* \"#utility.yul\":2794:2800   */\n      dup3\n        /* \"#utility.yul\":2790:2807   */\n      mul\n        /* \"#utility.yul\":2782:2807   */\n      swap1\n      pop\n        /* \"#utility.yul\":2555:2814   */\n      swap2\n      swap1\n      pop\n      jump\t// out\n        /* \"#utility.yul\":2820:2937   */\n    tag_45:\n        /* \"#utility.yul\":2929:2930   */\n      0x00\n        /* \"#utility.yul\":2926:2927   */\n      dup1\n        /* \"#utility.yul\":2919:2931   */\n      revert\n        /* \"#utility.yul\":2960:3838   */\n    tag_46:\n        /* \"#utility.yul\":3064:3069   */\n      0x00\n        /* \"#utility.yul\":3089:3178   */\n      tag_101\n        /* \"#utility.yul\":3105:3177   */\n      tag_102\n        /* \"#utility.yul\":3170:3176   */\n      dup5\n        /* \"#utility.yul\":3105:3177   */\n      tag_44\n      jump\t// in\n    tag_102:\n        /* \"#utility.yul\":3089:3178   */\n      tag_39\n      jump\t// in\n    tag_101:\n        /* \"#utility.yul\":3080:3178   */\n      swap1\n      pop\n        /* \"#utility.yul\":3198:3203   */\n      dup1\n        /* \"#utility.yul\":3251:3255   */\n      0x20\n        /* \"#utility.yul\":3243:3249   */\n      dup5\n        /* \"#utility.yul\":3239:3256   */\n      mul\n        /* \"#utility.yul\":3231:3237   */\n      dup4\n        /* \"#utility.yul\":3227:3257   */\n      add\n        /* \"#utility.yul\":3280:3283   */\n      dup6\n        /* \"#utility.yul\":3272:3278   */\n      dup2\n        /* \"#utility.yul\":3269:3284   */\n      gt\n        /* \"#utility.yul\":3266:3388   */\n      iszero\n      tag_103\n      jumpi\n        /* \"#utility.yul\":3299:3378   */\n      tag_104\n      tag_45\n      jump\t// in\n    tag_104:\n        /* \"#utility.yul\":3266:3388   */\n    tag_103:\n        /* \"#utility.yul\":3414:3420   */\n      dup4\n        /* \"#utility.yul\":3397:3832   */\n    tag_105:\n        /* \"#utility.yul\":3431:3437   */\n      dup2\n        /* \"#utility.yul\":3426:3429   */\n      dup2\n        /* \"#utility.yul\":3423:3438   */\n      lt\n        /* \"#utility.yul\":3397:3832   */\n      iszero\n      tag_107\n      jumpi\n        /* \"#utility.yul\":3520:3523   */\n      dup1\n        /* \"#utility.yul\":3507:3524   */\n      calldataload\n        /* \"#utility.yul\":3556:3574   */\n      0xffffffffffffffff\n        /* \"#utility.yul\":3543:3554   */\n      dup2\n        /* \"#utility.yul\":3540:3575   */\n      gt\n        /* \"#utility.yul\":3537:3659   */\n      iszero\n      tag_108\n      jumpi\n        /* \"#utility.yul\":3578:3657   */\n      tag_109\n      tag_34\n      jump\t// in\n    tag_109:\n        /* \"#utility.yul\":3537:3659   */\n    tag_108:\n        /* \"#utility.yul\":3702:3713   */\n      dup1\n        /* \"#utility.yul\":3694:3700   */\n      dup7\n        /* \"#utility.yul\":3690:3714   */\n      add\n        /* \"#utility.yul\":3740:3787   */\n      tag_110\n        /* \"#utility.yul\":3783:3786   */\n      dup10\n        /* \"#utility.yul\":3771:3781   */\n      dup3\n        /* \"#utility.yul\":3740:3787   */\n      tag_43\n      jump\t// in\n    tag_110:\n        /* \"#utility.yul\":3735:3738   */\n      dup6\n        /* \"#utility.yul\":3728:3788   */\n      mstore\n        /* \"#utility.yul\":3817:3821   */\n      0x20\n        /* \"#utility.yul\":3812:3815   */\n      dup6\n        /* \"#utility.yul\":3808:3822   */\n      add\n        /* \"#utility.yul\":3801:3822   */\n      swap5\n      pop\n        /* \"#utility.yul\":3473:3832   */\n      pop\n      pop\n        /* \"#utility.yul\":3457:3461   */\n      0x20\n        /* \"#utility.yul\":3452:3455   */\n      dup2\n        /* \"#utility.yul\":3448:3462   */\n      add\n        /* \"#utility.yul\":3441:3462   */\n      swap1\n      pop\n        /* \"#utility.yul\":3397:3832   */\n      jump(tag_105)\n    tag_107:\n        /* \"#utility.yul\":3401:3422   */\n      pop\n        /* \"#utility.yul\":3070:3838   */\n      pop\n      pop\n        /* \"#utility.yul\":2960:3838   */\n      swap4\n      swap3\n      pop\n      pop\n      pop\n      jump\t// out\n        /* \"#utility.yul\":3861:4220   */\n    tag_47:\n        /* \"#utility.yul\":3940:3945   */\n      0x00\n        /* \"#utility.yul\":3989:3992   */\n      dup3\n        /* \"#utility.yul\":3982:3986   */\n      0x1f\n        /* \"#utility.yul\":3974:3980   */\n      dup4\n        /* \"#utility.yul\":3970:3987   */\n      add\n        /* \"#utility.yul\":3966:3993   */\n      slt\n        /* \"#utility.yul\":3956:4078   */\n      tag_112\n      jumpi\n        /* \"#utility.yul\":3997:4076   */\n      tag_113\n      tag_34\n      jump\t// in\n    tag_113:\n        /* \"#utility.yul\":3956:4078   */\n    tag_112:\n        /* \"#utility.yul\":4101:4105   */\n      0x02\n        /* \"#utility.yul\":4123:4214   */\n      tag_114\n        /* \"#utility.yul\":4210:4213   */\n      dup5\n        /* \"#utility.yul\":4202:4208   */\n      dup3\n        /* \"#utility.yul\":4194:4200   */\n      dup6\n        /* \"#utility.yul\":4123:4214   */\n      tag_46\n      jump\t// in\n    tag_114:\n        /* \"#utility.yul\":4114:4214   */\n      swap2\n      pop\n        /* \"#utility.yul\":3946:4220   */\n      pop\n        /* \"#utility.yul\":3861:4220   */\n      swap3\n      swap2\n      pop\n      pop\n      jump\t// out\n        /* \"#utility.yul\":4226:5106   */\n    tag_6:\n        /* \"#utility.yul\":4337:4343   */\n      0x00\n        /* \"#utility.yul\":4345:4351   */\n      dup1\n        /* \"#utility.yul\":4394:4396   */\n      0x40\n        /* \"#utility.yul\":4382:4391   */\n      dup4\n        /* \"#utility.yul\":4373:4380   */\n      dup6\n        /* \"#utility.yul\":4369:4392   */\n      sub\n        /* \"#utility.yul\":4365:4397   */\n      slt\n        /* \"#utility.yul\":4362:4481   */\n      iszero\n      tag_116\n      jumpi\n        /* \"#utility.yul\":4400:4479   */\n      tag_117\n      tag_32\n      jump\t// in\n    tag_117:\n        /* \"#utility.yul\":4362:4481   */\n    tag_116:\n        /* \"#utility.yul\":4548:4549   */\n      0x00\n        /* \"#utility.yul\":4537:4546   */\n      dup4\n        /* \"#utility.yul\":4533:4550   */\n      add\n        /* \"#utility.yul\":4520:4551   */\n      calldataload\n        /* \"#utility.yul\":4578:4596   */\n      0xffffffffffffffff\n        /* \"#utility.yul\":4570:4576   */\n      dup2\n        /* \"#utility.yul\":4567:4597   */\n      gt\n        /* \"#utility.yul\":4564:4681   */\n      iszero\n      tag_118\n      jumpi\n        /* \"#utility.yul\":4600:4679   */\n      tag_119\n      tag_33\n      jump\t// in\n    tag_119:\n        /* \"#utility.yul\":4564:4681   */\n    tag_118:\n        /* \"#utility.yul\":4705:4768   */\n      tag_120\n        /* \"#utility.yul\":4760:4767   */\n      dup6\n        /* \"#utility.yul\":4751:4757   */\n      dup3\n        /* \"#utility.yul\":4740:4749   */\n      dup7\n        /* \"#utility.yul\":4736:4758   */\n      add\n        /* \"#utility.yul\":4705:4768   */\n      tag_43\n      jump\t// in\n    tag_120:\n        /* \"#utility.yul\":4695:4768   */\n      swap3\n      pop\n        /* \"#utility.yul\":4491:4778   */\n      pop\n        /* \"#utility.yul\":4845:4847   */\n      0x20\n        /* \"#utility.yul\":4834:4843   */\n      dup4\n        /* \"#utility.yul\":4830:4848   */\n      add\n        /* \"#utility.yul\":4817:4849   */\n      calldataload\n        /* \"#utility.yul\":4876:4894   */\n      0xffffffffffffffff\n        /* \"#utility.yul\":4868:4874   */\n      dup2\n        /* \"#utility.yul\":4865:4895   */\n      gt\n        /* \"#utility.yul\":4862:4979   */\n      iszero\n      tag_121\n      jumpi\n        /* \"#utility.yul\":4898:4977   */\n      tag_122\n      tag_33\n      jump\t// in\n    tag_122:\n        /* \"#utility.yul\":4862:4979   */\n    tag_121:\n        /* \"#utility.yul\":5003:5089   */\n      tag_123\n        /* \"#utility.yul\":5081:5088   */\n      dup6\n        /* \"#utility.yul\":5072:5078   */\n      dup3\n        /* \"#utility.yul\":5061:5070   */\n      dup7\n        /* \"#utility.yul\":5057:5079   */\n      add\n        /* \"#utility.yul\":5003:5089   */\n      tag_47\n      jump\t// in\n    tag_123:\n        /* \"#utility.yul\":4993:5089   */\n      swap2\n      pop\n        /* \"#utility.yul\":4788:5099   */\n      pop\n        /* \"#utility.yul\":4226:5106   */\n      swap3\n      pop\n      swap3\n      swap1\n      pop\n      jump\t// out\n        /* \"#utility.yul\":5112:5211   */\n    tag_48:\n        /* \"#utility.yul\":5164:5170   */\n      0x00\n        /* \"#utility.yul\":5198:5203   */\n      dup2\n        /* \"#utility.yul\":5192:5204   */\n      mload\n        /* \"#utility.yul\":5182:5204   */\n      swap1\n      pop\n        /* \"#utility.yul\":5112:5211   */\n      swap2\n      swap1\n      pop\n      jump\t// out\n        /* \"#utility.yul\":5217:5397   */\n    tag_49:\n        /* \"#utility.yul\":5265:5342   */\n      0x4e487b7100000000000000000000000000000000000000000000000000000000\n        /* \"#utility.yul\":5262:5263   */\n      0x00\n        /* \"#utility.yul\":5255:5343   */\n      mstore\n        /* \"#utility.yul\":5362:5366   */\n      0x22\n        /* \"#utility.yul\":5359:5360   */\n      0x04\n        /* \"#utility.yul\":5352:5367   */\n      mstore\n        /* \"#utility.yul\":5386:5390   */\n      0x24\n        /* \"#utility.yul\":5383:5384   */\n      0x00\n        /* \"#utility.yul\":5376:5391   */\n      revert\n        /* \"#utility.yul\":5403:5723   */\n    tag_24:\n        /* \"#utility.yul\":5447:5453   */\n      0x00\n        /* \"#utility.yul\":5484:5485   */\n      0x02\n        /* \"#utility.yul\":5478:5482   */\n      dup3\n        /* \"#utility.yul\":5474:5486   */\n      div\n        /* \"#utility.yul\":5464:5486   */\n      swap1\n      pop\n        /* \"#utility.yul\":5531:5532   */\n      0x01\n        /* \"#utility.yul\":5525:5529   */\n      dup3\n        /* \"#utility.yul\":5521:5533   */\n      and\n        /* \"#utility.yul\":5552:5570   */\n      dup1\n        /* \"#utility.yul\":5542:5623   */\n      tag_127\n      jumpi\n        /* \"#utility.yul\":5608:5612   */\n      0x7f\n        /* \"#utility.yul\":5600:5606   */\n      dup3\n        /* \"#utility.yul\":5596:5613   */\n      and\n        /* \"#utility.yul\":5586:5613   */\n      swap2\n      pop\n        /* \"#utility.yul\":5542:5623   */\n    tag_127:\n        /* \"#utility.yul\":5670:5672   */\n      0x20\n        /* \"#utility.yul\":5662:5668   */\n      dup3\n        /* \"#utility.yul\":5659:5673   */\n      lt\n        /* \"#utility.yul\":5639:5657   */\n      dup2\n        /* \"#utility.yul\":5636:5674   */\n      sub\n        /* \"#utility.yul\":5633:5717   */\n      tag_128\n      jumpi\n        /* \"#utility.yul\":5689:5707   */\n      tag_129\n      tag_49\n      jump\t// in\n    tag_129:\n        /* \"#utility.yul\":5633:5717   */\n    tag_128:\n        /* \"#utility.yul\":5454:5723   */\n      pop\n        /* \"#utility.yul\":5403:5723   */\n      swap2\n      swap1\n      pop\n      jump\t// out\n        /* \"#utility.yul\":5729:5870   */\n    tag_50:\n        /* \"#utility.yul\":5778:5782   */\n      0x00\n        /* \"#utility.yul\":5801:5804   */\n      dup2\n        /* \"#utility.yul\":5793:5804   */\n      swap1\n      pop\n        /* \"#utility.yul\":5824:5827   */\n      dup2\n        /* \"#utility.yul\":5821:5822   */\n      0x00\n        /* \"#utility.yul\":5814:5828   */\n      mstore\n        /* \"#utility.yul\":5858:5862   */\n      0x20\n        /* \"#utility.yul\":5855:5856   */\n      0x00\n        /* \"#utility.yul\":5845:5863   */\n      keccak256\n        /* \"#utility.yul\":5837:5863   */\n      swap1\n      pop\n        /* \"#utility.yul\":5729:5870   */\n      swap2\n      swap1\n      pop\n      jump\t// out\n        /* \"#utility.yul\":5876:5969   */\n    tag_51:\n        /* \"#utility.yul\":5913:5919   */\n      0x00\n        /* \"#utility.yul\":5960:5962   */\n      0x20\n        /* \"#utility.yul\":5955:5957   */\n      0x1f\n        /* \"#utility.yul\":5948:5953   */\n      dup4\n        /* \"#utility.yul\":5944:5958   */\n      add\n        /* \"#utility.yul\":5940:5963   */\n      div\n        /* \"#utility.yul\":5930:5963   */\n      swap1\n      pop\n        /* \"#utility.yul\":5876:5969   */\n      swap2\n      swap1\n      pop\n      jump\t// out\n        /* \"#utility.yul\":5975:6082   */\n    tag_52:\n        /* \"#utility.yul\":6019:6027   */\n      0x00\n        /* \"#utility.yul\":6069:6074   */\n      dup3\n        /* \"#utility.yul\":6063:6067   */\n      dup3\n        /* \"#utility.yul\":6059:6075   */\n      shl\n        /* \"#utility.yul\":6038:6075   */\n      swap1\n      pop\n        /* \"#utility.yul\":5975:6082   */\n      swap3\n      swap2\n      pop\n      pop\n      jump\t// out\n        /* \"#utility.yul\":6088:6481   */\n    tag_53:\n        /* \"#utility.yul\":6157:6163   */\n      0x00\n        /* \"#utility.yul\":6207:6208   */\n      0x08\n        /* \"#utility.yul\":6195:6205   */\n      dup4\n        /* \"#utility.yul\":6191:6209   */\n      mul\n        /* \"#utility.yul\":6230:6327   */\n      tag_134\n        /* \"#utility.yul\":6260:6326   */\n      0xffffffffffffffffffffffffffffffffffffffffffffffffffffffffffffffff\n        /* \"#utility.yul\":6249:6258   */\n      dup3\n        /* \"#utility.yul\":6230:6327   */\n      tag_52\n      jump\t// in\n    tag_134:\n        /* \"#utility.yul\":6348:6387   */\n      tag_135\n        /* \"#utility.yul\":6378:6386   */\n      dup7\n        /* \"#utility.yul\":6367:6376   */\n      dup4\n        /* \"#utility.yul\":6348:6387   */\n      tag_52\n      jump\t// in\n    tag_135:\n        /* \"#utility.yul\":6336:6387   */\n      swap6\n      pop\n        /* \"#utility.yul\":6420:6424   */\n      dup1\n        /* \"#utility.yul\":6416:6425   */\n      not\n        /* \"#utility.yul\":6409:6414   */\n      dup5\n        /* \"#utility.yul\":6405:6426   */\n      and\n        /* \"#utility.yul\":6396:6426   */\n      swap4\n      pop\n        /* \"#utility.yul\":6469:6473   */\n      dup1\n        /* \"#utility.yul\":6459:6467   */\n      dup7\n        /* \"#utility.yul\":6455:6474   */\n      and\n        /* \"#utility.yul\":6448:6453   */\n      dup5\n        /* \"#utility.yul\":6445:6475   */\n      or\n        /* \"#utility.yul\":6435:6475   */\n      swap3\n      pop\n        /* \"#utility.yul\":6164:6481   */\n      pop\n      pop\n        /* \"#utility.yul\":6088:6481   */\n      swap4\n      swap3\n      pop\n      pop\n      pop\n      jump\t// out\n        /* \"#utility.yul\":6487:6564   */\n    tag_54:\n        /* \"#utility.yul\":6524:6531   */\n      0x00\n        /* \"#utility.yul\":6553:6558   */\n      dup2\n        /* \"#utility.yul\":6542:6558   */\n      swap1\n      pop\n        /* \"#utility.yul\":6487:6564   */\n      swap2\n      swap1\n      pop\n      jump\t// out\n        /* \"#utility.yul\":6570:6630   */\n    tag_55:\n        /* \"#utility.yul\":6598:6601   */\n      0x00\n        /* \"#utility.yul\":6619:6624   */\n      dup2\n        /* \"#utility.yul\":6612:6624   */\n      swap1\n      pop\n        /* \"#utility.yul\":6570:6630   */\n      swap2\n      swap1\n      pop\n      jump\t// out\n        /* \"#utility.yul\":6636:6778   */\n    tag_56:\n        /* \"#utility.yul\":6686:6695   */\n      0x00\n        /* \"#utility.yul\":6719:6772   */\n      tag_139\n        /* \"#utility.yul\":6737:6771   */\n      tag_140\n        /* \"#utility.yul\":6746:6770   */\n      tag_141\n        /* \"#utility.yul\":6764:6769   */\n      dup5\n        /* \"#utility.yul\":6746:6770   */\n      tag_54\n      jump\t// in\n    tag_141:\n        /* \"#utility.yul\":6737:6771   */\n      tag_55\n      jump\t// in\n    tag_140:\n        /* \"#utility.yul\":6719:6772   */\n      tag_54\n      jump\t// in\n    tag_139:\n        /* \"#utility.yul\":6706:6772   */\n      swap1\n      pop\n        /* \"#utility.yul\":6636:6778   */\n      swap2\n      swap1\n      pop\n      jump\t// out\n        /* \"#utility.yul\":6784:6859   */\n    tag_57:\n        /* \"#utility.yul\":6827:6830   */\n      0x00\n        /* \"#utility.yul\":6848:6853   */\n      dup2\n        /* \"#utility.yul\":6841:6853   */\n      swap1\n      pop\n        /* \"#utility.yul\":6784:6859   */\n      swap2\n      swap1\n      pop\n      jump\t// out\n        /* \"#utility.yul\":6865:7134   */\n    tag_58:\n        /* \"#utility.yul\":6975:7014   */\n      tag_144\n        /* \"#utility.yul\":7006:7013   */\n      dup4\n        /* \"#utility.yul\":6975:7014   */\n      tag_56\n      jump\t// in\n    tag_144:\n        /* \"#utility.yul\":7036:7127   */\n      tag_145\n        /* \"#utility.yul\":7085:7126   */\n      tag_146\n        /* \"#utility.yul\":7109:7125   */\n      dup3\n        /* \"#utility.yul\":7085:7126   */\n      tag_57\n      jump\t// in\n    tag_146:\n        /* \"#utility.yul\":7077:7083   */\n      dup5\n        /* \"#utility.yul\":7070:7074   */\n      dup5\n        /* \"#utility.yul\":7064:7075   */\n      sload\n        /* \"#utility.yul\":7036:7127   */\n      tag_53\n      jump\t// in\n    tag_145:\n        /* \"#utility.yul\":7030:7034   */\n      dup3\n        /* \"#utility.yul\":7023:7128   */\n      sstore\n        /* \"#utility.yul\":6941:7134   */\n      pop\n        /* \"#utility.yul\":6865:7134   */\n      pop\n      pop\n      pop\n      jump\t// out\n        /* \"#utility.yul\":7140:7213   */\n    tag_59:\n        /* \"#utility.yul\":7185:7188   */\n      0x00\n        /* \"#utility.yul\":7140:7213   */\n      swap1\n      jump\t// out\n        /* \"#utility.yul\":7219:7408   */\n    tag_60:\n        /* \"#utility.yul\":7296:7328   */\n      tag_149\n      tag_59\n      jump\t// in\n    tag_149:\n        /* \"#utility.yul\":7337:7402   */\n      tag_150\n        /* \"#utility.yul\":7395:7401   */\n      dup2\n        /* \"#utility.yul\":7387:7393   */\n      dup5\n        /* \"#utility.yul\":7381:7385   */\n      dup5\n        /* \"#utility.yul\":7337:7402   */\n      tag_58\n      jump\t// in\n    tag_150:\n        /* \"#utility.yul\":7272:7408   */\n      pop\n        /* \"#utility.yul\":7219:7408   */\n      pop\n      pop\n      jump\t// out\n        /* \"#utility.yul\":7414:7600   */\n    tag_61:\n        /* \"#utility.yul\":7474:7594   */\n    tag_152:\n        /* \"#utility.yul\":7491:7494   */\n      dup2\n        /* \"#utility.yul\":7484:7489   */\n      dup2\n        /* \"#utility.yul\":7481:7495   */\n      lt\n        /* \"#utility.yul\":7474:7594   */\n      iszero\n      tag_154\n      jumpi\n        /* \"#utility.yul\":7545:7584   */\n      tag_155\n        /* \"#utility.yul\":7582:7583   */\n      0x00\n        /* \"#utility.yul\":7575:7580   */\n      dup3\n        /* \"#utility.yul\":7545:7584   */\n      tag_60\n      jump\t// in\n    tag_155:\n        /* \"#utility.yul\":7518:7519   */\n      0x01\n        /* \"#utility.yul\":7511:7516   */\n      dup2\n        /* \"#utility.yul\":7507:7520   */\n      add\n        /* \"#utility.yul\":7498:7520   */\n      swap1\n      pop\n        /* \"#utility.yul\":7474:7594   */\n      jump(tag_152)\n    tag_154:\n        /* \"#utility.yul\":7414:7600   */\n      pop\n      pop\n      jump\t// out\n        /* \"#utility.yul\":7606:8149   */\n    tag_62:\n        /* \"#utility.yul\":7707:7709   */\n      0x1f\n        /* \"#utility.yul\":7702:7705   */\n      dup3\n        /* \"#utility.yul\":7699:7710   */\n      gt\n        /* \"#utility.yul\":7696:8142   */\n      iszero\n      tag_157\n      jumpi\n        /* \"#utility.yul\":7741:7779   */\n      tag_158\n        /* \"#utility.yul\":7773:7778   */\n      dup2\n        /* \"#utility.yul\":7741:7779   */\n      tag_50\n      jump\t// in\n    tag_158:\n        /* \"#utility.yul\":7825:7854   */\n      tag_159\n        /* \"#utility.yul\":7843:7853   */\n      dup5\n        /* \"#utility.yul\":7825:7854   */\n      tag_51\n      jump\t// in\n    tag_159:\n        /* \"#utility.yul\":7815:7823   */\n      dup2\n        /* \"#utility.yul\":7811:7855   */\n      add\n        /* \"#utility.yul\":8008:8010   */\n      0x20\n        /* \"#utility.yul\":7996:8006   */\n      dup6\n        /* \"#utility.yul\":7993:8011   */\n      lt\n        /* \"#utility.yul\":7990:8039   */\n      iszero\n      tag_160\n      jumpi\n        /* \"#utility.yul\":8029:8037   */\n      dup2\n        /* \"#utility.yul\":8014:8037   */\n      swap1\n      pop\n        /* \"#utility.yul\":7990:8039   */\n    tag_160:\n        /* \"#utility.yul\":8052:8132   */\n      tag_161\n        /* \"#utility.yul\":8108:8130   */\n      tag_162\n        /* \"#utility.yul\":8126:8129   */\n      dup6\n        /* \"#utility.yul\":8108:8130   */\n      tag_51\n      jump\t// in\n    tag_162:\n        /* \"#utility.yul\":8098:8106   */\n      dup4\n        /* \"#utility.yul\":8094:8131   */\n      add\n        /* \"#utility.yul\":8081:8092   */\n      dup3\n        /* \"#utility.yul\":8052:8132   */\n      tag_61\n      jump\t// in\n    tag_161:\n        /* \"#utility.yul\":7711:8142   */\n      pop\n      pop\n        /* \"#utility.yul\":7696:8142   */\n    tag_157:\n        /* \"#utility.yul\":7606:8149   */\n      pop\n      pop\n      pop\n      jump\t// out\n        /* \"#utility.yul\":8155:8272   */\n    tag_63:\n        /* \"#utility.yul\":8209:8217   */\n      0x00\n        /* \"#utility.yul\":8259:8264   */\n      dup3\n        /* \"#utility.yul\":8253:8257   */\n      dup3\n        /* \"#utility.yul\":8249:8265   */\n      shr\n        /* \"#utility.yul\":8228:8265   */\n      swap1\n      pop\n        /* \"#utility.yul\":8155:8272   */\n      swap3\n      swap2\n      pop\n      pop\n      jump\t// out\n        /* \"#utility.yul\":8278:8447   */\n    tag_64:\n        /* \"#utility.yul\":8322:8328   */\n      0x00\n        /* \"#utility.yul\":8355:8406   */\n      tag_165\n        /* \"#utility.yul\":8403:8404   */\n      0x00\n        /* \"#utility.yul\":8399:8405   */\n      not\n        /* \"#utility.yul\":8391:8396   */\n      dup5\n        /* \"#utility.yul\":8388:8389   */\n      0x08\n        /* \"#utility.yul\":8384:8397   */\n      mul\n        /* \"#utility.yul\":8355:8406   */\n      tag_63\n      jump\t// in\n    tag_165:\n        /* \"#utility.yul\":8351:8407   */\n      not\n        /* \"#utility.yul\":8436:8440   */\n      dup1\n        /* \"#utility.yul\":8430:8434   */\n      dup4\n        /* \"#utility.yul\":8426:8441   */\n      and\n        /* \"#utility.yul\":8416:8441   */\n      swap2\n      pop\n        /* \"#utility.yul\":8329:8447   */\n      pop\n        /* \"#utility.yul\":8278:8447   */\n      swap3\n      swap2\n      pop\n      pop\n      jump\t// out\n        /* \"#utility.yul\":8452:8747   */\n    tag_65:\n        /* \"#utility.yul\":8528:8532   */\n      0x00\n        /* \"#utility.yul\":8674:8703   */\n      tag_167\n        /* \"#utility.yul\":8699:8702   */\n      dup4\n        /* \"#utility.yul\":8693:8697   */\n      dup4\n        /* \"#utility.yul\":8674:8703   */\n      tag_64\n      jump\t// in\n    tag_167:\n        /* \"#utility.yul\":8666:8703   */\n      swap2\n      pop\n        /* \"#utility.yul\":8736:8739   */\n      dup3\n        /* \"#utility.yul\":8733:8734   */\n      0x02\n        /* \"#utility.yul\":8729:8740   */\n      mul\n        /* \"#utility.yul\":8723:8727   */\n      dup3\n        /* \"#utility.yul\":8720:8741   */\n      or\n        /* \"#utility.yul\":8712:8741   */\n      swap1\n      pop\n        /* \"#utility.yul\":8452:8747   */\n      swap3\n      swap2\n      pop\n      pop\n      jump\t// out\n        /* \"#utility.yul\":8752:10147   */\n    tag_10:\n        /* \"#utility.yul\":8869:8906   */\n      tag_169\n        /* \"#utility.yul\":8902:8905   */\n      dup3\n        /* \"#utility.yul\":8869:8906   */\n      tag_48\n      jump\t// in\n    tag_169:\n        /* \"#utility.yul\":8971:8989   */\n      0xffffffffffffffff\n        /* \"#utility.yul\":8963:8969   */\n      dup2\n        /* \"#utility.yul\":8960:8990   */\n      gt\n        /* \"#utility.yul\":8957:9013   */\n      iszero\n      tag_170\n      jumpi\n        /* \"#utility.yul\":8993:9011   */\n      tag_171\n      tag_37\n      jump\t// in\n    tag_171:\n        /* \"#utility.yul\":8957:9013   */\n    tag_170:\n        /* \"#utility.yul\":9037:9075   */\n      tag_172\n        /* \"#utility.yul\":9069:9073   */\n      dup3\n        /* \"#utility.yul\":9063:9074   */\n      sload\n        /* \"#utility.yul\":9037:9075   */\n      tag_24\n      jump\t// in\n    tag_172:\n        /* \"#utility.yul\":9122:9189   */\n      tag_173\n        /* \"#utility.yul\":9182:9188   */\n      dup3\n        /* \"#utility.yul\":9174:9180   */\n      dup3\n        /* \"#utility.yul\":9168:9172   */\n      dup6\n        /* \"#utility.yul\":9122:9189   */\n      tag_62\n      jump\t// in\n    tag_173:\n        /* \"#utility.yul\":9216:9217   */\n      0x00\n        /* \"#utility.yul\":9240:9244   */\n      0x20\n        /* \"#utility.yul\":9227:9244   */\n      swap1\n      pop\n        /* \"#utility.yul\":9272:9274   */\n      0x1f\n        /* \"#utility.yul\":9264:9270   */\n      dup4\n        /* \"#utility.yul\":9261:9275   */\n      gt\n        /* \"#utility.yul\":9289:9290   */\n      0x01\n        /* \"#utility.yul\":9284:9902   */\n      dup2\n      eq\n      tag_175\n      jumpi\n        /* \"#utility.yul\":9946:9947   */\n      0x00\n        /* \"#utility.yul\":9963:9969   */\n      dup5\n        /* \"#utility.yul\":9960:10037   */\n      iszero\n      tag_176\n      jumpi\n        /* \"#utility.yul\":10012:10021   */\n      dup3\n        /* \"#utility.yul\":10007:10010   */\n      dup8\n        /* \"#utility.yul\":10003:10022   */\n      add\n        /* \"#utility.yul\":9997:10023   */\n      mload\n        /* \"#utility.yul\":9988:10023   */\n      swap1\n      pop\n        /* \"#utility.yul\":9960:10037   */\n    tag_176:\n        /* \"#utility.yul\":10063:10130   */\n      tag_177\n        /* \"#utility.yul\":10123:10129   */\n      dup6\n        /* \"#utility.yul\":10116:10121   */\n      dup3\n        /* \"#utility.yul\":10063:10130   */\n      tag_65\n      jump\t// in\n    tag_177:\n        /* \"#utility.yul\":10057:10061   */\n      dup7\n        /* \"#utility.yul\":10050:10131   */\n      sstore\n        /* \"#utility.yul\":9919:10141   */\n      pop\n        /* \"#utility.yul\":9254:10141   */\n      jump(tag_174)\n        /* \"#utility.yul\":9284:9902   */\n    tag_175:\n        /* \"#utility.yul\":9336:9340   */\n      0x1f\n        /* \"#utility.yul\":9332:9341   */\n      not\n        /* \"#utility.yul\":9324:9330   */\n      dup5\n        /* \"#utility.yul\":9320:9342   */\n      and\n        /* \"#utility.yul\":9370:9407   */\n      tag_178\n        /* \"#utility.yul\":9402:9406   */\n      dup7\n        /* \"#utility.yul\":9370:9407   */\n      tag_50\n      jump\t// in\n    tag_178:\n        /* \"#utility.yul\":9429:9430   */\n      0x00\n        /* \"#utility.yul\":9443:9651   */\n    tag_179:\n        /* \"#utility.yul\":9457:9464   */\n      dup3\n        /* \"#utility.yul\":9454:9455   */\n      dup2\n        /* \"#utility.yul\":9451:9465   */\n      lt\n        /* \"#utility.yul\":9443:9651   */\n      iszero\n      tag_181\n      jumpi\n        /* \"#utility.yul\":9536:9545   */\n      dup5\n        /* \"#utility.yul\":9531:9534   */\n      dup10\n        /* \"#utility.yul\":9527:9546   */\n      add\n        /* \"#utility.yul\":9521:9547   */\n      mload\n        /* \"#utility.yul\":9513:9519   */\n      dup3\n        /* \"#utility.yul\":9506:9548   */\n      sstore\n        /* \"#utility.yul\":9587:9588   */\n      0x01\n        /* \"#utility.yul\":9579:9585   */\n      dup3\n        /* \"#utility.yul\":9575:9589   */\n      add\n        /* \"#utility.yul\":9565:9589   */\n      swap2\n      pop\n        /* \"#utility.yul\":9634:9636   */\n      0x20\n        /* \"#utility.yul\":9623:9632   */\n      dup6\n        /* \"#utility.yul\":9619:9637   */\n      add\n        /* \"#utility.yul\":9606:9637   */\n      swap5\n      pop\n        /* \"#utility.yul\":9480:9484   */\n      0x20\n        /* \"#utility.yul\":9477:9478   */\n      dup2\n        /* \"#utility.yul\":9473:9485   */\n      add\n        /* \"#utility.yul\":9468:9485   */\n      swap1\n      pop\n        /* \"#utility.yul\":9443:9651   */\n      jump(tag_179)\n    tag_181:\n        /* \"#utility.yul\":9679:9685   */\n      dup7\n        /* \"#utility.yul\":9670:9677   */\n      dup4\n        /* \"#utility.yul\":9667:9686   */\n      lt\n        /* \"#utility.yul\":9664:9843   */\n      iszero\n      tag_182\n      jumpi\n        /* \"#utility.yul\":9737:9746   */\n      dup5\n        /* \"#utility.yul\":9732:9735   */\n      dup10\n        /* \"#utility.yul\":9728:9747   */\n      add\n        /* \"#utility.yul\":9722:9748   */\n      mload\n        /* \"#utility.yul\":9780:9828   */\n      tag_183\n        /* \"#utility.yul\":9822:9826   */\n      0x1f\n        /* \"#utility.yul\":9814:9820   */\n      dup10\n        /* \"#utility.yul\":9810:9827   */\n      and\n        /* \"#utility.yul\":9799:9808   */\n      dup3\n        /* \"#utility.yul\":9780:9828   */\n      tag_64\n      jump\t// in\n    tag_183:\n        /* \"#utility.yul\":9772:9778   */\n      dup4\n        /* \"#utility.yul\":9765:9829   */\n      sstore\n        /* \"#utility.yul\":9687:9843   */\n      pop\n        /* \"#utility.yul\":9664:9843   */\n    tag_182:\n        /* \"#utility.yul\":9889:9890   */\n      0x01\n        /* \"#utility.yul\":9885:9886   */\n      0x02\n        /* \"#utility.yul\":9877:9883   */\n      dup9\n        /* \"#utility.yul\":9873:9887   */\n      mul\n        /* \"#utility.yul\":9869:9891   */\n      add\n        /* \"#utility.yul\":9863:9867   */\n      dup9\n        /* \"#utility.yul\":9856:9892   */\n      sstore\n        /* \"#utility.yul\":9291:9902   */\n      pop\n      pop\n      pop\n        /* \"#utility.yul\":9254:10141   */\n    tag_174:\n      pop\n        /* \"#utility.yul\":8844:10147   */\n      pop\n      pop\n      pop\n        /* \"#utility.yul\":8752:10147   */\n      pop\n      pop\n      jump\t// out\n\n    auxdata: 0xa2646970667358221220f883d299a56c85b04334484c9171089ac19be41ae03a0caef01c92435d2b41d664736f6c634300081a0033\n}\n",
				"bytecode": {
					"linkReferences": {},
					"object": "6080604052348015600e575f80fd5b506106da8061001c5f395ff3fe608060405234801561000f575f80fd5b5060043610610029575f3560e01c8063995663cb1461002d575b5f80fd5b61004760048036038101906100429190610352565b610049565b005b815f908161005791906105d5565b5080600190600261006992919061006e565b505050565b82600281019282156100a9579160200282015b828111156100a857825182908161009891906105d5565b5091602001919060010190610081565b5b5090506100b691906100ba565b5090565b5b808211156100d9575f81816100d091906100dd565b506001016100bb565b5090565b5080546100e9906103ff565b5f825580601f106100fa5750610117565b601f0160209004905f5260205f2090810190610116919061011a565b5b50565b5b80821115610131575f815f90555060010161011b565b5090565b5f604051905090565b5f80fd5b5f80fd5b5f80fd5b5f80fd5b5f601f19601f8301169050919050565b7f4e487b71000000000000000000000000000000000000000000000000000000005f52604160045260245ffd5b6101948261014e565b810181811067ffffffffffffffff821117156101b3576101b261015e565b5b80604052505050565b5f6101c5610135565b90506101d1828261018b565b919050565b5f67ffffffffffffffff8211156101f0576101ef61015e565b5b6101f98261014e565b9050602081019050919050565b828183375f83830152505050565b5f610226610221846101d6565b6101bc565b9050828152602081018484840111156102425761024161014a565b5b61024d848285610206565b509392505050565b5f82601f83011261026957610268610146565b5b8135610279848260208601610214565b91505092915050565b5f67ffffffffffffffff82111561029c5761029b61015e565b5b602082029050919050565b5f80fd5b5f6102bd6102b884610282565b6101bc565b905080602084028301858111156102d7576102d66102a7565b5b835b8181101561031e57803567ffffffffffffffff8111156102fc576102fb610146565b5b8086016103098982610255565b855260208501945050506020810190506102d9565b5050509392505050565b5f82601f83011261033c5761033b610146565b5b60026103498482856102ab565b91505092915050565b5f80604083850312156103685761036761013e565b5b5f83013567ffffffffffffffff81111561038557610384610142565b5b61039185828601610255565b925050602083013567ffffffffffffffff8111156103b2576103b1610142565b5b6103be85828601610328565b9150509250929050565b5f81519050919050565b7f4e487b71000000000000000000000000000000000000000000000000000000005f52602260045260245ffd5b5f600282049050600182168061041657607f821691505b602082108103610429576104286103d2565b5b50919050565b5f819050815f5260205f209050919050565b5f6020601f8301049050919050565b5f82821b905092915050565b5f6008830261048b7fffffffffffffffffffffffffffffffffffffffffffffffffffffffffffffffff82610450565b6104958683610450565b95508019841693508086168417925050509392505050565b5f819050919050565b5f819050919050565b5f6104d96104d46104cf846104ad565b6104b6565b6104ad565b9050919050565b5f819050919050565b6104f2836104bf565b6105066104fe826104e0565b84845461045c565b825550505050565b5f90565b61051a61050e565b6105258184846104e9565b505050565b5b818110156105485761053d5f82610512565b60018101905061052b565b5050565b601f82111561058d5761055e8161042f565b61056784610441565b81016020851015610576578190505b61058a61058285610441565b83018261052a565b50505b505050565b5f82821c905092915050565b5f6105ad5f1984600802610592565b1980831691505092915050565b5f6105c5838361059e565b9150826002028217905092915050565b6105de826103c8565b67ffffffffffffffff8111156105f7576105f661015e565b5b61060182546103ff565b61060c82828561054c565b5f60209050601f83116001811461063d575f841561062b578287015190505b61063585826105ba565b86555061069c565b601f19841661064b8661042f565b5f5b828110156106725784890151825560018201915060208501945060208101905061064d565b8683101561068f578489015161068b601f89168261059e565b8355505b6001600288020188555050505b50505050505056fea2646970667358221220f883d299a56c85b04334484c9171089ac19be41ae03a0caef01c92435d2b41d664736f6c634300081a0033",
					"opcodes": "PUSH1 0x80 PUSH1 0x40 MSTORE CALLVALUE DUP1 ISZERO PUSH1 0xE JUMPI PUSH0 DUP1 REVERT JUMPDEST POP PUSH2 0x6DA DUP1 PUSH2 0x1C PUSH0 CODECOPY PUSH0 RETURN INVALID PUSH1 0x80 PUSH1 0x40 MSTORE CALLVALUE DUP1 ISZERO PUSH2 0xF JUMPI PUSH0 DUP1 REVERT JUMPDEST POP PUSH1 0x4 CALLDATASIZE LT PUSH2 0x29 JUMPI PUSH0 CALLDATALOAD PUSH1 0xE0 SHR DUP1 PUSH4 0x995663CB EQ PUSH2 0x2D JUMPI JUMPDEST PUSH0 DUP1 REVERT JUMPDEST PUSH2 0x47 PUSH1 0x4 DUP1 CALLDATASIZE SUB DUP2 ADD SWAP1 PUSH2 0x42 SWAP2 SWAP1 PUSH2 0x352 JUMP JUMPDEST PUSH2 0x49 JUMP JUMPDEST STOP JUMPDEST DUP2 PUSH0 SWAP1 DUP2 PUSH2 0x57 SWAP2 SWAP1 PUSH2 0x5D5 JUMP JUMPDEST POP DUP1 PUSH1 0x1 SWAP1 PUSH1 0x2 PUSH2 0x69 SWAP3 SWAP2 SWAP1 PUSH2 0x6E JUMP JUMPDEST POP POP POP JUMP JUMPDEST DUP3 PUSH1 0x2 DUP2 ADD SWAP3 DUP3 ISZERO PUSH2 0xA9 JUMPI SWAP2 PUSH1 0x20 MUL DUP3 ADD JUMPDEST DUP3 DUP2 GT ISZERO PUSH2 0xA8 JUMPI DUP3 MLOAD DUP3 SWAP1 DUP2 PUSH2 0x98 SWAP2 SWAP1 PUSH2 0x5D5 JUMP JUMPDEST POP SWAP2 PUSH1 0x20 ADD SWAP2 SWAP1 PUSH1 0x1 ADD SWAP1 PUSH2 0x81 JUMP JUMPDEST JUMPDEST POP SWAP1 POP PUSH2 0xB6 SWAP2 SWAP1 PUSH2 0xBA JUMP JUMPDEST POP SWAP1 JUMP JUMPDEST JUMPDEST DUP1 DUP3 GT ISZERO PUSH2 0xD9 JUMPI PUSH0 DUP2 DUP2 PUSH2 0xD0 SWAP2 SWAP1 PUSH2 0xDD JUMP JUMPDEST POP PUSH1 0x1 ADD PUSH2 0xBB JUMP JUMPDEST POP SWAP1 JUMP JUMPDEST POP DUP1 SLOAD PUSH2 0xE9 SWAP1 PUSH2 0x3FF JUMP JUMPDEST PUSH0 DUP3 SSTORE DUP1 PUSH1 0x1F LT PUSH2 0xFA JUMPI POP PUSH2 0x117 JUMP JUMPDEST PUSH1 0x1F ADD PUSH1 0x20 SWAP1 DIV SWAP1 PUSH0 MSTORE PUSH1 0x20 PUSH0 KECCAK256 SWAP1 DUP2 ADD SWAP1 PUSH2 0x116 SWAP2 SWAP1 PUSH2 0x11A JUMP JUMPDEST JUMPDEST POP JUMP JUMPDEST JUMPDEST DUP1 DUP3 GT ISZERO PUSH2 0x131 JUMPI PUSH0 DUP2 PUSH0 SWAP1 SSTORE POP PUSH1 0x1 ADD PUSH2 0x11B JUMP JUMPDEST POP SWAP1 JUMP JUMPDEST PUSH0 PUSH1 0x40 MLOAD SWAP1 POP SWAP1 JUMP JUMPDEST PUSH0 DUP1 REVERT JUMPDEST PUSH0 DUP1 REVERT JUMPDEST PUSH0 DUP1 REVERT JUMPDEST PUSH0 DUP1 REVERT JUMPDEST PUSH0 PUSH1 0x1F NOT PUSH1 0x1F DUP4 ADD AND SWAP1 POP SWAP2 SWAP1 POP JUMP JUMPDEST PUSH32 0x4E487B7100000000000000000000000000000000000000000000000000000000 PUSH0 MSTORE PUSH1 0x41 PUSH1 0x4 MSTORE PUSH1 0x24 PUSH0 REVERT JUMPDEST PUSH2 0x194 DUP3 PUSH2 0x14E JUMP JUMPDEST DUP2 ADD DUP2 DUP2 LT PUSH8 0xFFFFFFFFFFFFFFFF DUP3 GT OR ISZERO PUSH2 0x1B3 JUMPI PUSH2 0x1B2 PUSH2 0x15E JUMP JUMPDEST JUMPDEST DUP1 PUSH1 0x40 MSTORE POP POP POP JUMP JUMPDEST PUSH0 PUSH2 0x1C5 PUSH2 0x135 JUMP JUMPDEST SWAP1 POP PUSH2 0x1D1 DUP3 DUP3 PUSH2 0x18B JUMP JUMPDEST SWAP2 SWAP1 POP JUMP JUMPDEST PUSH0 PUSH8 0xFFFFFFFFFFFFFFFF DUP3 GT ISZERO PUSH2 0x1F0 JUMPI PUSH2 0x1EF PUSH2 0x15E JUMP JUMPDEST JUMPDEST PUSH2 0x1F9 DUP3 PUSH2 0x14E JUMP JUMPDEST SWAP1 POP PUSH1 0x20 DUP2 ADD SWAP1 POP SWAP2 SWAP1 POP JUMP JUMPDEST DUP3 DUP2 DUP4 CALLDATACOPY PUSH0 DUP4 DUP4 ADD MSTORE POP POP POP JUMP JUMPDEST PUSH0 PUSH2 0x226 PUSH2 0x221 DUP5 PUSH2 0x1D6 JUMP JUMPDEST PUSH2 0x1BC JUMP JUMPDEST SWAP1 POP DUP3 DUP2 MSTORE PUSH1 0x20 DUP2 ADD DUP5 DUP5 DUP5 ADD GT ISZERO PUSH2 0x242 JUMPI PUSH2 0x241 PUSH2 0x14A JUMP JUMPDEST JUMPDEST PUSH2 0x24D DUP5 DUP3 DUP6 PUSH2 0x206 JUMP JUMPDEST POP SWAP4 SWAP3 POP POP POP JUMP JUMPDEST PUSH0 DUP3 PUSH1 0x1F DUP4 ADD SLT PUSH2 0x269 JUMPI PUSH2 0x268 PUSH2 0x146 JUMP JUMPDEST JUMPDEST DUP2 CALLDATALOAD PUSH2 0x279 DUP5 DUP3 PUSH1 0x20 DUP7 ADD PUSH2 0x214 JUMP JUMPDEST SWAP2 POP POP SWAP3 SWAP2 POP POP JUMP JUMPDEST PUSH0 PUSH8 0xFFFFFFFFFFFFFFFF DUP3 GT ISZERO PUSH2 0x29C JUMPI PUSH2 0x29B PUSH2 0x15E JUMP JUMPDEST JUMPDEST PUSH1 0x20 DUP3 MUL SWAP1 POP SWAP2 SWAP1 POP JUMP JUMPDEST PUSH0 DUP1 REVERT JUMPDEST PUSH0 PUSH2 0x2BD PUSH2 0x2B8 DUP5 PUSH2 0x282 JUMP JUMPDEST PUSH2 0x1BC JUMP JUMPDEST SWAP1 POP DUP1 PUSH1 0x20 DUP5 MUL DUP4 ADD DUP6 DUP2 GT ISZERO PUSH2 0x2D7 JUMPI PUSH2 0x2D6 PUSH2 0x2A7 JUMP JUMPDEST JUMPDEST DUP4 JUMPDEST DUP2 DUP2 LT ISZERO PUSH2 0x31E JUMPI DUP1 CALLDATALOAD PUSH8 0xFFFFFFFFFFFFFFFF DUP2 GT ISZERO PUSH2 0x2FC JUMPI PUSH2 0x2FB PUSH2 0x146 JUMP JUMPDEST JUMPDEST DUP1 DUP7 ADD PUSH2 0x309 DUP10 DUP3 PUSH2 0x255 JUMP JUMPDEST DUP6 MSTORE PUSH1 0x20 DUP6 ADD SWAP5 POP POP POP PUSH1 0x20 DUP2 ADD SWAP1 POP PUSH2 0x2D9 JUMP JUMPDEST POP POP POP SWAP4 SWAP3 POP POP POP JUMP JUMPDEST PUSH0 DUP3 PUSH1 0x1F DUP4 ADD SLT PUSH2 0x33C JUMPI PUSH2 0x33B PUSH2 0x146 JUMP JUMPDEST JUMPDEST PUSH1 0x2 PUSH2 0x349 DUP5 DUP3 DUP6 PUSH2 0x2AB JUMP JUMPDEST SWAP2 POP POP SWAP3 SWAP2 POP POP JUMP JUMPDEST PUSH0 DUP1 PUSH1 0x40 DUP4 DUP6 SUB SLT ISZERO PUSH2 0x368 JUMPI PUSH2 0x367 PUSH2 0x13E JUMP JUMPDEST JUMPDEST PUSH0 DUP4 ADD CALLDATALOAD PUSH8 0xFFFFFFFFFFFFFFFF DUP2 GT ISZERO PUSH2 0x385 JUMPI PUSH2 0x384 PUSH2 0x142 JUMP JUMPDEST JUMPDEST PUSH2 0x391 DUP6 DUP3 DUP7 ADD PUSH2 0x255 JUMP JUMPDEST SWAP3 POP POP PUSH1 0x20 DUP4 ADD CALLDATALOAD PUSH8 0xFFFFFFFFFFFFFFFF DUP2 GT ISZERO PUSH2 0x3B2 JUMPI PUSH2 0x3B1 PUSH2 0x142 JUMP JUMPDEST JUMPDEST PUSH2 0x3BE DUP6 DUP3 DUP7 ADD PUSH2 0x328 JUMP JUMPDEST SWAP2 POP POP SWAP3 POP SWAP3 SWAP1 POP JUMP JUMPDEST PUSH0 DUP2 MLOAD SWAP1 POP SWAP2 SWAP1 POP JUMP JUMPDEST PUSH32 0x4E487B7100000000000000000000000000000000000000000000000000000000 PUSH0 MSTORE PUSH1 0x22 PUSH1 0x4 MSTORE PUSH1 0x24 PUSH0 REVERT JUMPDEST PUSH0 PUSH1 0x2 DUP3 DIV SWAP1 POP PUSH1 0x1 DUP3 AND DUP1 PUSH2 0x416 JUMPI PUSH1 0x7F DUP3 AND SWAP2 POP JUMPDEST PUSH1 0x20 DUP3 LT DUP2 SUB PUSH2 0x429 JUMPI PUSH2 0x428 PUSH2 0x3D2 JUMP JUMPDEST JUMPDEST POP SWAP2 SWAP1 POP JUMP JUMPDEST PUSH0 DUP2 SWAP1 POP DUP2 PUSH0 MSTORE PUSH1 0x20 PUSH0 KECCAK256 SWAP1 POP SWAP2 SWAP1 POP JUMP JUMPDEST PUSH0 PUSH1 0x20 PUSH1 0x1F DUP4 ADD DIV SWAP1 POP SWAP2 SWAP1 POP JUMP JUMPDEST PUSH0 DUP3 DUP3 SHL SWAP1 POP SWAP3 SWAP2 POP POP JUMP JUMPDEST PUSH0 PUSH1 0x8 DUP4 MUL PUSH2 0x48B PUSH32 0xFFFFFFFFFFFFFFFFFFFFFFFFFFFFFFFFFFFFFFFFFFFFFFFFFFFFFFFFFFFFFFFF DUP3 PUSH2 0x450 JUMP JUMPDEST PUSH2 0x495 DUP7 DUP4 PUSH2 0x450 JUMP JUMPDEST SWAP6 POP DUP1 NOT DUP5 AND SWAP4 POP DUP1 DUP7 AND DUP5 OR SWAP3 POP POP POP SWAP4 SWAP3 POP POP POP JUMP JUMPDEST PUSH0 DUP2 SWAP1 POP SWAP2 SWAP1 POP JUMP JUMPDEST PUSH0 DUP2 SWAP1 POP SWAP2 SWAP1 POP JUMP JUMPDEST PUSH0 PUSH2 0x4D9 PUSH2 0x4D4 PUSH2 0x4CF DUP5 PUSH2 0x4AD JUMP JUMPDEST PUSH2 0x4B6 JUMP JUMPDEST PUSH2 0x4AD JUMP JUMPDEST SWAP1 POP SWAP2 SWAP1 POP JUMP JUMPDEST PUSH0 DUP2 SWAP1 POP SWAP2 SWAP1 POP JUMP JUMPDEST PUSH2 0x4F2 DUP4 PUSH2 0x4BF JUMP JUMPDEST PUSH2 0x506 PUSH2 0x4FE DUP3 PUSH2 0x4E0 JUMP JUMPDEST DUP5 DUP5 SLOAD PUSH2 0x45C JUMP JUMPDEST DUP3 SSTORE POP POP POP POP JUMP JUMPDEST PUSH0 SWAP1 JUMP JUMPDEST PUSH2 0x51A PUSH2 0x50E JUMP JUMPDEST PUSH2 0x525 DUP2 DUP5 DUP5 PUSH2 0x4E9 JUMP JUMPDEST POP POP POP JUMP JUMPDEST JUMPDEST DUP2 DUP2 LT ISZERO PUSH2 0x548 JUMPI PUSH2 0x53D PUSH0 DUP3 PUSH2 0x512 JUMP JUMPDEST PUSH1 0x1 DUP2 ADD SWAP1 POP PUSH2 0x52B JUMP JUMPDEST POP POP JUMP JUMPDEST PUSH1 0x1F DUP3 GT ISZERO PUSH2 0x58D JUMPI PUSH2 0x55E DUP2 PUSH2 0x42F JUMP JUMPDEST PUSH2 0x567 DUP5 PUSH2 0x441 JUMP JUMPDEST DUP2 ADD PUSH1 0x20 DUP6 LT ISZERO PUSH2 0x576 JUMPI DUP2 SWAP1 POP JUMPDEST PUSH2 0x58A PUSH2 0x582 DUP6 PUSH2 0x441 JUMP JUMPDEST DUP4 ADD DUP3 PUSH2 0x52A JUMP JUMPDEST POP POP JUMPDEST POP POP POP JUMP JUMPDEST PUSH0 DUP3 DUP3 SHR SWAP1 POP SWAP3 SWAP2 POP POP JUMP JUMPDEST PUSH0 PUSH2 0x5AD PUSH0 NOT DUP5 PUSH1 0x8 MUL PUSH2 0x592 JUMP JUMPDEST NOT DUP1 DUP4 AND SWAP2 POP POP SWAP3 SWAP2 POP POP JUMP JUMPDEST PUSH0 PUSH2 0x5C5 DUP4 DUP4 PUSH2 0x59E JUMP JUMPDEST SWAP2 POP DUP3 PUSH1 0x2 MUL DUP3 OR SWAP1 POP SWAP3 SWAP2 POP POP JUMP JUMPDEST PUSH2 0x5DE DUP3 PUSH2 0x3C8 JUMP JUMPDEST PUSH8 0xFFFFFFFFFFFFFFFF DUP2 GT ISZERO PUSH2 0x5F7 JUMPI PUSH2 0x5F6 PUSH2 0x15E JUMP JUMPDEST JUMPDEST PUSH2 0x601 DUP3 SLOAD PUSH2 0x3FF JUMP JUMPDEST PUSH2 0x60C DUP3 DUP3 DUP6 PUSH2 0x54C JUMP JUMPDEST PUSH0 PUSH1 0x20 SWAP1 POP PUSH1 0x1F DUP4 GT PUSH1 0x1 DUP2 EQ PUSH2 0x63D JUMPI PUSH0 DUP5 ISZERO PUSH2 0x62B JUMPI DUP3 DUP8 ADD MLOAD SWAP1 POP JUMPDEST PUSH2 0x635 DUP6 DUP3 PUSH2 0x5BA JUMP JUMPDEST DUP7 SSTORE POP PUSH2 0x69C JUMP JUMPDEST PUSH1 0x1F NOT DUP5 AND PUSH2 0x64B DUP7 PUSH2 0x42F JUMP JUMPDEST PUSH0 JUMPDEST DUP3 DUP2 LT ISZERO PUSH2 0x672 JUMPI DUP5 DUP10 ADD MLOAD DUP3 SSTORE PUSH1 0x1 DUP3 ADD SWAP2 POP PUSH1 0x20 DUP6 ADD SWAP5 POP PUSH1 0x20 DUP2 ADD SWAP1 POP PUSH2 0x64D JUMP JUMPDEST DUP7 DUP4 LT ISZERO PUSH2 0x68F JUMPI DUP5 DUP10 ADD MLOAD PUSH2 0x68B PUSH1 0x1F DUP10 AND DUP3 PUSH2 0x59E JUMP JUMPDEST DUP4 SSTORE POP JUMPDEST PUSH1 0x1 PUSH1 0x2 DUP9 MUL ADD DUP9 SSTORE POP POP POP JUMPDEST POP POP POP POP POP POP JUMP INVALID LOG2 PUSH5 0x6970667358 0x22 SLT KECCAK256 0xF8 DUP4 0xD2 SWAP10 0xA5 PUSH13 0x85B04334484C9171089AC19BE4 BYTE 0xE0 GASPRICE 0xC 0xAE CREATE SHR SWAP3 NUMBER TSTORE 0x2B COINBASE 0xD6 PUSH5 0x736F6C6343 STOP ADDMOD BYTE STOP CALLER "
				},
				"gasEstimates": {
					"creation": {
						"codeDepositCost": "350800",
						"executionCost": "384",
						"totalCost": "351184"
					},
					"external": {
						"setN(string,string[2])": "infinite"
					}
				},
				"methodIdentifiers": {
					"setN(string,string[2])": "995663cb"
				}
			},
			"storageLayout": {
				"storage": [
					{
						"astId": 3,
						"contract": "contracts/Practical 10/SingleInheritance.sol:singer",
						"label": "n",
						"offset": 0,
						"slot": "0",
						"type": "t_string_storage"
					},
					{
						"astId": 7,
						"contract": "contracts/Practical 10/SingleInheritance.sol:singer",
						"label": "so",
						"offset": 0,
						"slot": "1",
						"type": "t_array(t_string_storage)2_storage"
					}
				],
				"types": {
					"t_array(t_string_storage)2_storage": {
						"base": "t_string_storage",
						"encoding": "inplace",
						"label": "string[2]",
						"numberOfBytes": "64"
					},
					"t_string_storage": {
						"encoding": "bytes",
						"label": "string",
						"numberOfBytes": "32"
					}
				}
			},
			"userdoc": {
				"kind": "user",
				"methods": {},
				"version": 1
			}
		}
	}
}