{
	"contracts/Practical 10/HierarchicalInheritance.sol": {
		"animal": {
			"abi": [
				{
					"inputs": [
						{
							"internalType": "uint256",
							"name": "a",
							"type": "uint256"
						},
						{
							"internalType": "string",
							"name": "b",
							"type": "string"
						}
					],
					"name": "setA",
					"outputs": [],
					"stateMutability": "nonpayable",
					"type": "function"
				}
			],
			"devdoc": {
				"kind": "dev",
				"methods": {},
				"version": 1
			},
			"evm": {
				"assembly": "    /* \"contracts/Practical 10/HierarchicalInheritance.sol\":111:265  contract animal {... */\n  mstore(0x40, 0x80)\n  callvalue\n  dup1\n  iszero\n  tag_1\n  jumpi\n  0x00\n  dup1\n  revert\ntag_1:\n  pop\n  dataSize(sub_0)\n  dup1\n  dataOffset(sub_0)\n  0x00\n  codecopy\n  0x00\n  return\nstop\n\nsub_0: assembly {\n        /* \"contracts/Practical 10/HierarchicalInheritance.sol\":111:265  contract animal {... */\n      mstore(0x40, 0x80)\n      callvalue\n      dup1\n      iszero\n      tag_1\n      jumpi\n      0x00\n      dup1\n      revert\n    tag_1:\n      pop\n      jumpi(tag_2, lt(calldatasize, 0x04))\n      shr(0xe0, calldataload(0x00))\n      dup1\n      0xf714fc1f\n      eq\n      tag_3\n      jumpi\n    tag_2:\n      0x00\n      dup1\n      revert\n        /* \"contracts/Practical 10/HierarchicalInheritance.sol\":170:263  function setA(uint256 a, string memory b) public {... */\n    tag_3:\n      tag_4\n      0x04\n      dup1\n      calldatasize\n      sub\n      dup2\n      add\n      swap1\n      tag_5\n      swap2\n      swap1\n      tag_6\n      jump\t// in\n    tag_5:\n      tag_7\n      jump\t// in\n    tag_4:\n      stop\n    tag_7:\n        /* \"contracts/Practical 10/HierarchicalInheritance.sol\":236:237  a */\n      dup2\n        /* \"contracts/Practical 10/HierarchicalInheritance.sol\":229:233  legs */\n      0x00\n        /* \"contracts/Practical 10/HierarchicalInheritance.sol\":229:237  legs = a */\n      dup2\n      swap1\n      sstore\n      pop\n        /* \"contracts/Practical 10/HierarchicalInheritance.sol\":255:256  b */\n      dup1\n        /* \"contracts/Practical 10/HierarchicalInheritance.sol\":247:252  color */\n      0x01\n        /* \"contracts/Practical 10/HierarchicalInheritance.sol\":247:256  color = b */\n      swap1\n      dup2\n      tag_9\n      swap2\n      swap1\n      tag_10\n      jump\t// in\n    tag_9:\n      pop\n        /* \"contracts/Practical 10/HierarchicalInheritance.sol\":170:263  function setA(uint256 a, string memory b) public {... */\n      pop\n      pop\n      jump\t// out\n        /* \"#utility.yul\":7:82   */\n    tag_11:\n        /* \"#utility.yul\":40:46   */\n      0x00\n        /* \"#utility.yul\":73:75   */\n      0x40\n        /* \"#utility.yul\":67:76   */\n      mload\n        /* \"#utility.yul\":57:76   */\n      swap1\n      pop\n        /* \"#utility.yul\":7:82   */\n      swap1\n      jump\t// out\n        /* \"#utility.yul\":88:205   */\n    tag_12:\n        /* \"#utility.yul\":197:198   */\n      0x00\n        /* \"#utility.yul\":194:195   */\n      dup1\n        /* \"#utility.yul\":187:199   */\n      revert\n        /* \"#utility.yul\":211:328   */\n    tag_13:\n        /* \"#utility.yul\":320:321   */\n      0x00\n        /* \"#utility.yul\":317:318   */\n      dup1\n        /* \"#utility.yul\":310:322   */\n      revert\n        /* \"#utility.yul\":334:411   */\n    tag_14:\n        /* \"#utility.yul\":371:378   */\n      0x00\n        /* \"#utility.yul\":400:405   */\n      dup2\n        /* \"#utility.yul\":389:405   */\n      swap1\n      pop\n        /* \"#utility.yul\":334:411   */\n      swap2\n      swap1\n      pop\n      jump\t// out\n        /* \"#utility.yul\":417:539   */\n    tag_15:\n        /* \"#utility.yul\":490:514   */\n      tag_51\n        /* \"#utility.yul\":508:513   */\n      dup2\n        /* \"#utility.yul\":490:514   */\n      tag_14\n      jump\t// in\n    tag_51:\n        /* \"#utility.yul\":483:488   */\n      dup2\n        /* \"#utility.yul\":480:515   */\n      eq\n        /* \"#utility.yul\":470:533   */\n      tag_52\n      jumpi\n        /* \"#utility.yul\":529:530   */\n      0x00\n        /* \"#utility.yul\":526:527   */\n      dup1\n        /* \"#utility.yul\":519:531   */\n      revert\n        /* \"#utility.yul\":470:533   */\n    tag_52:\n        /* \"#utility.yul\":417:539   */\n      pop\n      jump\t// out\n        /* \"#utility.yul\":545:684   */\n    tag_16:\n        /* \"#utility.yul\":591:596   */\n      0x00\n        /* \"#utility.yul\":629:635   */\n      dup2\n        /* \"#utility.yul\":616:636   */\n      calldataload\n        /* \"#utility.yul\":607:636   */\n      swap1\n      pop\n        /* \"#utility.yul\":645:678   */\n      tag_54\n        /* \"#utility.yul\":672:677   */\n      dup2\n        /* \"#utility.yul\":645:678   */\n      tag_15\n      jump\t// in\n    tag_54:\n        /* \"#utility.yul\":545:684   */\n      swap3\n      swap2\n      pop\n      pop\n      jump\t// out\n        /* \"#utility.yul\":690:807   */\n    tag_17:\n        /* \"#utility.yul\":799:800   */\n      0x00\n        /* \"#utility.yul\":796:797   */\n      dup1\n        /* \"#utility.yul\":789:801   */\n      revert\n        /* \"#utility.yul\":813:930   */\n    tag_18:\n        /* \"#utility.yul\":922:923   */\n      0x00\n        /* \"#utility.yul\":919:920   */\n      dup1\n        /* \"#utility.yul\":912:924   */\n      revert\n        /* \"#utility.yul\":936:1038   */\n    tag_19:\n        /* \"#utility.yul\":977:983   */\n      0x00\n        /* \"#utility.yul\":1028:1030   */\n      0x1f\n        /* \"#utility.yul\":1024:1031   */\n      not\n        /* \"#utility.yul\":1019:1021   */\n      0x1f\n        /* \"#utility.yul\":1012:1017   */\n      dup4\n        /* \"#utility.yul\":1008:1022   */\n      add\n        /* \"#utility.yul\":1004:1032   */\n      and\n        /* \"#utility.yul\":994:1032   */\n      swap1\n      pop\n        /* \"#utility.yul\":936:1038   */\n      swap2\n      swap1\n      pop\n      jump\t// out\n        /* \"#utility.yul\":1044:1224   */\n    tag_20:\n        /* \"#utility.yul\":1092:1169   */\n      0x4e487b7100000000000000000000000000000000000000000000000000000000\n        /* \"#utility.yul\":1089:1090   */\n      0x00\n        /* \"#utility.yul\":1082:1170   */\n      mstore\n        /* \"#utility.yul\":1189:1193   */\n      0x41\n        /* \"#utility.yul\":1186:1187   */\n      0x04\n        /* \"#utility.yul\":1179:1194   */\n      mstore\n        /* \"#utility.yul\":1213:1217   */\n      0x24\n        /* \"#utility.yul\":1210:1211   */\n      0x00\n        /* \"#utility.yul\":1203:1218   */\n      revert\n        /* \"#utility.yul\":1230:1511   */\n    tag_21:\n        /* \"#utility.yul\":1313:1340   */\n      tag_60\n        /* \"#utility.yul\":1335:1339   */\n      dup3\n        /* \"#utility.yul\":1313:1340   */\n      tag_19\n      jump\t// in\n    tag_60:\n        /* \"#utility.yul\":1305:1311   */\n      dup2\n        /* \"#utility.yul\":1301:1341   */\n      add\n        /* \"#utility.yul\":1443:1449   */\n      dup2\n        /* \"#utility.yul\":1431:1441   */\n      dup2\n        /* \"#utility.yul\":1428:1450   */\n      lt\n        /* \"#utility.yul\":1407:1425   */\n      0xffffffffffffffff\n        /* \"#utility.yul\":1395:1405   */\n      dup3\n        /* \"#utility.yul\":1392:1426   */\n      gt\n        /* \"#utility.yul\":1389:1451   */\n      or\n        /* \"#utility.yul\":1386:1474   */\n      iszero\n      tag_61\n      jumpi\n        /* \"#utility.yul\":1454:1472   */\n      tag_62\n      tag_20\n      jump\t// in\n    tag_62:\n        /* \"#utility.yul\":1386:1474   */\n    tag_61:\n        /* \"#utility.yul\":1494:1504   */\n      dup1\n        /* \"#utility.yul\":1490:1492   */\n      0x40\n        /* \"#utility.yul\":1483:1505   */\n      mstore\n        /* \"#utility.yul\":1273:1511   */\n      pop\n        /* \"#utility.yul\":1230:1511   */\n      pop\n      pop\n      jump\t// out\n        /* \"#utility.yul\":1517:1646   */\n    tag_22:\n        /* \"#utility.yul\":1551:1557   */\n      0x00\n        /* \"#utility.yul\":1578:1598   */\n      tag_64\n      tag_11\n      jump\t// in\n    tag_64:\n        /* \"#utility.yul\":1568:1598   */\n      swap1\n      pop\n        /* \"#utility.yul\":1607:1640   */\n      tag_65\n        /* \"#utility.yul\":1635:1639   */\n      dup3\n        /* \"#utility.yul\":1627:1633   */\n      dup3\n        /* \"#utility.yul\":1607:1640   */\n      tag_21\n      jump\t// in\n    tag_65:\n        /* \"#utility.yul\":1517:1646   */\n      swap2\n      swap1\n      pop\n      jump\t// out\n        /* \"#utility.yul\":1652:1960   */\n    tag_23:\n        /* \"#utility.yul\":1714:1718   */\n      0x00\n        /* \"#utility.yul\":1804:1822   */\n      0xffffffffffffffff\n        /* \"#utility.yul\":1796:1802   */\n      dup3\n        /* \"#utility.yul\":1793:1823   */\n      gt\n        /* \"#utility.yul\":1790:1846   */\n      iszero\n      tag_67\n      jumpi\n        /* \"#utility.yul\":1826:1844   */\n      tag_68\n      tag_20\n      jump\t// in\n    tag_68:\n        /* \"#utility.yul\":1790:1846   */\n    tag_67:\n        /* \"#utility.yul\":1864:1893   */\n      tag_69\n        /* \"#utility.yul\":1886:1892   */\n      dup3\n        /* \"#utility.yul\":1864:1893   */\n      tag_19\n      jump\t// in\n    tag_69:\n        /* \"#utility.yul\":1856:1893   */\n      swap1\n      pop\n        /* \"#utility.yul\":1948:1952   */\n      0x20\n        /* \"#utility.yul\":1942:1946   */\n      dup2\n        /* \"#utility.yul\":1938:1953   */\n      add\n        /* \"#utility.yul\":1930:1953   */\n      swap1\n      pop\n        /* \"#utility.yul\":1652:1960   */\n      swap2\n      swap1\n      pop\n      jump\t// out\n        /* \"#utility.yul\":1966:2114   */\n    tag_24:\n        /* \"#utility.yul\":2064:2070   */\n      dup3\n        /* \"#utility.yul\":2059:2062   */\n      dup2\n        /* \"#utility.yul\":2054:2057   */\n      dup4\n        /* \"#utility.yul\":2041:2071   */\n      calldatacopy\n        /* \"#utility.yul\":2105:2106   */\n      0x00\n        /* \"#utility.yul\":2096:2102   */\n      dup4\n        /* \"#utility.yul\":2091:2094   */\n      dup4\n        /* \"#utility.yul\":2087:2103   */\n      add\n        /* \"#utility.yul\":2080:2107   */\n      mstore\n        /* \"#utility.yul\":1966:2114   */\n      pop\n      pop\n      pop\n      jump\t// out\n        /* \"#utility.yul\":2120:2545   */\n    tag_25:\n        /* \"#utility.yul\":2198:2203   */\n      0x00\n        /* \"#utility.yul\":2223:2289   */\n      tag_72\n        /* \"#utility.yul\":2239:2288   */\n      tag_73\n        /* \"#utility.yul\":2281:2287   */\n      dup5\n        /* \"#utility.yul\":2239:2288   */\n      tag_23\n      jump\t// in\n    tag_73:\n        /* \"#utility.yul\":2223:2289   */\n      tag_22\n      jump\t// in\n    tag_72:\n        /* \"#utility.yul\":2214:2289   */\n      swap1\n      pop\n        /* \"#utility.yul\":2312:2318   */\n      dup3\n        /* \"#utility.yul\":2305:2310   */\n      dup2\n        /* \"#utility.yul\":2298:2319   */\n      mstore\n        /* \"#utility.yul\":2350:2354   */\n      0x20\n        /* \"#utility.yul\":2343:2348   */\n      dup2\n        /* \"#utility.yul\":2339:2355   */\n      add\n        /* \"#utility.yul\":2388:2391   */\n      dup5\n        /* \"#utility.yul\":2379:2385   */\n      dup5\n        /* \"#utility.yul\":2374:2377   */\n      dup5\n        /* \"#utility.yul\":2370:2386   */\n      add\n        /* \"#utility.yul\":2367:2392   */\n      gt\n        /* \"#utility.yul\":2364:2476   */\n      iszero\n      tag_74\n      jumpi\n        /* \"#utility.yul\":2395:2474   */\n      tag_75\n      tag_18\n      jump\t// in\n    tag_75:\n        /* \"#utility.yul\":2364:2476   */\n    tag_74:\n        /* \"#utility.yul\":2485:2539   */\n      tag_76\n        /* \"#utility.yul\":2532:2538   */\n      dup5\n        /* \"#utility.yul\":2527:2530   */\n      dup3\n        /* \"#utility.yul\":2522:2525   */\n      dup6\n        /* \"#utility.yul\":2485:2539   */\n      tag_24\n      jump\t// in\n    tag_76:\n        /* \"#utility.yul\":2204:2545   */\n      pop\n        /* \"#utility.yul\":2120:2545   */\n      swap4\n      swap3\n      pop\n      pop\n      pop\n      jump\t// out\n        /* \"#utility.yul\":2565:2905   */\n    tag_26:\n        /* \"#utility.yul\":2621:2626   */\n      0x00\n        /* \"#utility.yul\":2670:2673   */\n      dup3\n        /* \"#utility.yul\":2663:2667   */\n      0x1f\n        /* \"#utility.yul\":2655:2661   */\n      dup4\n        /* \"#utility.yul\":2651:2668   */\n      add\n        /* \"#utility.yul\":2647:2674   */\n      slt\n        /* \"#utility.yul\":2637:2759   */\n      tag_78\n      jumpi\n        /* \"#utility.yul\":2678:2757   */\n      tag_79\n      tag_17\n      jump\t// in\n    tag_79:\n        /* \"#utility.yul\":2637:2759   */\n    tag_78:\n        /* \"#utility.yul\":2795:2801   */\n      dup2\n        /* \"#utility.yul\":2782:2802   */\n      calldataload\n        /* \"#utility.yul\":2820:2899   */\n      tag_80\n        /* \"#utility.yul\":2895:2898   */\n      dup5\n        /* \"#utility.yul\":2887:2893   */\n      dup3\n        /* \"#utility.yul\":2880:2884   */\n      0x20\n        /* \"#utility.yul\":2872:2878   */\n      dup7\n        /* \"#utility.yul\":2868:2885   */\n      add\n        /* \"#utility.yul\":2820:2899   */\n      tag_25\n      jump\t// in\n    tag_80:\n        /* \"#utility.yul\":2811:2899   */\n      swap2\n      pop\n        /* \"#utility.yul\":2627:2905   */\n      pop\n        /* \"#utility.yul\":2565:2905   */\n      swap3\n      swap2\n      pop\n      pop\n      jump\t// out\n        /* \"#utility.yul\":2911:3565   */\n    tag_6:\n        /* \"#utility.yul\":2989:2995   */\n      0x00\n        /* \"#utility.yul\":2997:3003   */\n      dup1\n        /* \"#utility.yul\":3046:3048   */\n      0x40\n        /* \"#utility.yul\":3034:3043   */\n      dup4\n        /* \"#utility.yul\":3025:3032   */\n      dup6\n        /* \"#utility.yul\":3021:3044   */\n      sub\n        /* \"#utility.yul\":3017:3049   */\n      slt\n        /* \"#utility.yul\":3014:3133   */\n      iszero\n      tag_82\n      jumpi\n        /* \"#utility.yul\":3052:3131   */\n      tag_83\n      tag_12\n      jump\t// in\n    tag_83:\n        /* \"#utility.yul\":3014:3133   */\n    tag_82:\n        /* \"#utility.yul\":3172:3173   */\n      0x00\n        /* \"#utility.yul\":3197:3250   */\n      tag_84\n        /* \"#utility.yul\":3242:3249   */\n      dup6\n        /* \"#utility.yul\":3233:3239   */\n      dup3\n        /* \"#utility.yul\":3222:3231   */\n      dup7\n        /* \"#utility.yul\":3218:3240   */\n      add\n        /* \"#utility.yul\":3197:3250   */\n      tag_16\n      jump\t// in\n    tag_84:\n        /* \"#utility.yul\":3187:3250   */\n      swap3\n      pop\n        /* \"#utility.yul\":3143:3260   */\n      pop\n        /* \"#utility.yul\":3327:3329   */\n      0x20\n        /* \"#utility.yul\":3316:3325   */\n      dup4\n        /* \"#utility.yul\":3312:3330   */\n      add\n        /* \"#utility.yul\":3299:3331   */\n      calldataload\n        /* \"#utility.yul\":3358:3376   */\n      0xffffffffffffffff\n        /* \"#utility.yul\":3350:3356   */\n      dup2\n        /* \"#utility.yul\":3347:3377   */\n      gt\n        /* \"#utility.yul\":3344:3461   */\n      iszero\n      tag_85\n      jumpi\n        /* \"#utility.yul\":3380:3459   */\n      tag_86\n      tag_13\n      jump\t// in\n    tag_86:\n        /* \"#utility.yul\":3344:3461   */\n    tag_85:\n        /* \"#utility.yul\":3485:3548   */\n      tag_87\n        /* \"#utility.yul\":3540:3547   */\n      dup6\n        /* \"#utility.yul\":3531:3537   */\n      dup3\n        /* \"#utility.yul\":3520:3529   */\n      dup7\n        /* \"#utility.yul\":3516:3538   */\n      add\n        /* \"#utility.yul\":3485:3548   */\n      tag_26\n      jump\t// in\n    tag_87:\n        /* \"#utility.yul\":3475:3548   */\n      swap2\n      pop\n        /* \"#utility.yul\":3270:3558   */\n      pop\n        /* \"#utility.yul\":2911:3565   */\n      swap3\n      pop\n      swap3\n      swap1\n      pop\n      jump\t// out\n        /* \"#utility.yul\":3571:3670   */\n    tag_27:\n        /* \"#utility.yul\":3623:3629   */\n      0x00\n        /* \"#utility.yul\":3657:3662   */\n      dup2\n        /* \"#utility.yul\":3651:3663   */\n      mload\n        /* \"#utility.yul\":3641:3663   */\n      swap1\n      pop\n        /* \"#utility.yul\":3571:3670   */\n      swap2\n      swap1\n      pop\n      jump\t// out\n        /* \"#utility.yul\":3676:3856   */\n    tag_28:\n        /* \"#utility.yul\":3724:3801   */\n      0x4e487b7100000000000000000000000000000000000000000000000000000000\n        /* \"#utility.yul\":3721:3722   */\n      0x00\n        /* \"#utility.yul\":3714:3802   */\n      mstore\n        /* \"#utility.yul\":3821:3825   */\n      0x22\n        /* \"#utility.yul\":3818:3819   */\n      0x04\n        /* \"#utility.yul\":3811:3826   */\n      mstore\n        /* \"#utility.yul\":3845:3849   */\n      0x24\n        /* \"#utility.yul\":3842:3843   */\n      0x00\n        /* \"#utility.yul\":3835:3850   */\n      revert\n        /* \"#utility.yul\":3862:4182   */\n    tag_29:\n        /* \"#utility.yul\":3906:3912   */\n      0x00\n        /* \"#utility.yul\":3943:3944   */\n      0x02\n        /* \"#utility.yul\":3937:3941   */\n      dup3\n        /* \"#utility.yul\":3933:3945   */\n      div\n        /* \"#utility.yul\":3923:3945   */\n      swap1\n      pop\n        /* \"#utility.yul\":3990:3991   */\n      0x01\n        /* \"#utility.yul\":3984:3988   */\n      dup3\n        /* \"#utility.yul\":3980:3992   */\n      and\n        /* \"#utility.yul\":4011:4029   */\n      dup1\n        /* \"#utility.yul\":4001:4082   */\n      tag_91\n      jumpi\n        /* \"#utility.yul\":4067:4071   */\n      0x7f\n        /* \"#utility.yul\":4059:4065   */\n      dup3\n        /* \"#utility.yul\":4055:4072   */\n      and\n        /* \"#utility.yul\":4045:4072   */\n      swap2\n      pop\n        /* \"#utility.yul\":4001:4082   */\n    tag_91:\n        /* \"#utility.yul\":4129:4131   */\n      0x20\n        /* \"#utility.yul\":4121:4127   */\n      dup3\n        /* \"#utility.yul\":4118:4132   */\n      lt\n        /* \"#utility.yul\":4098:4116   */\n      dup2\n        /* \"#utility.yul\":4095:4133   */\n      sub\n        /* \"#utility.yul\":4092:4176   */\n      tag_92\n      jumpi\n        /* \"#utility.yul\":4148:4166   */\n      tag_93\n      tag_28\n      jump\t// in\n    tag_93:\n        /* \"#utility.yul\":4092:4176   */\n    tag_92:\n        /* \"#utility.yul\":3913:4182   */\n      pop\n        /* \"#utility.yul\":3862:4182   */\n      swap2\n      swap1\n      pop\n      jump\t// out\n        /* \"#utility.yul\":4188:4329   */\n    tag_30:\n        /* \"#utility.yul\":4237:4241   */\n      0x00\n        /* \"#utility.yul\":4260:4263   */\n      dup2\n        /* \"#utility.yul\":4252:4263   */\n      swap1\n      pop\n        /* \"#utility.yul\":4283:4286   */\n      dup2\n        /* \"#utility.yul\":4280:4281   */\n      0x00\n        /* \"#utility.yul\":4273:4287   */\n      mstore\n        /* \"#utility.yul\":4317:4321   */\n      0x20\n        /* \"#utility.yul\":4314:4315   */\n      0x00\n        /* \"#utility.yul\":4304:4322   */\n      keccak256\n        /* \"#utility.yul\":4296:4322   */\n      swap1\n      pop\n        /* \"#utility.yul\":4188:4329   */\n      swap2\n      swap1\n      pop\n      jump\t// out\n        /* \"#utility.yul\":4335:4428   */\n    tag_31:\n        /* \"#utility.yul\":4372:4378   */\n      0x00\n        /* \"#utility.yul\":4419:4421   */\n      0x20\n        /* \"#utility.yul\":4414:4416   */\n      0x1f\n        /* \"#utility.yul\":4407:4412   */\n      dup4\n        /* \"#utility.yul\":4403:4417   */\n      add\n        /* \"#utility.yul\":4399:4422   */\n      div\n        /* \"#utility.yul\":4389:4422   */\n      swap1\n      pop\n        /* \"#utility.yul\":4335:4428   */\n      swap2\n      swap1\n      pop\n      jump\t// out\n        /* \"#utility.yul\":4434:4541   */\n    tag_32:\n        /* \"#utility.yul\":4478:4486   */\n      0x00\n        /* \"#utility.yul\":4528:4533   */\n      dup3\n        /* \"#utility.yul\":4522:4526   */\n      dup3\n        /* \"#utility.yul\":4518:4534   */\n      shl\n        /* \"#utility.yul\":4497:4534   */\n      swap1\n      pop\n        /* \"#utility.yul\":4434:4541   */\n      swap3\n      swap2\n      pop\n      pop\n      jump\t// out\n        /* \"#utility.yul\":4547:4940   */\n    tag_33:\n        /* \"#utility.yul\":4616:4622   */\n      0x00\n        /* \"#utility.yul\":4666:4667   */\n      0x08\n        /* \"#utility.yul\":4654:4664   */\n      dup4\n        /* \"#utility.yul\":4650:4668   */\n      mul\n        /* \"#utility.yul\":4689:4786   */\n      tag_98\n        /* \"#utility.yul\":4719:4785   */\n      0xffffffffffffffffffffffffffffffffffffffffffffffffffffffffffffffff\n        /* \"#utility.yul\":4708:4717   */\n      dup3\n        /* \"#utility.yul\":4689:4786   */\n      tag_32\n      jump\t// in\n    tag_98:\n        /* \"#utility.yul\":4807:4846   */\n      tag_99\n        /* \"#utility.yul\":4837:4845   */\n      dup7\n        /* \"#utility.yul\":4826:4835   */\n      dup4\n        /* \"#utility.yul\":4807:4846   */\n      tag_32\n      jump\t// in\n    tag_99:\n        /* \"#utility.yul\":4795:4846   */\n      swap6\n      pop\n        /* \"#utility.yul\":4879:4883   */\n      dup1\n        /* \"#utility.yul\":4875:4884   */\n      not\n        /* \"#utility.yul\":4868:4873   */\n      dup5\n        /* \"#utility.yul\":4864:4885   */\n      and\n        /* \"#utility.yul\":4855:4885   */\n      swap4\n      pop\n        /* \"#utility.yul\":4928:4932   */\n      dup1\n        /* \"#utility.yul\":4918:4926   */\n      dup7\n        /* \"#utility.yul\":4914:4933   */\n      and\n        /* \"#utility.yul\":4907:4912   */\n      dup5\n        /* \"#utility.yul\":4904:4934   */\n      or\n        /* \"#utility.yul\":4894:4934   */\n      swap3\n      pop\n        /* \"#utility.yul\":4623:4940   */\n      pop\n      pop\n        /* \"#utility.yul\":4547:4940   */\n      swap4\n      swap3\n      pop\n      pop\n      pop\n      jump\t// out\n        /* \"#utility.yul\":4946:5006   */\n    tag_34:\n        /* \"#utility.yul\":4974:4977   */\n      0x00\n        /* \"#utility.yul\":4995:5000   */\n      dup2\n        /* \"#utility.yul\":4988:5000   */\n      swap1\n      pop\n        /* \"#utility.yul\":4946:5006   */\n      swap2\n      swap1\n      pop\n      jump\t// out\n        /* \"#utility.yul\":5012:5154   */\n    tag_35:\n        /* \"#utility.yul\":5062:5071   */\n      0x00\n        /* \"#utility.yul\":5095:5148   */\n      tag_102\n        /* \"#utility.yul\":5113:5147   */\n      tag_103\n        /* \"#utility.yul\":5122:5146   */\n      tag_104\n        /* \"#utility.yul\":5140:5145   */\n      dup5\n        /* \"#utility.yul\":5122:5146   */\n      tag_14\n      jump\t// in\n    tag_104:\n        /* \"#utility.yul\":5113:5147   */\n      tag_34\n      jump\t// in\n    tag_103:\n        /* \"#utility.yul\":5095:5148   */\n      tag_14\n      jump\t// in\n    tag_102:\n        /* \"#utility.yul\":5082:5148   */\n      swap1\n      pop\n        /* \"#utility.yul\":5012:5154   */\n      swap2\n      swap1\n      pop\n      jump\t// out\n        /* \"#utility.yul\":5160:5235   */\n    tag_36:\n        /* \"#utility.yul\":5203:5206   */\n      0x00\n        /* \"#utility.yul\":5224:5229   */\n      dup2\n        /* \"#utility.yul\":5217:5229   */\n      swap1\n      pop\n        /* \"#utility.yul\":5160:5235   */\n      swap2\n      swap1\n      pop\n      jump\t// out\n        /* \"#utility.yul\":5241:5510   */\n    tag_37:\n        /* \"#utility.yul\":5351:5390   */\n      tag_107\n        /* \"#utility.yul\":5382:5389   */\n      dup4\n        /* \"#utility.yul\":5351:5390   */\n      tag_35\n      jump\t// in\n    tag_107:\n        /* \"#utility.yul\":5412:5503   */\n      tag_108\n        /* \"#utility.yul\":5461:5502   */\n      tag_109\n        /* \"#utility.yul\":5485:5501   */\n      dup3\n        /* \"#utility.yul\":5461:5502   */\n      tag_36\n      jump\t// in\n    tag_109:\n        /* \"#utility.yul\":5453:5459   */\n      dup5\n        /* \"#utility.yul\":5446:5450   */\n      dup5\n        /* \"#utility.yul\":5440:5451   */\n      sload\n        /* \"#utility.yul\":5412:5503   */\n      tag_33\n      jump\t// in\n    tag_108:\n        /* \"#utility.yul\":5406:5410   */\n      dup3\n        /* \"#utility.yul\":5399:5504   */\n      sstore\n        /* \"#utility.yul\":5317:5510   */\n      pop\n        /* \"#utility.yul\":5241:5510   */\n      pop\n      pop\n      pop\n      jump\t// out\n        /* \"#utility.yul\":5516:5589   */\n    tag_38:\n        /* \"#utility.yul\":5561:5564   */\n      0x00\n        /* \"#utility.yul\":5516:5589   */\n      swap1\n      jump\t// out\n        /* \"#utility.yul\":5595:5784   */\n    tag_39:\n        /* \"#utility.yul\":5672:5704   */\n      tag_112\n      tag_38\n      jump\t// in\n    tag_112:\n        /* \"#utility.yul\":5713:5778   */\n      tag_113\n        /* \"#utility.yul\":5771:5777   */\n      dup2\n        /* \"#utility.yul\":5763:5769   */\n      dup5\n        /* \"#utility.yul\":5757:5761   */\n      dup5\n        /* \"#utility.yul\":5713:5778   */\n      tag_37\n      jump\t// in\n    tag_113:\n        /* \"#utility.yul\":5648:5784   */\n      pop\n        /* \"#utility.yul\":5595:5784   */\n      pop\n      pop\n      jump\t// out\n        /* \"#utility.yul\":5790:5976   */\n    tag_40:\n        /* \"#utility.yul\":5850:5970   */\n    tag_115:\n        /* \"#utility.yul\":5867:5870   */\n      dup2\n        /* \"#utility.yul\":5860:5865   */\n      dup2\n        /* \"#utility.yul\":5857:5871   */\n      lt\n        /* \"#utility.yul\":5850:5970   */\n      iszero\n      tag_117\n      jumpi\n        /* \"#utility.yul\":5921:5960   */\n      tag_118\n        /* \"#utility.yul\":5958:5959   */\n      0x00\n        /* \"#utility.yul\":5951:5956   */\n      dup3\n        /* \"#utility.yul\":5921:5960   */\n      tag_39\n      jump\t// in\n    tag_118:\n        /* \"#utility.yul\":5894:5895   */\n      0x01\n        /* \"#utility.yul\":5887:5892   */\n      dup2\n        /* \"#utility.yul\":5883:5896   */\n      add\n        /* \"#utility.yul\":5874:5896   */\n      swap1\n      pop\n        /* \"#utility.yul\":5850:5970   */\n      jump(tag_115)\n    tag_117:\n        /* \"#utility.yul\":5790:5976   */\n      pop\n      pop\n      jump\t// out\n        /* \"#utility.yul\":5982:6525   */\n    tag_41:\n        /* \"#utility.yul\":6083:6085   */\n      0x1f\n        /* \"#utility.yul\":6078:6081   */\n      dup3\n        /* \"#utility.yul\":6075:6086   */\n      gt\n        /* \"#utility.yul\":6072:6518   */\n      iszero\n      tag_120\n      jumpi\n        /* \"#utility.yul\":6117:6155   */\n      tag_121\n        /* \"#utility.yul\":6149:6154   */\n      dup2\n        /* \"#utility.yul\":6117:6155   */\n      tag_30\n      jump\t// in\n    tag_121:\n        /* \"#utility.yul\":6201:6230   */\n      tag_122\n        /* \"#utility.yul\":6219:6229   */\n      dup5\n        /* \"#utility.yul\":6201:6230   */\n      tag_31\n      jump\t// in\n    tag_122:\n        /* \"#utility.yul\":6191:6199   */\n      dup2\n        /* \"#utility.yul\":6187:6231   */\n      add\n        /* \"#utility.yul\":6384:6386   */\n      0x20\n        /* \"#utility.yul\":6372:6382   */\n      dup6\n        /* \"#utility.yul\":6369:6387   */\n      lt\n        /* \"#utility.yul\":6366:6415   */\n      iszero\n      tag_123\n      jumpi\n        /* \"#utility.yul\":6405:6413   */\n      dup2\n        /* \"#utility.yul\":6390:6413   */\n      swap1\n      pop\n        /* \"#utility.yul\":6366:6415   */\n    tag_123:\n        /* \"#utility.yul\":6428:6508   */\n      tag_124\n        /* \"#utility.yul\":6484:6506   */\n      tag_125\n        /* \"#utility.yul\":6502:6505   */\n      dup6\n        /* \"#utility.yul\":6484:6506   */\n      tag_31\n      jump\t// in\n    tag_125:\n        /* \"#utility.yul\":6474:6482   */\n      dup4\n        /* \"#utility.yul\":6470:6507   */\n      add\n        /* \"#utility.yul\":6457:6468   */\n      dup3\n        /* \"#utility.yul\":6428:6508   */\n      tag_40\n      jump\t// in\n    tag_124:\n        /* \"#utility.yul\":6087:6518   */\n      pop\n      pop\n        /* \"#utility.yul\":6072:6518   */\n    tag_120:\n        /* \"#utility.yul\":5982:6525   */\n      pop\n      pop\n      pop\n      jump\t// out\n        /* \"#utility.yul\":6531:6648   */\n    tag_42:\n        /* \"#utility.yul\":6585:6593   */\n      0x00\n        /* \"#utility.yul\":6635:6640   */\n      dup3\n        /* \"#utility.yul\":6629:6633   */\n      dup3\n        /* \"#utility.yul\":6625:6641   */\n      shr\n        /* \"#utility.yul\":6604:6641   */\n      swap1\n      pop\n        /* \"#utility.yul\":6531:6648   */\n      swap3\n      swap2\n      pop\n      pop\n      jump\t// out\n        /* \"#utility.yul\":6654:6823   */\n    tag_43:\n        /* \"#utility.yul\":6698:6704   */\n      0x00\n        /* \"#utility.yul\":6731:6782   */\n      tag_128\n        /* \"#utility.yul\":6779:6780   */\n      0x00\n        /* \"#utility.yul\":6775:6781   */\n      not\n        /* \"#utility.yul\":6767:6772   */\n      dup5\n        /* \"#utility.yul\":6764:6765   */\n      0x08\n        /* \"#utility.yul\":6760:6773   */\n      mul\n        /* \"#utility.yul\":6731:6782   */\n      tag_42\n      jump\t// in\n    tag_128:\n        /* \"#utility.yul\":6727:6783   */\n      not\n        /* \"#utility.yul\":6812:6816   */\n      dup1\n        /* \"#utility.yul\":6806:6810   */\n      dup4\n        /* \"#utility.yul\":6802:6817   */\n      and\n        /* \"#utility.yul\":6792:6817   */\n      swap2\n      pop\n        /* \"#utility.yul\":6705:6823   */\n      pop\n        /* \"#utility.yul\":6654:6823   */\n      swap3\n      swap2\n      pop\n      pop\n      jump\t// out\n        /* \"#utility.yul\":6828:7123   */\n    tag_44:\n        /* \"#utility.yul\":6904:6908   */\n      0x00\n        /* \"#utility.yul\":7050:7079   */\n      tag_130\n        /* \"#utility.yul\":7075:7078   */\n      dup4\n        /* \"#utility.yul\":7069:7073   */\n      dup4\n        /* \"#utility.yul\":7050:7079   */\n      tag_43\n      jump\t// in\n    tag_130:\n        /* \"#utility.yul\":7042:7079   */\n      swap2\n      pop\n        /* \"#utility.yul\":7112:7115   */\n      dup3\n        /* \"#utility.yul\":7109:7110   */\n      0x02\n        /* \"#utility.yul\":7105:7116   */\n      mul\n        /* \"#utility.yul\":7099:7103   */\n      dup3\n        /* \"#utility.yul\":7096:7117   */\n      or\n        /* \"#utility.yul\":7088:7117   */\n      swap1\n      pop\n        /* \"#utility.yul\":6828:7123   */\n      swap3\n      swap2\n      pop\n      pop\n      jump\t// out\n        /* \"#utility.yul\":7128:8523   */\n    tag_10:\n        /* \"#utility.yul\":7245:7282   */\n      tag_132\n        /* \"#utility.yul\":7278:7281   */\n      dup3\n        /* \"#utility.yul\":7245:7282   */\n      tag_27\n      jump\t// in\n    tag_132:\n        /* \"#utility.yul\":7347:7365   */\n      0xffffffffffffffff\n        /* \"#utility.yul\":7339:7345   */\n      dup2\n        /* \"#utility.yul\":7336:7366   */\n      gt\n        /* \"#utility.yul\":7333:7389   */\n      iszero\n      tag_133\n      jumpi\n        /* \"#utility.yul\":7369:7387   */\n      tag_134\n      tag_20\n      jump\t// in\n    tag_134:\n        /* \"#utility.yul\":7333:7389   */\n    tag_133:\n        /* \"#utility.yul\":7413:7451   */\n      tag_135\n        /* \"#utility.yul\":7445:7449   */\n      dup3\n        /* \"#utility.yul\":7439:7450   */\n      sload\n        /* \"#utility.yul\":7413:7451   */\n      tag_29\n      jump\t// in\n    tag_135:\n        /* \"#utility.yul\":7498:7565   */\n      tag_136\n        /* \"#utility.yul\":7558:7564   */\n      dup3\n        /* \"#utility.yul\":7550:7556   */\n      dup3\n        /* \"#utility.yul\":7544:7548   */\n      dup6\n        /* \"#utility.yul\":7498:7565   */\n      tag_41\n      jump\t// in\n    tag_136:\n        /* \"#utility.yul\":7592:7593   */\n      0x00\n        /* \"#utility.yul\":7616:7620   */\n      0x20\n        /* \"#utility.yul\":7603:7620   */\n      swap1\n      pop\n        /* \"#utility.yul\":7648:7650   */\n      0x1f\n        /* \"#utility.yul\":7640:7646   */\n      dup4\n        /* \"#utility.yul\":7637:7651   */\n      gt\n        /* \"#utility.yul\":7665:7666   */\n      0x01\n        /* \"#utility.yul\":7660:8278   */\n      dup2\n      eq\n      tag_138\n      jumpi\n        /* \"#utility.yul\":8322:8323   */\n      0x00\n        /* \"#utility.yul\":8339:8345   */\n      dup5\n        /* \"#utility.yul\":8336:8413   */\n      iszero\n      tag_139\n      jumpi\n        /* \"#utility.yul\":8388:8397   */\n      dup3\n        /* \"#utility.yul\":8383:8386   */\n      dup8\n        /* \"#utility.yul\":8379:8398   */\n      add\n        /* \"#utility.yul\":8373:8399   */\n      mload\n        /* \"#utility.yul\":8364:8399   */\n      swap1\n      pop\n        /* \"#utility.yul\":8336:8413   */\n    tag_139:\n        /* \"#utility.yul\":8439:8506   */\n      tag_140\n        /* \"#utility.yul\":8499:8505   */\n      dup6\n        /* \"#utility.yul\":8492:8497   */\n      dup3\n        /* \"#utility.yul\":8439:8506   */\n      tag_44\n      jump\t// in\n    tag_140:\n        /* \"#utility.yul\":8433:8437   */\n      dup7\n        /* \"#utility.yul\":8426:8507   */\n      sstore\n        /* \"#utility.yul\":8295:8517   */\n      pop\n        /* \"#utility.yul\":7630:8517   */\n      jump(tag_137)\n        /* \"#utility.yul\":7660:8278   */\n    tag_138:\n        /* \"#utility.yul\":7712:7716   */\n      0x1f\n        /* \"#utility.yul\":7708:7717   */\n      not\n        /* \"#utility.yul\":7700:7706   */\n      dup5\n        /* \"#utility.yul\":7696:7718   */\n      and\n        /* \"#utility.yul\":7746:7783   */\n      tag_141\n        /* \"#utility.yul\":7778:7782   */\n      dup7\n        /* \"#utility.yul\":7746:7783   */\n      tag_30\n      jump\t// in\n    tag_141:\n        /* \"#utility.yul\":7805:7806   */\n      0x00\n        /* \"#utility.yul\":7819:8027   */\n    tag_142:\n        /* \"#utility.yul\":7833:7840   */\n      dup3\n        /* \"#utility.yul\":7830:7831   */\n      dup2\n        /* \"#utility.yul\":7827:7841   */\n      lt\n        /* \"#utility.yul\":7819:8027   */\n      iszero\n      tag_144\n      jumpi\n        /* \"#utility.yul\":7912:7921   */\n      dup5\n        /* \"#utility.yul\":7907:7910   */\n      dup10\n        /* \"#utility.yul\":7903:7922   */\n      add\n        /* \"#utility.yul\":7897:7923   */\n      mload\n        /* \"#utility.yul\":7889:7895   */\n      dup3\n        /* \"#utility.yul\":7882:7924   */\n      sstore\n        /* \"#utility.yul\":7963:7964   */\n      0x01\n        /* \"#utility.yul\":7955:7961   */\n      dup3\n        /* \"#utility.yul\":7951:7965   */\n      add\n        /* \"#utility.yul\":7941:7965   */\n      swap2\n      pop\n        /* \"#utility.yul\":8010:8012   */\n      0x20\n        /* \"#utility.yul\":7999:8008   */\n      dup6\n        /* \"#utility.yul\":7995:8013   */\n      add\n        /* \"#utility.yul\":7982:8013   */\n      swap5\n      pop\n        /* \"#utility.yul\":7856:7860   */\n      0x20\n        /* \"#utility.yul\":7853:7854   */\n      dup2\n        /* \"#utility.yul\":7849:7861   */\n      add\n        /* \"#utility.yul\":7844:7861   */\n      swap1\n      pop\n        /* \"#utility.yul\":7819:8027   */\n      jump(tag_142)\n    tag_144:\n        /* \"#utility.yul\":8055:8061   */\n      dup7\n        /* \"#utility.yul\":8046:8053   */\n      dup4\n        /* \"#utility.yul\":8043:8062   */\n      lt\n        /* \"#utility.yul\":8040:8219   */\n      iszero\n      tag_145\n      jumpi\n        /* \"#utility.yul\":8113:8122   */\n      dup5\n        /* \"#utility.yul\":8108:8111   */\n      dup10\n        /* \"#utility.yul\":8104:8123   */\n      add\n        /* \"#utility.yul\":8098:8124   */\n      mload\n        /* \"#utility.yul\":8156:8204   */\n      tag_146\n        /* \"#utility.yul\":8198:8202   */\n      0x1f\n        /* \"#utility.yul\":8190:8196   */\n      dup10\n        /* \"#utility.yul\":8186:8203   */\n      and\n        /* \"#utility.yul\":8175:8184   */\n      dup3\n        /* \"#utility.yul\":8156:8204   */\n      tag_43\n      jump\t// in\n    tag_146:\n        /* \"#utility.yul\":8148:8154   */\n      dup4\n        /* \"#utility.yul\":8141:8205   */\n      sstore\n        /* \"#utility.yul\":8063:8219   */\n      pop\n        /* \"#utility.yul\":8040:8219   */\n    tag_145:\n        /* \"#utility.yul\":8265:8266   */\n      0x01\n        /* \"#utility.yul\":8261:8262   */\n      0x02\n        /* \"#utility.yul\":8253:8259   */\n      dup9\n        /* \"#utility.yul\":8249:8263   */\n      mul\n        /* \"#utility.yul\":8245:8267   */\n      add\n        /* \"#utility.yul\":8239:8243   */\n      dup9\n        /* \"#utility.yul\":8232:8268   */\n      sstore\n        /* \"#utility.yul\":7667:8278   */\n      pop\n      pop\n      pop\n        /* \"#utility.yul\":7630:8517   */\n    tag_137:\n      pop\n        /* \"#utility.yul\":7220:8523   */\n      pop\n      pop\n      pop\n        /* \"#utility.yul\":7128:8523   */\n      pop\n      pop\n      jump\t// out\n\n    auxdata: 0xa2646970667358221220f00e09cb29aaec0f5e2fdd40f30db4e06d4f1e7b0c27a9801fb2abb378b354f364736f6c634300081a0033\n}\n",
				"bytecode": {
					"linkReferences": {},
					"object": "6080604052348015600e575f80fd5b506105468061001c5f395ff3fe608060405234801561000f575f80fd5b5060043610610029575f3560e01c8063f714fc1f1461002d575b5f80fd5b610047600480360381019061004291906101e3565b610049565b005b815f81905550806001908161005e9190610441565b505050565b5f604051905090565b5f80fd5b5f80fd5b5f819050919050565b61008681610074565b8114610090575f80fd5b50565b5f813590506100a18161007d565b92915050565b5f80fd5b5f80fd5b5f601f19601f8301169050919050565b7f4e487b71000000000000000000000000000000000000000000000000000000005f52604160045260245ffd5b6100f5826100af565b810181811067ffffffffffffffff82111715610114576101136100bf565b5b80604052505050565b5f610126610063565b905061013282826100ec565b919050565b5f67ffffffffffffffff821115610151576101506100bf565b5b61015a826100af565b9050602081019050919050565b828183375f83830152505050565b5f61018761018284610137565b61011d565b9050828152602081018484840111156101a3576101a26100ab565b5b6101ae848285610167565b509392505050565b5f82601f8301126101ca576101c96100a7565b5b81356101da848260208601610175565b91505092915050565b5f80604083850312156101f9576101f861006c565b5b5f61020685828601610093565b925050602083013567ffffffffffffffff81111561022757610226610070565b5b610233858286016101b6565b9150509250929050565b5f81519050919050565b7f4e487b71000000000000000000000000000000000000000000000000000000005f52602260045260245ffd5b5f600282049050600182168061028b57607f821691505b60208210810361029e5761029d610247565b5b50919050565b5f819050815f5260205f209050919050565b5f6020601f8301049050919050565b5f82821b905092915050565b5f600883026103007fffffffffffffffffffffffffffffffffffffffffffffffffffffffffffffffff826102c5565b61030a86836102c5565b95508019841693508086168417925050509392505050565b5f819050919050565b5f61034561034061033b84610074565b610322565b610074565b9050919050565b5f819050919050565b61035e8361032b565b61037261036a8261034c565b8484546102d1565b825550505050565b5f90565b61038661037a565b610391818484610355565b505050565b5b818110156103b4576103a95f8261037e565b600181019050610397565b5050565b601f8211156103f9576103ca816102a4565b6103d3846102b6565b810160208510156103e2578190505b6103f66103ee856102b6565b830182610396565b50505b505050565b5f82821c905092915050565b5f6104195f19846008026103fe565b1980831691505092915050565b5f610431838361040a565b9150826002028217905092915050565b61044a8261023d565b67ffffffffffffffff811115610463576104626100bf565b5b61046d8254610274565b6104788282856103b8565b5f60209050601f8311600181146104a9575f8415610497578287015190505b6104a18582610426565b865550610508565b601f1984166104b7866102a4565b5f5b828110156104de578489015182556001820191506020850194506020810190506104b9565b868310156104fb57848901516104f7601f89168261040a565b8355505b6001600288020188555050505b50505050505056fea2646970667358221220f00e09cb29aaec0f5e2fdd40f30db4e06d4f1e7b0c27a9801fb2abb378b354f364736f6c634300081a0033",
					"opcodes": "PUSH1 0x80 PUSH1 0x40 MSTORE CALLVALUE DUP1 ISZERO PUSH1 0xE JUMPI PUSH0 DUP1 REVERT JUMPDEST POP PUSH2 0x546 DUP1 PUSH2 0x1C PUSH0 CODECOPY PUSH0 RETURN INVALID PUSH1 0x80 PUSH1 0x40 MSTORE CALLVALUE DUP1 ISZERO PUSH2 0xF JUMPI PUSH0 DUP1 REVERT JUMPDEST POP PUSH1 0x4 CALLDATASIZE LT PUSH2 0x29 JUMPI PUSH0 CALLDATALOAD PUSH1 0xE0 SHR DUP1 PUSH4 0xF714FC1F EQ PUSH2 0x2D JUMPI JUMPDEST PUSH0 DUP1 REVERT JUMPDEST PUSH2 0x47 PUSH1 0x4 DUP1 CALLDATASIZE SUB DUP2 ADD SWAP1 PUSH2 0x42 SWAP2 SWAP1 PUSH2 0x1E3 JUMP JUMPDEST PUSH2 0x49 JUMP JUMPDEST STOP JUMPDEST DUP2 PUSH0 DUP2 SWAP1 SSTORE POP DUP1 PUSH1 0x1 SWAP1 DUP2 PUSH2 0x5E SWAP2 SWAP1 PUSH2 0x441 JUMP JUMPDEST POP POP POP JUMP JUMPDEST PUSH0 PUSH1 0x40 MLOAD SWAP1 POP SWAP1 JUMP JUMPDEST PUSH0 DUP1 REVERT JUMPDEST PUSH0 DUP1 REVERT JUMPDEST PUSH0 DUP2 SWAP1 POP SWAP2 SWAP1 POP JUMP JUMPDEST PUSH2 0x86 DUP2 PUSH2 0x74 JUMP JUMPDEST DUP2 EQ PUSH2 0x90 JUMPI PUSH0 DUP1 REVERT JUMPDEST POP JUMP JUMPDEST PUSH0 DUP2 CALLDATALOAD SWAP1 POP PUSH2 0xA1 DUP2 PUSH2 0x7D JUMP JUMPDEST SWAP3 SWAP2 POP POP JUMP JUMPDEST PUSH0 DUP1 REVERT JUMPDEST PUSH0 DUP1 REVERT JUMPDEST PUSH0 PUSH1 0x1F NOT PUSH1 0x1F DUP4 ADD AND SWAP1 POP SWAP2 SWAP1 POP JUMP JUMPDEST PUSH32 0x4E487B7100000000000000000000000000000000000000000000000000000000 PUSH0 MSTORE PUSH1 0x41 PUSH1 0x4 MSTORE PUSH1 0x24 PUSH0 REVERT JUMPDEST PUSH2 0xF5 DUP3 PUSH2 0xAF JUMP JUMPDEST DUP2 ADD DUP2 DUP2 LT PUSH8 0xFFFFFFFFFFFFFFFF DUP3 GT OR ISZERO PUSH2 0x114 JUMPI PUSH2 0x113 PUSH2 0xBF JUMP JUMPDEST JUMPDEST DUP1 PUSH1 0x40 MSTORE POP POP POP JUMP JUMPDEST PUSH0 PUSH2 0x126 PUSH2 0x63 JUMP JUMPDEST SWAP1 POP PUSH2 0x132 DUP3 DUP3 PUSH2 0xEC JUMP JUMPDEST SWAP2 SWAP1 POP JUMP JUMPDEST PUSH0 PUSH8 0xFFFFFFFFFFFFFFFF DUP3 GT ISZERO PUSH2 0x151 JUMPI PUSH2 0x150 PUSH2 0xBF JUMP JUMPDEST JUMPDEST PUSH2 0x15A DUP3 PUSH2 0xAF JUMP JUMPDEST SWAP1 POP PUSH1 0x20 DUP2 ADD SWAP1 POP SWAP2 SWAP1 POP JUMP JUMPDEST DUP3 DUP2 DUP4 CALLDATACOPY PUSH0 DUP4 DUP4 ADD MSTORE POP POP POP JUMP JUMPDEST PUSH0 PUSH2 0x187 PUSH2 0x182 DUP5 PUSH2 0x137 JUMP JUMPDEST PUSH2 0x11D JUMP JUMPDEST SWAP1 POP DUP3 DUP2 MSTORE PUSH1 0x20 DUP2 ADD DUP5 DUP5 DUP5 ADD GT ISZERO PUSH2 0x1A3 JUMPI PUSH2 0x1A2 PUSH2 0xAB JUMP JUMPDEST JUMPDEST PUSH2 0x1AE DUP5 DUP3 DUP6 PUSH2 0x167 JUMP JUMPDEST POP SWAP4 SWAP3 POP POP POP JUMP JUMPDEST PUSH0 DUP3 PUSH1 0x1F DUP4 ADD SLT PUSH2 0x1CA JUMPI PUSH2 0x1C9 PUSH2 0xA7 JUMP JUMPDEST JUMPDEST DUP2 CALLDATALOAD PUSH2 0x1DA DUP5 DUP3 PUSH1 0x20 DUP7 ADD PUSH2 0x175 JUMP JUMPDEST SWAP2 POP POP SWAP3 SWAP2 POP POP JUMP JUMPDEST PUSH0 DUP1 PUSH1 0x40 DUP4 DUP6 SUB SLT ISZERO PUSH2 0x1F9 JUMPI PUSH2 0x1F8 PUSH2 0x6C JUMP JUMPDEST JUMPDEST PUSH0 PUSH2 0x206 DUP6 DUP3 DUP7 ADD PUSH2 0x93 JUMP JUMPDEST SWAP3 POP POP PUSH1 0x20 DUP4 ADD CALLDATALOAD PUSH8 0xFFFFFFFFFFFFFFFF DUP2 GT ISZERO PUSH2 0x227 JUMPI PUSH2 0x226 PUSH2 0x70 JUMP JUMPDEST JUMPDEST PUSH2 0x233 DUP6 DUP3 DUP7 ADD PUSH2 0x1B6 JUMP JUMPDEST SWAP2 POP POP SWAP3 POP SWAP3 SWAP1 POP JUMP JUMPDEST PUSH0 DUP2 MLOAD SWAP1 POP SWAP2 SWAP1 POP JUMP JUMPDEST PUSH32 0x4E487B7100000000000000000000000000000000000000000000000000000000 PUSH0 MSTORE PUSH1 0x22 PUSH1 0x4 MSTORE PUSH1 0x24 PUSH0 REVERT JUMPDEST PUSH0 PUSH1 0x2 DUP3 DIV SWAP1 POP PUSH1 0x1 DUP3 AND DUP1 PUSH2 0x28B JUMPI PUSH1 0x7F DUP3 AND SWAP2 POP JUMPDEST PUSH1 0x20 DUP3 LT DUP2 SUB PUSH2 0x29E JUMPI PUSH2 0x29D PUSH2 0x247 JUMP JUMPDEST JUMPDEST POP SWAP2 SWAP1 POP JUMP JUMPDEST PUSH0 DUP2 SWAP1 POP DUP2 PUSH0 MSTORE PUSH1 0x20 PUSH0 KECCAK256 SWAP1 POP SWAP2 SWAP1 POP JUMP JUMPDEST PUSH0 PUSH1 0x20 PUSH1 0x1F DUP4 ADD DIV SWAP1 POP SWAP2 SWAP1 POP JUMP JUMPDEST PUSH0 DUP3 DUP3 SHL SWAP1 POP SWAP3 SWAP2 POP POP JUMP JUMPDEST PUSH0 PUSH1 0x8 DUP4 MUL PUSH2 0x300 PUSH32 0xFFFFFFFFFFFFFFFFFFFFFFFFFFFFFFFFFFFFFFFFFFFFFFFFFFFFFFFFFFFFFFFF DUP3 PUSH2 0x2C5 JUMP JUMPDEST PUSH2 0x30A DUP7 DUP4 PUSH2 0x2C5 JUMP JUMPDEST SWAP6 POP DUP1 NOT DUP5 AND SWAP4 POP DUP1 DUP7 AND DUP5 OR SWAP3 POP POP POP SWAP4 SWAP3 POP POP POP JUMP JUMPDEST PUSH0 DUP2 SWAP1 POP SWAP2 SWAP1 POP JUMP JUMPDEST PUSH0 PUSH2 0x345 PUSH2 0x340 PUSH2 0x33B DUP5 PUSH2 0x74 JUMP JUMPDEST PUSH2 0x322 JUMP JUMPDEST PUSH2 0x74 JUMP JUMPDEST SWAP1 POP SWAP2 SWAP1 POP JUMP JUMPDEST PUSH0 DUP2 SWAP1 POP SWAP2 SWAP1 POP JUMP JUMPDEST PUSH2 0x35E DUP4 PUSH2 0x32B JUMP JUMPDEST PUSH2 0x372 PUSH2 0x36A DUP3 PUSH2 0x34C JUMP JUMPDEST DUP5 DUP5 SLOAD PUSH2 0x2D1 JUMP JUMPDEST DUP3 SSTORE POP POP POP POP JUMP JUMPDEST PUSH0 SWAP1 JUMP JUMPDEST PUSH2 0x386 PUSH2 0x37A JUMP JUMPDEST PUSH2 0x391 DUP2 DUP5 DUP5 PUSH2 0x355 JUMP JUMPDEST POP POP POP JUMP JUMPDEST JUMPDEST DUP2 DUP2 LT ISZERO PUSH2 0x3B4 JUMPI PUSH2 0x3A9 PUSH0 DUP3 PUSH2 0x37E JUMP JUMPDEST PUSH1 0x1 DUP2 ADD SWAP1 POP PUSH2 0x397 JUMP JUMPDEST POP POP JUMP JUMPDEST PUSH1 0x1F DUP3 GT ISZERO PUSH2 0x3F9 JUMPI PUSH2 0x3CA DUP2 PUSH2 0x2A4 JUMP JUMPDEST PUSH2 0x3D3 DUP5 PUSH2 0x2B6 JUMP JUMPDEST DUP2 ADD PUSH1 0x20 DUP6 LT ISZERO PUSH2 0x3E2 JUMPI DUP2 SWAP1 POP JUMPDEST PUSH2 0x3F6 PUSH2 0x3EE DUP6 PUSH2 0x2B6 JUMP JUMPDEST DUP4 ADD DUP3 PUSH2 0x396 JUMP JUMPDEST POP POP JUMPDEST POP POP POP JUMP JUMPDEST PUSH0 DUP3 DUP3 SHR SWAP1 POP SWAP3 SWAP2 POP POP JUMP JUMPDEST PUSH0 PUSH2 0x419 PUSH0 NOT DUP5 PUSH1 0x8 MUL PUSH2 0x3FE JUMP JUMPDEST NOT DUP1 DUP4 AND SWAP2 POP POP SWAP3 SWAP2 POP POP JUMP JUMPDEST PUSH0 PUSH2 0x431 DUP4 DUP4 PUSH2 0x40A JUMP JUMPDEST SWAP2 POP DUP3 PUSH1 0x2 MUL DUP3 OR SWAP1 POP SWAP3 SWAP2 POP POP JUMP JUMPDEST PUSH2 0x44A DUP3 PUSH2 0x23D JUMP JUMPDEST PUSH8 0xFFFFFFFFFFFFFFFF DUP2 GT ISZERO PUSH2 0x463 JUMPI PUSH2 0x462 PUSH2 0xBF JUMP JUMPDEST JUMPDEST PUSH2 0x46D DUP3 SLOAD PUSH2 0x274 JUMP JUMPDEST PUSH2 0x478 DUP3 DUP3 DUP6 PUSH2 0x3B8 JUMP JUMPDEST PUSH0 PUSH1 0x20 SWAP1 POP PUSH1 0x1F DUP4 GT PUSH1 0x1 DUP2 EQ PUSH2 0x4A9 JUMPI PUSH0 DUP5 ISZERO PUSH2 0x497 JUMPI DUP3 DUP8 ADD MLOAD SWAP1 POP JUMPDEST PUSH2 0x4A1 DUP6 DUP3 PUSH2 0x426 JUMP JUMPDEST DUP7 SSTORE POP PUSH2 0x508 JUMP JUMPDEST PUSH1 0x1F NOT DUP5 AND PUSH2 0x4B7 DUP7 PUSH2 0x2A4 JUMP JUMPDEST PUSH0 JUMPDEST DUP3 DUP2 LT ISZERO PUSH2 0x4DE JUMPI DUP5 DUP10 ADD MLOAD DUP3 SSTORE PUSH1 0x1 DUP3 ADD SWAP2 POP PUSH1 0x20 DUP6 ADD SWAP5 POP PUSH1 0x20 DUP2 ADD SWAP1 POP PUSH2 0x4B9 JUMP JUMPDEST DUP7 DUP4 LT ISZERO PUSH2 0x4FB JUMPI DUP5 DUP10 ADD MLOAD PUSH2 0x4F7 PUSH1 0x1F DUP10 AND DUP3 PUSH2 0x40A JUMP JUMPDEST DUP4 SSTORE POP JUMPDEST PUSH1 0x1 PUSH1 0x2 DUP9 MUL ADD DUP9 SSTORE POP POP POP JUMPDEST POP POP POP POP POP POP JUMP INVALID LOG2 PUSH5 0x6970667358 0x22 SLT KECCAK256 CREATE 0xE MULMOD 0xCB 0x29 0xAA 0xEC 0xF MCOPY 0x2F 0xDD BLOCKHASH RETURN 0xD 0xB4 0xE0 PUSH14 0x4F1E7B0C27A9801FB2ABB378B354 RETURN PUSH5 0x736F6C6343 STOP ADDMOD BYTE STOP CALLER "
				},
				"gasEstimates": {
					"creation": {
						"codeDepositCost": "270000",
						"executionCost": "310",
						"totalCost": "270310"
					},
					"external": {
						"setA(uint256,string)": "infinite"
					}
				},
				"methodIdentifiers": {
					"setA(uint256,string)": "f714fc1f"
				}
			},
			"storageLayout": {
				"storage": [
					{
						"astId": 3,
						"contract": "contracts/Practical 10/HierarchicalInheritance.sol:animal",
						"label": "legs",
						"offset": 0,
						"slot": "0",
						"type": "t_uint256"
					},
					{
						"astId": 5,
						"contract": "contracts/Practical 10/HierarchicalInheritance.sol:animal",
						"label": "color",
						"offset": 0,
						"slot": "1",
						"type": "t_string_storage"
					}
				],
				"types": {
					"t_string_storage": {
						"encoding": "bytes",
						"label": "string",
						"numberOfBytes": "32"
					},
					"t_uint256": {
						"encoding": "inplace",
						"label": "uint256",
						"numberOfBytes": "32"
					}
				}
			},
			"userdoc": {
				"kind": "user",
				"methods": {},
				"version": 1
			}
		}
	}
}