{
	"contracts/Practical 10/MultipleInheritance.sol": {
		"test": {
			"abi": [
				{
					"inputs": [],
					"name": "tInherit",
					"outputs": [
						{
							"internalType": "string",
							"name": "",
							"type": "string"
						},
						{
							"internalType": "uint256",
							"name": "",
							"type": "uint256"
						},
						{
							"internalType": "uint256",
							"name": "",
							"type": "uint256"
						},
						{
							"internalType": "string",
							"name": "",
							"type": "string"
						},
						{
							"internalType": "uint256",
							"name": "",
							"type": "uint256"
						}
					],
					"stateMutability": "nonpayable",
					"type": "function"
				}
			],
			"devdoc": {
				"kind": "dev",
				"methods": {},
				"version": 1
			},
			"evm": {
				"assembly": "    /* \"contracts/Practical 10/MultipleInheritance.sol\":993:1354  contract test {... */\n  mstore(0x40, 0x80)\n    /* \"contracts/Practical 10/MultipleInheritance.sol\":1024:1036  new salary() */\n  mload(0x40)\n  tag_1\n  swap1\n  tag_2\n  jump\t// in\ntag_1:\n  mload(0x40)\n  dup1\n  swap2\n  sub\n  swap1\n  0x00\n  create\n  dup1\n  iszero\n  dup1\n  iszero\n  tag_3\n  jumpi\n  returndatasize\n  0x00\n  dup1\n  returndatacopy\n  revert(0x00, returndatasize)\ntag_3:\n  pop\n    /* \"contracts/Practical 10/MultipleInheritance.sol\":1013:1036  salary s = new salary() */\n  0x00\n  dup1\n  0x0100\n  exp\n  dup2\n  sload\n  dup2\n  0xffffffffffffffffffffffffffffffffffffffff\n  mul\n  not\n  and\n  swap1\n  dup4\n  0xffffffffffffffffffffffffffffffffffffffff\n  and\n  mul\n  or\n  swap1\n  sstore\n  pop\n    /* \"contracts/Practical 10/MultipleInheritance.sol\":993:1354  contract test {... */\n  callvalue\n  dup1\n  iszero\n  tag_4\n  jumpi\n  0x00\n  dup1\n  revert\ntag_4:\n  pop\n  jump(tag_5)\ntag_2:\n  dataSize(sub_1)\n  dup1\n  dataOffset(sub_1)\n  dup4\n  codecopy\n  add\n  swap1\n  jump\t// out\ntag_5:\n  dataSize(sub_0)\n  dup1\n  dataOffset(sub_0)\n  0x00\n  codecopy\n  0x00\n  return\nstop\n\nsub_0: assembly {\n        /* \"contracts/Practical 10/MultipleInheritance.sol\":993:1354  contract test {... */\n      mstore(0x40, 0x80)\n      callvalue\n      dup1\n      iszero\n      tag_1\n      jumpi\n      0x00\n      dup1\n      revert\n    tag_1:\n      pop\n      jumpi(tag_2, lt(calldatasize, 0x04))\n      shr(0xe0, calldataload(0x00))\n      dup1\n      0x145083c9\n      eq\n      tag_3\n      jumpi\n    tag_2:\n      0x00\n      dup1\n      revert\n        /* \"contracts/Practical 10/MultipleInheritance.sol\":1043:1352  function tInherit()... */\n    tag_3:\n      tag_4\n      tag_5\n      jump\t// in\n    tag_4:\n      mload(0x40)\n      tag_6\n      swap6\n      swap5\n      swap4\n      swap3\n      swap2\n      swap1\n      tag_7\n      jump\t// in\n    tag_6:\n      mload(0x40)\n      dup1\n      swap2\n      sub\n      swap1\n      return\n    tag_5:\n        /* \"contracts/Practical 10/MultipleInheritance.sol\":1108:1121  string memory */\n      0x60\n        /* \"contracts/Practical 10/MultipleInheritance.sol\":1135:1142  uint256 */\n      0x00\n        /* \"contracts/Practical 10/MultipleInheritance.sol\":1156:1163  uint256 */\n      dup1\n        /* \"contracts/Practical 10/MultipleInheritance.sol\":1177:1190  string memory */\n      0x60\n        /* \"contracts/Practical 10/MultipleInheritance.sol\":1204:1211  uint256 */\n      0x00\n        /* \"contracts/Practical 10/MultipleInheritance.sol\":1236:1237  s */\n      dup1\n      0x00\n      swap1\n      sload\n      swap1\n      0x0100\n      exp\n      swap1\n      div\n      0xffffffffffffffffffffffffffffffffffffffff\n      and\n        /* \"contracts/Practical 10/MultipleInheritance.sol\":1236:1242  s.setE */\n      0xffffffffffffffffffffffffffffffffffffffff\n      and\n      0xdc164840\n        /* \"contracts/Practical 10/MultipleInheritance.sol\":1265:1268  101 */\n      0x65\n        /* \"contracts/Practical 10/MultipleInheritance.sol\":1270:1275  20000 */\n      0x4e20\n        /* \"contracts/Practical 10/MultipleInheritance.sol\":1236:1276  s.setE(\"Shailesh Tagadghar\", 101, 20000) */\n      mload(0x40)\n      dup4\n      0xffffffff\n      and\n      0xe0\n      shl\n      dup2\n      mstore\n      0x04\n      add\n      tag_9\n      swap3\n      swap2\n      swap1\n      tag_10\n      jump\t// in\n    tag_9:\n      0x00\n      mload(0x40)\n      dup1\n      dup4\n      sub\n      dup2\n      0x00\n      dup8\n      dup1\n      extcodesize\n      iszero\n      dup1\n      iszero\n      tag_11\n      jumpi\n      0x00\n      dup1\n      revert\n    tag_11:\n      pop\n      gas\n      call\n      iszero\n      dup1\n      iszero\n      tag_13\n      jumpi\n      returndatasize\n      0x00\n      dup1\n      returndatacopy\n      revert(0x00, returndatasize)\n    tag_13:\n      pop\n      pop\n      pop\n      pop\n        /* \"contracts/Practical 10/MultipleInheritance.sol\":1286:1287  s */\n      0x00\n      dup1\n      sload\n      swap1\n      0x0100\n      exp\n      swap1\n      div\n      0xffffffffffffffffffffffffffffffffffffffff\n      and\n        /* \"contracts/Practical 10/MultipleInheritance.sol\":1286:1292  s.setD */\n      0xffffffffffffffffffffffffffffffffffffffff\n      and\n      0xa04f1bb7\n        /* \"contracts/Practical 10/MultipleInheritance.sol\":1286:1298  s.setD(\"CS\") */\n      mload(0x40)\n      dup2\n      0xffffffff\n      and\n      0xe0\n      shl\n      dup2\n      mstore\n      0x04\n      add\n      tag_14\n      swap1\n      tag_15\n      jump\t// in\n    tag_14:\n      0x00\n      mload(0x40)\n      dup1\n      dup4\n      sub\n      dup2\n      0x00\n      dup8\n      dup1\n      extcodesize\n      iszero\n      dup1\n      iszero\n      tag_16\n      jumpi\n      0x00\n      dup1\n      revert\n    tag_16:\n      pop\n      gas\n      call\n      iszero\n      dup1\n      iszero\n      tag_18\n      jumpi\n      returndatasize\n      0x00\n      dup1\n      returndatacopy\n      revert(0x00, returndatasize)\n    tag_18:\n      pop\n      pop\n      pop\n      pop\n        /* \"contracts/Practical 10/MultipleInheritance.sol\":1308:1309  s */\n      0x00\n      dup1\n      sload\n      swap1\n      0x0100\n      exp\n      swap1\n      div\n      0xffffffffffffffffffffffffffffffffffffffff\n      and\n        /* \"contracts/Practical 10/MultipleInheritance.sol\":1308:1316  s.calHRA */\n      0xffffffffffffffffffffffffffffffffffffffff\n      and\n      0x844ceb4c\n        /* \"contracts/Practical 10/MultipleInheritance.sol\":1308:1318  s.calHRA() */\n      mload(0x40)\n      dup2\n      0xffffffff\n      and\n      0xe0\n      shl\n      dup2\n      mstore\n      0x04\n      add\n      0x20\n      mload(0x40)\n      dup1\n      dup4\n      sub\n      dup2\n      0x00\n      dup8\n      gas\n      call\n      iszero\n      dup1\n      iszero\n      tag_20\n      jumpi\n      returndatasize\n      0x00\n      dup1\n      returndatacopy\n      revert(0x00, returndatasize)\n    tag_20:\n      pop\n      pop\n      pop\n      pop\n      mload(0x40)\n      returndatasize\n      not(0x1f)\n      0x1f\n      dup3\n      add\n      and\n      dup3\n      add\n      dup1\n      0x40\n      mstore\n      pop\n      dup2\n      add\n      swap1\n      tag_21\n      swap2\n      swap1\n      tag_22\n      jump\t// in\n    tag_21:\n      pop\n        /* \"contracts/Practical 10/MultipleInheritance.sol\":1335:1336  s */\n      0x00\n      dup1\n      sload\n      swap1\n      0x0100\n      exp\n      swap1\n      div\n      0xffffffffffffffffffffffffffffffffffffffff\n      and\n        /* \"contracts/Practical 10/MultipleInheritance.sol\":1335:1343  s.getVal */\n      0xffffffffffffffffffffffffffffffffffffffff\n      and\n      0xe1cb0e52\n        /* \"contracts/Practical 10/MultipleInheritance.sol\":1335:1345  s.getVal() */\n      mload(0x40)\n      dup2\n      0xffffffff\n      and\n      0xe0\n      shl\n      dup2\n      mstore\n      0x04\n      add\n      0x00\n      mload(0x40)\n      dup1\n      dup4\n      sub\n      dup2\n      dup7\n      gas\n      staticcall\n      iszero\n      dup1\n      iszero\n      tag_24\n      jumpi\n      returndatasize\n      0x00\n      dup1\n      returndatacopy\n      revert(0x00, returndatasize)\n    tag_24:\n      pop\n      pop\n      pop\n      pop\n      mload(0x40)\n      returndatasize\n      0x00\n      dup3\n      returndatacopy\n      returndatasize\n      not(0x1f)\n      0x1f\n      dup3\n      add\n      and\n      dup3\n      add\n      dup1\n      0x40\n      mstore\n      pop\n      dup2\n      add\n      swap1\n      tag_25\n      swap2\n      swap1\n      tag_26\n      jump\t// in\n    tag_25:\n        /* \"contracts/Practical 10/MultipleInheritance.sol\":1328:1345  return s.getVal() */\n      swap5\n      pop\n      swap5\n      pop\n      swap5\n      pop\n      swap5\n      pop\n      swap5\n      pop\n        /* \"contracts/Practical 10/MultipleInheritance.sol\":1043:1352  function tInherit()... */\n      swap1\n      swap2\n      swap3\n      swap4\n      swap5\n      jump\t// out\n        /* \"#utility.yul\":7:106   */\n    tag_27:\n        /* \"#utility.yul\":59:65   */\n      0x00\n        /* \"#utility.yul\":93:98   */\n      dup2\n        /* \"#utility.yul\":87:99   */\n      mload\n        /* \"#utility.yul\":77:99   */\n      swap1\n      pop\n        /* \"#utility.yul\":7:106   */\n      swap2\n      swap1\n      pop\n      jump\t// out\n        /* \"#utility.yul\":112:281   */\n    tag_28:\n        /* \"#utility.yul\":196:207   */\n      0x00\n        /* \"#utility.yul\":230:236   */\n      dup3\n        /* \"#utility.yul\":225:228   */\n      dup3\n        /* \"#utility.yul\":218:237   */\n      mstore\n        /* \"#utility.yul\":270:274   */\n      0x20\n        /* \"#utility.yul\":265:268   */\n      dup3\n        /* \"#utility.yul\":261:275   */\n      add\n        /* \"#utility.yul\":246:275   */\n      swap1\n      pop\n        /* \"#utility.yul\":112:281   */\n      swap3\n      swap2\n      pop\n      pop\n      jump\t// out\n        /* \"#utility.yul\":287:426   */\n    tag_29:\n        /* \"#utility.yul\":376:382   */\n      dup3\n        /* \"#utility.yul\":371:374   */\n      dup2\n        /* \"#utility.yul\":366:369   */\n      dup4\n        /* \"#utility.yul\":360:383   */\n      mcopy\n        /* \"#utility.yul\":417:418   */\n      0x00\n        /* \"#utility.yul\":408:414   */\n      dup4\n        /* \"#utility.yul\":403:406   */\n      dup4\n        /* \"#utility.yul\":399:415   */\n      add\n        /* \"#utility.yul\":392:419   */\n      mstore\n        /* \"#utility.yul\":287:426   */\n      pop\n      pop\n      pop\n      jump\t// out\n        /* \"#utility.yul\":432:534   */\n    tag_30:\n        /* \"#utility.yul\":473:479   */\n      0x00\n        /* \"#utility.yul\":524:526   */\n      0x1f\n        /* \"#utility.yul\":520:527   */\n      not\n        /* \"#utility.yul\":515:517   */\n      0x1f\n        /* \"#utility.yul\":508:513   */\n      dup4\n        /* \"#utility.yul\":504:518   */\n      add\n        /* \"#utility.yul\":500:528   */\n      and\n        /* \"#utility.yul\":490:528   */\n      swap1\n      pop\n        /* \"#utility.yul\":432:534   */\n      swap2\n      swap1\n      pop\n      jump\t// out\n        /* \"#utility.yul\":540:917   */\n    tag_31:\n        /* \"#utility.yul\":628:631   */\n      0x00\n        /* \"#utility.yul\":656:695   */\n      tag_64\n        /* \"#utility.yul\":689:694   */\n      dup3\n        /* \"#utility.yul\":656:695   */\n      tag_27\n      jump\t// in\n    tag_64:\n        /* \"#utility.yul\":711:782   */\n      tag_65\n        /* \"#utility.yul\":775:781   */\n      dup2\n        /* \"#utility.yul\":770:773   */\n      dup6\n        /* \"#utility.yul\":711:782   */\n      tag_28\n      jump\t// in\n    tag_65:\n        /* \"#utility.yul\":704:782   */\n      swap4\n      pop\n        /* \"#utility.yul\":791:856   */\n      tag_66\n        /* \"#utility.yul\":849:855   */\n      dup2\n        /* \"#utility.yul\":844:847   */\n      dup6\n        /* \"#utility.yul\":837:841   */\n      0x20\n        /* \"#utility.yul\":830:835   */\n      dup7\n        /* \"#utility.yul\":826:842   */\n      add\n        /* \"#utility.yul\":791:856   */\n      tag_29\n      jump\t// in\n    tag_66:\n        /* \"#utility.yul\":881:910   */\n      tag_67\n        /* \"#utility.yul\":903:909   */\n      dup2\n        /* \"#utility.yul\":881:910   */\n      tag_30\n      jump\t// in\n    tag_67:\n        /* \"#utility.yul\":876:879   */\n      dup5\n        /* \"#utility.yul\":872:911   */\n      add\n        /* \"#utility.yul\":865:911   */\n      swap2\n      pop\n        /* \"#utility.yul\":632:917   */\n      pop\n        /* \"#utility.yul\":540:917   */\n      swap3\n      swap2\n      pop\n      pop\n      jump\t// out\n        /* \"#utility.yul\":923:1000   */\n    tag_32:\n        /* \"#utility.yul\":960:967   */\n      0x00\n        /* \"#utility.yul\":989:994   */\n      dup2\n        /* \"#utility.yul\":978:994   */\n      swap1\n      pop\n        /* \"#utility.yul\":923:1000   */\n      swap2\n      swap1\n      pop\n      jump\t// out\n        /* \"#utility.yul\":1006:1124   */\n    tag_33:\n        /* \"#utility.yul\":1093:1117   */\n      tag_70\n        /* \"#utility.yul\":1111:1116   */\n      dup2\n        /* \"#utility.yul\":1093:1117   */\n      tag_32\n      jump\t// in\n    tag_70:\n        /* \"#utility.yul\":1088:1091   */\n      dup3\n        /* \"#utility.yul\":1081:1118   */\n      mstore\n        /* \"#utility.yul\":1006:1124   */\n      pop\n      pop\n      jump\t// out\n        /* \"#utility.yul\":1130:1976   */\n    tag_7:\n        /* \"#utility.yul\":1375:1379   */\n      0x00\n        /* \"#utility.yul\":1413:1416   */\n      0xa0\n        /* \"#utility.yul\":1402:1411   */\n      dup3\n        /* \"#utility.yul\":1398:1417   */\n      add\n        /* \"#utility.yul\":1390:1417   */\n      swap1\n      pop\n        /* \"#utility.yul\":1463:1472   */\n      dup2\n        /* \"#utility.yul\":1457:1461   */\n      dup2\n        /* \"#utility.yul\":1453:1473   */\n      sub\n        /* \"#utility.yul\":1449:1450   */\n      0x00\n        /* \"#utility.yul\":1438:1447   */\n      dup4\n        /* \"#utility.yul\":1434:1451   */\n      add\n        /* \"#utility.yul\":1427:1474   */\n      mstore\n        /* \"#utility.yul\":1491:1569   */\n      tag_72\n        /* \"#utility.yul\":1564:1568   */\n      dup2\n        /* \"#utility.yul\":1555:1561   */\n      dup9\n        /* \"#utility.yul\":1491:1569   */\n      tag_31\n      jump\t// in\n    tag_72:\n        /* \"#utility.yul\":1483:1569   */\n      swap1\n      pop\n        /* \"#utility.yul\":1579:1651   */\n      tag_73\n        /* \"#utility.yul\":1647:1649   */\n      0x20\n        /* \"#utility.yul\":1636:1645   */\n      dup4\n        /* \"#utility.yul\":1632:1650   */\n      add\n        /* \"#utility.yul\":1623:1629   */\n      dup8\n        /* \"#utility.yul\":1579:1651   */\n      tag_33\n      jump\t// in\n    tag_73:\n        /* \"#utility.yul\":1661:1733   */\n      tag_74\n        /* \"#utility.yul\":1729:1731   */\n      0x40\n        /* \"#utility.yul\":1718:1727   */\n      dup4\n        /* \"#utility.yul\":1714:1732   */\n      add\n        /* \"#utility.yul\":1705:1711   */\n      dup7\n        /* \"#utility.yul\":1661:1733   */\n      tag_33\n      jump\t// in\n    tag_74:\n        /* \"#utility.yul\":1780:1789   */\n      dup2\n        /* \"#utility.yul\":1774:1778   */\n      dup2\n        /* \"#utility.yul\":1770:1790   */\n      sub\n        /* \"#utility.yul\":1765:1767   */\n      0x60\n        /* \"#utility.yul\":1754:1763   */\n      dup4\n        /* \"#utility.yul\":1750:1768   */\n      add\n        /* \"#utility.yul\":1743:1791   */\n      mstore\n        /* \"#utility.yul\":1808:1886   */\n      tag_75\n        /* \"#utility.yul\":1881:1885   */\n      dup2\n        /* \"#utility.yul\":1872:1878   */\n      dup6\n        /* \"#utility.yul\":1808:1886   */\n      tag_31\n      jump\t// in\n    tag_75:\n        /* \"#utility.yul\":1800:1886   */\n      swap1\n      pop\n        /* \"#utility.yul\":1896:1969   */\n      tag_76\n        /* \"#utility.yul\":1964:1967   */\n      0x80\n        /* \"#utility.yul\":1953:1962   */\n      dup4\n        /* \"#utility.yul\":1949:1968   */\n      add\n        /* \"#utility.yul\":1940:1946   */\n      dup5\n        /* \"#utility.yul\":1896:1969   */\n      tag_33\n      jump\t// in\n    tag_76:\n        /* \"#utility.yul\":1130:1976   */\n      swap7\n      swap6\n      pop\n      pop\n      pop\n      pop\n      pop\n      pop\n      jump\t// out\n        /* \"#utility.yul\":1982:2150   */\n    tag_34:\n        /* \"#utility.yul\":2122:2142   */\n      0x536861696c657368205461676164676861720000000000000000000000000000\n        /* \"#utility.yul\":2118:2119   */\n      0x00\n        /* \"#utility.yul\":2110:2116   */\n      dup3\n        /* \"#utility.yul\":2106:2120   */\n      add\n        /* \"#utility.yul\":2099:2143   */\n      mstore\n        /* \"#utility.yul\":1982:2150   */\n      pop\n      jump\t// out\n        /* \"#utility.yul\":2156:2522   */\n    tag_35:\n        /* \"#utility.yul\":2298:2301   */\n      0x00\n        /* \"#utility.yul\":2319:2386   */\n      tag_79\n        /* \"#utility.yul\":2383:2385   */\n      0x12\n        /* \"#utility.yul\":2378:2381   */\n      dup4\n        /* \"#utility.yul\":2319:2386   */\n      tag_28\n      jump\t// in\n    tag_79:\n        /* \"#utility.yul\":2312:2386   */\n      swap2\n      pop\n        /* \"#utility.yul\":2395:2488   */\n      tag_80\n        /* \"#utility.yul\":2484:2487   */\n      dup3\n        /* \"#utility.yul\":2395:2488   */\n      tag_34\n      jump\t// in\n    tag_80:\n        /* \"#utility.yul\":2513:2515   */\n      0x20\n        /* \"#utility.yul\":2508:2511   */\n      dup3\n        /* \"#utility.yul\":2504:2516   */\n      add\n        /* \"#utility.yul\":2497:2516   */\n      swap1\n      pop\n        /* \"#utility.yul\":2156:2522   */\n      swap2\n      swap1\n      pop\n      jump\t// out\n        /* \"#utility.yul\":2528:2615   */\n    tag_36:\n        /* \"#utility.yul\":2575:2582   */\n      0x00\n        /* \"#utility.yul\":2604:2609   */\n      dup2\n        /* \"#utility.yul\":2593:2609   */\n      swap1\n      pop\n        /* \"#utility.yul\":2528:2615   */\n      swap2\n      swap1\n      pop\n      jump\t// out\n        /* \"#utility.yul\":2621:2681   */\n    tag_37:\n        /* \"#utility.yul\":2649:2652   */\n      0x00\n        /* \"#utility.yul\":2670:2675   */\n      dup2\n        /* \"#utility.yul\":2663:2675   */\n      swap1\n      pop\n        /* \"#utility.yul\":2621:2681   */\n      swap2\n      swap1\n      pop\n      jump\t// out\n        /* \"#utility.yul\":2687:2849   */\n    tag_38:\n        /* \"#utility.yul\":2747:2756   */\n      0x00\n        /* \"#utility.yul\":2780:2843   */\n      tag_84\n        /* \"#utility.yul\":2798:2842   */\n      tag_85\n        /* \"#utility.yul\":2807:2841   */\n      tag_86\n        /* \"#utility.yul\":2835:2840   */\n      dup5\n        /* \"#utility.yul\":2807:2841   */\n      tag_36\n      jump\t// in\n    tag_86:\n        /* \"#utility.yul\":2798:2842   */\n      tag_37\n      jump\t// in\n    tag_85:\n        /* \"#utility.yul\":2780:2843   */\n      tag_32\n      jump\t// in\n    tag_84:\n        /* \"#utility.yul\":2767:2843   */\n      swap1\n      pop\n        /* \"#utility.yul\":2687:2849   */\n      swap2\n      swap1\n      pop\n      jump\t// out\n        /* \"#utility.yul\":2855:3006   */\n    tag_39:\n        /* \"#utility.yul\":2952:2999   */\n      tag_88\n        /* \"#utility.yul\":2993:2998   */\n      dup2\n        /* \"#utility.yul\":2952:2999   */\n      tag_38\n      jump\t// in\n    tag_88:\n        /* \"#utility.yul\":2947:2950   */\n      dup3\n        /* \"#utility.yul\":2940:3000   */\n      mstore\n        /* \"#utility.yul\":2855:3006   */\n      pop\n      pop\n      jump\t// out\n        /* \"#utility.yul\":3012:3101   */\n    tag_40:\n        /* \"#utility.yul\":3061:3068   */\n      0x00\n        /* \"#utility.yul\":3090:3095   */\n      dup2\n        /* \"#utility.yul\":3079:3095   */\n      swap1\n      pop\n        /* \"#utility.yul\":3012:3101   */\n      swap2\n      swap1\n      pop\n      jump\t// out\n        /* \"#utility.yul\":3107:3273   */\n    tag_41:\n        /* \"#utility.yul\":3169:3178   */\n      0x00\n        /* \"#utility.yul\":3202:3267   */\n      tag_91\n        /* \"#utility.yul\":3220:3266   */\n      tag_92\n        /* \"#utility.yul\":3229:3265   */\n      tag_93\n        /* \"#utility.yul\":3259:3264   */\n      dup5\n        /* \"#utility.yul\":3229:3265   */\n      tag_40\n      jump\t// in\n    tag_93:\n        /* \"#utility.yul\":3220:3266   */\n      tag_37\n      jump\t// in\n    tag_92:\n        /* \"#utility.yul\":3202:3267   */\n      tag_32\n      jump\t// in\n    tag_91:\n        /* \"#utility.yul\":3189:3267   */\n      swap1\n      pop\n        /* \"#utility.yul\":3107:3273   */\n      swap2\n      swap1\n      pop\n      jump\t// out\n        /* \"#utility.yul\":3279:3434   */\n    tag_42:\n        /* \"#utility.yul\":3378:3427   */\n      tag_95\n        /* \"#utility.yul\":3421:3426   */\n      dup2\n        /* \"#utility.yul\":3378:3427   */\n      tag_41\n      jump\t// in\n    tag_95:\n        /* \"#utility.yul\":3373:3376   */\n      dup3\n        /* \"#utility.yul\":3366:3428   */\n      mstore\n        /* \"#utility.yul\":3279:3434   */\n      pop\n      pop\n      jump\t// out\n        /* \"#utility.yul\":3440:4123   */\n    tag_10:\n        /* \"#utility.yul\":3684:3688   */\n      0x00\n        /* \"#utility.yul\":3722:3724   */\n      0x60\n        /* \"#utility.yul\":3711:3720   */\n      dup3\n        /* \"#utility.yul\":3707:3725   */\n      add\n        /* \"#utility.yul\":3699:3725   */\n      swap1\n      pop\n        /* \"#utility.yul\":3771:3780   */\n      dup2\n        /* \"#utility.yul\":3765:3769   */\n      dup2\n        /* \"#utility.yul\":3761:3781   */\n      sub\n        /* \"#utility.yul\":3757:3758   */\n      0x00\n        /* \"#utility.yul\":3746:3755   */\n      dup4\n        /* \"#utility.yul\":3742:3759   */\n      add\n        /* \"#utility.yul\":3735:3782   */\n      mstore\n        /* \"#utility.yul\":3799:3930   */\n      tag_97\n        /* \"#utility.yul\":3925:3929   */\n      dup2\n        /* \"#utility.yul\":3799:3930   */\n      tag_35\n      jump\t// in\n    tag_97:\n        /* \"#utility.yul\":3791:3930   */\n      swap1\n      pop\n        /* \"#utility.yul\":3940:4022   */\n      tag_98\n        /* \"#utility.yul\":4018:4020   */\n      0x20\n        /* \"#utility.yul\":4007:4016   */\n      dup4\n        /* \"#utility.yul\":4003:4021   */\n      add\n        /* \"#utility.yul\":3994:4000   */\n      dup6\n        /* \"#utility.yul\":3940:4022   */\n      tag_39\n      jump\t// in\n    tag_98:\n        /* \"#utility.yul\":4032:4116   */\n      tag_99\n        /* \"#utility.yul\":4112:4114   */\n      0x40\n        /* \"#utility.yul\":4101:4110   */\n      dup4\n        /* \"#utility.yul\":4097:4115   */\n      add\n        /* \"#utility.yul\":4088:4094   */\n      dup5\n        /* \"#utility.yul\":4032:4116   */\n      tag_42\n      jump\t// in\n    tag_99:\n        /* \"#utility.yul\":3440:4123   */\n      swap4\n      swap3\n      pop\n      pop\n      pop\n      jump\t// out\n        /* \"#utility.yul\":4129:4281   */\n    tag_43:\n        /* \"#utility.yul\":4269:4273   */\n      0x4353000000000000000000000000000000000000000000000000000000000000\n        /* \"#utility.yul\":4265:4266   */\n      0x00\n        /* \"#utility.yul\":4257:4263   */\n      dup3\n        /* \"#utility.yul\":4253:4267   */\n      add\n        /* \"#utility.yul\":4246:4274   */\n      mstore\n        /* \"#utility.yul\":4129:4281   */\n      pop\n      jump\t// out\n        /* \"#utility.yul\":4287:4652   */\n    tag_44:\n        /* \"#utility.yul\":4429:4432   */\n      0x00\n        /* \"#utility.yul\":4450:4516   */\n      tag_102\n        /* \"#utility.yul\":4514:4515   */\n      0x02\n        /* \"#utility.yul\":4509:4512   */\n      dup4\n        /* \"#utility.yul\":4450:4516   */\n      tag_28\n      jump\t// in\n    tag_102:\n        /* \"#utility.yul\":4443:4516   */\n      swap2\n      pop\n        /* \"#utility.yul\":4525:4618   */\n      tag_103\n        /* \"#utility.yul\":4614:4617   */\n      dup3\n        /* \"#utility.yul\":4525:4618   */\n      tag_43\n      jump\t// in\n    tag_103:\n        /* \"#utility.yul\":4643:4645   */\n      0x20\n        /* \"#utility.yul\":4638:4641   */\n      dup3\n        /* \"#utility.yul\":4634:4646   */\n      add\n        /* \"#utility.yul\":4627:4646   */\n      swap1\n      pop\n        /* \"#utility.yul\":4287:4652   */\n      swap2\n      swap1\n      pop\n      jump\t// out\n        /* \"#utility.yul\":4658:5077   */\n    tag_15:\n        /* \"#utility.yul\":4824:4828   */\n      0x00\n        /* \"#utility.yul\":4862:4864   */\n      0x20\n        /* \"#utility.yul\":4851:4860   */\n      dup3\n        /* \"#utility.yul\":4847:4865   */\n      add\n        /* \"#utility.yul\":4839:4865   */\n      swap1\n      pop\n        /* \"#utility.yul\":4911:4920   */\n      dup2\n        /* \"#utility.yul\":4905:4909   */\n      dup2\n        /* \"#utility.yul\":4901:4921   */\n      sub\n        /* \"#utility.yul\":4897:4898   */\n      0x00\n        /* \"#utility.yul\":4886:4895   */\n      dup4\n        /* \"#utility.yul\":4882:4899   */\n      add\n        /* \"#utility.yul\":4875:4922   */\n      mstore\n        /* \"#utility.yul\":4939:5070   */\n      tag_105\n        /* \"#utility.yul\":5065:5069   */\n      dup2\n        /* \"#utility.yul\":4939:5070   */\n      tag_44\n      jump\t// in\n    tag_105:\n        /* \"#utility.yul\":4931:5070   */\n      swap1\n      pop\n        /* \"#utility.yul\":4658:5077   */\n      swap2\n      swap1\n      pop\n      jump\t// out\n        /* \"#utility.yul\":5083:5158   */\n    tag_45:\n        /* \"#utility.yul\":5116:5122   */\n      0x00\n        /* \"#utility.yul\":5149:5151   */\n      0x40\n        /* \"#utility.yul\":5143:5152   */\n      mload\n        /* \"#utility.yul\":5133:5152   */\n      swap1\n      pop\n        /* \"#utility.yul\":5083:5158   */\n      swap1\n      jump\t// out\n        /* \"#utility.yul\":5164:5281   */\n    tag_46:\n        /* \"#utility.yul\":5273:5274   */\n      0x00\n        /* \"#utility.yul\":5270:5271   */\n      dup1\n        /* \"#utility.yul\":5263:5275   */\n      revert\n        /* \"#utility.yul\":5287:5404   */\n    tag_47:\n        /* \"#utility.yul\":5396:5397   */\n      0x00\n        /* \"#utility.yul\":5393:5394   */\n      dup1\n        /* \"#utility.yul\":5386:5398   */\n      revert\n        /* \"#utility.yul\":5410:5532   */\n    tag_48:\n        /* \"#utility.yul\":5483:5507   */\n      tag_110\n        /* \"#utility.yul\":5501:5506   */\n      dup2\n        /* \"#utility.yul\":5483:5507   */\n      tag_32\n      jump\t// in\n    tag_110:\n        /* \"#utility.yul\":5476:5481   */\n      dup2\n        /* \"#utility.yul\":5473:5508   */\n      eq\n        /* \"#utility.yul\":5463:5526   */\n      tag_111\n      jumpi\n        /* \"#utility.yul\":5522:5523   */\n      0x00\n        /* \"#utility.yul\":5519:5520   */\n      dup1\n        /* \"#utility.yul\":5512:5524   */\n      revert\n        /* \"#utility.yul\":5463:5526   */\n    tag_111:\n        /* \"#utility.yul\":5410:5532   */\n      pop\n      jump\t// out\n        /* \"#utility.yul\":5538:5681   */\n    tag_49:\n        /* \"#utility.yul\":5595:5600   */\n      0x00\n        /* \"#utility.yul\":5626:5632   */\n      dup2\n        /* \"#utility.yul\":5620:5633   */\n      mload\n        /* \"#utility.yul\":5611:5633   */\n      swap1\n      pop\n        /* \"#utility.yul\":5642:5675   */\n      tag_113\n        /* \"#utility.yul\":5669:5674   */\n      dup2\n        /* \"#utility.yul\":5642:5675   */\n      tag_48\n      jump\t// in\n    tag_113:\n        /* \"#utility.yul\":5538:5681   */\n      swap3\n      swap2\n      pop\n      pop\n      jump\t// out\n        /* \"#utility.yul\":5687:6038   */\n    tag_22:\n        /* \"#utility.yul\":5757:5763   */\n      0x00\n        /* \"#utility.yul\":5806:5808   */\n      0x20\n        /* \"#utility.yul\":5794:5803   */\n      dup3\n        /* \"#utility.yul\":5785:5792   */\n      dup5\n        /* \"#utility.yul\":5781:5804   */\n      sub\n        /* \"#utility.yul\":5777:5809   */\n      slt\n        /* \"#utility.yul\":5774:5893   */\n      iszero\n      tag_115\n      jumpi\n        /* \"#utility.yul\":5812:5891   */\n      tag_116\n      tag_46\n      jump\t// in\n    tag_116:\n        /* \"#utility.yul\":5774:5893   */\n    tag_115:\n        /* \"#utility.yul\":5932:5933   */\n      0x00\n        /* \"#utility.yul\":5957:6021   */\n      tag_117\n        /* \"#utility.yul\":6013:6020   */\n      dup5\n        /* \"#utility.yul\":6004:6010   */\n      dup3\n        /* \"#utility.yul\":5993:6002   */\n      dup6\n        /* \"#utility.yul\":5989:6011   */\n      add\n        /* \"#utility.yul\":5957:6021   */\n      tag_49\n      jump\t// in\n    tag_117:\n        /* \"#utility.yul\":5947:6021   */\n      swap2\n      pop\n        /* \"#utility.yul\":5903:6031   */\n      pop\n        /* \"#utility.yul\":5687:6038   */\n      swap3\n      swap2\n      pop\n      pop\n      jump\t// out\n        /* \"#utility.yul\":6044:6161   */\n    tag_50:\n        /* \"#utility.yul\":6153:6154   */\n      0x00\n        /* \"#utility.yul\":6150:6151   */\n      dup1\n        /* \"#utility.yul\":6143:6155   */\n      revert\n        /* \"#utility.yul\":6167:6284   */\n    tag_51:\n        /* \"#utility.yul\":6276:6277   */\n      0x00\n        /* \"#utility.yul\":6273:6274   */\n      dup1\n        /* \"#utility.yul\":6266:6278   */\n      revert\n        /* \"#utility.yul\":6290:6470   */\n    tag_52:\n        /* \"#utility.yul\":6338:6415   */\n      0x4e487b7100000000000000000000000000000000000000000000000000000000\n        /* \"#utility.yul\":6335:6336   */\n      0x00\n        /* \"#utility.yul\":6328:6416   */\n      mstore\n        /* \"#utility.yul\":6435:6439   */\n      0x41\n        /* \"#utility.yul\":6432:6433   */\n      0x04\n        /* \"#utility.yul\":6425:6440   */\n      mstore\n        /* \"#utility.yul\":6459:6463   */\n      0x24\n        /* \"#utility.yul\":6456:6457   */\n      0x00\n        /* \"#utility.yul\":6449:6464   */\n      revert\n        /* \"#utility.yul\":6476:6757   */\n    tag_53:\n        /* \"#utility.yul\":6559:6586   */\n      tag_122\n        /* \"#utility.yul\":6581:6585   */\n      dup3\n        /* \"#utility.yul\":6559:6586   */\n      tag_30\n      jump\t// in\n    tag_122:\n        /* \"#utility.yul\":6551:6557   */\n      dup2\n        /* \"#utility.yul\":6547:6587   */\n      add\n        /* \"#utility.yul\":6689:6695   */\n      dup2\n        /* \"#utility.yul\":6677:6687   */\n      dup2\n        /* \"#utility.yul\":6674:6696   */\n      lt\n        /* \"#utility.yul\":6653:6671   */\n      0xffffffffffffffff\n        /* \"#utility.yul\":6641:6651   */\n      dup3\n        /* \"#utility.yul\":6638:6672   */\n      gt\n        /* \"#utility.yul\":6635:6697   */\n      or\n        /* \"#utility.yul\":6632:6720   */\n      iszero\n      tag_123\n      jumpi\n        /* \"#utility.yul\":6700:6718   */\n      tag_124\n      tag_52\n      jump\t// in\n    tag_124:\n        /* \"#utility.yul\":6632:6720   */\n    tag_123:\n        /* \"#utility.yul\":6740:6750   */\n      dup1\n        /* \"#utility.yul\":6736:6738   */\n      0x40\n        /* \"#utility.yul\":6729:6751   */\n      mstore\n        /* \"#utility.yul\":6519:6757   */\n      pop\n        /* \"#utility.yul\":6476:6757   */\n      pop\n      pop\n      jump\t// out\n        /* \"#utility.yul\":6763:6892   */\n    tag_54:\n        /* \"#utility.yul\":6797:6803   */\n      0x00\n        /* \"#utility.yul\":6824:6844   */\n      tag_126\n      tag_45\n      jump\t// in\n    tag_126:\n        /* \"#utility.yul\":6814:6844   */\n      swap1\n      pop\n        /* \"#utility.yul\":6853:6886   */\n      tag_127\n        /* \"#utility.yul\":6881:6885   */\n      dup3\n        /* \"#utility.yul\":6873:6879   */\n      dup3\n        /* \"#utility.yul\":6853:6886   */\n      tag_53\n      jump\t// in\n    tag_127:\n        /* \"#utility.yul\":6763:6892   */\n      swap2\n      swap1\n      pop\n      jump\t// out\n        /* \"#utility.yul\":6898:7206   */\n    tag_55:\n        /* \"#utility.yul\":6960:6964   */\n      0x00\n        /* \"#utility.yul\":7050:7068   */\n      0xffffffffffffffff\n        /* \"#utility.yul\":7042:7048   */\n      dup3\n        /* \"#utility.yul\":7039:7069   */\n      gt\n        /* \"#utility.yul\":7036:7092   */\n      iszero\n      tag_129\n      jumpi\n        /* \"#utility.yul\":7072:7090   */\n      tag_130\n      tag_52\n      jump\t// in\n    tag_130:\n        /* \"#utility.yul\":7036:7092   */\n    tag_129:\n        /* \"#utility.yul\":7110:7139   */\n      tag_131\n        /* \"#utility.yul\":7132:7138   */\n      dup3\n        /* \"#utility.yul\":7110:7139   */\n      tag_30\n      jump\t// in\n    tag_131:\n        /* \"#utility.yul\":7102:7139   */\n      swap1\n      pop\n        /* \"#utility.yul\":7194:7198   */\n      0x20\n        /* \"#utility.yul\":7188:7192   */\n      dup2\n        /* \"#utility.yul\":7184:7199   */\n      add\n        /* \"#utility.yul\":7176:7199   */\n      swap1\n      pop\n        /* \"#utility.yul\":6898:7206   */\n      swap2\n      swap1\n      pop\n      jump\t// out\n        /* \"#utility.yul\":7212:7646   */\n    tag_56:\n        /* \"#utility.yul\":7301:7306   */\n      0x00\n        /* \"#utility.yul\":7326:7392   */\n      tag_133\n        /* \"#utility.yul\":7342:7391   */\n      tag_134\n        /* \"#utility.yul\":7384:7390   */\n      dup5\n        /* \"#utility.yul\":7342:7391   */\n      tag_55\n      jump\t// in\n    tag_134:\n        /* \"#utility.yul\":7326:7392   */\n      tag_54\n      jump\t// in\n    tag_133:\n        /* \"#utility.yul\":7317:7392   */\n      swap1\n      pop\n        /* \"#utility.yul\":7415:7421   */\n      dup3\n        /* \"#utility.yul\":7408:7413   */\n      dup2\n        /* \"#utility.yul\":7401:7422   */\n      mstore\n        /* \"#utility.yul\":7453:7457   */\n      0x20\n        /* \"#utility.yul\":7446:7451   */\n      dup2\n        /* \"#utility.yul\":7442:7458   */\n      add\n        /* \"#utility.yul\":7491:7494   */\n      dup5\n        /* \"#utility.yul\":7482:7488   */\n      dup5\n        /* \"#utility.yul\":7477:7480   */\n      dup5\n        /* \"#utility.yul\":7473:7489   */\n      add\n        /* \"#utility.yul\":7470:7495   */\n      gt\n        /* \"#utility.yul\":7467:7579   */\n      iszero\n      tag_135\n      jumpi\n        /* \"#utility.yul\":7498:7577   */\n      tag_136\n      tag_51\n      jump\t// in\n    tag_136:\n        /* \"#utility.yul\":7467:7579   */\n    tag_135:\n        /* \"#utility.yul\":7588:7640   */\n      tag_137\n        /* \"#utility.yul\":7633:7639   */\n      dup5\n        /* \"#utility.yul\":7628:7631   */\n      dup3\n        /* \"#utility.yul\":7623:7626   */\n      dup6\n        /* \"#utility.yul\":7588:7640   */\n      tag_29\n      jump\t// in\n    tag_137:\n        /* \"#utility.yul\":7307:7646   */\n      pop\n        /* \"#utility.yul\":7212:7646   */\n      swap4\n      swap3\n      pop\n      pop\n      pop\n      jump\t// out\n        /* \"#utility.yul\":7666:8021   */\n    tag_57:\n        /* \"#utility.yul\":7733:7738   */\n      0x00\n        /* \"#utility.yul\":7782:7785   */\n      dup3\n        /* \"#utility.yul\":7775:7779   */\n      0x1f\n        /* \"#utility.yul\":7767:7773   */\n      dup4\n        /* \"#utility.yul\":7763:7780   */\n      add\n        /* \"#utility.yul\":7759:7786   */\n      slt\n        /* \"#utility.yul\":7749:7871   */\n      tag_139\n      jumpi\n        /* \"#utility.yul\":7790:7869   */\n      tag_140\n      tag_50\n      jump\t// in\n    tag_140:\n        /* \"#utility.yul\":7749:7871   */\n    tag_139:\n        /* \"#utility.yul\":7900:7906   */\n      dup2\n        /* \"#utility.yul\":7894:7907   */\n      mload\n        /* \"#utility.yul\":7925:8015   */\n      tag_141\n        /* \"#utility.yul\":8011:8014   */\n      dup5\n        /* \"#utility.yul\":8003:8009   */\n      dup3\n        /* \"#utility.yul\":7996:8000   */\n      0x20\n        /* \"#utility.yul\":7988:7994   */\n      dup7\n        /* \"#utility.yul\":7984:8001   */\n      add\n        /* \"#utility.yul\":7925:8015   */\n      tag_56\n      jump\t// in\n    tag_141:\n        /* \"#utility.yul\":7916:8015   */\n      swap2\n      pop\n        /* \"#utility.yul\":7739:8021   */\n      pop\n        /* \"#utility.yul\":7666:8021   */\n      swap3\n      swap2\n      pop\n      pop\n      jump\t// out\n        /* \"#utility.yul\":8027:9350   */\n    tag_26:\n        /* \"#utility.yul\":8153:8159   */\n      0x00\n        /* \"#utility.yul\":8161:8167   */\n      dup1\n        /* \"#utility.yul\":8169:8175   */\n      0x00\n        /* \"#utility.yul\":8177:8183   */\n      dup1\n        /* \"#utility.yul\":8185:8191   */\n      0x00\n        /* \"#utility.yul\":8234:8237   */\n      0xa0\n        /* \"#utility.yul\":8222:8231   */\n      dup7\n        /* \"#utility.yul\":8213:8220   */\n      dup9\n        /* \"#utility.yul\":8209:8232   */\n      sub\n        /* \"#utility.yul\":8205:8238   */\n      slt\n        /* \"#utility.yul\":8202:8322   */\n      iszero\n      tag_143\n      jumpi\n        /* \"#utility.yul\":8241:8320   */\n      tag_144\n      tag_46\n      jump\t// in\n    tag_144:\n        /* \"#utility.yul\":8202:8322   */\n    tag_143:\n        /* \"#utility.yul\":8382:8383   */\n      0x00\n        /* \"#utility.yul\":8371:8380   */\n      dup7\n        /* \"#utility.yul\":8367:8384   */\n      add\n        /* \"#utility.yul\":8361:8385   */\n      mload\n        /* \"#utility.yul\":8412:8430   */\n      0xffffffffffffffff\n        /* \"#utility.yul\":8404:8410   */\n      dup2\n        /* \"#utility.yul\":8401:8431   */\n      gt\n        /* \"#utility.yul\":8398:8515   */\n      iszero\n      tag_145\n      jumpi\n        /* \"#utility.yul\":8434:8513   */\n      tag_146\n      tag_47\n      jump\t// in\n    tag_146:\n        /* \"#utility.yul\":8398:8515   */\n    tag_145:\n        /* \"#utility.yul\":8539:8613   */\n      tag_147\n        /* \"#utility.yul\":8605:8612   */\n      dup9\n        /* \"#utility.yul\":8596:8602   */\n      dup3\n        /* \"#utility.yul\":8585:8594   */\n      dup10\n        /* \"#utility.yul\":8581:8603   */\n      add\n        /* \"#utility.yul\":8539:8613   */\n      tag_57\n      jump\t// in\n    tag_147:\n        /* \"#utility.yul\":8529:8613   */\n      swap6\n      pop\n        /* \"#utility.yul\":8332:8623   */\n      pop\n        /* \"#utility.yul\":8662:8664   */\n      0x20\n        /* \"#utility.yul\":8688:8752   */\n      tag_148\n        /* \"#utility.yul\":8744:8751   */\n      dup9\n        /* \"#utility.yul\":8735:8741   */\n      dup3\n        /* \"#utility.yul\":8724:8733   */\n      dup10\n        /* \"#utility.yul\":8720:8742   */\n      add\n        /* \"#utility.yul\":8688:8752   */\n      tag_49\n      jump\t// in\n    tag_148:\n        /* \"#utility.yul\":8678:8752   */\n      swap5\n      pop\n        /* \"#utility.yul\":8633:8762   */\n      pop\n        /* \"#utility.yul\":8801:8803   */\n      0x40\n        /* \"#utility.yul\":8827:8891   */\n      tag_149\n        /* \"#utility.yul\":8883:8890   */\n      dup9\n        /* \"#utility.yul\":8874:8880   */\n      dup3\n        /* \"#utility.yul\":8863:8872   */\n      dup10\n        /* \"#utility.yul\":8859:8881   */\n      add\n        /* \"#utility.yul\":8827:8891   */\n      tag_49\n      jump\t// in\n    tag_149:\n        /* \"#utility.yul\":8817:8891   */\n      swap4\n      pop\n        /* \"#utility.yul\":8772:8901   */\n      pop\n        /* \"#utility.yul\":8961:8963   */\n      0x60\n        /* \"#utility.yul\":8950:8959   */\n      dup7\n        /* \"#utility.yul\":8946:8964   */\n      add\n        /* \"#utility.yul\":8940:8965   */\n      mload\n        /* \"#utility.yul\":8992:9010   */\n      0xffffffffffffffff\n        /* \"#utility.yul\":8984:8990   */\n      dup2\n        /* \"#utility.yul\":8981:9011   */\n      gt\n        /* \"#utility.yul\":8978:9095   */\n      iszero\n      tag_150\n      jumpi\n        /* \"#utility.yul\":9014:9093   */\n      tag_151\n      tag_47\n      jump\t// in\n    tag_151:\n        /* \"#utility.yul\":8978:9095   */\n    tag_150:\n        /* \"#utility.yul\":9119:9193   */\n      tag_152\n        /* \"#utility.yul\":9185:9192   */\n      dup9\n        /* \"#utility.yul\":9176:9182   */\n      dup3\n        /* \"#utility.yul\":9165:9174   */\n      dup10\n        /* \"#utility.yul\":9161:9183   */\n      add\n        /* \"#utility.yul\":9119:9193   */\n      tag_57\n      jump\t// in\n    tag_152:\n        /* \"#utility.yul\":9109:9193   */\n      swap3\n      pop\n        /* \"#utility.yul\":8911:9203   */\n      pop\n        /* \"#utility.yul\":9242:9245   */\n      0x80\n        /* \"#utility.yul\":9269:9333   */\n      tag_153\n        /* \"#utility.yul\":9325:9332   */\n      dup9\n        /* \"#utility.yul\":9316:9322   */\n      dup3\n        /* \"#utility.yul\":9305:9314   */\n      dup10\n        /* \"#utility.yul\":9301:9323   */\n      add\n        /* \"#utility.yul\":9269:9333   */\n      tag_49\n      jump\t// in\n    tag_153:\n        /* \"#utility.yul\":9259:9333   */\n      swap2\n      pop\n        /* \"#utility.yul\":9213:9343   */\n      pop\n        /* \"#utility.yul\":8027:9350   */\n      swap3\n      swap6\n      pop\n      swap3\n      swap6\n      swap1\n      swap4\n      pop\n      jump\t// out\n\n    auxdata: 0xa2646970667358221220df1292323ddf7379176e7de29833edbfeacbff04320cf2d05880c654924530e464736f6c634300081a0033\n}\n\nsub_1: assembly {\n        /* \"contracts/Practical 10/MultipleInheritance.sol\":445:991  contract salary is employee, department {... */\n      mstore(0x40, 0x80)\n      callvalue\n      dup1\n      iszero\n      tag_1\n      jumpi\n      0x00\n      dup1\n      revert\n    tag_1:\n      pop\n      dataSize(sub_0)\n      dup1\n      dataOffset(sub_0)\n      0x00\n      codecopy\n      0x00\n      return\n    stop\n\n    sub_0: assembly {\n            /* \"contracts/Practical 10/MultipleInheritance.sol\":445:991  contract salary is employee, department {... */\n          mstore(0x40, 0x80)\n          callvalue\n          dup1\n          iszero\n          tag_1\n          jumpi\n          0x00\n          dup1\n          revert\n        tag_1:\n          pop\n          jumpi(tag_2, lt(calldatasize, 0x04))\n          shr(0xe0, calldataload(0x00))\n          dup1\n          0x844ceb4c\n          eq\n          tag_3\n          jumpi\n          dup1\n          0xa04f1bb7\n          eq\n          tag_4\n          jumpi\n          dup1\n          0xdc164840\n          eq\n          tag_5\n          jumpi\n          dup1\n          0xe1cb0e52\n          eq\n          tag_6\n          jumpi\n        tag_2:\n          0x00\n          dup1\n          revert\n            /* \"contracts/Practical 10/MultipleInheritance.sol\":509:742  function calHRA() public returns (uint256) {... */\n        tag_3:\n          tag_7\n          tag_8\n          jump\t// in\n        tag_7:\n          mload(0x40)\n          tag_9\n          swap2\n          swap1\n          tag_10\n          jump\t// in\n        tag_9:\n          mload(0x40)\n          dup1\n          swap2\n          sub\n          swap1\n          return\n            /* \"contracts/Practical 10/MultipleInheritance.sol\":379:441  function setD(string memory a) public {... */\n        tag_4:\n          tag_11\n          0x04\n          dup1\n          calldatasize\n          sub\n          dup2\n          add\n          swap1\n          tag_12\n          swap2\n          swap1\n          tag_13\n          jump\t// in\n        tag_12:\n          tag_14\n          jump\t// in\n        tag_11:\n          stop\n            /* \"contracts/Practical 10/MultipleInheritance.sol\":186:332  function setE(... */\n        tag_5:\n          tag_15\n          0x04\n          dup1\n          calldatasize\n          sub\n          dup2\n          add\n          swap1\n          tag_16\n          swap2\n          swap1\n          tag_17\n          jump\t// in\n        tag_16:\n          tag_18\n          jump\t// in\n        tag_15:\n          stop\n            /* \"contracts/Practical 10/MultipleInheritance.sol\":748:989  function getVal()... */\n        tag_6:\n          tag_19\n          tag_20\n          jump\t// in\n        tag_19:\n          mload(0x40)\n          tag_21\n          swap6\n          swap5\n          swap4\n          swap3\n          swap2\n          swap1\n          tag_22\n          jump\t// in\n        tag_21:\n          mload(0x40)\n          dup1\n          swap2\n          sub\n          swap1\n          return\n            /* \"contracts/Practical 10/MultipleInheritance.sol\":509:742  function calHRA() public returns (uint256) {... */\n        tag_8:\n            /* \"contracts/Practical 10/MultipleInheritance.sol\":543:550  uint256 */\n          0x00\n            /* \"contracts/Practical 10/MultipleInheritance.sol\":573:578  15000 */\n          0x3a98\n            /* \"contracts/Practical 10/MultipleInheritance.sol\":566:569  sal */\n          sload(0x02)\n            /* \"contracts/Practical 10/MultipleInheritance.sol\":566:578  sal >= 15000 */\n          lt\n            /* \"contracts/Practical 10/MultipleInheritance.sol\":562:716  if (sal >= 15000) {... */\n          tag_24\n          jumpi\n            /* \"contracts/Practical 10/MultipleInheritance.sol\":600:604  5000 */\n          0x1388\n            /* \"contracts/Practical 10/MultipleInheritance.sol\":594:597  HRA */\n          0x04\n            /* \"contracts/Practical 10/MultipleInheritance.sol\":594:604  HRA = 5000 */\n          dup2\n          swap1\n          sstore\n          pop\n            /* \"contracts/Practical 10/MultipleInheritance.sol\":562:716  if (sal >= 15000) {... */\n          jump(tag_25)\n        tag_24:\n            /* \"contracts/Practical 10/MultipleInheritance.sol\":632:637  25000 */\n          0x61a8\n            /* \"contracts/Practical 10/MultipleInheritance.sol\":625:628  sal */\n          sload(0x02)\n            /* \"contracts/Practical 10/MultipleInheritance.sol\":625:637  sal >= 25000 */\n          lt\n            /* \"contracts/Practical 10/MultipleInheritance.sol\":621:716  if (sal >= 25000) {... */\n          tag_26\n          jumpi\n            /* \"contracts/Practical 10/MultipleInheritance.sol\":659:664  10000 */\n          0x2710\n            /* \"contracts/Practical 10/MultipleInheritance.sol\":653:656  HRA */\n          0x04\n            /* \"contracts/Practical 10/MultipleInheritance.sol\":653:664  HRA = 10000 */\n          dup2\n          swap1\n          sstore\n          pop\n            /* \"contracts/Practical 10/MultipleInheritance.sol\":621:716  if (sal >= 25000) {... */\n          jump(tag_27)\n        tag_26:\n            /* \"contracts/Practical 10/MultipleInheritance.sol\":701:705  2000 */\n          0x07d0\n            /* \"contracts/Practical 10/MultipleInheritance.sol\":695:698  HRA */\n          0x04\n            /* \"contracts/Practical 10/MultipleInheritance.sol\":695:705  HRA = 2000 */\n          dup2\n          swap1\n          sstore\n          pop\n            /* \"contracts/Practical 10/MultipleInheritance.sol\":621:716  if (sal >= 25000) {... */\n        tag_27:\n            /* \"contracts/Practical 10/MultipleInheritance.sol\":562:716  if (sal >= 15000) {... */\n        tag_25:\n            /* \"contracts/Practical 10/MultipleInheritance.sol\":732:735  HRA */\n          sload(0x04)\n            /* \"contracts/Practical 10/MultipleInheritance.sol\":725:735  return HRA */\n          swap1\n          pop\n            /* \"contracts/Practical 10/MultipleInheritance.sol\":509:742  function calHRA() public returns (uint256) {... */\n          swap1\n          jump\t// out\n            /* \"contracts/Practical 10/MultipleInheritance.sol\":379:441  function setD(string memory a) public {... */\n        tag_14:\n            /* \"contracts/Practical 10/MultipleInheritance.sol\":433:434  a */\n          dup1\n            /* \"contracts/Practical 10/MultipleInheritance.sol\":427:430  dep */\n          0x03\n            /* \"contracts/Practical 10/MultipleInheritance.sol\":427:434  dep = a */\n          swap1\n          dup2\n          tag_29\n          swap2\n          swap1\n          tag_30\n          jump\t// in\n        tag_29:\n          pop\n            /* \"contracts/Practical 10/MultipleInheritance.sol\":379:441  function setD(string memory a) public {... */\n          pop\n          jump\t// out\n            /* \"contracts/Practical 10/MultipleInheritance.sol\":186:332  function setE(... */\n        tag_18:\n            /* \"contracts/Practical 10/MultipleInheritance.sol\":290:291  a */\n          dup3\n            /* \"contracts/Practical 10/MultipleInheritance.sol\":286:287  n */\n          0x00\n            /* \"contracts/Practical 10/MultipleInheritance.sol\":286:291  n = a */\n          swap1\n          dup2\n          tag_32\n          swap2\n          swap1\n          tag_30\n          jump\t// in\n        tag_32:\n          pop\n            /* \"contracts/Practical 10/MultipleInheritance.sol\":307:308  b */\n          dup2\n            /* \"contracts/Practical 10/MultipleInheritance.sol\":301:304  mid */\n          0x01\n            /* \"contracts/Practical 10/MultipleInheritance.sol\":301:308  mid = b */\n          dup2\n          swap1\n          sstore\n          pop\n            /* \"contracts/Practical 10/MultipleInheritance.sol\":324:325  c */\n          dup1\n            /* \"contracts/Practical 10/MultipleInheritance.sol\":318:321  sal */\n          0x02\n            /* \"contracts/Practical 10/MultipleInheritance.sol\":318:325  sal = c */\n          dup2\n          swap1\n          sstore\n          pop\n            /* \"contracts/Practical 10/MultipleInheritance.sol\":186:332  function setE(... */\n          pop\n          pop\n          pop\n          jump\t// out\n            /* \"contracts/Practical 10/MultipleInheritance.sol\":748:989  function getVal()... */\n        tag_20:\n            /* \"contracts/Practical 10/MultipleInheritance.sol\":824:837  string memory */\n          0x60\n            /* \"contracts/Practical 10/MultipleInheritance.sol\":851:858  uint256 */\n          0x00\n            /* \"contracts/Practical 10/MultipleInheritance.sol\":872:879  uint256 */\n          dup1\n            /* \"contracts/Practical 10/MultipleInheritance.sol\":893:906  string memory */\n          0x60\n            /* \"contracts/Practical 10/MultipleInheritance.sol\":920:927  uint256 */\n          0x00\n            /* \"contracts/Practical 10/MultipleInheritance.sol\":960:961  n */\n          dup1\n            /* \"contracts/Practical 10/MultipleInheritance.sol\":963:966  mid */\n          sload(0x01)\n            /* \"contracts/Practical 10/MultipleInheritance.sol\":968:971  sal */\n          sload(0x02)\n            /* \"contracts/Practical 10/MultipleInheritance.sol\":973:976  dep */\n          0x03\n            /* \"contracts/Practical 10/MultipleInheritance.sol\":978:981  HRA */\n          sload(0x04)\n            /* \"contracts/Practical 10/MultipleInheritance.sol\":952:982  return (n, mid, sal, dep, HRA) */\n          dup5\n          dup1\n          sload\n          tag_34\n          swap1\n          tag_35\n          jump\t// in\n        tag_34:\n          dup1\n          0x1f\n          add\n          0x20\n          dup1\n          swap2\n          div\n          mul\n          0x20\n          add\n          mload(0x40)\n          swap1\n          dup2\n          add\n          0x40\n          mstore\n          dup1\n          swap3\n          swap2\n          swap1\n          dup2\n          dup2\n          mstore\n          0x20\n          add\n          dup3\n          dup1\n          sload\n          tag_36\n          swap1\n          tag_35\n          jump\t// in\n        tag_36:\n          dup1\n          iszero\n          tag_37\n          jumpi\n          dup1\n          0x1f\n          lt\n          tag_38\n          jumpi\n          0x0100\n          dup1\n          dup4\n          sload\n          div\n          mul\n          dup4\n          mstore\n          swap2\n          0x20\n          add\n          swap2\n          jump(tag_37)\n        tag_38:\n          dup3\n          add\n          swap2\n          swap1\n          0x00\n          mstore\n          keccak256(0x00, 0x20)\n          swap1\n        tag_39:\n          dup2\n          sload\n          dup2\n          mstore\n          swap1\n          0x01\n          add\n          swap1\n          0x20\n          add\n          dup1\n          dup4\n          gt\n          tag_39\n          jumpi\n          dup3\n          swap1\n          sub\n          0x1f\n          and\n          dup3\n          add\n          swap2\n        tag_37:\n          pop\n          pop\n          pop\n          pop\n          pop\n          swap5\n          pop\n          dup2\n          dup1\n          sload\n          tag_40\n          swap1\n          tag_35\n          jump\t// in\n        tag_40:\n          dup1\n          0x1f\n          add\n          0x20\n          dup1\n          swap2\n          div\n          mul\n          0x20\n          add\n          mload(0x40)\n          swap1\n          dup2\n          add\n          0x40\n          mstore\n          dup1\n          swap3\n          swap2\n          swap1\n          dup2\n          dup2\n          mstore\n          0x20\n          add\n          dup3\n          dup1\n          sload\n          tag_41\n          swap1\n          tag_35\n          jump\t// in\n        tag_41:\n          dup1\n          iszero\n          tag_42\n          jumpi\n          dup1\n          0x1f\n          lt\n          tag_43\n          jumpi\n          0x0100\n          dup1\n          dup4\n          sload\n          div\n          mul\n          dup4\n          mstore\n          swap2\n          0x20\n          add\n          swap2\n          jump(tag_42)\n        tag_43:\n          dup3\n          add\n          swap2\n          swap1\n          0x00\n          mstore\n          keccak256(0x00, 0x20)\n          swap1\n        tag_44:\n          dup2\n          sload\n          dup2\n          mstore\n          swap1\n          0x01\n          add\n          swap1\n          0x20\n          add\n          dup1\n          dup4\n          gt\n          tag_44\n          jumpi\n          dup3\n          swap1\n          sub\n          0x1f\n          and\n          dup3\n          add\n          swap2\n        tag_42:\n          pop\n          pop\n          pop\n          pop\n          pop\n          swap2\n          pop\n          swap5\n          pop\n          swap5\n          pop\n          swap5\n          pop\n          swap5\n          pop\n          swap5\n          pop\n            /* \"contracts/Practical 10/MultipleInheritance.sol\":748:989  function getVal()... */\n          swap1\n          swap2\n          swap3\n          swap4\n          swap5\n          jump\t// out\n            /* \"#utility.yul\":7:84   */\n        tag_45:\n            /* \"#utility.yul\":44:51   */\n          0x00\n            /* \"#utility.yul\":73:78   */\n          dup2\n            /* \"#utility.yul\":62:78   */\n          swap1\n          pop\n            /* \"#utility.yul\":7:84   */\n          swap2\n          swap1\n          pop\n          jump\t// out\n            /* \"#utility.yul\":90:208   */\n        tag_46:\n            /* \"#utility.yul\":177:201   */\n          tag_85\n            /* \"#utility.yul\":195:200   */\n          dup2\n            /* \"#utility.yul\":177:201   */\n          tag_45\n          jump\t// in\n        tag_85:\n            /* \"#utility.yul\":172:175   */\n          dup3\n            /* \"#utility.yul\":165:202   */\n          mstore\n            /* \"#utility.yul\":90:208   */\n          pop\n          pop\n          jump\t// out\n            /* \"#utility.yul\":214:436   */\n        tag_10:\n            /* \"#utility.yul\":307:311   */\n          0x00\n            /* \"#utility.yul\":345:347   */\n          0x20\n            /* \"#utility.yul\":334:343   */\n          dup3\n            /* \"#utility.yul\":330:348   */\n          add\n            /* \"#utility.yul\":322:348   */\n          swap1\n          pop\n            /* \"#utility.yul\":358:429   */\n          tag_87\n            /* \"#utility.yul\":426:427   */\n          0x00\n            /* \"#utility.yul\":415:424   */\n          dup4\n            /* \"#utility.yul\":411:428   */\n          add\n            /* \"#utility.yul\":402:408   */\n          dup5\n            /* \"#utility.yul\":358:429   */\n          tag_46\n          jump\t// in\n        tag_87:\n            /* \"#utility.yul\":214:436   */\n          swap3\n          swap2\n          pop\n          pop\n          jump\t// out\n            /* \"#utility.yul\":442:517   */\n        tag_47:\n            /* \"#utility.yul\":475:481   */\n          0x00\n            /* \"#utility.yul\":508:510   */\n          0x40\n            /* \"#utility.yul\":502:511   */\n          mload\n            /* \"#utility.yul\":492:511   */\n          swap1\n          pop\n            /* \"#utility.yul\":442:517   */\n          swap1\n          jump\t// out\n            /* \"#utility.yul\":523:640   */\n        tag_48:\n            /* \"#utility.yul\":632:633   */\n          0x00\n            /* \"#utility.yul\":629:630   */\n          dup1\n            /* \"#utility.yul\":622:634   */\n          revert\n            /* \"#utility.yul\":646:763   */\n        tag_49:\n            /* \"#utility.yul\":755:756   */\n          0x00\n            /* \"#utility.yul\":752:753   */\n          dup1\n            /* \"#utility.yul\":745:757   */\n          revert\n            /* \"#utility.yul\":769:886   */\n        tag_50:\n            /* \"#utility.yul\":878:879   */\n          0x00\n            /* \"#utility.yul\":875:876   */\n          dup1\n            /* \"#utility.yul\":868:880   */\n          revert\n            /* \"#utility.yul\":892:1009   */\n        tag_51:\n            /* \"#utility.yul\":1001:1002   */\n          0x00\n            /* \"#utility.yul\":998:999   */\n          dup1\n            /* \"#utility.yul\":991:1003   */\n          revert\n            /* \"#utility.yul\":1015:1117   */\n        tag_52:\n            /* \"#utility.yul\":1056:1062   */\n          0x00\n            /* \"#utility.yul\":1107:1109   */\n          0x1f\n            /* \"#utility.yul\":1103:1110   */\n          not\n            /* \"#utility.yul\":1098:1100   */\n          0x1f\n            /* \"#utility.yul\":1091:1096   */\n          dup4\n            /* \"#utility.yul\":1087:1101   */\n          add\n            /* \"#utility.yul\":1083:1111   */\n          and\n            /* \"#utility.yul\":1073:1111   */\n          swap1\n          pop\n            /* \"#utility.yul\":1015:1117   */\n          swap2\n          swap1\n          pop\n          jump\t// out\n            /* \"#utility.yul\":1123:1303   */\n        tag_53:\n            /* \"#utility.yul\":1171:1248   */\n          0x4e487b7100000000000000000000000000000000000000000000000000000000\n            /* \"#utility.yul\":1168:1169   */\n          0x00\n            /* \"#utility.yul\":1161:1249   */\n          mstore\n            /* \"#utility.yul\":1268:1272   */\n          0x41\n            /* \"#utility.yul\":1265:1266   */\n          0x04\n            /* \"#utility.yul\":1258:1273   */\n          mstore\n            /* \"#utility.yul\":1292:1296   */\n          0x24\n            /* \"#utility.yul\":1289:1290   */\n          0x00\n            /* \"#utility.yul\":1282:1297   */\n          revert\n            /* \"#utility.yul\":1309:1590   */\n        tag_54:\n            /* \"#utility.yul\":1392:1419   */\n          tag_96\n            /* \"#utility.yul\":1414:1418   */\n          dup3\n            /* \"#utility.yul\":1392:1419   */\n          tag_52\n          jump\t// in\n        tag_96:\n            /* \"#utility.yul\":1384:1390   */\n          dup2\n            /* \"#utility.yul\":1380:1420   */\n          add\n            /* \"#utility.yul\":1522:1528   */\n          dup2\n            /* \"#utility.yul\":1510:1520   */\n          dup2\n            /* \"#utility.yul\":1507:1529   */\n          lt\n            /* \"#utility.yul\":1486:1504   */\n          0xffffffffffffffff\n            /* \"#utility.yul\":1474:1484   */\n          dup3\n            /* \"#utility.yul\":1471:1505   */\n          gt\n            /* \"#utility.yul\":1468:1530   */\n          or\n            /* \"#utility.yul\":1465:1553   */\n          iszero\n          tag_97\n          jumpi\n            /* \"#utility.yul\":1533:1551   */\n          tag_98\n          tag_53\n          jump\t// in\n        tag_98:\n            /* \"#utility.yul\":1465:1553   */\n        tag_97:\n            /* \"#utility.yul\":1573:1583   */\n          dup1\n            /* \"#utility.yul\":1569:1571   */\n          0x40\n            /* \"#utility.yul\":1562:1584   */\n          mstore\n            /* \"#utility.yul\":1352:1590   */\n          pop\n            /* \"#utility.yul\":1309:1590   */\n          pop\n          pop\n          jump\t// out\n            /* \"#utility.yul\":1596:1725   */\n        tag_55:\n            /* \"#utility.yul\":1630:1636   */\n          0x00\n            /* \"#utility.yul\":1657:1677   */\n          tag_100\n          tag_47\n          jump\t// in\n        tag_100:\n            /* \"#utility.yul\":1647:1677   */\n          swap1\n          pop\n            /* \"#utility.yul\":1686:1719   */\n          tag_101\n            /* \"#utility.yul\":1714:1718   */\n          dup3\n            /* \"#utility.yul\":1706:1712   */\n          dup3\n            /* \"#utility.yul\":1686:1719   */\n          tag_54\n          jump\t// in\n        tag_101:\n            /* \"#utility.yul\":1596:1725   */\n          swap2\n          swap1\n          pop\n          jump\t// out\n            /* \"#utility.yul\":1731:2039   */\n        tag_56:\n            /* \"#utility.yul\":1793:1797   */\n          0x00\n            /* \"#utility.yul\":1883:1901   */\n          0xffffffffffffffff\n            /* \"#utility.yul\":1875:1881   */\n          dup3\n            /* \"#utility.yul\":1872:1902   */\n          gt\n            /* \"#utility.yul\":1869:1925   */\n          iszero\n          tag_103\n          jumpi\n            /* \"#utility.yul\":1905:1923   */\n          tag_104\n          tag_53\n          jump\t// in\n        tag_104:\n            /* \"#utility.yul\":1869:1925   */\n        tag_103:\n            /* \"#utility.yul\":1943:1972   */\n          tag_105\n            /* \"#utility.yul\":1965:1971   */\n          dup3\n            /* \"#utility.yul\":1943:1972   */\n          tag_52\n          jump\t// in\n        tag_105:\n            /* \"#utility.yul\":1935:1972   */\n          swap1\n          pop\n            /* \"#utility.yul\":2027:2031   */\n          0x20\n            /* \"#utility.yul\":2021:2025   */\n          dup2\n            /* \"#utility.yul\":2017:2032   */\n          add\n            /* \"#utility.yul\":2009:2032   */\n          swap1\n          pop\n            /* \"#utility.yul\":1731:2039   */\n          swap2\n          swap1\n          pop\n          jump\t// out\n            /* \"#utility.yul\":2045:2193   */\n        tag_57:\n            /* \"#utility.yul\":2143:2149   */\n          dup3\n            /* \"#utility.yul\":2138:2141   */\n          dup2\n            /* \"#utility.yul\":2133:2136   */\n          dup4\n            /* \"#utility.yul\":2120:2150   */\n          calldatacopy\n            /* \"#utility.yul\":2184:2185   */\n          0x00\n            /* \"#utility.yul\":2175:2181   */\n          dup4\n            /* \"#utility.yul\":2170:2173   */\n          dup4\n            /* \"#utility.yul\":2166:2182   */\n          add\n            /* \"#utility.yul\":2159:2186   */\n          mstore\n            /* \"#utility.yul\":2045:2193   */\n          pop\n          pop\n          pop\n          jump\t// out\n            /* \"#utility.yul\":2199:2624   */\n        tag_58:\n            /* \"#utility.yul\":2277:2282   */\n          0x00\n            /* \"#utility.yul\":2302:2368   */\n          tag_108\n            /* \"#utility.yul\":2318:2367   */\n          tag_109\n            /* \"#utility.yul\":2360:2366   */\n          dup5\n            /* \"#utility.yul\":2318:2367   */\n          tag_56\n          jump\t// in\n        tag_109:\n            /* \"#utility.yul\":2302:2368   */\n          tag_55\n          jump\t// in\n        tag_108:\n            /* \"#utility.yul\":2293:2368   */\n          swap1\n          pop\n            /* \"#utility.yul\":2391:2397   */\n          dup3\n            /* \"#utility.yul\":2384:2389   */\n          dup2\n            /* \"#utility.yul\":2377:2398   */\n          mstore\n            /* \"#utility.yul\":2429:2433   */\n          0x20\n            /* \"#utility.yul\":2422:2427   */\n          dup2\n            /* \"#utility.yul\":2418:2434   */\n          add\n            /* \"#utility.yul\":2467:2470   */\n          dup5\n            /* \"#utility.yul\":2458:2464   */\n          dup5\n            /* \"#utility.yul\":2453:2456   */\n          dup5\n            /* \"#utility.yul\":2449:2465   */\n          add\n            /* \"#utility.yul\":2446:2471   */\n          gt\n            /* \"#utility.yul\":2443:2555   */\n          iszero\n          tag_110\n          jumpi\n            /* \"#utility.yul\":2474:2553   */\n          tag_111\n          tag_51\n          jump\t// in\n        tag_111:\n            /* \"#utility.yul\":2443:2555   */\n        tag_110:\n            /* \"#utility.yul\":2564:2618   */\n          tag_112\n            /* \"#utility.yul\":2611:2617   */\n          dup5\n            /* \"#utility.yul\":2606:2609   */\n          dup3\n            /* \"#utility.yul\":2601:2604   */\n          dup6\n            /* \"#utility.yul\":2564:2618   */\n          tag_57\n          jump\t// in\n        tag_112:\n            /* \"#utility.yul\":2283:2624   */\n          pop\n            /* \"#utility.yul\":2199:2624   */\n          swap4\n          swap3\n          pop\n          pop\n          pop\n          jump\t// out\n            /* \"#utility.yul\":2644:2984   */\n        tag_59:\n            /* \"#utility.yul\":2700:2705   */\n          0x00\n            /* \"#utility.yul\":2749:2752   */\n          dup3\n            /* \"#utility.yul\":2742:2746   */\n          0x1f\n            /* \"#utility.yul\":2734:2740   */\n          dup4\n            /* \"#utility.yul\":2730:2747   */\n          add\n            /* \"#utility.yul\":2726:2753   */\n          slt\n            /* \"#utility.yul\":2716:2838   */\n          tag_114\n          jumpi\n            /* \"#utility.yul\":2757:2836   */\n          tag_115\n          tag_50\n          jump\t// in\n        tag_115:\n            /* \"#utility.yul\":2716:2838   */\n        tag_114:\n            /* \"#utility.yul\":2874:2880   */\n          dup2\n            /* \"#utility.yul\":2861:2881   */\n          calldataload\n            /* \"#utility.yul\":2899:2978   */\n          tag_116\n            /* \"#utility.yul\":2974:2977   */\n          dup5\n            /* \"#utility.yul\":2966:2972   */\n          dup3\n            /* \"#utility.yul\":2959:2963   */\n          0x20\n            /* \"#utility.yul\":2951:2957   */\n          dup7\n            /* \"#utility.yul\":2947:2964   */\n          add\n            /* \"#utility.yul\":2899:2978   */\n          tag_58\n          jump\t// in\n        tag_116:\n            /* \"#utility.yul\":2890:2978   */\n          swap2\n          pop\n            /* \"#utility.yul\":2706:2984   */\n          pop\n            /* \"#utility.yul\":2644:2984   */\n          swap3\n          swap2\n          pop\n          pop\n          jump\t// out\n            /* \"#utility.yul\":2990:3499   */\n        tag_13:\n            /* \"#utility.yul\":3059:3065   */\n          0x00\n            /* \"#utility.yul\":3108:3110   */\n          0x20\n            /* \"#utility.yul\":3096:3105   */\n          dup3\n            /* \"#utility.yul\":3087:3094   */\n          dup5\n            /* \"#utility.yul\":3083:3106   */\n          sub\n            /* \"#utility.yul\":3079:3111   */\n          slt\n            /* \"#utility.yul\":3076:3195   */\n          iszero\n          tag_118\n          jumpi\n            /* \"#utility.yul\":3114:3193   */\n          tag_119\n          tag_48\n          jump\t// in\n        tag_119:\n            /* \"#utility.yul\":3076:3195   */\n        tag_118:\n            /* \"#utility.yul\":3262:3263   */\n          0x00\n            /* \"#utility.yul\":3251:3260   */\n          dup3\n            /* \"#utility.yul\":3247:3264   */\n          add\n            /* \"#utility.yul\":3234:3265   */\n          calldataload\n            /* \"#utility.yul\":3292:3310   */\n          0xffffffffffffffff\n            /* \"#utility.yul\":3284:3290   */\n          dup2\n            /* \"#utility.yul\":3281:3311   */\n          gt\n            /* \"#utility.yul\":3278:3395   */\n          iszero\n          tag_120\n          jumpi\n            /* \"#utility.yul\":3314:3393   */\n          tag_121\n          tag_49\n          jump\t// in\n        tag_121:\n            /* \"#utility.yul\":3278:3395   */\n        tag_120:\n            /* \"#utility.yul\":3419:3482   */\n          tag_122\n            /* \"#utility.yul\":3474:3481   */\n          dup5\n            /* \"#utility.yul\":3465:3471   */\n          dup3\n            /* \"#utility.yul\":3454:3463   */\n          dup6\n            /* \"#utility.yul\":3450:3472   */\n          add\n            /* \"#utility.yul\":3419:3482   */\n          tag_59\n          jump\t// in\n        tag_122:\n            /* \"#utility.yul\":3409:3482   */\n          swap2\n          pop\n            /* \"#utility.yul\":3205:3492   */\n          pop\n            /* \"#utility.yul\":2990:3499   */\n          swap3\n          swap2\n          pop\n          pop\n          jump\t// out\n            /* \"#utility.yul\":3505:3627   */\n        tag_60:\n            /* \"#utility.yul\":3578:3602   */\n          tag_124\n            /* \"#utility.yul\":3596:3601   */\n          dup2\n            /* \"#utility.yul\":3578:3602   */\n          tag_45\n          jump\t// in\n        tag_124:\n            /* \"#utility.yul\":3571:3576   */\n          dup2\n            /* \"#utility.yul\":3568:3603   */\n          eq\n            /* \"#utility.yul\":3558:3621   */\n          tag_125\n          jumpi\n            /* \"#utility.yul\":3617:3618   */\n          0x00\n            /* \"#utility.yul\":3614:3615   */\n          dup1\n            /* \"#utility.yul\":3607:3619   */\n          revert\n            /* \"#utility.yul\":3558:3621   */\n        tag_125:\n            /* \"#utility.yul\":3505:3627   */\n          pop\n          jump\t// out\n            /* \"#utility.yul\":3633:3772   */\n        tag_61:\n            /* \"#utility.yul\":3679:3684   */\n          0x00\n            /* \"#utility.yul\":3717:3723   */\n          dup2\n            /* \"#utility.yul\":3704:3724   */\n          calldataload\n            /* \"#utility.yul\":3695:3724   */\n          swap1\n          pop\n            /* \"#utility.yul\":3733:3766   */\n          tag_127\n            /* \"#utility.yul\":3760:3765   */\n          dup2\n            /* \"#utility.yul\":3733:3766   */\n          tag_60\n          jump\t// in\n        tag_127:\n            /* \"#utility.yul\":3633:3772   */\n          swap3\n          swap2\n          pop\n          pop\n          jump\t// out\n            /* \"#utility.yul\":3778:4577   */\n        tag_17:\n            /* \"#utility.yul\":3865:3871   */\n          0x00\n            /* \"#utility.yul\":3873:3879   */\n          dup1\n            /* \"#utility.yul\":3881:3887   */\n          0x00\n            /* \"#utility.yul\":3930:3932   */\n          0x60\n            /* \"#utility.yul\":3918:3927   */\n          dup5\n            /* \"#utility.yul\":3909:3916   */\n          dup7\n            /* \"#utility.yul\":3905:3928   */\n          sub\n            /* \"#utility.yul\":3901:3933   */\n          slt\n            /* \"#utility.yul\":3898:4017   */\n          iszero\n          tag_129\n          jumpi\n            /* \"#utility.yul\":3936:4015   */\n          tag_130\n          tag_48\n          jump\t// in\n        tag_130:\n            /* \"#utility.yul\":3898:4017   */\n        tag_129:\n            /* \"#utility.yul\":4084:4085   */\n          0x00\n            /* \"#utility.yul\":4073:4082   */\n          dup5\n            /* \"#utility.yul\":4069:4086   */\n          add\n            /* \"#utility.yul\":4056:4087   */\n          calldataload\n            /* \"#utility.yul\":4114:4132   */\n          0xffffffffffffffff\n            /* \"#utility.yul\":4106:4112   */\n          dup2\n            /* \"#utility.yul\":4103:4133   */\n          gt\n            /* \"#utility.yul\":4100:4217   */\n          iszero\n          tag_131\n          jumpi\n            /* \"#utility.yul\":4136:4215   */\n          tag_132\n          tag_49\n          jump\t// in\n        tag_132:\n            /* \"#utility.yul\":4100:4217   */\n        tag_131:\n            /* \"#utility.yul\":4241:4304   */\n          tag_133\n            /* \"#utility.yul\":4296:4303   */\n          dup7\n            /* \"#utility.yul\":4287:4293   */\n          dup3\n            /* \"#utility.yul\":4276:4285   */\n          dup8\n            /* \"#utility.yul\":4272:4294   */\n          add\n            /* \"#utility.yul\":4241:4304   */\n          tag_59\n          jump\t// in\n        tag_133:\n            /* \"#utility.yul\":4231:4304   */\n          swap4\n          pop\n            /* \"#utility.yul\":4027:4314   */\n          pop\n            /* \"#utility.yul\":4353:4355   */\n          0x20\n            /* \"#utility.yul\":4379:4432   */\n          tag_134\n            /* \"#utility.yul\":4424:4431   */\n          dup7\n            /* \"#utility.yul\":4415:4421   */\n          dup3\n            /* \"#utility.yul\":4404:4413   */\n          dup8\n            /* \"#utility.yul\":4400:4422   */\n          add\n            /* \"#utility.yul\":4379:4432   */\n          tag_61\n          jump\t// in\n        tag_134:\n            /* \"#utility.yul\":4369:4432   */\n          swap3\n          pop\n            /* \"#utility.yul\":4324:4442   */\n          pop\n            /* \"#utility.yul\":4481:4483   */\n          0x40\n            /* \"#utility.yul\":4507:4560   */\n          tag_135\n            /* \"#utility.yul\":4552:4559   */\n          dup7\n            /* \"#utility.yul\":4543:4549   */\n          dup3\n            /* \"#utility.yul\":4532:4541   */\n          dup8\n            /* \"#utility.yul\":4528:4550   */\n          add\n            /* \"#utility.yul\":4507:4560   */\n          tag_61\n          jump\t// in\n        tag_135:\n            /* \"#utility.yul\":4497:4560   */\n          swap2\n          pop\n            /* \"#utility.yul\":4452:4570   */\n          pop\n            /* \"#utility.yul\":3778:4577   */\n          swap3\n          pop\n          swap3\n          pop\n          swap3\n          jump\t// out\n            /* \"#utility.yul\":4583:4682   */\n        tag_62:\n            /* \"#utility.yul\":4635:4641   */\n          0x00\n            /* \"#utility.yul\":4669:4674   */\n          dup2\n            /* \"#utility.yul\":4663:4675   */\n          mload\n            /* \"#utility.yul\":4653:4675   */\n          swap1\n          pop\n            /* \"#utility.yul\":4583:4682   */\n          swap2\n          swap1\n          pop\n          jump\t// out\n            /* \"#utility.yul\":4688:4857   */\n        tag_63:\n            /* \"#utility.yul\":4772:4783   */\n          0x00\n            /* \"#utility.yul\":4806:4812   */\n          dup3\n            /* \"#utility.yul\":4801:4804   */\n          dup3\n            /* \"#utility.yul\":4794:4813   */\n          mstore\n            /* \"#utility.yul\":4846:4850   */\n          0x20\n            /* \"#utility.yul\":4841:4844   */\n          dup3\n            /* \"#utility.yul\":4837:4851   */\n          add\n            /* \"#utility.yul\":4822:4851   */\n          swap1\n          pop\n            /* \"#utility.yul\":4688:4857   */\n          swap3\n          swap2\n          pop\n          pop\n          jump\t// out\n            /* \"#utility.yul\":4863:5002   */\n        tag_64:\n            /* \"#utility.yul\":4952:4958   */\n          dup3\n            /* \"#utility.yul\":4947:4950   */\n          dup2\n            /* \"#utility.yul\":4942:4945   */\n          dup4\n            /* \"#utility.yul\":4936:4959   */\n          mcopy\n            /* \"#utility.yul\":4993:4994   */\n          0x00\n            /* \"#utility.yul\":4984:4990   */\n          dup4\n            /* \"#utility.yul\":4979:4982   */\n          dup4\n            /* \"#utility.yul\":4975:4991   */\n          add\n            /* \"#utility.yul\":4968:4995   */\n          mstore\n            /* \"#utility.yul\":4863:5002   */\n          pop\n          pop\n          pop\n          jump\t// out\n            /* \"#utility.yul\":5008:5385   */\n        tag_65:\n            /* \"#utility.yul\":5096:5099   */\n          0x00\n            /* \"#utility.yul\":5124:5163   */\n          tag_140\n            /* \"#utility.yul\":5157:5162   */\n          dup3\n            /* \"#utility.yul\":5124:5163   */\n          tag_62\n          jump\t// in\n        tag_140:\n            /* \"#utility.yul\":5179:5250   */\n          tag_141\n            /* \"#utility.yul\":5243:5249   */\n          dup2\n            /* \"#utility.yul\":5238:5241   */\n          dup6\n            /* \"#utility.yul\":5179:5250   */\n          tag_63\n          jump\t// in\n        tag_141:\n            /* \"#utility.yul\":5172:5250   */\n          swap4\n          pop\n            /* \"#utility.yul\":5259:5324   */\n          tag_142\n            /* \"#utility.yul\":5317:5323   */\n          dup2\n            /* \"#utility.yul\":5312:5315   */\n          dup6\n            /* \"#utility.yul\":5305:5309   */\n          0x20\n            /* \"#utility.yul\":5298:5303   */\n          dup7\n            /* \"#utility.yul\":5294:5310   */\n          add\n            /* \"#utility.yul\":5259:5324   */\n          tag_64\n          jump\t// in\n        tag_142:\n            /* \"#utility.yul\":5349:5378   */\n          tag_143\n            /* \"#utility.yul\":5371:5377   */\n          dup2\n            /* \"#utility.yul\":5349:5378   */\n          tag_52\n          jump\t// in\n        tag_143:\n            /* \"#utility.yul\":5344:5347   */\n          dup5\n            /* \"#utility.yul\":5340:5379   */\n          add\n            /* \"#utility.yul\":5333:5379   */\n          swap2\n          pop\n            /* \"#utility.yul\":5100:5385   */\n          pop\n            /* \"#utility.yul\":5008:5385   */\n          swap3\n          swap2\n          pop\n          pop\n          jump\t// out\n            /* \"#utility.yul\":5391:6237   */\n        tag_22:\n            /* \"#utility.yul\":5636:5640   */\n          0x00\n            /* \"#utility.yul\":5674:5677   */\n          0xa0\n            /* \"#utility.yul\":5663:5672   */\n          dup3\n            /* \"#utility.yul\":5659:5678   */\n          add\n            /* \"#utility.yul\":5651:5678   */\n          swap1\n          pop\n            /* \"#utility.yul\":5724:5733   */\n          dup2\n            /* \"#utility.yul\":5718:5722   */\n          dup2\n            /* \"#utility.yul\":5714:5734   */\n          sub\n            /* \"#utility.yul\":5710:5711   */\n          0x00\n            /* \"#utility.yul\":5699:5708   */\n          dup4\n            /* \"#utility.yul\":5695:5712   */\n          add\n            /* \"#utility.yul\":5688:5735   */\n          mstore\n            /* \"#utility.yul\":5752:5830   */\n          tag_145\n            /* \"#utility.yul\":5825:5829   */\n          dup2\n            /* \"#utility.yul\":5816:5822   */\n          dup9\n            /* \"#utility.yul\":5752:5830   */\n          tag_65\n          jump\t// in\n        tag_145:\n            /* \"#utility.yul\":5744:5830   */\n          swap1\n          pop\n            /* \"#utility.yul\":5840:5912   */\n          tag_146\n            /* \"#utility.yul\":5908:5910   */\n          0x20\n            /* \"#utility.yul\":5897:5906   */\n          dup4\n            /* \"#utility.yul\":5893:5911   */\n          add\n            /* \"#utility.yul\":5884:5890   */\n          dup8\n            /* \"#utility.yul\":5840:5912   */\n          tag_46\n          jump\t// in\n        tag_146:\n            /* \"#utility.yul\":5922:5994   */\n          tag_147\n            /* \"#utility.yul\":5990:5992   */\n          0x40\n            /* \"#utility.yul\":5979:5988   */\n          dup4\n            /* \"#utility.yul\":5975:5993   */\n          add\n            /* \"#utility.yul\":5966:5972   */\n          dup7\n            /* \"#utility.yul\":5922:5994   */\n          tag_46\n          jump\t// in\n        tag_147:\n            /* \"#utility.yul\":6041:6050   */\n          dup2\n            /* \"#utility.yul\":6035:6039   */\n          dup2\n            /* \"#utility.yul\":6031:6051   */\n          sub\n            /* \"#utility.yul\":6026:6028   */\n          0x60\n            /* \"#utility.yul\":6015:6024   */\n          dup4\n            /* \"#utility.yul\":6011:6029   */\n          add\n            /* \"#utility.yul\":6004:6052   */\n          mstore\n            /* \"#utility.yul\":6069:6147   */\n          tag_148\n            /* \"#utility.yul\":6142:6146   */\n          dup2\n            /* \"#utility.yul\":6133:6139   */\n          dup6\n            /* \"#utility.yul\":6069:6147   */\n          tag_65\n          jump\t// in\n        tag_148:\n            /* \"#utility.yul\":6061:6147   */\n          swap1\n          pop\n            /* \"#utility.yul\":6157:6230   */\n          tag_149\n            /* \"#utility.yul\":6225:6228   */\n          0x80\n            /* \"#utility.yul\":6214:6223   */\n          dup4\n            /* \"#utility.yul\":6210:6229   */\n          add\n            /* \"#utility.yul\":6201:6207   */\n          dup5\n            /* \"#utility.yul\":6157:6230   */\n          tag_46\n          jump\t// in\n        tag_149:\n            /* \"#utility.yul\":5391:6237   */\n          swap7\n          swap6\n          pop\n          pop\n          pop\n          pop\n          pop\n          pop\n          jump\t// out\n            /* \"#utility.yul\":6243:6423   */\n        tag_66:\n            /* \"#utility.yul\":6291:6368   */\n          0x4e487b7100000000000000000000000000000000000000000000000000000000\n            /* \"#utility.yul\":6288:6289   */\n          0x00\n            /* \"#utility.yul\":6281:6369   */\n          mstore\n            /* \"#utility.yul\":6388:6392   */\n          0x22\n            /* \"#utility.yul\":6385:6386   */\n          0x04\n            /* \"#utility.yul\":6378:6393   */\n          mstore\n            /* \"#utility.yul\":6412:6416   */\n          0x24\n            /* \"#utility.yul\":6409:6410   */\n          0x00\n            /* \"#utility.yul\":6402:6417   */\n          revert\n            /* \"#utility.yul\":6429:6749   */\n        tag_35:\n            /* \"#utility.yul\":6473:6479   */\n          0x00\n            /* \"#utility.yul\":6510:6511   */\n          0x02\n            /* \"#utility.yul\":6504:6508   */\n          dup3\n            /* \"#utility.yul\":6500:6512   */\n          div\n            /* \"#utility.yul\":6490:6512   */\n          swap1\n          pop\n            /* \"#utility.yul\":6557:6558   */\n          0x01\n            /* \"#utility.yul\":6551:6555   */\n          dup3\n            /* \"#utility.yul\":6547:6559   */\n          and\n            /* \"#utility.yul\":6578:6596   */\n          dup1\n            /* \"#utility.yul\":6568:6649   */\n          tag_152\n          jumpi\n            /* \"#utility.yul\":6634:6638   */\n          0x7f\n            /* \"#utility.yul\":6626:6632   */\n          dup3\n            /* \"#utility.yul\":6622:6639   */\n          and\n            /* \"#utility.yul\":6612:6639   */\n          swap2\n          pop\n            /* \"#utility.yul\":6568:6649   */\n        tag_152:\n            /* \"#utility.yul\":6696:6698   */\n          0x20\n            /* \"#utility.yul\":6688:6694   */\n          dup3\n            /* \"#utility.yul\":6685:6699   */\n          lt\n            /* \"#utility.yul\":6665:6683   */\n          dup2\n            /* \"#utility.yul\":6662:6700   */\n          sub\n            /* \"#utility.yul\":6659:6743   */\n          tag_153\n          jumpi\n            /* \"#utility.yul\":6715:6733   */\n          tag_154\n          tag_66\n          jump\t// in\n        tag_154:\n            /* \"#utility.yul\":6659:6743   */\n        tag_153:\n            /* \"#utility.yul\":6480:6749   */\n          pop\n            /* \"#utility.yul\":6429:6749   */\n          swap2\n          swap1\n          pop\n          jump\t// out\n            /* \"#utility.yul\":6755:6896   */\n        tag_67:\n            /* \"#utility.yul\":6804:6808   */\n          0x00\n            /* \"#utility.yul\":6827:6830   */\n          dup2\n            /* \"#utility.yul\":6819:6830   */\n          swap1\n          pop\n            /* \"#utility.yul\":6850:6853   */\n          dup2\n            /* \"#utility.yul\":6847:6848   */\n          0x00\n            /* \"#utility.yul\":6840:6854   */\n          mstore\n            /* \"#utility.yul\":6884:6888   */\n          0x20\n            /* \"#utility.yul\":6881:6882   */\n          0x00\n            /* \"#utility.yul\":6871:6889   */\n          keccak256\n            /* \"#utility.yul\":6863:6889   */\n          swap1\n          pop\n            /* \"#utility.yul\":6755:6896   */\n          swap2\n          swap1\n          pop\n          jump\t// out\n            /* \"#utility.yul\":6902:6995   */\n        tag_68:\n            /* \"#utility.yul\":6939:6945   */\n          0x00\n            /* \"#utility.yul\":6986:6988   */\n          0x20\n            /* \"#utility.yul\":6981:6983   */\n          0x1f\n            /* \"#utility.yul\":6974:6979   */\n          dup4\n            /* \"#utility.yul\":6970:6984   */\n          add\n            /* \"#utility.yul\":6966:6989   */\n          div\n            /* \"#utility.yul\":6956:6989   */\n          swap1\n          pop\n            /* \"#utility.yul\":6902:6995   */\n          swap2\n          swap1\n          pop\n          jump\t// out\n            /* \"#utility.yul\":7001:7108   */\n        tag_69:\n            /* \"#utility.yul\":7045:7053   */\n          0x00\n            /* \"#utility.yul\":7095:7100   */\n          dup3\n            /* \"#utility.yul\":7089:7093   */\n          dup3\n            /* \"#utility.yul\":7085:7101   */\n          shl\n            /* \"#utility.yul\":7064:7101   */\n          swap1\n          pop\n            /* \"#utility.yul\":7001:7108   */\n          swap3\n          swap2\n          pop\n          pop\n          jump\t// out\n            /* \"#utility.yul\":7114:7507   */\n        tag_70:\n            /* \"#utility.yul\":7183:7189   */\n          0x00\n            /* \"#utility.yul\":7233:7234   */\n          0x08\n            /* \"#utility.yul\":7221:7231   */\n          dup4\n            /* \"#utility.yul\":7217:7235   */\n          mul\n            /* \"#utility.yul\":7256:7353   */\n          tag_159\n            /* \"#utility.yul\":7286:7352   */\n          0xffffffffffffffffffffffffffffffffffffffffffffffffffffffffffffffff\n            /* \"#utility.yul\":7275:7284   */\n          dup3\n            /* \"#utility.yul\":7256:7353   */\n          tag_69\n          jump\t// in\n        tag_159:\n            /* \"#utility.yul\":7374:7413   */\n          tag_160\n            /* \"#utility.yul\":7404:7412   */\n          dup7\n            /* \"#utility.yul\":7393:7402   */\n          dup4\n            /* \"#utility.yul\":7374:7413   */\n          tag_69\n          jump\t// in\n        tag_160:\n            /* \"#utility.yul\":7362:7413   */\n          swap6\n          pop\n            /* \"#utility.yul\":7446:7450   */\n          dup1\n            /* \"#utility.yul\":7442:7451   */\n          not\n            /* \"#utility.yul\":7435:7440   */\n          dup5\n            /* \"#utility.yul\":7431:7452   */\n          and\n            /* \"#utility.yul\":7422:7452   */\n          swap4\n          pop\n            /* \"#utility.yul\":7495:7499   */\n          dup1\n            /* \"#utility.yul\":7485:7493   */\n          dup7\n            /* \"#utility.yul\":7481:7500   */\n          and\n            /* \"#utility.yul\":7474:7479   */\n          dup5\n            /* \"#utility.yul\":7471:7501   */\n          or\n            /* \"#utility.yul\":7461:7501   */\n          swap3\n          pop\n            /* \"#utility.yul\":7190:7507   */\n          pop\n          pop\n            /* \"#utility.yul\":7114:7507   */\n          swap4\n          swap3\n          pop\n          pop\n          pop\n          jump\t// out\n            /* \"#utility.yul\":7513:7573   */\n        tag_71:\n            /* \"#utility.yul\":7541:7544   */\n          0x00\n            /* \"#utility.yul\":7562:7567   */\n          dup2\n            /* \"#utility.yul\":7555:7567   */\n          swap1\n          pop\n            /* \"#utility.yul\":7513:7573   */\n          swap2\n          swap1\n          pop\n          jump\t// out\n            /* \"#utility.yul\":7579:7721   */\n        tag_72:\n            /* \"#utility.yul\":7629:7638   */\n          0x00\n            /* \"#utility.yul\":7662:7715   */\n          tag_163\n            /* \"#utility.yul\":7680:7714   */\n          tag_164\n            /* \"#utility.yul\":7689:7713   */\n          tag_165\n            /* \"#utility.yul\":7707:7712   */\n          dup5\n            /* \"#utility.yul\":7689:7713   */\n          tag_45\n          jump\t// in\n        tag_165:\n            /* \"#utility.yul\":7680:7714   */\n          tag_71\n          jump\t// in\n        tag_164:\n            /* \"#utility.yul\":7662:7715   */\n          tag_45\n          jump\t// in\n        tag_163:\n            /* \"#utility.yul\":7649:7715   */\n          swap1\n          pop\n            /* \"#utility.yul\":7579:7721   */\n          swap2\n          swap1\n          pop\n          jump\t// out\n            /* \"#utility.yul\":7727:7802   */\n        tag_73:\n            /* \"#utility.yul\":7770:7773   */\n          0x00\n            /* \"#utility.yul\":7791:7796   */\n          dup2\n            /* \"#utility.yul\":7784:7796   */\n          swap1\n          pop\n            /* \"#utility.yul\":7727:7802   */\n          swap2\n          swap1\n          pop\n          jump\t// out\n            /* \"#utility.yul\":7808:8077   */\n        tag_74:\n            /* \"#utility.yul\":7918:7957   */\n          tag_168\n            /* \"#utility.yul\":7949:7956   */\n          dup4\n            /* \"#utility.yul\":7918:7957   */\n          tag_72\n          jump\t// in\n        tag_168:\n            /* \"#utility.yul\":7979:8070   */\n          tag_169\n            /* \"#utility.yul\":8028:8069   */\n          tag_170\n            /* \"#utility.yul\":8052:8068   */\n          dup3\n            /* \"#utility.yul\":8028:8069   */\n          tag_73\n          jump\t// in\n        tag_170:\n            /* \"#utility.yul\":8020:8026   */\n          dup5\n            /* \"#utility.yul\":8013:8017   */\n          dup5\n            /* \"#utility.yul\":8007:8018   */\n          sload\n            /* \"#utility.yul\":7979:8070   */\n          tag_70\n          jump\t// in\n        tag_169:\n            /* \"#utility.yul\":7973:7977   */\n          dup3\n            /* \"#utility.yul\":7966:8071   */\n          sstore\n            /* \"#utility.yul\":7884:8077   */\n          pop\n            /* \"#utility.yul\":7808:8077   */\n          pop\n          pop\n          pop\n          jump\t// out\n            /* \"#utility.yul\":8083:8156   */\n        tag_75:\n            /* \"#utility.yul\":8128:8131   */\n          0x00\n            /* \"#utility.yul\":8083:8156   */\n          swap1\n          jump\t// out\n            /* \"#utility.yul\":8162:8351   */\n        tag_76:\n            /* \"#utility.yul\":8239:8271   */\n          tag_173\n          tag_75\n          jump\t// in\n        tag_173:\n            /* \"#utility.yul\":8280:8345   */\n          tag_174\n            /* \"#utility.yul\":8338:8344   */\n          dup2\n            /* \"#utility.yul\":8330:8336   */\n          dup5\n            /* \"#utility.yul\":8324:8328   */\n          dup5\n            /* \"#utility.yul\":8280:8345   */\n          tag_74\n          jump\t// in\n        tag_174:\n            /* \"#utility.yul\":8215:8351   */\n          pop\n            /* \"#utility.yul\":8162:8351   */\n          pop\n          pop\n          jump\t// out\n            /* \"#utility.yul\":8357:8543   */\n        tag_77:\n            /* \"#utility.yul\":8417:8537   */\n        tag_176:\n            /* \"#utility.yul\":8434:8437   */\n          dup2\n            /* \"#utility.yul\":8427:8432   */\n          dup2\n            /* \"#utility.yul\":8424:8438   */\n          lt\n            /* \"#utility.yul\":8417:8537   */\n          iszero\n          tag_178\n          jumpi\n            /* \"#utility.yul\":8488:8527   */\n          tag_179\n            /* \"#utility.yul\":8525:8526   */\n          0x00\n            /* \"#utility.yul\":8518:8523   */\n          dup3\n            /* \"#utility.yul\":8488:8527   */\n          tag_76\n          jump\t// in\n        tag_179:\n            /* \"#utility.yul\":8461:8462   */\n          0x01\n            /* \"#utility.yul\":8454:8459   */\n          dup2\n            /* \"#utility.yul\":8450:8463   */\n          add\n            /* \"#utility.yul\":8441:8463   */\n          swap1\n          pop\n            /* \"#utility.yul\":8417:8537   */\n          jump(tag_176)\n        tag_178:\n            /* \"#utility.yul\":8357:8543   */\n          pop\n          pop\n          jump\t// out\n            /* \"#utility.yul\":8549:9092   */\n        tag_78:\n            /* \"#utility.yul\":8650:8652   */\n          0x1f\n            /* \"#utility.yul\":8645:8648   */\n          dup3\n            /* \"#utility.yul\":8642:8653   */\n          gt\n            /* \"#utility.yul\":8639:9085   */\n          iszero\n          tag_181\n          jumpi\n            /* \"#utility.yul\":8684:8722   */\n          tag_182\n            /* \"#utility.yul\":8716:8721   */\n          dup2\n            /* \"#utility.yul\":8684:8722   */\n          tag_67\n          jump\t// in\n        tag_182:\n            /* \"#utility.yul\":8768:8797   */\n          tag_183\n            /* \"#utility.yul\":8786:8796   */\n          dup5\n            /* \"#utility.yul\":8768:8797   */\n          tag_68\n          jump\t// in\n        tag_183:\n            /* \"#utility.yul\":8758:8766   */\n          dup2\n            /* \"#utility.yul\":8754:8798   */\n          add\n            /* \"#utility.yul\":8951:8953   */\n          0x20\n            /* \"#utility.yul\":8939:8949   */\n          dup6\n            /* \"#utility.yul\":8936:8954   */\n          lt\n            /* \"#utility.yul\":8933:8982   */\n          iszero\n          tag_184\n          jumpi\n            /* \"#utility.yul\":8972:8980   */\n          dup2\n            /* \"#utility.yul\":8957:8980   */\n          swap1\n          pop\n            /* \"#utility.yul\":8933:8982   */\n        tag_184:\n            /* \"#utility.yul\":8995:9075   */\n          tag_185\n            /* \"#utility.yul\":9051:9073   */\n          tag_186\n            /* \"#utility.yul\":9069:9072   */\n          dup6\n            /* \"#utility.yul\":9051:9073   */\n          tag_68\n          jump\t// in\n        tag_186:\n            /* \"#utility.yul\":9041:9049   */\n          dup4\n            /* \"#utility.yul\":9037:9074   */\n          add\n            /* \"#utility.yul\":9024:9035   */\n          dup3\n            /* \"#utility.yul\":8995:9075   */\n          tag_77\n          jump\t// in\n        tag_185:\n            /* \"#utility.yul\":8654:9085   */\n          pop\n          pop\n            /* \"#utility.yul\":8639:9085   */\n        tag_181:\n            /* \"#utility.yul\":8549:9092   */\n          pop\n          pop\n          pop\n          jump\t// out\n            /* \"#utility.yul\":9098:9215   */\n        tag_79:\n            /* \"#utility.yul\":9152:9160   */\n          0x00\n            /* \"#utility.yul\":9202:9207   */\n          dup3\n            /* \"#utility.yul\":9196:9200   */\n          dup3\n            /* \"#utility.yul\":9192:9208   */\n          shr\n            /* \"#utility.yul\":9171:9208   */\n          swap1\n          pop\n            /* \"#utility.yul\":9098:9215   */\n          swap3\n          swap2\n          pop\n          pop\n          jump\t// out\n            /* \"#utility.yul\":9221:9390   */\n        tag_80:\n            /* \"#utility.yul\":9265:9271   */\n          0x00\n            /* \"#utility.yul\":9298:9349   */\n          tag_189\n            /* \"#utility.yul\":9346:9347   */\n          0x00\n            /* \"#utility.yul\":9342:9348   */\n          not\n            /* \"#utility.yul\":9334:9339   */\n          dup5\n            /* \"#utility.yul\":9331:9332   */\n          0x08\n            /* \"#utility.yul\":9327:9340   */\n          mul\n            /* \"#utility.yul\":9298:9349   */\n          tag_79\n          jump\t// in\n        tag_189:\n            /* \"#utility.yul\":9294:9350   */\n          not\n            /* \"#utility.yul\":9379:9383   */\n          dup1\n            /* \"#utility.yul\":9373:9377   */\n          dup4\n            /* \"#utility.yul\":9369:9384   */\n          and\n            /* \"#utility.yul\":9359:9384   */\n          swap2\n          pop\n            /* \"#utility.yul\":9272:9390   */\n          pop\n            /* \"#utility.yul\":9221:9390   */\n          swap3\n          swap2\n          pop\n          pop\n          jump\t// out\n            /* \"#utility.yul\":9395:9690   */\n        tag_81:\n            /* \"#utility.yul\":9471:9475   */\n          0x00\n            /* \"#utility.yul\":9617:9646   */\n          tag_191\n            /* \"#utility.yul\":9642:9645   */\n          dup4\n            /* \"#utility.yul\":9636:9640   */\n          dup4\n            /* \"#utility.yul\":9617:9646   */\n          tag_80\n          jump\t// in\n        tag_191:\n            /* \"#utility.yul\":9609:9646   */\n          swap2\n          pop\n            /* \"#utility.yul\":9679:9682   */\n          dup3\n            /* \"#utility.yul\":9676:9677   */\n          0x02\n            /* \"#utility.yul\":9672:9683   */\n          mul\n            /* \"#utility.yul\":9666:9670   */\n          dup3\n            /* \"#utility.yul\":9663:9684   */\n          or\n            /* \"#utility.yul\":9655:9684   */\n          swap1\n          pop\n            /* \"#utility.yul\":9395:9690   */\n          swap3\n          swap2\n          pop\n          pop\n          jump\t// out\n            /* \"#utility.yul\":9695:11090   */\n        tag_30:\n            /* \"#utility.yul\":9812:9849   */\n          tag_193\n            /* \"#utility.yul\":9845:9848   */\n          dup3\n            /* \"#utility.yul\":9812:9849   */\n          tag_62\n          jump\t// in\n        tag_193:\n            /* \"#utility.yul\":9914:9932   */\n          0xffffffffffffffff\n            /* \"#utility.yul\":9906:9912   */\n          dup2\n            /* \"#utility.yul\":9903:9933   */\n          gt\n            /* \"#utility.yul\":9900:9956   */\n          iszero\n          tag_194\n          jumpi\n            /* \"#utility.yul\":9936:9954   */\n          tag_195\n          tag_53\n          jump\t// in\n        tag_195:\n            /* \"#utility.yul\":9900:9956   */\n        tag_194:\n            /* \"#utility.yul\":9980:10018   */\n          tag_196\n            /* \"#utility.yul\":10012:10016   */\n          dup3\n            /* \"#utility.yul\":10006:10017   */\n          sload\n            /* \"#utility.yul\":9980:10018   */\n          tag_35\n          jump\t// in\n        tag_196:\n            /* \"#utility.yul\":10065:10132   */\n          tag_197\n            /* \"#utility.yul\":10125:10131   */\n          dup3\n            /* \"#utility.yul\":10117:10123   */\n          dup3\n            /* \"#utility.yul\":10111:10115   */\n          dup6\n            /* \"#utility.yul\":10065:10132   */\n          tag_78\n          jump\t// in\n        tag_197:\n            /* \"#utility.yul\":10159:10160   */\n          0x00\n            /* \"#utility.yul\":10183:10187   */\n          0x20\n            /* \"#utility.yul\":10170:10187   */\n          swap1\n          pop\n            /* \"#utility.yul\":10215:10217   */\n          0x1f\n            /* \"#utility.yul\":10207:10213   */\n          dup4\n            /* \"#utility.yul\":10204:10218   */\n          gt\n            /* \"#utility.yul\":10232:10233   */\n          0x01\n            /* \"#utility.yul\":10227:10845   */\n          dup2\n          eq\n          tag_199\n          jumpi\n            /* \"#utility.yul\":10889:10890   */\n          0x00\n            /* \"#utility.yul\":10906:10912   */\n          dup5\n            /* \"#utility.yul\":10903:10980   */\n          iszero\n          tag_200\n          jumpi\n            /* \"#utility.yul\":10955:10964   */\n          dup3\n            /* \"#utility.yul\":10950:10953   */\n          dup8\n            /* \"#utility.yul\":10946:10965   */\n          add\n            /* \"#utility.yul\":10940:10966   */\n          mload\n            /* \"#utility.yul\":10931:10966   */\n          swap1\n          pop\n            /* \"#utility.yul\":10903:10980   */\n        tag_200:\n            /* \"#utility.yul\":11006:11073   */\n          tag_201\n            /* \"#utility.yul\":11066:11072   */\n          dup6\n            /* \"#utility.yul\":11059:11064   */\n          dup3\n            /* \"#utility.yul\":11006:11073   */\n          tag_81\n          jump\t// in\n        tag_201:\n            /* \"#utility.yul\":11000:11004   */\n          dup7\n            /* \"#utility.yul\":10993:11074   */\n          sstore\n            /* \"#utility.yul\":10862:11084   */\n          pop\n            /* \"#utility.yul\":10197:11084   */\n          jump(tag_198)\n            /* \"#utility.yul\":10227:10845   */\n        tag_199:\n            /* \"#utility.yul\":10279:10283   */\n          0x1f\n            /* \"#utility.yul\":10275:10284   */\n          not\n            /* \"#utility.yul\":10267:10273   */\n          dup5\n            /* \"#utility.yul\":10263:10285   */\n          and\n            /* \"#utility.yul\":10313:10350   */\n          tag_202\n            /* \"#utility.yul\":10345:10349   */\n          dup7\n            /* \"#utility.yul\":10313:10350   */\n          tag_67\n          jump\t// in\n        tag_202:\n            /* \"#utility.yul\":10372:10373   */\n          0x00\n            /* \"#utility.yul\":10386:10594   */\n        tag_203:\n            /* \"#utility.yul\":10400:10407   */\n          dup3\n            /* \"#utility.yul\":10397:10398   */\n          dup2\n            /* \"#utility.yul\":10394:10408   */\n          lt\n            /* \"#utility.yul\":10386:10594   */\n          iszero\n          tag_205\n          jumpi\n            /* \"#utility.yul\":10479:10488   */\n          dup5\n            /* \"#utility.yul\":10474:10477   */\n          dup10\n            /* \"#utility.yul\":10470:10489   */\n          add\n            /* \"#utility.yul\":10464:10490   */\n          mload\n            /* \"#utility.yul\":10456:10462   */\n          dup3\n            /* \"#utility.yul\":10449:10491   */\n          sstore\n            /* \"#utility.yul\":10530:10531   */\n          0x01\n            /* \"#utility.yul\":10522:10528   */\n          dup3\n            /* \"#utility.yul\":10518:10532   */\n          add\n            /* \"#utility.yul\":10508:10532   */\n          swap2\n          pop\n            /* \"#utility.yul\":10577:10579   */\n          0x20\n            /* \"#utility.yul\":10566:10575   */\n          dup6\n            /* \"#utility.yul\":10562:10580   */\n          add\n            /* \"#utility.yul\":10549:10580   */\n          swap5\n          pop\n            /* \"#utility.yul\":10423:10427   */\n          0x20\n            /* \"#utility.yul\":10420:10421   */\n          dup2\n            /* \"#utility.yul\":10416:10428   */\n          add\n            /* \"#utility.yul\":10411:10428   */\n          swap1\n          pop\n            /* \"#utility.yul\":10386:10594   */\n          jump(tag_203)\n        tag_205:\n            /* \"#utility.yul\":10622:10628   */\n          dup7\n            /* \"#utility.yul\":10613:10620   */\n          dup4\n            /* \"#utility.yul\":10610:10629   */\n          lt\n            /* \"#utility.yul\":10607:10786   */\n          iszero\n          tag_206\n          jumpi\n            /* \"#utility.yul\":10680:10689   */\n          dup5\n            /* \"#utility.yul\":10675:10678   */\n          dup10\n            /* \"#utility.yul\":10671:10690   */\n          add\n            /* \"#utility.yul\":10665:10691   */\n          mload\n            /* \"#utility.yul\":10723:10771   */\n          tag_207\n            /* \"#utility.yul\":10765:10769   */\n          0x1f\n            /* \"#utility.yul\":10757:10763   */\n          dup10\n            /* \"#utility.yul\":10753:10770   */\n          and\n            /* \"#utility.yul\":10742:10751   */\n          dup3\n            /* \"#utility.yul\":10723:10771   */\n          tag_80\n          jump\t// in\n        tag_207:\n            /* \"#utility.yul\":10715:10721   */\n          dup4\n            /* \"#utility.yul\":10708:10772   */\n          sstore\n            /* \"#utility.yul\":10630:10786   */\n          pop\n            /* \"#utility.yul\":10607:10786   */\n        tag_206:\n            /* \"#utility.yul\":10832:10833   */\n          0x01\n            /* \"#utility.yul\":10828:10829   */\n          0x02\n            /* \"#utility.yul\":10820:10826   */\n          dup9\n            /* \"#utility.yul\":10816:10830   */\n          mul\n            /* \"#utility.yul\":10812:10834   */\n          add\n            /* \"#utility.yul\":10806:10810   */\n          dup9\n            /* \"#utility.yul\":10799:10835   */\n          sstore\n            /* \"#utility.yul\":10234:10845   */\n          pop\n          pop\n          pop\n            /* \"#utility.yul\":10197:11084   */\n        tag_198:\n          pop\n            /* \"#utility.yul\":9787:11090   */\n          pop\n          pop\n          pop\n            /* \"#utility.yul\":9695:11090   */\n          pop\n          pop\n          jump\t// out\n\n        auxdata: 0xa2646970667358221220b2e921a352ea43c3a82d310ea1a50446c00c5dbbc14353728ba69b632e2230ad64736f6c634300081a0033\n    }\n}\n",
				"bytecode": {
					"linkReferences": {},
					"object": "6080604052604051600e906074565b604051809103905ff0801580156026573d5f803e3d5ffd5b505f806101000a81548173ffffffffffffffffffffffffffffffffffffffff021916908373ffffffffffffffffffffffffffffffffffffffff160217905550348015606f575f80fd5b506081565b6108ae806107d783390190565b6107498061008e5f395ff3fe608060405234801561000f575f80fd5b5060043610610029575f3560e01c8063145083c91461002d575b5f80fd5b61003561004f565b60405161004695949392919061031a565b60405180910390f35b60605f8060605f805f9054906101000a900473ffffffffffffffffffffffffffffffffffffffff1673ffffffffffffffffffffffffffffffffffffffff1663dc1648406065614e206040518363ffffffff1660e01b81526004016100b492919061043e565b5f604051808303815f87803b1580156100cb575f80fd5b505af11580156100dd573d5f803e3d5ffd5b505050505f8054906101000a900473ffffffffffffffffffffffffffffffffffffffff1673ffffffffffffffffffffffffffffffffffffffff1663a04f1bb76040518163ffffffff1660e01b8152600401610137906104c2565b5f604051808303815f87803b15801561014e575f80fd5b505af1158015610160573d5f803e3d5ffd5b505050505f8054906101000a900473ffffffffffffffffffffffffffffffffffffffff1673ffffffffffffffffffffffffffffffffffffffff1663844ceb4c6040518163ffffffff1660e01b81526004016020604051808303815f875af11580156101cd573d5f803e3d5ffd5b505050506040513d601f19601f820116820180604052508101906101f1919061051b565b505f8054906101000a900473ffffffffffffffffffffffffffffffffffffffff1673ffffffffffffffffffffffffffffffffffffffff1663e1cb0e526040518163ffffffff1660e01b81526004015f60405180830381865afa158015610259573d5f803e3d5ffd5b505050506040513d5f823e3d601f19601f820116820180604052508101906102819190610664565b945094509450945094509091929394565b5f81519050919050565b5f82825260208201905092915050565b8281835e5f83830152505050565b5f601f19601f8301169050919050565b5f6102d482610292565b6102de818561029c565b93506102ee8185602086016102ac565b6102f7816102ba565b840191505092915050565b5f819050919050565b61031481610302565b82525050565b5f60a0820190508181035f83015261033281886102ca565b9050610341602083018761030b565b61034e604083018661030b565b818103606083015261036081856102ca565b905061036f608083018461030b565b9695505050505050565b7f536861696c6573682054616761646768617200000000000000000000000000005f82015250565b5f6103ad60128361029c565b91506103b882610379565b602082019050919050565b5f819050919050565b5f819050919050565b5f6103ef6103ea6103e5846103c3565b6103cc565b610302565b9050919050565b6103ff816103d5565b82525050565b5f819050919050565b5f61042861042361041e84610405565b6103cc565b610302565b9050919050565b6104388161040e565b82525050565b5f6060820190508181035f830152610455816103a1565b905061046460208301856103f6565b610471604083018461042f565b9392505050565b7f43530000000000000000000000000000000000000000000000000000000000005f82015250565b5f6104ac60028361029c565b91506104b782610478565b602082019050919050565b5f6020820190508181035f8301526104d9816104a0565b9050919050565b5f604051905090565b5f80fd5b5f80fd5b6104fa81610302565b8114610504575f80fd5b50565b5f81519050610515816104f1565b92915050565b5f602082840312156105305761052f6104e9565b5b5f61053d84828501610507565b91505092915050565b5f80fd5b5f80fd5b7f4e487b71000000000000000000000000000000000000000000000000000000005f52604160045260245ffd5b610584826102ba565b810181811067ffffffffffffffff821117156105a3576105a261054e565b5b80604052505050565b5f6105b56104e0565b90506105c1828261057b565b919050565b5f67ffffffffffffffff8211156105e0576105df61054e565b5b6105e9826102ba565b9050602081019050919050565b5f610608610603846105c6565b6105ac565b9050828152602081018484840111156106245761062361054a565b5b61062f8482856102ac565b509392505050565b5f82601f83011261064b5761064a610546565b5b815161065b8482602086016105f6565b91505092915050565b5f805f805f60a0868803121561067d5761067c6104e9565b5b5f86015167ffffffffffffffff81111561069a576106996104ed565b5b6106a688828901610637565b95505060206106b788828901610507565b94505060406106c888828901610507565b935050606086015167ffffffffffffffff8111156106e9576106e86104ed565b5b6106f588828901610637565b925050608061070688828901610507565b915050929550929590935056fea2646970667358221220df1292323ddf7379176e7de29833edbfeacbff04320cf2d05880c654924530e464736f6c634300081a00336080604052348015600e575f80fd5b506108928061001c5f395ff3fe608060405234801561000f575f80fd5b506004361061004a575f3560e01c8063844ceb4c1461004e578063a04f1bb71461006c578063dc16484014610088578063e1cb0e52146100a4575b5f80fd5b6100566100c6565b6040516100639190610291565b60405180910390f35b610086600480360381019061008191906103f7565b61010c565b005b6100a2600480360381019061009d9190610468565b61011f565b005b6100ac610141565b6040516100bd959493929190610534565b60405180910390f35b5f613a98600254106100e057611388600481905550610104565b6161a8600254106100f957612710600481905550610103565b6107d06004819055505b5b600454905090565b806003908161011b919061078d565b5050565b825f908161012d919061078d565b508160018190555080600281905550505050565b60605f8060605f806001546002546003600454848054610160906105c0565b80601f016020809104026020016040519081016040528092919081815260200182805461018c906105c0565b80156101d75780601f106101ae576101008083540402835291602001916101d7565b820191905f5260205f20905b8154815290600101906020018083116101ba57829003601f168201915b505050505094508180546101ea906105c0565b80601f0160208091040260200160405190810160405280929190818152602001828054610216906105c0565b80156102615780601f1061023857610100808354040283529160200191610261565b820191905f5260205f20905b81548152906001019060200180831161024457829003601f168201915b50505050509150945094509450945094509091929394565b5f819050919050565b61028b81610279565b82525050565b5f6020820190506102a45f830184610282565b92915050565b5f604051905090565b5f80fd5b5f80fd5b5f80fd5b5f80fd5b5f601f19601f8301169050919050565b7f4e487b71000000000000000000000000000000000000000000000000000000005f52604160045260245ffd5b610309826102c3565b810181811067ffffffffffffffff82111715610328576103276102d3565b5b80604052505050565b5f61033a6102aa565b90506103468282610300565b919050565b5f67ffffffffffffffff821115610365576103646102d3565b5b61036e826102c3565b9050602081019050919050565b828183375f83830152505050565b5f61039b6103968461034b565b610331565b9050828152602081018484840111156103b7576103b66102bf565b5b6103c284828561037b565b509392505050565b5f82601f8301126103de576103dd6102bb565b5b81356103ee848260208601610389565b91505092915050565b5f6020828403121561040c5761040b6102b3565b5b5f82013567ffffffffffffffff811115610429576104286102b7565b5b610435848285016103ca565b91505092915050565b61044781610279565b8114610451575f80fd5b50565b5f813590506104628161043e565b92915050565b5f805f6060848603121561047f5761047e6102b3565b5b5f84013567ffffffffffffffff81111561049c5761049b6102b7565b5b6104a8868287016103ca565b93505060206104b986828701610454565b92505060406104ca86828701610454565b9150509250925092565b5f81519050919050565b5f82825260208201905092915050565b8281835e5f83830152505050565b5f610506826104d4565b61051081856104de565b93506105208185602086016104ee565b610529816102c3565b840191505092915050565b5f60a0820190508181035f83015261054c81886104fc565b905061055b6020830187610282565b6105686040830186610282565b818103606083015261057a81856104fc565b90506105896080830184610282565b9695505050505050565b7f4e487b71000000000000000000000000000000000000000000000000000000005f52602260045260245ffd5b5f60028204905060018216806105d757607f821691505b6020821081036105ea576105e9610593565b5b50919050565b5f819050815f5260205f209050919050565b5f6020601f8301049050919050565b5f82821b905092915050565b5f6008830261064c7fffffffffffffffffffffffffffffffffffffffffffffffffffffffffffffffff82610611565b6106568683610611565b95508019841693508086168417925050509392505050565b5f819050919050565b5f61069161068c61068784610279565b61066e565b610279565b9050919050565b5f819050919050565b6106aa83610677565b6106be6106b682610698565b84845461061d565b825550505050565b5f90565b6106d26106c6565b6106dd8184846106a1565b505050565b5b81811015610700576106f55f826106ca565b6001810190506106e3565b5050565b601f82111561074557610716816105f0565b61071f84610602565b8101602085101561072e578190505b61074261073a85610602565b8301826106e2565b50505b505050565b5f82821c905092915050565b5f6107655f198460080261074a565b1980831691505092915050565b5f61077d8383610756565b9150826002028217905092915050565b610796826104d4565b67ffffffffffffffff8111156107af576107ae6102d3565b5b6107b982546105c0565b6107c4828285610704565b5f60209050601f8311600181146107f5575f84156107e3578287015190505b6107ed8582610772565b865550610854565b601f198416610803866105f0565b5f5b8281101561082a57848901518255600182019150602085019450602081019050610805565b868310156108475784890151610843601f891682610756565b8355505b6001600288020188555050505b50505050505056fea2646970667358221220b2e921a352ea43c3a82d310ea1a50446c00c5dbbc14353728ba69b632e2230ad64736f6c634300081a0033",
					"opcodes": "PUSH1 0x80 PUSH1 0x40 MSTORE PUSH1 0x40 MLOAD PUSH1 0xE SWAP1 PUSH1 0x74 JUMP JUMPDEST PUSH1 0x40 MLOAD DUP1 SWAP2 SUB SWAP1 PUSH0 CREATE DUP1 ISZERO DUP1 ISZERO PUSH1 0x26 JUMPI RETURNDATASIZE PUSH0 DUP1 RETURNDATACOPY RETURNDATASIZE PUSH0 REVERT JUMPDEST POP PUSH0 DUP1 PUSH2 0x100 EXP DUP2 SLOAD DUP2 PUSH20 0xFFFFFFFFFFFFFFFFFFFFFFFFFFFFFFFFFFFFFFFF MUL NOT AND SWAP1 DUP4 PUSH20 0xFFFFFFFFFFFFFFFFFFFFFFFFFFFFFFFFFFFFFFFF AND MUL OR SWAP1 SSTORE POP CALLVALUE DUP1 ISZERO PUSH1 0x6F JUMPI PUSH0 DUP1 REVERT JUMPDEST POP PUSH1 0x81 JUMP JUMPDEST PUSH2 0x8AE DUP1 PUSH2 0x7D7 DUP4 CODECOPY ADD SWAP1 JUMP JUMPDEST PUSH2 0x749 DUP1 PUSH2 0x8E PUSH0 CODECOPY PUSH0 RETURN INVALID PUSH1 0x80 PUSH1 0x40 MSTORE CALLVALUE DUP1 ISZERO PUSH2 0xF JUMPI PUSH0 DUP1 REVERT JUMPDEST POP PUSH1 0x4 CALLDATASIZE LT PUSH2 0x29 JUMPI PUSH0 CALLDATALOAD PUSH1 0xE0 SHR DUP1 PUSH4 0x145083C9 EQ PUSH2 0x2D JUMPI JUMPDEST PUSH0 DUP1 REVERT JUMPDEST PUSH2 0x35 PUSH2 0x4F JUMP JUMPDEST PUSH1 0x40 MLOAD PUSH2 0x46 SWAP6 SWAP5 SWAP4 SWAP3 SWAP2 SWAP1 PUSH2 0x31A JUMP JUMPDEST PUSH1 0x40 MLOAD DUP1 SWAP2 SUB SWAP1 RETURN JUMPDEST PUSH1 0x60 PUSH0 DUP1 PUSH1 0x60 PUSH0 DUP1 PUSH0 SWAP1 SLOAD SWAP1 PUSH2 0x100 EXP SWAP1 DIV PUSH20 0xFFFFFFFFFFFFFFFFFFFFFFFFFFFFFFFFFFFFFFFF AND PUSH20 0xFFFFFFFFFFFFFFFFFFFFFFFFFFFFFFFFFFFFFFFF AND PUSH4 0xDC164840 PUSH1 0x65 PUSH2 0x4E20 PUSH1 0x40 MLOAD DUP4 PUSH4 0xFFFFFFFF AND PUSH1 0xE0 SHL DUP2 MSTORE PUSH1 0x4 ADD PUSH2 0xB4 SWAP3 SWAP2 SWAP1 PUSH2 0x43E JUMP JUMPDEST PUSH0 PUSH1 0x40 MLOAD DUP1 DUP4 SUB DUP2 PUSH0 DUP8 DUP1 EXTCODESIZE ISZERO DUP1 ISZERO PUSH2 0xCB JUMPI PUSH0 DUP1 REVERT JUMPDEST POP GAS CALL ISZERO DUP1 ISZERO PUSH2 0xDD JUMPI RETURNDATASIZE PUSH0 DUP1 RETURNDATACOPY RETURNDATASIZE PUSH0 REVERT JUMPDEST POP POP POP POP PUSH0 DUP1 SLOAD SWAP1 PUSH2 0x100 EXP SWAP1 DIV PUSH20 0xFFFFFFFFFFFFFFFFFFFFFFFFFFFFFFFFFFFFFFFF AND PUSH20 0xFFFFFFFFFFFFFFFFFFFFFFFFFFFFFFFFFFFFFFFF AND PUSH4 0xA04F1BB7 PUSH1 0x40 MLOAD DUP2 PUSH4 0xFFFFFFFF AND PUSH1 0xE0 SHL DUP2 MSTORE PUSH1 0x4 ADD PUSH2 0x137 SWAP1 PUSH2 0x4C2 JUMP JUMPDEST PUSH0 PUSH1 0x40 MLOAD DUP1 DUP4 SUB DUP2 PUSH0 DUP8 DUP1 EXTCODESIZE ISZERO DUP1 ISZERO PUSH2 0x14E JUMPI PUSH0 DUP1 REVERT JUMPDEST POP GAS CALL ISZERO DUP1 ISZERO PUSH2 0x160 JUMPI RETURNDATASIZE PUSH0 DUP1 RETURNDATACOPY RETURNDATASIZE PUSH0 REVERT JUMPDEST POP POP POP POP PUSH0 DUP1 SLOAD SWAP1 PUSH2 0x100 EXP SWAP1 DIV PUSH20 0xFFFFFFFFFFFFFFFFFFFFFFFFFFFFFFFFFFFFFFFF AND PUSH20 0xFFFFFFFFFFFFFFFFFFFFFFFFFFFFFFFFFFFFFFFF AND PUSH4 0x844CEB4C PUSH1 0x40 MLOAD DUP2 PUSH4 0xFFFFFFFF AND PUSH1 0xE0 SHL DUP2 MSTORE PUSH1 0x4 ADD PUSH1 0x20 PUSH1 0x40 MLOAD DUP1 DUP4 SUB DUP2 PUSH0 DUP8 GAS CALL ISZERO DUP1 ISZERO PUSH2 0x1CD JUMPI RETURNDATASIZE PUSH0 DUP1 RETURNDATACOPY RETURNDATASIZE PUSH0 REVERT JUMPDEST POP POP POP POP PUSH1 0x40 MLOAD RETURNDATASIZE PUSH1 0x1F NOT PUSH1 0x1F DUP3 ADD AND DUP3 ADD DUP1 PUSH1 0x40 MSTORE POP DUP2 ADD SWAP1 PUSH2 0x1F1 SWAP2 SWAP1 PUSH2 0x51B JUMP JUMPDEST POP PUSH0 DUP1 SLOAD SWAP1 PUSH2 0x100 EXP SWAP1 DIV PUSH20 0xFFFFFFFFFFFFFFFFFFFFFFFFFFFFFFFFFFFFFFFF AND PUSH20 0xFFFFFFFFFFFFFFFFFFFFFFFFFFFFFFFFFFFFFFFF AND PUSH4 0xE1CB0E52 PUSH1 0x40 MLOAD DUP2 PUSH4 0xFFFFFFFF AND PUSH1 0xE0 SHL DUP2 MSTORE PUSH1 0x4 ADD PUSH0 PUSH1 0x40 MLOAD DUP1 DUP4 SUB DUP2 DUP7 GAS STATICCALL ISZERO DUP1 ISZERO PUSH2 0x259 JUMPI RETURNDATASIZE PUSH0 DUP1 RETURNDATACOPY RETURNDATASIZE PUSH0 REVERT JUMPDEST POP POP POP POP PUSH1 0x40 MLOAD RETURNDATASIZE PUSH0 DUP3 RETURNDATACOPY RETURNDATASIZE PUSH1 0x1F NOT PUSH1 0x1F DUP3 ADD AND DUP3 ADD DUP1 PUSH1 0x40 MSTORE POP DUP2 ADD SWAP1 PUSH2 0x281 SWAP2 SWAP1 PUSH2 0x664 JUMP JUMPDEST SWAP5 POP SWAP5 POP SWAP5 POP SWAP5 POP SWAP5 POP SWAP1 SWAP2 SWAP3 SWAP4 SWAP5 JUMP JUMPDEST PUSH0 DUP2 MLOAD SWAP1 POP SWAP2 SWAP1 POP JUMP JUMPDEST PUSH0 DUP3 DUP3 MSTORE PUSH1 0x20 DUP3 ADD SWAP1 POP SWAP3 SWAP2 POP POP JUMP JUMPDEST DUP3 DUP2 DUP4 MCOPY PUSH0 DUP4 DUP4 ADD MSTORE POP POP POP JUMP JUMPDEST PUSH0 PUSH1 0x1F NOT PUSH1 0x1F DUP4 ADD AND SWAP1 POP SWAP2 SWAP1 POP JUMP JUMPDEST PUSH0 PUSH2 0x2D4 DUP3 PUSH2 0x292 JUMP JUMPDEST PUSH2 0x2DE DUP2 DUP6 PUSH2 0x29C JUMP JUMPDEST SWAP4 POP PUSH2 0x2EE DUP2 DUP6 PUSH1 0x20 DUP7 ADD PUSH2 0x2AC JUMP JUMPDEST PUSH2 0x2F7 DUP2 PUSH2 0x2BA JUMP JUMPDEST DUP5 ADD SWAP2 POP POP SWAP3 SWAP2 POP POP JUMP JUMPDEST PUSH0 DUP2 SWAP1 POP SWAP2 SWAP1 POP JUMP JUMPDEST PUSH2 0x314 DUP2 PUSH2 0x302 JUMP JUMPDEST DUP3 MSTORE POP POP JUMP JUMPDEST PUSH0 PUSH1 0xA0 DUP3 ADD SWAP1 POP DUP2 DUP2 SUB PUSH0 DUP4 ADD MSTORE PUSH2 0x332 DUP2 DUP9 PUSH2 0x2CA JUMP JUMPDEST SWAP1 POP PUSH2 0x341 PUSH1 0x20 DUP4 ADD DUP8 PUSH2 0x30B JUMP JUMPDEST PUSH2 0x34E PUSH1 0x40 DUP4 ADD DUP7 PUSH2 0x30B JUMP JUMPDEST DUP2 DUP2 SUB PUSH1 0x60 DUP4 ADD MSTORE PUSH2 0x360 DUP2 DUP6 PUSH2 0x2CA JUMP JUMPDEST SWAP1 POP PUSH2 0x36F PUSH1 0x80 DUP4 ADD DUP5 PUSH2 0x30B JUMP JUMPDEST SWAP7 SWAP6 POP POP POP POP POP POP JUMP JUMPDEST PUSH32 0x536861696C657368205461676164676861720000000000000000000000000000 PUSH0 DUP3 ADD MSTORE POP JUMP JUMPDEST PUSH0 PUSH2 0x3AD PUSH1 0x12 DUP4 PUSH2 0x29C JUMP JUMPDEST SWAP2 POP PUSH2 0x3B8 DUP3 PUSH2 0x379 JUMP JUMPDEST PUSH1 0x20 DUP3 ADD SWAP1 POP SWAP2 SWAP1 POP JUMP JUMPDEST PUSH0 DUP2 SWAP1 POP SWAP2 SWAP1 POP JUMP JUMPDEST PUSH0 DUP2 SWAP1 POP SWAP2 SWAP1 POP JUMP JUMPDEST PUSH0 PUSH2 0x3EF PUSH2 0x3EA PUSH2 0x3E5 DUP5 PUSH2 0x3C3 JUMP JUMPDEST PUSH2 0x3CC JUMP JUMPDEST PUSH2 0x302 JUMP JUMPDEST SWAP1 POP SWAP2 SWAP1 POP JUMP JUMPDEST PUSH2 0x3FF DUP2 PUSH2 0x3D5 JUMP JUMPDEST DUP3 MSTORE POP POP JUMP JUMPDEST PUSH0 DUP2 SWAP1 POP SWAP2 SWAP1 POP JUMP JUMPDEST PUSH0 PUSH2 0x428 PUSH2 0x423 PUSH2 0x41E DUP5 PUSH2 0x405 JUMP JUMPDEST PUSH2 0x3CC JUMP JUMPDEST PUSH2 0x302 JUMP JUMPDEST SWAP1 POP SWAP2 SWAP1 POP JUMP JUMPDEST PUSH2 0x438 DUP2 PUSH2 0x40E JUMP JUMPDEST DUP3 MSTORE POP POP JUMP JUMPDEST PUSH0 PUSH1 0x60 DUP3 ADD SWAP1 POP DUP2 DUP2 SUB PUSH0 DUP4 ADD MSTORE PUSH2 0x455 DUP2 PUSH2 0x3A1 JUMP JUMPDEST SWAP1 POP PUSH2 0x464 PUSH1 0x20 DUP4 ADD DUP6 PUSH2 0x3F6 JUMP JUMPDEST PUSH2 0x471 PUSH1 0x40 DUP4 ADD DUP5 PUSH2 0x42F JUMP JUMPDEST SWAP4 SWAP3 POP POP POP JUMP JUMPDEST PUSH32 0x4353000000000000000000000000000000000000000000000000000000000000 PUSH0 DUP3 ADD MSTORE POP JUMP JUMPDEST PUSH0 PUSH2 0x4AC PUSH1 0x2 DUP4 PUSH2 0x29C JUMP JUMPDEST SWAP2 POP PUSH2 0x4B7 DUP3 PUSH2 0x478 JUMP JUMPDEST PUSH1 0x20 DUP3 ADD SWAP1 POP SWAP2 SWAP1 POP JUMP JUMPDEST PUSH0 PUSH1 0x20 DUP3 ADD SWAP1 POP DUP2 DUP2 SUB PUSH0 DUP4 ADD MSTORE PUSH2 0x4D9 DUP2 PUSH2 0x4A0 JUMP JUMPDEST SWAP1 POP SWAP2 SWAP1 POP JUMP JUMPDEST PUSH0 PUSH1 0x40 MLOAD SWAP1 POP SWAP1 JUMP JUMPDEST PUSH0 DUP1 REVERT JUMPDEST PUSH0 DUP1 REVERT JUMPDEST PUSH2 0x4FA DUP2 PUSH2 0x302 JUMP JUMPDEST DUP2 EQ PUSH2 0x504 JUMPI PUSH0 DUP1 REVERT JUMPDEST POP JUMP JUMPDEST PUSH0 DUP2 MLOAD SWAP1 POP PUSH2 0x515 DUP2 PUSH2 0x4F1 JUMP JUMPDEST SWAP3 SWAP2 POP POP JUMP JUMPDEST PUSH0 PUSH1 0x20 DUP3 DUP5 SUB SLT ISZERO PUSH2 0x530 JUMPI PUSH2 0x52F PUSH2 0x4E9 JUMP JUMPDEST JUMPDEST PUSH0 PUSH2 0x53D DUP5 DUP3 DUP6 ADD PUSH2 0x507 JUMP JUMPDEST SWAP2 POP POP SWAP3 SWAP2 POP POP JUMP JUMPDEST PUSH0 DUP1 REVERT JUMPDEST PUSH0 DUP1 REVERT JUMPDEST PUSH32 0x4E487B7100000000000000000000000000000000000000000000000000000000 PUSH0 MSTORE PUSH1 0x41 PUSH1 0x4 MSTORE PUSH1 0x24 PUSH0 REVERT JUMPDEST PUSH2 0x584 DUP3 PUSH2 0x2BA JUMP JUMPDEST DUP2 ADD DUP2 DUP2 LT PUSH8 0xFFFFFFFFFFFFFFFF DUP3 GT OR ISZERO PUSH2 0x5A3 JUMPI PUSH2 0x5A2 PUSH2 0x54E JUMP JUMPDEST JUMPDEST DUP1 PUSH1 0x40 MSTORE POP POP POP JUMP JUMPDEST PUSH0 PUSH2 0x5B5 PUSH2 0x4E0 JUMP JUMPDEST SWAP1 POP PUSH2 0x5C1 DUP3 DUP3 PUSH2 0x57B JUMP JUMPDEST SWAP2 SWAP1 POP JUMP JUMPDEST PUSH0 PUSH8 0xFFFFFFFFFFFFFFFF DUP3 GT ISZERO PUSH2 0x5E0 JUMPI PUSH2 0x5DF PUSH2 0x54E JUMP JUMPDEST JUMPDEST PUSH2 0x5E9 DUP3 PUSH2 0x2BA JUMP JUMPDEST SWAP1 POP PUSH1 0x20 DUP2 ADD SWAP1 POP SWAP2 SWAP1 POP JUMP JUMPDEST PUSH0 PUSH2 0x608 PUSH2 0x603 DUP5 PUSH2 0x5C6 JUMP JUMPDEST PUSH2 0x5AC JUMP JUMPDEST SWAP1 POP DUP3 DUP2 MSTORE PUSH1 0x20 DUP2 ADD DUP5 DUP5 DUP5 ADD GT ISZERO PUSH2 0x624 JUMPI PUSH2 0x623 PUSH2 0x54A JUMP JUMPDEST JUMPDEST PUSH2 0x62F DUP5 DUP3 DUP6 PUSH2 0x2AC JUMP JUMPDEST POP SWAP4 SWAP3 POP POP POP JUMP JUMPDEST PUSH0 DUP3 PUSH1 0x1F DUP4 ADD SLT PUSH2 0x64B JUMPI PUSH2 0x64A PUSH2 0x546 JUMP JUMPDEST JUMPDEST DUP2 MLOAD PUSH2 0x65B DUP5 DUP3 PUSH1 0x20 DUP7 ADD PUSH2 0x5F6 JUMP JUMPDEST SWAP2 POP POP SWAP3 SWAP2 POP POP JUMP JUMPDEST PUSH0 DUP1 PUSH0 DUP1 PUSH0 PUSH1 0xA0 DUP7 DUP9 SUB SLT ISZERO PUSH2 0x67D JUMPI PUSH2 0x67C PUSH2 0x4E9 JUMP JUMPDEST JUMPDEST PUSH0 DUP7 ADD MLOAD PUSH8 0xFFFFFFFFFFFFFFFF DUP2 GT ISZERO PUSH2 0x69A JUMPI PUSH2 0x699 PUSH2 0x4ED JUMP JUMPDEST JUMPDEST PUSH2 0x6A6 DUP9 DUP3 DUP10 ADD PUSH2 0x637 JUMP JUMPDEST SWAP6 POP POP PUSH1 0x20 PUSH2 0x6B7 DUP9 DUP3 DUP10 ADD PUSH2 0x507 JUMP JUMPDEST SWAP5 POP POP PUSH1 0x40 PUSH2 0x6C8 DUP9 DUP3 DUP10 ADD PUSH2 0x507 JUMP JUMPDEST SWAP4 POP POP PUSH1 0x60 DUP7 ADD MLOAD PUSH8 0xFFFFFFFFFFFFFFFF DUP2 GT ISZERO PUSH2 0x6E9 JUMPI PUSH2 0x6E8 PUSH2 0x4ED JUMP JUMPDEST JUMPDEST PUSH2 0x6F5 DUP9 DUP3 DUP10 ADD PUSH2 0x637 JUMP JUMPDEST SWAP3 POP POP PUSH1 0x80 PUSH2 0x706 DUP9 DUP3 DUP10 ADD PUSH2 0x507 JUMP JUMPDEST SWAP2 POP POP SWAP3 SWAP6 POP SWAP3 SWAP6 SWAP1 SWAP4 POP JUMP INVALID LOG2 PUSH5 0x6970667358 0x22 SLT KECCAK256 0xDF SLT SWAP3 ORIGIN RETURNDATASIZE 0xDF PUSH20 0x79176E7DE29833EDBFEACBFF04320CF2D05880C6 SLOAD SWAP3 GASLIMIT ADDRESS 0xE4 PUSH5 0x736F6C6343 STOP ADDMOD BYTE STOP CALLER PUSH1 0x80 PUSH1 0x40 MSTORE CALLVALUE DUP1 ISZERO PUSH1 0xE JUMPI PUSH0 DUP1 REVERT JUMPDEST POP PUSH2 0x892 DUP1 PUSH2 0x1C PUSH0 CODECOPY PUSH0 RETURN INVALID PUSH1 0x80 PUSH1 0x40 MSTORE CALLVALUE DUP1 ISZERO PUSH2 0xF JUMPI PUSH0 DUP1 REVERT JUMPDEST POP PUSH1 0x4 CALLDATASIZE LT PUSH2 0x4A JUMPI PUSH0 CALLDATALOAD PUSH1 0xE0 SHR DUP1 PUSH4 0x844CEB4C EQ PUSH2 0x4E JUMPI DUP1 PUSH4 0xA04F1BB7 EQ PUSH2 0x6C JUMPI DUP1 PUSH4 0xDC164840 EQ PUSH2 0x88 JUMPI DUP1 PUSH4 0xE1CB0E52 EQ PUSH2 0xA4 JUMPI JUMPDEST PUSH0 DUP1 REVERT JUMPDEST PUSH2 0x56 PUSH2 0xC6 JUMP JUMPDEST PUSH1 0x40 MLOAD PUSH2 0x63 SWAP2 SWAP1 PUSH2 0x291 JUMP JUMPDEST PUSH1 0x40 MLOAD DUP1 SWAP2 SUB SWAP1 RETURN JUMPDEST PUSH2 0x86 PUSH1 0x4 DUP1 CALLDATASIZE SUB DUP2 ADD SWAP1 PUSH2 0x81 SWAP2 SWAP1 PUSH2 0x3F7 JUMP JUMPDEST PUSH2 0x10C JUMP JUMPDEST STOP JUMPDEST PUSH2 0xA2 PUSH1 0x4 DUP1 CALLDATASIZE SUB DUP2 ADD SWAP1 PUSH2 0x9D SWAP2 SWAP1 PUSH2 0x468 JUMP JUMPDEST PUSH2 0x11F JUMP JUMPDEST STOP JUMPDEST PUSH2 0xAC PUSH2 0x141 JUMP JUMPDEST PUSH1 0x40 MLOAD PUSH2 0xBD SWAP6 SWAP5 SWAP4 SWAP3 SWAP2 SWAP1 PUSH2 0x534 JUMP JUMPDEST PUSH1 0x40 MLOAD DUP1 SWAP2 SUB SWAP1 RETURN JUMPDEST PUSH0 PUSH2 0x3A98 PUSH1 0x2 SLOAD LT PUSH2 0xE0 JUMPI PUSH2 0x1388 PUSH1 0x4 DUP2 SWAP1 SSTORE POP PUSH2 0x104 JUMP JUMPDEST PUSH2 0x61A8 PUSH1 0x2 SLOAD LT PUSH2 0xF9 JUMPI PUSH2 0x2710 PUSH1 0x4 DUP2 SWAP1 SSTORE POP PUSH2 0x103 JUMP JUMPDEST PUSH2 0x7D0 PUSH1 0x4 DUP2 SWAP1 SSTORE POP JUMPDEST JUMPDEST PUSH1 0x4 SLOAD SWAP1 POP SWAP1 JUMP JUMPDEST DUP1 PUSH1 0x3 SWAP1 DUP2 PUSH2 0x11B SWAP2 SWAP1 PUSH2 0x78D JUMP JUMPDEST POP POP JUMP JUMPDEST DUP3 PUSH0 SWAP1 DUP2 PUSH2 0x12D SWAP2 SWAP1 PUSH2 0x78D JUMP JUMPDEST POP DUP2 PUSH1 0x1 DUP2 SWAP1 SSTORE POP DUP1 PUSH1 0x2 DUP2 SWAP1 SSTORE POP POP POP POP JUMP JUMPDEST PUSH1 0x60 PUSH0 DUP1 PUSH1 0x60 PUSH0 DUP1 PUSH1 0x1 SLOAD PUSH1 0x2 SLOAD PUSH1 0x3 PUSH1 0x4 SLOAD DUP5 DUP1 SLOAD PUSH2 0x160 SWAP1 PUSH2 0x5C0 JUMP JUMPDEST DUP1 PUSH1 0x1F ADD PUSH1 0x20 DUP1 SWAP2 DIV MUL PUSH1 0x20 ADD PUSH1 0x40 MLOAD SWAP1 DUP2 ADD PUSH1 0x40 MSTORE DUP1 SWAP3 SWAP2 SWAP1 DUP2 DUP2 MSTORE PUSH1 0x20 ADD DUP3 DUP1 SLOAD PUSH2 0x18C SWAP1 PUSH2 0x5C0 JUMP JUMPDEST DUP1 ISZERO PUSH2 0x1D7 JUMPI DUP1 PUSH1 0x1F LT PUSH2 0x1AE JUMPI PUSH2 0x100 DUP1 DUP4 SLOAD DIV MUL DUP4 MSTORE SWAP2 PUSH1 0x20 ADD SWAP2 PUSH2 0x1D7 JUMP JUMPDEST DUP3 ADD SWAP2 SWAP1 PUSH0 MSTORE PUSH1 0x20 PUSH0 KECCAK256 SWAP1 JUMPDEST DUP2 SLOAD DUP2 MSTORE SWAP1 PUSH1 0x1 ADD SWAP1 PUSH1 0x20 ADD DUP1 DUP4 GT PUSH2 0x1BA JUMPI DUP3 SWAP1 SUB PUSH1 0x1F AND DUP3 ADD SWAP2 JUMPDEST POP POP POP POP POP SWAP5 POP DUP2 DUP1 SLOAD PUSH2 0x1EA SWAP1 PUSH2 0x5C0 JUMP JUMPDEST DUP1 PUSH1 0x1F ADD PUSH1 0x20 DUP1 SWAP2 DIV MUL PUSH1 0x20 ADD PUSH1 0x40 MLOAD SWAP1 DUP2 ADD PUSH1 0x40 MSTORE DUP1 SWAP3 SWAP2 SWAP1 DUP2 DUP2 MSTORE PUSH1 0x20 ADD DUP3 DUP1 SLOAD PUSH2 0x216 SWAP1 PUSH2 0x5C0 JUMP JUMPDEST DUP1 ISZERO PUSH2 0x261 JUMPI DUP1 PUSH1 0x1F LT PUSH2 0x238 JUMPI PUSH2 0x100 DUP1 DUP4 SLOAD DIV MUL DUP4 MSTORE SWAP2 PUSH1 0x20 ADD SWAP2 PUSH2 0x261 JUMP JUMPDEST DUP3 ADD SWAP2 SWAP1 PUSH0 MSTORE PUSH1 0x20 PUSH0 KECCAK256 SWAP1 JUMPDEST DUP2 SLOAD DUP2 MSTORE SWAP1 PUSH1 0x1 ADD SWAP1 PUSH1 0x20 ADD DUP1 DUP4 GT PUSH2 0x244 JUMPI DUP3 SWAP1 SUB PUSH1 0x1F AND DUP3 ADD SWAP2 JUMPDEST POP POP POP POP POP SWAP2 POP SWAP5 POP SWAP5 POP SWAP5 POP SWAP5 POP SWAP5 POP SWAP1 SWAP2 SWAP3 SWAP4 SWAP5 JUMP JUMPDEST PUSH0 DUP2 SWAP1 POP SWAP2 SWAP1 POP JUMP JUMPDEST PUSH2 0x28B DUP2 PUSH2 0x279 JUMP JUMPDEST DUP3 MSTORE POP POP JUMP JUMPDEST PUSH0 PUSH1 0x20 DUP3 ADD SWAP1 POP PUSH2 0x2A4 PUSH0 DUP4 ADD DUP5 PUSH2 0x282 JUMP JUMPDEST SWAP3 SWAP2 POP POP JUMP JUMPDEST PUSH0 PUSH1 0x40 MLOAD SWAP1 POP SWAP1 JUMP JUMPDEST PUSH0 DUP1 REVERT JUMPDEST PUSH0 DUP1 REVERT JUMPDEST PUSH0 DUP1 REVERT JUMPDEST PUSH0 DUP1 REVERT JUMPDEST PUSH0 PUSH1 0x1F NOT PUSH1 0x1F DUP4 ADD AND SWAP1 POP SWAP2 SWAP1 POP JUMP JUMPDEST PUSH32 0x4E487B7100000000000000000000000000000000000000000000000000000000 PUSH0 MSTORE PUSH1 0x41 PUSH1 0x4 MSTORE PUSH1 0x24 PUSH0 REVERT JUMPDEST PUSH2 0x309 DUP3 PUSH2 0x2C3 JUMP JUMPDEST DUP2 ADD DUP2 DUP2 LT PUSH8 0xFFFFFFFFFFFFFFFF DUP3 GT OR ISZERO PUSH2 0x328 JUMPI PUSH2 0x327 PUSH2 0x2D3 JUMP JUMPDEST JUMPDEST DUP1 PUSH1 0x40 MSTORE POP POP POP JUMP JUMPDEST PUSH0 PUSH2 0x33A PUSH2 0x2AA JUMP JUMPDEST SWAP1 POP PUSH2 0x346 DUP3 DUP3 PUSH2 0x300 JUMP JUMPDEST SWAP2 SWAP1 POP JUMP JUMPDEST PUSH0 PUSH8 0xFFFFFFFFFFFFFFFF DUP3 GT ISZERO PUSH2 0x365 JUMPI PUSH2 0x364 PUSH2 0x2D3 JUMP JUMPDEST JUMPDEST PUSH2 0x36E DUP3 PUSH2 0x2C3 JUMP JUMPDEST SWAP1 POP PUSH1 0x20 DUP2 ADD SWAP1 POP SWAP2 SWAP1 POP JUMP JUMPDEST DUP3 DUP2 DUP4 CALLDATACOPY PUSH0 DUP4 DUP4 ADD MSTORE POP POP POP JUMP JUMPDEST PUSH0 PUSH2 0x39B PUSH2 0x396 DUP5 PUSH2 0x34B JUMP JUMPDEST PUSH2 0x331 JUMP JUMPDEST SWAP1 POP DUP3 DUP2 MSTORE PUSH1 0x20 DUP2 ADD DUP5 DUP5 DUP5 ADD GT ISZERO PUSH2 0x3B7 JUMPI PUSH2 0x3B6 PUSH2 0x2BF JUMP JUMPDEST JUMPDEST PUSH2 0x3C2 DUP5 DUP3 DUP6 PUSH2 0x37B JUMP JUMPDEST POP SWAP4 SWAP3 POP POP POP JUMP JUMPDEST PUSH0 DUP3 PUSH1 0x1F DUP4 ADD SLT PUSH2 0x3DE JUMPI PUSH2 0x3DD PUSH2 0x2BB JUMP JUMPDEST JUMPDEST DUP2 CALLDATALOAD PUSH2 0x3EE DUP5 DUP3 PUSH1 0x20 DUP7 ADD PUSH2 0x389 JUMP JUMPDEST SWAP2 POP POP SWAP3 SWAP2 POP POP JUMP JUMPDEST PUSH0 PUSH1 0x20 DUP3 DUP5 SUB SLT ISZERO PUSH2 0x40C JUMPI PUSH2 0x40B PUSH2 0x2B3 JUMP JUMPDEST JUMPDEST PUSH0 DUP3 ADD CALLDATALOAD PUSH8 0xFFFFFFFFFFFFFFFF DUP2 GT ISZERO PUSH2 0x429 JUMPI PUSH2 0x428 PUSH2 0x2B7 JUMP JUMPDEST JUMPDEST PUSH2 0x435 DUP5 DUP3 DUP6 ADD PUSH2 0x3CA JUMP JUMPDEST SWAP2 POP POP SWAP3 SWAP2 POP POP JUMP JUMPDEST PUSH2 0x447 DUP2 PUSH2 0x279 JUMP JUMPDEST DUP2 EQ PUSH2 0x451 JUMPI PUSH0 DUP1 REVERT JUMPDEST POP JUMP JUMPDEST PUSH0 DUP2 CALLDATALOAD SWAP1 POP PUSH2 0x462 DUP2 PUSH2 0x43E JUMP JUMPDEST SWAP3 SWAP2 POP POP JUMP JUMPDEST PUSH0 DUP1 PUSH0 PUSH1 0x60 DUP5 DUP7 SUB SLT ISZERO PUSH2 0x47F JUMPI PUSH2 0x47E PUSH2 0x2B3 JUMP JUMPDEST JUMPDEST PUSH0 DUP5 ADD CALLDATALOAD PUSH8 0xFFFFFFFFFFFFFFFF DUP2 GT ISZERO PUSH2 0x49C JUMPI PUSH2 0x49B PUSH2 0x2B7 JUMP JUMPDEST JUMPDEST PUSH2 0x4A8 DUP7 DUP3 DUP8 ADD PUSH2 0x3CA JUMP JUMPDEST SWAP4 POP POP PUSH1 0x20 PUSH2 0x4B9 DUP7 DUP3 DUP8 ADD PUSH2 0x454 JUMP JUMPDEST SWAP3 POP POP PUSH1 0x40 PUSH2 0x4CA DUP7 DUP3 DUP8 ADD PUSH2 0x454 JUMP JUMPDEST SWAP2 POP POP SWAP3 POP SWAP3 POP SWAP3 JUMP JUMPDEST PUSH0 DUP2 MLOAD SWAP1 POP SWAP2 SWAP1 POP JUMP JUMPDEST PUSH0 DUP3 DUP3 MSTORE PUSH1 0x20 DUP3 ADD SWAP1 POP SWAP3 SWAP2 POP POP JUMP JUMPDEST DUP3 DUP2 DUP4 MCOPY PUSH0 DUP4 DUP4 ADD MSTORE POP POP POP JUMP JUMPDEST PUSH0 PUSH2 0x506 DUP3 PUSH2 0x4D4 JUMP JUMPDEST PUSH2 0x510 DUP2 DUP6 PUSH2 0x4DE JUMP JUMPDEST SWAP4 POP PUSH2 0x520 DUP2 DUP6 PUSH1 0x20 DUP7 ADD PUSH2 0x4EE JUMP JUMPDEST PUSH2 0x529 DUP2 PUSH2 0x2C3 JUMP JUMPDEST DUP5 ADD SWAP2 POP POP SWAP3 SWAP2 POP POP JUMP JUMPDEST PUSH0 PUSH1 0xA0 DUP3 ADD SWAP1 POP DUP2 DUP2 SUB PUSH0 DUP4 ADD MSTORE PUSH2 0x54C DUP2 DUP9 PUSH2 0x4FC JUMP JUMPDEST SWAP1 POP PUSH2 0x55B PUSH1 0x20 DUP4 ADD DUP8 PUSH2 0x282 JUMP JUMPDEST PUSH2 0x568 PUSH1 0x40 DUP4 ADD DUP7 PUSH2 0x282 JUMP JUMPDEST DUP2 DUP2 SUB PUSH1 0x60 DUP4 ADD MSTORE PUSH2 0x57A DUP2 DUP6 PUSH2 0x4FC JUMP JUMPDEST SWAP1 POP PUSH2 0x589 PUSH1 0x80 DUP4 ADD DUP5 PUSH2 0x282 JUMP JUMPDEST SWAP7 SWAP6 POP POP POP POP POP POP JUMP JUMPDEST PUSH32 0x4E487B7100000000000000000000000000000000000000000000000000000000 PUSH0 MSTORE PUSH1 0x22 PUSH1 0x4 MSTORE PUSH1 0x24 PUSH0 REVERT JUMPDEST PUSH0 PUSH1 0x2 DUP3 DIV SWAP1 POP PUSH1 0x1 DUP3 AND DUP1 PUSH2 0x5D7 JUMPI PUSH1 0x7F DUP3 AND SWAP2 POP JUMPDEST PUSH1 0x20 DUP3 LT DUP2 SUB PUSH2 0x5EA JUMPI PUSH2 0x5E9 PUSH2 0x593 JUMP JUMPDEST JUMPDEST POP SWAP2 SWAP1 POP JUMP JUMPDEST PUSH0 DUP2 SWAP1 POP DUP2 PUSH0 MSTORE PUSH1 0x20 PUSH0 KECCAK256 SWAP1 POP SWAP2 SWAP1 POP JUMP JUMPDEST PUSH0 PUSH1 0x20 PUSH1 0x1F DUP4 ADD DIV SWAP1 POP SWAP2 SWAP1 POP JUMP JUMPDEST PUSH0 DUP3 DUP3 SHL SWAP1 POP SWAP3 SWAP2 POP POP JUMP JUMPDEST PUSH0 PUSH1 0x8 DUP4 MUL PUSH2 0x64C PUSH32 0xFFFFFFFFFFFFFFFFFFFFFFFFFFFFFFFFFFFFFFFFFFFFFFFFFFFFFFFFFFFFFFFF DUP3 PUSH2 0x611 JUMP JUMPDEST PUSH2 0x656 DUP7 DUP4 PUSH2 0x611 JUMP JUMPDEST SWAP6 POP DUP1 NOT DUP5 AND SWAP4 POP DUP1 DUP7 AND DUP5 OR SWAP3 POP POP POP SWAP4 SWAP3 POP POP POP JUMP JUMPDEST PUSH0 DUP2 SWAP1 POP SWAP2 SWAP1 POP JUMP JUMPDEST PUSH0 PUSH2 0x691 PUSH2 0x68C PUSH2 0x687 DUP5 PUSH2 0x279 JUMP JUMPDEST PUSH2 0x66E JUMP JUMPDEST PUSH2 0x279 JUMP JUMPDEST SWAP1 POP SWAP2 SWAP1 POP JUMP JUMPDEST PUSH0 DUP2 SWAP1 POP SWAP2 SWAP1 POP JUMP JUMPDEST PUSH2 0x6AA DUP4 PUSH2 0x677 JUMP JUMPDEST PUSH2 0x6BE PUSH2 0x6B6 DUP3 PUSH2 0x698 JUMP JUMPDEST DUP5 DUP5 SLOAD PUSH2 0x61D JUMP JUMPDEST DUP3 SSTORE POP POP POP POP JUMP JUMPDEST PUSH0 SWAP1 JUMP JUMPDEST PUSH2 0x6D2 PUSH2 0x6C6 JUMP JUMPDEST PUSH2 0x6DD DUP2 DUP5 DUP5 PUSH2 0x6A1 JUMP JUMPDEST POP POP POP JUMP JUMPDEST JUMPDEST DUP2 DUP2 LT ISZERO PUSH2 0x700 JUMPI PUSH2 0x6F5 PUSH0 DUP3 PUSH2 0x6CA JUMP JUMPDEST PUSH1 0x1 DUP2 ADD SWAP1 POP PUSH2 0x6E3 JUMP JUMPDEST POP POP JUMP JUMPDEST PUSH1 0x1F DUP3 GT ISZERO PUSH2 0x745 JUMPI PUSH2 0x716 DUP2 PUSH2 0x5F0 JUMP JUMPDEST PUSH2 0x71F DUP5 PUSH2 0x602 JUMP JUMPDEST DUP2 ADD PUSH1 0x20 DUP6 LT ISZERO PUSH2 0x72E JUMPI DUP2 SWAP1 POP JUMPDEST PUSH2 0x742 PUSH2 0x73A DUP6 PUSH2 0x602 JUMP JUMPDEST DUP4 ADD DUP3 PUSH2 0x6E2 JUMP JUMPDEST POP POP JUMPDEST POP POP POP JUMP JUMPDEST PUSH0 DUP3 DUP3 SHR SWAP1 POP SWAP3 SWAP2 POP POP JUMP JUMPDEST PUSH0 PUSH2 0x765 PUSH0 NOT DUP5 PUSH1 0x8 MUL PUSH2 0x74A JUMP JUMPDEST NOT DUP1 DUP4 AND SWAP2 POP POP SWAP3 SWAP2 POP POP JUMP JUMPDEST PUSH0 PUSH2 0x77D DUP4 DUP4 PUSH2 0x756 JUMP JUMPDEST SWAP2 POP DUP3 PUSH1 0x2 MUL DUP3 OR SWAP1 POP SWAP3 SWAP2 POP POP JUMP JUMPDEST PUSH2 0x796 DUP3 PUSH2 0x4D4 JUMP JUMPDEST PUSH8 0xFFFFFFFFFFFFFFFF DUP2 GT ISZERO PUSH2 0x7AF JUMPI PUSH2 0x7AE PUSH2 0x2D3 JUMP JUMPDEST JUMPDEST PUSH2 0x7B9 DUP3 SLOAD PUSH2 0x5C0 JUMP JUMPDEST PUSH2 0x7C4 DUP3 DUP3 DUP6 PUSH2 0x704 JUMP JUMPDEST PUSH0 PUSH1 0x20 SWAP1 POP PUSH1 0x1F DUP4 GT PUSH1 0x1 DUP2 EQ PUSH2 0x7F5 JUMPI PUSH0 DUP5 ISZERO PUSH2 0x7E3 JUMPI DUP3 DUP8 ADD MLOAD SWAP1 POP JUMPDEST PUSH2 0x7ED DUP6 DUP3 PUSH2 0x772 JUMP JUMPDEST DUP7 SSTORE POP PUSH2 0x854 JUMP JUMPDEST PUSH1 0x1F NOT DUP5 AND PUSH2 0x803 DUP7 PUSH2 0x5F0 JUMP JUMPDEST PUSH0 JUMPDEST DUP3 DUP2 LT ISZERO PUSH2 0x82A JUMPI DUP5 DUP10 ADD MLOAD DUP3 SSTORE PUSH1 0x1 DUP3 ADD SWAP2 POP PUSH1 0x20 DUP6 ADD SWAP5 POP PUSH1 0x20 DUP2 ADD SWAP1 POP PUSH2 0x805 JUMP JUMPDEST DUP7 DUP4 LT ISZERO PUSH2 0x847 JUMPI DUP5 DUP10 ADD MLOAD PUSH2 0x843 PUSH1 0x1F DUP10 AND DUP3 PUSH2 0x756 JUMP JUMPDEST DUP4 SSTORE POP JUMPDEST PUSH1 0x1 PUSH1 0x2 DUP9 MUL ADD DUP9 SSTORE POP POP POP JUMPDEST POP POP POP POP POP POP JUMP INVALID LOG2 PUSH5 0x6970667358 0x22 SLT KECCAK256 0xB2 0xE9 0x21 LOG3 MSTORE 0xEA NUMBER 0xC3 0xA8 0x2D BALANCE 0xE LOG1 0xA5 DIV CHAINID 0xC0 0xC TSTORE 0xBB 0xC1 NUMBER MSTORE8 PUSH19 0x8BA69B632E2230AD64736F6C634300081A0033 "
				},
				"gasEstimates": {
					"creation": {
						"codeDepositCost": "373000",
						"executionCost": "infinite",
						"totalCost": "infinite"
					},
					"external": {
						"tInherit()": "infinite"
					}
				},
				"methodIdentifiers": {
					"tInherit()": "145083c9"
				}
			},
			"storageLayout": {
				"storage": [
					{
						"astId": 109,
						"contract": "contracts/Practical 10/MultipleInheritance.sol:test",
						"label": "s",
						"offset": 0,
						"slot": "0",
						"type": "t_contract(salary)102"
					}
				],
				"types": {
					"t_contract(salary)102": {
						"encoding": "inplace",
						"label": "contract salary",
						"numberOfBytes": "20"
					}
				}
			},
			"userdoc": {
				"kind": "user",
				"methods": {},
				"version": 1
			}
		}
	}
}