{
	"contracts/Practical 10/MultipleInheritance.sol": {
		"department": {
			"abi": [
				{
					"inputs": [
						{
							"internalType": "string",
							"name": "a",
							"type": "string"
						}
					],
					"name": "setD",
					"outputs": [],
					"stateMutability": "nonpayable",
					"type": "function"
				}
			],
			"devdoc": {
				"kind": "dev",
				"methods": {},
				"version": 1
			},
			"evm": {
				"assembly": "    /* \"contracts/Practical 10/MultipleInheritance.sol\":336:443  contract department {... */\n  mstore(0x40, 0x80)\n  callvalue\n  dup1\n  iszero\n  tag_1\n  jumpi\n  0x00\n  dup1\n  revert\ntag_1:\n  pop\n  dataSize(sub_0)\n  dup1\n  dataOffset(sub_0)\n  0x00\n  codecopy\n  0x00\n  return\nstop\n\nsub_0: assembly {\n        /* \"contracts/Practical 10/MultipleInheritance.sol\":336:443  contract department {... */\n      mstore(0x40, 0x80)\n      callvalue\n      dup1\n      iszero\n      tag_1\n      jumpi\n      0x00\n      dup1\n      revert\n    tag_1:\n      pop\n      jumpi(tag_2, lt(calldatasize, 0x04))\n      shr(0xe0, calldataload(0x00))\n      dup1\n      0xa04f1bb7\n      eq\n      tag_3\n      jumpi\n    tag_2:\n      0x00\n      dup1\n      revert\n        /* \"contracts/Practical 10/MultipleInheritance.sol\":379:441  function setD(string memory a) public {... */\n    tag_3:\n      tag_4\n      0x04\n      dup1\n      calldatasize\n      sub\n      dup2\n      add\n      swap1\n      tag_5\n      swap2\n      swap1\n      tag_6\n      jump\t// in\n    tag_5:\n      tag_7\n      jump\t// in\n    tag_4:\n      stop\n    tag_7:\n        /* \"contracts/Practical 10/MultipleInheritance.sol\":433:434  a */\n      dup1\n        /* \"contracts/Practical 10/MultipleInheritance.sol\":427:430  dep */\n      0x00\n        /* \"contracts/Practical 10/MultipleInheritance.sol\":427:434  dep = a */\n      swap1\n      dup2\n      tag_9\n      swap2\n      swap1\n      tag_10\n      jump\t// in\n    tag_9:\n      pop\n        /* \"contracts/Practical 10/MultipleInheritance.sol\":379:441  function setD(string memory a) public {... */\n      pop\n      jump\t// out\n        /* \"#utility.yul\":7:82   */\n    tag_11:\n        /* \"#utility.yul\":40:46   */\n      0x00\n        /* \"#utility.yul\":73:75   */\n      0x40\n        /* \"#utility.yul\":67:76   */\n      mload\n        /* \"#utility.yul\":57:76   */\n      swap1\n      pop\n        /* \"#utility.yul\":7:82   */\n      swap1\n      jump\t// out\n        /* \"#utility.yul\":88:205   */\n    tag_12:\n        /* \"#utility.yul\":197:198   */\n      0x00\n        /* \"#utility.yul\":194:195   */\n      dup1\n        /* \"#utility.yul\":187:199   */\n      revert\n        /* \"#utility.yul\":211:328   */\n    tag_13:\n        /* \"#utility.yul\":320:321   */\n      0x00\n        /* \"#utility.yul\":317:318   */\n      dup1\n        /* \"#utility.yul\":310:322   */\n      revert\n        /* \"#utility.yul\":334:451   */\n    tag_14:\n        /* \"#utility.yul\":443:444   */\n      0x00\n        /* \"#utility.yul\":440:441   */\n      dup1\n        /* \"#utility.yul\":433:445   */\n      revert\n        /* \"#utility.yul\":457:574   */\n    tag_15:\n        /* \"#utility.yul\":566:567   */\n      0x00\n        /* \"#utility.yul\":563:564   */\n      dup1\n        /* \"#utility.yul\":556:568   */\n      revert\n        /* \"#utility.yul\":580:682   */\n    tag_16:\n        /* \"#utility.yul\":621:627   */\n      0x00\n        /* \"#utility.yul\":672:674   */\n      0x1f\n        /* \"#utility.yul\":668:675   */\n      not\n        /* \"#utility.yul\":663:665   */\n      0x1f\n        /* \"#utility.yul\":656:661   */\n      dup4\n        /* \"#utility.yul\":652:666   */\n      add\n        /* \"#utility.yul\":648:676   */\n      and\n        /* \"#utility.yul\":638:676   */\n      swap1\n      pop\n        /* \"#utility.yul\":580:682   */\n      swap2\n      swap1\n      pop\n      jump\t// out\n        /* \"#utility.yul\":688:868   */\n    tag_17:\n        /* \"#utility.yul\":736:813   */\n      0x4e487b7100000000000000000000000000000000000000000000000000000000\n        /* \"#utility.yul\":733:734   */\n      0x00\n        /* \"#utility.yul\":726:814   */\n      mstore\n        /* \"#utility.yul\":833:837   */\n      0x41\n        /* \"#utility.yul\":830:831   */\n      0x04\n        /* \"#utility.yul\":823:838   */\n      mstore\n        /* \"#utility.yul\":857:861   */\n      0x24\n        /* \"#utility.yul\":854:855   */\n      0x00\n        /* \"#utility.yul\":847:862   */\n      revert\n        /* \"#utility.yul\":874:1155   */\n    tag_18:\n        /* \"#utility.yul\":957:984   */\n      tag_52\n        /* \"#utility.yul\":979:983   */\n      dup3\n        /* \"#utility.yul\":957:984   */\n      tag_16\n      jump\t// in\n    tag_52:\n        /* \"#utility.yul\":949:955   */\n      dup2\n        /* \"#utility.yul\":945:985   */\n      add\n        /* \"#utility.yul\":1087:1093   */\n      dup2\n        /* \"#utility.yul\":1075:1085   */\n      dup2\n        /* \"#utility.yul\":1072:1094   */\n      lt\n        /* \"#utility.yul\":1051:1069   */\n      0xffffffffffffffff\n        /* \"#utility.yul\":1039:1049   */\n      dup3\n        /* \"#utility.yul\":1036:1070   */\n      gt\n        /* \"#utility.yul\":1033:1095   */\n      or\n        /* \"#utility.yul\":1030:1118   */\n      iszero\n      tag_53\n      jumpi\n        /* \"#utility.yul\":1098:1116   */\n      tag_54\n      tag_17\n      jump\t// in\n    tag_54:\n        /* \"#utility.yul\":1030:1118   */\n    tag_53:\n        /* \"#utility.yul\":1138:1148   */\n      dup1\n        /* \"#utility.yul\":1134:1136   */\n      0x40\n        /* \"#utility.yul\":1127:1149   */\n      mstore\n        /* \"#utility.yul\":917:1155   */\n      pop\n        /* \"#utility.yul\":874:1155   */\n      pop\n      pop\n      jump\t// out\n        /* \"#utility.yul\":1161:1290   */\n    tag_19:\n        /* \"#utility.yul\":1195:1201   */\n      0x00\n        /* \"#utility.yul\":1222:1242   */\n      tag_56\n      tag_11\n      jump\t// in\n    tag_56:\n        /* \"#utility.yul\":1212:1242   */\n      swap1\n      pop\n        /* \"#utility.yul\":1251:1284   */\n      tag_57\n        /* \"#utility.yul\":1279:1283   */\n      dup3\n        /* \"#utility.yul\":1271:1277   */\n      dup3\n        /* \"#utility.yul\":1251:1284   */\n      tag_18\n      jump\t// in\n    tag_57:\n        /* \"#utility.yul\":1161:1290   */\n      swap2\n      swap1\n      pop\n      jump\t// out\n        /* \"#utility.yul\":1296:1604   */\n    tag_20:\n        /* \"#utility.yul\":1358:1362   */\n      0x00\n        /* \"#utility.yul\":1448:1466   */\n      0xffffffffffffffff\n        /* \"#utility.yul\":1440:1446   */\n      dup3\n        /* \"#utility.yul\":1437:1467   */\n      gt\n        /* \"#utility.yul\":1434:1490   */\n      iszero\n      tag_59\n      jumpi\n        /* \"#utility.yul\":1470:1488   */\n      tag_60\n      tag_17\n      jump\t// in\n    tag_60:\n        /* \"#utility.yul\":1434:1490   */\n    tag_59:\n        /* \"#utility.yul\":1508:1537   */\n      tag_61\n        /* \"#utility.yul\":1530:1536   */\n      dup3\n        /* \"#utility.yul\":1508:1537   */\n      tag_16\n      jump\t// in\n    tag_61:\n        /* \"#utility.yul\":1500:1537   */\n      swap1\n      pop\n        /* \"#utility.yul\":1592:1596   */\n      0x20\n        /* \"#utility.yul\":1586:1590   */\n      dup2\n        /* \"#utility.yul\":1582:1597   */\n      add\n        /* \"#utility.yul\":1574:1597   */\n      swap1\n      pop\n        /* \"#utility.yul\":1296:1604   */\n      swap2\n      swap1\n      pop\n      jump\t// out\n        /* \"#utility.yul\":1610:1758   */\n    tag_21:\n        /* \"#utility.yul\":1708:1714   */\n      dup3\n        /* \"#utility.yul\":1703:1706   */\n      dup2\n        /* \"#utility.yul\":1698:1701   */\n      dup4\n        /* \"#utility.yul\":1685:1715   */\n      calldatacopy\n        /* \"#utility.yul\":1749:1750   */\n      0x00\n        /* \"#utility.yul\":1740:1746   */\n      dup4\n        /* \"#utility.yul\":1735:1738   */\n      dup4\n        /* \"#utility.yul\":1731:1747   */\n      add\n        /* \"#utility.yul\":1724:1751   */\n      mstore\n        /* \"#utility.yul\":1610:1758   */\n      pop\n      pop\n      pop\n      jump\t// out\n        /* \"#utility.yul\":1764:2189   */\n    tag_22:\n        /* \"#utility.yul\":1842:1847   */\n      0x00\n        /* \"#utility.yul\":1867:1933   */\n      tag_64\n        /* \"#utility.yul\":1883:1932   */\n      tag_65\n        /* \"#utility.yul\":1925:1931   */\n      dup5\n        /* \"#utility.yul\":1883:1932   */\n      tag_20\n      jump\t// in\n    tag_65:\n        /* \"#utility.yul\":1867:1933   */\n      tag_19\n      jump\t// in\n    tag_64:\n        /* \"#utility.yul\":1858:1933   */\n      swap1\n      pop\n        /* \"#utility.yul\":1956:1962   */\n      dup3\n        /* \"#utility.yul\":1949:1954   */\n      dup2\n        /* \"#utility.yul\":1942:1963   */\n      mstore\n        /* \"#utility.yul\":1994:1998   */\n      0x20\n        /* \"#utility.yul\":1987:1992   */\n      dup2\n        /* \"#utility.yul\":1983:1999   */\n      add\n        /* \"#utility.yul\":2032:2035   */\n      dup5\n        /* \"#utility.yul\":2023:2029   */\n      dup5\n        /* \"#utility.yul\":2018:2021   */\n      dup5\n        /* \"#utility.yul\":2014:2030   */\n      add\n        /* \"#utility.yul\":2011:2036   */\n      gt\n        /* \"#utility.yul\":2008:2120   */\n      iszero\n      tag_66\n      jumpi\n        /* \"#utility.yul\":2039:2118   */\n      tag_67\n      tag_15\n      jump\t// in\n    tag_67:\n        /* \"#utility.yul\":2008:2120   */\n    tag_66:\n        /* \"#utility.yul\":2129:2183   */\n      tag_68\n        /* \"#utility.yul\":2176:2182   */\n      dup5\n        /* \"#utility.yul\":2171:2174   */\n      dup3\n        /* \"#utility.yul\":2166:2169   */\n      dup6\n        /* \"#utility.yul\":2129:2183   */\n      tag_21\n      jump\t// in\n    tag_68:\n        /* \"#utility.yul\":1848:2189   */\n      pop\n        /* \"#utility.yul\":1764:2189   */\n      swap4\n      swap3\n      pop\n      pop\n      pop\n      jump\t// out\n        /* \"#utility.yul\":2209:2549   */\n    tag_23:\n        /* \"#utility.yul\":2265:2270   */\n      0x00\n        /* \"#utility.yul\":2314:2317   */\n      dup3\n        /* \"#utility.yul\":2307:2311   */\n      0x1f\n        /* \"#utility.yul\":2299:2305   */\n      dup4\n        /* \"#utility.yul\":2295:2312   */\n      add\n        /* \"#utility.yul\":2291:2318   */\n      slt\n        /* \"#utility.yul\":2281:2403   */\n      tag_70\n      jumpi\n        /* \"#utility.yul\":2322:2401   */\n      tag_71\n      tag_14\n      jump\t// in\n    tag_71:\n        /* \"#utility.yul\":2281:2403   */\n    tag_70:\n        /* \"#utility.yul\":2439:2445   */\n      dup2\n        /* \"#utility.yul\":2426:2446   */\n      calldataload\n        /* \"#utility.yul\":2464:2543   */\n      tag_72\n        /* \"#utility.yul\":2539:2542   */\n      dup5\n        /* \"#utility.yul\":2531:2537   */\n      dup3\n        /* \"#utility.yul\":2524:2528   */\n      0x20\n        /* \"#utility.yul\":2516:2522   */\n      dup7\n        /* \"#utility.yul\":2512:2529   */\n      add\n        /* \"#utility.yul\":2464:2543   */\n      tag_22\n      jump\t// in\n    tag_72:\n        /* \"#utility.yul\":2455:2543   */\n      swap2\n      pop\n        /* \"#utility.yul\":2271:2549   */\n      pop\n        /* \"#utility.yul\":2209:2549   */\n      swap3\n      swap2\n      pop\n      pop\n      jump\t// out\n        /* \"#utility.yul\":2555:3064   */\n    tag_6:\n        /* \"#utility.yul\":2624:2630   */\n      0x00\n        /* \"#utility.yul\":2673:2675   */\n      0x20\n        /* \"#utility.yul\":2661:2670   */\n      dup3\n        /* \"#utility.yul\":2652:2659   */\n      dup5\n        /* \"#utility.yul\":2648:2671   */\n      sub\n        /* \"#utility.yul\":2644:2676   */\n      slt\n        /* \"#utility.yul\":2641:2760   */\n      iszero\n      tag_74\n      jumpi\n        /* \"#utility.yul\":2679:2758   */\n      tag_75\n      tag_12\n      jump\t// in\n    tag_75:\n        /* \"#utility.yul\":2641:2760   */\n    tag_74:\n        /* \"#utility.yul\":2827:2828   */\n      0x00\n        /* \"#utility.yul\":2816:2825   */\n      dup3\n        /* \"#utility.yul\":2812:2829   */\n      add\n        /* \"#utility.yul\":2799:2830   */\n      calldataload\n        /* \"#utility.yul\":2857:2875   */\n      0xffffffffffffffff\n        /* \"#utility.yul\":2849:2855   */\n      dup2\n        /* \"#utility.yul\":2846:2876   */\n      gt\n        /* \"#utility.yul\":2843:2960   */\n      iszero\n      tag_76\n      jumpi\n        /* \"#utility.yul\":2879:2958   */\n      tag_77\n      tag_13\n      jump\t// in\n    tag_77:\n        /* \"#utility.yul\":2843:2960   */\n    tag_76:\n        /* \"#utility.yul\":2984:3047   */\n      tag_78\n        /* \"#utility.yul\":3039:3046   */\n      dup5\n        /* \"#utility.yul\":3030:3036   */\n      dup3\n        /* \"#utility.yul\":3019:3028   */\n      dup6\n        /* \"#utility.yul\":3015:3037   */\n      add\n        /* \"#utility.yul\":2984:3047   */\n      tag_23\n      jump\t// in\n    tag_78:\n        /* \"#utility.yul\":2974:3047   */\n      swap2\n      pop\n        /* \"#utility.yul\":2770:3057   */\n      pop\n        /* \"#utility.yul\":2555:3064   */\n      swap3\n      swap2\n      pop\n      pop\n      jump\t// out\n        /* \"#utility.yul\":3070:3169   */\n    tag_24:\n        /* \"#utility.yul\":3122:3128   */\n      0x00\n        /* \"#utility.yul\":3156:3161   */\n      dup2\n        /* \"#utility.yul\":3150:3162   */\n      mload\n        /* \"#utility.yul\":3140:3162   */\n      swap1\n      pop\n        /* \"#utility.yul\":3070:3169   */\n      swap2\n      swap1\n      pop\n      jump\t// out\n        /* \"#utility.yul\":3175:3355   */\n    tag_25:\n        /* \"#utility.yul\":3223:3300   */\n      0x4e487b7100000000000000000000000000000000000000000000000000000000\n        /* \"#utility.yul\":3220:3221   */\n      0x00\n        /* \"#utility.yul\":3213:3301   */\n      mstore\n        /* \"#utility.yul\":3320:3324   */\n      0x22\n        /* \"#utility.yul\":3317:3318   */\n      0x04\n        /* \"#utility.yul\":3310:3325   */\n      mstore\n        /* \"#utility.yul\":3344:3348   */\n      0x24\n        /* \"#utility.yul\":3341:3342   */\n      0x00\n        /* \"#utility.yul\":3334:3349   */\n      revert\n        /* \"#utility.yul\":3361:3681   */\n    tag_26:\n        /* \"#utility.yul\":3405:3411   */\n      0x00\n        /* \"#utility.yul\":3442:3443   */\n      0x02\n        /* \"#utility.yul\":3436:3440   */\n      dup3\n        /* \"#utility.yul\":3432:3444   */\n      div\n        /* \"#utility.yul\":3422:3444   */\n      swap1\n      pop\n        /* \"#utility.yul\":3489:3490   */\n      0x01\n        /* \"#utility.yul\":3483:3487   */\n      dup3\n        /* \"#utility.yul\":3479:3491   */\n      and\n        /* \"#utility.yul\":3510:3528   */\n      dup1\n        /* \"#utility.yul\":3500:3581   */\n      tag_82\n      jumpi\n        /* \"#utility.yul\":3566:3570   */\n      0x7f\n        /* \"#utility.yul\":3558:3564   */\n      dup3\n        /* \"#utility.yul\":3554:3571   */\n      and\n        /* \"#utility.yul\":3544:3571   */\n      swap2\n      pop\n        /* \"#utility.yul\":3500:3581   */\n    tag_82:\n        /* \"#utility.yul\":3628:3630   */\n      0x20\n        /* \"#utility.yul\":3620:3626   */\n      dup3\n        /* \"#utility.yul\":3617:3631   */\n      lt\n        /* \"#utility.yul\":3597:3615   */\n      dup2\n        /* \"#utility.yul\":3594:3632   */\n      sub\n        /* \"#utility.yul\":3591:3675   */\n      tag_83\n      jumpi\n        /* \"#utility.yul\":3647:3665   */\n      tag_84\n      tag_25\n      jump\t// in\n    tag_84:\n        /* \"#utility.yul\":3591:3675   */\n    tag_83:\n        /* \"#utility.yul\":3412:3681   */\n      pop\n        /* \"#utility.yul\":3361:3681   */\n      swap2\n      swap1\n      pop\n      jump\t// out\n        /* \"#utility.yul\":3687:3828   */\n    tag_27:\n        /* \"#utility.yul\":3736:3740   */\n      0x00\n        /* \"#utility.yul\":3759:3762   */\n      dup2\n        /* \"#utility.yul\":3751:3762   */\n      swap1\n      pop\n        /* \"#utility.yul\":3782:3785   */\n      dup2\n        /* \"#utility.yul\":3779:3780   */\n      0x00\n        /* \"#utility.yul\":3772:3786   */\n      mstore\n        /* \"#utility.yul\":3816:3820   */\n      0x20\n        /* \"#utility.yul\":3813:3814   */\n      0x00\n        /* \"#utility.yul\":3803:3821   */\n      keccak256\n        /* \"#utility.yul\":3795:3821   */\n      swap1\n      pop\n        /* \"#utility.yul\":3687:3828   */\n      swap2\n      swap1\n      pop\n      jump\t// out\n        /* \"#utility.yul\":3834:3927   */\n    tag_28:\n        /* \"#utility.yul\":3871:3877   */\n      0x00\n        /* \"#utility.yul\":3918:3920   */\n      0x20\n        /* \"#utility.yul\":3913:3915   */\n      0x1f\n        /* \"#utility.yul\":3906:3911   */\n      dup4\n        /* \"#utility.yul\":3902:3916   */\n      add\n        /* \"#utility.yul\":3898:3921   */\n      div\n        /* \"#utility.yul\":3888:3921   */\n      swap1\n      pop\n        /* \"#utility.yul\":3834:3927   */\n      swap2\n      swap1\n      pop\n      jump\t// out\n        /* \"#utility.yul\":3933:4040   */\n    tag_29:\n        /* \"#utility.yul\":3977:3985   */\n      0x00\n        /* \"#utility.yul\":4027:4032   */\n      dup3\n        /* \"#utility.yul\":4021:4025   */\n      dup3\n        /* \"#utility.yul\":4017:4033   */\n      shl\n        /* \"#utility.yul\":3996:4033   */\n      swap1\n      pop\n        /* \"#utility.yul\":3933:4040   */\n      swap3\n      swap2\n      pop\n      pop\n      jump\t// out\n        /* \"#utility.yul\":4046:4439   */\n    tag_30:\n        /* \"#utility.yul\":4115:4121   */\n      0x00\n        /* \"#utility.yul\":4165:4166   */\n      0x08\n        /* \"#utility.yul\":4153:4163   */\n      dup4\n        /* \"#utility.yul\":4149:4167   */\n      mul\n        /* \"#utility.yul\":4188:4285   */\n      tag_89\n        /* \"#utility.yul\":4218:4284   */\n      0xffffffffffffffffffffffffffffffffffffffffffffffffffffffffffffffff\n        /* \"#utility.yul\":4207:4216   */\n      dup3\n        /* \"#utility.yul\":4188:4285   */\n      tag_29\n      jump\t// in\n    tag_89:\n        /* \"#utility.yul\":4306:4345   */\n      tag_90\n        /* \"#utility.yul\":4336:4344   */\n      dup7\n        /* \"#utility.yul\":4325:4334   */\n      dup4\n        /* \"#utility.yul\":4306:4345   */\n      tag_29\n      jump\t// in\n    tag_90:\n        /* \"#utility.yul\":4294:4345   */\n      swap6\n      pop\n        /* \"#utility.yul\":4378:4382   */\n      dup1\n        /* \"#utility.yul\":4374:4383   */\n      not\n        /* \"#utility.yul\":4367:4372   */\n      dup5\n        /* \"#utility.yul\":4363:4384   */\n      and\n        /* \"#utility.yul\":4354:4384   */\n      swap4\n      pop\n        /* \"#utility.yul\":4427:4431   */\n      dup1\n        /* \"#utility.yul\":4417:4425   */\n      dup7\n        /* \"#utility.yul\":4413:4432   */\n      and\n        /* \"#utility.yul\":4406:4411   */\n      dup5\n        /* \"#utility.yul\":4403:4433   */\n      or\n        /* \"#utility.yul\":4393:4433   */\n      swap3\n      pop\n        /* \"#utility.yul\":4122:4439   */\n      pop\n      pop\n        /* \"#utility.yul\":4046:4439   */\n      swap4\n      swap3\n      pop\n      pop\n      pop\n      jump\t// out\n        /* \"#utility.yul\":4445:4522   */\n    tag_31:\n        /* \"#utility.yul\":4482:4489   */\n      0x00\n        /* \"#utility.yul\":4511:4516   */\n      dup2\n        /* \"#utility.yul\":4500:4516   */\n      swap1\n      pop\n        /* \"#utility.yul\":4445:4522   */\n      swap2\n      swap1\n      pop\n      jump\t// out\n        /* \"#utility.yul\":4528:4588   */\n    tag_32:\n        /* \"#utility.yul\":4556:4559   */\n      0x00\n        /* \"#utility.yul\":4577:4582   */\n      dup2\n        /* \"#utility.yul\":4570:4582   */\n      swap1\n      pop\n        /* \"#utility.yul\":4528:4588   */\n      swap2\n      swap1\n      pop\n      jump\t// out\n        /* \"#utility.yul\":4594:4736   */\n    tag_33:\n        /* \"#utility.yul\":4644:4653   */\n      0x00\n        /* \"#utility.yul\":4677:4730   */\n      tag_94\n        /* \"#utility.yul\":4695:4729   */\n      tag_95\n        /* \"#utility.yul\":4704:4728   */\n      tag_96\n        /* \"#utility.yul\":4722:4727   */\n      dup5\n        /* \"#utility.yul\":4704:4728   */\n      tag_31\n      jump\t// in\n    tag_96:\n        /* \"#utility.yul\":4695:4729   */\n      tag_32\n      jump\t// in\n    tag_95:\n        /* \"#utility.yul\":4677:4730   */\n      tag_31\n      jump\t// in\n    tag_94:\n        /* \"#utility.yul\":4664:4730   */\n      swap1\n      pop\n        /* \"#utility.yul\":4594:4736   */\n      swap2\n      swap1\n      pop\n      jump\t// out\n        /* \"#utility.yul\":4742:4817   */\n    tag_34:\n        /* \"#utility.yul\":4785:4788   */\n      0x00\n        /* \"#utility.yul\":4806:4811   */\n      dup2\n        /* \"#utility.yul\":4799:4811   */\n      swap1\n      pop\n        /* \"#utility.yul\":4742:4817   */\n      swap2\n      swap1\n      pop\n      jump\t// out\n        /* \"#utility.yul\":4823:5092   */\n    tag_35:\n        /* \"#utility.yul\":4933:4972   */\n      tag_99\n        /* \"#utility.yul\":4964:4971   */\n      dup4\n        /* \"#utility.yul\":4933:4972   */\n      tag_33\n      jump\t// in\n    tag_99:\n        /* \"#utility.yul\":4994:5085   */\n      tag_100\n        /* \"#utility.yul\":5043:5084   */\n      tag_101\n        /* \"#utility.yul\":5067:5083   */\n      dup3\n        /* \"#utility.yul\":5043:5084   */\n      tag_34\n      jump\t// in\n    tag_101:\n        /* \"#utility.yul\":5035:5041   */\n      dup5\n        /* \"#utility.yul\":5028:5032   */\n      dup5\n        /* \"#utility.yul\":5022:5033   */\n      sload\n        /* \"#utility.yul\":4994:5085   */\n      tag_30\n      jump\t// in\n    tag_100:\n        /* \"#utility.yul\":4988:4992   */\n      dup3\n        /* \"#utility.yul\":4981:5086   */\n      sstore\n        /* \"#utility.yul\":4899:5092   */\n      pop\n        /* \"#utility.yul\":4823:5092   */\n      pop\n      pop\n      pop\n      jump\t// out\n        /* \"#utility.yul\":5098:5171   */\n    tag_36:\n        /* \"#utility.yul\":5143:5146   */\n      0x00\n        /* \"#utility.yul\":5098:5171   */\n      swap1\n      jump\t// out\n        /* \"#utility.yul\":5177:5366   */\n    tag_37:\n        /* \"#utility.yul\":5254:5286   */\n      tag_104\n      tag_36\n      jump\t// in\n    tag_104:\n        /* \"#utility.yul\":5295:5360   */\n      tag_105\n        /* \"#utility.yul\":5353:5359   */\n      dup2\n        /* \"#utility.yul\":5345:5351   */\n      dup5\n        /* \"#utility.yul\":5339:5343   */\n      dup5\n        /* \"#utility.yul\":5295:5360   */\n      tag_35\n      jump\t// in\n    tag_105:\n        /* \"#utility.yul\":5230:5366   */\n      pop\n        /* \"#utility.yul\":5177:5366   */\n      pop\n      pop\n      jump\t// out\n        /* \"#utility.yul\":5372:5558   */\n    tag_38:\n        /* \"#utility.yul\":5432:5552   */\n    tag_107:\n        /* \"#utility.yul\":5449:5452   */\n      dup2\n        /* \"#utility.yul\":5442:5447   */\n      dup2\n        /* \"#utility.yul\":5439:5453   */\n      lt\n        /* \"#utility.yul\":5432:5552   */\n      iszero\n      tag_109\n      jumpi\n        /* \"#utility.yul\":5503:5542   */\n      tag_110\n        /* \"#utility.yul\":5540:5541   */\n      0x00\n        /* \"#utility.yul\":5533:5538   */\n      dup3\n        /* \"#utility.yul\":5503:5542   */\n      tag_37\n      jump\t// in\n    tag_110:\n        /* \"#utility.yul\":5476:5477   */\n      0x01\n        /* \"#utility.yul\":5469:5474   */\n      dup2\n        /* \"#utility.yul\":5465:5478   */\n      add\n        /* \"#utility.yul\":5456:5478   */\n      swap1\n      pop\n        /* \"#utility.yul\":5432:5552   */\n      jump(tag_107)\n    tag_109:\n        /* \"#utility.yul\":5372:5558   */\n      pop\n      pop\n      jump\t// out\n        /* \"#utility.yul\":5564:6107   */\n    tag_39:\n        /* \"#utility.yul\":5665:5667   */\n      0x1f\n        /* \"#utility.yul\":5660:5663   */\n      dup3\n        /* \"#utility.yul\":5657:5668   */\n      gt\n        /* \"#utility.yul\":5654:6100   */\n      iszero\n      tag_112\n      jumpi\n        /* \"#utility.yul\":5699:5737   */\n      tag_113\n        /* \"#utility.yul\":5731:5736   */\n      dup2\n        /* \"#utility.yul\":5699:5737   */\n      tag_27\n      jump\t// in\n    tag_113:\n        /* \"#utility.yul\":5783:5812   */\n      tag_114\n        /* \"#utility.yul\":5801:5811   */\n      dup5\n        /* \"#utility.yul\":5783:5812   */\n      tag_28\n      jump\t// in\n    tag_114:\n        /* \"#utility.yul\":5773:5781   */\n      dup2\n        /* \"#utility.yul\":5769:5813   */\n      add\n        /* \"#utility.yul\":5966:5968   */\n      0x20\n        /* \"#utility.yul\":5954:5964   */\n      dup6\n        /* \"#utility.yul\":5951:5969   */\n      lt\n        /* \"#utility.yul\":5948:5997   */\n      iszero\n      tag_115\n      jumpi\n        /* \"#utility.yul\":5987:5995   */\n      dup2\n        /* \"#utility.yul\":5972:5995   */\n      swap1\n      pop\n        /* \"#utility.yul\":5948:5997   */\n    tag_115:\n        /* \"#utility.yul\":6010:6090   */\n      tag_116\n        /* \"#utility.yul\":6066:6088   */\n      tag_117\n        /* \"#utility.yul\":6084:6087   */\n      dup6\n        /* \"#utility.yul\":6066:6088   */\n      tag_28\n      jump\t// in\n    tag_117:\n        /* \"#utility.yul\":6056:6064   */\n      dup4\n        /* \"#utility.yul\":6052:6089   */\n      add\n        /* \"#utility.yul\":6039:6050   */\n      dup3\n        /* \"#utility.yul\":6010:6090   */\n      tag_38\n      jump\t// in\n    tag_116:\n        /* \"#utility.yul\":5669:6100   */\n      pop\n      pop\n        /* \"#utility.yul\":5654:6100   */\n    tag_112:\n        /* \"#utility.yul\":5564:6107   */\n      pop\n      pop\n      pop\n      jump\t// out\n        /* \"#utility.yul\":6113:6230   */\n    tag_40:\n        /* \"#utility.yul\":6167:6175   */\n      0x00\n        /* \"#utility.yul\":6217:6222   */\n      dup3\n        /* \"#utility.yul\":6211:6215   */\n      dup3\n        /* \"#utility.yul\":6207:6223   */\n      shr\n        /* \"#utility.yul\":6186:6223   */\n      swap1\n      pop\n        /* \"#utility.yul\":6113:6230   */\n      swap3\n      swap2\n      pop\n      pop\n      jump\t// out\n        /* \"#utility.yul\":6236:6405   */\n    tag_41:\n        /* \"#utility.yul\":6280:6286   */\n      0x00\n        /* \"#utility.yul\":6313:6364   */\n      tag_120\n        /* \"#utility.yul\":6361:6362   */\n      0x00\n        /* \"#utility.yul\":6357:6363   */\n      not\n        /* \"#utility.yul\":6349:6354   */\n      dup5\n        /* \"#utility.yul\":6346:6347   */\n      0x08\n        /* \"#utility.yul\":6342:6355   */\n      mul\n        /* \"#utility.yul\":6313:6364   */\n      tag_40\n      jump\t// in\n    tag_120:\n        /* \"#utility.yul\":6309:6365   */\n      not\n        /* \"#utility.yul\":6394:6398   */\n      dup1\n        /* \"#utility.yul\":6388:6392   */\n      dup4\n        /* \"#utility.yul\":6384:6399   */\n      and\n        /* \"#utility.yul\":6374:6399   */\n      swap2\n      pop\n        /* \"#utility.yul\":6287:6405   */\n      pop\n        /* \"#utility.yul\":6236:6405   */\n      swap3\n      swap2\n      pop\n      pop\n      jump\t// out\n        /* \"#utility.yul\":6410:6705   */\n    tag_42:\n        /* \"#utility.yul\":6486:6490   */\n      0x00\n        /* \"#utility.yul\":6632:6661   */\n      tag_122\n        /* \"#utility.yul\":6657:6660   */\n      dup4\n        /* \"#utility.yul\":6651:6655   */\n      dup4\n        /* \"#utility.yul\":6632:6661   */\n      tag_41\n      jump\t// in\n    tag_122:\n        /* \"#utility.yul\":6624:6661   */\n      swap2\n      pop\n        /* \"#utility.yul\":6694:6697   */\n      dup3\n        /* \"#utility.yul\":6691:6692   */\n      0x02\n        /* \"#utility.yul\":6687:6698   */\n      mul\n        /* \"#utility.yul\":6681:6685   */\n      dup3\n        /* \"#utility.yul\":6678:6699   */\n      or\n        /* \"#utility.yul\":6670:6699   */\n      swap1\n      pop\n        /* \"#utility.yul\":6410:6705   */\n      swap3\n      swap2\n      pop\n      pop\n      jump\t// out\n        /* \"#utility.yul\":6710:8105   */\n    tag_10:\n        /* \"#utility.yul\":6827:6864   */\n      tag_124\n        /* \"#utility.yul\":6860:6863   */\n      dup3\n        /* \"#utility.yul\":6827:6864   */\n      tag_24\n      jump\t// in\n    tag_124:\n        /* \"#utility.yul\":6929:6947   */\n      0xffffffffffffffff\n        /* \"#utility.yul\":6921:6927   */\n      dup2\n        /* \"#utility.yul\":6918:6948   */\n      gt\n        /* \"#utility.yul\":6915:6971   */\n      iszero\n      tag_125\n      jumpi\n        /* \"#utility.yul\":6951:6969   */\n      tag_126\n      tag_17\n      jump\t// in\n    tag_126:\n        /* \"#utility.yul\":6915:6971   */\n    tag_125:\n        /* \"#utility.yul\":6995:7033   */\n      tag_127\n        /* \"#utility.yul\":7027:7031   */\n      dup3\n        /* \"#utility.yul\":7021:7032   */\n      sload\n        /* \"#utility.yul\":6995:7033   */\n      tag_26\n      jump\t// in\n    tag_127:\n        /* \"#utility.yul\":7080:7147   */\n      tag_128\n        /* \"#utility.yul\":7140:7146   */\n      dup3\n        /* \"#utility.yul\":7132:7138   */\n      dup3\n        /* \"#utility.yul\":7126:7130   */\n      dup6\n        /* \"#utility.yul\":7080:7147   */\n      tag_39\n      jump\t// in\n    tag_128:\n        /* \"#utility.yul\":7174:7175   */\n      0x00\n        /* \"#utility.yul\":7198:7202   */\n      0x20\n        /* \"#utility.yul\":7185:7202   */\n      swap1\n      pop\n        /* \"#utility.yul\":7230:7232   */\n      0x1f\n        /* \"#utility.yul\":7222:7228   */\n      dup4\n        /* \"#utility.yul\":7219:7233   */\n      gt\n        /* \"#utility.yul\":7247:7248   */\n      0x01\n        /* \"#utility.yul\":7242:7860   */\n      dup2\n      eq\n      tag_130\n      jumpi\n        /* \"#utility.yul\":7904:7905   */\n      0x00\n        /* \"#utility.yul\":7921:7927   */\n      dup5\n        /* \"#utility.yul\":7918:7995   */\n      iszero\n      tag_131\n      jumpi\n        /* \"#utility.yul\":7970:7979   */\n      dup3\n        /* \"#utility.yul\":7965:7968   */\n      dup8\n        /* \"#utility.yul\":7961:7980   */\n      add\n        /* \"#utility.yul\":7955:7981   */\n      mload\n        /* \"#utility.yul\":7946:7981   */\n      swap1\n      pop\n        /* \"#utility.yul\":7918:7995   */\n    tag_131:\n        /* \"#utility.yul\":8021:8088   */\n      tag_132\n        /* \"#utility.yul\":8081:8087   */\n      dup6\n        /* \"#utility.yul\":8074:8079   */\n      dup3\n        /* \"#utility.yul\":8021:8088   */\n      tag_42\n      jump\t// in\n    tag_132:\n        /* \"#utility.yul\":8015:8019   */\n      dup7\n        /* \"#utility.yul\":8008:8089   */\n      sstore\n        /* \"#utility.yul\":7877:8099   */\n      pop\n        /* \"#utility.yul\":7212:8099   */\n      jump(tag_129)\n        /* \"#utility.yul\":7242:7860   */\n    tag_130:\n        /* \"#utility.yul\":7294:7298   */\n      0x1f\n        /* \"#utility.yul\":7290:7299   */\n      not\n        /* \"#utility.yul\":7282:7288   */\n      dup5\n        /* \"#utility.yul\":7278:7300   */\n      and\n        /* \"#utility.yul\":7328:7365   */\n      tag_133\n        /* \"#utility.yul\":7360:7364   */\n      dup7\n        /* \"#utility.yul\":7328:7365   */\n      tag_27\n      jump\t// in\n    tag_133:\n        /* \"#utility.yul\":7387:7388   */\n      0x00\n        /* \"#utility.yul\":7401:7609   */\n    tag_134:\n        /* \"#utility.yul\":7415:7422   */\n      dup3\n        /* \"#utility.yul\":7412:7413   */\n      dup2\n        /* \"#utility.yul\":7409:7423   */\n      lt\n        /* \"#utility.yul\":7401:7609   */\n      iszero\n      tag_136\n      jumpi\n        /* \"#utility.yul\":7494:7503   */\n      dup5\n        /* \"#utility.yul\":7489:7492   */\n      dup10\n        /* \"#utility.yul\":7485:7504   */\n      add\n        /* \"#utility.yul\":7479:7505   */\n      mload\n        /* \"#utility.yul\":7471:7477   */\n      dup3\n        /* \"#utility.yul\":7464:7506   */\n      sstore\n        /* \"#utility.yul\":7545:7546   */\n      0x01\n        /* \"#utility.yul\":7537:7543   */\n      dup3\n        /* \"#utility.yul\":7533:7547   */\n      add\n        /* \"#utility.yul\":7523:7547   */\n      swap2\n      pop\n        /* \"#utility.yul\":7592:7594   */\n      0x20\n        /* \"#utility.yul\":7581:7590   */\n      dup6\n        /* \"#utility.yul\":7577:7595   */\n      add\n        /* \"#utility.yul\":7564:7595   */\n      swap5\n      pop\n        /* \"#utility.yul\":7438:7442   */\n      0x20\n        /* \"#utility.yul\":7435:7436   */\n      dup2\n        /* \"#utility.yul\":7431:7443   */\n      add\n        /* \"#utility.yul\":7426:7443   */\n      swap1\n      pop\n        /* \"#utility.yul\":7401:7609   */\n      jump(tag_134)\n    tag_136:\n        /* \"#utility.yul\":7637:7643   */\n      dup7\n        /* \"#utility.yul\":7628:7635   */\n      dup4\n        /* \"#utility.yul\":7625:7644   */\n      lt\n        /* \"#utility.yul\":7622:7801   */\n      iszero\n      tag_137\n      jumpi\n        /* \"#utility.yul\":7695:7704   */\n      dup5\n        /* \"#utility.yul\":7690:7693   */\n      dup10\n        /* \"#utility.yul\":7686:7705   */\n      add\n        /* \"#utility.yul\":7680:7706   */\n      mload\n        /* \"#utility.yul\":7738:7786   */\n      tag_138\n        /* \"#utility.yul\":7780:7784   */\n      0x1f\n        /* \"#utility.yul\":7772:7778   */\n      dup10\n        /* \"#utility.yul\":7768:7785   */\n      and\n        /* \"#utility.yul\":7757:7766   */\n      dup3\n        /* \"#utility.yul\":7738:7786   */\n      tag_41\n      jump\t// in\n    tag_138:\n        /* \"#utility.yul\":7730:7736   */\n      dup4\n        /* \"#utility.yul\":7723:7787   */\n      sstore\n        /* \"#utility.yul\":7645:7801   */\n      pop\n        /* \"#utility.yul\":7622:7801   */\n    tag_137:\n        /* \"#utility.yul\":7847:7848   */\n      0x01\n        /* \"#utility.yul\":7843:7844   */\n      0x02\n        /* \"#utility.yul\":7835:7841   */\n      dup9\n        /* \"#utility.yul\":7831:7845   */\n      mul\n        /* \"#utility.yul\":7827:7849   */\n      add\n        /* \"#utility.yul\":7821:7825   */\n      dup9\n        /* \"#utility.yul\":7814:7850   */\n      sstore\n        /* \"#utility.yul\":7249:7860   */\n      pop\n      pop\n      pop\n        /* \"#utility.yul\":7212:8099   */\n    tag_129:\n      pop\n        /* \"#utility.yul\":6802:8105   */\n      pop\n      pop\n      pop\n        /* \"#utility.yul\":6710:8105   */\n      pop\n      pop\n      jump\t// out\n\n    auxdata: 0xa26469706673582212204be0b15c5d04fbf8a16e9fee387a7747f79029eda7e7b7ce18fe86a386e811e464736f6c634300081a0033\n}\n",
				"bytecode": {
					"linkReferences": {},
					"object": "6080604052348015600e575f80fd5b506105018061001c5f395ff3fe608060405234801561000f575f80fd5b5060043610610029575f3560e01c8063a04f1bb71461002d575b5f80fd5b610047600480360381019061004291906101a8565b610049565b005b805f908161005791906103fc565b5050565b5f604051905090565b5f80fd5b5f80fd5b5f80fd5b5f80fd5b5f601f19601f8301169050919050565b7f4e487b71000000000000000000000000000000000000000000000000000000005f52604160045260245ffd5b6100ba82610074565b810181811067ffffffffffffffff821117156100d9576100d8610084565b5b80604052505050565b5f6100eb61005b565b90506100f782826100b1565b919050565b5f67ffffffffffffffff82111561011657610115610084565b5b61011f82610074565b9050602081019050919050565b828183375f83830152505050565b5f61014c610147846100fc565b6100e2565b90508281526020810184848401111561016857610167610070565b5b61017384828561012c565b509392505050565b5f82601f83011261018f5761018e61006c565b5b813561019f84826020860161013a565b91505092915050565b5f602082840312156101bd576101bc610064565b5b5f82013567ffffffffffffffff8111156101da576101d9610068565b5b6101e68482850161017b565b91505092915050565b5f81519050919050565b7f4e487b71000000000000000000000000000000000000000000000000000000005f52602260045260245ffd5b5f600282049050600182168061023d57607f821691505b6020821081036102505761024f6101f9565b5b50919050565b5f819050815f5260205f209050919050565b5f6020601f8301049050919050565b5f82821b905092915050565b5f600883026102b27fffffffffffffffffffffffffffffffffffffffffffffffffffffffffffffffff82610277565b6102bc8683610277565b95508019841693508086168417925050509392505050565b5f819050919050565b5f819050919050565b5f6103006102fb6102f6846102d4565b6102dd565b6102d4565b9050919050565b5f819050919050565b610319836102e6565b61032d61032582610307565b848454610283565b825550505050565b5f90565b610341610335565b61034c818484610310565b505050565b5b8181101561036f576103645f82610339565b600181019050610352565b5050565b601f8211156103b45761038581610256565b61038e84610268565b8101602085101561039d578190505b6103b16103a985610268565b830182610351565b50505b505050565b5f82821c905092915050565b5f6103d45f19846008026103b9565b1980831691505092915050565b5f6103ec83836103c5565b9150826002028217905092915050565b610405826101ef565b67ffffffffffffffff81111561041e5761041d610084565b5b6104288254610226565b610433828285610373565b5f60209050601f831160018114610464575f8415610452578287015190505b61045c85826103e1565b8655506104c3565b601f19841661047286610256565b5f5b8281101561049957848901518255600182019150602085019450602081019050610474565b868310156104b657848901516104b2601f8916826103c5565b8355505b6001600288020188555050505b50505050505056fea26469706673582212204be0b15c5d04fbf8a16e9fee387a7747f79029eda7e7b7ce18fe86a386e811e464736f6c634300081a0033",
					"opcodes": "PUSH1 0x80 PUSH1 0x40 MSTORE CALLVALUE DUP1 ISZERO PUSH1 0xE JUMPI PUSH0 DUP1 REVERT JUMPDEST POP PUSH2 0x501 DUP1 PUSH2 0x1C PUSH0 CODECOPY PUSH0 RETURN INVALID PUSH1 0x80 PUSH1 0x40 MSTORE CALLVALUE DUP1 ISZERO PUSH2 0xF JUMPI PUSH0 DUP1 REVERT JUMPDEST POP PUSH1 0x4 CALLDATASIZE LT PUSH2 0x29 JUMPI PUSH0 CALLDATALOAD PUSH1 0xE0 SHR DUP1 PUSH4 0xA04F1BB7 EQ PUSH2 0x2D JUMPI JUMPDEST PUSH0 DUP1 REVERT JUMPDEST PUSH2 0x47 PUSH1 0x4 DUP1 CALLDATASIZE SUB DUP2 ADD SWAP1 PUSH2 0x42 SWAP2 SWAP1 PUSH2 0x1A8 JUMP JUMPDEST PUSH2 0x49 JUMP JUMPDEST STOP JUMPDEST DUP1 PUSH0 SWAP1 DUP2 PUSH2 0x57 SWAP2 SWAP1 PUSH2 0x3FC JUMP JUMPDEST POP POP JUMP JUMPDEST PUSH0 PUSH1 0x40 MLOAD SWAP1 POP SWAP1 JUMP JUMPDEST PUSH0 DUP1 REVERT JUMPDEST PUSH0 DUP1 REVERT JUMPDEST PUSH0 DUP1 REVERT JUMPDEST PUSH0 DUP1 REVERT JUMPDEST PUSH0 PUSH1 0x1F NOT PUSH1 0x1F DUP4 ADD AND SWAP1 POP SWAP2 SWAP1 POP JUMP JUMPDEST PUSH32 0x4E487B7100000000000000000000000000000000000000000000000000000000 PUSH0 MSTORE PUSH1 0x41 PUSH1 0x4 MSTORE PUSH1 0x24 PUSH0 REVERT JUMPDEST PUSH2 0xBA DUP3 PUSH2 0x74 JUMP JUMPDEST DUP2 ADD DUP2 DUP2 LT PUSH8 0xFFFFFFFFFFFFFFFF DUP3 GT OR ISZERO PUSH2 0xD9 JUMPI PUSH2 0xD8 PUSH2 0x84 JUMP JUMPDEST JUMPDEST DUP1 PUSH1 0x40 MSTORE POP POP POP JUMP JUMPDEST PUSH0 PUSH2 0xEB PUSH2 0x5B JUMP JUMPDEST SWAP1 POP PUSH2 0xF7 DUP3 DUP3 PUSH2 0xB1 JUMP JUMPDEST SWAP2 SWAP1 POP JUMP JUMPDEST PUSH0 PUSH8 0xFFFFFFFFFFFFFFFF DUP3 GT ISZERO PUSH2 0x116 JUMPI PUSH2 0x115 PUSH2 0x84 JUMP JUMPDEST JUMPDEST PUSH2 0x11F DUP3 PUSH2 0x74 JUMP JUMPDEST SWAP1 POP PUSH1 0x20 DUP2 ADD SWAP1 POP SWAP2 SWAP1 POP JUMP JUMPDEST DUP3 DUP2 DUP4 CALLDATACOPY PUSH0 DUP4 DUP4 ADD MSTORE POP POP POP JUMP JUMPDEST PUSH0 PUSH2 0x14C PUSH2 0x147 DUP5 PUSH2 0xFC JUMP JUMPDEST PUSH2 0xE2 JUMP JUMPDEST SWAP1 POP DUP3 DUP2 MSTORE PUSH1 0x20 DUP2 ADD DUP5 DUP5 DUP5 ADD GT ISZERO PUSH2 0x168 JUMPI PUSH2 0x167 PUSH2 0x70 JUMP JUMPDEST JUMPDEST PUSH2 0x173 DUP5 DUP3 DUP6 PUSH2 0x12C JUMP JUMPDEST POP SWAP4 SWAP3 POP POP POP JUMP JUMPDEST PUSH0 DUP3 PUSH1 0x1F DUP4 ADD SLT PUSH2 0x18F JUMPI PUSH2 0x18E PUSH2 0x6C JUMP JUMPDEST JUMPDEST DUP2 CALLDATALOAD PUSH2 0x19F DUP5 DUP3 PUSH1 0x20 DUP7 ADD PUSH2 0x13A JUMP JUMPDEST SWAP2 POP POP SWAP3 SWAP2 POP POP JUMP JUMPDEST PUSH0 PUSH1 0x20 DUP3 DUP5 SUB SLT ISZERO PUSH2 0x1BD JUMPI PUSH2 0x1BC PUSH2 0x64 JUMP JUMPDEST JUMPDEST PUSH0 DUP3 ADD CALLDATALOAD PUSH8 0xFFFFFFFFFFFFFFFF DUP2 GT ISZERO PUSH2 0x1DA JUMPI PUSH2 0x1D9 PUSH2 0x68 JUMP JUMPDEST JUMPDEST PUSH2 0x1E6 DUP5 DUP3 DUP6 ADD PUSH2 0x17B JUMP JUMPDEST SWAP2 POP POP SWAP3 SWAP2 POP POP JUMP JUMPDEST PUSH0 DUP2 MLOAD SWAP1 POP SWAP2 SWAP1 POP JUMP JUMPDEST PUSH32 0x4E487B7100000000000000000000000000000000000000000000000000000000 PUSH0 MSTORE PUSH1 0x22 PUSH1 0x4 MSTORE PUSH1 0x24 PUSH0 REVERT JUMPDEST PUSH0 PUSH1 0x2 DUP3 DIV SWAP1 POP PUSH1 0x1 DUP3 AND DUP1 PUSH2 0x23D JUMPI PUSH1 0x7F DUP3 AND SWAP2 POP JUMPDEST PUSH1 0x20 DUP3 LT DUP2 SUB PUSH2 0x250 JUMPI PUSH2 0x24F PUSH2 0x1F9 JUMP JUMPDEST JUMPDEST POP SWAP2 SWAP1 POP JUMP JUMPDEST PUSH0 DUP2 SWAP1 POP DUP2 PUSH0 MSTORE PUSH1 0x20 PUSH0 KECCAK256 SWAP1 POP SWAP2 SWAP1 POP JUMP JUMPDEST PUSH0 PUSH1 0x20 PUSH1 0x1F DUP4 ADD DIV SWAP1 POP SWAP2 SWAP1 POP JUMP JUMPDEST PUSH0 DUP3 DUP3 SHL SWAP1 POP SWAP3 SWAP2 POP POP JUMP JUMPDEST PUSH0 PUSH1 0x8 DUP4 MUL PUSH2 0x2B2 PUSH32 0xFFFFFFFFFFFFFFFFFFFFFFFFFFFFFFFFFFFFFFFFFFFFFFFFFFFFFFFFFFFFFFFF DUP3 PUSH2 0x277 JUMP JUMPDEST PUSH2 0x2BC DUP7 DUP4 PUSH2 0x277 JUMP JUMPDEST SWAP6 POP DUP1 NOT DUP5 AND SWAP4 POP DUP1 DUP7 AND DUP5 OR SWAP3 POP POP POP SWAP4 SWAP3 POP POP POP JUMP JUMPDEST PUSH0 DUP2 SWAP1 POP SWAP2 SWAP1 POP JUMP JUMPDEST PUSH0 DUP2 SWAP1 POP SWAP2 SWAP1 POP JUMP JUMPDEST PUSH0 PUSH2 0x300 PUSH2 0x2FB PUSH2 0x2F6 DUP5 PUSH2 0x2D4 JUMP JUMPDEST PUSH2 0x2DD JUMP JUMPDEST PUSH2 0x2D4 JUMP JUMPDEST SWAP1 POP SWAP2 SWAP1 POP JUMP JUMPDEST PUSH0 DUP2 SWAP1 POP SWAP2 SWAP1 POP JUMP JUMPDEST PUSH2 0x319 DUP4 PUSH2 0x2E6 JUMP JUMPDEST PUSH2 0x32D PUSH2 0x325 DUP3 PUSH2 0x307 JUMP JUMPDEST DUP5 DUP5 SLOAD PUSH2 0x283 JUMP JUMPDEST DUP3 SSTORE POP POP POP POP JUMP JUMPDEST PUSH0 SWAP1 JUMP JUMPDEST PUSH2 0x341 PUSH2 0x335 JUMP JUMPDEST PUSH2 0x34C DUP2 DUP5 DUP5 PUSH2 0x310 JUMP JUMPDEST POP POP POP JUMP JUMPDEST JUMPDEST DUP2 DUP2 LT ISZERO PUSH2 0x36F JUMPI PUSH2 0x364 PUSH0 DUP3 PUSH2 0x339 JUMP JUMPDEST PUSH1 0x1 DUP2 ADD SWAP1 POP PUSH2 0x352 JUMP JUMPDEST POP POP JUMP JUMPDEST PUSH1 0x1F DUP3 GT ISZERO PUSH2 0x3B4 JUMPI PUSH2 0x385 DUP2 PUSH2 0x256 JUMP JUMPDEST PUSH2 0x38E DUP5 PUSH2 0x268 JUMP JUMPDEST DUP2 ADD PUSH1 0x20 DUP6 LT ISZERO PUSH2 0x39D JUMPI DUP2 SWAP1 POP JUMPDEST PUSH2 0x3B1 PUSH2 0x3A9 DUP6 PUSH2 0x268 JUMP JUMPDEST DUP4 ADD DUP3 PUSH2 0x351 JUMP JUMPDEST POP POP JUMPDEST POP POP POP JUMP JUMPDEST PUSH0 DUP3 DUP3 SHR SWAP1 POP SWAP3 SWAP2 POP POP JUMP JUMPDEST PUSH0 PUSH2 0x3D4 PUSH0 NOT DUP5 PUSH1 0x8 MUL PUSH2 0x3B9 JUMP JUMPDEST NOT DUP1 DUP4 AND SWAP2 POP POP SWAP3 SWAP2 POP POP JUMP JUMPDEST PUSH0 PUSH2 0x3EC DUP4 DUP4 PUSH2 0x3C5 JUMP JUMPDEST SWAP2 POP DUP3 PUSH1 0x2 MUL DUP3 OR SWAP1 POP SWAP3 SWAP2 POP POP JUMP JUMPDEST PUSH2 0x405 DUP3 PUSH2 0x1EF JUMP JUMPDEST PUSH8 0xFFFFFFFFFFFFFFFF DUP2 GT ISZERO PUSH2 0x41E JUMPI PUSH2 0x41D PUSH2 0x84 JUMP JUMPDEST JUMPDEST PUSH2 0x428 DUP3 SLOAD PUSH2 0x226 JUMP JUMPDEST PUSH2 0x433 DUP3 DUP3 DUP6 PUSH2 0x373 JUMP JUMPDEST PUSH0 PUSH1 0x20 SWAP1 POP PUSH1 0x1F DUP4 GT PUSH1 0x1 DUP2 EQ PUSH2 0x464 JUMPI PUSH0 DUP5 ISZERO PUSH2 0x452 JUMPI DUP3 DUP8 ADD MLOAD SWAP1 POP JUMPDEST PUSH2 0x45C DUP6 DUP3 PUSH2 0x3E1 JUMP JUMPDEST DUP7 SSTORE POP PUSH2 0x4C3 JUMP JUMPDEST PUSH1 0x1F NOT DUP5 AND PUSH2 0x472 DUP7 PUSH2 0x256 JUMP JUMPDEST PUSH0 JUMPDEST DUP3 DUP2 LT ISZERO PUSH2 0x499 JUMPI DUP5 DUP10 ADD MLOAD DUP3 SSTORE PUSH1 0x1 DUP3 ADD SWAP2 POP PUSH1 0x20 DUP6 ADD SWAP5 POP PUSH1 0x20 DUP2 ADD SWAP1 POP PUSH2 0x474 JUMP JUMPDEST DUP7 DUP4 LT ISZERO PUSH2 0x4B6 JUMPI DUP5 DUP10 ADD MLOAD PUSH2 0x4B2 PUSH1 0x1F DUP10 AND DUP3 PUSH2 0x3C5 JUMP JUMPDEST DUP4 SSTORE POP JUMPDEST PUSH1 0x1 PUSH1 0x2 DUP9 MUL ADD DUP9 SSTORE POP POP POP JUMPDEST POP POP POP POP POP POP JUMP INVALID LOG2 PUSH5 0x6970667358 0x22 SLT KECCAK256 0x4B 0xE0 0xB1 TLOAD TSTORE DIV 0xFB 0xF8 LOG1 PUSH15 0x9FEE387A7747F79029EDA7E7B7CE18 INVALID DUP7 LOG3 DUP7 0xE8 GT 0xE4 PUSH5 0x736F6C6343 STOP ADDMOD BYTE STOP CALLER "
				},
				"gasEstimates": {
					"creation": {
						"codeDepositCost": "256200",
						"executionCost": "298",
						"totalCost": "256498"
					},
					"external": {
						"setD(string)": "infinite"
					}
				},
				"methodIdentifiers": {
					"setD(string)": "a04f1bb7"
				}
			},
			"storageLayout": {
				"storage": [
					{
						"astId": 32,
						"contract": "contracts/Practical 10/MultipleInheritance.sol:department",
						"label": "dep",
						"offset": 0,
						"slot": "0",
						"type": "t_string_storage"
					}
				],
				"types": {
					"t_string_storage": {
						"encoding": "bytes",
						"label": "string",
						"numberOfBytes": "32"
					}
				}
			},
			"userdoc": {
				"kind": "user",
				"methods": {},
				"version": 1
			}
		}
	}
}